{
  "contractName": "ChainlinkOracle",
  "abi": [
    {
      "inputs": [],
      "stateMutability": "nonpayable",
      "type": "constructor"
    },
    {
      "anonymous": false,
      "inputs": [
        {
          "indexed": true,
          "internalType": "bytes32",
          "name": "id",
          "type": "bytes32"
        }
      ],
      "name": "ChainlinkCancelled",
      "type": "event"
    },
    {
      "anonymous": false,
      "inputs": [
        {
          "indexed": true,
          "internalType": "bytes32",
          "name": "id",
          "type": "bytes32"
        }
      ],
      "name": "ChainlinkFulfilled",
      "type": "event"
    },
    {
      "anonymous": false,
      "inputs": [
        {
          "indexed": true,
          "internalType": "bytes32",
          "name": "id",
          "type": "bytes32"
        }
      ],
      "name": "ChainlinkRequested",
      "type": "event"
    },
    {
      "anonymous": false,
      "inputs": [
        {
          "indexed": true,
          "internalType": "address",
          "name": "previousOwner",
          "type": "address"
        },
        {
          "indexed": true,
          "internalType": "address",
          "name": "newOwner",
          "type": "address"
        }
      ],
      "name": "OwnershipTransferred",
      "type": "event"
    },
    {
      "inputs": [],
      "name": "owner",
      "outputs": [
        {
          "internalType": "address",
          "name": "",
          "type": "address"
        }
      ],
      "stateMutability": "view",
      "type": "function"
    },
    {
      "inputs": [],
      "name": "renounceOwnership",
      "outputs": [],
      "stateMutability": "nonpayable",
      "type": "function"
    },
    {
      "inputs": [],
      "name": "result",
      "outputs": [
        {
          "internalType": "uint256",
          "name": "",
          "type": "uint256"
        }
      ],
      "stateMutability": "view",
      "type": "function"
    },
    {
      "inputs": [
        {
          "internalType": "address",
          "name": "newOwner",
          "type": "address"
        }
      ],
      "name": "transferOwnership",
      "outputs": [],
      "stateMutability": "nonpayable",
      "type": "function"
    },
    {
      "inputs": [],
      "name": "requestIndexPrice",
      "outputs": [
        {
          "internalType": "bytes32",
          "name": "requestId",
          "type": "bytes32"
        }
      ],
      "stateMutability": "nonpayable",
      "type": "function"
    },
    {
      "inputs": [
        {
          "internalType": "bytes32",
          "name": "_requestId",
          "type": "bytes32"
        },
        {
          "internalType": "uint256",
          "name": "_price",
          "type": "uint256"
        }
      ],
      "name": "fulfill",
      "outputs": [],
      "stateMutability": "nonpayable",
      "type": "function"
    },
    {
      "inputs": [],
      "name": "withdrawLink",
      "outputs": [],
      "stateMutability": "nonpayable",
      "type": "function"
    }
  ],
  "bytecode": "0x608060405260016004553480156200001657600080fd5b50620000376200002b620000d860201b60201c565b620000e060201b60201c565b62000047620001a660201b60201c565b732f90a6d021db21e1b2a077c5a37b3c7e75d15b7e600860006101000a81548173ffffffffffffffffffffffffffffffffffffffff021916908373ffffffffffffffffffffffffffffffffffffffff1602179055507f323966613961613133626631343638373838623763633461353030613435623860098190555067016345785d8a0000600b819055506200032e565b600033905090565b6000600660009054906101000a900473ffffffffffffffffffffffffffffffffffffffff16905081600660006101000a81548173ffffffffffffffffffffffffffffffffffffffff021916908373ffffffffffffffffffffffffffffffffffffffff1602179055508173ffffffffffffffffffffffffffffffffffffffff168173ffffffffffffffffffffffffffffffffffffffff167f8be0079c531659141344cd1fd0a4f28419497f9722a3daafe3b4186f6b6457e060405160405180910390a35050565b6200024c73c89bd4e1632d3a43cb03aaad5262cbe4038bc57173ffffffffffffffffffffffffffffffffffffffff166338cc48316040518163ffffffff1660e01b815260040160206040518083038186803b1580156200020557600080fd5b505afa1580156200021a573d6000803e3d6000fd5b505050506040513d601f19601f82011682018060405250810190620002409190620002a9565b6200024e60201b60201c565b565b80600260006101000a81548173ffffffffffffffffffffffffffffffffffffffff021916908373ffffffffffffffffffffffffffffffffffffffff16021790555050565b600081519050620002a38162000314565b92915050565b600060208284031215620002c257620002c16200030f565b5b6000620002d28482850162000292565b91505092915050565b6000620002e882620002ef565b9050919050565b600073ffffffffffffffffffffffffffffffffffffffff82169050919050565b600080fd5b6200031f81620002db565b81146200032b57600080fd5b50565b611e2a806200033e6000396000f3fe608060405234801561001057600080fd5b506004361061007d5760003560e01c8063715018a61161005b578063715018a6146100da5780638da5cb5b146100e45780638dc654a214610102578063f2fde38b1461010c5761007d565b80630f00494a146100825780634357855e146100a057806365372147146100bc575b600080fd5b61008a610128565b6040516100979190611647565b60405180910390f35b6100ba60048036038101906100b59190611355565b6102a8565b005b6100c46103b9565b6040516100d19190611702565b60405180910390f35b6100e26103bf565b005b6100ec610447565b6040516100f99190611540565b60405180910390f35b61010a610471565b005b610126600480360381019061012191906112fb565b610650565b005b60008061013f60095430634357855e60e01b610748565b90506101a36040518060400160405280600381526020017f6765740000000000000000000000000000000000000000000000000000000000815250604051806080016040528060488152602001611dad60489139836107799092919063ffffffff16565b6102226040518060400160405280600481526020017f70617468000000000000000000000000000000000000000000000000000000008152506040518060400160405280600581526020017f76616c7565000000000000000000000000000000000000000000000000000000815250836107799092919063ffffffff16565b6000600a90506102726040518060400160405280600581526020017f74696d657300000000000000000000000000000000000000000000000000000081525082846107ac9092919063ffffffff16565b6102a1600860009054906101000a900473ffffffffffffffffffffffffffffffffffffffff1683600b546107df565b9250505090565b816005600082815260200190815260200160002060009054906101000a900473ffffffffffffffffffffffffffffffffffffffff1673ffffffffffffffffffffffffffffffffffffffff163373ffffffffffffffffffffffffffffffffffffffff161461034a576040517f08c379a0000000000000000000000000000000000000000000000000000000008152600401610341906116c2565b60405180910390fd5b6005600082815260200190815260200160002060006101000a81549073ffffffffffffffffffffffffffffffffffffffff0219169055807f7cc135e0cebb02c3480ae5d74d377283180a2601f8f644edf7987b009316c63a60405160405180910390a281600781905550505050565b60075481565b6103c76107ff565b73ffffffffffffffffffffffffffffffffffffffff166103e5610447565b73ffffffffffffffffffffffffffffffffffffffff161461043b576040517f08c379a0000000000000000000000000000000000000000000000000000000008152600401610432906116a2565b60405180910390fd5b6104456000610807565b565b6000600660009054906101000a900473ffffffffffffffffffffffffffffffffffffffff16905090565b6104796107ff565b73ffffffffffffffffffffffffffffffffffffffff16610497610447565b73ffffffffffffffffffffffffffffffffffffffff16146104ed576040517f08c379a00000000000000000000000000000000000000000000000000000000081526004016104e4906116a2565b60405180910390fd5b60006104f76108cd565b90508073ffffffffffffffffffffffffffffffffffffffff1663a9059cbb338373ffffffffffffffffffffffffffffffffffffffff166370a08231306040518263ffffffff1660e01b815260040161054f9190611540565b60206040518083038186803b15801561056757600080fd5b505afa15801561057b573d6000803e3d6000fd5b505050506040513d601f19601f8201168201806040525081019061059f9190611395565b6040518363ffffffff1660e01b81526004016105bc92919061155b565b602060405180830381600087803b1580156105d657600080fd5b505af11580156105ea573d6000803e3d6000fd5b505050506040513d601f19601f8201168201806040525081019061060e9190611328565b61064d576040517f08c379a0000000000000000000000000000000000000000000000000000000008152600401610644906116e2565b60405180910390fd5b50565b6106586107ff565b73ffffffffffffffffffffffffffffffffffffffff16610676610447565b73ffffffffffffffffffffffffffffffffffffffff16146106cc576040517f08c379a00000000000000000000000000000000000000000000000000000000081526004016106c3906116a2565b60405180910390fd5b600073ffffffffffffffffffffffffffffffffffffffff168173ffffffffffffffffffffffffffffffffffffffff16141561073c576040517f08c379a000000000000000000000000000000000000000000000000000000000815260040161073390611662565b60405180910390fd5b61074581610807565b50565b61075061120b565b61075861120b565b61076f858585846108f7909392919063ffffffff16565b9150509392505050565b6107908284608001516109a790919063ffffffff16565b6107a78184608001516109a790919063ffffffff16565b505050565b6107c38284608001516109a790919063ffffffff16565b6107da8184608001516109cc90919063ffffffff16565b505050565b60006107f68484846001634042994660e01b610a79565b90509392505050565b600033905090565b6000600660009054906101000a900473ffffffffffffffffffffffffffffffffffffffff16905081600660006101000a81548173ffffffffffffffffffffffffffffffffffffffff021916908373ffffffffffffffffffffffffffffffffffffffff1602179055508173ffffffffffffffffffffffffffffffffffffffff168173ffffffffffffffffffffffffffffffffffffffff167f8be0079c531659141344cd1fd0a4f28419497f9722a3daafe3b4186f6b6457e060405160405180910390a35050565b6000600260009054906101000a900473ffffffffffffffffffffffffffffffffffffffff16905090565b6108ff61120b565b61090f8560800151610100610ce1565b508385600001818152505082856020019073ffffffffffffffffffffffffffffffffffffffff16908173ffffffffffffffffffffffffffffffffffffffff16815250508185604001907bffffffffffffffffffffffffffffffffffffffffffffffffffffffff191690817bffffffffffffffffffffffffffffffffffffffffffffffffffffffff191681525050849050949350505050565b6109b48260038351610d4b565b6109c78183610e9090919063ffffffff16565b505050565b7fffffffffffffffffffffffffffffffffffffffffffffffff0000000000000000811215610a03576109fe8282610eb2565b610a75565b67ffffffffffffffff811315610a2257610a1d8282610f29565b610a74565b60008112610a3b57610a3682600083610d4b565b610a73565b610a72826001837fffffffffffffffffffffffffffffffffffffffffffffffffffffffffffffffff610a6d919061196b565b610d4b565b5b5b5b5050565b600030600454604051602001610a90929190611514565b604051602081830303815290604052805190602001209050600454856060018181525050856005600083815260200190815260200160002060006101000a81548173ffffffffffffffffffffffffffffffffffffffff021916908373ffffffffffffffffffffffffffffffffffffffff160217905550807fb5e6e01e79f91267dc17b4e6314d5d4d03593d2ceee0fbb452b750bd70ea5af960405160405180910390a2600082600080886000015189602001518a604001518b606001518a8d6080015160000151604051602401610b6e989796959493929190611584565b604051602081830303815290604052907bffffffffffffffffffffffffffffffffffffffffffffffffffffffff19166020820180517bffffffffffffffffffffffffffffffffffffffffffffffffffffffff83818316178352505050509050600260009054906101000a900473ffffffffffffffffffffffffffffffffffffffff1673ffffffffffffffffffffffffffffffffffffffff16634000aea08887846040518463ffffffff1660e01b8152600401610c2c93929190611609565b602060405180830381600087803b158015610c4657600080fd5b505af1158015610c5a573d6000803e3d6000fd5b505050506040513d601f19601f82011682018060405250810190610c7e9190611328565b610cbd576040517f08c379a0000000000000000000000000000000000000000000000000000000008152600401610cb490611682565b60405180910390fd5b600160046000828254610cd0919061174a565b925050819055505095945050505050565b610ce9611278565b6000602083610cf89190611b52565b14610d2457602082610d0a9190611b52565b6020610d1691906119ff565b82610d21919061174a565b91505b81836020018181525050604051808452600081528281016020016040525082905092915050565b60178111610d7857610d728160058460ff16901b60ff161784610f7590919063ffffffff16565b50610e8b565b60ff8111610dba57610d9d601860058460ff16901b1784610f7590919063ffffffff16565b50610db481600185610f959092919063ffffffff16565b50610e8a565b61ffff8111610dfd57610de0601960058460ff16901b1784610f7590919063ffffffff16565b50610df781600285610f959092919063ffffffff16565b50610e89565b63ffffffff8111610e4257610e25601a60058460ff16901b1784610f7590919063ffffffff16565b50610e3c81600485610f959092919063ffffffff16565b50610e88565b67ffffffffffffffff8111610e8757610e6e601b60058460ff16901b1784610f7590919063ffffffff16565b50610e8581600885610f959092919063ffffffff16565b505b5b5b5b5b505050565b610e98611278565b610eaa83846000015151848551610fb7565b905092915050565b610ed060036005600660ff16901b1783610f7590919063ffffffff16565b50610f2582827fffffffffffffffffffffffffffffffffffffffffffffffffffffffffffffffff610f01919061196b565b604051602001610f119190611702565b6040516020818303038152906040526110c1565b5050565b610f4760026005600660ff16901b1783610f7590919063ffffffff16565b50610f718282604051602001610f5d9190611702565b6040516020818303038152906040526110c1565b5050565b610f7d611278565b610f8d83846000015151846110e6565b905092915050565b610f9d611278565b610fae84856000015151858561113d565b90509392505050565b610fbf611278565b8251821115610fcd57600080fd5b84602001518285610fde919061174a565b11156110135761101285600261100388602001518887610ffe919061174a565b6111cb565b61100d9190611911565b6111e7565b5b6000808651805187602083010193508088870111156110325787860182525b60208701925050505b602084106110795780518252602082611054919061174a565b9150602081611063919061174a565b905060208461107291906119ff565b935061103b565b6000600185602061108a91906119ff565b61010061109791906117f3565b6110a191906119ff565b905080198251168184511681811785525050879350505050949350505050565b6110ce8260028351610d4b565b6110e18183610e9090919063ffffffff16565b505050565b6110ee611278565b8360200151831061111457611113846002866020015161110e9190611911565b6111e7565b5b8351805160208583010184815381861415611130576001820183525b5050508390509392505050565b611145611278565b84602001518483611156919061174a565b111561117e5761117d856002868561116e919061174a565b6111789190611911565b6111e7565b5b600060018361010061119091906117f3565b61119a91906119ff565b905085518386820101858319825116178152815185880111156111bd5784870182525b505085915050949350505050565b6000818311156111dd578290506111e1565b8190505b92915050565b6000826000015190506111fa8383610ce1565b506112058382610e90565b50505050565b6040518060a0016040528060008019168152602001600073ffffffffffffffffffffffffffffffffffffffff16815260200160007bffffffffffffffffffffffffffffffffffffffffffffffffffffffff1916815260200160008152602001611272611278565b81525090565b604051806040016040528060608152602001600081525090565b6000813590506112a181611d50565b92915050565b6000815190506112b681611d67565b92915050565b6000813590506112cb81611d7e565b92915050565b6000813590506112e081611d95565b92915050565b6000815190506112f581611d95565b92915050565b60006020828403121561131157611310611be1565b5b600061131f84828501611292565b91505092915050565b60006020828403121561133e5761133d611be1565b5b600061134c848285016112a7565b91505092915050565b6000806040838503121561136c5761136b611be1565b5b600061137a858286016112bc565b925050602061138b858286016112d1565b9150509250929050565b6000602082840312156113ab576113aa611be1565b5b60006113b9848285016112e6565b91505092915050565b6113cb81611a33565b82525050565b6113da81611a51565b82525050565b6113e981611a5b565b82525050565b60006113fa8261171d565b6114048185611728565b9350611414818560208601611af1565b61141d81611be6565b840191505092915050565b61143961143482611abb565b611b24565b82525050565b600061144c602683611739565b915061145782611c11565b604082019050919050565b600061146f602383611739565b915061147a82611c60565b604082019050919050565b6000611492602083611739565b915061149d82611caf565b602082019050919050565b60006114b5602883611739565b91506114c082611cd8565b604082019050919050565b60006114d8601283611739565b91506114e382611d27565b602082019050919050565b6114f781611ab1565b82525050565b61150e61150982611ab1565b611b48565b82525050565b60006115208285611428565b60148201915061153082846114fd565b6020820191508190509392505050565b600060208201905061155560008301846113c2565b92915050565b600060408201905061157060008301856113c2565b61157d60208301846114ee565b9392505050565b60006101008201905061159a600083018b6113c2565b6115a7602083018a6114ee565b6115b460408301896113d1565b6115c160608301886113c2565b6115ce60808301876113e0565b6115db60a08301866114ee565b6115e860c08301856114ee565b81810360e08301526115fa81846113ef565b90509998505050505050505050565b600060608201905061161e60008301866113c2565b61162b60208301856114ee565b818103604083015261163d81846113ef565b9050949350505050565b600060208201905061165c60008301846113d1565b92915050565b6000602082019050818103600083015261167b8161143f565b9050919050565b6000602082019050818103600083015261169b81611462565b9050919050565b600060208201905081810360008301526116bb81611485565b9050919050565b600060208201905081810360008301526116db816114a8565b9050919050565b600060208201905081810360008301526116fb816114cb565b9050919050565b600060208201905061171760008301846114ee565b92915050565b600081519050919050565b600082825260208201905092915050565b600082825260208201905092915050565b600061175582611ab1565b915061176083611ab1565b9250827fffffffffffffffffffffffffffffffffffffffffffffffffffffffffffffffff0382111561179557611794611b83565b5b828201905092915050565b6000808291508390505b60018511156117ea578086048111156117c6576117c5611b83565b5b60018516156117d55780820291505b80810290506117e385611c04565b94506117aa565b94509492505050565b60006117fe82611ab1565b915061180983611ab1565b92506118367fffffffffffffffffffffffffffffffffffffffffffffffffffffffffffffffff848461183e565b905092915050565b60008261184e576001905061190a565b8161185c576000905061190a565b8160018114611872576002811461187c576118ab565b600191505061190a565b60ff84111561188e5761188d611b83565b5b8360020a9150848211156118a5576118a4611b83565b5b5061190a565b5060208310610133831016604e8410600b84101617156118e05782820a9050838111156118db576118da611b83565b5b61190a565b6118ed84848460016117a0565b9250905081840481111561190457611903611b83565b5b81810290505b9392505050565b600061191c82611ab1565b915061192783611ab1565b9250817fffffffffffffffffffffffffffffffffffffffffffffffffffffffffffffffff04831182151516156119605761195f611b83565b5b828202905092915050565b600061197682611a87565b915061198183611a87565b9250827f8000000000000000000000000000000000000000000000000000000000000000018212600084121516156119bc576119bb611b83565b5b827f7fffffffffffffffffffffffffffffffffffffffffffffffffffffffffffffff0182136000841216156119f4576119f3611b83565b5b828203905092915050565b6000611a0a82611ab1565b9150611a1583611ab1565b925082821015611a2857611a27611b83565b5b828203905092915050565b6000611a3e82611a91565b9050919050565b60008115159050919050565b6000819050919050565b60007fffffffff0000000000000000000000000000000000000000000000000000000082169050919050565b6000819050919050565b600073ffffffffffffffffffffffffffffffffffffffff82169050919050565b6000819050919050565b6000611ac682611acd565b9050919050565b6000611ad882611adf565b9050919050565b6000611aea82611a91565b9050919050565b60005b83811015611b0f578082015181840152602081019050611af4565b83811115611b1e576000848401525b50505050565b6000611b2f82611b36565b9050919050565b6000611b4182611bf7565b9050919050565b6000819050919050565b6000611b5d82611ab1565b9150611b6883611ab1565b925082611b7857611b77611bb2565b5b828206905092915050565b7f4e487b7100000000000000000000000000000000000000000000000000000000600052601160045260246000fd5b7f4e487b7100000000000000000000000000000000000000000000000000000000600052601260045260246000fd5b600080fd5b6000601f19601f8301169050919050565b60008160601b9050919050565b60008160011c9050919050565b7f4f776e61626c653a206e6577206f776e657220697320746865207a65726f206160008201527f6464726573730000000000000000000000000000000000000000000000000000602082015250565b7f756e61626c6520746f207472616e73666572416e6443616c6c20746f206f726160008201527f636c650000000000000000000000000000000000000000000000000000000000602082015250565b7f4f776e61626c653a2063616c6c6572206973206e6f7420746865206f776e6572600082015250565b7f536f75726365206d75737420626520746865206f7261636c65206f662074686560008201527f2072657175657374000000000000000000000000000000000000000000000000602082015250565b7f556e61626c6520746f2077697468647261770000000000000000000000000000600082015250565b611d5981611a33565b8114611d6457600080fd5b50565b611d7081611a45565b8114611d7b57600080fd5b50565b611d8781611a51565b8114611d9257600080fd5b50565b611d9e81611ab1565b8114611da957600080fd5b5056fe687474703a2f2f3132372e302e302e313a353030302f7661756174652f313130302e302f302f363931323030302f313330302e302f302e3030303030303030323231393638353434a2646970667358221220ed53af245fbec30434f5ea313888e7c192d21f973720b3c7ca2149ab46537cb564736f6c63430008070033",
  "immutableReferences": {},
  "source": "// SPDX-License-Identifier: UNLICENSED\r\n\r\npragma solidity ^0.8.6;\r\n\r\nimport \"@chainlink/contracts/src/v0.8/ChainlinkClient.sol\";\r\nimport \"@openzeppelin/contracts/access/Ownable.sol\";\r\n\r\n/* Following the documentation at:\r\n * https://docs.chain.link/docs/make-a-http-get-request/\r\n */\r\ncontract ChainlinkOracle is ChainlinkClient, Ownable {\r\n    //after v0.7 it is neccessary to repeat using statement in all of the derived contracts\r\n    using Chainlink for Chainlink.Request;\r\n\r\n\r\n    //store answer from oracle\r\n    uint256 public result;\r\n\r\n    address private oracleAddress;\r\n    bytes32 private jobId;\r\n\r\n    uint8 private decimals;\r\n\r\n    uint256 private fee;\r\n\r\n    constructor() {\r\n        setPublicChainlinkToken();\r\n        oracleAddress = 0x2f90A6D021db21e1B2A077c5a37B3C7E75D15b7e;\r\n        jobId = \"29fa9aa13bf1468788b7cc4a500a45b8\";\r\n        fee =  0.1 * 10 ** 18;\r\n    }\r\n\r\n    //Create Chainlink request with uint256 job\r\n    function requestIndexPrice() external returns (bytes32 requestId) {\r\n\r\n        //inlcude callback address and callback function as parameters\r\n        Chainlink.Request memory request = buildChainlinkRequest(jobId, address(this), this.fulfill.selector);\r\n        //set URL for get request\r\n        //string url = append(\"http://127.0.0.1:5000/valuate/\", \"1100.0/\"0/6912000/1300.0/0.00000000221968544\", c, d, e, f);\r\n        request.add(\"get\", \"http://127.0.0.1:5000/vauate/1100.0/0/6912000/1300.0/0.00000000221968544\");\r\n        //set path to data\r\n        request.add(\"path\", \"value\");\r\n        //depending on the format of the price data, multiply by 10^decimals\r\n        //find out how to do exponentials\r\n        //to remove decimals\r\n        int numScale = 10; //this needs adjustment!!!!!!!!!!!!!!!!!!!1\r\n        request.addInt(\"times\", numScale);\r\n        //send request with given fee to the oracle\r\n        return sendChainlinkRequestTo(oracleAddress, request, fee);\r\n    }\r\n\r\n    //receive response as uint256\r\n    //recordChainlinkFulffilment ensures that only requesting oracle can fulfill\r\n    function fulfill(bytes32 _requestId, uint256 _price) external recordChainlinkFulfillment(_requestId)\r\n    {\r\n        result = _price;\r\n    }\r\n\r\n    // withdrawLink allows the owner to withdraw any extra LINK on the contract\r\n    //taken from documentation:\r\n    //https://remix.ethereum.org/#version=soljson-v0.6.12+commit.27d51765.js&optimize=false&gist=7cae2cc64026ea69073ee76a32dd0268&evmVersion=null&runs=200\r\n    function withdrawLink() external onlyOwner {\r\n        LinkTokenInterface link = LinkTokenInterface(chainlinkTokenAddress());\r\n        require(link.transfer(msg.sender, link.balanceOf(address(this))), \"Unable to withdraw\");\r\n    }\r\n\r\n    //for the time being this function can only concatenate 6 strings\r\n    function append(string memory a, string memory b, string memory c, string memory d, string memory e, string memory f) internal pure returns (string memory) {\r\n        return string(abi.encodePacked(a, b, c, d, e, f));\r\n    }\r\n}\r\n\r\n",
  "sourcePath": "C:\\Users\\Tomi\\OneDrive - The University of Chicago\\Documents\\Securrency\\FuturesExchange\\contracts\\ChainlinkOracle.sol",
  "compiler": {
    "name": "solc",
    "version": "0.8.7+commit.e28d00a7.Emscripten.clang"
  },
  "schemaVersion": "3.4.2",
  "updatedAt": "2021-08-12T11:56:15.379Z",
  "devdoc": {
    "kind": "dev",
    "methods": {
      "owner()": {
        "details": "Returns the address of the current owner."
      },
      "renounceOwnership()": {
        "details": "Leaves the contract without owner. It will not be possible to call `onlyOwner` functions anymore. Can only be called by the current owner. NOTE: Renouncing ownership will leave the contract without an owner, thereby removing any functionality that is only available to the owner."
      },
      "transferOwnership(address)": {
        "details": "Transfers ownership of the contract to a new account (`newOwner`). Can only be called by the current owner."
      }
    },
    "version": 1
  },
  "userdoc": {
    "kind": "user",
    "methods": {},
    "version": 1
  }
}