{
  "contractName": "ChainlinkOracle",
  "abi": [
    {
      "inputs": [],
      "stateMutability": "nonpayable",
      "type": "constructor"
    },
    {
      "anonymous": false,
      "inputs": [
        {
          "indexed": true,
          "internalType": "bytes32",
          "name": "id",
          "type": "bytes32"
        }
      ],
      "name": "ChainlinkCancelled",
      "type": "event"
    },
    {
      "anonymous": false,
      "inputs": [
        {
          "indexed": true,
          "internalType": "bytes32",
          "name": "id",
          "type": "bytes32"
        }
      ],
      "name": "ChainlinkFulfilled",
      "type": "event"
    },
    {
      "anonymous": false,
      "inputs": [
        {
          "indexed": true,
          "internalType": "bytes32",
          "name": "id",
          "type": "bytes32"
        }
      ],
      "name": "ChainlinkRequested",
      "type": "event"
    },
    {
      "anonymous": false,
      "inputs": [
        {
          "indexed": true,
          "internalType": "address",
          "name": "previousOwner",
          "type": "address"
        },
        {
          "indexed": true,
          "internalType": "address",
          "name": "newOwner",
          "type": "address"
        }
      ],
      "name": "OwnershipTransferred",
      "type": "event"
    },
    {
      "inputs": [],
      "name": "owner",
      "outputs": [
        {
          "internalType": "address",
          "name": "",
          "type": "address"
        }
      ],
      "stateMutability": "view",
      "type": "function",
      "constant": true
    },
    {
      "inputs": [],
      "name": "renounceOwnership",
      "outputs": [],
      "stateMutability": "nonpayable",
      "type": "function"
    },
    {
      "inputs": [
        {
          "internalType": "address",
          "name": "newOwner",
          "type": "address"
        }
      ],
      "name": "transferOwnership",
      "outputs": [],
      "stateMutability": "nonpayable",
      "type": "function"
    },
    {
      "stateMutability": "payable",
      "type": "receive",
      "payable": true
    },
    {
      "inputs": [],
      "name": "requestIndexPrice",
      "outputs": [
        {
          "internalType": "bytes32",
          "name": "requestId",
          "type": "bytes32"
        }
      ],
      "stateMutability": "nonpayable",
      "type": "function"
    },
    {
      "inputs": [
        {
          "internalType": "bytes32",
          "name": "_requestId",
          "type": "bytes32"
        },
        {
          "internalType": "uint256",
          "name": "_price",
          "type": "uint256"
        }
      ],
      "name": "fulfill",
      "outputs": [],
      "stateMutability": "nonpayable",
      "type": "function"
    },
    {
      "inputs": [],
      "name": "withdrawLink",
      "outputs": [],
      "stateMutability": "nonpayable",
      "type": "function"
    },
    {
      "inputs": [],
      "name": "getResult",
      "outputs": [
        {
          "internalType": "uint256",
          "name": "",
          "type": "uint256"
        }
      ],
      "stateMutability": "view",
      "type": "function",
      "constant": true
    }
  ],
  "bytecode": "0x608060405260016004553480156200001657600080fd5b50620000376200002b6200014060201b60201c565b6200014860201b60201c565b600073a36085f69e2889c224210f603d836748e7dc00889050600073ffffffffffffffffffffffffffffffffffffffff168173ffffffffffffffffffffffffffffffffffffffff1614156200009c57620000966200020e60201b60201c565b620000ae565b620000ad81620002b660201b60201c565b5b7356dd6586db0d08c6ce7b2f2805af28616e082455600860006101000a81548173ffffffffffffffffffffffffffffffffffffffff021916908373ffffffffffffffffffffffffffffffffffffffff1602179055507f623636303264313465343733346334396135653163653139643435613436333260098190555067016345785d8a0000600a819055505062000396565b600033905090565b6000600660009054906101000a900473ffffffffffffffffffffffffffffffffffffffff16905081600660006101000a81548173ffffffffffffffffffffffffffffffffffffffff021916908373ffffffffffffffffffffffffffffffffffffffff1602179055508173ffffffffffffffffffffffffffffffffffffffff168173ffffffffffffffffffffffffffffffffffffffff167f8be0079c531659141344cd1fd0a4f28419497f9722a3daafe3b4186f6b6457e060405160405180910390a35050565b620002b473c89bd4e1632d3a43cb03aaad5262cbe4038bc57173ffffffffffffffffffffffffffffffffffffffff166338cc48316040518163ffffffff1660e01b815260040160206040518083038186803b1580156200026d57600080fd5b505afa15801562000282573d6000803e3d6000fd5b505050506040513d601f19601f82011682018060405250810190620002a8919062000311565b620002b660201b60201c565b565b80600260006101000a81548173ffffffffffffffffffffffffffffffffffffffff021916908373ffffffffffffffffffffffffffffffffffffffff16021790555050565b6000815190506200030b816200037c565b92915050565b6000602082840312156200032a576200032962000377565b5b60006200033a84828501620002fa565b91505092915050565b6000620003508262000357565b9050919050565b600073ffffffffffffffffffffffffffffffffffffffff82169050919050565b600080fd5b620003878162000343565b81146200039357600080fd5b50565b611e7c80620003a66000396000f3fe6080604052600436106100745760003560e01c80638da5cb5b1161004e5780638da5cb5b146100eb5780638dc654a214610116578063de2927891461012d578063f2fde38b146101585761007b565b80630f00494a146100805780634357855e146100ab578063715018a6146100d45761007b565b3661007b57005b600080fd5b34801561008c57600080fd5b50610095610181565b6040516100a291906116a4565b60405180910390f35b3480156100b757600080fd5b506100d260048036038101906100cd91906113b2565b610301565b005b3480156100e057600080fd5b506100e9610412565b005b3480156100f757600080fd5b5061010061049a565b60405161010d919061159d565b60405180910390f35b34801561012257600080fd5b5061012b6104c4565b005b34801561013957600080fd5b506101426106a3565b60405161014f919061175f565b60405180910390f35b34801561016457600080fd5b5061017f600480360381019061017a9190611358565b6106ad565b005b60008061019860095430634357855e60e01b6107a5565b90506101fc6040518060400160405280600381526020017f67657400000000000000000000000000000000000000000000000000000000008152506040518060600160405280603d8152602001611e0a603d9139836107d69092919063ffffffff16565b61027b6040518060400160405280600481526020017f70617468000000000000000000000000000000000000000000000000000000008152506040518060400160405280600581526020017f7072696365000000000000000000000000000000000000000000000000000000815250836107d69092919063ffffffff16565b6000600190506102cb6040518060400160405280600581526020017f74696d657300000000000000000000000000000000000000000000000000000081525082846108099092919063ffffffff16565b6102fa600860009054906101000a900473ffffffffffffffffffffffffffffffffffffffff1683600a5461083c565b9250505090565b816005600082815260200190815260200160002060009054906101000a900473ffffffffffffffffffffffffffffffffffffffff1673ffffffffffffffffffffffffffffffffffffffff163373ffffffffffffffffffffffffffffffffffffffff16146103a3576040517f08c379a000000000000000000000000000000000000000000000000000000000815260040161039a9061171f565b60405180910390fd5b6005600082815260200190815260200160002060006101000a81549073ffffffffffffffffffffffffffffffffffffffff0219169055807f7cc135e0cebb02c3480ae5d74d377283180a2601f8f644edf7987b009316c63a60405160405180910390a281600781905550505050565b61041a61085c565b73ffffffffffffffffffffffffffffffffffffffff1661043861049a565b73ffffffffffffffffffffffffffffffffffffffff161461048e576040517f08c379a0000000000000000000000000000000000000000000000000000000008152600401610485906116ff565b60405180910390fd5b6104986000610864565b565b6000600660009054906101000a900473ffffffffffffffffffffffffffffffffffffffff16905090565b6104cc61085c565b73ffffffffffffffffffffffffffffffffffffffff166104ea61049a565b73ffffffffffffffffffffffffffffffffffffffff1614610540576040517f08c379a0000000000000000000000000000000000000000000000000000000008152600401610537906116ff565b60405180910390fd5b600061054a61092a565b90508073ffffffffffffffffffffffffffffffffffffffff1663a9059cbb338373ffffffffffffffffffffffffffffffffffffffff166370a08231306040518263ffffffff1660e01b81526004016105a2919061159d565b60206040518083038186803b1580156105ba57600080fd5b505afa1580156105ce573d6000803e3d6000fd5b505050506040513d601f19601f820116820180604052508101906105f291906113f2565b6040518363ffffffff1660e01b815260040161060f9291906115b8565b602060405180830381600087803b15801561062957600080fd5b505af115801561063d573d6000803e3d6000fd5b505050506040513d601f19601f820116820180604052508101906106619190611385565b6106a0576040517f08c379a00000000000000000000000000000000000000000000000000000000081526004016106979061173f565b60405180910390fd5b50565b6000600754905090565b6106b561085c565b73ffffffffffffffffffffffffffffffffffffffff166106d361049a565b73ffffffffffffffffffffffffffffffffffffffff1614610729576040517f08c379a0000000000000000000000000000000000000000000000000000000008152600401610720906116ff565b60405180910390fd5b600073ffffffffffffffffffffffffffffffffffffffff168173ffffffffffffffffffffffffffffffffffffffff161415610799576040517f08c379a0000000000000000000000000000000000000000000000000000000008152600401610790906116bf565b60405180910390fd5b6107a281610864565b50565b6107ad611268565b6107b5611268565b6107cc85858584610954909392919063ffffffff16565b9150509392505050565b6107ed828460800151610a0490919063ffffffff16565b610804818460800151610a0490919063ffffffff16565b505050565b610820828460800151610a0490919063ffffffff16565b610837818460800151610a2990919063ffffffff16565b505050565b60006108538484846001634042994660e01b610ad6565b90509392505050565b600033905090565b6000600660009054906101000a900473ffffffffffffffffffffffffffffffffffffffff16905081600660006101000a81548173ffffffffffffffffffffffffffffffffffffffff021916908373ffffffffffffffffffffffffffffffffffffffff1602179055508173ffffffffffffffffffffffffffffffffffffffff168173ffffffffffffffffffffffffffffffffffffffff167f8be0079c531659141344cd1fd0a4f28419497f9722a3daafe3b4186f6b6457e060405160405180910390a35050565b6000600260009054906101000a900473ffffffffffffffffffffffffffffffffffffffff16905090565b61095c611268565b61096c8560800151610100610d3e565b508385600001818152505082856020019073ffffffffffffffffffffffffffffffffffffffff16908173ffffffffffffffffffffffffffffffffffffffff16815250508185604001907bffffffffffffffffffffffffffffffffffffffffffffffffffffffff191690817bffffffffffffffffffffffffffffffffffffffffffffffffffffffff191681525050849050949350505050565b610a118260038351610da8565b610a248183610eed90919063ffffffff16565b505050565b7fffffffffffffffffffffffffffffffffffffffffffffffff0000000000000000811215610a6057610a5b8282610f0f565b610ad2565b67ffffffffffffffff811315610a7f57610a7a8282610f86565b610ad1565b60008112610a9857610a9382600083610da8565b610ad0565b610acf826001837fffffffffffffffffffffffffffffffffffffffffffffffffffffffffffffffff610aca91906119c8565b610da8565b5b5b5b5050565b600030600454604051602001610aed929190611571565b604051602081830303815290604052805190602001209050600454856060018181525050856005600083815260200190815260200160002060006101000a81548173ffffffffffffffffffffffffffffffffffffffff021916908373ffffffffffffffffffffffffffffffffffffffff160217905550807fb5e6e01e79f91267dc17b4e6314d5d4d03593d2ceee0fbb452b750bd70ea5af960405160405180910390a2600082600080886000015189602001518a604001518b606001518a8d6080015160000151604051602401610bcb9897969594939291906115e1565b604051602081830303815290604052907bffffffffffffffffffffffffffffffffffffffffffffffffffffffff19166020820180517bffffffffffffffffffffffffffffffffffffffffffffffffffffffff83818316178352505050509050600260009054906101000a900473ffffffffffffffffffffffffffffffffffffffff1673ffffffffffffffffffffffffffffffffffffffff16634000aea08887846040518463ffffffff1660e01b8152600401610c8993929190611666565b602060405180830381600087803b158015610ca357600080fd5b505af1158015610cb7573d6000803e3d6000fd5b505050506040513d601f19601f82011682018060405250810190610cdb9190611385565b610d1a576040517f08c379a0000000000000000000000000000000000000000000000000000000008152600401610d11906116df565b60405180910390fd5b600160046000828254610d2d91906117a7565b925050819055505095945050505050565b610d466112d5565b6000602083610d559190611baf565b14610d8157602082610d679190611baf565b6020610d739190611a5c565b82610d7e91906117a7565b91505b81836020018181525050604051808452600081528281016020016040525082905092915050565b60178111610dd557610dcf8160058460ff16901b60ff161784610fd290919063ffffffff16565b50610ee8565b60ff8111610e1757610dfa601860058460ff16901b1784610fd290919063ffffffff16565b50610e1181600185610ff29092919063ffffffff16565b50610ee7565b61ffff8111610e5a57610e3d601960058460ff16901b1784610fd290919063ffffffff16565b50610e5481600285610ff29092919063ffffffff16565b50610ee6565b63ffffffff8111610e9f57610e82601a60058460ff16901b1784610fd290919063ffffffff16565b50610e9981600485610ff29092919063ffffffff16565b50610ee5565b67ffffffffffffffff8111610ee457610ecb601b60058460ff16901b1784610fd290919063ffffffff16565b50610ee281600885610ff29092919063ffffffff16565b505b5b5b5b5b505050565b610ef56112d5565b610f0783846000015151848551611014565b905092915050565b610f2d60036005600660ff16901b1783610fd290919063ffffffff16565b50610f8282827fffffffffffffffffffffffffffffffffffffffffffffffffffffffffffffffff610f5e91906119c8565b604051602001610f6e919061175f565b60405160208183030381529060405261111e565b5050565b610fa460026005600660ff16901b1783610fd290919063ffffffff16565b50610fce8282604051602001610fba919061175f565b60405160208183030381529060405261111e565b5050565b610fda6112d5565b610fea8384600001515184611143565b905092915050565b610ffa6112d5565b61100b84856000015151858561119a565b90509392505050565b61101c6112d5565b825182111561102a57600080fd5b8460200151828561103b91906117a7565b11156110705761106f8560026110608860200151888761105b91906117a7565b611228565b61106a919061196e565b611244565b5b60008086518051876020830101935080888701111561108f5787860182525b60208701925050505b602084106110d657805182526020826110b191906117a7565b91506020816110c091906117a7565b90506020846110cf9190611a5c565b9350611098565b600060018560206110e79190611a5c565b6101006110f49190611850565b6110fe9190611a5c565b905080198251168184511681811785525050879350505050949350505050565b61112b8260028351610da8565b61113e8183610eed90919063ffffffff16565b505050565b61114b6112d5565b8360200151831061117157611170846002866020015161116b919061196e565b611244565b5b835180516020858301018481538186141561118d576001820183525b5050508390509392505050565b6111a26112d5565b846020015184836111b391906117a7565b11156111db576111da85600286856111cb91906117a7565b6111d5919061196e565b611244565b5b60006001836101006111ed9190611850565b6111f79190611a5c565b9050855183868201018583198251161781528151858801111561121a5784870182525b505085915050949350505050565b60008183111561123a5782905061123e565b8190505b92915050565b6000826000015190506112578383610d3e565b506112628382610eed565b50505050565b6040518060a0016040528060008019168152602001600073ffffffffffffffffffffffffffffffffffffffff16815260200160007bffffffffffffffffffffffffffffffffffffffffffffffffffffffff19168152602001600081526020016112cf6112d5565b81525090565b604051806040016040528060608152602001600081525090565b6000813590506112fe81611dad565b92915050565b60008151905061131381611dc4565b92915050565b60008135905061132881611ddb565b92915050565b60008135905061133d81611df2565b92915050565b60008151905061135281611df2565b92915050565b60006020828403121561136e5761136d611c3e565b5b600061137c848285016112ef565b91505092915050565b60006020828403121561139b5761139a611c3e565b5b60006113a984828501611304565b91505092915050565b600080604083850312156113c9576113c8611c3e565b5b60006113d785828601611319565b92505060206113e88582860161132e565b9150509250929050565b60006020828403121561140857611407611c3e565b5b600061141684828501611343565b91505092915050565b61142881611a90565b82525050565b61143781611aae565b82525050565b61144681611ab8565b82525050565b60006114578261177a565b6114618185611785565b9350611471818560208601611b4e565b61147a81611c43565b840191505092915050565b61149661149182611b18565b611b81565b82525050565b60006114a9602683611796565b91506114b482611c6e565b604082019050919050565b60006114cc602383611796565b91506114d782611cbd565b604082019050919050565b60006114ef602083611796565b91506114fa82611d0c565b602082019050919050565b6000611512602883611796565b915061151d82611d35565b604082019050919050565b6000611535601283611796565b915061154082611d84565b602082019050919050565b61155481611b0e565b82525050565b61156b61156682611b0e565b611ba5565b82525050565b600061157d8285611485565b60148201915061158d828461155a565b6020820191508190509392505050565b60006020820190506115b2600083018461141f565b92915050565b60006040820190506115cd600083018561141f565b6115da602083018461154b565b9392505050565b6000610100820190506115f7600083018b61141f565b611604602083018a61154b565b611611604083018961142e565b61161e606083018861141f565b61162b608083018761143d565b61163860a083018661154b565b61164560c083018561154b565b81810360e0830152611657818461144c565b90509998505050505050505050565b600060608201905061167b600083018661141f565b611688602083018561154b565b818103604083015261169a818461144c565b9050949350505050565b60006020820190506116b9600083018461142e565b92915050565b600060208201905081810360008301526116d88161149c565b9050919050565b600060208201905081810360008301526116f8816114bf565b9050919050565b60006020820190508181036000830152611718816114e2565b9050919050565b6000602082019050818103600083015261173881611505565b9050919050565b6000602082019050818103600083015261175881611528565b9050919050565b6000602082019050611774600083018461154b565b92915050565b600081519050919050565b600082825260208201905092915050565b600082825260208201905092915050565b60006117b282611b0e565b91506117bd83611b0e565b9250827fffffffffffffffffffffffffffffffffffffffffffffffffffffffffffffffff038211156117f2576117f1611be0565b5b828201905092915050565b6000808291508390505b60018511156118475780860481111561182357611822611be0565b5b60018516156118325780820291505b808102905061184085611c61565b9450611807565b94509492505050565b600061185b82611b0e565b915061186683611b0e565b92506118937fffffffffffffffffffffffffffffffffffffffffffffffffffffffffffffffff848461189b565b905092915050565b6000826118ab5760019050611967565b816118b95760009050611967565b81600181146118cf57600281146118d957611908565b6001915050611967565b60ff8411156118eb576118ea611be0565b5b8360020a91508482111561190257611901611be0565b5b50611967565b5060208310610133831016604e8410600b841016171561193d5782820a90508381111561193857611937611be0565b5b611967565b61194a84848460016117fd565b9250905081840481111561196157611960611be0565b5b81810290505b9392505050565b600061197982611b0e565b915061198483611b0e565b9250817fffffffffffffffffffffffffffffffffffffffffffffffffffffffffffffffff04831182151516156119bd576119bc611be0565b5b828202905092915050565b60006119d382611ae4565b91506119de83611ae4565b9250827f800000000000000000000000000000000000000000000000000000000000000001821260008412151615611a1957611a18611be0565b5b827f7fffffffffffffffffffffffffffffffffffffffffffffffffffffffffffffff018213600084121615611a5157611a50611be0565b5b828203905092915050565b6000611a6782611b0e565b9150611a7283611b0e565b925082821015611a8557611a84611be0565b5b828203905092915050565b6000611a9b82611aee565b9050919050565b60008115159050919050565b6000819050919050565b60007fffffffff0000000000000000000000000000000000000000000000000000000082169050919050565b6000819050919050565b600073ffffffffffffffffffffffffffffffffffffffff82169050919050565b6000819050919050565b6000611b2382611b2a565b9050919050565b6000611b3582611b3c565b9050919050565b6000611b4782611aee565b9050919050565b60005b83811015611b6c578082015181840152602081019050611b51565b83811115611b7b576000848401525b50505050565b6000611b8c82611b93565b9050919050565b6000611b9e82611c54565b9050919050565b6000819050919050565b6000611bba82611b0e565b9150611bc583611b0e565b925082611bd557611bd4611c0f565b5b828206905092915050565b7f4e487b7100000000000000000000000000000000000000000000000000000000600052601160045260246000fd5b7f4e487b7100000000000000000000000000000000000000000000000000000000600052601260045260246000fd5b600080fd5b6000601f19601f8301169050919050565b60008160601b9050919050565b60008160011c9050919050565b7f4f776e61626c653a206e6577206f776e657220697320746865207a65726f206160008201527f6464726573730000000000000000000000000000000000000000000000000000602082015250565b7f756e61626c6520746f207472616e73666572416e6443616c6c20746f206f726160008201527f636c650000000000000000000000000000000000000000000000000000000000602082015250565b7f4f776e61626c653a2063616c6c6572206973206e6f7420746865206f776e6572600082015250565b7f536f75726365206d75737420626520746865206f7261636c65206f662074686560008201527f2072657175657374000000000000000000000000000000000000000000000000602082015250565b7f556e61626c6520746f2077697468647261770000000000000000000000000000600082015250565b611db681611a90565b8114611dc157600080fd5b50565b611dcd81611aa2565b8114611dd857600080fd5b50565b611de481611aae565b8114611def57600080fd5b50565b611dfb81611b0e565b8114611e0657600080fd5b5056fe68747470733a2f2f76616c756174696f6e2d6170692e6865726f6b756170702e636f6d2f70726963652f34352e302f302e312f302f3135373738343736a264697066735822122043de01b95758fdec2cb9ffbcb33af5451073f6e407c263e59e9ea1b7de9f8ed364736f6c63430008070033",
  "immutableReferences": {},
  "source": "// SPDX-License-Identifier: UNLICENSED\r\n\r\npragma solidity ^0.8.6;\r\n\r\nimport \"@chainlink/contracts/src/v0.8/ChainlinkClient.sol\";\r\nimport \"@openzeppelin/contracts/access/Ownable.sol\";\r\n\r\n/* Following the documentation at:\r\n * https://docs.chain.link/docs/make-a-http-get-request/\r\n */\r\ncontract ChainlinkOracle is ChainlinkClient, Ownable {\r\n    //after v0.7 it is neccessary to repeat using statement in all of the derived contracts\r\n    using Chainlink for Chainlink.Request;\r\n\r\n\r\n    //store answer from oracle\r\n    uint256 private result;\r\n\r\n    address private oracleAddress;\r\n    bytes32 private jobId;\r\n\r\n    //uint8 private decimals;\r\n\r\n    uint256 private fee;\r\n\r\n    //event Received(message.sender, msg.value);\r\n\r\n    constructor() {\r\n        //Kovan link address\r\n        address _link = 0xa36085F69e2889c224210F603D836748e7dC0088;\r\n        if (_link ==address(0)) {\r\n            setPublicChainlinkToken();\r\n        } else {\r\n            setChainlinkToken(_link);\r\n        }\r\n\r\n        //kovan node oracle\r\n        oracleAddress = 0x56dd6586DB0D08c6Ce7B2f2805af28616E082455;\r\n        jobId = \"b6602d14e4734c49a5e1ce19d45a4632\";\r\n\r\n        //rinkeby node oracle\r\n        /*\r\n        oracleAddress = 0x3CE9f959d2961b7CE7f7C5AaBbA11fBCA23868a7;\r\n        jobId = \"70282998bad444c0a42aba1eb5a31cea\";\r\n        */\r\n        fee =  0.1 * 10 ** 18; //0.1 LINK\r\n    }\r\n\r\n    //Create Chainlink request with uint256 job\r\n    function requestIndexPrice() external returns (bytes32 requestId) {\r\n\r\n        Chainlink.Request memory request = buildChainlinkRequest(jobId, address(this), this.fulfill.selector);\r\n\r\n        request.add(\"get\", \"https://valuation-api.herokuapp.com/price/45.0/0.1/0/15778476\");\r\n        //set path to data\r\n        request.add(\"path\", \"price\");\r\n        //depending on the format of the price data, multiply by 10^decimals\r\n        //find out how to do exponentials\r\n        //to remove decimals\r\n        int numScale = 1; //this needs adjustment!!!!!!!!!!!!!!!!!!!1\r\n        request.addInt(\"times\", numScale);\r\n        //send request with given fee to the oracle\r\n        return sendChainlinkRequestTo(oracleAddress, request, fee);\r\n    }\r\n\r\n    //receive response as uint256\r\n    //recordChainlinkFulffilment ensures that only requesting oracle can fulfill\r\n    function fulfill(bytes32 _requestId, uint256 _price) external recordChainlinkFulfillment(_requestId){\r\n        result = _price;\r\n    }\r\n\r\n    // withdrawLink allows the owner to withdraw any extra LINK on the contract\r\n    //taken from documentation:\r\n    //https://remix.ethereum.org/#version=soljson-v0.6.12+commit.27d51765.js&optimize=false&gist=7cae2cc64026ea69073ee76a32dd0268&evmVersion=null&runs=200\r\n    function withdrawLink() external onlyOwner {\r\n        LinkTokenInterface link = LinkTokenInterface(chainlinkTokenAddress());\r\n        require(link.transfer(msg.sender, link.balanceOf(address(this))), \"Unable to withdraw\");\r\n    }\r\n\r\n    //for the time being this function can only concatenate 6 strings\r\n    /*\r\n    function append(string memory a, string memory b, string memory c, string memory d, string memory e, string memory f) internal pure returns (string memory) {\r\n        return string(abi.encodePacked(a, b, c, d, e, f));\r\n    }\r\n    */\r\n\r\n    //fallback function to receive eth\r\n    receive() external payable {\r\n\r\n    }\r\n\r\n\r\n    function getResult() external view returns (uint256) {\r\n        return result;\r\n    }\r\n}\r\n\r\n",
  "sourcePath": "C:\\Users\\Tomi\\OneDrive - The University of Chicago\\Documents\\Securrency\\FuturesExchange\\contracts\\ChainlinkOracle.sol",
  "compiler": {
    "name": "solc",
    "version": "0.8.7+commit.e28d00a7.Emscripten.clang"
  },
  "schemaVersion": "3.4.2",
  "updatedAt": "2021-08-18T08:45:29.154Z",
  "networkType": "ethereum",
  "devdoc": {
    "kind": "dev",
    "methods": {
      "owner()": {
        "details": "Returns the address of the current owner."
      },
      "renounceOwnership()": {
        "details": "Leaves the contract without owner. It will not be possible to call `onlyOwner` functions anymore. Can only be called by the current owner. NOTE: Renouncing ownership will leave the contract without an owner, thereby removing any functionality that is only available to the owner."
      },
      "transferOwnership(address)": {
        "details": "Transfers ownership of the contract to a new account (`newOwner`). Can only be called by the current owner."
      }
    },
    "version": 1
  },
  "userdoc": {
    "kind": "user",
    "methods": {},
    "version": 1
  }
}