{
  "contractName": "ChainlinkOracle",
  "abi": [
    {
      "inputs": [
        {
          "internalType": "address",
          "name": "_oracleAddress",
          "type": "address"
        },
        {
          "internalType": "bytes32",
          "name": "_jobId",
          "type": "bytes32"
        },
        {
          "internalType": "address",
          "name": "linkAddress",
          "type": "address"
        },
        {
          "internalType": "uint256",
          "name": "_fee",
          "type": "uint256"
        },
        {
          "internalType": "int256",
          "name": "_decimals",
          "type": "int256"
        },
        {
          "internalType": "string",
          "name": "_apiBaseURL",
          "type": "string"
        },
        {
          "internalType": "string",
          "name": "_apiPath",
          "type": "string"
        },
        {
          "internalType": "bool",
          "name": "_isSignedResult",
          "type": "bool"
        }
      ],
      "stateMutability": "nonpayable",
      "type": "constructor"
    },
    {
      "anonymous": false,
      "inputs": [
        {
          "indexed": true,
          "internalType": "bytes32",
          "name": "id",
          "type": "bytes32"
        }
      ],
      "name": "ChainlinkCancelled",
      "type": "event"
    },
    {
      "anonymous": false,
      "inputs": [
        {
          "indexed": true,
          "internalType": "bytes32",
          "name": "id",
          "type": "bytes32"
        }
      ],
      "name": "ChainlinkFulfilled",
      "type": "event"
    },
    {
      "anonymous": false,
      "inputs": [
        {
          "indexed": true,
          "internalType": "bytes32",
          "name": "id",
          "type": "bytes32"
        }
      ],
      "name": "ChainlinkRequested",
      "type": "event"
    },
    {
      "anonymous": false,
      "inputs": [
        {
          "indexed": false,
          "internalType": "bytes32",
          "name": "requestId",
          "type": "bytes32"
        }
      ],
      "name": "Fulfilled",
      "type": "event"
    },
    {
      "anonymous": false,
      "inputs": [
        {
          "indexed": false,
          "internalType": "address",
          "name": "withdrawer",
          "type": "address"
        },
        {
          "indexed": false,
          "internalType": "uint256",
          "name": "amount",
          "type": "uint256"
        }
      ],
      "name": "LinkWithdrawn",
      "type": "event"
    },
    {
      "anonymous": false,
      "inputs": [
        {
          "indexed": true,
          "internalType": "address",
          "name": "previousOwner",
          "type": "address"
        },
        {
          "indexed": true,
          "internalType": "address",
          "name": "newOwner",
          "type": "address"
        }
      ],
      "name": "OwnershipTransferred",
      "type": "event"
    },
    {
      "anonymous": false,
      "inputs": [
        {
          "indexed": false,
          "internalType": "address",
          "name": "sender",
          "type": "address"
        },
        {
          "indexed": false,
          "internalType": "uint256",
          "name": "amount",
          "type": "uint256"
        }
      ],
      "name": "Received",
      "type": "event"
    },
    {
      "anonymous": false,
      "inputs": [
        {
          "indexed": false,
          "internalType": "address",
          "name": "oracleAddress",
          "type": "address"
        },
        {
          "indexed": false,
          "internalType": "bytes32",
          "name": "jobId",
          "type": "bytes32"
        },
        {
          "indexed": false,
          "internalType": "uint256",
          "name": "fee",
          "type": "uint256"
        }
      ],
      "name": "RequestSent",
      "type": "event"
    },
    {
      "stateMutability": "payable",
      "type": "fallback"
    },
    {
      "inputs": [],
      "name": "decimals",
      "outputs": [
        {
          "internalType": "int256",
          "name": "",
          "type": "int256"
        }
      ],
      "stateMutability": "view",
      "type": "function"
    },
    {
      "inputs": [],
      "name": "fee",
      "outputs": [
        {
          "internalType": "uint256",
          "name": "",
          "type": "uint256"
        }
      ],
      "stateMutability": "view",
      "type": "function"
    },
    {
      "inputs": [],
      "name": "isSignedResult",
      "outputs": [
        {
          "internalType": "bool",
          "name": "",
          "type": "bool"
        }
      ],
      "stateMutability": "view",
      "type": "function"
    },
    {
      "inputs": [],
      "name": "jobId",
      "outputs": [
        {
          "internalType": "bytes32",
          "name": "",
          "type": "bytes32"
        }
      ],
      "stateMutability": "view",
      "type": "function"
    },
    {
      "inputs": [],
      "name": "oracleAddress",
      "outputs": [
        {
          "internalType": "address",
          "name": "",
          "type": "address"
        }
      ],
      "stateMutability": "view",
      "type": "function"
    },
    {
      "inputs": [],
      "name": "owner",
      "outputs": [
        {
          "internalType": "address",
          "name": "",
          "type": "address"
        }
      ],
      "stateMutability": "view",
      "type": "function"
    },
    {
      "inputs": [],
      "name": "renounceOwnership",
      "outputs": [],
      "stateMutability": "nonpayable",
      "type": "function"
    },
    {
      "inputs": [
        {
          "internalType": "address",
          "name": "newOwner",
          "type": "address"
        }
      ],
      "name": "transferOwnership",
      "outputs": [],
      "stateMutability": "nonpayable",
      "type": "function"
    },
    {
      "stateMutability": "payable",
      "type": "receive"
    },
    {
      "inputs": [
        {
          "internalType": "string",
          "name": "apiURLParameters",
          "type": "string"
        }
      ],
      "name": "requestIndexPrice",
      "outputs": [
        {
          "internalType": "bytes32",
          "name": "requestId",
          "type": "bytes32"
        }
      ],
      "stateMutability": "nonpayable",
      "type": "function"
    },
    {
      "inputs": [
        {
          "internalType": "bytes32",
          "name": "_requestId",
          "type": "bytes32"
        },
        {
          "internalType": "int256",
          "name": "_result",
          "type": "int256"
        }
      ],
      "name": "fulfillSigned",
      "outputs": [],
      "stateMutability": "nonpayable",
      "type": "function"
    },
    {
      "inputs": [
        {
          "internalType": "bytes32",
          "name": "_requestId",
          "type": "bytes32"
        },
        {
          "internalType": "uint256",
          "name": "_result",
          "type": "uint256"
        }
      ],
      "name": "fulfillUnsigned",
      "outputs": [],
      "stateMutability": "nonpayable",
      "type": "function"
    },
    {
      "inputs": [],
      "name": "withdrawLink",
      "outputs": [],
      "stateMutability": "nonpayable",
      "type": "function"
    },
    {
      "inputs": [],
      "name": "getUnsignedResult",
      "outputs": [
        {
          "internalType": "uint256",
          "name": "",
          "type": "uint256"
        }
      ],
      "stateMutability": "view",
      "type": "function"
    },
    {
      "inputs": [],
      "name": "getSignedResult",
      "outputs": [
        {
          "internalType": "int256",
          "name": "",
          "type": "int256"
        }
      ],
      "stateMutability": "view",
      "type": "function"
    }
  ],
  "bytecode": "0x608060405260016004553480156200001657600080fd5b5060405162001e3538038062001e358339810160408190526200003991620003a1565b6200004433620000ff565b6001600160a01b03861662000063576200005d62000151565b6200007f565b600280546001600160a01b0319166001600160a01b0388161790555b600980546001600160a01b0319166001600160a01b038a16179055600a879055600e859055600d8490558251620000be90600c90602086019062000202565b508151620000d490600b90602085019062000202565b5060068054911515600160a01b0260ff60a01b1990921691909117905550620004bd95505050505050565b600680546001600160a01b038381166001600160a01b0319831681179093556040519116919082907f8be0079c531659141344cd1fd0a4f28419497f9722a3daafe3b4186f6b6457e090600090a35050565b6200020073c89bd4e1632d3a43cb03aaad5262cbe4038bc5716001600160a01b03166338cc48316040518163ffffffff1660e01b815260040160206040518083038186803b158015620001a357600080fd5b505afa158015620001b8573d6000803e3d6000fd5b505050506040513d601f19601f82011682018060405250810190620001de91906200037c565b600280546001600160a01b0319166001600160a01b0392909216919091179055565b565b82805462000210906200046a565b90600052602060002090601f0160209004810192826200023457600085556200027f565b82601f106200024f57805160ff19168380011785556200027f565b828001600101855582156200027f579182015b828111156200027f57825182559160200191906001019062000262565b506200028d92915062000291565b5090565b5b808211156200028d576000815560010162000292565b80516001600160a01b0381168114620002c057600080fd5b919050565b600082601f830112620002d757600080fd5b81516001600160401b0380821115620002f457620002f4620004a7565b604051601f8301601f19908116603f011681019082821181831017156200031f576200031f620004a7565b816040528381526020925086838588010111156200033c57600080fd5b600091505b8382101562000360578582018301518183018401529082019062000341565b83821115620003725760008385830101525b9695505050505050565b6000602082840312156200038f57600080fd5b6200039a82620002a8565b9392505050565b600080600080600080600080610100898b031215620003bf57600080fd5b620003ca89620002a8565b975060208901519650620003e160408a01620002a8565b60608a015160808b015160a08c015192985090965094506001600160401b03808211156200040e57600080fd5b6200041c8c838d01620002c5565b945060c08b01519150808211156200043357600080fd5b50620004428b828c01620002c5565b92505060e089015180151581146200045957600080fd5b809150509295985092959890939650565b600181811c908216806200047f57607f821691505b60208210811415620004a157634e487b7160e01b600052602260045260246000fd5b50919050565b634e487b7160e01b600052604160045260246000fd5b61196880620004cd6000396000f3fe6080604052600436106100d55760003560e01c8063918c00b911610079578063bd2563fb11610056578063bd2563fb14610261578063c2939d9714610276578063ddca3f431461028c578063f2fde38b146102a257005b8063918c00b9146101fb5780639df49c231461022c578063a89ae4ba1461024157005b8063715018a6116100b2578063715018a61461017f5780637e0b66d0146101945780638da5cb5b146101b45780638dc654a2146101e657005b8063313ce5671461011657806351744bca1461013f57806369723be71461015f57005b3661011457604080513381523460208201527f88a5966d370b9919b20f3e2c13ff65706f196a4e32cc2c12bf57088f88525874910160405180910390a1005b005b34801561012257600080fd5b5061012c600d5481565b6040519081526020015b60405180910390f35b34801561014b57600080fd5b5061011461015a3660046114eb565b6102c2565b34801561016b57600080fd5b5061012c61017a36600461150d565b6103ce565b34801561018b57600080fd5b506101146106e8565b3480156101a057600080fd5b506101146101af3660046114eb565b61074e565b3480156101c057600080fd5b506006546001600160a01b03165b6040516001600160a01b039091168152602001610136565b3480156101f257600080fd5b5061011461084c565b34801561020757600080fd5b5060065461021c90600160a01b900460ff1681565b6040519015158152602001610136565b34801561023857600080fd5b5060075461012c565b34801561024d57600080fd5b506009546101ce906001600160a01b031681565b34801561026d57600080fd5b5060085461012c565b34801561028257600080fd5b5061012c600a5481565b34801561029857600080fd5b5061012c600e5481565b3480156102ae57600080fd5b506101146102bd3660046114a0565b610a75565b60008281526005602052604090205482906001600160a01b031633146103405760405162461bcd60e51b815260206004820152602860248201527f536f75726365206d75737420626520746865206f7261636c65206f6620746865604482015267081c995c5d595cdd60c21b60648201526084015b60405180910390fd5b600081815260056020526040808220805473ffffffffffffffffffffffffffffffffffffffff191690555182917f7cc135e0cebb02c3480ae5d74d377283180a2601f8f644edf7987b009316c63a91a260088290556040518381527f6930ee93026433301a14b1baa0b52ca0d4640cb1edaa703beeb9056e23526984906020015b60405180910390a1505050565b600061040e6040805160a0810182526000808252602080830182905282840182905260608084018390528451808601909552845283015290608082015290565b600654600160a01b900460ff161561045557600a5461044e90307f51744bca00000000000000000000000000000000000000000000000000000000610b57565b9050610486565b600a5461048390307f7e0b66d000000000000000000000000000000000000000000000000000000000610b57565b90505b61055b6040518060400160405280600381526020017f6765740000000000000000000000000000000000000000000000000000000000815250610553600c80546104cf906118af565b80601f01602080910402602001604051908101604052809291908181526020018280546104fb906118af565b80156105485780601f1061051d57610100808354040283529160200191610548565b820191906000526020600020905b81548152906001019060200180831161052b57829003601f168201915b505050505086610be8565b839190610c15565b61062f6040518060400160405280600481526020017f7061746800000000000000000000000000000000000000000000000000000000815250600b80546105a1906118af565b80601f01602080910402602001604051908101604052809291908181526020018280546105cd906118af565b801561061a5780601f106105ef5761010080835404028352916020019161061a565b820191906000526020600020905b8154815290600101906020018083116105fd57829003601f168201915b505050505083610c159092919063ffffffff16565b60408051808201909152600581527f74696d65730000000000000000000000000000000000000000000000000000006020820152600d54610671918391610c38565b600954600e5461068c916001600160a01b0316908390610c56565b600954600a54600e54604080516001600160a01b0390941684526020840192909252908201529092507f5de0ca4d601c6369aafe37da9bab92be9804895234cdb72d8181492e84e6bcb29060600160405180910390a150919050565b6006546001600160a01b031633146107425760405162461bcd60e51b815260206004820181905260248201527f4f776e61626c653a2063616c6c6572206973206e6f7420746865206f776e65726044820152606401610337565b61074c6000610c8e565b565b60008281526005602052604090205482906001600160a01b031633146107c75760405162461bcd60e51b815260206004820152602860248201527f536f75726365206d75737420626520746865206f7261636c65206f6620746865604482015267081c995c5d595cdd60c21b6064820152608401610337565b600081815260056020526040808220805473ffffffffffffffffffffffffffffffffffffffff191690555182917f7cc135e0cebb02c3480ae5d74d377283180a2601f8f644edf7987b009316c63a91a260078290556040518381527f6930ee93026433301a14b1baa0b52ca0d4640cb1edaa703beeb9056e23526984906020016103c1565b6006546001600160a01b031633146108a65760405162461bcd60e51b815260206004820181905260248201527f4f776e61626c653a2063616c6c6572206973206e6f7420746865206f776e65726044820152606401610337565b60006108ba6002546001600160a01b031690565b6040517f70a082310000000000000000000000000000000000000000000000000000000081523060048201529091506000906001600160a01b038316906370a082319060240160206040518083038186803b15801561091857600080fd5b505afa15801561092c573d6000803e3d6000fd5b505050506040513d601f19601f8201168201806040525081019061095091906115be565b6040517fa9059cbb000000000000000000000000000000000000000000000000000000008152336004820152602481018290529091506001600160a01b0383169063a9059cbb90604401602060405180830381600087803b1580156109b457600080fd5b505af11580156109c8573d6000803e3d6000fd5b505050506040513d601f19601f820116820180604052508101906109ec91906114c9565b610a385760405162461bcd60e51b815260206004820152601260248201527f556e61626c6520746f20776974686472617700000000000000000000000000006044820152606401610337565b60408051338152602081018390527fcb1436249a1dd8cf93362c28d79a4e20dc54398b6c49e30316e8396e72a584b0910160405180910390a15050565b6006546001600160a01b03163314610acf5760405162461bcd60e51b815260206004820181905260248201527f4f776e61626c653a2063616c6c6572206973206e6f7420746865206f776e65726044820152606401610337565b6001600160a01b038116610b4b5760405162461bcd60e51b815260206004820152602660248201527f4f776e61626c653a206e6577206f776e657220697320746865207a65726f206160448201527f64647265737300000000000000000000000000000000000000000000000000006064820152608401610337565b610b5481610c8e565b50565b610b956040805160a0810182526000808252602080830182905282840182905260608084018390528451808601909552845283015290608082015290565b610bd36040805160a0810182526000808252602080830182905282840182905260608084018390528451808601909552845283015290608082015290565b610bdf81868686610ced565b95945050505050565b60608282604051602001610bfd929190611603565b60405160208183030381529060405290505b92915050565b6080830151610c249083610d78565b6080830151610c339082610d78565b505050565b6080830151610c479083610d78565b6080830151610c339082610d8f565b6000610c8684848460017f4042994600000000000000000000000000000000000000000000000000000000610df3565b949350505050565b600680546001600160a01b0383811673ffffffffffffffffffffffffffffffffffffffff19831681179093556040519116919082907f8be0079c531659141344cd1fd0a4f28419497f9722a3daafe3b4186f6b6457e090600090a35050565b610d2b6040805160a0810182526000808252602080830182905282840182905260608084018390528451808601909552845283015290608082015290565b610d3b856080015161010061106c565b50509183526001600160a01b031660208301527fffffffff0000000000000000000000000000000000000000000000000000000016604082015290565b610d8582600383516110d1565b610c3382826111a5565b67ffffffffffffffff19811215610dae57610daa82826111d3565b5050565b67ffffffffffffffff811315610dc857610daa8282611215565b60008112610ddc57610daa826000836110d1565b610daa826001610dee846000196117f8565b6110d1565b6004546040516bffffffffffffffffffffffff193060601b166020820152603481019190915260009060540160408051808303601f190181529181528151602092830120600454606089015260008181526005909352818320805473ffffffffffffffffffffffffffffffffffffffff19166001600160a01b038b16179055905190925082917fb5e6e01e79f91267dc17b4e6314d5d4d03593d2ceee0fbb452b750bd70ea5af991a2600082600080886000015189602001518a604001518b606001518a8d6080015160000151604051602401610ed7989796959493929190611632565b60408051601f198184030181529181526020820180517bffffffffffffffffffffffffffffffffffffffffffffffffffffffff167fffffffff000000000000000000000000000000000000000000000000000000009094169390931790925260025491517f4000aea00000000000000000000000000000000000000000000000000000000081529092506001600160a01b0390911690634000aea090610f85908a90899086906004016116ae565b602060405180830381600087803b158015610f9f57600080fd5b505af1158015610fb3573d6000803e3d6000fd5b505050506040513d601f19601f82011682018060405250810190610fd791906114c9565b6110495760405162461bcd60e51b815260206004820152602360248201527f756e61626c6520746f207472616e73666572416e6443616c6c20746f206f726160448201527f636c6500000000000000000000000000000000000000000000000000000000006064820152608401610337565b60016004600082825461105c91906116d6565b9091555091979650505050505050565b60408051808201909152606081526000602082015261108c6020836118e4565b156110b45761109c6020836118e4565b6110a790602061186c565b6110b190836116d6565b91505b506020828101829052604080518085526000815290920101905290565b601781116110f2576110ec8360e0600585901b168317611238565b50505050565b60ff811161111c5761110f836018611fe0600586901b1617611238565b506110ec8382600161125d565b61ffff81116111475761113a836019611fe0600586901b1617611238565b506110ec8382600261125d565b63ffffffff81116111745761116783601a611fe0600586901b1617611238565b506110ec8382600461125d565b67ffffffffffffffff8111610c335761119883601b611fe0600586901b1617611238565b506110ec8382600861125d565b6040805180820190915260608152600060208201526111cc83846000015151848551611283565b9392505050565b6111de8260c3611238565b50610daa826111ef836000196117f8565b60405160200161120191815260200190565b604051602081830303815290604052611388565b6112208260c2611238565b50610daa828260405160200161120191815260200190565b6040805180820190915260608152600060208201526111cc8384600001515184611395565b604080518082019091526060815260006020820152610c868485600001515185856113f1565b60408051808201909152606081526000602082015282518211156112a657600080fd5b60208501516112b583866116d6565b11156112e8576112e8856112d8876020015187866112d391906116d6565b611472565b6112e39060026117d9565b611489565b6000808651805187602083010193508088870111156113075787860182525b505050602084015b6020841061134757805182526113266020836116d6565b91506113336020826116d6565b905061134060208561186c565b935061130f565b6000600161135686602061186c565b61136290610100611731565b61136c919061186c565b9151835183169219169190911790915250849050949350505050565b610d8582600283516110d1565b604080518082019091526060815260006020820152836020015183106113ca576113ca84856020015160026112e391906117d9565b8351805160208583010184815350808514156113e7576001810182525b5093949350505050565b604080518082019091526060815260006020820152602085015161141585846116d6565b111561142957611429856112d886856116d6565b6000600161143984610100611731565b611443919061186c565b90508551838682010185831982511617815250805184870111156114675783860181525b509495945050505050565b600081831115611483575081610c0f565b50919050565b8151611495838361106c565b506110ec83826111a5565b6000602082840312156114b257600080fd5b81356001600160a01b03811681146111cc57600080fd5b6000602082840312156114db57600080fd5b815180151581146111cc57600080fd5b600080604083850312156114fe57600080fd5b50508035926020909101359150565b60006020828403121561151f57600080fd5b813567ffffffffffffffff8082111561153757600080fd5b818401915084601f83011261154b57600080fd5b81358181111561155d5761155d61191c565b604051601f8201601f19908116603f011681019083821181831017156115855761158561191c565b8160405282815287602084870101111561159e57600080fd5b826020860160208301376000928101602001929092525095945050505050565b6000602082840312156115d057600080fd5b5051919050565b600081518084526115ef816020860160208601611883565b601f01601f19169290920160200192915050565b60008351611615818460208801611883565b835190830190611629818360208801611883565b01949350505050565b60006101006001600160a01b03808c1684528a60208501528960408501528089166060850152507fffffffff00000000000000000000000000000000000000000000000000000000871660808401528560a08401528460c08401528060e084015261169f818401856115d7565b9b9a5050505050505050505050565b6001600160a01b0384168152826020820152606060408201526000610bdf60608301846115d7565b600082198211156116e9576116e9611906565b500190565b600181815b8085111561172957816000190482111561170f5761170f611906565b8085161561171c57918102915b93841c93908002906116f3565b509250929050565b60006111cc838360008261174757506001610c0f565b8161175457506000610c0f565b816001811461176a576002811461177457611790565b6001915050610c0f565b60ff84111561178557611785611906565b50506001821b610c0f565b5060208310610133831016604e8410600b84101617156117b3575081810a610c0f565b6117bd83836116ee565b80600019048211156117d1576117d1611906565b029392505050565b60008160001904831182151516156117f3576117f3611906565b500290565b6000808312837f80000000000000000000000000000000000000000000000000000000000000000183128115161561183257611832611906565b837f7fffffffffffffffffffffffffffffffffffffffffffffffffffffffffffffff01831381161561186657611866611906565b50500390565b60008282101561187e5761187e611906565b500390565b60005b8381101561189e578181015183820152602001611886565b838111156110ec5750506000910152565b600181811c908216806118c357607f821691505b6020821081141561148357634e487b7160e01b600052602260045260246000fd5b60008261190157634e487b7160e01b600052601260045260246000fd5b500690565b634e487b7160e01b600052601160045260246000fd5b634e487b7160e01b600052604160045260246000fdfea264697066735822122036bf2937d2478d8d3eefa07ab0f21b73e695c9d30a2541e9e0bb431fb15e419064736f6c63430008070033",
  "immutableReferences": {},
  "source": "// SPDX-License-Identifier: UNLICENSED\r\n\r\npragma solidity ^0.8.6;\r\n\r\nimport \"@chainlink/contracts/src/v0.8/ChainlinkClient.sol\";\r\nimport \"@openzeppelin/contracts/access/Ownable.sol\";\r\n\r\nimport \"../interfaces/IChainlinkOracle.sol\";\r\n\r\n\r\ncontract ChainlinkOracle is ChainlinkClient, Ownable,  IChainlinkOracle{\r\n    //after v0.7 it is neccessary to repeat using statement in all of the derived contracts\r\n    using Chainlink for Chainlink.Request;\r\n\r\n\r\n    //store answer from oracle\r\n    bool public isSignedResult;\r\n    uint256 private unsignedResult;\r\n    int256 private signedResult;\r\n\r\n    //oracle and job info\r\n    /* The reason I don't set these to a constant value is because\r\n     * sometimes different chainlink nodes and jobs stop/start working.\r\n     */\r\n    address public oracleAddress;\r\n    bytes32 public jobId;\r\n\r\n\r\n    //path for API response can either be a string or a string array\r\n    string internal apiPath;\r\n\r\n    string private apiBaseURL;\r\n\r\n    //deal with decimals\r\n    int public decimals;\r\n\r\n    //fee is usually 0.1Link which is equal to (0.1 * 10 ** 18)\r\n    uint256 public fee;\r\n\r\n    constructor(address _oracleAddress, bytes32 _jobId, \r\n                address linkAddress, uint256 _fee, int _decimals, \r\n                string memory _apiBaseURL, string memory _apiPath, \r\n                bool _isSignedResult) \r\n    {  \r\n        if (linkAddress == address(0)) {\r\n            setPublicChainlinkToken();\r\n        } else {\r\n            setChainlinkToken(linkAddress);\r\n        }\r\n        oracleAddress = _oracleAddress;\r\n        jobId = _jobId;\r\n        fee = _fee;\r\n        decimals = _decimals;\r\n        apiBaseURL = _apiBaseURL;\r\n        apiPath = _apiPath;\r\n        isSignedResult = _isSignedResult;\r\n    }\r\n\r\n    //Create Chainlink request with uint256 job\r\n    //apiURLParameters is empty string for underlying oracles\r\n    function requestIndexPrice(string memory apiURLParameters) external override returns (bytes32 requestId) {\r\n        Chainlink.Request memory request;\r\n        if (isSignedResult) {\r\n            request = buildChainlinkRequest(jobId, address(this), this.fulfillSigned.selector);\r\n        } else {\r\n            request = buildChainlinkRequest(jobId, address(this), this.fulfillUnsigned.selector);\r\n        }\r\n\r\n        request.add(\"get\", concetenateTwoStrings(apiBaseURL, apiURLParameters));\r\n        //set path to data\r\n        request.add(\"path\", apiPath);\r\n        request.addInt(\"times\", decimals);\r\n        //send request with given fee to the oracle\r\n        requestId = sendChainlinkRequestTo(oracleAddress, request, fee);\r\n        emit RequestSent(oracleAddress, jobId, fee);\r\n    }\r\n\r\n    //receive response as uint256\r\n    //recordChainlinkFulffilment ensures that only requesting oracle can fulfill\r\n    function fulfillSigned(bytes32 _requestId, int256 _result) external override recordChainlinkFulfillment(_requestId){\r\n        signedResult = _result;\r\n        emit Fulfilled(_requestId);\r\n    }\r\n\r\n    function fulfillUnsigned(bytes32 _requestId, uint256 _result) external override recordChainlinkFulfillment(_requestId){\r\n        unsignedResult = _result;\r\n        emit Fulfilled(_requestId);\r\n    }\r\n\r\n\r\n    // withdrawLink allows the owner to withdraw any extra LINK on the contract\r\n    function withdrawLink() external override onlyOwner {\r\n        LinkTokenInterface link = LinkTokenInterface(chainlinkTokenAddress());\r\n        uint256 linkBalance = link.balanceOf(address(this));\r\n        require(link.transfer(msg.sender, linkBalance), \"Unable to withdraw\");\r\n        emit LinkWithdrawn(msg.sender, linkBalance);\r\n    }\r\n\r\n    /*\r\n    //concatanate strings and add /  where needed for URL\r\n    function concetenateStringsForURL(string memory a, string memory b, string memory c, string memory d, string memory e) internal pure returns (string memory) {\r\n\t    return string(abi.encodePacked(a,\"/\", b, \"/\", c, \"/\", d, \"/\", e));\r\n    }*/\r\n\r\n    /*\r\n    //parse uint to string\r\n    function uint2str(uint _i) internal pure returns (string memory _uintAsString) {\r\n        if (_i == 0) {\r\n            return \"0\";\r\n        }\r\n        uint j = _i;\r\n        uint len;\r\n        while (j != 0) {\r\n            len++;\r\n            j /= 10;\r\n        }\r\n        bytes memory bstr = new bytes(len);\r\n        uint k = len;\r\n        while (_i != 0) {\r\n            k = k-1;\r\n            uint8 temp = (48 + uint8(_i - _i / 10 * 10));\r\n            bytes1 b1 = bytes1(temp);\r\n            bstr[k] = b1;\r\n            _i /= 10;\r\n        }\r\n        return string(bstr);\r\n    }*/\r\n\r\n    //concatanate two strings\r\n    function concetenateTwoStrings(string memory a, string memory b) internal pure returns(string memory) {\r\n        return string(abi.encodePacked(a, b));\r\n    }\r\n\r\n    //fallback function to receive eth\r\n    receive() external payable {\r\n        emit Received(msg.sender, msg.value);\r\n    }\r\n\r\n    fallback () external payable {\r\n\r\n    }\r\n\r\n    function getUnsignedResult() external view returns (uint256) {\r\n        return unsignedResult;\r\n    }\r\n\r\n    function getSignedResult() external view returns (int256) {\r\n        return signedResult;\r\n    }\r\n\r\n    function setAPIPath(string memory newAPIPath) internal {\r\n        apiPath = newAPIPath;\r\n    }\r\n}\r\n\r\n",
  "sourcePath": "C:\\Users\\Tomi\\OneDrive - The University of Chicago\\Documents\\Securrency\\FuturesExchange\\contracts\\ChainlinkOracle.sol",
  "compiler": {
    "name": "solc",
    "version": "0.8.7+commit.e28d00a7.Emscripten.clang"
  },
  "schemaVersion": "3.4.2",
  "updatedAt": "2021-09-13T15:41:16.588Z",
  "devdoc": {
    "kind": "dev",
    "methods": {
      "owner()": {
        "details": "Returns the address of the current owner."
      },
      "renounceOwnership()": {
        "details": "Leaves the contract without owner. It will not be possible to call `onlyOwner` functions anymore. Can only be called by the current owner. NOTE: Renouncing ownership will leave the contract without an owner, thereby removing any functionality that is only available to the owner."
      },
      "transferOwnership(address)": {
        "details": "Transfers ownership of the contract to a new account (`newOwner`). Can only be called by the current owner."
      }
    },
    "version": 1
  },
  "userdoc": {
    "kind": "user",
    "methods": {},
    "version": 1
  }
}