{
  "contractName": "ChainlinkOracle",
  "abi": [
    {
      "inputs": [
        {
          "internalType": "address",
          "name": "_oracleAddress",
          "type": "address"
        },
        {
          "internalType": "bytes32",
          "name": "_jobId",
          "type": "bytes32"
        },
        {
          "internalType": "address",
          "name": "linkAddress",
          "type": "address"
        },
        {
          "internalType": "uint256",
          "name": "_fee",
          "type": "uint256"
        },
        {
          "internalType": "int256",
          "name": "_decimals",
          "type": "int256"
        },
        {
          "internalType": "string",
          "name": "_apiBaseURL",
          "type": "string"
        },
        {
          "internalType": "string",
          "name": "_apiPath",
          "type": "string"
        },
        {
          "internalType": "bool",
          "name": "_isSignedResult",
          "type": "bool"
        }
      ],
      "stateMutability": "nonpayable",
      "type": "constructor"
    },
    {
      "anonymous": false,
      "inputs": [
        {
          "indexed": true,
          "internalType": "bytes32",
          "name": "id",
          "type": "bytes32"
        }
      ],
      "name": "ChainlinkCancelled",
      "type": "event"
    },
    {
      "anonymous": false,
      "inputs": [
        {
          "indexed": true,
          "internalType": "bytes32",
          "name": "id",
          "type": "bytes32"
        }
      ],
      "name": "ChainlinkFulfilled",
      "type": "event"
    },
    {
      "anonymous": false,
      "inputs": [
        {
          "indexed": true,
          "internalType": "bytes32",
          "name": "id",
          "type": "bytes32"
        }
      ],
      "name": "ChainlinkRequested",
      "type": "event"
    },
    {
      "anonymous": false,
      "inputs": [
        {
          "indexed": false,
          "internalType": "bytes32",
          "name": "requestId",
          "type": "bytes32"
        }
      ],
      "name": "Fulfilled",
      "type": "event"
    },
    {
      "anonymous": false,
      "inputs": [
        {
          "indexed": false,
          "internalType": "address",
          "name": "withdrawer",
          "type": "address"
        },
        {
          "indexed": false,
          "internalType": "uint256",
          "name": "amount",
          "type": "uint256"
        }
      ],
      "name": "LinkWithdrawn",
      "type": "event"
    },
    {
      "anonymous": false,
      "inputs": [
        {
          "indexed": true,
          "internalType": "address",
          "name": "previousOwner",
          "type": "address"
        },
        {
          "indexed": true,
          "internalType": "address",
          "name": "newOwner",
          "type": "address"
        }
      ],
      "name": "OwnershipTransferred",
      "type": "event"
    },
    {
      "anonymous": false,
      "inputs": [
        {
          "indexed": false,
          "internalType": "address",
          "name": "sender",
          "type": "address"
        },
        {
          "indexed": false,
          "internalType": "uint256",
          "name": "amount",
          "type": "uint256"
        }
      ],
      "name": "Received",
      "type": "event"
    },
    {
      "anonymous": false,
      "inputs": [
        {
          "indexed": false,
          "internalType": "address",
          "name": "oracleAddress",
          "type": "address"
        },
        {
          "indexed": false,
          "internalType": "bytes32",
          "name": "jobId",
          "type": "bytes32"
        },
        {
          "indexed": false,
          "internalType": "uint256",
          "name": "fee",
          "type": "uint256"
        }
      ],
      "name": "RequestSent",
      "type": "event"
    },
    {
      "stateMutability": "payable",
      "type": "fallback"
    },
    {
      "inputs": [],
      "name": "decimals",
      "outputs": [
        {
          "internalType": "int256",
          "name": "",
          "type": "int256"
        }
      ],
      "stateMutability": "view",
      "type": "function"
    },
    {
      "inputs": [],
      "name": "fee",
      "outputs": [
        {
          "internalType": "uint256",
          "name": "",
          "type": "uint256"
        }
      ],
      "stateMutability": "view",
      "type": "function"
    },
    {
      "inputs": [],
      "name": "isSignedResult",
      "outputs": [
        {
          "internalType": "bool",
          "name": "",
          "type": "bool"
        }
      ],
      "stateMutability": "view",
      "type": "function"
    },
    {
      "inputs": [],
      "name": "jobId",
      "outputs": [
        {
          "internalType": "bytes32",
          "name": "",
          "type": "bytes32"
        }
      ],
      "stateMutability": "view",
      "type": "function"
    },
    {
      "inputs": [],
      "name": "oracleAddress",
      "outputs": [
        {
          "internalType": "address",
          "name": "",
          "type": "address"
        }
      ],
      "stateMutability": "view",
      "type": "function"
    },
    {
      "inputs": [],
      "name": "owner",
      "outputs": [
        {
          "internalType": "address",
          "name": "",
          "type": "address"
        }
      ],
      "stateMutability": "view",
      "type": "function"
    },
    {
      "inputs": [],
      "name": "renounceOwnership",
      "outputs": [],
      "stateMutability": "nonpayable",
      "type": "function"
    },
    {
      "inputs": [
        {
          "internalType": "address",
          "name": "newOwner",
          "type": "address"
        }
      ],
      "name": "transferOwnership",
      "outputs": [],
      "stateMutability": "nonpayable",
      "type": "function"
    },
    {
      "stateMutability": "payable",
      "type": "receive"
    },
    {
      "inputs": [
        {
          "internalType": "string",
          "name": "apiURLParameters",
          "type": "string"
        }
      ],
      "name": "requestIndexPrice",
      "outputs": [
        {
          "internalType": "bytes32",
          "name": "requestId",
          "type": "bytes32"
        }
      ],
      "stateMutability": "nonpayable",
      "type": "function"
    },
    {
      "inputs": [
        {
          "internalType": "bytes32",
          "name": "_requestId",
          "type": "bytes32"
        },
        {
          "internalType": "int256",
          "name": "_result",
          "type": "int256"
        }
      ],
      "name": "fulfillSigned",
      "outputs": [],
      "stateMutability": "nonpayable",
      "type": "function"
    },
    {
      "inputs": [
        {
          "internalType": "bytes32",
          "name": "_requestId",
          "type": "bytes32"
        },
        {
          "internalType": "uint256",
          "name": "_result",
          "type": "uint256"
        }
      ],
      "name": "fulfillUnsigned",
      "outputs": [],
      "stateMutability": "nonpayable",
      "type": "function"
    },
    {
      "inputs": [],
      "name": "withdrawLink",
      "outputs": [],
      "stateMutability": "nonpayable",
      "type": "function"
    },
    {
      "inputs": [],
      "name": "getUnsignedResult",
      "outputs": [
        {
          "internalType": "uint256",
          "name": "",
          "type": "uint256"
        }
      ],
      "stateMutability": "view",
      "type": "function"
    },
    {
      "inputs": [],
      "name": "getSignedResult",
      "outputs": [
        {
          "internalType": "int256",
          "name": "",
          "type": "int256"
        }
      ],
      "stateMutability": "view",
      "type": "function"
    }
  ],
  "bytecode": "0x608060405260016004553480156200001657600080fd5b5060405162001adc38038062001adc833981016040819052620000399162000396565b6200004433620000ee565b6001600160a01b03861662000063576200005d62000140565b6200006e565b6200006e86620001d5565b600980546001600160a01b0319166001600160a01b038a16179055600a879055600e859055600d8490558251620000ad90600c906020860190620001f7565b508151620000c390600b906020850190620001f7565b5060068054911515600160a01b0260ff60a01b1990921691909117905550620004b295505050505050565b600680546001600160a01b038381166001600160a01b0319831681179093556040519116919082907f8be0079c531659141344cd1fd0a4f28419497f9722a3daafe3b4186f6b6457e090600090a35050565b620001d373c89bd4e1632d3a43cb03aaad5262cbe4038bc5716001600160a01b03166338cc48316040518163ffffffff1660e01b815260040160206040518083038186803b1580156200019257600080fd5b505afa158015620001a7573d6000803e3d6000fd5b505050506040513d601f19601f82011682018060405250810190620001cd919062000371565b620001d5565b565b600280546001600160a01b0319166001600160a01b0392909216919091179055565b82805462000205906200045f565b90600052602060002090601f01602090048101928262000229576000855562000274565b82601f106200024457805160ff191683800117855562000274565b8280016001018555821562000274579182015b828111156200027457825182559160200191906001019062000257565b506200028292915062000286565b5090565b5b8082111562000282576000815560010162000287565b80516001600160a01b0381168114620002b557600080fd5b919050565b600082601f830112620002cc57600080fd5b81516001600160401b0380821115620002e957620002e96200049c565b604051601f8301601f19908116603f011681019082821181831017156200031457620003146200049c565b816040528381526020925086838588010111156200033157600080fd5b600091505b8382101562000355578582018301518183018401529082019062000336565b83821115620003675760008385830101525b9695505050505050565b6000602082840312156200038457600080fd5b6200038f826200029d565b9392505050565b600080600080600080600080610100898b031215620003b457600080fd5b620003bf896200029d565b975060208901519650620003d660408a016200029d565b60608a015160808b015160a08c015192985090965094506001600160401b03808211156200040357600080fd5b620004118c838d01620002ba565b945060c08b01519150808211156200042857600080fd5b50620004378b828c01620002ba565b92505060e089015180151581146200044e57600080fd5b809150509295985092959890939650565b600181811c908216806200047457607f821691505b602082108114156200049657634e487b7160e01b600052602260045260246000fd5b50919050565b634e487b7160e01b600052604160045260246000fd5b61161a80620004c26000396000f3fe6080604052600436106100ae5760003560e01c8063313ce567146100f057806351744bca1461011957806369723be714610139578063715018a6146101595780637e0b66d01461016e5780638da5cb5b1461018e5780638dc654a2146101b0578063918c00b9146101c55780639df49c23146101f6578063a89ae4ba1461020b578063bd2563fb1461022b578063c2939d9714610240578063ddca3f4314610256578063f2fde38b1461026c57005b366100ee577f88a5966d370b9919b20f3e2c13ff65706f196a4e32cc2c12bf57088f8852587433346040516100e4929190611258565b60405180910390a1005b005b3480156100fc57600080fd5b50610106600d5481565b6040519081526020015b60405180910390f35b34801561012557600080fd5b506100ee6101343660046110fe565b61028c565b34801561014557600080fd5b50610106610154366004611120565b61032a565b34801561016557600080fd5b506100ee610591565b34801561017a57600080fd5b506100ee6101893660046110fe565b6105cc565b34801561019a57600080fd5b506101a3610658565b6040516101109190611244565b3480156101bc57600080fd5b506100ee610667565b3480156101d157600080fd5b506006546101e690600160a01b900460ff1681565b6040519015158152602001610110565b34801561020257600080fd5b50600754610106565b34801561021757600080fd5b506009546101a3906001600160a01b031681565b34801561023757600080fd5b50600854610106565b34801561024c57600080fd5b50610106600a5481565b34801561026257600080fd5b50610106600e5481565b34801561027857600080fd5b506100ee6102873660046110b3565b61082b565b60008281526005602052604090205482906001600160a01b031633146102cd5760405162461bcd60e51b81526004016102c490611335565b60405180910390fd5b60008181526005602052604080822080546001600160a01b03191690555182916000805160206115c583398151915291a260088290556040518381526000805160206115a5833981519152906020015b60405180910390a1505050565b6000610334611064565b600654600160a01b900460ff161561036257600a5461035b90306328ba25e560e11b6108cb565b905061037a565b600a5461037790306307e0b66d60e41b6108cb565b90505b6104356040518060400160405280600381526020016219d95d60ea1b81525061042d600c80546103a990611521565b80601f01602080910402602001604051908101604052809291908181526020018280546103d590611521565b80156104225780601f106103f757610100808354040283529160200191610422565b820191906000526020600020905b81548152906001019060200180831161040557829003601f168201915b5050505050866108f0565b83919061091d565b6104f0604051806040016040528060048152602001630e0c2e8d60e31b815250600b805461046290611521565b80601f016020809104026020016040519081016040528092919081815260200182805461048e90611521565b80156104db5780601f106104b0576101008083540402835291602001916104db565b820191906000526020600020905b8154815290600101906020018083116104be57829003601f168201915b50505050508361091d9092919063ffffffff16565b60408051808201909152600581526474696d657360d81b6020820152600d5461051a918391610940565b600954600e54610535916001600160a01b031690839061095e565b600954600a54600e54604080516001600160a01b0390941684526020840192909252908201529092507f5de0ca4d601c6369aafe37da9bab92be9804895234cdb72d8181492e84e6bcb29060600160405180910390a150919050565b3361059a610658565b6001600160a01b0316146105c05760405162461bcd60e51b81526004016102c490611300565b6105ca600061097d565b565b60008281526005602052604090205482906001600160a01b031633146106045760405162461bcd60e51b81526004016102c490611335565b60008181526005602052604080822080546001600160a01b03191690555182916000805160206115c583398151915291a260078290556040518381526000805160206115a58339815191529060200161031d565b6006546001600160a01b031690565b33610670610658565b6001600160a01b0316146106965760405162461bcd60e51b81526004016102c490611300565b60006106aa6002546001600160a01b031690565b90506000816001600160a01b03166370a08231306040518263ffffffff1660e01b81526004016106da9190611244565b60206040518083038186803b1580156106f257600080fd5b505afa158015610706573d6000803e3d6000fd5b505050506040513d601f19601f8201168201806040525081019061072a91906111d0565b60405163a9059cbb60e01b81529091506001600160a01b0383169063a9059cbb9061075b9033908590600401611258565b602060405180830381600087803b15801561077557600080fd5b505af1158015610789573d6000803e3d6000fd5b505050506040513d601f19601f820116820180604052508101906107ad91906110dc565b6107ee5760405162461bcd60e51b8152602060048201526012602482015271556e61626c6520746f20776974686472617760701b60448201526064016102c4565b7fcb1436249a1dd8cf93362c28d79a4e20dc54398b6c49e30316e8396e72a584b0338260405161081f929190611258565b60405180910390a15050565b33610834610658565b6001600160a01b03161461085a5760405162461bcd60e51b81526004016102c490611300565b6001600160a01b0381166108bf5760405162461bcd60e51b815260206004820152602660248201527f4f776e61626c653a206e6577206f776e657220697320746865207a65726f206160448201526564647265737360d01b60648201526084016102c4565b6108c88161097d565b50565b6108d3611064565b6108db611064565b6108e7818686866109cf565b95945050505050565b60608282604051602001610905929190611215565b60405160208183030381529060405290505b92915050565b608083015161092c9083610a0c565b608083015161093b9082610a0c565b505050565b608083015161094f9083610a0c565b608083015161093b9082610a23565b600061097584848460016320214ca360e11b610a85565b949350505050565b600680546001600160a01b038381166001600160a01b0319831681179093556040519116919082907f8be0079c531659141344cd1fd0a4f28419497f9722a3daafe3b4186f6b6457e090600090a35050565b6109d7611064565b6109e78560800151610100610c8c565b50509183526001600160a01b031660208301526001600160e01b031916604082015290565b610a198260038351610ce4565b61093b8282610db7565b6001600160401b0319811215610a4157610a3d8282610dd8565b5050565b6001600160401b03811315610a5a57610a3d8282610e1a565b60008112610a6e57610a3d82600083610ce4565b610a3d826001610a808460001961149f565b610ce4565b6004546040516001600160601b03193060601b166020820152603481019190915260009060540160408051808303601f19018152918152815160209283012060045460608901526000818152600590935281832080546001600160a01b0319166001600160a01b038b16179055905190925082917fb5e6e01e79f91267dc17b4e6314d5d4d03593d2ceee0fbb452b750bd70ea5af991a2600082600080886000015189602001518a604001518b606001518a8d6080015160000151604051602401610b57989796959493929190611271565b60408051601f198184030181529181526020820180516001600160e01b03166001600160e01b0319909416939093179092526002549151630200057560e51b81529092506001600160a01b0390911690634000aea090610bbf908a90899086906004016112d9565b602060405180830381600087803b158015610bd957600080fd5b505af1158015610bed573d6000803e3d6000fd5b505050506040513d601f19601f82011682018060405250810190610c1191906110dc565b610c695760405162461bcd60e51b815260206004820152602360248201527f756e61626c6520746f207472616e73666572416e6443616c6c20746f206f7261604482015262636c6560e81b60648201526084016102c4565b600160046000828254610c7c919061137d565b9091555091979650505050505050565b610c94611099565b610c9f602083611556565b15610cc757610caf602083611556565b610cba9060206114de565b610cc4908361137d565b91505b506020828101829052604080518085526000815290920101905290565b60178111610d0557610cff8360e0600585901b168317610e3d565b50505050565b60ff8111610d2f57610d22836018611fe0600586901b1617610e3d565b50610cff83826001610e55565b61ffff8111610d5a57610d4d836019611fe0600586901b1617610e3d565b50610cff83826002610e55565b63ffffffff8111610d8757610d7a83601a611fe0600586901b1617610e3d565b50610cff83826004610e55565b6001600160401b03811161093b57610daa83601b611fe0600586901b1617610e3d565b50610cff83826008610e55565b610dbf611099565b610dd183846000015151848551610e6e565b9392505050565b610de38260c3610e3d565b50610a3d82610df48360001961149f565b604051602001610e0691815260200190565b604051602081830303815290604052610f66565b610e258260c2610e3d565b50610a3d8282604051602001610e0691815260200190565b610e45611099565b610dd18384600001515184610f73565b610e5d611099565b610975848560000151518585610fc2565b610e76611099565b8251821115610e8457600080fd5b6020850151610e93838661137d565b1115610ec657610ec685610eb687602001518786610eb1919061137d565b611036565b610ec1906002611480565b61104d565b600080865180518760208301019350808887011115610ee55787860182525b505050602084015b60208410610f255780518252610f0460208361137d565b9150610f1160208261137d565b9050610f1e6020856114de565b9350610eed565b60006001610f348660206114de565b610f40906101006113d8565b610f4a91906114de565b9151835183169219169190911790915250849050949350505050565b610a198260028351610ce4565b610f7b611099565b83602001518310610f9b57610f9b8485602001516002610ec19190611480565b835180516020858301018481535080851415610fb8576001810182525b5093949350505050565b610fca611099565b6020850151610fd9858461137d565b1115610fed57610fed85610eb6868561137d565b60006001610ffd846101006113d8565b61100791906114de565b905085518386820101858319825116178152508051848701111561102b5783860181525b509495945050505050565b600081831115611047575081610917565b50919050565b81516110598383610c8c565b50610cff8382610db7565b6040805160a081018252600080825260208201819052918101829052606081019190915260808101611094611099565b905290565b604051806040016040528060608152602001600081525090565b6000602082840312156110c557600080fd5b81356001600160a01b0381168114610dd157600080fd5b6000602082840312156110ee57600080fd5b81518015158114610dd157600080fd5b6000806040838503121561111157600080fd5b50508035926020909101359150565b60006020828403121561113257600080fd5b81356001600160401b038082111561114957600080fd5b818401915084601f83011261115d57600080fd5b81358181111561116f5761116f61158e565b604051601f8201601f19908116603f011681019083821181831017156111975761119761158e565b816040528281528760208487010111156111b057600080fd5b826020860160208301376000928101602001929092525095945050505050565b6000602082840312156111e257600080fd5b5051919050565b600081518084526112018160208601602086016114f5565b601f01601f19169290920160200192915050565b600083516112278184602088016114f5565b83519083019061123b8183602088016114f5565b01949350505050565b6001600160a01b0391909116815260200190565b6001600160a01b03929092168252602082015260400190565b6001600160a01b0389811682526020820189905260408201889052861660608201526001600160e01b03198516608082015260a0810184905260c0810183905261010060e082018190526000906112ca838201856111e9565b9b9a5050505050505050505050565b60018060a01b03841681528260208201526060604082015260006108e760608301846111e9565b6020808252818101527f4f776e61626c653a2063616c6c6572206973206e6f7420746865206f776e6572604082015260600190565b60208082526028908201527f536f75726365206d75737420626520746865206f7261636c65206f6620746865604082015267081c995c5d595cdd60c21b606082015260800190565b6000821982111561139057611390611578565b500190565b600181815b808511156113d05781600019048211156113b6576113b6611578565b808516156113c357918102915b93841c939080029061139a565b509250929050565b6000610dd183836000826113ee57506001610917565b816113fb57506000610917565b8160018114611411576002811461141b57611437565b6001915050610917565b60ff84111561142c5761142c611578565b50506001821b610917565b5060208310610133831016604e8410600b841016171561145a575081810a610917565b6114648383611395565b806000190482111561147857611478611578565b029392505050565b600081600019048311821515161561149a5761149a611578565b500290565b60008083128015600160ff1b8501841216156114bd576114bd611578565b6001600160ff1b03840183138116156114d8576114d8611578565b50500390565b6000828210156114f0576114f0611578565b500390565b60005b838110156115105781810151838201526020016114f8565b83811115610cff5750506000910152565b600181811c9082168061153557607f821691505b6020821081141561104757634e487b7160e01b600052602260045260246000fd5b60008261157357634e487b7160e01b600052601260045260246000fd5b500690565b634e487b7160e01b600052601160045260246000fd5b634e487b7160e01b600052604160045260246000fdfe6930ee93026433301a14b1baa0b52ca0d4640cb1edaa703beeb9056e235269847cc135e0cebb02c3480ae5d74d377283180a2601f8f644edf7987b009316c63aa2646970667358221220798b6e4f23eb56631a71b538b5e3faba6514533026d292b3471ee5cf9aa7da0164736f6c63430008070033",
  "immutableReferences": {},
  "source": "// SPDX-License-Identifier: UNLICENSED\r\n\r\npragma solidity ^0.8.6;\r\n\r\nimport \"@chainlink/contracts/src/v0.8/ChainlinkClient.sol\";\r\nimport \"@openzeppelin/contracts/access/Ownable.sol\";\r\n\r\nimport \"../interfaces/IChainlinkOracle.sol\";\r\n\r\n\r\ncontract ChainlinkOracle is ChainlinkClient, Ownable,  IChainlinkOracle{\r\n    //after v0.7 it is neccessary to repeat using statement in all of the derived contracts\r\n    using Chainlink for Chainlink.Request;\r\n\r\n\r\n    //store answer from oracle\r\n    bool public isSignedResult;\r\n    uint256 private unsignedResult;\r\n    int256 private signedResult;\r\n\r\n    //oracle and job info\r\n    /* The reason I don't set these to a constant value is because\r\n     * sometimes different chainlink nodes and jobs stop/start working.\r\n     */\r\n    address public oracleAddress;\r\n    bytes32 public jobId;\r\n\r\n\r\n    //path for API response\r\n    string private apiPath;\r\n\r\n    string private apiBaseURL;\r\n\r\n    //deal with decimals\r\n    int public decimals;\r\n\r\n    //fee is usually 0.1Link which is equal to (0.1 * 10 ** 18)\r\n    uint256 public fee;\r\n\r\n    constructor(address _oracleAddress, bytes32 _jobId, address linkAddress, uint256 _fee, int _decimals, string memory _apiBaseURL, string memory _apiPath, bool _isSignedResult) {  \r\n        if (linkAddress == address(0)) {\r\n            setPublicChainlinkToken();\r\n        } else {\r\n            setChainlinkToken(linkAddress);\r\n        }\r\n        oracleAddress = _oracleAddress;\r\n        jobId = _jobId;\r\n        fee = _fee;\r\n        decimals = _decimals;\r\n        apiBaseURL = _apiBaseURL;\r\n        apiPath = _apiPath;\r\n        isSignedResult = _isSignedResult;\r\n    }\r\n\r\n    //Create Chainlink request with uint256 job\r\n    //apiURLParameters is empty string for underlying oracles\r\n    function requestIndexPrice(string memory apiURLParameters) external override returns (bytes32 requestId) {\r\n        Chainlink.Request memory request;\r\n        if (isSignedResult) {\r\n            request = buildChainlinkRequest(jobId, address(this), this.fulfillSigned.selector);\r\n        } else {\r\n            request = buildChainlinkRequest(jobId, address(this), this.fulfillUnsigned.selector);\r\n        }\r\n\r\n        request.add(\"get\", concetenateTwoStrings(apiBaseURL, apiURLParameters));\r\n        //set path to data\r\n        request.add(\"path\", apiPath);\r\n        request.addInt(\"times\", decimals);\r\n        //send request with given fee to the oracle\r\n        requestId = sendChainlinkRequestTo(oracleAddress, request, fee);\r\n        emit RequestSent(oracleAddress, jobId, fee);\r\n    }\r\n\r\n    //receive response as uint256\r\n    //recordChainlinkFulffilment ensures that only requesting oracle can fulfill\r\n    function fulfillSigned(bytes32 _requestId, int256 _result) external override recordChainlinkFulfillment(_requestId){\r\n        signedResult = _result;\r\n        emit Fulfilled(_requestId);\r\n    }\r\n\r\n    function fulfillUnsigned(bytes32 _requestId, uint256 _result) external override recordChainlinkFulfillment(_requestId){\r\n        unsignedResult = _result;\r\n        emit Fulfilled(_requestId);\r\n    }\r\n\r\n\r\n    // withdrawLink allows the owner to withdraw any extra LINK on the contract\r\n    function withdrawLink() external override onlyOwner {\r\n        LinkTokenInterface link = LinkTokenInterface(chainlinkTokenAddress());\r\n        uint256 linkBalance = link.balanceOf(address(this));\r\n        require(link.transfer(msg.sender, linkBalance), \"Unable to withdraw\");\r\n        emit LinkWithdrawn(msg.sender, linkBalance);\r\n    }\r\n\r\n    /*\r\n    //concatanate strings and add /  where needed for URL\r\n    function concetenateStringsForURL(string memory a, string memory b, string memory c, string memory d, string memory e) internal pure returns (string memory) {\r\n\t    return string(abi.encodePacked(a,\"/\", b, \"/\", c, \"/\", d, \"/\", e));\r\n    }*/\r\n\r\n    /*\r\n    //parse uint to string\r\n    function uint2str(uint _i) internal pure returns (string memory _uintAsString) {\r\n        if (_i == 0) {\r\n            return \"0\";\r\n        }\r\n        uint j = _i;\r\n        uint len;\r\n        while (j != 0) {\r\n            len++;\r\n            j /= 10;\r\n        }\r\n        bytes memory bstr = new bytes(len);\r\n        uint k = len;\r\n        while (_i != 0) {\r\n            k = k-1;\r\n            uint8 temp = (48 + uint8(_i - _i / 10 * 10));\r\n            bytes1 b1 = bytes1(temp);\r\n            bstr[k] = b1;\r\n            _i /= 10;\r\n        }\r\n        return string(bstr);\r\n    }*/\r\n\r\n    //concatanate two strings\r\n    function concetenateTwoStrings(string memory a, string memory b) internal pure returns(string memory) {\r\n        return string(abi.encodePacked(a, b));\r\n    }\r\n\r\n    //fallback function to receive eth\r\n    receive() external payable {\r\n        emit Received(msg.sender, msg.value);\r\n    }\r\n\r\n    fallback () external payable {\r\n\r\n    }\r\n\r\n    function getUnsignedResult() external view returns (uint256) {\r\n        return unsignedResult;\r\n    }\r\n\r\n    function getSignedResult() external view returns (int256) {\r\n        return signedResult;\r\n    }\r\n}\r\n\r\n",
  "sourcePath": "C:\\Users\\Tomi\\OneDrive - The University of Chicago\\Documents\\Securrency\\FuturesExchange\\contracts\\ChainlinkOracle.sol",
  "compiler": {
    "name": "solc",
    "version": "0.8.7+commit.e28d00a7.Emscripten.clang"
  },
  "schemaVersion": "3.4.2",
  "updatedAt": "2021-09-03T13:39:15.666Z",
  "devdoc": {
    "kind": "dev",
    "methods": {
      "owner()": {
        "details": "Returns the address of the current owner."
      },
      "renounceOwnership()": {
        "details": "Leaves the contract without owner. It will not be possible to call `onlyOwner` functions anymore. Can only be called by the current owner. NOTE: Renouncing ownership will leave the contract without an owner, thereby removing any functionality that is only available to the owner."
      },
      "transferOwnership(address)": {
        "details": "Transfers ownership of the contract to a new account (`newOwner`). Can only be called by the current owner."
      }
    },
    "version": 1
  },
  "userdoc": {
    "kind": "user",
    "methods": {},
    "version": 1
  }
}