{
  "contractName": "ChainlinkOracle",
  "abi": [
    {
      "inputs": [
        {
          "internalType": "address",
          "name": "_oracleAddress",
          "type": "address"
        },
        {
          "internalType": "bytes32",
          "name": "_jobId",
          "type": "bytes32"
        },
        {
          "internalType": "string",
          "name": "_apiURL",
          "type": "string"
        },
        {
          "internalType": "string",
          "name": "_apiPath",
          "type": "string"
        },
        {
          "internalType": "address",
          "name": "_linkAddress",
          "type": "address"
        },
        {
          "internalType": "uint256",
          "name": "_fee",
          "type": "uint256"
        },
        {
          "internalType": "int8",
          "name": "_decimals",
          "type": "int8"
        }
      ],
      "stateMutability": "nonpayable",
      "type": "constructor"
    },
    {
      "anonymous": false,
      "inputs": [
        {
          "indexed": true,
          "internalType": "bytes32",
          "name": "id",
          "type": "bytes32"
        }
      ],
      "name": "ChainlinkCancelled",
      "type": "event"
    },
    {
      "anonymous": false,
      "inputs": [
        {
          "indexed": true,
          "internalType": "bytes32",
          "name": "id",
          "type": "bytes32"
        }
      ],
      "name": "ChainlinkFulfilled",
      "type": "event"
    },
    {
      "anonymous": false,
      "inputs": [
        {
          "indexed": true,
          "internalType": "bytes32",
          "name": "id",
          "type": "bytes32"
        }
      ],
      "name": "ChainlinkRequested",
      "type": "event"
    },
    {
      "anonymous": false,
      "inputs": [
        {
          "indexed": false,
          "internalType": "bytes32",
          "name": "requestId",
          "type": "bytes32"
        }
      ],
      "name": "Fulfilled",
      "type": "event"
    },
    {
      "anonymous": false,
      "inputs": [
        {
          "indexed": false,
          "internalType": "address",
          "name": "withdrawer",
          "type": "address"
        },
        {
          "indexed": false,
          "internalType": "uint256",
          "name": "amount",
          "type": "uint256"
        }
      ],
      "name": "LinkWithdrawn",
      "type": "event"
    },
    {
      "anonymous": false,
      "inputs": [
        {
          "indexed": true,
          "internalType": "address",
          "name": "previousOwner",
          "type": "address"
        },
        {
          "indexed": true,
          "internalType": "address",
          "name": "newOwner",
          "type": "address"
        }
      ],
      "name": "OwnershipTransferred",
      "type": "event"
    },
    {
      "anonymous": false,
      "inputs": [
        {
          "indexed": false,
          "internalType": "address",
          "name": "sender",
          "type": "address"
        },
        {
          "indexed": false,
          "internalType": "uint256",
          "name": "amount",
          "type": "uint256"
        }
      ],
      "name": "Received",
      "type": "event"
    },
    {
      "anonymous": false,
      "inputs": [
        {
          "indexed": false,
          "internalType": "address",
          "name": "oracleAddress",
          "type": "address"
        },
        {
          "indexed": false,
          "internalType": "bytes32",
          "name": "jobId",
          "type": "bytes32"
        },
        {
          "indexed": false,
          "internalType": "uint256",
          "name": "fee",
          "type": "uint256"
        }
      ],
      "name": "RequestSent",
      "type": "event"
    },
    {
      "stateMutability": "payable",
      "type": "fallback"
    },
    {
      "inputs": [],
      "name": "decimals",
      "outputs": [
        {
          "internalType": "int8",
          "name": "",
          "type": "int8"
        }
      ],
      "stateMutability": "view",
      "type": "function"
    },
    {
      "inputs": [],
      "name": "fee",
      "outputs": [
        {
          "internalType": "uint256",
          "name": "",
          "type": "uint256"
        }
      ],
      "stateMutability": "view",
      "type": "function"
    },
    {
      "inputs": [],
      "name": "jobId",
      "outputs": [
        {
          "internalType": "bytes32",
          "name": "",
          "type": "bytes32"
        }
      ],
      "stateMutability": "view",
      "type": "function"
    },
    {
      "inputs": [],
      "name": "linkAddress",
      "outputs": [
        {
          "internalType": "address",
          "name": "",
          "type": "address"
        }
      ],
      "stateMutability": "view",
      "type": "function"
    },
    {
      "inputs": [],
      "name": "oracleAddress",
      "outputs": [
        {
          "internalType": "address",
          "name": "",
          "type": "address"
        }
      ],
      "stateMutability": "view",
      "type": "function"
    },
    {
      "inputs": [],
      "name": "owner",
      "outputs": [
        {
          "internalType": "address",
          "name": "",
          "type": "address"
        }
      ],
      "stateMutability": "view",
      "type": "function"
    },
    {
      "inputs": [],
      "name": "renounceOwnership",
      "outputs": [],
      "stateMutability": "nonpayable",
      "type": "function"
    },
    {
      "inputs": [
        {
          "internalType": "address",
          "name": "newOwner",
          "type": "address"
        }
      ],
      "name": "transferOwnership",
      "outputs": [],
      "stateMutability": "nonpayable",
      "type": "function"
    },
    {
      "stateMutability": "payable",
      "type": "receive"
    },
    {
      "inputs": [],
      "name": "requestIndexPrice",
      "outputs": [
        {
          "internalType": "bytes32",
          "name": "requestId",
          "type": "bytes32"
        }
      ],
      "stateMutability": "nonpayable",
      "type": "function"
    },
    {
      "inputs": [
        {
          "internalType": "bytes32",
          "name": "_requestId",
          "type": "bytes32"
        },
        {
          "internalType": "uint256",
          "name": "_result",
          "type": "uint256"
        }
      ],
      "name": "fulfill",
      "outputs": [],
      "stateMutability": "nonpayable",
      "type": "function"
    },
    {
      "inputs": [],
      "name": "withdrawLink",
      "outputs": [],
      "stateMutability": "nonpayable",
      "type": "function"
    },
    {
      "inputs": [],
      "name": "getResult",
      "outputs": [
        {
          "internalType": "uint256",
          "name": "",
          "type": "uint256"
        }
      ],
      "stateMutability": "view",
      "type": "function"
    }
  ],
  "bytecode": "0x608060405260016004553480156200001657600080fd5b50604051620029493803806200294983398181016040528101906200003c9190620003a1565b6200005c620000506200014960201b60201c565b6200015160201b60201c565b86600860006101000a81548173ffffffffffffffffffffffffffffffffffffffff021916908373ffffffffffffffffffffffffffffffffffffffff1602179055508560098190555084600a9080519060200190620000bc92919062000217565b5083600b9080519060200190620000d592919062000217565b5082600c60006101000a81548173ffffffffffffffffffffffffffffffffffffffff021916908373ffffffffffffffffffffffffffffffffffffffff16021790555081600d8190555080600c60146101000a81548160ff021916908360000b60ff16021790555050505050505050620006d3565b600033905090565b6000600660009054906101000a900473ffffffffffffffffffffffffffffffffffffffff16905081600660006101000a81548173ffffffffffffffffffffffffffffffffffffffff021916908373ffffffffffffffffffffffffffffffffffffffff1602179055508173ffffffffffffffffffffffffffffffffffffffff168173ffffffffffffffffffffffffffffffffffffffff167f8be0079c531659141344cd1fd0a4f28419497f9722a3daafe3b4186f6b6457e060405160405180910390a35050565b82805462000225906200057c565b90600052602060002090601f01602090048101928262000249576000855562000295565b82601f106200026457805160ff191683800117855562000295565b8280016001018555821562000295579182015b828111156200029457825182559160200191906001019062000277565b5b509050620002a49190620002a8565b5090565b5b80821115620002c3576000816000905550600101620002a9565b5090565b6000620002de620002d884620004bb565b62000492565b905082815260208101848484011115620002fd57620002fc6200064b565b5b6200030a84828562000546565b509392505050565b60008151905062000323816200066b565b92915050565b6000815190506200033a8162000685565b92915050565b60008151905062000351816200069f565b92915050565b600082601f8301126200036f576200036e62000646565b5b815162000381848260208601620002c7565b91505092915050565b6000815190506200039b81620006b9565b92915050565b600080600080600080600060e0888a031215620003c357620003c262000655565b5b6000620003d38a828b0162000312565b9750506020620003e68a828b0162000329565b965050604088015167ffffffffffffffff8111156200040a576200040962000650565b5b620004188a828b0162000357565b955050606088015167ffffffffffffffff8111156200043c576200043b62000650565b5b6200044a8a828b0162000357565b94505060806200045d8a828b0162000312565b93505060a0620004708a828b016200038a565b92505060c0620004838a828b0162000340565b91505092959891949750929550565b60006200049e620004b1565b9050620004ac8282620005b2565b919050565b6000604051905090565b600067ffffffffffffffff821115620004d957620004d862000617565b5b620004e4826200065a565b9050602081019050919050565b6000620004fe826200051c565b9050919050565b6000819050919050565b60008160000b9050919050565b600073ffffffffffffffffffffffffffffffffffffffff82169050919050565b6000819050919050565b60005b838110156200056657808201518184015260208101905062000549565b8381111562000576576000848401525b50505050565b600060028204905060018216806200059557607f821691505b60208210811415620005ac57620005ab620005e8565b5b50919050565b620005bd826200065a565b810181811067ffffffffffffffff82111715620005df57620005de62000617565b5b80604052505050565b7f4e487b7100000000000000000000000000000000000000000000000000000000600052602260045260246000fd5b7f4e487b7100000000000000000000000000000000000000000000000000000000600052604160045260246000fd5b600080fd5b600080fd5b600080fd5b600080fd5b6000601f19601f8301169050919050565b6200067681620004f1565b81146200068257600080fd5b50565b620006908162000505565b81146200069c57600080fd5b50565b620006aa816200050f565b8114620006b657600080fd5b50565b620006c4816200053c565b8114620006d057600080fd5b50565b61226680620006e36000396000f3fe6080604052600436106100ab5760003560e01c80638dc654a2116100645780638dc654a2146101d9578063a89ae4ba146101f0578063c2939d971461021b578063ddca3f4314610246578063de29278914610271578063f2fde38b1461029c576100eb565b80630f00494a146100ed578063235cea9814610118578063313ce567146101435780634357855e1461016e578063715018a6146101975780638da5cb5b146101ae576100eb565b366100eb577f88a5966d370b9919b20f3e2c13ff65706f196a4e32cc2c12bf57088f8852587433346040516100e1929190611956565b60405180910390a1005b005b3480156100f957600080fd5b506101026102c5565b60405161010f9190611a42565b60405180910390f35b34801561012457600080fd5b5061012d610578565b60405161013a9190611904565b60405180910390f35b34801561014f57600080fd5b5061015861059e565b6040516101659190611a5d565b60405180910390f35b34801561017a57600080fd5b506101956004803603810190610190919061170a565b6105b1565b005b3480156101a357600080fd5b506101ac6106f9565b005b3480156101ba57600080fd5b506101c3610781565b6040516101d09190611904565b60405180910390f35b3480156101e557600080fd5b506101ee6107ab565b005b3480156101fc57600080fd5b506102056109c9565b6040516102129190611904565b60405180910390f35b34801561022757600080fd5b506102306109ef565b60405161023d9190611a42565b60405180910390f35b34801561025257600080fd5b5061025b6109f5565b6040516102689190611b18565b60405180910390f35b34801561027d57600080fd5b506102866109fb565b6040516102939190611b18565b60405180910390f35b3480156102a857600080fd5b506102c360048036038101906102be91906116b0565b610a05565b005b6000806102dc60095430634357855e60e01b610afd565b90506103b26040518060400160405280600381526020017f6765740000000000000000000000000000000000000000000000000000000000815250600a805461032490611f47565b80601f016020809104026020016040519081016040528092919081815260200182805461035090611f47565b801561039d5780601f106103725761010080835404028352916020019161039d565b820191906000526020600020905b81548152906001019060200180831161038057829003601f168201915b505050505083610b2e9092919063ffffffff16565b6104866040518060400160405280600481526020017f7061746800000000000000000000000000000000000000000000000000000000815250600b80546103f890611f47565b80601f016020809104026020016040519081016040528092919081815260200182805461042490611f47565b80156104715780601f1061044657610100808354040283529160200191610471565b820191906000526020600020905b81548152906001019060200180831161045457829003601f168201915b505050505083610b2e9092919063ffffffff16565b6104e26040518060400160405280600581526020017f74696d6573000000000000000000000000000000000000000000000000000000815250600c60149054906101000a900460000b60000b83610b619092919063ffffffff16565b610511600860009054906101000a900473ffffffffffffffffffffffffffffffffffffffff1682600d54610b94565b91507f5de0ca4d601c6369aafe37da9bab92be9804895234cdb72d8181492e84e6bcb2600860009054906101000a900473ffffffffffffffffffffffffffffffffffffffff16600954600d5460405161056c9392919061191f565b60405180910390a15090565b600c60009054906101000a900473ffffffffffffffffffffffffffffffffffffffff1681565b600c60149054906101000a900460000b81565b816005600082815260200190815260200160002060009054906101000a900473ffffffffffffffffffffffffffffffffffffffff1673ffffffffffffffffffffffffffffffffffffffff163373ffffffffffffffffffffffffffffffffffffffff1614610653576040517f08c379a000000000000000000000000000000000000000000000000000000000815260040161064a90611ad8565b60405180910390fd5b6005600082815260200190815260200160002060006101000a81549073ffffffffffffffffffffffffffffffffffffffff0219169055807f7cc135e0cebb02c3480ae5d74d377283180a2601f8f644edf7987b009316c63a60405160405180910390a2816007819055507f6930ee93026433301a14b1baa0b52ca0d4640cb1edaa703beeb9056e23526984836040516106ec9190611a42565b60405180910390a1505050565b610701610bb4565b73ffffffffffffffffffffffffffffffffffffffff1661071f610781565b73ffffffffffffffffffffffffffffffffffffffff1614610775576040517f08c379a000000000000000000000000000000000000000000000000000000000815260040161076c90611ab8565b60405180910390fd5b61077f6000610bbc565b565b6000600660009054906101000a900473ffffffffffffffffffffffffffffffffffffffff16905090565b6107b3610bb4565b73ffffffffffffffffffffffffffffffffffffffff166107d1610781565b73ffffffffffffffffffffffffffffffffffffffff1614610827576040517f08c379a000000000000000000000000000000000000000000000000000000000815260040161081e90611ab8565b60405180910390fd5b6000610831610c82565b905060008173ffffffffffffffffffffffffffffffffffffffff166370a08231306040518263ffffffff1660e01b815260040161086e9190611904565b60206040518083038186803b15801561088657600080fd5b505afa15801561089a573d6000803e3d6000fd5b505050506040513d601f19601f820116820180604052508101906108be919061174a565b90508173ffffffffffffffffffffffffffffffffffffffff1663a9059cbb33836040518363ffffffff1660e01b81526004016108fb929190611956565b602060405180830381600087803b15801561091557600080fd5b505af1158015610929573d6000803e3d6000fd5b505050506040513d601f19601f8201168201806040525081019061094d91906116dd565b61098c576040517f08c379a000000000000000000000000000000000000000000000000000000000815260040161098390611af8565b60405180910390fd5b7fcb1436249a1dd8cf93362c28d79a4e20dc54398b6c49e30316e8396e72a584b033826040516109bd929190611956565b60405180910390a15050565b600860009054906101000a900473ffffffffffffffffffffffffffffffffffffffff1681565b60095481565b600d5481565b6000600754905090565b610a0d610bb4565b73ffffffffffffffffffffffffffffffffffffffff16610a2b610781565b73ffffffffffffffffffffffffffffffffffffffff1614610a81576040517f08c379a0000000000000000000000000000000000000000000000000000000008152600401610a7890611ab8565b60405180910390fd5b600073ffffffffffffffffffffffffffffffffffffffff168173ffffffffffffffffffffffffffffffffffffffff161415610af1576040517f08c379a0000000000000000000000000000000000000000000000000000000008152600401610ae890611a78565b60405180910390fd5b610afa81610bbc565b50565b610b056115c0565b610b0d6115c0565b610b2485858584610cac909392919063ffffffff16565b9150509392505050565b610b45828460800151610d5c90919063ffffffff16565b610b5c818460800151610d5c90919063ffffffff16565b505050565b610b78828460800151610d5c90919063ffffffff16565b610b8f818460800151610d8190919063ffffffff16565b505050565b6000610bab8484846001634042994660e01b610e2e565b90509392505050565b600033905090565b6000600660009054906101000a900473ffffffffffffffffffffffffffffffffffffffff16905081600660006101000a81548173ffffffffffffffffffffffffffffffffffffffff021916908373ffffffffffffffffffffffffffffffffffffffff1602179055508173ffffffffffffffffffffffffffffffffffffffff168173ffffffffffffffffffffffffffffffffffffffff167f8be0079c531659141344cd1fd0a4f28419497f9722a3daafe3b4186f6b6457e060405160405180910390a35050565b6000600260009054906101000a900473ffffffffffffffffffffffffffffffffffffffff16905090565b610cb46115c0565b610cc48560800151610100611096565b508385600001818152505082856020019073ffffffffffffffffffffffffffffffffffffffff16908173ffffffffffffffffffffffffffffffffffffffff16815250508185604001907bffffffffffffffffffffffffffffffffffffffffffffffffffffffff191690817bffffffffffffffffffffffffffffffffffffffffffffffffffffffff191681525050849050949350505050565b610d698260038351611100565b610d7c818361124590919063ffffffff16565b505050565b7fffffffffffffffffffffffffffffffffffffffffffffffff0000000000000000811215610db857610db38282611267565b610e2a565b67ffffffffffffffff811315610dd757610dd282826112de565b610e29565b60008112610df057610deb82600083611100565b610e28565b610e27826001837fffffffffffffffffffffffffffffffffffffffffffffffffffffffffffffffff610e229190611d81565b611100565b5b5b5b5050565b600030600454604051602001610e459291906118d8565b604051602081830303815290604052805190602001209050600454856060018181525050856005600083815260200190815260200160002060006101000a81548173ffffffffffffffffffffffffffffffffffffffff021916908373ffffffffffffffffffffffffffffffffffffffff160217905550807fb5e6e01e79f91267dc17b4e6314d5d4d03593d2ceee0fbb452b750bd70ea5af960405160405180910390a2600082600080886000015189602001518a604001518b606001518a8d6080015160000151604051602401610f2398979695949392919061197f565b604051602081830303815290604052907bffffffffffffffffffffffffffffffffffffffffffffffffffffffff19166020820180517bffffffffffffffffffffffffffffffffffffffffffffffffffffffff83818316178352505050509050600260009054906101000a900473ffffffffffffffffffffffffffffffffffffffff1673ffffffffffffffffffffffffffffffffffffffff16634000aea08887846040518463ffffffff1660e01b8152600401610fe193929190611a04565b602060405180830381600087803b158015610ffb57600080fd5b505af115801561100f573d6000803e3d6000fd5b505050506040513d601f19601f8201168201806040525081019061103391906116dd565b611072576040517f08c379a000000000000000000000000000000000000000000000000000000000815260040161106990611a98565b60405180910390fd5b6001600460008282546110859190611b60565b925050819055505095945050505050565b61109e61162d565b60006020836110ad9190611fa7565b146110d9576020826110bf9190611fa7565b60206110cb9190611e15565b826110d69190611b60565b91505b81836020018181525050604051808452600081528281016020016040525082905092915050565b6017811161112d576111278160058460ff16901b60ff16178461132a90919063ffffffff16565b50611240565b60ff811161116f57611152601860058460ff16901b178461132a90919063ffffffff16565b506111698160018561134a9092919063ffffffff16565b5061123f565b61ffff81116111b257611195601960058460ff16901b178461132a90919063ffffffff16565b506111ac8160028561134a9092919063ffffffff16565b5061123e565b63ffffffff81116111f7576111da601a60058460ff16901b178461132a90919063ffffffff16565b506111f18160048561134a9092919063ffffffff16565b5061123d565b67ffffffffffffffff811161123c57611223601b60058460ff16901b178461132a90919063ffffffff16565b5061123a8160088561134a9092919063ffffffff16565b505b5b5b5b5b505050565b61124d61162d565b61125f8384600001515184855161136c565b905092915050565b61128560036005600660ff16901b178361132a90919063ffffffff16565b506112da82827fffffffffffffffffffffffffffffffffffffffffffffffffffffffffffffffff6112b69190611d81565b6040516020016112c69190611b18565b604051602081830303815290604052611476565b5050565b6112fc60026005600660ff16901b178361132a90919063ffffffff16565b5061132682826040516020016113129190611b18565b604051602081830303815290604052611476565b5050565b61133261162d565b611342838460000151518461149b565b905092915050565b61135261162d565b6113638485600001515185856114f2565b90509392505050565b61137461162d565b825182111561138257600080fd5b846020015182856113939190611b60565b11156113c8576113c78560026113b8886020015188876113b39190611b60565b611580565b6113c29190611d27565b61159c565b5b6000808651805187602083010193508088870111156113e75787860182525b60208701925050505b6020841061142e57805182526020826114099190611b60565b91506020816114189190611b60565b90506020846114279190611e15565b93506113f0565b6000600185602061143f9190611e15565b61010061144c9190611c09565b6114569190611e15565b905080198251168184511681811785525050879350505050949350505050565b6114838260028351611100565b611496818361124590919063ffffffff16565b505050565b6114a361162d565b836020015183106114c9576114c884600286602001516114c39190611d27565b61159c565b5b83518051602085830101848153818614156114e5576001820183525b5050508390509392505050565b6114fa61162d565b8460200151848361150b9190611b60565b11156115335761153285600286856115239190611b60565b61152d9190611d27565b61159c565b5b60006001836101006115459190611c09565b61154f9190611e15565b905085518386820101858319825116178152815185880111156115725784870182525b505085915050949350505050565b60008183111561159257829050611596565b8190505b92915050565b6000826000015190506115af8383611096565b506115ba8382611245565b50505050565b6040518060a0016040528060008019168152602001600073ffffffffffffffffffffffffffffffffffffffff16815260200160007bffffffffffffffffffffffffffffffffffffffffffffffffffffffff191681526020016000815260200161162761162d565b81525090565b604051806040016040528060608152602001600081525090565b600081359050611656816121d4565b92915050565b60008151905061166b816121eb565b92915050565b60008135905061168081612202565b92915050565b60008135905061169581612219565b92915050565b6000815190506116aa81612219565b92915050565b6000602082840312156116c6576116c5612065565b5b60006116d484828501611647565b91505092915050565b6000602082840312156116f3576116f2612065565b5b60006117018482850161165c565b91505092915050565b6000806040838503121561172157611720612065565b5b600061172f85828601611671565b925050602061174085828601611686565b9150509250929050565b6000602082840312156117605761175f612065565b5b600061176e8482850161169b565b91505092915050565b61178081611e49565b82525050565b61178f81611e67565b82525050565b61179e81611e71565b82525050565b60006117af82611b33565b6117b98185611b3e565b93506117c9818560208601611f14565b6117d28161206a565b840191505092915050565b6117ee6117e982611ede565b611f79565b82525050565b6117fd81611ea7565b82525050565b6000611810602683611b4f565b915061181b82612095565b604082019050919050565b6000611833602383611b4f565b915061183e826120e4565b604082019050919050565b6000611856602083611b4f565b915061186182612133565b602082019050919050565b6000611879602883611b4f565b91506118848261215c565b604082019050919050565b600061189c601283611b4f565b91506118a7826121ab565b602082019050919050565b6118bb81611ed4565b82525050565b6118d26118cd82611ed4565b611f9d565b82525050565b60006118e482856117dd565b6014820191506118f482846118c1565b6020820191508190509392505050565b60006020820190506119196000830184611777565b92915050565b60006060820190506119346000830186611777565b6119416020830185611786565b61194e60408301846118b2565b949350505050565b600060408201905061196b6000830185611777565b61197860208301846118b2565b9392505050565b600061010082019050611995600083018b611777565b6119a2602083018a6118b2565b6119af6040830189611786565b6119bc6060830188611777565b6119c96080830187611795565b6119d660a08301866118b2565b6119e360c08301856118b2565b81810360e08301526119f581846117a4565b90509998505050505050505050565b6000606082019050611a196000830186611777565b611a2660208301856118b2565b8181036040830152611a3881846117a4565b9050949350505050565b6000602082019050611a576000830184611786565b92915050565b6000602082019050611a7260008301846117f4565b92915050565b60006020820190508181036000830152611a9181611803565b9050919050565b60006020820190508181036000830152611ab181611826565b9050919050565b60006020820190508181036000830152611ad181611849565b9050919050565b60006020820190508181036000830152611af18161186c565b9050919050565b60006020820190508181036000830152611b118161188f565b9050919050565b6000602082019050611b2d60008301846118b2565b92915050565b600081519050919050565b600082825260208201905092915050565b600082825260208201905092915050565b6000611b6b82611ed4565b9150611b7683611ed4565b9250827fffffffffffffffffffffffffffffffffffffffffffffffffffffffffffffffff03821115611bab57611baa611fd8565b5b828201905092915050565b6000808291508390505b6001851115611c0057808604811115611bdc57611bdb611fd8565b5b6001851615611beb5780820291505b8081029050611bf985612088565b9450611bc0565b94509492505050565b6000611c1482611ed4565b9150611c1f83611ed4565b9250611c4c7fffffffffffffffffffffffffffffffffffffffffffffffffffffffffffffffff8484611c54565b905092915050565b600082611c645760019050611d20565b81611c725760009050611d20565b8160018114611c885760028114611c9257611cc1565b6001915050611d20565b60ff841115611ca457611ca3611fd8565b5b8360020a915084821115611cbb57611cba611fd8565b5b50611d20565b5060208310610133831016604e8410600b8410161715611cf65782820a905083811115611cf157611cf0611fd8565b5b611d20565b611d038484846001611bb6565b92509050818404811115611d1a57611d19611fd8565b5b81810290505b9392505050565b6000611d3282611ed4565b9150611d3d83611ed4565b9250817fffffffffffffffffffffffffffffffffffffffffffffffffffffffffffffffff0483118215151615611d7657611d75611fd8565b5b828202905092915050565b6000611d8c82611e9d565b9150611d9783611e9d565b9250827f800000000000000000000000000000000000000000000000000000000000000001821260008412151615611dd257611dd1611fd8565b5b827f7fffffffffffffffffffffffffffffffffffffffffffffffffffffffffffffff018213600084121615611e0a57611e09611fd8565b5b828203905092915050565b6000611e2082611ed4565b9150611e2b83611ed4565b925082821015611e3e57611e3d611fd8565b5b828203905092915050565b6000611e5482611eb4565b9050919050565b60008115159050919050565b6000819050919050565b60007fffffffff0000000000000000000000000000000000000000000000000000000082169050919050565b6000819050919050565b60008160000b9050919050565b600073ffffffffffffffffffffffffffffffffffffffff82169050919050565b6000819050919050565b6000611ee982611ef0565b9050919050565b6000611efb82611f02565b9050919050565b6000611f0d82611eb4565b9050919050565b60005b83811015611f32578082015181840152602081019050611f17565b83811115611f41576000848401525b50505050565b60006002820490506001821680611f5f57607f821691505b60208210811415611f7357611f72612036565b5b50919050565b6000611f8482611f8b565b9050919050565b6000611f968261207b565b9050919050565b6000819050919050565b6000611fb282611ed4565b9150611fbd83611ed4565b925082611fcd57611fcc612007565b5b828206905092915050565b7f4e487b7100000000000000000000000000000000000000000000000000000000600052601160045260246000fd5b7f4e487b7100000000000000000000000000000000000000000000000000000000600052601260045260246000fd5b7f4e487b7100000000000000000000000000000000000000000000000000000000600052602260045260246000fd5b600080fd5b6000601f19601f8301169050919050565b60008160601b9050919050565b60008160011c9050919050565b7f4f776e61626c653a206e6577206f776e657220697320746865207a65726f206160008201527f6464726573730000000000000000000000000000000000000000000000000000602082015250565b7f756e61626c6520746f207472616e73666572416e6443616c6c20746f206f726160008201527f636c650000000000000000000000000000000000000000000000000000000000602082015250565b7f4f776e61626c653a2063616c6c6572206973206e6f7420746865206f776e6572600082015250565b7f536f75726365206d75737420626520746865206f7261636c65206f662074686560008201527f2072657175657374000000000000000000000000000000000000000000000000602082015250565b7f556e61626c6520746f2077697468647261770000000000000000000000000000600082015250565b6121dd81611e49565b81146121e857600080fd5b50565b6121f481611e5b565b81146121ff57600080fd5b50565b61220b81611e67565b811461221657600080fd5b50565b61222281611ed4565b811461222d57600080fd5b5056fea26469706673582212205f293f7acc480c6644b6108736d6b34fef066a57e9b1b24ba429aef57031461e64736f6c63430008070033",
  "immutableReferences": {},
  "source": "// SPDX-License-Identifier: UNLICENSED\r\n\r\npragma solidity ^0.8.6;\r\n\r\nimport \"@chainlink/contracts/src/v0.8/ChainlinkClient.sol\";\r\nimport \"@openzeppelin/contracts/access/Ownable.sol\";\r\n\r\nimport \"../interfaces/IChainlinkOracle.sol\";\r\n\r\n\r\ncontract ChainlinkOracle is ChainlinkClient, Ownable,  IChainlinkOracle{\r\n    //after v0.7 it is neccessary to repeat using statement in all of the derived contracts\r\n    using Chainlink for Chainlink.Request;\r\n\r\n\r\n    //store answer from oracle\r\n    uint256 private result;\r\n\r\n    //oracle and job info\r\n    /* The reason I don't set these to a constant value is because\r\n     * sometimes different chainlink nodes and jobs stop/start working.\r\n     */\r\n    address public oracleAddress;\r\n    bytes32 public jobId;\r\n\r\n    //could these be bytes(x) instead of string?\r\n\r\n    //URL to make GET request from\r\n    string private apiURL;\r\n\r\n    //path for API response\r\n    string private apiPath;\r\n\r\n    //address of the link contract address for given network\r\n    address public linkAddress;//I could set this here as a constant as it wouldn't change--------------\r\n\r\n    //deal with decimals\r\n    int8 public decimals;\r\n\r\n    //fee is usually 0.1Link which is equal to (0.1 * 10 ** 18)\r\n    uint256 public fee;\r\n\r\n    constructor(address _oracleAddress, bytes32 _jobId, string memory _apiURL, string memory _apiPath, address _linkAddress, uint256 _fee, int8 _decimals) {  \r\n        //Kovan link\r\n        /*\r\n            address _link = 0xa36085F69e2889c224210F603D836748e7dC0088;\r\n            if (_link ==address(0)) {\r\n                setPublicChainlinkToken();\r\n            } else {\r\n                setChainlinkToken(_link);\r\n            }\r\n\r\n            //kovan node oracle\r\n            oracleAddress = 0x56dd6586DB0D08c6Ce7B2f2805af28616E082455;\r\n            jobId = \"b6602d14e4734c49a5e1ce19d45a4632\";\r\n\r\n            fee =  0.1 * 10 ** 18; //0.1 LINK\r\n        */\r\n\r\n        oracleAddress = _oracleAddress;\r\n        jobId = _jobId;\r\n        apiURL = _apiURL;\r\n        apiPath = _apiPath;\r\n        linkAddress = _linkAddress;\r\n        fee = _fee;\r\n        decimals = _decimals;\r\n    }\r\n\r\n    //Create Chainlink request with uint256 job\r\n    function requestIndexPrice() external override returns (bytes32 requestId) {\r\n\r\n        Chainlink.Request memory request = buildChainlinkRequest(jobId, address(this), this.fulfill.selector);\r\n\r\n        request.add(\"get\", apiURL);\r\n        //set path to data\r\n        request.add(\"path\", apiPath);\r\n        request.addInt(\"times\", decimals);\r\n        //send request with given fee to the oracle\r\n        requestId = sendChainlinkRequestTo(oracleAddress, request, fee);\r\n        emit RequestSent(oracleAddress, jobId, fee);\r\n    }\r\n\r\n    //receive response as uint256\r\n    //recordChainlinkFulffilment ensures that only requesting oracle can fulfill\r\n    function fulfill(bytes32 _requestId, uint256 _result) external override recordChainlinkFulfillment(_requestId){\r\n        result = _result;\r\n        emit Fulfilled(_requestId);\r\n    }\r\n\r\n    // withdrawLink allows the owner to withdraw any extra LINK on the contract\r\n    function withdrawLink() external override onlyOwner {\r\n        LinkTokenInterface link = LinkTokenInterface(chainlinkTokenAddress());\r\n        uint256 linkBalance = link.balanceOf(address(this));\r\n        require(link.transfer(msg.sender, linkBalance), \"Unable to withdraw\");\r\n        emit LinkWithdrawn(msg.sender, linkBalance);\r\n    }\r\n\r\n    //fallback function to receive eth\r\n    receive() external payable {\r\n        emit Received(msg.sender, msg.value);\r\n    }\r\n\r\n    fallback () external payable {\r\n\r\n    }\r\n\r\n\r\n\r\n    function getResult() external view returns (uint256) {\r\n        return result;\r\n    }\r\n}\r\n\r\n",
  "sourcePath": "C:\\Users\\Tomi\\OneDrive - The University of Chicago\\Documents\\Securrency\\FuturesExchange\\contracts\\ChainlinkOracle.sol",
  "compiler": {
    "name": "solc",
    "version": "0.8.7+commit.e28d00a7.Emscripten.clang"
  },
  "schemaVersion": "3.4.2",
  "updatedAt": "2021-08-21T21:36:28.535Z",
  "devdoc": {
    "kind": "dev",
    "methods": {
      "owner()": {
        "details": "Returns the address of the current owner."
      },
      "renounceOwnership()": {
        "details": "Leaves the contract without owner. It will not be possible to call `onlyOwner` functions anymore. Can only be called by the current owner. NOTE: Renouncing ownership will leave the contract without an owner, thereby removing any functionality that is only available to the owner."
      },
      "transferOwnership(address)": {
        "details": "Transfers ownership of the contract to a new account (`newOwner`). Can only be called by the current owner."
      }
    },
    "version": 1
  },
  "userdoc": {
    "kind": "user",
    "methods": {},
    "version": 1
  }
}