{
  "contractName": "ChainlinkOracle",
  "abi": [
    {
      "inputs": [
        {
          "internalType": "address",
          "name": "_oracleAddress",
          "type": "address"
        },
        {
          "internalType": "bytes32",
          "name": "_jobId",
          "type": "bytes32"
        },
        {
          "internalType": "string",
          "name": "_apiURL",
          "type": "string"
        },
        {
          "internalType": "string",
          "name": "_apiPath",
          "type": "string"
        },
        {
          "internalType": "address",
          "name": "_linkAddress",
          "type": "address"
        },
        {
          "internalType": "uint256",
          "name": "_fee",
          "type": "uint256"
        },
        {
          "internalType": "int256",
          "name": "_decimals",
          "type": "int256"
        }
      ],
      "stateMutability": "nonpayable",
      "type": "constructor"
    },
    {
      "anonymous": false,
      "inputs": [
        {
          "indexed": true,
          "internalType": "bytes32",
          "name": "id",
          "type": "bytes32"
        }
      ],
      "name": "ChainlinkCancelled",
      "type": "event"
    },
    {
      "anonymous": false,
      "inputs": [
        {
          "indexed": true,
          "internalType": "bytes32",
          "name": "id",
          "type": "bytes32"
        }
      ],
      "name": "ChainlinkFulfilled",
      "type": "event"
    },
    {
      "anonymous": false,
      "inputs": [
        {
          "indexed": true,
          "internalType": "bytes32",
          "name": "id",
          "type": "bytes32"
        }
      ],
      "name": "ChainlinkRequested",
      "type": "event"
    },
    {
      "anonymous": false,
      "inputs": [
        {
          "indexed": false,
          "internalType": "bytes32",
          "name": "requestId",
          "type": "bytes32"
        }
      ],
      "name": "Fulfilled",
      "type": "event"
    },
    {
      "anonymous": false,
      "inputs": [
        {
          "indexed": false,
          "internalType": "address",
          "name": "withdrawer",
          "type": "address"
        },
        {
          "indexed": false,
          "internalType": "uint256",
          "name": "amount",
          "type": "uint256"
        }
      ],
      "name": "LinkWithdrawn",
      "type": "event"
    },
    {
      "anonymous": false,
      "inputs": [
        {
          "indexed": true,
          "internalType": "address",
          "name": "previousOwner",
          "type": "address"
        },
        {
          "indexed": true,
          "internalType": "address",
          "name": "newOwner",
          "type": "address"
        }
      ],
      "name": "OwnershipTransferred",
      "type": "event"
    },
    {
      "anonymous": false,
      "inputs": [
        {
          "indexed": false,
          "internalType": "address",
          "name": "sender",
          "type": "address"
        },
        {
          "indexed": false,
          "internalType": "uint256",
          "name": "amount",
          "type": "uint256"
        }
      ],
      "name": "Received",
      "type": "event"
    },
    {
      "anonymous": false,
      "inputs": [
        {
          "indexed": false,
          "internalType": "address",
          "name": "oracleAddress",
          "type": "address"
        },
        {
          "indexed": false,
          "internalType": "bytes32",
          "name": "jobId",
          "type": "bytes32"
        },
        {
          "indexed": false,
          "internalType": "uint256",
          "name": "fee",
          "type": "uint256"
        }
      ],
      "name": "RequestSent",
      "type": "event"
    },
    {
      "stateMutability": "payable",
      "type": "fallback"
    },
    {
      "inputs": [],
      "name": "decimals",
      "outputs": [
        {
          "internalType": "int256",
          "name": "",
          "type": "int256"
        }
      ],
      "stateMutability": "view",
      "type": "function"
    },
    {
      "inputs": [],
      "name": "fee",
      "outputs": [
        {
          "internalType": "uint256",
          "name": "",
          "type": "uint256"
        }
      ],
      "stateMutability": "view",
      "type": "function"
    },
    {
      "inputs": [],
      "name": "jobId",
      "outputs": [
        {
          "internalType": "bytes32",
          "name": "",
          "type": "bytes32"
        }
      ],
      "stateMutability": "view",
      "type": "function"
    },
    {
      "inputs": [],
      "name": "linkAddress",
      "outputs": [
        {
          "internalType": "address",
          "name": "",
          "type": "address"
        }
      ],
      "stateMutability": "view",
      "type": "function"
    },
    {
      "inputs": [],
      "name": "oracleAddress",
      "outputs": [
        {
          "internalType": "address",
          "name": "",
          "type": "address"
        }
      ],
      "stateMutability": "view",
      "type": "function"
    },
    {
      "inputs": [],
      "name": "owner",
      "outputs": [
        {
          "internalType": "address",
          "name": "",
          "type": "address"
        }
      ],
      "stateMutability": "view",
      "type": "function"
    },
    {
      "inputs": [],
      "name": "renounceOwnership",
      "outputs": [],
      "stateMutability": "nonpayable",
      "type": "function"
    },
    {
      "inputs": [
        {
          "internalType": "address",
          "name": "newOwner",
          "type": "address"
        }
      ],
      "name": "transferOwnership",
      "outputs": [],
      "stateMutability": "nonpayable",
      "type": "function"
    },
    {
      "stateMutability": "payable",
      "type": "receive"
    },
    {
      "inputs": [],
      "name": "requestIndexPrice",
      "outputs": [
        {
          "internalType": "bytes32",
          "name": "requestId",
          "type": "bytes32"
        }
      ],
      "stateMutability": "nonpayable",
      "type": "function"
    },
    {
      "inputs": [
        {
          "internalType": "bytes32",
          "name": "_requestId",
          "type": "bytes32"
        },
        {
          "internalType": "uint256",
          "name": "_result",
          "type": "uint256"
        }
      ],
      "name": "fulfill",
      "outputs": [],
      "stateMutability": "nonpayable",
      "type": "function"
    },
    {
      "inputs": [],
      "name": "withdrawLink",
      "outputs": [],
      "stateMutability": "nonpayable",
      "type": "function"
    },
    {
      "inputs": [],
      "name": "getResult",
      "outputs": [
        {
          "internalType": "uint256",
          "name": "",
          "type": "uint256"
        }
      ],
      "stateMutability": "view",
      "type": "function"
    }
  ],
  "bytecode": "0x608060405260016004553480156200001657600080fd5b50604051620029053803806200290583398181016040528101906200003c91906200038a565b6200005c620000506200013260201b60201c565b6200013a60201b60201c565b86600860006101000a81548173ffffffffffffffffffffffffffffffffffffffff021916908373ffffffffffffffffffffffffffffffffffffffff1602179055508560098190555084600a9080519060200190620000bc92919062000200565b5083600b9080519060200190620000d592919062000200565b5082600c60006101000a81548173ffffffffffffffffffffffffffffffffffffffff021916908373ffffffffffffffffffffffffffffffffffffffff16021790555081600e8190555080600d8190555050505050505050620006b9565b600033905090565b6000600660009054906101000a900473ffffffffffffffffffffffffffffffffffffffff16905081600660006101000a81548173ffffffffffffffffffffffffffffffffffffffff021916908373ffffffffffffffffffffffffffffffffffffffff1602179055508173ffffffffffffffffffffffffffffffffffffffff168173ffffffffffffffffffffffffffffffffffffffff167f8be0079c531659141344cd1fd0a4f28419497f9722a3daafe3b4186f6b6457e060405160405180910390a35050565b8280546200020e9062000562565b90600052602060002090601f0160209004810192826200023257600085556200027e565b82601f106200024d57805160ff19168380011785556200027e565b828001600101855582156200027e579182015b828111156200027d57825182559160200191906001019062000260565b5b5090506200028d919062000291565b5090565b5b80821115620002ac57600081600090555060010162000292565b5090565b6000620002c7620002c184620004a4565b6200047b565b905082815260208101848484011115620002e657620002e562000631565b5b620002f38482856200052c565b509392505050565b6000815190506200030c8162000651565b92915050565b60008151905062000323816200066b565b92915050565b6000815190506200033a8162000685565b92915050565b600082601f8301126200035857620003576200062c565b5b81516200036a848260208601620002b0565b91505092915050565b60008151905062000384816200069f565b92915050565b600080600080600080600060e0888a031215620003ac57620003ab6200063b565b5b6000620003bc8a828b01620002fb565b9750506020620003cf8a828b0162000312565b965050604088015167ffffffffffffffff811115620003f357620003f262000636565b5b620004018a828b0162000340565b955050606088015167ffffffffffffffff81111562000425576200042462000636565b5b620004338a828b0162000340565b9450506080620004468a828b01620002fb565b93505060a0620004598a828b0162000373565b92505060c06200046c8a828b0162000329565b91505092959891949750929550565b6000620004876200049a565b905062000495828262000598565b919050565b6000604051905090565b600067ffffffffffffffff821115620004c257620004c1620005fd565b5b620004cd8262000640565b9050602081019050919050565b6000620004e78262000502565b9050919050565b6000819050919050565b6000819050919050565b600073ffffffffffffffffffffffffffffffffffffffff82169050919050565b6000819050919050565b60005b838110156200054c5780820151818401526020810190506200052f565b838111156200055c576000848401525b50505050565b600060028204905060018216806200057b57607f821691505b60208210811415620005925762000591620005ce565b5b50919050565b620005a38262000640565b810181811067ffffffffffffffff82111715620005c557620005c4620005fd565b5b80604052505050565b7f4e487b7100000000000000000000000000000000000000000000000000000000600052602260045260246000fd5b7f4e487b7100000000000000000000000000000000000000000000000000000000600052604160045260246000fd5b600080fd5b600080fd5b600080fd5b600080fd5b6000601f19601f8301169050919050565b6200065c81620004da565b81146200066857600080fd5b50565b6200067681620004ee565b81146200068257600080fd5b50565b6200069081620004f8565b81146200069c57600080fd5b50565b620006aa8162000522565b8114620006b657600080fd5b50565b61223c80620006c96000396000f3fe6080604052600436106100ab5760003560e01c80638dc654a2116100645780638dc654a2146101d9578063a89ae4ba146101f0578063c2939d971461021b578063ddca3f4314610246578063de29278914610271578063f2fde38b1461029c576100eb565b80630f00494a146100ed578063235cea9814610118578063313ce567146101435780634357855e1461016e578063715018a6146101975780638da5cb5b146101ae576100eb565b366100eb577f88a5966d370b9919b20f3e2c13ff65706f196a4e32cc2c12bf57088f8852587433346040516100e1929190611939565b60405180910390a1005b005b3480156100f957600080fd5b506101026102c5565b60405161010f9190611a25565b60405180910390f35b34801561012457600080fd5b5061012d610568565b60405161013a91906118e7565b60405180910390f35b34801561014f57600080fd5b5061015861058e565b6040516101659190611a40565b60405180910390f35b34801561017a57600080fd5b50610195600480360381019061019091906116ed565b610594565b005b3480156101a357600080fd5b506101ac6106dc565b005b3480156101ba57600080fd5b506101c3610764565b6040516101d091906118e7565b60405180910390f35b3480156101e557600080fd5b506101ee61078e565b005b3480156101fc57600080fd5b506102056109ac565b60405161021291906118e7565b60405180910390f35b34801561022757600080fd5b506102306109d2565b60405161023d9190611a25565b60405180910390f35b34801561025257600080fd5b5061025b6109d8565b6040516102689190611afb565b60405180910390f35b34801561027d57600080fd5b506102866109de565b6040516102939190611afb565b60405180910390f35b3480156102a857600080fd5b506102c360048036038101906102be9190611693565b6109e8565b005b6000806102dc60095430634357855e60e01b610ae0565b90506103b26040518060400160405280600381526020017f6765740000000000000000000000000000000000000000000000000000000000815250600a805461032490611f1d565b80601f016020809104026020016040519081016040528092919081815260200182805461035090611f1d565b801561039d5780601f106103725761010080835404028352916020019161039d565b820191906000526020600020905b81548152906001019060200180831161038057829003601f168201915b505050505083610b119092919063ffffffff16565b6104866040518060400160405280600481526020017f7061746800000000000000000000000000000000000000000000000000000000815250600b80546103f890611f1d565b80601f016020809104026020016040519081016040528092919081815260200182805461042490611f1d565b80156104715780601f1061044657610100808354040283529160200191610471565b820191906000526020600020905b81548152906001019060200180831161045457829003601f168201915b505050505083610b119092919063ffffffff16565b6104d26040518060400160405280600581526020017f74696d6573000000000000000000000000000000000000000000000000000000815250600d5483610b449092919063ffffffff16565b610501600860009054906101000a900473ffffffffffffffffffffffffffffffffffffffff1682600e54610b77565b91507f5de0ca4d601c6369aafe37da9bab92be9804895234cdb72d8181492e84e6bcb2600860009054906101000a900473ffffffffffffffffffffffffffffffffffffffff16600954600e5460405161055c93929190611902565b60405180910390a15090565b600c60009054906101000a900473ffffffffffffffffffffffffffffffffffffffff1681565b600d5481565b816005600082815260200190815260200160002060009054906101000a900473ffffffffffffffffffffffffffffffffffffffff1673ffffffffffffffffffffffffffffffffffffffff163373ffffffffffffffffffffffffffffffffffffffff1614610636576040517f08c379a000000000000000000000000000000000000000000000000000000000815260040161062d90611abb565b60405180910390fd5b6005600082815260200190815260200160002060006101000a81549073ffffffffffffffffffffffffffffffffffffffff0219169055807f7cc135e0cebb02c3480ae5d74d377283180a2601f8f644edf7987b009316c63a60405160405180910390a2816007819055507f6930ee93026433301a14b1baa0b52ca0d4640cb1edaa703beeb9056e23526984836040516106cf9190611a25565b60405180910390a1505050565b6106e4610b97565b73ffffffffffffffffffffffffffffffffffffffff16610702610764565b73ffffffffffffffffffffffffffffffffffffffff1614610758576040517f08c379a000000000000000000000000000000000000000000000000000000000815260040161074f90611a9b565b60405180910390fd5b6107626000610b9f565b565b6000600660009054906101000a900473ffffffffffffffffffffffffffffffffffffffff16905090565b610796610b97565b73ffffffffffffffffffffffffffffffffffffffff166107b4610764565b73ffffffffffffffffffffffffffffffffffffffff161461080a576040517f08c379a000000000000000000000000000000000000000000000000000000000815260040161080190611a9b565b60405180910390fd5b6000610814610c65565b905060008173ffffffffffffffffffffffffffffffffffffffff166370a08231306040518263ffffffff1660e01b815260040161085191906118e7565b60206040518083038186803b15801561086957600080fd5b505afa15801561087d573d6000803e3d6000fd5b505050506040513d601f19601f820116820180604052508101906108a1919061172d565b90508173ffffffffffffffffffffffffffffffffffffffff1663a9059cbb33836040518363ffffffff1660e01b81526004016108de929190611939565b602060405180830381600087803b1580156108f857600080fd5b505af115801561090c573d6000803e3d6000fd5b505050506040513d601f19601f8201168201806040525081019061093091906116c0565b61096f576040517f08c379a000000000000000000000000000000000000000000000000000000000815260040161096690611adb565b60405180910390fd5b7fcb1436249a1dd8cf93362c28d79a4e20dc54398b6c49e30316e8396e72a584b033826040516109a0929190611939565b60405180910390a15050565b600860009054906101000a900473ffffffffffffffffffffffffffffffffffffffff1681565b60095481565b600e5481565b6000600754905090565b6109f0610b97565b73ffffffffffffffffffffffffffffffffffffffff16610a0e610764565b73ffffffffffffffffffffffffffffffffffffffff1614610a64576040517f08c379a0000000000000000000000000000000000000000000000000000000008152600401610a5b90611a9b565b60405180910390fd5b600073ffffffffffffffffffffffffffffffffffffffff168173ffffffffffffffffffffffffffffffffffffffff161415610ad4576040517f08c379a0000000000000000000000000000000000000000000000000000000008152600401610acb90611a5b565b60405180910390fd5b610add81610b9f565b50565b610ae86115a3565b610af06115a3565b610b0785858584610c8f909392919063ffffffff16565b9150509392505050565b610b28828460800151610d3f90919063ffffffff16565b610b3f818460800151610d3f90919063ffffffff16565b505050565b610b5b828460800151610d3f90919063ffffffff16565b610b72818460800151610d6490919063ffffffff16565b505050565b6000610b8e8484846001634042994660e01b610e11565b90509392505050565b600033905090565b6000600660009054906101000a900473ffffffffffffffffffffffffffffffffffffffff16905081600660006101000a81548173ffffffffffffffffffffffffffffffffffffffff021916908373ffffffffffffffffffffffffffffffffffffffff1602179055508173ffffffffffffffffffffffffffffffffffffffff168173ffffffffffffffffffffffffffffffffffffffff167f8be0079c531659141344cd1fd0a4f28419497f9722a3daafe3b4186f6b6457e060405160405180910390a35050565b6000600260009054906101000a900473ffffffffffffffffffffffffffffffffffffffff16905090565b610c976115a3565b610ca78560800151610100611079565b508385600001818152505082856020019073ffffffffffffffffffffffffffffffffffffffff16908173ffffffffffffffffffffffffffffffffffffffff16815250508185604001907bffffffffffffffffffffffffffffffffffffffffffffffffffffffff191690817bffffffffffffffffffffffffffffffffffffffffffffffffffffffff191681525050849050949350505050565b610d4c82600383516110e3565b610d5f818361122890919063ffffffff16565b505050565b7fffffffffffffffffffffffffffffffffffffffffffffffff0000000000000000811215610d9b57610d96828261124a565b610e0d565b67ffffffffffffffff811315610dba57610db582826112c1565b610e0c565b60008112610dd357610dce826000836110e3565b610e0b565b610e0a826001837fffffffffffffffffffffffffffffffffffffffffffffffffffffffffffffffff610e059190611d64565b6110e3565b5b5b5b5050565b600030600454604051602001610e289291906118bb565b604051602081830303815290604052805190602001209050600454856060018181525050856005600083815260200190815260200160002060006101000a81548173ffffffffffffffffffffffffffffffffffffffff021916908373ffffffffffffffffffffffffffffffffffffffff160217905550807fb5e6e01e79f91267dc17b4e6314d5d4d03593d2ceee0fbb452b750bd70ea5af960405160405180910390a2600082600080886000015189602001518a604001518b606001518a8d6080015160000151604051602401610f06989796959493929190611962565b604051602081830303815290604052907bffffffffffffffffffffffffffffffffffffffffffffffffffffffff19166020820180517bffffffffffffffffffffffffffffffffffffffffffffffffffffffff83818316178352505050509050600260009054906101000a900473ffffffffffffffffffffffffffffffffffffffff1673ffffffffffffffffffffffffffffffffffffffff16634000aea08887846040518463ffffffff1660e01b8152600401610fc4939291906119e7565b602060405180830381600087803b158015610fde57600080fd5b505af1158015610ff2573d6000803e3d6000fd5b505050506040513d601f19601f8201168201806040525081019061101691906116c0565b611055576040517f08c379a000000000000000000000000000000000000000000000000000000000815260040161104c90611a7b565b60405180910390fd5b6001600460008282546110689190611b43565b925050819055505095945050505050565b611081611610565b60006020836110909190611f7d565b146110bc576020826110a29190611f7d565b60206110ae9190611df8565b826110b99190611b43565b91505b81836020018181525050604051808452600081528281016020016040525082905092915050565b601781116111105761110a8160058460ff16901b60ff16178461130d90919063ffffffff16565b50611223565b60ff811161115257611135601860058460ff16901b178461130d90919063ffffffff16565b5061114c8160018561132d9092919063ffffffff16565b50611222565b61ffff811161119557611178601960058460ff16901b178461130d90919063ffffffff16565b5061118f8160028561132d9092919063ffffffff16565b50611221565b63ffffffff81116111da576111bd601a60058460ff16901b178461130d90919063ffffffff16565b506111d48160048561132d9092919063ffffffff16565b50611220565b67ffffffffffffffff811161121f57611206601b60058460ff16901b178461130d90919063ffffffff16565b5061121d8160088561132d9092919063ffffffff16565b505b5b5b5b5b505050565b611230611610565b6112428384600001515184855161134f565b905092915050565b61126860036005600660ff16901b178361130d90919063ffffffff16565b506112bd82827fffffffffffffffffffffffffffffffffffffffffffffffffffffffffffffffff6112999190611d64565b6040516020016112a99190611afb565b604051602081830303815290604052611459565b5050565b6112df60026005600660ff16901b178361130d90919063ffffffff16565b5061130982826040516020016112f59190611afb565b604051602081830303815290604052611459565b5050565b611315611610565b611325838460000151518461147e565b905092915050565b611335611610565b6113468485600001515185856114d5565b90509392505050565b611357611610565b825182111561136557600080fd5b846020015182856113769190611b43565b11156113ab576113aa85600261139b886020015188876113969190611b43565b611563565b6113a59190611d0a565b61157f565b5b6000808651805187602083010193508088870111156113ca5787860182525b60208701925050505b6020841061141157805182526020826113ec9190611b43565b91506020816113fb9190611b43565b905060208461140a9190611df8565b93506113d3565b600060018560206114229190611df8565b61010061142f9190611bec565b6114399190611df8565b905080198251168184511681811785525050879350505050949350505050565b61146682600283516110e3565b611479818361122890919063ffffffff16565b505050565b611486611610565b836020015183106114ac576114ab84600286602001516114a69190611d0a565b61157f565b5b83518051602085830101848153818614156114c8576001820183525b5050508390509392505050565b6114dd611610565b846020015184836114ee9190611b43565b11156115165761151585600286856115069190611b43565b6115109190611d0a565b61157f565b5b60006001836101006115289190611bec565b6115329190611df8565b905085518386820101858319825116178152815185880111156115555784870182525b505085915050949350505050565b60008183111561157557829050611579565b8190505b92915050565b6000826000015190506115928383611079565b5061159d8382611228565b50505050565b6040518060a0016040528060008019168152602001600073ffffffffffffffffffffffffffffffffffffffff16815260200160007bffffffffffffffffffffffffffffffffffffffffffffffffffffffff191681526020016000815260200161160a611610565b81525090565b604051806040016040528060608152602001600081525090565b600081359050611639816121aa565b92915050565b60008151905061164e816121c1565b92915050565b600081359050611663816121d8565b92915050565b600081359050611678816121ef565b92915050565b60008151905061168d816121ef565b92915050565b6000602082840312156116a9576116a861203b565b5b60006116b78482850161162a565b91505092915050565b6000602082840312156116d6576116d561203b565b5b60006116e48482850161163f565b91505092915050565b600080604083850312156117045761170361203b565b5b600061171285828601611654565b925050602061172385828601611669565b9150509250929050565b6000602082840312156117435761174261203b565b5b60006117518482850161167e565b91505092915050565b61176381611e2c565b82525050565b61177281611e4a565b82525050565b61178181611e54565b82525050565b600061179282611b16565b61179c8185611b21565b93506117ac818560208601611eea565b6117b581612040565b840191505092915050565b6117d16117cc82611eb4565b611f4f565b82525050565b6117e081611e80565b82525050565b60006117f3602683611b32565b91506117fe8261206b565b604082019050919050565b6000611816602383611b32565b9150611821826120ba565b604082019050919050565b6000611839602083611b32565b915061184482612109565b602082019050919050565b600061185c602883611b32565b915061186782612132565b604082019050919050565b600061187f601283611b32565b915061188a82612181565b602082019050919050565b61189e81611eaa565b82525050565b6118b56118b082611eaa565b611f73565b82525050565b60006118c782856117c0565b6014820191506118d782846118a4565b6020820191508190509392505050565b60006020820190506118fc600083018461175a565b92915050565b6000606082019050611917600083018661175a565b6119246020830185611769565b6119316040830184611895565b949350505050565b600060408201905061194e600083018561175a565b61195b6020830184611895565b9392505050565b600061010082019050611978600083018b61175a565b611985602083018a611895565b6119926040830189611769565b61199f606083018861175a565b6119ac6080830187611778565b6119b960a0830186611895565b6119c660c0830185611895565b81810360e08301526119d88184611787565b90509998505050505050505050565b60006060820190506119fc600083018661175a565b611a096020830185611895565b8181036040830152611a1b8184611787565b9050949350505050565b6000602082019050611a3a6000830184611769565b92915050565b6000602082019050611a5560008301846117d7565b92915050565b60006020820190508181036000830152611a74816117e6565b9050919050565b60006020820190508181036000830152611a9481611809565b9050919050565b60006020820190508181036000830152611ab48161182c565b9050919050565b60006020820190508181036000830152611ad48161184f565b9050919050565b60006020820190508181036000830152611af481611872565b9050919050565b6000602082019050611b106000830184611895565b92915050565b600081519050919050565b600082825260208201905092915050565b600082825260208201905092915050565b6000611b4e82611eaa565b9150611b5983611eaa565b9250827fffffffffffffffffffffffffffffffffffffffffffffffffffffffffffffffff03821115611b8e57611b8d611fae565b5b828201905092915050565b6000808291508390505b6001851115611be357808604811115611bbf57611bbe611fae565b5b6001851615611bce5780820291505b8081029050611bdc8561205e565b9450611ba3565b94509492505050565b6000611bf782611eaa565b9150611c0283611eaa565b9250611c2f7fffffffffffffffffffffffffffffffffffffffffffffffffffffffffffffffff8484611c37565b905092915050565b600082611c475760019050611d03565b81611c555760009050611d03565b8160018114611c6b5760028114611c7557611ca4565b6001915050611d03565b60ff841115611c8757611c86611fae565b5b8360020a915084821115611c9e57611c9d611fae565b5b50611d03565b5060208310610133831016604e8410600b8410161715611cd95782820a905083811115611cd457611cd3611fae565b5b611d03565b611ce68484846001611b99565b92509050818404811115611cfd57611cfc611fae565b5b81810290505b9392505050565b6000611d1582611eaa565b9150611d2083611eaa565b9250817fffffffffffffffffffffffffffffffffffffffffffffffffffffffffffffffff0483118215151615611d5957611d58611fae565b5b828202905092915050565b6000611d6f82611e80565b9150611d7a83611e80565b9250827f800000000000000000000000000000000000000000000000000000000000000001821260008412151615611db557611db4611fae565b5b827f7fffffffffffffffffffffffffffffffffffffffffffffffffffffffffffffff018213600084121615611ded57611dec611fae565b5b828203905092915050565b6000611e0382611eaa565b9150611e0e83611eaa565b925082821015611e2157611e20611fae565b5b828203905092915050565b6000611e3782611e8a565b9050919050565b60008115159050919050565b6000819050919050565b60007fffffffff0000000000000000000000000000000000000000000000000000000082169050919050565b6000819050919050565b600073ffffffffffffffffffffffffffffffffffffffff82169050919050565b6000819050919050565b6000611ebf82611ec6565b9050919050565b6000611ed182611ed8565b9050919050565b6000611ee382611e8a565b9050919050565b60005b83811015611f08578082015181840152602081019050611eed565b83811115611f17576000848401525b50505050565b60006002820490506001821680611f3557607f821691505b60208210811415611f4957611f4861200c565b5b50919050565b6000611f5a82611f61565b9050919050565b6000611f6c82612051565b9050919050565b6000819050919050565b6000611f8882611eaa565b9150611f9383611eaa565b925082611fa357611fa2611fdd565b5b828206905092915050565b7f4e487b7100000000000000000000000000000000000000000000000000000000600052601160045260246000fd5b7f4e487b7100000000000000000000000000000000000000000000000000000000600052601260045260246000fd5b7f4e487b7100000000000000000000000000000000000000000000000000000000600052602260045260246000fd5b600080fd5b6000601f19601f8301169050919050565b60008160601b9050919050565b60008160011c9050919050565b7f4f776e61626c653a206e6577206f776e657220697320746865207a65726f206160008201527f6464726573730000000000000000000000000000000000000000000000000000602082015250565b7f756e61626c6520746f207472616e73666572416e6443616c6c20746f206f726160008201527f636c650000000000000000000000000000000000000000000000000000000000602082015250565b7f4f776e61626c653a2063616c6c6572206973206e6f7420746865206f776e6572600082015250565b7f536f75726365206d75737420626520746865206f7261636c65206f662074686560008201527f2072657175657374000000000000000000000000000000000000000000000000602082015250565b7f556e61626c6520746f2077697468647261770000000000000000000000000000600082015250565b6121b381611e2c565b81146121be57600080fd5b50565b6121ca81611e3e565b81146121d557600080fd5b50565b6121e181611e4a565b81146121ec57600080fd5b50565b6121f881611eaa565b811461220357600080fd5b5056fea2646970667358221220a3662ec831a4e68fffb0adb668ab4c033d3ae2f5bb5be5bd1ca010ca1917145d64736f6c63430008070033",
  "immutableReferences": {},
  "source": "// SPDX-License-Identifier: UNLICENSED\r\n\r\npragma solidity ^0.8.6;\r\n\r\nimport \"@chainlink/contracts/src/v0.8/ChainlinkClient.sol\";\r\nimport \"@openzeppelin/contracts/access/Ownable.sol\";\r\n\r\nimport \"../interfaces/IChainlinkOracle.sol\";\r\n\r\n\r\ncontract ChainlinkOracle is ChainlinkClient, Ownable,  IChainlinkOracle{\r\n    //after v0.7 it is neccessary to repeat using statement in all of the derived contracts\r\n    using Chainlink for Chainlink.Request;\r\n\r\n\r\n    //store answer from oracle\r\n    uint256 private result;\r\n\r\n    //oracle and job info\r\n    /* The reason I don't set these to a constant value is because\r\n     * sometimes different chainlink nodes and jobs stop/start working.\r\n     */\r\n    address public oracleAddress;\r\n    bytes32 public jobId;\r\n\r\n    //could these be bytes(x) instead of string?\r\n\r\n    //URL to make GET request from\r\n    string private apiURL;\r\n\r\n    //path for API response\r\n    string private apiPath;\r\n\r\n    //address of the link contract address for given network\r\n    address public linkAddress;//I could set this here as a constant as it wouldn't change--------------\r\n\r\n    //deal with decimals\r\n    int public decimals;\r\n\r\n    //fee is usually 0.1Link which is equal to (0.1 * 10 ** 18)\r\n    uint256 public fee;\r\n\r\n    constructor(address _oracleAddress, bytes32 _jobId, string memory _apiURL, string memory _apiPath, address _linkAddress, uint256 _fee, int _decimals) {  \r\n        //Kovan link\r\n        /*\r\n            address _link = 0xa36085F69e2889c224210F603D836748e7dC0088;\r\n            if (_link ==address(0)) {\r\n                setPublicChainlinkToken();\r\n            } else {\r\n                setChainlinkToken(_link);\r\n            }\r\n\r\n            //kovan node oracle\r\n            oracleAddress = 0x56dd6586DB0D08c6Ce7B2f2805af28616E082455;\r\n            jobId = \"b6602d14e4734c49a5e1ce19d45a4632\";\r\n\r\n            fee =  0.1 * 10 ** 18; //0.1 LINK\r\n        */\r\n\r\n        oracleAddress = _oracleAddress;\r\n        jobId = _jobId;\r\n        apiURL = _apiURL;\r\n        apiPath = _apiPath;\r\n        linkAddress = _linkAddress;\r\n        fee = _fee;\r\n        decimals = _decimals;\r\n    }\r\n\r\n    //Create Chainlink request with uint256 job\r\n    function requestIndexPrice() external override returns (bytes32 requestId) {\r\n\r\n        Chainlink.Request memory request = buildChainlinkRequest(jobId, address(this), this.fulfill.selector);\r\n\r\n        request.add(\"get\", apiURL);\r\n        //set path to data\r\n        request.add(\"path\", apiPath);\r\n        request.addInt(\"times\", decimals);\r\n        //send request with given fee to the oracle\r\n        requestId = sendChainlinkRequestTo(oracleAddress, request, fee);\r\n        emit RequestSent(oracleAddress, jobId, fee);\r\n    }\r\n\r\n    //receive response as uint256\r\n    //recordChainlinkFulffilment ensures that only requesting oracle can fulfill\r\n    function fulfill(bytes32 _requestId, uint256 _result) external override recordChainlinkFulfillment(_requestId){\r\n        result = _result;\r\n        emit Fulfilled(_requestId);\r\n    }\r\n\r\n    // withdrawLink allows the owner to withdraw any extra LINK on the contract\r\n    function withdrawLink() external override onlyOwner {\r\n        LinkTokenInterface link = LinkTokenInterface(chainlinkTokenAddress());\r\n        uint256 linkBalance = link.balanceOf(address(this));\r\n        require(link.transfer(msg.sender, linkBalance), \"Unable to withdraw\");\r\n        emit LinkWithdrawn(msg.sender, linkBalance);\r\n    }\r\n\r\n    //fallback function to receive eth\r\n    receive() external payable {\r\n        emit Received(msg.sender, msg.value);\r\n    }\r\n\r\n    fallback () external payable {\r\n\r\n    }\r\n\r\n    function getResult() external view returns (uint256) {\r\n        return result;\r\n    }\r\n}\r\n\r\n",
  "sourcePath": "C:\\Users\\Tomi\\OneDrive - The University of Chicago\\Documents\\Securrency\\FuturesExchange\\contracts\\ChainlinkOracle.sol",
  "compiler": {
    "name": "solc",
    "version": "0.8.7+commit.e28d00a7.Emscripten.clang"
  },
  "schemaVersion": "3.4.2",
  "updatedAt": "2021-08-23T21:26:39.566Z",
  "devdoc": {
    "kind": "dev",
    "methods": {
      "owner()": {
        "details": "Returns the address of the current owner."
      },
      "renounceOwnership()": {
        "details": "Leaves the contract without owner. It will not be possible to call `onlyOwner` functions anymore. Can only be called by the current owner. NOTE: Renouncing ownership will leave the contract without an owner, thereby removing any functionality that is only available to the owner."
      },
      "transferOwnership(address)": {
        "details": "Transfers ownership of the contract to a new account (`newOwner`). Can only be called by the current owner."
      }
    },
    "version": 1
  },
  "userdoc": {
    "kind": "user",
    "methods": {},
    "version": 1
  }
}