{
  "contractName": "CollateralWallet",
  "abi": [
    {
      "inputs": [
        {
          "internalType": "string",
          "name": "_name",
          "type": "string"
        }
      ],
      "stateMutability": "nonpayable",
      "type": "constructor"
    },
    {
      "anonymous": false,
      "inputs": [
        {
          "indexed": true,
          "internalType": "address",
          "name": "previousOwner",
          "type": "address"
        },
        {
          "indexed": true,
          "internalType": "address",
          "name": "newOwner",
          "type": "address"
        }
      ],
      "name": "OwnershipTransferred",
      "type": "event"
    },
    {
      "anonymous": false,
      "inputs": [
        {
          "indexed": false,
          "internalType": "address",
          "name": "account",
          "type": "address"
        }
      ],
      "name": "Paused",
      "type": "event"
    },
    {
      "anonymous": false,
      "inputs": [
        {
          "indexed": false,
          "internalType": "address",
          "name": "account",
          "type": "address"
        }
      ],
      "name": "Unpaused",
      "type": "event"
    },
    {
      "inputs": [],
      "name": "owner",
      "outputs": [
        {
          "internalType": "address",
          "name": "",
          "type": "address"
        }
      ],
      "stateMutability": "view",
      "type": "function",
      "constant": true
    },
    {
      "inputs": [],
      "name": "paused",
      "outputs": [
        {
          "internalType": "bool",
          "name": "",
          "type": "bool"
        }
      ],
      "stateMutability": "view",
      "type": "function",
      "constant": true
    },
    {
      "inputs": [],
      "name": "renounceOwnership",
      "outputs": [],
      "stateMutability": "nonpayable",
      "type": "function"
    },
    {
      "inputs": [
        {
          "internalType": "address",
          "name": "newOwner",
          "type": "address"
        }
      ],
      "name": "transferOwnership",
      "outputs": [],
      "stateMutability": "nonpayable",
      "type": "function"
    },
    {
      "inputs": [
        {
          "internalType": "address",
          "name": "ffaContractAddress",
          "type": "address"
        },
        {
          "internalType": "address",
          "name": "collateralTokenAddress",
          "type": "address"
        },
        {
          "internalType": "uint256",
          "name": "newBalance",
          "type": "uint256"
        }
      ],
      "name": "setNewBalance",
      "outputs": [],
      "stateMutability": "nonpayable",
      "type": "function"
    },
    {
      "inputs": [
        {
          "internalType": "address",
          "name": "ffaContractAddress",
          "type": "address"
        },
        {
          "internalType": "address",
          "name": "collateralTokenAddress",
          "type": "address"
        }
      ],
      "name": "getMappedBalance",
      "outputs": [
        {
          "internalType": "uint256",
          "name": "",
          "type": "uint256"
        }
      ],
      "stateMutability": "view",
      "type": "function",
      "constant": true
    },
    {
      "inputs": [
        {
          "internalType": "address",
          "name": "collateralTokenAddress",
          "type": "address"
        },
        {
          "internalType": "address",
          "name": "spender",
          "type": "address"
        },
        {
          "internalType": "uint256",
          "name": "amount",
          "type": "uint256"
        }
      ],
      "name": "approveSpender",
      "outputs": [],
      "stateMutability": "nonpayable",
      "type": "function"
    },
    {
      "inputs": [],
      "name": "getName",
      "outputs": [
        {
          "internalType": "string",
          "name": "",
          "type": "string"
        }
      ],
      "stateMutability": "view",
      "type": "function",
      "constant": true
    }
  ],
  "bytecode": "0x60806040523480156200001157600080fd5b50604051620009f6380380620009f6833981016040819052620000349162000165565b6000805460ff19169055620000493362000066565b80516200005e906001906020840190620000bf565b505062000294565b600080546001600160a01b03838116610100818102610100600160a81b0319851617855560405193049190911692909183917f8be0079c531659141344cd1fd0a4f28419497f9722a3daafe3b4186f6b6457e091a35050565b828054620000cd9062000241565b90600052602060002090601f016020900481019282620000f157600085556200013c565b82601f106200010c57805160ff19168380011785556200013c565b828001600101855582156200013c579182015b828111156200013c5782518255916020019190600101906200011f565b506200014a9291506200014e565b5090565b5b808211156200014a57600081556001016200014f565b600060208083850312156200017957600080fd5b82516001600160401b03808211156200019157600080fd5b818501915085601f830112620001a657600080fd5b815181811115620001bb57620001bb6200027e565b604051601f8201601f19908116603f01168101908382118183101715620001e657620001e66200027e565b816040528281528886848701011115620001ff57600080fd5b600093505b8284101562000223578484018601518185018701529285019262000204565b82841115620002355760008684830101525b98975050505050505050565b600181811c908216806200025657607f821691505b602082108114156200027857634e487b7160e01b600052602260045260246000fd5b50919050565b634e487b7160e01b600052604160045260246000fd5b61075280620002a46000396000f3fe608060405234801561001057600080fd5b50600436106100785760003560e01c806317d7de7c1461007d57806322604de21461009b5780632a1e15e7146100b05780635c975abb146100d1578063715018a6146100e75780638da5cb5b146100ef578063dfeff6611461010f578063f2fde38b14610122575b600080fd5b610085610135565b60405161009291906105ea565b60405180910390f35b6100ae6100a936600461058c565b6101c7565b005b6100c36100be366004610559565b6102d0565b604051908152602001610092565b60005460ff166040519015158152602001610092565b6100ae61034a565b6100f7610385565b6040516001600160a01b039091168152602001610092565b6100ae61011d36600461058c565b610399565b6100ae610130366004610537565b610422565b606060018054610144906106e1565b80601f0160208091040260200160405190810160405280929190818152602001828054610170906106e1565b80156101bd5780601f10610192576101008083540402835291602001916101bd565b820191906000526020600020905b8154815290600101906020018083116101a057829003601f168201915b5050505050905090565b6001600160a01b0382166102225760405162461bcd60e51b815260206004820152601e60248201527f7370656e64657220616464726573732063616e6e6f74206265207a65726f000060448201526064015b60405180910390fd5b6001600160a01b0383166102485760405162461bcd60e51b815260040161021990610674565b60405163095ea7b360e01b81526001600160a01b0383811660048301526024820183905284169063095ea7b390604401602060405180830381600087803b15801561029257600080fd5b505af11580156102a6573d6000803e3d6000fd5b505050506040513d601f19601f820116820180604052508101906102ca91906105c8565b50505050565b60006001600160a01b0383166102f85760405162461bcd60e51b8152600401610219906106aa565b6001600160a01b03821661031e5760405162461bcd60e51b815260040161021990610674565b506001600160a01b03918216600090815260026020908152604080832093909416825291909152205490565b33610353610385565b6001600160a01b0316146103795760405162461bcd60e51b81526004016102199061063f565b61038360006104c2565b565b60005461010090046001600160a01b031690565b6001600160a01b0383166103bf5760405162461bcd60e51b8152600401610219906106aa565b6001600160a01b0382166103e55760405162461bcd60e51b815260040161021990610674565b6001600160a01b03928316600081815260026020908152604080832095909616825293845284812083905560038452848120918152925291902055565b3361042b610385565b6001600160a01b0316146104515760405162461bcd60e51b81526004016102199061063f565b6001600160a01b0381166104b65760405162461bcd60e51b815260206004820152602660248201527f4f776e61626c653a206e6577206f776e657220697320746865207a65726f206160448201526564647265737360d01b6064820152608401610219565b6104bf816104c2565b50565b600080546001600160a01b03838116610100818102610100600160a81b0319851617855560405193049190911692909183917f8be0079c531659141344cd1fd0a4f28419497f9722a3daafe3b4186f6b6457e091a35050565b80356001600160a01b038116811461053257600080fd5b919050565b60006020828403121561054957600080fd5b6105528261051b565b9392505050565b6000806040838503121561056c57600080fd5b6105758361051b565b91506105836020840161051b565b90509250929050565b6000806000606084860312156105a157600080fd5b6105aa8461051b565b92506105b86020850161051b565b9150604084013590509250925092565b6000602082840312156105da57600080fd5b8151801515811461055257600080fd5b600060208083528351808285015260005b81811015610617578581018301518582016040015282016105fb565b81811115610629576000604083870101525b50601f01601f1916929092016040019392505050565b6020808252818101527f4f776e61626c653a2063616c6c6572206973206e6f7420746865206f776e6572604082015260600190565b6020808252601c908201527b746f6b656e20616464726573732063616e6e6f74206265207a65726f60201b604082015260600190565b6020808252601f908201527f636f6e747261637420616464726573732063616e6e6f74206265207a65726f00604082015260600190565b600181811c908216806106f557607f821691505b6020821081141561071657634e487b7160e01b600052602260045260246000fd5b5091905056fea2646970667358221220184e272785e791f286792316ab012364274882a1105b556966e4efd974a8aec164736f6c63430008070033",
  "immutableReferences": {},
  "source": "// SPDX-License-Identifier: UNLICENSED\r\n\r\npragma solidity ^0.8.6;\r\n\r\nimport \"@openzeppelin/contracts/access/Ownable.sol\";\r\nimport \"@openzeppelin/contracts/token/ERC20/IERC20.sol\";\r\nimport \"@openzeppelin/contracts/token/ERC20/utils/SafeERC20.sol\";\r\nimport \"@openzeppelin/contracts/token/ERC20/extensions/IERC20Metadata.sol\";\r\nimport \"@openzeppelin/contracts/security/Pausable.sol\";\r\n\r\nimport \"./FFAContract.sol\";\r\n\r\ncontract CollateralWallet is Pausable, Ownable{//IERC20Metadata\r\n    using SafeERC20 for IERC20;\r\n\r\n    //do i even need this?\r\n    //IERC20[] private tokens;\r\n\r\n    string private name;\r\n\r\n    //ffa contracts have collaterals that have unique balance\r\n    mapping(address => mapping(address => uint256)) private ffaToPledgedCollateralMapping;\r\n    mapping(address => mapping(address => uint256)) private pledgedCollateralToFFAMapping;\r\n\r\n    //add events here\r\n\r\n    constructor (/*IERC20[] memory _tokens,*/ string memory _name) {\r\n        name = _name;\r\n        //tokens = _tokens;\r\n    }\r\n\r\n    //receive and fallback functions\r\n    /*\r\n    receive () external payable {\r\n    \r\n    }\r\n    */\r\n    /*\r\n    fallback () external payable {\r\n\r\n    }*/\r\n\r\n\r\n    //setters\r\n    //ADD MODIFIERS FOR SAFETY!!!!!!!!!!!!\r\n    function setNewBalance(address ffaContractAddress, address collateralTokenAddress, uint256 newBalance) external {\r\n        require(ffaContractAddress != address(0), \"contract address cannot be zero\");\r\n        require(collateralTokenAddress != address(0), \"token address cannot be zero\");\r\n        ffaToPledgedCollateralMapping[ffaContractAddress][collateralTokenAddress] = newBalance;\r\n        pledgedCollateralToFFAMapping[collateralTokenAddress][ffaContractAddress] = newBalance;\r\n    }\r\n\r\n    function getMappedBalance(address ffaContractAddress, address collateralTokenAddress) external view returns (uint256) {\r\n        require(ffaContractAddress != address(0), \"contract address cannot be zero\");\r\n        require(collateralTokenAddress != address(0), \"token address cannot be zero\");\r\n        return ffaToPledgedCollateralMapping[ffaContractAddress][collateralTokenAddress];\r\n    }\r\n\r\n    function approveSpender(address collateralTokenAddress, address spender, uint256 amount) external {\r\n        require(spender != address(0), \"spender address cannot be zero\");\r\n        require(collateralTokenAddress != address(0), \"token address cannot be zero\");\r\n        IERC20(collateralTokenAddress).approve(spender, amount);\r\n    }\r\n\r\n    function getName() external view returns(string memory) {\r\n        return name;\r\n    }\r\n}",
  "sourcePath": "C:\\Users\\Tomi\\OneDrive - The University of Chicago\\Documents\\Securrency\\FuturesExchange\\contracts\\CollateralWallet.sol",
  "compiler": {
    "name": "solc",
    "version": "0.8.7+commit.e28d00a7.Emscripten.clang"
  },
  "schemaVersion": "3.4.2",
  "updatedAt": "2021-09-03T08:16:56.096Z",
  "networkType": "ethereum",
  "devdoc": {
    "kind": "dev",
    "methods": {
      "owner()": {
        "details": "Returns the address of the current owner."
      },
      "paused()": {
        "details": "Returns true if the contract is paused, and false otherwise."
      },
      "renounceOwnership()": {
        "details": "Leaves the contract without owner. It will not be possible to call `onlyOwner` functions anymore. Can only be called by the current owner. NOTE: Renouncing ownership will leave the contract without an owner, thereby removing any functionality that is only available to the owner."
      },
      "transferOwnership(address)": {
        "details": "Transfers ownership of the contract to a new account (`newOwner`). Can only be called by the current owner."
      }
    },
    "version": 1
  },
  "userdoc": {
    "kind": "user",
    "methods": {},
    "version": 1
  }
}