{
  "contractName": "CollateralWallet",
  "abi": [
    {
      "inputs": [
        {
          "internalType": "string",
          "name": "_name",
          "type": "string"
        }
      ],
      "stateMutability": "nonpayable",
      "type": "constructor"
    },
    {
      "anonymous": false,
      "inputs": [
        {
          "indexed": true,
          "internalType": "address",
          "name": "previousOwner",
          "type": "address"
        },
        {
          "indexed": true,
          "internalType": "address",
          "name": "newOwner",
          "type": "address"
        }
      ],
      "name": "OwnershipTransferred",
      "type": "event"
    },
    {
      "anonymous": false,
      "inputs": [
        {
          "indexed": false,
          "internalType": "address",
          "name": "account",
          "type": "address"
        }
      ],
      "name": "Paused",
      "type": "event"
    },
    {
      "anonymous": false,
      "inputs": [
        {
          "indexed": false,
          "internalType": "address",
          "name": "account",
          "type": "address"
        }
      ],
      "name": "Unpaused",
      "type": "event"
    },
    {
      "inputs": [],
      "name": "owner",
      "outputs": [
        {
          "internalType": "address",
          "name": "",
          "type": "address"
        }
      ],
      "stateMutability": "view",
      "type": "function",
      "constant": true
    },
    {
      "inputs": [],
      "name": "paused",
      "outputs": [
        {
          "internalType": "bool",
          "name": "",
          "type": "bool"
        }
      ],
      "stateMutability": "view",
      "type": "function",
      "constant": true
    },
    {
      "inputs": [],
      "name": "renounceOwnership",
      "outputs": [],
      "stateMutability": "nonpayable",
      "type": "function"
    },
    {
      "inputs": [
        {
          "internalType": "address",
          "name": "newOwner",
          "type": "address"
        }
      ],
      "name": "transferOwnership",
      "outputs": [],
      "stateMutability": "nonpayable",
      "type": "function"
    },
    {
      "inputs": [
        {
          "internalType": "address",
          "name": "ffaContractAddress",
          "type": "address"
        },
        {
          "internalType": "address",
          "name": "collateralTokenAddress",
          "type": "address"
        },
        {
          "internalType": "uint256",
          "name": "newBalance",
          "type": "uint256"
        }
      ],
      "name": "setNewBalance",
      "outputs": [],
      "stateMutability": "nonpayable",
      "type": "function"
    },
    {
      "inputs": [
        {
          "internalType": "address",
          "name": "ffaContractAddress",
          "type": "address"
        },
        {
          "internalType": "address",
          "name": "collateralTokenAddress",
          "type": "address"
        }
      ],
      "name": "getMappedBalance",
      "outputs": [
        {
          "internalType": "uint256",
          "name": "",
          "type": "uint256"
        }
      ],
      "stateMutability": "view",
      "type": "function",
      "constant": true
    },
    {
      "inputs": [],
      "name": "getName",
      "outputs": [
        {
          "internalType": "string",
          "name": "",
          "type": "string"
        }
      ],
      "stateMutability": "view",
      "type": "function",
      "constant": true
    }
  ],
  "bytecode": "0x60806040523480156200001157600080fd5b5060405162000e9e38038062000e9e83398181016040528101906200003791906200028c565b60008060006101000a81548160ff02191690831515021790555062000071620000656200009160201b60201c565b6200009960201b60201c565b8060019080519060200190620000899291906200015e565b505062000461565b600033905090565b60008060019054906101000a900473ffffffffffffffffffffffffffffffffffffffff16905081600060016101000a81548173ffffffffffffffffffffffffffffffffffffffff021916908373ffffffffffffffffffffffffffffffffffffffff1602179055508173ffffffffffffffffffffffffffffffffffffffff168173ffffffffffffffffffffffffffffffffffffffff167f8be0079c531659141344cd1fd0a4f28419497f9722a3daafe3b4186f6b6457e060405160405180910390a35050565b8280546200016c9062000372565b90600052602060002090601f016020900481019282620001905760008555620001dc565b82601f10620001ab57805160ff1916838001178555620001dc565b82800160010185558215620001dc579182015b82811115620001db578251825591602001919060010190620001be565b5b509050620001eb9190620001ef565b5090565b5b808211156200020a576000816000905550600101620001f0565b5090565b6000620002256200021f8462000306565b620002dd565b90508281526020810184848401111562000244576200024362000441565b5b620002518482856200033c565b509392505050565b600082601f8301126200027157620002706200043c565b5b8151620002838482602086016200020e565b91505092915050565b600060208284031215620002a557620002a46200044b565b5b600082015167ffffffffffffffff811115620002c657620002c562000446565b5b620002d48482850162000259565b91505092915050565b6000620002e9620002fc565b9050620002f78282620003a8565b919050565b6000604051905090565b600067ffffffffffffffff8211156200032457620003236200040d565b5b6200032f8262000450565b9050602081019050919050565b60005b838110156200035c5780820151818401526020810190506200033f565b838111156200036c576000848401525b50505050565b600060028204905060018216806200038b57607f821691505b60208210811415620003a257620003a1620003de565b5b50919050565b620003b38262000450565b810181811067ffffffffffffffff82111715620003d557620003d46200040d565b5b80604052505050565b7f4e487b7100000000000000000000000000000000000000000000000000000000600052602260045260246000fd5b7f4e487b7100000000000000000000000000000000000000000000000000000000600052604160045260246000fd5b600080fd5b600080fd5b600080fd5b600080fd5b6000601f19601f8301169050919050565b610a2d80620004716000396000f3fe608060405234801561001057600080fd5b506004361061007d5760003560e01c8063715018a61161005b578063715018a6146100ee5780638da5cb5b146100f8578063dfeff66114610116578063f2fde38b146101325761007d565b806317d7de7c146100825780632a1e15e7146100a05780635c975abb146100d0575b600080fd5b61008a61014e565b60405161009791906107c6565b60405180910390f35b6100ba60048036038101906100b59190610651565b6101e0565b6040516100c79190610828565b60405180910390f35b6100d8610267565b6040516100e591906107ab565b60405180910390f35b6100f661027d565b005b610100610305565b60405161010d9190610790565b60405180910390f35b610130600480360381019061012b9190610691565b61032e565b005b61014c60048036038101906101479190610624565b610435565b005b60606001805461015d906108da565b80601f0160208091040260200160405190810160405280929190818152602001828054610189906108da565b80156101d65780601f106101ab576101008083540402835291602001916101d6565b820191906000526020600020905b8154815290600101906020018083116101b957829003601f168201915b5050505050905090565b6000600260008473ffffffffffffffffffffffffffffffffffffffff1673ffffffffffffffffffffffffffffffffffffffff16815260200190815260200160002060008373ffffffffffffffffffffffffffffffffffffffff1673ffffffffffffffffffffffffffffffffffffffff16815260200190815260200160002054905092915050565b60008060009054906101000a900460ff16905090565b61028561052d565b73ffffffffffffffffffffffffffffffffffffffff166102a3610305565b73ffffffffffffffffffffffffffffffffffffffff16146102f9576040517f08c379a00000000000000000000000000000000000000000000000000000000081526004016102f090610808565b60405180910390fd5b6103036000610535565b565b60008060019054906101000a900473ffffffffffffffffffffffffffffffffffffffff16905090565b80600260008573ffffffffffffffffffffffffffffffffffffffff1673ffffffffffffffffffffffffffffffffffffffff16815260200190815260200160002060008473ffffffffffffffffffffffffffffffffffffffff1673ffffffffffffffffffffffffffffffffffffffff1681526020019081526020016000208190555080600360008473ffffffffffffffffffffffffffffffffffffffff1673ffffffffffffffffffffffffffffffffffffffff16815260200190815260200160002060008573ffffffffffffffffffffffffffffffffffffffff1673ffffffffffffffffffffffffffffffffffffffff16815260200190815260200160002081905550505050565b61043d61052d565b73ffffffffffffffffffffffffffffffffffffffff1661045b610305565b73ffffffffffffffffffffffffffffffffffffffff16146104b1576040517f08c379a00000000000000000000000000000000000000000000000000000000081526004016104a890610808565b60405180910390fd5b600073ffffffffffffffffffffffffffffffffffffffff168173ffffffffffffffffffffffffffffffffffffffff161415610521576040517f08c379a0000000000000000000000000000000000000000000000000000000008152600401610518906107e8565b60405180910390fd5b61052a81610535565b50565b600033905090565b60008060019054906101000a900473ffffffffffffffffffffffffffffffffffffffff16905081600060016101000a81548173ffffffffffffffffffffffffffffffffffffffff021916908373ffffffffffffffffffffffffffffffffffffffff1602179055508173ffffffffffffffffffffffffffffffffffffffff168173ffffffffffffffffffffffffffffffffffffffff167f8be0079c531659141344cd1fd0a4f28419497f9722a3daafe3b4186f6b6457e060405160405180910390a35050565b600081359050610609816109c9565b92915050565b60008135905061061e816109e0565b92915050565b60006020828403121561063a5761063961093b565b5b6000610648848285016105fa565b91505092915050565b600080604083850312156106685761066761093b565b5b6000610676858286016105fa565b9250506020610687858286016105fa565b9150509250929050565b6000806000606084860312156106aa576106a961093b565b5b60006106b8868287016105fa565b93505060206106c9868287016105fa565b92505060406106da8682870161060f565b9150509250925092565b6106ed8161085f565b82525050565b6106fc81610871565b82525050565b600061070d82610843565b610717818561084e565b93506107278185602086016108a7565b61073081610940565b840191505092915050565b600061074860268361084e565b915061075382610951565b604082019050919050565b600061076b60208361084e565b9150610776826109a0565b602082019050919050565b61078a8161089d565b82525050565b60006020820190506107a560008301846106e4565b92915050565b60006020820190506107c060008301846106f3565b92915050565b600060208201905081810360008301526107e08184610702565b905092915050565b600060208201905081810360008301526108018161073b565b9050919050565b600060208201905081810360008301526108218161075e565b9050919050565b600060208201905061083d6000830184610781565b92915050565b600081519050919050565b600082825260208201905092915050565b600061086a8261087d565b9050919050565b60008115159050919050565b600073ffffffffffffffffffffffffffffffffffffffff82169050919050565b6000819050919050565b60005b838110156108c55780820151818401526020810190506108aa565b838111156108d4576000848401525b50505050565b600060028204905060018216806108f257607f821691505b602082108114156109065761090561090c565b5b50919050565b7f4e487b7100000000000000000000000000000000000000000000000000000000600052602260045260246000fd5b600080fd5b6000601f19601f8301169050919050565b7f4f776e61626c653a206e6577206f776e657220697320746865207a65726f206160008201527f6464726573730000000000000000000000000000000000000000000000000000602082015250565b7f4f776e61626c653a2063616c6c6572206973206e6f7420746865206f776e6572600082015250565b6109d28161085f565b81146109dd57600080fd5b50565b6109e98161089d565b81146109f457600080fd5b5056fea26469706673582212208b3005268f0c09ca0511a2b107ab7dcae6fdaa03c454c4cf17c2cef408686ad364736f6c63430008070033",
  "immutableReferences": {},
  "source": "// SPDX-License-Identifier: UNLICENSED\r\n\r\npragma solidity ^0.8.6;\r\n\r\nimport \"@openzeppelin/contracts/access/Ownable.sol\";\r\nimport \"@openzeppelin/contracts/token/ERC20/IERC20.sol\";\r\nimport \"@openzeppelin/contracts/token/ERC20/utils/SafeERC20.sol\";\r\nimport \"@openzeppelin/contracts/token/ERC20/extensions/IERC20Metadata.sol\";\r\nimport \"@openzeppelin/contracts/security/Pausable.sol\";\r\n\r\nimport \"./FFAContract.sol\";\r\n//import \"../interfaces/ICollateralWallet.sol\";\r\n\r\ncontract CollateralWallet is Pausable, Ownable{//IERC20Metadata\r\n    using SafeERC20 for IERC20;\r\n\r\n    //do i even need this?\r\n    //IERC20[] private tokens;\r\n\r\n    string private name;\r\n\r\n    //ffa contracts have collaterals that have unique balance\r\n    mapping(address => mapping(address => uint256)) private ffaToPledgedCollateralMapping;\r\n    mapping(address => mapping(address => uint256)) private pledgedCollateralToFFAMapping;\r\n\r\n    //add events here\r\n\r\n    constructor (/*IERC20[] memory _tokens,*/ string memory _name) {\r\n        name = _name;\r\n        //tokens = _tokens;\r\n    }\r\n\r\n    //deposit\r\n\r\n    //withdraw\r\n\r\n    //transferCollateral moved to FFAContract.sol\r\n    /*\r\n    function transferCollateral(CollateralWallet recipientWallet, uint256 amount, address ffaContractAddress, address collateralTokenAddress) external returns (bool transfered_){\r\n        require(ffaToPledgedCollateralMapping[ffaContractAddress][collateralTokenAddress] >= amount, \"collateral balance not sufficient\");\r\n        require(pledgedCollateralToFFAMapping[collateralTokenAddress][ffaContractAddress] >= amount, \"collateral balance not sufficient\");\r\n\r\n        IERC20(collateralTokenAddress).safeTransfer(address(recipientWallet), amount);\r\n\r\n        //deduct from sender balance mapping\r\n        unchecked {\r\n            ffaToPledgedCollateralMapping[ffaContractAddress][collateralTokenAddress] -= amount;\r\n            pledgedCollateralToFFAMapping[collateralTokenAddress][ffaContractAddress] -= amount;\r\n        }\r\n        //add to recipient balance mapping\r\n        recipientWallet.ffaToPledgedCollateralMapping[ffaContractAddress][collateralTokenAddress] += amount;\r\n\r\n        transfered_ = true;\r\n    }*/\r\n\r\n\r\n    //setters\r\n    //ADD MODIFIERS FOR SAFETY!!!!!!!!!!!!\r\n    function setNewBalance(address ffaContractAddress, address collateralTokenAddress, uint256 newBalance) external {\r\n        ffaToPledgedCollateralMapping[ffaContractAddress][collateralTokenAddress] = newBalance;\r\n        pledgedCollateralToFFAMapping[collateralTokenAddress][ffaContractAddress] = newBalance;\r\n    }\r\n\r\n    function getMappedBalance(address ffaContractAddress, address collateralTokenAddress) external view returns (uint256) {\r\n        return ffaToPledgedCollateralMapping[ffaContractAddress][collateralTokenAddress];\r\n    }\r\n\r\n    function getName() external view returns(string memory) {\r\n        return name;\r\n    }\r\n}",
  "sourcePath": "C:\\Users\\Tomi\\OneDrive - The University of Chicago\\Documents\\Securrency\\FuturesExchange\\contracts\\CollateralWallet.sol",
  "compiler": {
    "name": "solc",
    "version": "0.8.7+commit.e28d00a7.Emscripten.clang"
  },
  "schemaVersion": "3.4.2",
  "updatedAt": "2021-08-12T14:06:06.286Z",
  "networkType": "ethereum",
  "devdoc": {
    "kind": "dev",
    "methods": {
      "owner()": {
        "details": "Returns the address of the current owner."
      },
      "paused()": {
        "details": "Returns true if the contract is paused, and false otherwise."
      },
      "renounceOwnership()": {
        "details": "Leaves the contract without owner. It will not be possible to call `onlyOwner` functions anymore. Can only be called by the current owner. NOTE: Renouncing ownership will leave the contract without an owner, thereby removing any functionality that is only available to the owner."
      },
      "transferOwnership(address)": {
        "details": "Transfers ownership of the contract to a new account (`newOwner`). Can only be called by the current owner."
      }
    },
    "version": 1
  },
  "userdoc": {
    "kind": "user",
    "methods": {},
    "version": 1
  }
}