{
  "contractName": "CollateralWallet",
  "abi": [
    {
      "inputs": [
        {
          "internalType": "string",
          "name": "_name",
          "type": "string"
        }
      ],
      "stateMutability": "nonpayable",
      "type": "constructor"
    },
    {
      "anonymous": false,
      "inputs": [
        {
          "indexed": true,
          "internalType": "address",
          "name": "previousOwner",
          "type": "address"
        },
        {
          "indexed": true,
          "internalType": "address",
          "name": "newOwner",
          "type": "address"
        }
      ],
      "name": "OwnershipTransferred",
      "type": "event"
    },
    {
      "anonymous": false,
      "inputs": [
        {
          "indexed": false,
          "internalType": "address",
          "name": "account",
          "type": "address"
        }
      ],
      "name": "Paused",
      "type": "event"
    },
    {
      "anonymous": false,
      "inputs": [
        {
          "indexed": false,
          "internalType": "address",
          "name": "account",
          "type": "address"
        }
      ],
      "name": "Unpaused",
      "type": "event"
    },
    {
      "inputs": [],
      "name": "owner",
      "outputs": [
        {
          "internalType": "address",
          "name": "",
          "type": "address"
        }
      ],
      "stateMutability": "view",
      "type": "function",
      "constant": true
    },
    {
      "inputs": [],
      "name": "paused",
      "outputs": [
        {
          "internalType": "bool",
          "name": "",
          "type": "bool"
        }
      ],
      "stateMutability": "view",
      "type": "function",
      "constant": true
    },
    {
      "inputs": [],
      "name": "renounceOwnership",
      "outputs": [],
      "stateMutability": "nonpayable",
      "type": "function"
    },
    {
      "inputs": [
        {
          "internalType": "address",
          "name": "newOwner",
          "type": "address"
        }
      ],
      "name": "transferOwnership",
      "outputs": [],
      "stateMutability": "nonpayable",
      "type": "function"
    },
    {
      "inputs": [
        {
          "internalType": "address",
          "name": "ffaContractAddress",
          "type": "address"
        },
        {
          "internalType": "address",
          "name": "collateralTokenAddress",
          "type": "address"
        },
        {
          "internalType": "uint256",
          "name": "newBalance",
          "type": "uint256"
        }
      ],
      "name": "setNewBalance",
      "outputs": [],
      "stateMutability": "nonpayable",
      "type": "function"
    },
    {
      "inputs": [
        {
          "internalType": "address",
          "name": "ffaContractAddress",
          "type": "address"
        },
        {
          "internalType": "address",
          "name": "collateralTokenAddress",
          "type": "address"
        }
      ],
      "name": "getMappedBalance",
      "outputs": [
        {
          "internalType": "uint256",
          "name": "",
          "type": "uint256"
        }
      ],
      "stateMutability": "view",
      "type": "function",
      "constant": true
    }
  ],
  "bytecode": "0x60806040523480156200001157600080fd5b5060405162000cc838038062000cc883398181016040528101906200003791906200028c565b60008060006101000a81548160ff02191690831515021790555062000071620000656200009160201b60201c565b6200009960201b60201c565b8060019080519060200190620000899291906200015e565b505062000461565b600033905090565b60008060019054906101000a900473ffffffffffffffffffffffffffffffffffffffff16905081600060016101000a81548173ffffffffffffffffffffffffffffffffffffffff021916908373ffffffffffffffffffffffffffffffffffffffff1602179055508173ffffffffffffffffffffffffffffffffffffffff168173ffffffffffffffffffffffffffffffffffffffff167f8be0079c531659141344cd1fd0a4f28419497f9722a3daafe3b4186f6b6457e060405160405180910390a35050565b8280546200016c9062000372565b90600052602060002090601f016020900481019282620001905760008555620001dc565b82601f10620001ab57805160ff1916838001178555620001dc565b82800160010185558215620001dc579182015b82811115620001db578251825591602001919060010190620001be565b5b509050620001eb9190620001ef565b5090565b5b808211156200020a576000816000905550600101620001f0565b5090565b6000620002256200021f8462000306565b620002dd565b90508281526020810184848401111562000244576200024362000441565b5b620002518482856200033c565b509392505050565b600082601f8301126200027157620002706200043c565b5b8151620002838482602086016200020e565b91505092915050565b600060208284031215620002a557620002a46200044b565b5b600082015167ffffffffffffffff811115620002c657620002c562000446565b5b620002d48482850162000259565b91505092915050565b6000620002e9620002fc565b9050620002f78282620003a8565b919050565b6000604051905090565b600067ffffffffffffffff8211156200032457620003236200040d565b5b6200032f8262000450565b9050602081019050919050565b60005b838110156200035c5780820151818401526020810190506200033f565b838111156200036c576000848401525b50505050565b600060028204905060018216806200038b57607f821691505b60208210811415620003a257620003a1620003de565b5b50919050565b620003b38262000450565b810181811067ffffffffffffffff82111715620003d557620003d46200040d565b5b80604052505050565b7f4e487b7100000000000000000000000000000000000000000000000000000000600052602260045260246000fd5b7f4e487b7100000000000000000000000000000000000000000000000000000000600052604160045260246000fd5b600080fd5b600080fd5b600080fd5b600080fd5b6000601f19601f8301169050919050565b61085780620004716000396000f3fe608060405234801561001057600080fd5b50600436106100625760003560e01c80632a1e15e7146100675780635c975abb14610097578063715018a6146100b55780638da5cb5b146100bf578063dfeff661146100dd578063f2fde38b146100f9575b600080fd5b610081600480360381019061007c9190610586565b610115565b60405161008e9190610702565b60405180910390f35b61009f61019c565b6040516100ac91906106a7565b60405180910390f35b6100bd6101b2565b005b6100c761023a565b6040516100d4919061068c565b60405180910390f35b6100f760048036038101906100f291906105c6565b610263565b005b610113600480360381019061010e9190610559565b61036a565b005b6000600260008473ffffffffffffffffffffffffffffffffffffffff1673ffffffffffffffffffffffffffffffffffffffff16815260200190815260200160002060008373ffffffffffffffffffffffffffffffffffffffff1673ffffffffffffffffffffffffffffffffffffffff16815260200190815260200160002054905092915050565b60008060009054906101000a900460ff16905090565b6101ba610462565b73ffffffffffffffffffffffffffffffffffffffff166101d861023a565b73ffffffffffffffffffffffffffffffffffffffff161461022e576040517f08c379a0000000000000000000000000000000000000000000000000000000008152600401610225906106e2565b60405180910390fd5b610238600061046a565b565b60008060019054906101000a900473ffffffffffffffffffffffffffffffffffffffff16905090565b80600260008573ffffffffffffffffffffffffffffffffffffffff1673ffffffffffffffffffffffffffffffffffffffff16815260200190815260200160002060008473ffffffffffffffffffffffffffffffffffffffff1673ffffffffffffffffffffffffffffffffffffffff1681526020019081526020016000208190555080600360008473ffffffffffffffffffffffffffffffffffffffff1673ffffffffffffffffffffffffffffffffffffffff16815260200190815260200160002060008573ffffffffffffffffffffffffffffffffffffffff1673ffffffffffffffffffffffffffffffffffffffff16815260200190815260200160002081905550505050565b610372610462565b73ffffffffffffffffffffffffffffffffffffffff1661039061023a565b73ffffffffffffffffffffffffffffffffffffffff16146103e6576040517f08c379a00000000000000000000000000000000000000000000000000000000081526004016103dd906106e2565b60405180910390fd5b600073ffffffffffffffffffffffffffffffffffffffff168173ffffffffffffffffffffffffffffffffffffffff161415610456576040517f08c379a000000000000000000000000000000000000000000000000000000000815260040161044d906106c2565b60405180910390fd5b61045f8161046a565b50565b600033905090565b60008060019054906101000a900473ffffffffffffffffffffffffffffffffffffffff16905081600060016101000a81548173ffffffffffffffffffffffffffffffffffffffff021916908373ffffffffffffffffffffffffffffffffffffffff1602179055508173ffffffffffffffffffffffffffffffffffffffff168173ffffffffffffffffffffffffffffffffffffffff167f8be0079c531659141344cd1fd0a4f28419497f9722a3daafe3b4186f6b6457e060405160405180910390a35050565b60008135905061053e816107f3565b92915050565b6000813590506105538161080a565b92915050565b60006020828403121561056f5761056e610776565b5b600061057d8482850161052f565b91505092915050565b6000806040838503121561059d5761059c610776565b5b60006105ab8582860161052f565b92505060206105bc8582860161052f565b9150509250929050565b6000806000606084860312156105df576105de610776565b5b60006105ed8682870161052f565b93505060206105fe8682870161052f565b925050604061060f86828701610544565b9150509250925092565b6106228161072e565b82525050565b61063181610740565b82525050565b600061064460268361071d565b915061064f8261077b565b604082019050919050565b600061066760208361071d565b9150610672826107ca565b602082019050919050565b6106868161076c565b82525050565b60006020820190506106a16000830184610619565b92915050565b60006020820190506106bc6000830184610628565b92915050565b600060208201905081810360008301526106db81610637565b9050919050565b600060208201905081810360008301526106fb8161065a565b9050919050565b6000602082019050610717600083018461067d565b92915050565b600082825260208201905092915050565b60006107398261074c565b9050919050565b60008115159050919050565b600073ffffffffffffffffffffffffffffffffffffffff82169050919050565b6000819050919050565b600080fd5b7f4f776e61626c653a206e6577206f776e657220697320746865207a65726f206160008201527f6464726573730000000000000000000000000000000000000000000000000000602082015250565b7f4f776e61626c653a2063616c6c6572206973206e6f7420746865206f776e6572600082015250565b6107fc8161072e565b811461080757600080fd5b50565b6108138161076c565b811461081e57600080fd5b5056fea2646970667358221220b52e7d37d77eebe4c0b6b93271c1867dc24c38d2a886bfe94ef6e623d17b89e164736f6c63430008070033",
  "immutableReferences": {},
  "source": "// SPDX-License-Identifier: UNLICENSED\r\n\r\npragma solidity ^0.8.6;\r\n\r\nimport \"@openzeppelin/contracts/access/Ownable.sol\";\r\nimport \"@openzeppelin/contracts/token/ERC20/IERC20.sol\";\r\nimport \"@openzeppelin/contracts/token/ERC20/utils/SafeERC20.sol\";\r\nimport \"@openzeppelin/contracts/token/ERC20/extensions/IERC20Metadata.sol\";\r\nimport \"@openzeppelin/contracts/security/Pausable.sol\";\r\n\r\nimport \"./FFAContract.sol\";\r\n//import \"../interfaces/ICollateralWallet.sol\";\r\n\r\ncontract CollateralWallet is Pausable, Ownable{//IERC20Metadata\r\n    using SafeERC20 for IERC20;\r\n\r\n    //do i even need this?\r\n    //IERC20[] private tokens;\r\n\r\n    string private name;\r\n\r\n    //ffa contracts have collaterals that have unique balance\r\n    mapping(address => mapping(address => uint256)) private ffaToPledgedCollateralMapping;\r\n    mapping(address => mapping(address => uint256)) private pledgedCollateralToFFAMapping;\r\n\r\n    //add events here\r\n\r\n    constructor (/*IERC20[] memory _tokens,*/ string memory _name) {\r\n        name = _name;\r\n        //tokens = _tokens;\r\n    }\r\n\r\n    //deposit\r\n\r\n    //withdraw\r\n\r\n    //transferCollateral moved to FFAContract.sol\r\n    /*\r\n    function transferCollateral(CollateralWallet recipientWallet, uint256 amount, address ffaContractAddress, address collateralTokenAddress) external returns (bool transfered_){\r\n        require(ffaToPledgedCollateralMapping[ffaContractAddress][collateralTokenAddress] >= amount, \"collateral balance not sufficient\");\r\n        require(pledgedCollateralToFFAMapping[collateralTokenAddress][ffaContractAddress] >= amount, \"collateral balance not sufficient\");\r\n\r\n        IERC20(collateralTokenAddress).safeTransfer(address(recipientWallet), amount);\r\n\r\n        //deduct from sender balance mapping\r\n        unchecked {\r\n            ffaToPledgedCollateralMapping[ffaContractAddress][collateralTokenAddress] -= amount;\r\n            pledgedCollateralToFFAMapping[collateralTokenAddress][ffaContractAddress] -= amount;\r\n        }\r\n        //add to recipient balance mapping\r\n        recipientWallet.ffaToPledgedCollateralMapping[ffaContractAddress][collateralTokenAddress] += amount;\r\n\r\n        transfered_ = true;\r\n    }*/\r\n\r\n\r\n    //setters\r\n    //ADD MODIFIERS FOR SAFETY!!!!!!!!!!!!\r\n    function setNewBalance(address ffaContractAddress, address collateralTokenAddress, uint256 newBalance) external {\r\n        ffaToPledgedCollateralMapping[ffaContractAddress][collateralTokenAddress] = newBalance;\r\n        pledgedCollateralToFFAMapping[collateralTokenAddress][ffaContractAddress] = newBalance;\r\n    }\r\n\r\n    function getMappedBalance(address ffaContractAddress, address collateralTokenAddress) external view returns (uint256) {\r\n        return ffaToPledgedCollateralMapping[ffaContractAddress][collateralTokenAddress];\r\n    }\r\n}",
  "sourcePath": "C:\\Users\\Tomi\\OneDrive - The University of Chicago\\Documents\\Securrency\\FuturesExchange\\contracts\\CollateralWallet.sol",
  "compiler": {
    "name": "solc",
    "version": "0.8.7+commit.e28d00a7.Emscripten.clang"
  },
  "schemaVersion": "3.4.2",
  "updatedAt": "2021-08-12T09:05:16.722Z",
  "networkType": "ethereum",
  "devdoc": {
    "kind": "dev",
    "methods": {
      "owner()": {
        "details": "Returns the address of the current owner."
      },
      "paused()": {
        "details": "Returns true if the contract is paused, and false otherwise."
      },
      "renounceOwnership()": {
        "details": "Leaves the contract without owner. It will not be possible to call `onlyOwner` functions anymore. Can only be called by the current owner. NOTE: Renouncing ownership will leave the contract without an owner, thereby removing any functionality that is only available to the owner."
      },
      "transferOwnership(address)": {
        "details": "Transfers ownership of the contract to a new account (`newOwner`). Can only be called by the current owner."
      }
    },
    "version": 1
  },
  "userdoc": {
    "kind": "user",
    "methods": {},
    "version": 1
  }
}