{
  "contractName": "CollateralWallet",
  "abi": [
    {
      "inputs": [
        {
          "internalType": "string",
          "name": "_name",
          "type": "string"
        }
      ],
      "stateMutability": "nonpayable",
      "type": "constructor"
    },
    {
      "anonymous": false,
      "inputs": [
        {
          "indexed": true,
          "internalType": "address",
          "name": "previousOwner",
          "type": "address"
        },
        {
          "indexed": true,
          "internalType": "address",
          "name": "newOwner",
          "type": "address"
        }
      ],
      "name": "OwnershipTransferred",
      "type": "event"
    },
    {
      "anonymous": false,
      "inputs": [
        {
          "indexed": false,
          "internalType": "address",
          "name": "account",
          "type": "address"
        }
      ],
      "name": "Paused",
      "type": "event"
    },
    {
      "anonymous": false,
      "inputs": [
        {
          "indexed": false,
          "internalType": "address",
          "name": "account",
          "type": "address"
        }
      ],
      "name": "Unpaused",
      "type": "event"
    },
    {
      "inputs": [],
      "name": "owner",
      "outputs": [
        {
          "internalType": "address",
          "name": "",
          "type": "address"
        }
      ],
      "stateMutability": "view",
      "type": "function",
      "constant": true
    },
    {
      "inputs": [],
      "name": "paused",
      "outputs": [
        {
          "internalType": "bool",
          "name": "",
          "type": "bool"
        }
      ],
      "stateMutability": "view",
      "type": "function",
      "constant": true
    },
    {
      "inputs": [],
      "name": "renounceOwnership",
      "outputs": [],
      "stateMutability": "nonpayable",
      "type": "function"
    },
    {
      "inputs": [
        {
          "internalType": "address",
          "name": "newOwner",
          "type": "address"
        }
      ],
      "name": "transferOwnership",
      "outputs": [],
      "stateMutability": "nonpayable",
      "type": "function"
    },
    {
      "inputs": [
        {
          "internalType": "address",
          "name": "ffaContractAddress",
          "type": "address"
        },
        {
          "internalType": "address",
          "name": "collateralTokenAddress",
          "type": "address"
        },
        {
          "internalType": "uint256",
          "name": "newBalance",
          "type": "uint256"
        }
      ],
      "name": "setNewBalance",
      "outputs": [],
      "stateMutability": "nonpayable",
      "type": "function"
    },
    {
      "inputs": [
        {
          "internalType": "address",
          "name": "ffaContractAddress",
          "type": "address"
        },
        {
          "internalType": "address",
          "name": "collateralTokenAddress",
          "type": "address"
        }
      ],
      "name": "getMappedBalance",
      "outputs": [
        {
          "internalType": "uint256",
          "name": "",
          "type": "uint256"
        }
      ],
      "stateMutability": "view",
      "type": "function",
      "constant": true
    },
    {
      "inputs": [
        {
          "internalType": "address",
          "name": "collateralTokenAddress",
          "type": "address"
        },
        {
          "internalType": "address",
          "name": "spender",
          "type": "address"
        },
        {
          "internalType": "uint256",
          "name": "amount",
          "type": "uint256"
        }
      ],
      "name": "approveSpender",
      "outputs": [],
      "stateMutability": "nonpayable",
      "type": "function"
    },
    {
      "inputs": [],
      "name": "getName",
      "outputs": [
        {
          "internalType": "string",
          "name": "",
          "type": "string"
        }
      ],
      "stateMutability": "view",
      "type": "function",
      "constant": true
    }
  ],
  "bytecode": "0x60806040523480156200001157600080fd5b5060405162000fda38038062000fda83398181016040528101906200003791906200028c565b60008060006101000a81548160ff02191690831515021790555062000071620000656200009160201b60201c565b6200009960201b60201c565b8060019080519060200190620000899291906200015e565b505062000461565b600033905090565b60008060019054906101000a900473ffffffffffffffffffffffffffffffffffffffff16905081600060016101000a81548173ffffffffffffffffffffffffffffffffffffffff021916908373ffffffffffffffffffffffffffffffffffffffff1602179055508173ffffffffffffffffffffffffffffffffffffffff168173ffffffffffffffffffffffffffffffffffffffff167f8be0079c531659141344cd1fd0a4f28419497f9722a3daafe3b4186f6b6457e060405160405180910390a35050565b8280546200016c9062000372565b90600052602060002090601f016020900481019282620001905760008555620001dc565b82601f10620001ab57805160ff1916838001178555620001dc565b82800160010185558215620001dc579182015b82811115620001db578251825591602001919060010190620001be565b5b509050620001eb9190620001ef565b5090565b5b808211156200020a576000816000905550600101620001f0565b5090565b6000620002256200021f8462000306565b620002dd565b90508281526020810184848401111562000244576200024362000441565b5b620002518482856200033c565b509392505050565b600082601f8301126200027157620002706200043c565b5b8151620002838482602086016200020e565b91505092915050565b600060208284031215620002a557620002a46200044b565b5b600082015167ffffffffffffffff811115620002c657620002c562000446565b5b620002d48482850162000259565b91505092915050565b6000620002e9620002fc565b9050620002f78282620003a8565b919050565b6000604051905090565b600067ffffffffffffffff8211156200032457620003236200040d565b5b6200032f8262000450565b9050602081019050919050565b60005b838110156200035c5780820151818401526020810190506200033f565b838111156200036c576000848401525b50505050565b600060028204905060018216806200038b57607f821691505b60208210811415620003a257620003a1620003de565b5b50919050565b620003b38262000450565b810181811067ffffffffffffffff82111715620003d557620003d46200040d565b5b80604052505050565b7f4e487b7100000000000000000000000000000000000000000000000000000000600052602260045260246000fd5b7f4e487b7100000000000000000000000000000000000000000000000000000000600052604160045260246000fd5b600080fd5b600080fd5b600080fd5b600080fd5b6000601f19601f8301169050919050565b610b6980620004716000396000f3fe608060405234801561001057600080fd5b50600436106100885760003560e01c8063715018a61161005b578063715018a6146101155780638da5cb5b1461011f578063dfeff6611461013d578063f2fde38b1461015957610088565b806317d7de7c1461008d57806322604de2146100ab5780632a1e15e7146100c75780635c975abb146100f7575b600080fd5b610095610175565b6040516100a291906108eb565b60405180910390f35b6100c560048036038101906100c09190610760565b610207565b005b6100e160048036038101906100dc9190610720565b61029a565b6040516100ee919061094d565b60405180910390f35b6100ff610321565b60405161010c91906108d0565b60405180910390f35b61011d610337565b005b6101276103bf565b604051610134919061088c565b60405180910390f35b61015760048036038101906101529190610760565b6103e8565b005b610173600480360381019061016e91906106f3565b6104ef565b005b606060018054610184906109ff565b80601f01602080910402602001604051908101604052809291908181526020018280546101b0906109ff565b80156101fd5780601f106101d2576101008083540402835291602001916101fd565b820191906000526020600020905b8154815290600101906020018083116101e057829003601f168201915b5050505050905090565b8273ffffffffffffffffffffffffffffffffffffffff1663095ea7b383836040518363ffffffff1660e01b81526004016102429291906108a7565b602060405180830381600087803b15801561025c57600080fd5b505af1158015610270573d6000803e3d6000fd5b505050506040513d601f19601f8201168201806040525081019061029491906107b3565b50505050565b6000600260008473ffffffffffffffffffffffffffffffffffffffff1673ffffffffffffffffffffffffffffffffffffffff16815260200190815260200160002060008373ffffffffffffffffffffffffffffffffffffffff1673ffffffffffffffffffffffffffffffffffffffff16815260200190815260200160002054905092915050565b60008060009054906101000a900460ff16905090565b61033f6105e7565b73ffffffffffffffffffffffffffffffffffffffff1661035d6103bf565b73ffffffffffffffffffffffffffffffffffffffff16146103b3576040517f08c379a00000000000000000000000000000000000000000000000000000000081526004016103aa9061092d565b60405180910390fd5b6103bd60006105ef565b565b60008060019054906101000a900473ffffffffffffffffffffffffffffffffffffffff16905090565b80600260008573ffffffffffffffffffffffffffffffffffffffff1673ffffffffffffffffffffffffffffffffffffffff16815260200190815260200160002060008473ffffffffffffffffffffffffffffffffffffffff1673ffffffffffffffffffffffffffffffffffffffff1681526020019081526020016000208190555080600360008473ffffffffffffffffffffffffffffffffffffffff1673ffffffffffffffffffffffffffffffffffffffff16815260200190815260200160002060008573ffffffffffffffffffffffffffffffffffffffff1673ffffffffffffffffffffffffffffffffffffffff16815260200190815260200160002081905550505050565b6104f76105e7565b73ffffffffffffffffffffffffffffffffffffffff166105156103bf565b73ffffffffffffffffffffffffffffffffffffffff161461056b576040517f08c379a00000000000000000000000000000000000000000000000000000000081526004016105629061092d565b60405180910390fd5b600073ffffffffffffffffffffffffffffffffffffffff168173ffffffffffffffffffffffffffffffffffffffff1614156105db576040517f08c379a00000000000000000000000000000000000000000000000000000000081526004016105d29061090d565b60405180910390fd5b6105e4816105ef565b50565b600033905090565b60008060019054906101000a900473ffffffffffffffffffffffffffffffffffffffff16905081600060016101000a81548173ffffffffffffffffffffffffffffffffffffffff021916908373ffffffffffffffffffffffffffffffffffffffff1602179055508173ffffffffffffffffffffffffffffffffffffffff168173ffffffffffffffffffffffffffffffffffffffff167f8be0079c531659141344cd1fd0a4f28419497f9722a3daafe3b4186f6b6457e060405160405180910390a35050565b6000813590506106c381610aee565b92915050565b6000815190506106d881610b05565b92915050565b6000813590506106ed81610b1c565b92915050565b60006020828403121561070957610708610a60565b5b6000610717848285016106b4565b91505092915050565b6000806040838503121561073757610736610a60565b5b6000610745858286016106b4565b9250506020610756858286016106b4565b9150509250929050565b60008060006060848603121561077957610778610a60565b5b6000610787868287016106b4565b9350506020610798868287016106b4565b92505060406107a9868287016106de565b9150509250925092565b6000602082840312156107c9576107c8610a60565b5b60006107d7848285016106c9565b91505092915050565b6107e981610984565b82525050565b6107f881610996565b82525050565b600061080982610968565b6108138185610973565b93506108238185602086016109cc565b61082c81610a65565b840191505092915050565b6000610844602683610973565b915061084f82610a76565b604082019050919050565b6000610867602083610973565b915061087282610ac5565b602082019050919050565b610886816109c2565b82525050565b60006020820190506108a160008301846107e0565b92915050565b60006040820190506108bc60008301856107e0565b6108c9602083018461087d565b9392505050565b60006020820190506108e560008301846107ef565b92915050565b6000602082019050818103600083015261090581846107fe565b905092915050565b6000602082019050818103600083015261092681610837565b9050919050565b600060208201905081810360008301526109468161085a565b9050919050565b6000602082019050610962600083018461087d565b92915050565b600081519050919050565b600082825260208201905092915050565b600061098f826109a2565b9050919050565b60008115159050919050565b600073ffffffffffffffffffffffffffffffffffffffff82169050919050565b6000819050919050565b60005b838110156109ea5780820151818401526020810190506109cf565b838111156109f9576000848401525b50505050565b60006002820490506001821680610a1757607f821691505b60208210811415610a2b57610a2a610a31565b5b50919050565b7f4e487b7100000000000000000000000000000000000000000000000000000000600052602260045260246000fd5b600080fd5b6000601f19601f8301169050919050565b7f4f776e61626c653a206e6577206f776e657220697320746865207a65726f206160008201527f6464726573730000000000000000000000000000000000000000000000000000602082015250565b7f4f776e61626c653a2063616c6c6572206973206e6f7420746865206f776e6572600082015250565b610af781610984565b8114610b0257600080fd5b50565b610b0e81610996565b8114610b1957600080fd5b50565b610b25816109c2565b8114610b3057600080fd5b5056fea2646970667358221220a295b75ce6233267850d817554c57694abbe127f925edf2a41d2f2ec9125220464736f6c63430008070033",
  "immutableReferences": {},
  "source": "// SPDX-License-Identifier: UNLICENSED\r\n\r\npragma solidity ^0.8.6;\r\n\r\nimport \"@openzeppelin/contracts/access/Ownable.sol\";\r\nimport \"@openzeppelin/contracts/token/ERC20/IERC20.sol\";\r\nimport \"@openzeppelin/contracts/token/ERC20/utils/SafeERC20.sol\";\r\nimport \"@openzeppelin/contracts/token/ERC20/extensions/IERC20Metadata.sol\";\r\nimport \"@openzeppelin/contracts/security/Pausable.sol\";\r\n\r\nimport \"./FFAContract.sol\";\r\n//import \"../interfaces/ICollateralWallet.sol\";\r\n\r\ncontract CollateralWallet is Pausable, Ownable{//IERC20Metadata\r\n    using SafeERC20 for IERC20;\r\n\r\n    //do i even need this?\r\n    //IERC20[] private tokens;\r\n\r\n    string private name;\r\n\r\n    //ffa contracts have collaterals that have unique balance\r\n    mapping(address => mapping(address => uint256)) private ffaToPledgedCollateralMapping;\r\n    mapping(address => mapping(address => uint256)) private pledgedCollateralToFFAMapping;\r\n\r\n    //add events here\r\n\r\n    constructor (/*IERC20[] memory _tokens,*/ string memory _name) {\r\n        name = _name;\r\n        //tokens = _tokens;\r\n    }\r\n\r\n    //deposit\r\n\r\n    //withdraw\r\n\r\n    \r\n    //receive and fallback functions\r\n    /*\r\n    receive () external payable {\r\n    \r\n    }\r\n    */\r\n    /*\r\n    fallback () external payable {\r\n\r\n    }*/\r\n\r\n\r\n    //setters\r\n    //ADD MODIFIERS FOR SAFETY!!!!!!!!!!!!\r\n    function setNewBalance(address ffaContractAddress, address collateralTokenAddress, uint256 newBalance) external {\r\n        ffaToPledgedCollateralMapping[ffaContractAddress][collateralTokenAddress] = newBalance;\r\n        pledgedCollateralToFFAMapping[collateralTokenAddress][ffaContractAddress] = newBalance;\r\n    }\r\n\r\n    function getMappedBalance(address ffaContractAddress, address collateralTokenAddress) external view returns (uint256) {\r\n        return ffaToPledgedCollateralMapping[ffaContractAddress][collateralTokenAddress];\r\n    }\r\n\r\n    function approveSpender(address collateralTokenAddress, address spender, uint256 amount) external {\r\n        IERC20(collateralTokenAddress).approve(spender, amount);\r\n    }\r\n    function getName() external view returns(string memory) {\r\n        return name;\r\n    }\r\n}",
  "sourcePath": "C:\\Users\\Tomi\\OneDrive - The University of Chicago\\Documents\\Securrency\\FuturesExchange\\contracts\\CollateralWallet.sol",
  "compiler": {
    "name": "solc",
    "version": "0.8.7+commit.e28d00a7.Emscripten.clang"
  },
  "schemaVersion": "3.4.2",
  "updatedAt": "2021-08-23T08:38:46.187Z",
  "networkType": "ethereum",
  "devdoc": {
    "kind": "dev",
    "methods": {
      "owner()": {
        "details": "Returns the address of the current owner."
      },
      "paused()": {
        "details": "Returns true if the contract is paused, and false otherwise."
      },
      "renounceOwnership()": {
        "details": "Leaves the contract without owner. It will not be possible to call `onlyOwner` functions anymore. Can only be called by the current owner. NOTE: Renouncing ownership will leave the contract without an owner, thereby removing any functionality that is only available to the owner."
      },
      "transferOwnership(address)": {
        "details": "Transfers ownership of the contract to a new account (`newOwner`). Can only be called by the current owner."
      }
    },
    "version": 1
  },
  "userdoc": {
    "kind": "user",
    "methods": {},
    "version": 1
  }
}