{
  "contractName": "FFAContract",
  "abi": [
    {
      "inputs": [
        {
          "internalType": "string",
          "name": "_name",
          "type": "string"
        },
        {
          "internalType": "string",
          "name": "_symbol",
          "type": "string"
        },
        {
          "internalType": "uint256",
          "name": "_decimals",
          "type": "uint256"
        },
        {
          "internalType": "uint256",
          "name": "_sizeOfContract",
          "type": "uint256"
        },
        {
          "internalType": "uint256",
          "name": "_exposureMarginRate",
          "type": "uint256"
        },
        {
          "internalType": "uint256",
          "name": "_maintenanceMarginRate",
          "type": "uint256"
        }
      ],
      "stateMutability": "nonpayable",
      "type": "constructor"
    },
    {
      "anonymous": false,
      "inputs": [
        {
          "indexed": false,
          "internalType": "uint256",
          "name": "decimals",
          "type": "uint256"
        },
        {
          "indexed": false,
          "internalType": "uint256",
          "name": "sizeOfContract",
          "type": "uint256"
        }
      ],
      "name": "CreatedContract",
      "type": "event"
    },
    {
      "anonymous": false,
      "inputs": [
        {
          "indexed": false,
          "internalType": "uint256",
          "name": "defaultDate",
          "type": "uint256"
        },
        {
          "indexed": false,
          "internalType": "address",
          "name": "defaultingParty",
          "type": "address"
        }
      ],
      "name": "Defaulted",
      "type": "event"
    },
    {
      "anonymous": false,
      "inputs": [
        {
          "indexed": true,
          "internalType": "address",
          "name": "long",
          "type": "address"
        },
        {
          "indexed": true,
          "internalType": "address",
          "name": "short",
          "type": "address"
        },
        {
          "indexed": false,
          "internalType": "uint256",
          "name": "initialForwardPrice",
          "type": "uint256"
        },
        {
          "indexed": false,
          "internalType": "uint256",
          "name": "riskFreeRate",
          "type": "uint256"
        },
        {
          "indexed": false,
          "internalType": "uint256",
          "name": "expirationDate",
          "type": "uint256"
        },
        {
          "indexed": false,
          "internalType": "uint256",
          "name": "sizeOfContract",
          "type": "uint256"
        }
      ],
      "name": "Initiated",
      "type": "event"
    },
    {
      "anonymous": false,
      "inputs": [
        {
          "indexed": false,
          "internalType": "uint256",
          "name": "mtmDate",
          "type": "uint256"
        },
        {
          "indexed": false,
          "internalType": "int256",
          "name": "contractValueChange",
          "type": "int256"
        },
        {
          "indexed": false,
          "internalType": "address",
          "name": "long",
          "type": "address"
        },
        {
          "indexed": false,
          "internalType": "address",
          "name": "short",
          "type": "address"
        }
      ],
      "name": "MarkedToMarket",
      "type": "event"
    },
    {
      "anonymous": false,
      "inputs": [
        {
          "indexed": false,
          "internalType": "address",
          "name": "long",
          "type": "address"
        },
        {
          "indexed": false,
          "internalType": "address",
          "name": "short",
          "type": "address"
        },
        {
          "indexed": false,
          "internalType": "uint256",
          "name": "expirationDate",
          "type": "uint256"
        },
        {
          "indexed": false,
          "internalType": "int256",
          "name": "profitAndLoss",
          "type": "int256"
        }
      ],
      "name": "Settled",
      "type": "event"
    },
    {
      "inputs": [],
      "name": "contractState",
      "outputs": [
        {
          "internalType": "enum FFAContract.ContractState",
          "name": "",
          "type": "uint8"
        }
      ],
      "stateMutability": "view",
      "type": "function",
      "constant": true
    },
    {
      "inputs": [],
      "name": "longTestWallet",
      "outputs": [
        {
          "internalType": "contract CollateralWallet",
          "name": "",
          "type": "address"
        }
      ],
      "stateMutability": "view",
      "type": "function",
      "constant": true
    },
    {
      "inputs": [],
      "name": "shortTestWallet",
      "outputs": [
        {
          "internalType": "contract CollateralWallet",
          "name": "",
          "type": "address"
        }
      ],
      "stateMutability": "view",
      "type": "function",
      "constant": true
    },
    {
      "inputs": [
        {
          "internalType": "address",
          "name": "_long",
          "type": "address"
        },
        {
          "internalType": "address",
          "name": "_short",
          "type": "address"
        },
        {
          "internalType": "uint256",
          "name": "_initialForwardPrice",
          "type": "uint256"
        },
        {
          "internalType": "uint256",
          "name": "_riskFreeRate",
          "type": "uint256"
        },
        {
          "internalType": "uint256",
          "name": "_expirationDate",
          "type": "uint256"
        },
        {
          "internalType": "address",
          "name": "_longWallet",
          "type": "address"
        },
        {
          "internalType": "address",
          "name": "_shortWallet",
          "type": "address"
        }
      ],
      "name": "initiateFFA",
      "outputs": [
        {
          "internalType": "bool",
          "name": "initiated_",
          "type": "bool"
        }
      ],
      "stateMutability": "nonpayable",
      "type": "function"
    },
    {
      "inputs": [],
      "name": "calcForwardPrice",
      "outputs": [
        {
          "internalType": "uint256",
          "name": "price_",
          "type": "uint256"
        }
      ],
      "stateMutability": "nonpayable",
      "type": "function"
    },
    {
      "inputs": [],
      "name": "markToMarket",
      "outputs": [
        {
          "internalType": "bool",
          "name": "markedToMarket_",
          "type": "bool"
        }
      ],
      "stateMutability": "nonpayable",
      "type": "function"
    },
    {
      "inputs": [],
      "name": "settleAtExpiration",
      "outputs": [
        {
          "internalType": "bool",
          "name": "settled_",
          "type": "bool"
        }
      ],
      "stateMutability": "nonpayable",
      "type": "function"
    },
    {
      "inputs": [
        {
          "internalType": "address",
          "name": "_defaultingParty",
          "type": "address"
        }
      ],
      "name": "defaultContract",
      "outputs": [
        {
          "internalType": "bool",
          "name": "defaulted_",
          "type": "bool"
        }
      ],
      "stateMutability": "nonpayable",
      "type": "function"
    },
    {
      "inputs": [
        {
          "internalType": "address",
          "name": "senderWalletAddress",
          "type": "address"
        },
        {
          "internalType": "address",
          "name": "recipientWalletAddress",
          "type": "address"
        },
        {
          "internalType": "uint256",
          "name": "amount",
          "type": "uint256"
        },
        {
          "internalType": "address",
          "name": "_collateralTokenAddress",
          "type": "address"
        }
      ],
      "name": "transferCollateralFrom",
      "outputs": [
        {
          "internalType": "bool",
          "name": "transfered_",
          "type": "bool"
        }
      ],
      "stateMutability": "nonpayable",
      "type": "function"
    },
    {
      "inputs": [
        {
          "internalType": "string",
          "name": "_name",
          "type": "string"
        }
      ],
      "name": "createLongCollateralWallet",
      "outputs": [
        {
          "internalType": "address",
          "name": "walletAddress_",
          "type": "address"
        }
      ],
      "stateMutability": "nonpayable",
      "type": "function"
    },
    {
      "inputs": [
        {
          "internalType": "string",
          "name": "_name",
          "type": "string"
        }
      ],
      "name": "createShortCollateralWallet",
      "outputs": [
        {
          "internalType": "address",
          "name": "walletAddress_",
          "type": "address"
        }
      ],
      "stateMutability": "nonpayable",
      "type": "function"
    },
    {
      "inputs": [],
      "name": "getContractState",
      "outputs": [
        {
          "internalType": "string",
          "name": "",
          "type": "string"
        }
      ],
      "stateMutability": "view",
      "type": "function",
      "constant": true
    },
    {
      "inputs": [],
      "name": "getName",
      "outputs": [
        {
          "internalType": "string",
          "name": "",
          "type": "string"
        }
      ],
      "stateMutability": "view",
      "type": "function",
      "constant": true
    },
    {
      "inputs": [],
      "name": "getSymbol",
      "outputs": [
        {
          "internalType": "string",
          "name": "",
          "type": "string"
        }
      ],
      "stateMutability": "view",
      "type": "function",
      "constant": true
    },
    {
      "inputs": [],
      "name": "getSizeOfContract",
      "outputs": [
        {
          "internalType": "uint256",
          "name": "",
          "type": "uint256"
        }
      ],
      "stateMutability": "view",
      "type": "function",
      "constant": true
    },
    {
      "inputs": [],
      "name": "getDecimals",
      "outputs": [
        {
          "internalType": "uint256",
          "name": "",
          "type": "uint256"
        }
      ],
      "stateMutability": "view",
      "type": "function",
      "constant": true
    },
    {
      "inputs": [],
      "name": "getLong",
      "outputs": [
        {
          "internalType": "address",
          "name": "",
          "type": "address"
        }
      ],
      "stateMutability": "view",
      "type": "function",
      "constant": true
    },
    {
      "inputs": [],
      "name": "getShort",
      "outputs": [
        {
          "internalType": "address",
          "name": "",
          "type": "address"
        }
      ],
      "stateMutability": "view",
      "type": "function",
      "constant": true
    },
    {
      "inputs": [],
      "name": "getInitialForwardPrice",
      "outputs": [
        {
          "internalType": "uint256",
          "name": "",
          "type": "uint256"
        }
      ],
      "stateMutability": "view",
      "type": "function",
      "constant": true
    },
    {
      "inputs": [],
      "name": "getRiskFreeRate",
      "outputs": [
        {
          "internalType": "uint256",
          "name": "",
          "type": "uint256"
        }
      ],
      "stateMutability": "view",
      "type": "function",
      "constant": true
    },
    {
      "inputs": [],
      "name": "getExpirationDate",
      "outputs": [
        {
          "internalType": "uint256",
          "name": "",
          "type": "uint256"
        }
      ],
      "stateMutability": "view",
      "type": "function",
      "constant": true
    },
    {
      "inputs": [],
      "name": "getLongWalletAddress",
      "outputs": [
        {
          "internalType": "address",
          "name": "",
          "type": "address"
        }
      ],
      "stateMutability": "view",
      "type": "function",
      "constant": true
    },
    {
      "inputs": [],
      "name": "getShortWalletAddress",
      "outputs": [
        {
          "internalType": "address",
          "name": "",
          "type": "address"
        }
      ],
      "stateMutability": "view",
      "type": "function",
      "constant": true
    }
  ],
  "bytecode": "0x60806040523480156200001157600080fd5b50604051620040ed380380620040ed833981810160405281019062000037919062000243565b85600090805190602001906200004f929190620000fe565b50846001908051906020019062000068929190620000fe565b50836002819055508260048190555081600d8190555080600e819055506000600360006101000a81548160ff02191690836003811115620000ae57620000ad62000466565b5b02179055507f275e369c22b3f807eb259780addd621efdf4f93959ac951b5fd70aad911341b0600254600454604051620000ea9291906200032e565b60405180910390a150505050505062000532565b8280546200010c90620003fa565b90600052602060002090601f0160209004810192826200013057600085556200017c565b82601f106200014b57805160ff19168380011785556200017c565b828001600101855582156200017c579182015b828111156200017b5782518255916020019190600101906200015e565b5b5090506200018b91906200018f565b5090565b5b80821115620001aa57600081600090555060010162000190565b5090565b6000620001c5620001bf8462000384565b6200035b565b905082815260208101848484011115620001e457620001e3620004f8565b5b620001f1848285620003c4565b509392505050565b600082601f830112620002115762000210620004f3565b5b815162000223848260208601620001ae565b91505092915050565b6000815190506200023d8162000518565b92915050565b60008060008060008060c0878903121562000263576200026262000502565b5b600087015167ffffffffffffffff811115620002845762000283620004fd565b5b6200029289828a01620001f9565b965050602087015167ffffffffffffffff811115620002b657620002b5620004fd565b5b620002c489828a01620001f9565b9550506040620002d789828a016200022c565b9450506060620002ea89828a016200022c565b9350506080620002fd89828a016200022c565b92505060a06200031089828a016200022c565b9150509295509295509295565b6200032881620003ba565b82525050565b60006040820190506200034560008301856200031d565b6200035460208301846200031d565b9392505050565b6000620003676200037a565b905062000375828262000430565b919050565b6000604051905090565b600067ffffffffffffffff821115620003a257620003a1620004c4565b5b620003ad8262000507565b9050602081019050919050565b6000819050919050565b60005b83811015620003e4578082015181840152602081019050620003c7565b83811115620003f4576000848401525b50505050565b600060028204905060018216806200041357607f821691505b602082108114156200042a576200042962000495565b5b50919050565b6200043b8262000507565b810181811067ffffffffffffffff821117156200045d576200045c620004c4565b5b80604052505050565b7f4e487b7100000000000000000000000000000000000000000000000000000000600052602160045260246000fd5b7f4e487b7100000000000000000000000000000000000000000000000000000000600052602260045260246000fd5b7f4e487b7100000000000000000000000000000000000000000000000000000000600052604160045260246000fd5b600080fd5b600080fd5b600080fd5b600080fd5b6000601f19601f8301169050919050565b6200052381620003ba565b81146200052f57600080fd5b50565b613bab80620005426000396000f3fe60806040523480156200001157600080fd5b50600436106200016c5760003560e01c806385209ee011620000d5578063a98680581162000087578063a986805814620003ef578063b07976de1462000411578063b317f5ec1462000447578063c82ee7ab1462000469578063e5bee6de146200048b578063f0141d8414620004c1576200016c565b806385209ee0146200030f5780638543549114620003315780638c349eca14620003535780638d2d8c5e14620003755780638f896f501462000397578063923123b314620003cd576200016c565b806347d3fa6d116200012f57806347d3fa6d14620002435780635edf7d8b1462000265578063708febc8146200028757806370a4cd3414620002a957806378f8f7d414620002cb5780637f4e484914620002ed576200016c565b80630a250623146200017157806315070401146200019357806317d7de7c14620001b55780633016b0ee14620001d75780633448f659146200020d575b600080fd5b6200017b620004e3565b6040516200018a91906200200e565b60405180910390f35b6200019d62000509565b604051620001ac919062002048565b60405180910390f35b620001bf620005a3565b604051620001ce919062002048565b60405180910390f35b620001f56004803603810190620001ef919062001b3a565b6200063d565b60405162000204919062001ff1565b60405180910390f35b6200022b600480360381019062000225919062001a96565b62000b57565b6040516200023a919062001ff1565b60405180910390f35b6200024d62000c9c565b6040516200025c919062001f1d565b60405180910390f35b6200026f62000cc6565b6040516200027e919062002204565b60405180910390f35b6200029162000cd0565b604051620002a0919062001f1d565b60405180910390f35b620002b362000cfa565b604051620002c2919062001ff1565b60405180910390f35b620002d562000ec9565b604051620002e4919062001ff1565b60405180910390f35b620002f7620011a9565b60405162000306919062002048565b60405180910390f35b62000319620013ea565b6040516200032891906200202b565b60405180910390f35b6200033b620013fd565b6040516200034a919062002204565b60405180910390f35b6200035d62001407565b6040516200036c91906200200e565b60405180910390f35b6200037f6200142d565b6040516200038e919062002204565b60405180910390f35b620003b56004803603810190620003af919062001ac8565b62001437565b604051620003c4919062001ff1565b60405180910390f35b620003d7620017c6565b604051620003e6919062002204565b60405180910390f35b620003f9620017d0565b60405162000408919062002204565b60405180910390f35b6200042f600480360381019062000429919062001c1f565b620017e0565b6040516200043e919062001f1d565b60405180910390f35b6200045162001885565b60405162000460919062001f1d565b60405180910390f35b62000473620018af565b60405162000482919062001f1d565b60405180910390f35b620004a96004803603810190620004a3919062001c1f565b620018d9565b604051620004b8919062001f1d565b60405180910390f35b620004cb6200197e565b604051620004da919062002204565b60405180910390f35b601460009054906101000a900473ffffffffffffffffffffffffffffffffffffffff1681565b6060600180546200051a9062002681565b80601f0160208091040260200160405190810160405280929190818152602001828054620005489062002681565b8015620005995780601f106200056d5761010080835404028352916020019162000599565b820191906000526020600020905b8154815290600101906020018083116200057b57829003601f168201915b5050505050905090565b606060008054620005b49062002681565b80601f0160208091040260200160405190810160405280929190818152602001828054620005e29062002681565b8015620006335780601f10620006075761010080835404028352916020019162000633565b820191906000526020600020905b8154815290600101906020018083116200061557829003601f168201915b5050505050905090565b60008073ffffffffffffffffffffffffffffffffffffffff168873ffffffffffffffffffffffffffffffffffffffff161415620006b1576040517f08c379a0000000000000000000000000000000000000000000000000000000008152600401620006a890620020d2565b60405180910390fd5b600073ffffffffffffffffffffffffffffffffffffffff168773ffffffffffffffffffffffffffffffffffffffff16141562000724576040517f08c379a00000000000000000000000000000000000000000000000000000000081526004016200071b906200208e565b60405180910390fd5b8673ffffffffffffffffffffffffffffffffffffffff168873ffffffffffffffffffffffffffffffffffffffff16141562000796576040517f08c379a00000000000000000000000000000000000000000000000000000000081526004016200078d906200206c565b60405180910390fd5b600073ffffffffffffffffffffffffffffffffffffffff168373ffffffffffffffffffffffffffffffffffffffff16141562000809576040517f08c379a0000000000000000000000000000000000000000000000000000000008152600401620008009062002138565b60405180910390fd5b600073ffffffffffffffffffffffffffffffffffffffff168273ffffffffffffffffffffffffffffffffffffffff1614156200087c576040517f08c379a000000000000000000000000000000000000000000000000000000000815260040162000873906200219e565b60405180910390fd5b8173ffffffffffffffffffffffffffffffffffffffff168373ffffffffffffffffffffffffffffffffffffffff161415620008ee576040517f08c379a0000000000000000000000000000000000000000000000000000000008152600401620008e590620021e2565b60405180910390fd5b6000620008fc428662001988565b116200093f576040517f08c379a00000000000000000000000000000000000000000000000000000000081526004016200093690620020f4565b60405180910390fd5b87600560006101000a81548173ffffffffffffffffffffffffffffffffffffffff021916908373ffffffffffffffffffffffffffffffffffffffff16021790555086600660006101000a81548173ffffffffffffffffffffffffffffffffffffffff021916908373ffffffffffffffffffffffffffffffffffffffff16021790555085600781905550600754600f81905550846008819055508360098190555082600a60006101000a81548173ffffffffffffffffffffffffffffffffffffffff021916908373ffffffffffffffffffffffffffffffffffffffff16021790555081600b60006101000a81548173ffffffffffffffffffffffffffffffffffffffff021916908373ffffffffffffffffffffffffffffffffffffffff1602179055506001600360006101000a81548160ff0219169083600381111562000a8a5762000a896200271c565b5b0217905550600660009054906101000a900473ffffffffffffffffffffffffffffffffffffffff1673ffffffffffffffffffffffffffffffffffffffff16600560009054906101000a900473ffffffffffffffffffffffffffffffffffffffff1673ffffffffffffffffffffffffffffffffffffffff167ff5079792a528b8ada56b0402e93728dfa7bbb572e80d9634ab7b590bc3c6e10a60075460085460095460045460405162000b4094939291906200229b565b60405180910390a360019050979650505050505050565b60006001600381111562000b705762000b6f6200271c565b5b600360009054906101000a900460ff16600381111562000b955762000b946200271c565b5b1462000bd8576040517f08c379a000000000000000000000000000000000000000000000000000000000815260040162000bcf90620020b0565b60405180910390fd5b600062000be84260095462001988565b1162000c2b576040517f08c379a000000000000000000000000000000000000000000000000000000000815260040162000c229062002116565b60405180910390fd5b60038060006101000a81548160ff0219169083600381111562000c535762000c526200271c565b5b02179055507f724b99e866949401e1553ae6e0da07c7e24b0308581155730cbe34363752bd3f428360405162000c8b92919062002221565b60405180910390a160019050919050565b6000600560009054906101000a900473ffffffffffffffffffffffffffffffffffffffff16905090565b6000600954905090565b6000600b60009054906101000a900473ffffffffffffffffffffffffffffffffffffffff16905090565b60008062000d0b6009544262001988565b101562000d4f576040517f08c379a000000000000000000000000000000000000000000000000000000000815260040162000d4690620021c0565b60405180910390fd5b6001600381111562000d665762000d656200271c565b5b600360009054906101000a900460ff16600381111562000d8b5762000d8a6200271c565b5b1462000dce576040517f08c379a000000000000000000000000000000000000000000000000000000000815260040162000dc590620020b0565b60405180910390fd5b600060045460075462000de29190620024e7565b90506000600454600f5462000df89190620024e7565b90506000828262000e0a919062002548565b90506002600360006101000a81548160ff0219169083600381111562000e355762000e346200271c565b5b02179055507f408d2f82a05767182d614a96957816d6acbd66a392006f7aafee6d91fc880f90600560009054906101000a900473ffffffffffffffffffffffffffffffffffffffff16600660009054906101000a900473ffffffffffffffffffffffffffffffffffffffff166009548460405162000eb7949392919062001fa4565b60405180910390a16001935050505090565b60006001600381111562000ee25762000ee16200271c565b5b600360009054906101000a900460ff16600381111562000f075762000f066200271c565b5b1462000f4a576040517f08c379a000000000000000000000000000000000000000000000000000000000815260040162000f4190620020b0565b60405180910390fd5b600062000f5a4260095462001988565b1162000f9d576040517f08c379a000000000000000000000000000000000000000000000000000000000815260040162000f94906200217c565b60405180910390fd5b600062000fa9620017d0565b905060006004548262000fbd9190620024e7565b90506000600454600f5462000fd39190620024e7565b90506000818362000fe5919062002548565b90506000811315620010675762001065600b60009054906101000a900473ffffffffffffffffffffffffffffffffffffffff16600a60009054906101000a900473ffffffffffffffffffffffffffffffffffffffff1683600c60009054906101000a900473ffffffffffffffffffffffffffffffffffffffff1662001437565b505b6000811215620011145762001112600a60009054906101000a900473ffffffffffffffffffffffffffffffffffffffff16600b60009054906101000a900473ffffffffffffffffffffffffffffffffffffffff16837fffffffffffffffffffffffffffffffffffffffffffffffffffffffffffffffff620010e99190620023c0565b600c60009054906101000a900473ffffffffffffffffffffffffffffffffffffffff1662001437565b505b83600f819055507f63f10cc602ea66cf5c2a09a756a193c86ab46c33a794eb8d9aee6cf9426553a84282600560009054906101000a900473ffffffffffffffffffffffffffffffffffffffff16600660009054906101000a900473ffffffffffffffffffffffffffffffffffffffff166040516200119694939291906200224e565b60405180910390a1600194505050505090565b606060006003811115620011c257620011c16200271c565b5b600360009054906101000a900460ff166003811115620011e757620011e66200271c565b5b14156200122c576040518060400160405280600781526020017f43726561746564000000000000000000000000000000000000000000000000008152509050620013e7565b600160038111156200124357620012426200271c565b5b600360009054906101000a900460ff1660038111156200126857620012676200271c565b5b1415620012ad576040518060400160405280600981526020017f496e6974696174656400000000000000000000000000000000000000000000008152509050620013e7565b60026003811115620012c457620012c36200271c565b5b600360009054906101000a900460ff166003811115620012e957620012e86200271c565b5b14156200132e576040518060400160405280600781526020017f536574746c6564000000000000000000000000000000000000000000000000008152509050620013e7565b6003808111156200134457620013436200271c565b5b600360009054906101000a900460ff1660038111156200136957620013686200271c565b5b1415620013ae576040518060400160405280600981526020017f44656661756c74656400000000000000000000000000000000000000000000008152509050620013e7565b6040518060400160405280600b81526020017f7374617465206572726f7200000000000000000000000000000000000000000081525090505b90565b600360009054906101000a900460ff1681565b6000600854905090565b601560009054906101000a900473ffffffffffffffffffffffffffffffffffffffff1681565b6000600754905090565b600080859050600085905060008273ffffffffffffffffffffffffffffffffffffffff16632a1e15e730876040518363ffffffff1660e01b81526004016200148192919062001f3a565b60206040518083038186803b1580156200149a57600080fd5b505afa158015620014af573d6000803e3d6000fd5b505050506040513d601f19601f82011682018060405250810190620014d5919062001c70565b9050858110156200151d576040517f08c379a000000000000000000000000000000000000000000000000000000000815260040162001514906200215a565b60405180910390fd5b8273ffffffffffffffffffffffffffffffffffffffff166322604de28630896040518463ffffffff1660e01b81526004016200155c9392919062001f67565b600060405180830381600087803b1580156200157757600080fd5b505af11580156200158c573d6000803e3d6000fd5b505050508473ffffffffffffffffffffffffffffffffffffffff166323b872dd8989896040518463ffffffff1660e01b8152600401620015cf9392919062001f67565b602060405180830381600087803b158015620015ea57600080fd5b505af1158015620015ff573d6000803e3d6000fd5b505050506040513d601f19601f8201168201806040525081019062001625919062001bed565b50600086820390508373ffffffffffffffffffffffffffffffffffffffff1663dfeff6613088846040518463ffffffff1660e01b81526004016200166c9392919062001f67565b600060405180830381600087803b1580156200168757600080fd5b505af11580156200169c573d6000803e3d6000fd5b50505050506000868373ffffffffffffffffffffffffffffffffffffffff16632a1e15e730896040518363ffffffff1660e01b8152600401620016e192919062001f3a565b60206040518083038186803b158015620016fa57600080fd5b505afa1580156200170f573d6000803e3d6000fd5b505050506040513d601f19601f8201168201806040525081019062001735919062001c70565b62001741919062002363565b90508273ffffffffffffffffffffffffffffffffffffffff1663dfeff6613088846040518463ffffffff1660e01b8152600401620017829392919062001f67565b600060405180830381600087803b1580156200179d57600080fd5b505af1158015620017b2573d6000803e3d6000fd5b505050506001945050505050949350505050565b6000600454905090565b60004260108190555060f3905090565b600081604051620017f190620019ae565b620017fd919062002048565b604051809103906000f0801580156200181a573d6000803e3d6000fd5b50601460006101000a81548173ffffffffffffffffffffffffffffffffffffffff021916908373ffffffffffffffffffffffffffffffffffffffff160217905550601460009054906101000a900473ffffffffffffffffffffffffffffffffffffffff169050919050565b6000600660009054906101000a900473ffffffffffffffffffffffffffffffffffffffff16905090565b6000600a60009054906101000a900473ffffffffffffffffffffffffffffffffffffffff16905090565b600081604051620018ea90620019ae565b620018f6919062002048565b604051809103906000f08015801562001913573d6000803e3d6000fd5b50601560006101000a81548173ffffffffffffffffffffffffffffffffffffffff021916908373ffffffffffffffffffffffffffffffffffffffff160217905550601560009054906101000a900473ffffffffffffffffffffffffffffffffffffffff169050919050565b6000600254905090565b6000818311156200199857600080fd5b8282620019a6919062002548565b905092915050565b610fda8062002b9c83390190565b6000620019d3620019cd8462002311565b620022e8565b905082815260208101848484011115620019f257620019f1620027ae565b5b620019ff8482856200263c565b509392505050565b60008135905062001a188162002b4d565b92915050565b60008151905062001a2f8162002b67565b92915050565b600082601f83011262001a4d5762001a4c620027a9565b5b813562001a5f848260208601620019bc565b91505092915050565b60008135905062001a798162002b81565b92915050565b60008151905062001a908162002b81565b92915050565b60006020828403121562001aaf5762001aae620027b8565b5b600062001abf8482850162001a07565b91505092915050565b6000806000806080858703121562001ae55762001ae4620027b8565b5b600062001af58782880162001a07565b945050602062001b088782880162001a07565b935050604062001b1b8782880162001a68565b925050606062001b2e8782880162001a07565b91505092959194509250565b600080600080600080600060e0888a03121562001b5c5762001b5b620027b8565b5b600062001b6c8a828b0162001a07565b975050602062001b7f8a828b0162001a07565b965050604062001b928a828b0162001a68565b955050606062001ba58a828b0162001a68565b945050608062001bb88a828b0162001a68565b93505060a062001bcb8a828b0162001a07565b92505060c062001bde8a828b0162001a07565b91505092959891949750929550565b60006020828403121562001c065762001c05620027b8565b5b600062001c168482850162001a1e565b91505092915050565b60006020828403121562001c385762001c37620027b8565b5b600082013567ffffffffffffffff81111562001c595762001c58620027b3565b5b62001c678482850162001a35565b91505092915050565b60006020828403121562001c895762001c88620027b8565b5b600062001c998482850162001a7f565b91505092915050565b62001cad8162002583565b82525050565b62001cbe8162002597565b82525050565b62001ccf81620025ec565b82525050565b62001ce08162002600565b82525050565b62001cf181620025b8565b82525050565b600062001d048262002347565b62001d10818562002352565b935062001d228185602086016200264b565b62001d2d81620027bd565b840191505092915050565b600062001d4760228362002352565b915062001d5482620027ce565b604082019050919050565b600062001d6e601b8362002352565b915062001d7b826200281d565b602082019050919050565b600062001d9560258362002352565b915062001da28262002846565b604082019050919050565b600062001dbc601a8362002352565b915062001dc98262002895565b602082019050919050565b600062001de360288362002352565b915062001df082620028be565b604082019050919050565b600062001e0a602c8362002352565b915062001e17826200290d565b604082019050919050565b600062001e3160248362002352565b915062001e3e826200295c565b604082019050919050565b600062001e5860218362002352565b915062001e6582620029ab565b604082019050919050565b600062001e7f60288362002352565b915062001e8c82620029fa565b604082019050919050565b600062001ea660258362002352565b915062001eb38262002a49565b604082019050919050565b600062001ecd602f8362002352565b915062001eda8262002a98565b604082019050919050565b600062001ef460298362002352565b915062001f018262002ae7565b604082019050919050565b62001f1781620025e2565b82525050565b600060208201905062001f34600083018462001ca2565b92915050565b600060408201905062001f51600083018562001ca2565b62001f60602083018462001ca2565b9392505050565b600060608201905062001f7e600083018662001ca2565b62001f8d602083018562001ca2565b62001f9c604083018462001f0c565b949350505050565b600060808201905062001fbb600083018762001ca2565b62001fca602083018662001ca2565b62001fd9604083018562001f0c565b62001fe8606083018462001ce6565b95945050505050565b600060208201905062002008600083018462001cb3565b92915050565b600060208201905062002025600083018462001cc4565b92915050565b600060208201905062002042600083018462001cd5565b92915050565b6000602082019050818103600083015262002064818462001cf7565b905092915050565b60006020820190508181036000830152620020878162001d38565b9050919050565b60006020820190508181036000830152620020a98162001d5f565b9050919050565b60006020820190508181036000830152620020cb8162001d86565b9050919050565b60006020820190508181036000830152620020ed8162001dad565b9050919050565b600060208201905081810360008301526200210f8162001dd4565b9050919050565b60006020820190508181036000830152620021318162001dfb565b9050919050565b60006020820190508181036000830152620021538162001e22565b9050919050565b60006020820190508181036000830152620021758162001e49565b9050919050565b60006020820190508181036000830152620021978162001e70565b9050919050565b60006020820190508181036000830152620021b98162001e97565b9050919050565b60006020820190508181036000830152620021db8162001ebe565b9050919050565b60006020820190508181036000830152620021fd8162001ee5565b9050919050565b60006020820190506200221b600083018462001f0c565b92915050565b600060408201905062002238600083018562001f0c565b62002247602083018462001ca2565b9392505050565b600060808201905062002265600083018762001f0c565b62002274602083018662001ce6565b62002283604083018562001ca2565b62002292606083018462001ca2565b95945050505050565b6000608082019050620022b2600083018762001f0c565b620022c1602083018662001f0c565b620022d0604083018562001f0c565b620022df606083018462001f0c565b95945050505050565b6000620022f462002307565b9050620023028282620026b7565b919050565b6000604051905090565b600067ffffffffffffffff8211156200232f576200232e6200277a565b5b6200233a82620027bd565b9050602081019050919050565b600081519050919050565b600082825260208201905092915050565b60006200237082620025e2565b91506200237d83620025e2565b9250827fffffffffffffffffffffffffffffffffffffffffffffffffffffffffffffffff03821115620023b557620023b4620026ed565b5b828201905092915050565b6000620023cd82620025b8565b9150620023da83620025b8565b9250827f7fffffffffffffffffffffffffffffffffffffffffffffffffffffffffffffff04821160008413600084131616156200241c576200241b620026ed565b5b817f800000000000000000000000000000000000000000000000000000000000000005831260008412600084131616156200245c576200245b620026ed565b5b827f800000000000000000000000000000000000000000000000000000000000000005821260008413600084121616156200249c576200249b620026ed565b5b827f7fffffffffffffffffffffffffffffffffffffffffffffffffffffffffffffff0582126000841260008412161615620024dc57620024db620026ed565b5b828202905092915050565b6000620024f482620025e2565b91506200250183620025e2565b9250817fffffffffffffffffffffffffffffffffffffffffffffffffffffffffffffffff04831182151516156200253d576200253c620026ed565b5b828202905092915050565b60006200255582620025e2565b91506200256283620025e2565b925082821015620025785762002577620026ed565b5b828203905092915050565b60006200259082620025c2565b9050919050565b60008115159050919050565b6000819050620025b38262002b36565b919050565b6000819050919050565b600073ffffffffffffffffffffffffffffffffffffffff82169050919050565b6000819050919050565b6000620025f98262002614565b9050919050565b60006200260d82620025a3565b9050919050565b6000620026218262002628565b9050919050565b60006200263582620025c2565b9050919050565b82818337600083830152505050565b60005b838110156200266b5780820151818401526020810190506200264e565b838111156200267b576000848401525b50505050565b600060028204905060018216806200269a57607f821691505b60208210811415620026b157620026b06200274b565b5b50919050565b620026c282620027bd565b810181811067ffffffffffffffff82111715620026e457620026e36200277a565b5b80604052505050565b7f4e487b7100000000000000000000000000000000000000000000000000000000600052601160045260246000fd5b7f4e487b7100000000000000000000000000000000000000000000000000000000600052602160045260246000fd5b7f4e487b7100000000000000000000000000000000000000000000000000000000600052602260045260246000fd5b7f4e487b7100000000000000000000000000000000000000000000000000000000600052604160045260246000fd5b600080fd5b600080fd5b600080fd5b600080fd5b6000601f19601f8301169050919050565b7f4c6f6e6720616e642073686f72742063616e27742062652073616d652070617260008201527f7479000000000000000000000000000000000000000000000000000000000000602082015250565b7f53686f72742063616e2774206265207a65726f20616464726573730000000000600082015250565b7f436f6e74726163742068617320746f20626520696e20496e697469617465642060008201527f7374617465000000000000000000000000000000000000000000000000000000602082015250565b7f4c6f6e672063616e2774206265207a65726f2061646472657373000000000000600082015250565b7f46464120636f6e74726163742068617320746f2065787069726520696e20746860008201527f6520667574757265000000000000000000000000000000000000000000000000602082015250565b7f44656661756c74696e672063616e206f6e6c792068617070656e206265666f7260008201527f652065787069726174696f6e0000000000000000000000000000000000000000602082015250565b7f4c6f6e672077616c6c65742063616e6e6f742068617665207a65726f2061646460008201527f7265737300000000000000000000000000000000000000000000000000000000602082015250565b7f636f6c6c61746572616c2062616c616e6365206e6f742073756666696369656e60008201527f7400000000000000000000000000000000000000000000000000000000000000602082015250565b7f4d20746f206d2063616e206f6e6c792068617070656e206265666f726520657860008201527f7069726174696f6e000000000000000000000000000000000000000000000000602082015250565b7f53686f72742077616c6c65742063616e6e6f742068617665207a65726f20616460008201527f6472657373000000000000000000000000000000000000000000000000000000602082015250565b7f536574746c656d656e742063616e6e6f74206f6363757265206265666f72652060008201527f65787069726174696f6e20646174650000000000000000000000000000000000602082015250565b7f6c6f6e6720616e642073686f72742077616c6c6574732063616e6e6f7420626560008201527f207468652073616d650000000000000000000000000000000000000000000000602082015250565b6004811062002b4a5762002b496200271c565b5b50565b62002b588162002583565b811462002b6457600080fd5b50565b62002b728162002597565b811462002b7e57600080fd5b50565b62002b8c81620025e2565b811462002b9857600080fd5b5056fe60806040523480156200001157600080fd5b5060405162000fda38038062000fda83398181016040528101906200003791906200028c565b60008060006101000a81548160ff02191690831515021790555062000071620000656200009160201b60201c565b6200009960201b60201c565b8060019080519060200190620000899291906200015e565b505062000461565b600033905090565b60008060019054906101000a900473ffffffffffffffffffffffffffffffffffffffff16905081600060016101000a81548173ffffffffffffffffffffffffffffffffffffffff021916908373ffffffffffffffffffffffffffffffffffffffff1602179055508173ffffffffffffffffffffffffffffffffffffffff168173ffffffffffffffffffffffffffffffffffffffff167f8be0079c531659141344cd1fd0a4f28419497f9722a3daafe3b4186f6b6457e060405160405180910390a35050565b8280546200016c9062000372565b90600052602060002090601f016020900481019282620001905760008555620001dc565b82601f10620001ab57805160ff1916838001178555620001dc565b82800160010185558215620001dc579182015b82811115620001db578251825591602001919060010190620001be565b5b509050620001eb9190620001ef565b5090565b5b808211156200020a576000816000905550600101620001f0565b5090565b6000620002256200021f8462000306565b620002dd565b90508281526020810184848401111562000244576200024362000441565b5b620002518482856200033c565b509392505050565b600082601f8301126200027157620002706200043c565b5b8151620002838482602086016200020e565b91505092915050565b600060208284031215620002a557620002a46200044b565b5b600082015167ffffffffffffffff811115620002c657620002c562000446565b5b620002d48482850162000259565b91505092915050565b6000620002e9620002fc565b9050620002f78282620003a8565b919050565b6000604051905090565b600067ffffffffffffffff8211156200032457620003236200040d565b5b6200032f8262000450565b9050602081019050919050565b60005b838110156200035c5780820151818401526020810190506200033f565b838111156200036c576000848401525b50505050565b600060028204905060018216806200038b57607f821691505b60208210811415620003a257620003a1620003de565b5b50919050565b620003b38262000450565b810181811067ffffffffffffffff82111715620003d557620003d46200040d565b5b80604052505050565b7f4e487b7100000000000000000000000000000000000000000000000000000000600052602260045260246000fd5b7f4e487b7100000000000000000000000000000000000000000000000000000000600052604160045260246000fd5b600080fd5b600080fd5b600080fd5b600080fd5b6000601f19601f8301169050919050565b610b6980620004716000396000f3fe608060405234801561001057600080fd5b50600436106100885760003560e01c8063715018a61161005b578063715018a6146101155780638da5cb5b1461011f578063dfeff6611461013d578063f2fde38b1461015957610088565b806317d7de7c1461008d57806322604de2146100ab5780632a1e15e7146100c75780635c975abb146100f7575b600080fd5b610095610175565b6040516100a291906108eb565b60405180910390f35b6100c560048036038101906100c09190610760565b610207565b005b6100e160048036038101906100dc9190610720565b61029a565b6040516100ee919061094d565b60405180910390f35b6100ff610321565b60405161010c91906108d0565b60405180910390f35b61011d610337565b005b6101276103bf565b604051610134919061088c565b60405180910390f35b61015760048036038101906101529190610760565b6103e8565b005b610173600480360381019061016e91906106f3565b6104ef565b005b606060018054610184906109ff565b80601f01602080910402602001604051908101604052809291908181526020018280546101b0906109ff565b80156101fd5780601f106101d2576101008083540402835291602001916101fd565b820191906000526020600020905b8154815290600101906020018083116101e057829003601f168201915b5050505050905090565b8273ffffffffffffffffffffffffffffffffffffffff1663095ea7b383836040518363ffffffff1660e01b81526004016102429291906108a7565b602060405180830381600087803b15801561025c57600080fd5b505af1158015610270573d6000803e3d6000fd5b505050506040513d601f19601f8201168201806040525081019061029491906107b3565b50505050565b6000600260008473ffffffffffffffffffffffffffffffffffffffff1673ffffffffffffffffffffffffffffffffffffffff16815260200190815260200160002060008373ffffffffffffffffffffffffffffffffffffffff1673ffffffffffffffffffffffffffffffffffffffff16815260200190815260200160002054905092915050565b60008060009054906101000a900460ff16905090565b61033f6105e7565b73ffffffffffffffffffffffffffffffffffffffff1661035d6103bf565b73ffffffffffffffffffffffffffffffffffffffff16146103b3576040517f08c379a00000000000000000000000000000000000000000000000000000000081526004016103aa9061092d565b60405180910390fd5b6103bd60006105ef565b565b60008060019054906101000a900473ffffffffffffffffffffffffffffffffffffffff16905090565b80600260008573ffffffffffffffffffffffffffffffffffffffff1673ffffffffffffffffffffffffffffffffffffffff16815260200190815260200160002060008473ffffffffffffffffffffffffffffffffffffffff1673ffffffffffffffffffffffffffffffffffffffff1681526020019081526020016000208190555080600360008473ffffffffffffffffffffffffffffffffffffffff1673ffffffffffffffffffffffffffffffffffffffff16815260200190815260200160002060008573ffffffffffffffffffffffffffffffffffffffff1673ffffffffffffffffffffffffffffffffffffffff16815260200190815260200160002081905550505050565b6104f76105e7565b73ffffffffffffffffffffffffffffffffffffffff166105156103bf565b73ffffffffffffffffffffffffffffffffffffffff161461056b576040517f08c379a00000000000000000000000000000000000000000000000000000000081526004016105629061092d565b60405180910390fd5b600073ffffffffffffffffffffffffffffffffffffffff168173ffffffffffffffffffffffffffffffffffffffff1614156105db576040517f08c379a00000000000000000000000000000000000000000000000000000000081526004016105d29061090d565b60405180910390fd5b6105e4816105ef565b50565b600033905090565b60008060019054906101000a900473ffffffffffffffffffffffffffffffffffffffff16905081600060016101000a81548173ffffffffffffffffffffffffffffffffffffffff021916908373ffffffffffffffffffffffffffffffffffffffff1602179055508173ffffffffffffffffffffffffffffffffffffffff168173ffffffffffffffffffffffffffffffffffffffff167f8be0079c531659141344cd1fd0a4f28419497f9722a3daafe3b4186f6b6457e060405160405180910390a35050565b6000813590506106c381610aee565b92915050565b6000815190506106d881610b05565b92915050565b6000813590506106ed81610b1c565b92915050565b60006020828403121561070957610708610a60565b5b6000610717848285016106b4565b91505092915050565b6000806040838503121561073757610736610a60565b5b6000610745858286016106b4565b9250506020610756858286016106b4565b9150509250929050565b60008060006060848603121561077957610778610a60565b5b6000610787868287016106b4565b9350506020610798868287016106b4565b92505060406107a9868287016106de565b9150509250925092565b6000602082840312156107c9576107c8610a60565b5b60006107d7848285016106c9565b91505092915050565b6107e981610984565b82525050565b6107f881610996565b82525050565b600061080982610968565b6108138185610973565b93506108238185602086016109cc565b61082c81610a65565b840191505092915050565b6000610844602683610973565b915061084f82610a76565b604082019050919050565b6000610867602083610973565b915061087282610ac5565b602082019050919050565b610886816109c2565b82525050565b60006020820190506108a160008301846107e0565b92915050565b60006040820190506108bc60008301856107e0565b6108c9602083018461087d565b9392505050565b60006020820190506108e560008301846107ef565b92915050565b6000602082019050818103600083015261090581846107fe565b905092915050565b6000602082019050818103600083015261092681610837565b9050919050565b600060208201905081810360008301526109468161085a565b9050919050565b6000602082019050610962600083018461087d565b92915050565b600081519050919050565b600082825260208201905092915050565b600061098f826109a2565b9050919050565b60008115159050919050565b600073ffffffffffffffffffffffffffffffffffffffff82169050919050565b6000819050919050565b60005b838110156109ea5780820151818401526020810190506109cf565b838111156109f9576000848401525b50505050565b60006002820490506001821680610a1757607f821691505b60208210811415610a2b57610a2a610a31565b5b50919050565b7f4e487b7100000000000000000000000000000000000000000000000000000000600052602260045260246000fd5b600080fd5b6000601f19601f8301169050919050565b7f4f776e61626c653a206e6577206f776e657220697320746865207a65726f206160008201527f6464726573730000000000000000000000000000000000000000000000000000602082015250565b7f4f776e61626c653a2063616c6c6572206973206e6f7420746865206f776e6572600082015250565b610af781610984565b8114610b0257600080fd5b50565b610b0e81610996565b8114610b1957600080fd5b50565b610b25816109c2565b8114610b3057600080fd5b5056fea2646970667358221220a295b75ce6233267850d817554c57694abbe127f925edf2a41d2f2ec9125220464736f6c63430008070033a26469706673582212204b5db735d335296131096e71885f4ef3de084ac65a984c6c3ec43743030363d164736f6c63430008070033",
  "immutableReferences": {},
  "source": "// SPDX-License-Identifier: UNLICENSED\r\n\r\npragma solidity ^0.8.6;\r\n\r\nimport \"../utils/BokkyPooBahsDateTimeLibrary.sol\";\r\nimport \"@openzeppelin/contracts/access/Ownable.sol\";\r\nimport \"@openzeppelin/contracts/token/ERC20/IERC20.sol\";\r\nimport \"@openzeppelin/contracts/token/ERC20/utils/SafeERC20.sol\";\r\nimport \"@openzeppelin/contracts/utils/math/SafeMath.sol\";\r\n\r\nimport \"../interfaces/IFFAContract.sol\";\r\nimport \"./ChainlinkOracle.sol\";\r\nimport \"./CollateralWallet.sol\";\r\n\r\ncontract FFAContract is IFFAContract{\r\n        using SafeERC20 for IERC20;\r\n\r\n        //state of contract\r\n        enum ContractState {Created, Initiated, Settled, Defaulted}\r\n\r\n        //contract detail\r\n        string private name;\r\n        string private symbol;\r\n        uint private decimals;\r\n        ContractState public contractState;\r\n        uint256 private sizeOfContract;\r\n        address private long;\r\n        address private short;\r\n        uint256 private initialForwardPrice;\r\n        uint private riskFreeRate;\r\n        uint256 private expirationDate;\r\n\r\n        //collateral wallets\r\n        address private longWallet;\r\n        address private shortWallet;\r\n        address private collateralTokenAddress;\r\n\r\n\r\n        //margin requirements\r\n        //MM(8%) + EM (2%) = IM (10%)\r\n        uint private exposureMarginRate;\r\n        uint private maintenanceMarginRate;\r\n\r\n        //M2M\r\n        uint256 private prevDayClosingPrice;\r\n\r\n        //valuation\r\n        uint256 private pricingDate;\r\n\r\n        //underlying index price oracle\r\n        /* Sometimes oracles and jobs start and stop working so\r\n         * we need to be able to set oracle address and job\r\n         */\r\n        address private oracleAddress;\r\n        bytes32 private jobId;\r\n        ChainlinkOracle internal valuationOracle;\r\n\r\n        constructor(\r\n            string memory _name, \r\n            string memory _symbol, \r\n            //address _oracleAddress,\r\n            //bytes32 _jobId, \r\n            uint _decimals,\r\n            uint256 _sizeOfContract,\r\n            //address _collateralTokenAddress,\r\n            uint _exposureMarginRate,\r\n            uint _maintenanceMarginRate\r\n        ) {\r\n            name = _name;\r\n            symbol = _symbol;\r\n            //oracleAddress = _oracleAddress;\r\n            //jobId = _jobId;\r\n            decimals = _decimals;\r\n            sizeOfContract = _sizeOfContract;\r\n            //collateralTokenAddress = _collateralTokenAddress;\r\n            //valuationOracle = new ChainlinkOracle(oracleAddress, jobId);//not sure\r\n            exposureMarginRate = _exposureMarginRate;\r\n            maintenanceMarginRate = _maintenanceMarginRate;\r\n            contractState = ContractState.Created;\r\n            emit CreatedContract(decimals, sizeOfContract);\r\n        }\r\n\r\n        //initiateFFA: initiates futures contract with given parameters\r\n        function initiateFFA(address _long, address _short, uint256 _initialForwardPrice, \r\n                             uint _riskFreeRate, uint256 _expirationDate,\r\n                             address _longWallet, address _shortWallet) \r\n                             external override returns (bool initiated_) {\r\n            require(_long != address(0), \"Long can't be zero address\");\r\n            require(_short != address(0), \"Short can't be zero address\");\r\n            require(_long != _short, \"Long and short can't be same party\");\r\n            require(_longWallet != address(0), \"Long wallet cannot have zero address\");\r\n            require(_shortWallet != address(0), \"Short wallet cannot have zero address\");\r\n            require(_longWallet != _shortWallet, \"long and short wallets cannot be the same\");\r\n            require(BokkyPooBahsDateTimeLibrary.diffSeconds(block.timestamp, _expirationDate) > 0, \"FFA contract has to expire in the future\");\r\n            long = _long;\r\n            short = _short;\r\n            //call valuation API to get initialForwardPrice!!!!!!!!!!!!!11\r\n            initialForwardPrice = _initialForwardPrice;\r\n            prevDayClosingPrice = initialForwardPrice;\r\n            riskFreeRate = _riskFreeRate;\r\n            expirationDate = _expirationDate;\r\n            longWallet = _longWallet;\r\n            shortWallet = _shortWallet;\r\n            contractState = ContractState.Initiated;\r\n            //Do i need to deal with allowance?\r\n            emit Initiated(long, short, initialForwardPrice, riskFreeRate, expirationDate, sizeOfContract);\r\n            initiated_ = true;\r\n        }\r\n\r\n        //calculate value of contract\r\n        /*\r\n        function calcFFAValue() external override returns (uint256 value_) {\r\n            pricingDate = block.timestamp;\r\n            //use valuation oracle here\r\n            \r\n            value_ = 0;\r\n        }*/\r\n\r\n        //calculate forward price\r\n        function calcForwardPrice() public returns (uint256 price_) {\r\n            pricingDate = block.timestamp;\r\n\r\n            //call valuation oracle here\r\n            price_ = 243;\r\n        }\r\n\r\n        /*\r\n            * Initial Margin = Maintenance Margin + Exposure Margin\r\n            * A margin call is issued when a party's cash balance drops below the maintenance margin.\r\n            * A party will be allowed to hold their position as long as the maintenance margin is satisfied.\r\n            * M2M is calculated based on the previous day's closing price. Based on the M2M each party's\r\n            * account is credited or debited daily. \r\n            * At settlement calculate the P&L = Final Contract Value - Initial Contract Value\r\n            * https://zerodha.com/varsity/chapter/margin-m2m/\r\n        */\r\n        //mark to market\r\n        function markToMarket() external override returns (bool markedToMarket_) {\r\n            require(contractState == ContractState.Initiated, \"Contract has to be in Initiated state\");\r\n            require(BokkyPooBahsDateTimeLibrary.diffSeconds(block.timestamp, expirationDate) > 0, \"M to m can only happen before expiration\");\r\n\r\n            //valuation\r\n            uint256 currentForwardPrice = calcForwardPrice();\r\n            uint256 newContractValue = currentForwardPrice * sizeOfContract;\r\n            uint256 oldContractValue = prevDayClosingPrice * sizeOfContract;\r\n            //contract value change\r\n            int256 contractValueChange = int256(newContractValue - oldContractValue);\r\n\r\n            //delivery within collateral wallets\r\n            if (contractValueChange > 0) {\r\n                transferCollateralFrom(shortWallet, longWallet, uint256(contractValueChange), collateralTokenAddress);\r\n            }\r\n            if (contractValueChange < 0) {\r\n                transferCollateralFrom(longWallet, shortWallet, uint256(-1 * contractValueChange), collateralTokenAddress);\r\n            }\r\n\r\n            //update prevDayClosingPrice to current price\r\n            prevDayClosingPrice = currentForwardPrice;\r\n\r\n            //emit event\r\n            emit MarkedToMarket(block.timestamp, contractValueChange, long, short);\r\n            markedToMarket_ = true;\r\n        }\r\n\r\n        //settle contract \r\n        function settleAtExpiration() external override returns (bool settled_) {\r\n            require(BokkyPooBahsDateTimeLibrary.diffSeconds(expirationDate, block.timestamp) >= 0, \"Settlement cannot occure before expiration date\" );\r\n            require(contractState == ContractState.Initiated, \"Contract has to be in Initiated state\");\r\n\r\n            //calculate P&L\r\n            uint256 initialContractValue = initialForwardPrice * sizeOfContract;\r\n            uint256 finalContractValue = prevDayClosingPrice * sizeOfContract;\r\n            int256 profitAndLoss = int256(finalContractValue - initialContractValue);\r\n\r\n            //change contract state and emit event\r\n            contractState = ContractState.Settled;\r\n            emit Settled(long, short, expirationDate, profitAndLoss);\r\n            settled_ = true;\r\n        }\r\n\r\n        //default contract\r\n        function defaultContract(address _defaultingParty) public override returns (bool defaulted_) {\r\n            require(contractState == ContractState.Initiated, \"Contract has to be in Initiated state\");\r\n            require(BokkyPooBahsDateTimeLibrary.diffSeconds(block.timestamp, expirationDate) > 0, \"Defaulting can only happen before expiration\");\r\n\r\n            //change contract state and emit event\r\n            contractState = ContractState.Defaulted;\r\n            emit Defaulted(block.timestamp, _defaultingParty);\r\n            defaulted_ = true;\r\n        }\r\n\r\n        /* transferCollateralFrom: transfers given amount of given token from one collateral wallet to the other*/\r\n        function transferCollateralFrom(address senderWalletAddress, address recipientWalletAddress, uint256 amount, address _collateralTokenAddress) public returns (bool transfered_){\r\n            CollateralWallet senderWallet = CollateralWallet(senderWalletAddress);\r\n            CollateralWallet recipientWallet = CollateralWallet(recipientWalletAddress);\r\n            uint256 originalSenderMappedBalance = senderWallet.getMappedBalance(address(this), _collateralTokenAddress);\r\n            require(originalSenderMappedBalance >= amount, \"collateral balance not sufficient\");\r\n\r\n            //approval might need fixing\r\n            senderWallet.approveSpender(_collateralTokenAddress, address(this), amount);\r\n            IERC20(_collateralTokenAddress).transferFrom(senderWalletAddress, recipientWalletAddress, amount);\r\n\r\n            //deduct from sender balance mapping\r\n            unchecked {\r\n                uint256 newSenderMappedBalance = originalSenderMappedBalance - amount;\r\n                senderWallet.setNewBalance(address(this), _collateralTokenAddress, newSenderMappedBalance);\r\n            }\r\n\r\n            //add to recipient balance mapping\r\n            uint256 newRecipientMappedBalance = recipientWallet.getMappedBalance(address(this), _collateralTokenAddress) + amount;\r\n            recipientWallet.setNewBalance(address(this), _collateralTokenAddress, newRecipientMappedBalance);\r\n \r\n            transfered_ = true;\r\n        }\r\n\r\n        //these are for testing\r\n        /////////////////////////////////////\r\n\r\n        CollateralWallet public longTestWallet;\r\n        CollateralWallet public shortTestWallet;\r\n\r\n        function createLongCollateralWallet(string memory _name) external returns(address walletAddress_) {\r\n            longTestWallet = new CollateralWallet(_name);\r\n            walletAddress_ = address(longTestWallet);\r\n        }\r\n\r\n        function createShortCollateralWallet(string memory _name) external returns(address walletAddress_) {\r\n            shortTestWallet = new CollateralWallet(_name);\r\n            walletAddress_ = address(shortTestWallet);\r\n        }\r\n\r\n        //////////////////////////////////////\r\n\r\n        //receive and fallback functions\r\n        /*\r\n        receive () external payable {\r\n    \r\n        }\r\n\r\n        fallback () external payable {\r\n\r\n        }*/\r\n\r\n\r\n        //getter functions\r\n        function getContractState() external view returns(string memory) {\r\n            if (contractState == ContractState.Created) {\r\n                return \"Created\";\r\n            } else if (contractState == ContractState.Initiated) {\r\n                return \"Initiated\";\r\n            } else if (contractState == ContractState.Settled) {\r\n                return \"Settled\";\r\n            } else if (contractState == ContractState.Defaulted) {\r\n                return \"Defaulted\";\r\n            } else {\r\n                return \"state error\";\r\n            }\r\n        }\r\n\r\n        function getName() external view returns(string memory) {\r\n            return name;\r\n        }\r\n\r\n        function getSymbol() external view returns(string memory) {\r\n            return symbol;\r\n        }\r\n        \r\n        function getSizeOfContract() external view returns(uint256) {\r\n            return sizeOfContract;\r\n        }\r\n\r\n        function getDecimals() external view returns (uint) {\r\n            return decimals;\r\n        }\r\n\r\n        function getLong() external view returns (address) {\r\n            return long;\r\n        }\r\n\r\n        function getShort() external view returns (address) {\r\n            return short;\r\n        }\r\n\r\n        function getInitialForwardPrice() external view returns (uint256) {\r\n            return initialForwardPrice;\r\n        }\r\n\r\n        function getRiskFreeRate() external view returns (uint) {\r\n            return riskFreeRate;\r\n        }\r\n\r\n        function getExpirationDate() external view returns (uint256) {\r\n            return expirationDate;\r\n        }\r\n\r\n        function getLongWalletAddress() external view returns (address) {\r\n            return longWallet;\r\n        }\r\n\r\n        function getShortWalletAddress() external view returns (address) {\r\n            return shortWallet;\r\n        }\r\n\r\n\r\n\r\n\r\n}",
  "sourcePath": "C:\\Users\\Tomi\\OneDrive - The University of Chicago\\Documents\\Securrency\\FuturesExchange\\contracts\\FFAContract.sol",
  "compiler": {
    "name": "solc",
    "version": "0.8.7+commit.e28d00a7.Emscripten.clang"
  },
  "schemaVersion": "3.4.2",
  "updatedAt": "2021-08-23T08:38:46.165Z",
  "networkType": "ethereum",
  "devdoc": {
    "kind": "dev",
    "methods": {},
    "version": 1
  },
  "userdoc": {
    "kind": "user",
    "methods": {},
    "version": 1
  }
}