{
  "contractName": "FFAContract",
  "abi": [
    {
      "inputs": [
        {
          "internalType": "string",
          "name": "_name",
          "type": "string"
        },
        {
          "internalType": "string",
          "name": "_symbol",
          "type": "string"
        },
        {
          "internalType": "address",
          "name": "_oracleAddress",
          "type": "address"
        },
        {
          "internalType": "bytes32",
          "name": "_jobId",
          "type": "bytes32"
        },
        {
          "internalType": "uint8",
          "name": "_decimals",
          "type": "uint8"
        },
        {
          "internalType": "uint256",
          "name": "_sizeOfContract",
          "type": "uint256"
        }
      ],
      "stateMutability": "nonpayable",
      "type": "constructor"
    },
    {
      "anonymous": false,
      "inputs": [
        {
          "indexed": false,
          "internalType": "uint256",
          "name": "defaultDate",
          "type": "uint256"
        },
        {
          "indexed": false,
          "internalType": "address",
          "name": "defaultingParty",
          "type": "address"
        }
      ],
      "name": "Defaulted",
      "type": "event"
    },
    {
      "anonymous": false,
      "inputs": [
        {
          "indexed": true,
          "internalType": "address",
          "name": "long",
          "type": "address"
        },
        {
          "indexed": true,
          "internalType": "address",
          "name": "short",
          "type": "address"
        },
        {
          "indexed": false,
          "internalType": "uint256",
          "name": "forwardPrice",
          "type": "uint256"
        },
        {
          "indexed": false,
          "internalType": "uint8",
          "name": "riskFreeRate",
          "type": "uint8"
        },
        {
          "indexed": false,
          "internalType": "uint256",
          "name": "expirationDate",
          "type": "uint256"
        }
      ],
      "name": "Initiated",
      "type": "event"
    },
    {
      "anonymous": false,
      "inputs": [
        {
          "indexed": false,
          "internalType": "uint256",
          "name": "mtmDate",
          "type": "uint256"
        },
        {
          "indexed": false,
          "internalType": "int256",
          "name": "dailyPayoff",
          "type": "int256"
        },
        {
          "indexed": false,
          "internalType": "address",
          "name": "long",
          "type": "address"
        },
        {
          "indexed": false,
          "internalType": "address",
          "name": "short",
          "type": "address"
        }
      ],
      "name": "MarkedToMarket",
      "type": "event"
    },
    {
      "anonymous": false,
      "inputs": [
        {
          "indexed": false,
          "internalType": "address",
          "name": "long",
          "type": "address"
        },
        {
          "indexed": false,
          "internalType": "address",
          "name": "short",
          "type": "address"
        },
        {
          "indexed": false,
          "internalType": "uint256",
          "name": "expirationDate",
          "type": "uint256"
        }
      ],
      "name": "Settled",
      "type": "event"
    },
    {
      "anonymous": false,
      "inputs": [
        {
          "indexed": false,
          "internalType": "uint8",
          "name": "riskFreeRate",
          "type": "uint8"
        },
        {
          "indexed": false,
          "internalType": "int256",
          "name": "indexPrice",
          "type": "int256"
        },
        {
          "indexed": false,
          "internalType": "uint256",
          "name": "valuationDate",
          "type": "uint256"
        },
        {
          "indexed": false,
          "internalType": "int256",
          "name": "forwardValue",
          "type": "int256"
        }
      ],
      "name": "Valuated",
      "type": "event"
    },
    {
      "inputs": [],
      "name": "contractState",
      "outputs": [
        {
          "internalType": "enum FFAContract.ContractState",
          "name": "",
          "type": "uint8"
        }
      ],
      "stateMutability": "view",
      "type": "function"
    },
    {
      "inputs": [
        {
          "internalType": "address",
          "name": "_long",
          "type": "address"
        },
        {
          "internalType": "address",
          "name": "_short",
          "type": "address"
        },
        {
          "internalType": "uint256",
          "name": "_forwardPrice",
          "type": "uint256"
        },
        {
          "internalType": "uint8",
          "name": "_riskFreeRate",
          "type": "uint8"
        },
        {
          "internalType": "uint256",
          "name": "_expirationDate",
          "type": "uint256"
        },
        {
          "internalType": "contract CollateralWallet",
          "name": "_longWallet",
          "type": "address"
        },
        {
          "internalType": "contract CollateralWallet",
          "name": "_shortWallet",
          "type": "address"
        }
      ],
      "name": "initiateFFA",
      "outputs": [
        {
          "internalType": "bool",
          "name": "initiated_",
          "type": "bool"
        }
      ],
      "stateMutability": "nonpayable",
      "type": "function"
    },
    {
      "inputs": [],
      "name": "calcFFAValue",
      "outputs": [
        {
          "internalType": "uint256",
          "name": "value_",
          "type": "uint256"
        }
      ],
      "stateMutability": "nonpayable",
      "type": "function"
    },
    {
      "inputs": [],
      "name": "markToMarket",
      "outputs": [
        {
          "internalType": "bool",
          "name": "markedToMarket_",
          "type": "bool"
        }
      ],
      "stateMutability": "nonpayable",
      "type": "function"
    },
    {
      "inputs": [],
      "name": "settleAtExpiration",
      "outputs": [
        {
          "internalType": "bool",
          "name": "settled_",
          "type": "bool"
        }
      ],
      "stateMutability": "nonpayable",
      "type": "function"
    },
    {
      "inputs": [
        {
          "internalType": "address",
          "name": "_defaultingParty",
          "type": "address"
        }
      ],
      "name": "defaultContract",
      "outputs": [
        {
          "internalType": "bool",
          "name": "defaulted_",
          "type": "bool"
        }
      ],
      "stateMutability": "nonpayable",
      "type": "function"
    },
    {
      "inputs": [],
      "name": "getContractState",
      "outputs": [
        {
          "internalType": "string",
          "name": "",
          "type": "string"
        }
      ],
      "stateMutability": "view",
      "type": "function"
    },
    {
      "inputs": [],
      "name": "getName",
      "outputs": [
        {
          "internalType": "string",
          "name": "",
          "type": "string"
        }
      ],
      "stateMutability": "view",
      "type": "function"
    },
    {
      "inputs": [],
      "name": "getDecimals",
      "outputs": [
        {
          "internalType": "uint8",
          "name": "",
          "type": "uint8"
        }
      ],
      "stateMutability": "view",
      "type": "function"
    }
  ],
  "bytecode": "0x60806040523480156200001157600080fd5b5060405162001ba238038062001ba2833981810160405281019062000037919062000297565b85600090805190602001906200004f9291906200010d565b508460019080519060200190620000689291906200010d565b5083600f60006101000a81548173ffffffffffffffffffffffffffffffffffffffff021916908373ffffffffffffffffffffffffffffffffffffffff1602179055508260108190555081600260006101000a81548160ff021916908360ff160217905550806003819055506000600260016101000a81548160ff02191690836003811115620000fc57620000fb620004c7565b5b0217905550505050505050620005e1565b8280546200011b906200045b565b90600052602060002090601f0160209004810192826200013f57600085556200018b565b82601f106200015a57805160ff19168380011785556200018b565b828001600101855582156200018b579182015b828111156200018a5782518255916020019190600101906200016d565b5b5090506200019a91906200019e565b5090565b5b80821115620001b95760008160009055506001016200019f565b5090565b6000620001d4620001ce846200039a565b62000371565b905082815260208101848484011115620001f357620001f262000559565b5b6200020084828562000425565b509392505050565b600081519050620002198162000579565b92915050565b600081519050620002308162000593565b92915050565b600082601f8301126200024e576200024d62000554565b5b815162000260848260208601620001bd565b91505092915050565b6000815190506200027a81620005ad565b92915050565b6000815190506200029181620005c7565b92915050565b60008060008060008060c08789031215620002b757620002b662000563565b5b600087015167ffffffffffffffff811115620002d857620002d76200055e565b5b620002e689828a0162000236565b965050602087015167ffffffffffffffff8111156200030a57620003096200055e565b5b6200031889828a0162000236565b95505060406200032b89828a0162000208565b94505060606200033e89828a016200021f565b93505060806200035189828a0162000280565b92505060a06200036489828a0162000269565b9150509295509295509295565b60006200037d62000390565b90506200038b828262000491565b919050565b6000604051905090565b600067ffffffffffffffff821115620003b857620003b762000525565b5b620003c38262000568565b9050602081019050919050565b6000620003dd82620003ee565b9050919050565b6000819050919050565b600073ffffffffffffffffffffffffffffffffffffffff82169050919050565b6000819050919050565b600060ff82169050919050565b60005b838110156200044557808201518184015260208101905062000428565b8381111562000455576000848401525b50505050565b600060028204905060018216806200047457607f821691505b602082108114156200048b576200048a620004f6565b5b50919050565b6200049c8262000568565b810181811067ffffffffffffffff82111715620004be57620004bd62000525565b5b80604052505050565b7f4e487b7100000000000000000000000000000000000000000000000000000000600052602160045260246000fd5b7f4e487b7100000000000000000000000000000000000000000000000000000000600052602260045260246000fd5b7f4e487b7100000000000000000000000000000000000000000000000000000000600052604160045260246000fd5b600080fd5b600080fd5b600080fd5b600080fd5b6000601f19601f8301169050919050565b6200058481620003d0565b81146200059057600080fd5b50565b6200059e81620003e4565b8114620005aa57600080fd5b50565b620005b8816200040e565b8114620005c457600080fd5b50565b620005d28162000418565b8114620005de57600080fd5b50565b6115b180620005f16000396000f3fe608060405234801561001057600080fd5b50600436106100935760003560e01c806378f8f7d41161006657806378f8f7d4146101345780637f4e48491461015257806385209ee014610170578063e9df7c5e1461018e578063f0141d84146101ac57610093565b806317d7de7c146100985780633448f659146100b65780634bdcfab8146100e657806370a4cd3414610116575b600080fd5b6100a06101ca565b6040516100ad9190610f63565b60405180910390f35b6100d060048036038101906100cb9190610c9f565b61025c565b6040516100dd9190610f2d565b60405180910390f35b61010060048036038101906100fb9190610ccc565b61038f565b60405161010d9190610f2d565b60405180910390f35b61011e610752565b60405161012b9190610f2d565b60405180910390f35b61013c6108ca565b6040516101499190610f2d565b60405180910390f35b61015a6109cd565b6040516101679190610f63565b60405180910390f35b610178610bee565b6040516101859190610f48565b60405180910390f35b610196610c01565b6040516101a39190611065565b60405180910390f35b6101b4610c11565b6040516101c19190611125565b60405180910390f35b6060600080546101d990611259565b80601f016020809104026020016040519081016040528092919081815260200182805461020590611259565b80156102525780601f1061022757610100808354040283529160200191610252565b820191906000526020600020905b81548152906001019060200180831161023557829003601f168201915b5050505050905090565b600060016003811115610272576102716112ba565b5b600260019054906101000a900460ff166003811115610294576102936112ba565b5b146102d4576040517f08c379a00000000000000000000000000000000000000000000000000000000081526004016102cb90610fc5565b60405180910390fd5b60006102e242600854610c28565b11610322576040517f08c379a000000000000000000000000000000000000000000000000000000000815260040161031990611025565b60405180910390fd5b6003600260016101000a81548160ff02191690836003811115610348576103476112ba565b5b02179055507f724b99e866949401e1553ae6e0da07c7e24b0308581155730cbe34363752bd3f428360405161037e929190611080565b60405180910390a160019050919050565b60008073ffffffffffffffffffffffffffffffffffffffff168873ffffffffffffffffffffffffffffffffffffffff161415610400576040517f08c379a00000000000000000000000000000000000000000000000000000000081526004016103f790610fe5565b60405180910390fd5b600073ffffffffffffffffffffffffffffffffffffffff168773ffffffffffffffffffffffffffffffffffffffff161415610470576040517f08c379a000000000000000000000000000000000000000000000000000000000815260040161046790610fa5565b60405180910390fd5b8673ffffffffffffffffffffffffffffffffffffffff168873ffffffffffffffffffffffffffffffffffffffff1614156104df576040517f08c379a00000000000000000000000000000000000000000000000000000000081526004016104d690610f85565b60405180910390fd5b60006104eb4286610c28565b1161052b576040517f08c379a000000000000000000000000000000000000000000000000000000000815260040161052290611005565b60405180910390fd5b87600460006101000a81548173ffffffffffffffffffffffffffffffffffffffff021916908373ffffffffffffffffffffffffffffffffffffffff16021790555086600560006101000a81548173ffffffffffffffffffffffffffffffffffffffff021916908373ffffffffffffffffffffffffffffffffffffffff1602179055508560068190555084600760006101000a81548160ff021916908360ff1602179055508360088190555082600960006101000a81548173ffffffffffffffffffffffffffffffffffffffff021916908373ffffffffffffffffffffffffffffffffffffffff16021790555081600a60006101000a81548173ffffffffffffffffffffffffffffffffffffffff021916908373ffffffffffffffffffffffffffffffffffffffff1602179055506001600260016101000a81548160ff0219169083600381111561067e5761067d6112ba565b5b0217905550600560009054906101000a900473ffffffffffffffffffffffffffffffffffffffff1673ffffffffffffffffffffffffffffffffffffffff16600460009054906101000a900473ffffffffffffffffffffffffffffffffffffffff1673ffffffffffffffffffffffffffffffffffffffff167f3bf88603c760ed46445b475bf9bd18d23632b3df0c987c93907aa89ef3874cdd600654600760009054906101000a900460ff1660085460405161073b939291906110ee565b60405180910390a360019050979650505050505050565b60008061076160085442610c28565b10156107a2576040517f08c379a000000000000000000000000000000000000000000000000000000000815260040161079990611045565b60405180910390fd5b600160038111156107b6576107b56112ba565b5b600260019054906101000a900460ff1660038111156107d8576107d76112ba565b5b14610818576040517f08c379a000000000000000000000000000000000000000000000000000000000815260040161080f90610fc5565b60405180910390fd5b60028060016101000a81548160ff0219169083600381111561083d5761083c6112ba565b5b02179055507f7e79a2206061184e05985ae0578dec52f817756a441996f984cdc817efc25a68600460009054906101000a900473ffffffffffffffffffffffffffffffffffffffff16600560009054906101000a900473ffffffffffffffffffffffffffffffffffffffff166008546040516108bb93929190610ef6565b60405180910390a16001905090565b6000600160038111156108e0576108df6112ba565b5b600260019054906101000a900460ff166003811115610902576109016112ba565b5b14610942576040517f08c379a000000000000000000000000000000000000000000000000000000000815260040161093990610fc5565b60405180910390fd5b60007f63f10cc602ea66cf5c2a09a756a193c86ab46c33a794eb8d9aee6cf9426553a84282600460009054906101000a900473ffffffffffffffffffffffffffffffffffffffff16600560009054906101000a900473ffffffffffffffffffffffffffffffffffffffff166040516109bd94939291906110a9565b60405180910390a1600191505090565b6060600060038111156109e3576109e26112ba565b5b600260019054906101000a900460ff166003811115610a0557610a046112ba565b5b1415610a48576040518060400160405280600781526020017f43726561746564000000000000000000000000000000000000000000000000008152509050610beb565b60016003811115610a5c57610a5b6112ba565b5b600260019054906101000a900460ff166003811115610a7e57610a7d6112ba565b5b1415610ac1576040518060400160405280600981526020017f496e6974696174656400000000000000000000000000000000000000000000008152509050610beb565b60026003811115610ad557610ad46112ba565b5b600260019054906101000a900460ff166003811115610af757610af66112ba565b5b1415610b3a576040518060400160405280600781526020017f536574746c6564000000000000000000000000000000000000000000000000008152509050610beb565b600380811115610b4d57610b4c6112ba565b5b600260019054906101000a900460ff166003811115610b6f57610b6e6112ba565b5b1415610bb2576040518060400160405280600981526020017f44656661756c74656400000000000000000000000000000000000000000000008152509050610beb565b6040518060400160405280600b81526020017f7374617465206572726f7200000000000000000000000000000000000000000081525090505b90565b600260019054906101000a900460ff1681565b600042600e819055506000905090565b6000600260009054906101000a900460ff16905090565b600081831115610c3757600080fd5b8282610c43919061115c565b905092915050565b600081359050610c5a8161151f565b92915050565b600081359050610c6f81611536565b92915050565b600081359050610c848161154d565b92915050565b600081359050610c9981611564565b92915050565b600060208284031215610cb557610cb4611318565b5b6000610cc384828501610c4b565b91505092915050565b600080600080600080600060e0888a031215610ceb57610cea611318565b5b6000610cf98a828b01610c4b565b9750506020610d0a8a828b01610c4b565b9650506040610d1b8a828b01610c75565b9550506060610d2c8a828b01610c8a565b9450506080610d3d8a828b01610c75565b93505060a0610d4e8a828b01610c60565b92505060c0610d5f8a828b01610c60565b91505092959891949750929550565b610d7781611190565b82525050565b610d86816111a2565b82525050565b610d9581611214565b82525050565b610da4816111d3565b82525050565b6000610db582611140565b610dbf818561114b565b9350610dcf818560208601611226565b610dd88161131d565b840191505092915050565b6000610df060228361114b565b9150610dfb8261132e565b604082019050919050565b6000610e13601b8361114b565b9150610e1e8261137d565b602082019050919050565b6000610e3660258361114b565b9150610e41826113a6565b604082019050919050565b6000610e59601a8361114b565b9150610e64826113f5565b602082019050919050565b6000610e7c60288361114b565b9150610e878261141e565b604082019050919050565b6000610e9f602c8361114b565b9150610eaa8261146d565b604082019050919050565b6000610ec2602f8361114b565b9150610ecd826114bc565b604082019050919050565b610ee1816111fd565b82525050565b610ef081611207565b82525050565b6000606082019050610f0b6000830186610d6e565b610f186020830185610d6e565b610f256040830184610ed8565b949350505050565b6000602082019050610f426000830184610d7d565b92915050565b6000602082019050610f5d6000830184610d8c565b92915050565b60006020820190508181036000830152610f7d8184610daa565b905092915050565b60006020820190508181036000830152610f9e81610de3565b9050919050565b60006020820190508181036000830152610fbe81610e06565b9050919050565b60006020820190508181036000830152610fde81610e29565b9050919050565b60006020820190508181036000830152610ffe81610e4c565b9050919050565b6000602082019050818103600083015261101e81610e6f565b9050919050565b6000602082019050818103600083015261103e81610e92565b9050919050565b6000602082019050818103600083015261105e81610eb5565b9050919050565b600060208201905061107a6000830184610ed8565b92915050565b60006040820190506110956000830185610ed8565b6110a26020830184610d6e565b9392505050565b60006080820190506110be6000830187610ed8565b6110cb6020830186610d9b565b6110d86040830185610d6e565b6110e56060830184610d6e565b95945050505050565b60006060820190506111036000830186610ed8565b6111106020830185610ee7565b61111d6040830184610ed8565b949350505050565b600060208201905061113a6000830184610ee7565b92915050565b600081519050919050565b600082825260208201905092915050565b6000611167826111fd565b9150611172836111fd565b9250828210156111855761118461128b565b5b828203905092915050565b600061119b826111dd565b9050919050565b60008115159050919050565b60006111b982611190565b9050919050565b60008190506111ce8261150b565b919050565b6000819050919050565b600073ffffffffffffffffffffffffffffffffffffffff82169050919050565b6000819050919050565b600060ff82169050919050565b600061121f826111c0565b9050919050565b60005b83811015611244578082015181840152602081019050611229565b83811115611253576000848401525b50505050565b6000600282049050600182168061127157607f821691505b60208210811415611285576112846112e9565b5b50919050565b7f4e487b7100000000000000000000000000000000000000000000000000000000600052601160045260246000fd5b7f4e487b7100000000000000000000000000000000000000000000000000000000600052602160045260246000fd5b7f4e487b7100000000000000000000000000000000000000000000000000000000600052602260045260246000fd5b600080fd5b6000601f19601f8301169050919050565b7f4c6f6e6720616e642073686f72742063616e27742062652073616d652070617260008201527f7479000000000000000000000000000000000000000000000000000000000000602082015250565b7f53686f72742063616e2774206265207a65726f20616464726573730000000000600082015250565b7f436f6e74726163742068617320746f20626520696e20496e697469617465642060008201527f7374617465000000000000000000000000000000000000000000000000000000602082015250565b7f4c6f6e672063616e2774206265207a65726f2061646472657373000000000000600082015250565b7f46464120636f6e74726163742068617320746f2065787069726520696e20746860008201527f6520667574757265000000000000000000000000000000000000000000000000602082015250565b7f44656661756c74696e672063616e206f6e6c792068617070656e206265666f7260008201527f652065787069726174696f6e0000000000000000000000000000000000000000602082015250565b7f536574746c656d656e742063616e6e6f74206f6363757265206265666f72652060008201527f65787069726174696f6e20646174650000000000000000000000000000000000602082015250565b6004811061151c5761151b6112ba565b5b50565b61152881611190565b811461153357600080fd5b50565b61153f816111ae565b811461154a57600080fd5b50565b611556816111fd565b811461156157600080fd5b50565b61156d81611207565b811461157857600080fd5b5056fea26469706673582212206001b6d857292e7060373f3b6806245a060ee58cbaf5f45c2e75f1603406316b64736f6c63430008060033",
  "immutableReferences": {},
  "source": "// SPDX-License-Identifier: UNLICENSED\r\n\r\npragma solidity ^0.8.6;\r\n\r\nimport \"../utils/BokkyPooBahsDateTimeLibrary.sol\";\r\nimport \"@openzeppelin/contracts/access/Ownable.sol\";\r\nimport \"@openzeppelin/contracts/token/ERC20/IERC20.sol\";\r\nimport \"@openzeppelin/contracts/token/ERC20/utils/SafeERC20.sol\";\r\nimport \"@openzeppelin/contracts/utils/math/SafeMath.sol\";\r\n\r\nimport \"../interfaces/IFFAContract.sol\";\r\nimport \"./ChainlinkOracle.sol\";\r\nimport \"./CollateralWallet.sol\";\r\n\r\ncontract FFAContract is IFFAContract{\r\n        using SafeERC20 for IERC20;\r\n\r\n        //state of contract\r\n        enum ContractState {Created, Initiated, Settled, Defaulted}\r\n\r\n        //contract detail\r\n        string private name;\r\n        string private symbol;\r\n        uint8 private decimals;\r\n        ContractState public contractState;\r\n        uint256 private sizeOfContract;\r\n        address private long;\r\n        address private short;\r\n        uint256 private forwardPrice;\r\n        uint8 private riskFreeRate;\r\n        uint256 private expirationDate;\r\n\r\n        //collateral wallets\r\n        CollateralWallet private longWallet;\r\n        CollateralWallet private shortWallet;\r\n\r\n\r\n        //margin requirements\r\n        uint256 private initialMargin;\r\n        uint256 private maintenanceMargin;\r\n\r\n        //valuation\r\n        int256 private value;\r\n        uint256 private valuationDate;\r\n\r\n        //underlying index price oracle\r\n        address private oracleAddress;\r\n        bytes32 private jobId;\r\n        ChainlinkOracle internal valuationOracle;\r\n\r\n        //add events to interface\r\n\r\n        constructor(\r\n            string memory _name, \r\n            string memory _symbol, \r\n            address _oracleAddress,\r\n            bytes32 _jobId, \r\n            uint8 _decimals,\r\n            uint256 _sizeOfContract\r\n        ) {\r\n            name = _name;\r\n            symbol = _symbol;\r\n            oracleAddress = _oracleAddress;\r\n            jobId = _jobId;\r\n            decimals = _decimals;\r\n            sizeOfContract = _sizeOfContract;\r\n            //valuationOracle = new ChainlinkOracle(oracleAddress, jobId);//not sure\r\n            contractState = ContractState.Created;\r\n        }\r\n\r\n        //initiation\r\n        function initiateFFA(address _long, address _short, uint256 _forwardPrice, \r\n                             uint8 _riskFreeRate, uint256 _expirationDate,\r\n                             CollateralWallet _longWallet, CollateralWallet _shortWallet) \r\n                             external override returns (bool initiated_) {\r\n            require(_long != address(0), \"Long can't be zero address\");\r\n            require(_short != address(0), \"Short can't be zero address\");\r\n            require(_long != _short, \"Long and short can't be same party\");\r\n            require(BokkyPooBahsDateTimeLibrary.diffSeconds(block.timestamp, _expirationDate) > 0, \"FFA contract has to expire in the future\");\r\n            long = _long;\r\n            short = _short;\r\n            forwardPrice = _forwardPrice;\r\n            riskFreeRate = _riskFreeRate;\r\n            expirationDate = _expirationDate;\r\n            longWallet = _longWallet;\r\n            shortWallet = _shortWallet;\r\n            contractState = ContractState.Initiated;\r\n            //Do i need to deal with allowance?\r\n            emit Initiated(long, short, forwardPrice, riskFreeRate, expirationDate);\r\n            initiated_ = true;\r\n        }\r\n\r\n        //calculate value of contract\r\n        function calcFFAValue() external override returns (uint256 value_) {\r\n            valuationDate = block.timestamp;\r\n            //use valuation oracle here\r\n            \r\n            value_ = 0;\r\n        }\r\n\r\n        //mark to market\r\n        function markToMarket() external override returns (bool markedToMarket_) {\r\n            //check requirements\r\n            require(contractState == ContractState.Initiated, \"Contract has to be in Initiated state\");\r\n            //require(BokkyPooBahsDateTimeLibrary.diffSeconds(block.timestamp, expirationDate) > 0, \"M to m can only happen before expiration\");\r\n            //check allowance if neccessary here\r\n\r\n            //calculate net daily payoff\r\n            int256 dailyPayoff = 0;\r\n\r\n            //delivery within collateral wallets\r\n\r\n            //emit event\r\n            emit MarkedToMarket(block.timestamp, dailyPayoff, long, short);\r\n            markedToMarket_ = true;\r\n        }\r\n\r\n        //settle contract \r\n        function settleAtExpiration() public override returns (bool settled_) {\r\n            require(BokkyPooBahsDateTimeLibrary.diffSeconds(expirationDate, block.timestamp) >= 0, \"Settlement cannot occure before expiration date\" );\r\n            require(contractState == ContractState.Initiated, \"Contract has to be in Initiated state\");\r\n\r\n            //change contract state and emit event\r\n            contractState = ContractState.Settled;\r\n            emit Settled(long, short, expirationDate);\r\n            settled_ = true;\r\n        }\r\n\r\n        //default contract\r\n        function defaultContract(address _defaultingParty) public override returns (bool defaulted_) {\r\n            require(contractState == ContractState.Initiated, \"Contract has to be in Initiated state\");\r\n            require(BokkyPooBahsDateTimeLibrary.diffSeconds(block.timestamp, expirationDate) > 0, \"Defaulting can only happen before expiration\");\r\n\r\n            //change contract state and emit event\r\n            contractState = ContractState.Defaulted;\r\n            emit Defaulted(block.timestamp, _defaultingParty);\r\n            defaulted_ = true;\r\n        }\r\n\r\n        function transferCollateralFrom(CollateralWallet senderWallet, CollateralWallet recipientWallet, uint256 amount, address collateralTokenAddress) internal returns (bool transfered_){\r\n            uint256 originalSenderMappedBalance = senderWallet.getMappedBalance(address(this), collateralTokenAddress);\r\n            require(originalSenderMappedBalance >= amount, \"collateral balance not sufficient\");\r\n\r\n            IERC20(collateralTokenAddress).safeTransfer(address(recipientWallet), amount);\r\n\r\n            //deduct from sender balance mapping\r\n            unchecked {\r\n                uint256 newSenderMappedBalance = originalSenderMappedBalance - amount;\r\n                senderWallet.setNewBalance(address(this), collateralTokenAddress, newSenderMappedBalance);\r\n            }\r\n\r\n            //add to recipient balance mapping\r\n            uint256 newRecipientMappedBalance = recipientWallet.getMappedBalance(address(this), collateralTokenAddress) + amount;\r\n            recipientWallet.setNewBalance(address(this), collateralTokenAddress, newRecipientMappedBalance);\r\n\r\n            transfered_ = true;\r\n        }\r\n\r\n        //what about receive and fallback functions\r\n\r\n        //include getter functions here\r\n        function getContractState() external view returns(string memory) {\r\n            if (contractState == ContractState.Created) {\r\n                return \"Created\";\r\n            } else if (contractState == ContractState.Initiated) {\r\n                return \"Initiated\";\r\n            } else if (contractState == ContractState.Settled) {\r\n                return \"Settled\";\r\n            } else if (contractState == ContractState.Defaulted) {\r\n                return \"Defaulted\";\r\n            } else {\r\n                return \"state error\";\r\n            }\r\n        }\r\n\r\n        function getName() external view returns(string memory) {\r\n            return name;\r\n        }\r\n\r\n        function getDecimals() external view returns (uint8) {\r\n            return decimals;\r\n        }\r\n\r\n\r\n\r\n}",
  "sourcePath": "C:\\Users\\Tomi\\OneDrive - The University of Chicago\\Documents\\Securrency\\FuturesExchange\\contracts\\FFAContract.sol",
  "compiler": {
    "name": "solc",
    "version": "0.8.6+commit.11564f7e.Emscripten.clang"
  },
  "schemaVersion": "3.4.2",
  "updatedAt": "2021-08-10T12:08:05.640Z",
  "devdoc": {
    "kind": "dev",
    "methods": {},
    "version": 1
  },
  "userdoc": {
    "kind": "user",
    "methods": {},
    "version": 1
  }
}