{
  "contractName": "FFAContract",
  "abi": [
    {
      "inputs": [
        {
          "internalType": "string",
          "name": "_name",
          "type": "string"
        },
        {
          "internalType": "string",
          "name": "_symbol",
          "type": "string"
        },
        {
          "internalType": "uint8",
          "name": "_decimals",
          "type": "uint8"
        },
        {
          "internalType": "uint256",
          "name": "_sizeOfContract",
          "type": "uint256"
        }
      ],
      "stateMutability": "nonpayable",
      "type": "constructor"
    },
    {
      "anonymous": false,
      "inputs": [
        {
          "indexed": false,
          "internalType": "uint8",
          "name": "decimals",
          "type": "uint8"
        },
        {
          "indexed": false,
          "internalType": "uint256",
          "name": "sizeOfContract",
          "type": "uint256"
        }
      ],
      "name": "CreatedContract",
      "type": "event"
    },
    {
      "anonymous": false,
      "inputs": [
        {
          "indexed": false,
          "internalType": "uint256",
          "name": "defaultDate",
          "type": "uint256"
        },
        {
          "indexed": false,
          "internalType": "address",
          "name": "defaultingParty",
          "type": "address"
        }
      ],
      "name": "Defaulted",
      "type": "event"
    },
    {
      "anonymous": false,
      "inputs": [
        {
          "indexed": true,
          "internalType": "address",
          "name": "long",
          "type": "address"
        },
        {
          "indexed": true,
          "internalType": "address",
          "name": "short",
          "type": "address"
        },
        {
          "indexed": false,
          "internalType": "uint256",
          "name": "forwardPrice",
          "type": "uint256"
        },
        {
          "indexed": false,
          "internalType": "uint8",
          "name": "riskFreeRate",
          "type": "uint8"
        },
        {
          "indexed": false,
          "internalType": "uint256",
          "name": "expirationDate",
          "type": "uint256"
        }
      ],
      "name": "Initiated",
      "type": "event"
    },
    {
      "anonymous": false,
      "inputs": [
        {
          "indexed": false,
          "internalType": "uint256",
          "name": "mtmDate",
          "type": "uint256"
        },
        {
          "indexed": false,
          "internalType": "int256",
          "name": "dailyPayoff",
          "type": "int256"
        },
        {
          "indexed": false,
          "internalType": "address",
          "name": "long",
          "type": "address"
        },
        {
          "indexed": false,
          "internalType": "address",
          "name": "short",
          "type": "address"
        }
      ],
      "name": "MarkedToMarket",
      "type": "event"
    },
    {
      "anonymous": false,
      "inputs": [
        {
          "indexed": false,
          "internalType": "address",
          "name": "long",
          "type": "address"
        },
        {
          "indexed": false,
          "internalType": "address",
          "name": "short",
          "type": "address"
        },
        {
          "indexed": false,
          "internalType": "uint256",
          "name": "expirationDate",
          "type": "uint256"
        }
      ],
      "name": "Settled",
      "type": "event"
    },
    {
      "anonymous": false,
      "inputs": [
        {
          "indexed": false,
          "internalType": "uint8",
          "name": "riskFreeRate",
          "type": "uint8"
        },
        {
          "indexed": false,
          "internalType": "int256",
          "name": "indexPrice",
          "type": "int256"
        },
        {
          "indexed": false,
          "internalType": "uint256",
          "name": "valuationDate",
          "type": "uint256"
        },
        {
          "indexed": false,
          "internalType": "int256",
          "name": "forwardValue",
          "type": "int256"
        }
      ],
      "name": "Valuated",
      "type": "event"
    },
    {
      "inputs": [],
      "name": "contractState",
      "outputs": [
        {
          "internalType": "enum FFAContract.ContractState",
          "name": "",
          "type": "uint8"
        }
      ],
      "stateMutability": "view",
      "type": "function",
      "constant": true
    },
    {
      "inputs": [
        {
          "internalType": "address",
          "name": "_long",
          "type": "address"
        },
        {
          "internalType": "address",
          "name": "_short",
          "type": "address"
        },
        {
          "internalType": "uint256",
          "name": "_forwardPrice",
          "type": "uint256"
        },
        {
          "internalType": "uint8",
          "name": "_riskFreeRate",
          "type": "uint8"
        },
        {
          "internalType": "uint256",
          "name": "_expirationDate",
          "type": "uint256"
        },
        {
          "internalType": "contract CollateralWallet",
          "name": "_longWallet",
          "type": "address"
        },
        {
          "internalType": "contract CollateralWallet",
          "name": "_shortWallet",
          "type": "address"
        }
      ],
      "name": "initiateFFA",
      "outputs": [
        {
          "internalType": "bool",
          "name": "initiated_",
          "type": "bool"
        }
      ],
      "stateMutability": "nonpayable",
      "type": "function"
    },
    {
      "inputs": [],
      "name": "calcFFAValue",
      "outputs": [
        {
          "internalType": "uint256",
          "name": "value_",
          "type": "uint256"
        }
      ],
      "stateMutability": "nonpayable",
      "type": "function"
    },
    {
      "inputs": [],
      "name": "markToMarket",
      "outputs": [
        {
          "internalType": "bool",
          "name": "markedToMarket_",
          "type": "bool"
        }
      ],
      "stateMutability": "nonpayable",
      "type": "function"
    },
    {
      "inputs": [],
      "name": "settleAtExpiration",
      "outputs": [
        {
          "internalType": "bool",
          "name": "settled_",
          "type": "bool"
        }
      ],
      "stateMutability": "nonpayable",
      "type": "function"
    },
    {
      "inputs": [
        {
          "internalType": "address",
          "name": "_defaultingParty",
          "type": "address"
        }
      ],
      "name": "defaultContract",
      "outputs": [
        {
          "internalType": "bool",
          "name": "defaulted_",
          "type": "bool"
        }
      ],
      "stateMutability": "nonpayable",
      "type": "function"
    },
    {
      "inputs": [
        {
          "internalType": "string",
          "name": "_name",
          "type": "string"
        }
      ],
      "name": "createCollateralWallet",
      "outputs": [
        {
          "internalType": "contract CollateralWallet",
          "name": "collateralWallet_",
          "type": "address"
        }
      ],
      "stateMutability": "nonpayable",
      "type": "function"
    },
    {
      "inputs": [],
      "name": "getContractState",
      "outputs": [
        {
          "internalType": "string",
          "name": "",
          "type": "string"
        }
      ],
      "stateMutability": "view",
      "type": "function",
      "constant": true
    },
    {
      "inputs": [],
      "name": "getName",
      "outputs": [
        {
          "internalType": "string",
          "name": "",
          "type": "string"
        }
      ],
      "stateMutability": "view",
      "type": "function",
      "constant": true
    },
    {
      "inputs": [],
      "name": "getSymbol",
      "outputs": [
        {
          "internalType": "string",
          "name": "",
          "type": "string"
        }
      ],
      "stateMutability": "view",
      "type": "function",
      "constant": true
    },
    {
      "inputs": [],
      "name": "getSizeOfContract",
      "outputs": [
        {
          "internalType": "uint256",
          "name": "",
          "type": "uint256"
        }
      ],
      "stateMutability": "view",
      "type": "function",
      "constant": true
    },
    {
      "inputs": [],
      "name": "getDecimals",
      "outputs": [
        {
          "internalType": "uint8",
          "name": "",
          "type": "uint8"
        }
      ],
      "stateMutability": "view",
      "type": "function",
      "constant": true
    }
  ],
  "bytecode": "0x60806040523480156200001157600080fd5b5060405162002ebb38038062002ebb83398181016040528101906200003791906200026b565b83600090805190602001906200004f9291906200010f565b508260019080519060200190620000689291906200010f565b5081600260006101000a81548160ff021916908360ff160217905550806003819055506000600260016101000a81548160ff02191690836003811115620000b457620000b362000482565b5b02179055507faa7f6ea30e1ba480d45b98b3b903c55e2261e037d7b614e6164b23f23711d104600260009054906101000a900460ff16600354604051620000fd9291906200033d565b60405180910390a15050505062000568565b8280546200011d9062000416565b90600052602060002090601f0160209004810192826200014157600085556200018d565b82601f106200015c57805160ff19168380011785556200018d565b828001600101855582156200018d579182015b828111156200018c5782518255916020019190600101906200016f565b5b5090506200019c9190620001a0565b5090565b5b80821115620001bb576000816000905550600101620001a1565b5090565b6000620001d6620001d08462000393565b6200036a565b905082815260208101848484011115620001f557620001f462000514565b5b62000202848285620003e0565b509392505050565b600082601f8301126200022257620002216200050f565b5b815162000234848260208601620001bf565b91505092915050565b6000815190506200024e8162000534565b92915050565b60008151905062000265816200054e565b92915050565b600080600080608085870312156200028857620002876200051e565b5b600085015167ffffffffffffffff811115620002a957620002a862000519565b5b620002b7878288016200020a565b945050602085015167ffffffffffffffff811115620002db57620002da62000519565b5b620002e9878288016200020a565b9350506040620002fc8782880162000254565b92505060606200030f878288016200023d565b91505092959194509250565b6200032681620003c9565b82525050565b6200033781620003d3565b82525050565b60006040820190506200035460008301856200032c565b6200036360208301846200031b565b9392505050565b60006200037662000389565b90506200038482826200044c565b919050565b6000604051905090565b600067ffffffffffffffff821115620003b157620003b0620004e0565b5b620003bc8262000523565b9050602081019050919050565b6000819050919050565b600060ff82169050919050565b60005b8381101562000400578082015181840152602081019050620003e3565b8381111562000410576000848401525b50505050565b600060028204905060018216806200042f57607f821691505b60208210811415620004465762000445620004b1565b5b50919050565b620004578262000523565b810181811067ffffffffffffffff82111715620004795762000478620004e0565b5b80604052505050565b7f4e487b7100000000000000000000000000000000000000000000000000000000600052602160045260246000fd5b7f4e487b7100000000000000000000000000000000000000000000000000000000600052602260045260246000fd5b7f4e487b7100000000000000000000000000000000000000000000000000000000600052604160045260246000fd5b600080fd5b600080fd5b600080fd5b600080fd5b6000601f19601f8301169050919050565b6200053f81620003c9565b81146200054b57600080fd5b50565b6200055981620003d3565b81146200056557600080fd5b50565b61294380620005786000396000f3fe60806040523480156200001157600080fd5b5060043610620000c45760003560e01c806378f8f7d4116200007b57806378f8f7d414620001d15780637f4e484914620001f357806385209ee01462000215578063923123b31462000237578063e9df7c5e1462000259578063f0141d84146200027b57620000c4565b80631507040114620000c957806317d7de7c14620000eb5780633448f659146200010d5780634bdcfab814620001435780635c16a60d146200017957806370a4cd3414620001af575b600080fd5b620000d36200029d565b604051620000e29190620012ee565b60405180910390f35b620000f562000337565b604051620001049190620012ee565b60405180910390f35b6200012b600480360381019062000125919062000f5b565b620003d1565b6040516200013a919062001297565b60405180910390f35b6200016160048036038101906200015b919062000f8d565b62000517565b60405162000170919062001297565b60405180910390f35b62000197600480360381019062000191919062001040565b620008ed565b604051620001a69190620012b4565b60405180910390f35b620001b96200092f565b604051620001c8919062001297565b60405180910390f35b620001db62000aba565b604051620001ea919062001297565b60405180910390f35b620001fd62000bc8565b6040516200020c9190620012ee565b60405180910390f35b6200021f62000e09565b6040516200022e9190620012d1565b60405180910390f35b6200024162000e1c565b60405162000250919062001400565b60405180910390f35b6200026362000e26565b60405162000272919062001400565b60405180910390f35b6200028562000e36565b604051620002949190620014d4565b60405180910390f35b606060018054620002ae90620016c6565b80601f0160208091040260200160405190810160405280929190818152602001828054620002dc90620016c6565b80156200032d5780601f1062000301576101008083540402835291602001916200032d565b820191906000526020600020905b8154815290600101906020018083116200030f57829003601f168201915b5050505050905090565b6060600080546200034890620016c6565b80601f01602080910402602001604051908101604052809291908181526020018280546200037690620016c6565b8015620003c75780601f106200039b57610100808354040283529160200191620003c7565b820191906000526020600020905b815481529060010190602001808311620003a957829003601f168201915b5050505050905090565b600060016003811115620003ea57620003e962001761565b5b600260019054906101000a900460ff1660038111156200040f576200040e62001761565b5b1462000452576040517f08c379a0000000000000000000000000000000000000000000000000000000008152600401620004499062001356565b60405180910390fd5b6000620004624260085462000e4d565b11620004a5576040517f08c379a00000000000000000000000000000000000000000000000000000000081526004016200049c90620013bc565b60405180910390fd5b6003600260016101000a81548160ff02191690836003811115620004ce57620004cd62001761565b5b02179055507f724b99e866949401e1553ae6e0da07c7e24b0308581155730cbe34363752bd3f4283604051620005069291906200141d565b60405180910390a160019050919050565b60008073ffffffffffffffffffffffffffffffffffffffff168873ffffffffffffffffffffffffffffffffffffffff1614156200058b576040517f08c379a0000000000000000000000000000000000000000000000000000000008152600401620005829062001378565b60405180910390fd5b600073ffffffffffffffffffffffffffffffffffffffff168773ffffffffffffffffffffffffffffffffffffffff161415620005fe576040517f08c379a0000000000000000000000000000000000000000000000000000000008152600401620005f59062001334565b60405180910390fd5b8673ffffffffffffffffffffffffffffffffffffffff168873ffffffffffffffffffffffffffffffffffffffff16141562000670576040517f08c379a0000000000000000000000000000000000000000000000000000000008152600401620006679062001312565b60405180910390fd5b60006200067e428662000e4d565b11620006c1576040517f08c379a0000000000000000000000000000000000000000000000000000000008152600401620006b8906200139a565b60405180910390fd5b87600460006101000a81548173ffffffffffffffffffffffffffffffffffffffff021916908373ffffffffffffffffffffffffffffffffffffffff16021790555086600560006101000a81548173ffffffffffffffffffffffffffffffffffffffff021916908373ffffffffffffffffffffffffffffffffffffffff1602179055508560068190555084600760006101000a81548160ff021916908360ff1602179055508360088190555082600960006101000a81548173ffffffffffffffffffffffffffffffffffffffff021916908373ffffffffffffffffffffffffffffffffffffffff16021790555081600a60006101000a81548173ffffffffffffffffffffffffffffffffffffffff021916908373ffffffffffffffffffffffffffffffffffffffff1602179055506001600260016101000a81548160ff0219169083600381111562000817576200081662001761565b5b0217905550600560009054906101000a900473ffffffffffffffffffffffffffffffffffffffff1673ffffffffffffffffffffffffffffffffffffffff16600460009054906101000a900473ffffffffffffffffffffffffffffffffffffffff1673ffffffffffffffffffffffffffffffffffffffff167f3bf88603c760ed46445b475bf9bd18d23632b3df0c987c93907aa89ef3874cdd600654600760009054906101000a900460ff16600854604051620008d69392919062001497565b60405180910390a360019050979650505050505050565b600081604051620008fe9062000e73565b6200090a9190620012ee565b604051809103906000f08015801562000927573d6000803e3d6000fd5b509050919050565b600080620009406008544262000e4d565b101562000984576040517f08c379a00000000000000000000000000000000000000000000000000000000081526004016200097b90620013de565b60405180910390fd5b600160038111156200099b576200099a62001761565b5b600260019054906101000a900460ff166003811115620009c057620009bf62001761565b5b1462000a03576040517f08c379a0000000000000000000000000000000000000000000000000000000008152600401620009fa9062001356565b60405180910390fd5b60028060016101000a81548160ff0219169083600381111562000a2b5762000a2a62001761565b5b02179055507f7e79a2206061184e05985ae0578dec52f817756a441996f984cdc817efc25a68600460009054906101000a900473ffffffffffffffffffffffffffffffffffffffff16600560009054906101000a900473ffffffffffffffffffffffffffffffffffffffff1660085460405162000aab939291906200125a565b60405180910390a16001905090565b60006001600381111562000ad35762000ad262001761565b5b600260019054906101000a900460ff16600381111562000af85762000af762001761565b5b1462000b3b576040517f08c379a000000000000000000000000000000000000000000000000000000000815260040162000b329062001356565b60405180910390fd5b60007f63f10cc602ea66cf5c2a09a756a193c86ab46c33a794eb8d9aee6cf9426553a84282600460009054906101000a900473ffffffffffffffffffffffffffffffffffffffff16600560009054906101000a900473ffffffffffffffffffffffffffffffffffffffff1660405162000bb894939291906200144a565b60405180910390a1600191505090565b60606000600381111562000be15762000be062001761565b5b600260019054906101000a900460ff16600381111562000c065762000c0562001761565b5b141562000c4b576040518060400160405280600781526020017f4372656174656400000000000000000000000000000000000000000000000000815250905062000e06565b6001600381111562000c625762000c6162001761565b5b600260019054906101000a900460ff16600381111562000c875762000c8662001761565b5b141562000ccc576040518060400160405280600981526020017f496e697469617465640000000000000000000000000000000000000000000000815250905062000e06565b6002600381111562000ce35762000ce262001761565b5b600260019054906101000a900460ff16600381111562000d085762000d0762001761565b5b141562000d4d576040518060400160405280600781526020017f536574746c656400000000000000000000000000000000000000000000000000815250905062000e06565b60038081111562000d635762000d6262001761565b5b600260019054906101000a900460ff16600381111562000d885762000d8762001761565b5b141562000dcd576040518060400160405280600981526020017f44656661756c7465640000000000000000000000000000000000000000000000815250905062000e06565b6040518060400160405280600b81526020017f7374617465206572726f7200000000000000000000000000000000000000000081525090505b90565b600260019054906101000a900460ff1681565b6000600354905090565b600042600e819055506000905090565b6000600260009054906101000a900460ff16905090565b60008183111562000e5d57600080fd5b828262000e6b91906200156c565b905092915050565b610e9e8062001a7083390190565b600062000e9862000e92846200151a565b620014f1565b90508281526020810184848401111562000eb75762000eb6620017f3565b5b62000ec484828562001681565b509392505050565b60008135905062000edd8162001a07565b92915050565b60008135905062000ef48162001a21565b92915050565b600082601f83011262000f125762000f11620017ee565b5b813562000f2484826020860162000e81565b91505092915050565b60008135905062000f3e8162001a3b565b92915050565b60008135905062000f558162001a55565b92915050565b60006020828403121562000f745762000f73620017fd565b5b600062000f848482850162000ecc565b91505092915050565b600080600080600080600060e0888a03121562000faf5762000fae620017fd565b5b600062000fbf8a828b0162000ecc565b975050602062000fd28a828b0162000ecc565b965050604062000fe58a828b0162000f2d565b955050606062000ff88a828b0162000f44565b94505060806200100b8a828b0162000f2d565b93505060a06200101e8a828b0162000ee3565b92505060c0620010318a828b0162000ee3565b91505092959891949750929550565b600060208284031215620010595762001058620017fd565b5b600082013567ffffffffffffffff8111156200107a5762001079620017f8565b5b620010888482850162000efa565b91505092915050565b6200109c81620015a7565b82525050565b620010ad81620015bb565b82525050565b620010be8162001631565b82525050565b620010cf8162001645565b82525050565b620010e081620015f0565b82525050565b6000620010f38262001550565b620010ff81856200155b565b93506200111181856020860162001690565b6200111c8162001802565b840191505092915050565b6000620011366022836200155b565b9150620011438262001813565b604082019050919050565b60006200115d601b836200155b565b91506200116a8262001862565b602082019050919050565b6000620011846025836200155b565b915062001191826200188b565b604082019050919050565b6000620011ab601a836200155b565b9150620011b882620018da565b602082019050919050565b6000620011d26028836200155b565b9150620011df8262001903565b604082019050919050565b6000620011f9602c836200155b565b9150620012068262001952565b604082019050919050565b600062001220602f836200155b565b91506200122d82620019a1565b604082019050919050565b62001243816200161a565b82525050565b620012548162001624565b82525050565b600060608201905062001271600083018662001091565b62001280602083018562001091565b6200128f604083018462001238565b949350505050565b6000602082019050620012ae6000830184620010a2565b92915050565b6000602082019050620012cb6000830184620010b3565b92915050565b6000602082019050620012e86000830184620010c4565b92915050565b600060208201905081810360008301526200130a8184620010e6565b905092915050565b600060208201905081810360008301526200132d8162001127565b9050919050565b600060208201905081810360008301526200134f816200114e565b9050919050565b60006020820190508181036000830152620013718162001175565b9050919050565b6000602082019050818103600083015262001393816200119c565b9050919050565b60006020820190508181036000830152620013b581620011c3565b9050919050565b60006020820190508181036000830152620013d781620011ea565b9050919050565b60006020820190508181036000830152620013f98162001211565b9050919050565b600060208201905062001417600083018462001238565b92915050565b600060408201905062001434600083018562001238565b62001443602083018462001091565b9392505050565b600060808201905062001461600083018762001238565b620014706020830186620010d5565b6200147f604083018562001091565b6200148e606083018462001091565b95945050505050565b6000606082019050620014ae600083018662001238565b620014bd602083018562001249565b620014cc604083018462001238565b949350505050565b6000602082019050620014eb600083018462001249565b92915050565b6000620014fd62001510565b90506200150b8282620016fc565b919050565b6000604051905090565b600067ffffffffffffffff821115620015385762001537620017bf565b5b620015438262001802565b9050602081019050919050565b600081519050919050565b600082825260208201905092915050565b600062001579826200161a565b915062001586836200161a565b9250828210156200159c576200159b62001732565b5b828203905092915050565b6000620015b482620015fa565b9050919050565b60008115159050919050565b6000620015d482620015a7565b9050919050565b6000819050620015eb82620019f0565b919050565b6000819050919050565b600073ffffffffffffffffffffffffffffffffffffffff82169050919050565b6000819050919050565b600060ff82169050919050565b60006200163e8262001659565b9050919050565b60006200165282620015db565b9050919050565b600062001666826200166d565b9050919050565b60006200167a82620015fa565b9050919050565b82818337600083830152505050565b60005b83811015620016b057808201518184015260208101905062001693565b83811115620016c0576000848401525b50505050565b60006002820490506001821680620016df57607f821691505b60208210811415620016f657620016f562001790565b5b50919050565b620017078262001802565b810181811067ffffffffffffffff82111715620017295762001728620017bf565b5b80604052505050565b7f4e487b7100000000000000000000000000000000000000000000000000000000600052601160045260246000fd5b7f4e487b7100000000000000000000000000000000000000000000000000000000600052602160045260246000fd5b7f4e487b7100000000000000000000000000000000000000000000000000000000600052602260045260246000fd5b7f4e487b7100000000000000000000000000000000000000000000000000000000600052604160045260246000fd5b600080fd5b600080fd5b600080fd5b600080fd5b6000601f19601f8301169050919050565b7f4c6f6e6720616e642073686f72742063616e27742062652073616d652070617260008201527f7479000000000000000000000000000000000000000000000000000000000000602082015250565b7f53686f72742063616e2774206265207a65726f20616464726573730000000000600082015250565b7f436f6e74726163742068617320746f20626520696e20496e697469617465642060008201527f7374617465000000000000000000000000000000000000000000000000000000602082015250565b7f4c6f6e672063616e2774206265207a65726f2061646472657373000000000000600082015250565b7f46464120636f6e74726163742068617320746f2065787069726520696e20746860008201527f6520667574757265000000000000000000000000000000000000000000000000602082015250565b7f44656661756c74696e672063616e206f6e6c792068617070656e206265666f7260008201527f652065787069726174696f6e0000000000000000000000000000000000000000602082015250565b7f536574746c656d656e742063616e6e6f74206f6363757265206265666f72652060008201527f65787069726174696f6e20646174650000000000000000000000000000000000602082015250565b6004811062001a045762001a0362001761565b5b50565b62001a1281620015a7565b811462001a1e57600080fd5b50565b62001a2c81620015c7565b811462001a3857600080fd5b50565b62001a46816200161a565b811462001a5257600080fd5b50565b62001a608162001624565b811462001a6c57600080fd5b5056fe60806040523480156200001157600080fd5b5060405162000e9e38038062000e9e83398181016040528101906200003791906200028c565b60008060006101000a81548160ff02191690831515021790555062000071620000656200009160201b60201c565b6200009960201b60201c565b8060019080519060200190620000899291906200015e565b505062000461565b600033905090565b60008060019054906101000a900473ffffffffffffffffffffffffffffffffffffffff16905081600060016101000a81548173ffffffffffffffffffffffffffffffffffffffff021916908373ffffffffffffffffffffffffffffffffffffffff1602179055508173ffffffffffffffffffffffffffffffffffffffff168173ffffffffffffffffffffffffffffffffffffffff167f8be0079c531659141344cd1fd0a4f28419497f9722a3daafe3b4186f6b6457e060405160405180910390a35050565b8280546200016c9062000372565b90600052602060002090601f016020900481019282620001905760008555620001dc565b82601f10620001ab57805160ff1916838001178555620001dc565b82800160010185558215620001dc579182015b82811115620001db578251825591602001919060010190620001be565b5b509050620001eb9190620001ef565b5090565b5b808211156200020a576000816000905550600101620001f0565b5090565b6000620002256200021f8462000306565b620002dd565b90508281526020810184848401111562000244576200024362000441565b5b620002518482856200033c565b509392505050565b600082601f8301126200027157620002706200043c565b5b8151620002838482602086016200020e565b91505092915050565b600060208284031215620002a557620002a46200044b565b5b600082015167ffffffffffffffff811115620002c657620002c562000446565b5b620002d48482850162000259565b91505092915050565b6000620002e9620002fc565b9050620002f78282620003a8565b919050565b6000604051905090565b600067ffffffffffffffff8211156200032457620003236200040d565b5b6200032f8262000450565b9050602081019050919050565b60005b838110156200035c5780820151818401526020810190506200033f565b838111156200036c576000848401525b50505050565b600060028204905060018216806200038b57607f821691505b60208210811415620003a257620003a1620003de565b5b50919050565b620003b38262000450565b810181811067ffffffffffffffff82111715620003d557620003d46200040d565b5b80604052505050565b7f4e487b7100000000000000000000000000000000000000000000000000000000600052602260045260246000fd5b7f4e487b7100000000000000000000000000000000000000000000000000000000600052604160045260246000fd5b600080fd5b600080fd5b600080fd5b600080fd5b6000601f19601f8301169050919050565b610a2d80620004716000396000f3fe608060405234801561001057600080fd5b506004361061007d5760003560e01c8063715018a61161005b578063715018a6146100ee5780638da5cb5b146100f8578063dfeff66114610116578063f2fde38b146101325761007d565b806317d7de7c146100825780632a1e15e7146100a05780635c975abb146100d0575b600080fd5b61008a61014e565b60405161009791906107c6565b60405180910390f35b6100ba60048036038101906100b59190610651565b6101e0565b6040516100c79190610828565b60405180910390f35b6100d8610267565b6040516100e591906107ab565b60405180910390f35b6100f661027d565b005b610100610305565b60405161010d9190610790565b60405180910390f35b610130600480360381019061012b9190610691565b61032e565b005b61014c60048036038101906101479190610624565b610435565b005b60606001805461015d906108da565b80601f0160208091040260200160405190810160405280929190818152602001828054610189906108da565b80156101d65780601f106101ab576101008083540402835291602001916101d6565b820191906000526020600020905b8154815290600101906020018083116101b957829003601f168201915b5050505050905090565b6000600260008473ffffffffffffffffffffffffffffffffffffffff1673ffffffffffffffffffffffffffffffffffffffff16815260200190815260200160002060008373ffffffffffffffffffffffffffffffffffffffff1673ffffffffffffffffffffffffffffffffffffffff16815260200190815260200160002054905092915050565b60008060009054906101000a900460ff16905090565b61028561052d565b73ffffffffffffffffffffffffffffffffffffffff166102a3610305565b73ffffffffffffffffffffffffffffffffffffffff16146102f9576040517f08c379a00000000000000000000000000000000000000000000000000000000081526004016102f090610808565b60405180910390fd5b6103036000610535565b565b60008060019054906101000a900473ffffffffffffffffffffffffffffffffffffffff16905090565b80600260008573ffffffffffffffffffffffffffffffffffffffff1673ffffffffffffffffffffffffffffffffffffffff16815260200190815260200160002060008473ffffffffffffffffffffffffffffffffffffffff1673ffffffffffffffffffffffffffffffffffffffff1681526020019081526020016000208190555080600360008473ffffffffffffffffffffffffffffffffffffffff1673ffffffffffffffffffffffffffffffffffffffff16815260200190815260200160002060008573ffffffffffffffffffffffffffffffffffffffff1673ffffffffffffffffffffffffffffffffffffffff16815260200190815260200160002081905550505050565b61043d61052d565b73ffffffffffffffffffffffffffffffffffffffff1661045b610305565b73ffffffffffffffffffffffffffffffffffffffff16146104b1576040517f08c379a00000000000000000000000000000000000000000000000000000000081526004016104a890610808565b60405180910390fd5b600073ffffffffffffffffffffffffffffffffffffffff168173ffffffffffffffffffffffffffffffffffffffff161415610521576040517f08c379a0000000000000000000000000000000000000000000000000000000008152600401610518906107e8565b60405180910390fd5b61052a81610535565b50565b600033905090565b60008060019054906101000a900473ffffffffffffffffffffffffffffffffffffffff16905081600060016101000a81548173ffffffffffffffffffffffffffffffffffffffff021916908373ffffffffffffffffffffffffffffffffffffffff1602179055508173ffffffffffffffffffffffffffffffffffffffff168173ffffffffffffffffffffffffffffffffffffffff167f8be0079c531659141344cd1fd0a4f28419497f9722a3daafe3b4186f6b6457e060405160405180910390a35050565b600081359050610609816109c9565b92915050565b60008135905061061e816109e0565b92915050565b60006020828403121561063a5761063961093b565b5b6000610648848285016105fa565b91505092915050565b600080604083850312156106685761066761093b565b5b6000610676858286016105fa565b9250506020610687858286016105fa565b9150509250929050565b6000806000606084860312156106aa576106a961093b565b5b60006106b8868287016105fa565b93505060206106c9868287016105fa565b92505060406106da8682870161060f565b9150509250925092565b6106ed8161085f565b82525050565b6106fc81610871565b82525050565b600061070d82610843565b610717818561084e565b93506107278185602086016108a7565b61073081610940565b840191505092915050565b600061074860268361084e565b915061075382610951565b604082019050919050565b600061076b60208361084e565b9150610776826109a0565b602082019050919050565b61078a8161089d565b82525050565b60006020820190506107a560008301846106e4565b92915050565b60006020820190506107c060008301846106f3565b92915050565b600060208201905081810360008301526107e08184610702565b905092915050565b600060208201905081810360008301526108018161073b565b9050919050565b600060208201905081810360008301526108218161075e565b9050919050565b600060208201905061083d6000830184610781565b92915050565b600081519050919050565b600082825260208201905092915050565b600061086a8261087d565b9050919050565b60008115159050919050565b600073ffffffffffffffffffffffffffffffffffffffff82169050919050565b6000819050919050565b60005b838110156108c55780820151818401526020810190506108aa565b838111156108d4576000848401525b50505050565b600060028204905060018216806108f257607f821691505b602082108114156109065761090561090c565b5b50919050565b7f4e487b7100000000000000000000000000000000000000000000000000000000600052602260045260246000fd5b600080fd5b6000601f19601f8301169050919050565b7f4f776e61626c653a206e6577206f776e657220697320746865207a65726f206160008201527f6464726573730000000000000000000000000000000000000000000000000000602082015250565b7f4f776e61626c653a2063616c6c6572206973206e6f7420746865206f776e6572600082015250565b6109d28161085f565b81146109dd57600080fd5b50565b6109e98161089d565b81146109f457600080fd5b5056fea264697066735822122007d9c007ee135966a9fd82a89a05d5e05655f47abe8ab4645b716ef2c3f5022a64736f6c63430008070033a26469706673582212201a2ff0b1a99e0146c700866e0bb3447b1333a771e93d888b6f6386bf0717b55c64736f6c63430008070033",
  "immutableReferences": {},
  "source": "// SPDX-License-Identifier: UNLICENSED\r\n\r\npragma solidity ^0.8.6;\r\n\r\nimport \"../utils/BokkyPooBahsDateTimeLibrary.sol\";\r\nimport \"@openzeppelin/contracts/access/Ownable.sol\";\r\nimport \"@openzeppelin/contracts/token/ERC20/IERC20.sol\";\r\nimport \"@openzeppelin/contracts/token/ERC20/utils/SafeERC20.sol\";\r\nimport \"@openzeppelin/contracts/utils/math/SafeMath.sol\";\r\n\r\nimport \"../interfaces/IFFAContract.sol\";\r\nimport \"./ChainlinkOracle.sol\";\r\nimport \"./CollateralWallet.sol\";\r\n\r\ncontract FFAContract is IFFAContract{\r\n        using SafeERC20 for IERC20;\r\n\r\n        //state of contract\r\n        enum ContractState {Created, Initiated, Settled, Defaulted}\r\n\r\n        //contract detail\r\n        string private name;\r\n        string private symbol;\r\n        uint8 private decimals;\r\n        ContractState public contractState;\r\n        uint256 private sizeOfContract;\r\n        address private long;\r\n        address private short;\r\n        uint256 private forwardPrice;\r\n        uint8 private riskFreeRate;\r\n        uint256 private expirationDate;\r\n\r\n        //collateral wallets\r\n        CollateralWallet private longWallet;\r\n        CollateralWallet private shortWallet;\r\n\r\n\r\n        //margin requirements\r\n        uint256 private initialMargin;\r\n        uint256 private maintenanceMargin;\r\n\r\n        //valuation\r\n        int256 private value;\r\n        uint256 private valuationDate;\r\n\r\n        //underlying index price oracle\r\n        //address private oracleAddress;\r\n        //bytes32 private jobId;\r\n        ChainlinkOracle internal valuationOracle;\r\n\r\n        //add events to interface\r\n\r\n        constructor(\r\n            string memory _name, \r\n            string memory _symbol, \r\n            //address _oracleAddress,\r\n            //bytes32 _jobId, \r\n            uint8 _decimals,\r\n            uint256 _sizeOfContract\r\n        ) {\r\n            name = _name;\r\n            symbol = _symbol;\r\n            //oracleAddress = _oracleAddress;\r\n            //jobId = _jobId;\r\n            decimals = _decimals;\r\n            sizeOfContract = _sizeOfContract;\r\n            //valuationOracle = new ChainlinkOracle(oracleAddress, jobId);//not sure\r\n            contractState = ContractState.Created;\r\n            emit CreatedContract(decimals, sizeOfContract);\r\n        }\r\n\r\n        //initiation\r\n        function initiateFFA(address _long, address _short, uint256 _forwardPrice, \r\n                             uint8 _riskFreeRate, uint256 _expirationDate,\r\n                             CollateralWallet _longWallet, CollateralWallet _shortWallet) \r\n                             external override returns (bool initiated_) {\r\n            require(_long != address(0), \"Long can't be zero address\");\r\n            require(_short != address(0), \"Short can't be zero address\");\r\n            require(_long != _short, \"Long and short can't be same party\");\r\n            require(BokkyPooBahsDateTimeLibrary.diffSeconds(block.timestamp, _expirationDate) > 0, \"FFA contract has to expire in the future\");\r\n            long = _long;\r\n            short = _short;\r\n            forwardPrice = _forwardPrice;\r\n            riskFreeRate = _riskFreeRate;\r\n            expirationDate = _expirationDate;\r\n            longWallet = _longWallet;\r\n            shortWallet = _shortWallet;\r\n            contractState = ContractState.Initiated;\r\n            //Do i need to deal with allowance?\r\n            emit Initiated(long, short, forwardPrice, riskFreeRate, expirationDate);\r\n            initiated_ = true;\r\n        }\r\n\r\n        //calculate value of contract\r\n        function calcFFAValue() external override returns (uint256 value_) {\r\n            valuationDate = block.timestamp;\r\n            //use valuation oracle here\r\n            \r\n            value_ = 0;\r\n        }\r\n\r\n        //mark to market\r\n        function markToMarket() external override returns (bool markedToMarket_) {\r\n            //check requirements\r\n            require(contractState == ContractState.Initiated, \"Contract has to be in Initiated state\");\r\n            //require(BokkyPooBahsDateTimeLibrary.diffSeconds(block.timestamp, expirationDate) > 0, \"M to m can only happen before expiration\");\r\n            //check allowance if neccessary here\r\n\r\n            //calculate net daily payoff\r\n            int256 dailyPayoff = 0;\r\n\r\n            //delivery within collateral wallets\r\n\r\n            //emit event\r\n            emit MarkedToMarket(block.timestamp, dailyPayoff, long, short);\r\n            markedToMarket_ = true;\r\n        }\r\n\r\n        //settle contract \r\n        function settleAtExpiration() public override returns (bool settled_) {\r\n            require(BokkyPooBahsDateTimeLibrary.diffSeconds(expirationDate, block.timestamp) >= 0, \"Settlement cannot occure before expiration date\" );\r\n            require(contractState == ContractState.Initiated, \"Contract has to be in Initiated state\");\r\n\r\n            //change contract state and emit event\r\n            contractState = ContractState.Settled;\r\n            emit Settled(long, short, expirationDate);\r\n            settled_ = true;\r\n        }\r\n\r\n        //default contract\r\n        function defaultContract(address _defaultingParty) public override returns (bool defaulted_) {\r\n            require(contractState == ContractState.Initiated, \"Contract has to be in Initiated state\");\r\n            require(BokkyPooBahsDateTimeLibrary.diffSeconds(block.timestamp, expirationDate) > 0, \"Defaulting can only happen before expiration\");\r\n\r\n            //change contract state and emit event\r\n            contractState = ContractState.Defaulted;\r\n            emit Defaulted(block.timestamp, _defaultingParty);\r\n            defaulted_ = true;\r\n        }\r\n\r\n        function transferCollateralFrom(CollateralWallet senderWallet, CollateralWallet recipientWallet, uint256 amount, address collateralTokenAddress) internal returns (bool transfered_){\r\n            uint256 originalSenderMappedBalance = senderWallet.getMappedBalance(address(this), collateralTokenAddress);\r\n            require(originalSenderMappedBalance >= amount, \"collateral balance not sufficient\");\r\n\r\n            IERC20(collateralTokenAddress).safeTransfer(address(recipientWallet), amount);\r\n\r\n            //deduct from sender balance mapping\r\n            unchecked {\r\n                uint256 newSenderMappedBalance = originalSenderMappedBalance - amount;\r\n                senderWallet.setNewBalance(address(this), collateralTokenAddress, newSenderMappedBalance);\r\n            }\r\n\r\n            //add to recipient balance mapping\r\n            uint256 newRecipientMappedBalance = recipientWallet.getMappedBalance(address(this), collateralTokenAddress) + amount;\r\n            recipientWallet.setNewBalance(address(this), collateralTokenAddress, newRecipientMappedBalance);\r\n\r\n            transfered_ = true;\r\n        }\r\n\r\n        function createCollateralWallet(string memory _name) external returns(CollateralWallet collateralWallet_) {\r\n            collateralWallet_ = new CollateralWallet(_name);\r\n        }\r\n\r\n        //what about receive and fallback functions\r\n\r\n        //include getter functions here\r\n        function getContractState() external view returns(string memory) {\r\n            if (contractState == ContractState.Created) {\r\n                return \"Created\";\r\n            } else if (contractState == ContractState.Initiated) {\r\n                return \"Initiated\";\r\n            } else if (contractState == ContractState.Settled) {\r\n                return \"Settled\";\r\n            } else if (contractState == ContractState.Defaulted) {\r\n                return \"Defaulted\";\r\n            } else {\r\n                return \"state error\";\r\n            }\r\n        }\r\n\r\n        function getName() external view returns(string memory) {\r\n            return name;\r\n        }\r\n\r\n        function getSymbol() external view returns(string memory) {\r\n            return symbol;\r\n        }\r\n        \r\n        function getSizeOfContract() external view returns(uint256) {\r\n            return sizeOfContract;\r\n        }\r\n\r\n        function getDecimals() external view returns (uint8) {\r\n            return decimals;\r\n        }\r\n\r\n\r\n\r\n}",
  "sourcePath": "C:\\Users\\Tomi\\OneDrive - The University of Chicago\\Documents\\Securrency\\FuturesExchange\\contracts\\FFAContract.sol",
  "compiler": {
    "name": "solc",
    "version": "0.8.7+commit.e28d00a7.Emscripten.clang"
  },
  "schemaVersion": "3.4.2",
  "updatedAt": "2021-08-12T11:56:31.548Z",
  "networkType": "ethereum",
  "devdoc": {
    "kind": "dev",
    "methods": {},
    "version": 1
  },
  "userdoc": {
    "kind": "user",
    "methods": {},
    "version": 1
  }
}