{
  "contractName": "FFAContract",
  "abi": [
    {
      "inputs": [
        {
          "internalType": "string",
          "name": "_name",
          "type": "string"
        },
        {
          "internalType": "string",
          "name": "_symbol",
          "type": "string"
        },
        {
          "internalType": "uint256",
          "name": "_sizeOfContract",
          "type": "uint256"
        },
        {
          "internalType": "string",
          "name": "_underlyingApiURL",
          "type": "string"
        },
        {
          "internalType": "string",
          "name": "_underlyingApiPath",
          "type": "string"
        },
        {
          "internalType": "int256",
          "name": "_underlyingDecimals",
          "type": "int256"
        }
      ],
      "stateMutability": "nonpayable",
      "type": "constructor"
    },
    {
      "anonymous": false,
      "inputs": [
        {
          "indexed": false,
          "internalType": "int256",
          "name": "decimals",
          "type": "int256"
        },
        {
          "indexed": false,
          "internalType": "uint256",
          "name": "sizeOfContract",
          "type": "uint256"
        }
      ],
      "name": "CreatedContract",
      "type": "event"
    },
    {
      "anonymous": false,
      "inputs": [
        {
          "indexed": false,
          "internalType": "uint256",
          "name": "defaultDate",
          "type": "uint256"
        },
        {
          "indexed": false,
          "internalType": "address",
          "name": "defaultingParty",
          "type": "address"
        }
      ],
      "name": "Defaulted",
      "type": "event"
    },
    {
      "anonymous": false,
      "inputs": [
        {
          "indexed": true,
          "internalType": "address",
          "name": "long",
          "type": "address"
        },
        {
          "indexed": true,
          "internalType": "address",
          "name": "short",
          "type": "address"
        },
        {
          "indexed": false,
          "internalType": "uint256",
          "name": "initialForwardPrice",
          "type": "uint256"
        },
        {
          "indexed": false,
          "internalType": "int256",
          "name": "riskFreeRate",
          "type": "int256"
        },
        {
          "indexed": false,
          "internalType": "uint256",
          "name": "expirationDate",
          "type": "uint256"
        },
        {
          "indexed": false,
          "internalType": "uint256",
          "name": "sizeOfContract",
          "type": "uint256"
        },
        {
          "indexed": false,
          "internalType": "uint256",
          "name": "initialMarginRate",
          "type": "uint256"
        }
      ],
      "name": "Initiated",
      "type": "event"
    },
    {
      "anonymous": false,
      "inputs": [
        {
          "indexed": false,
          "internalType": "uint256",
          "name": "mtmDate",
          "type": "uint256"
        },
        {
          "indexed": false,
          "internalType": "int256",
          "name": "contractValueChange",
          "type": "int256"
        },
        {
          "indexed": false,
          "internalType": "address",
          "name": "long",
          "type": "address"
        },
        {
          "indexed": false,
          "internalType": "address",
          "name": "short",
          "type": "address"
        }
      ],
      "name": "MarkedToMarket",
      "type": "event"
    },
    {
      "anonymous": false,
      "inputs": [
        {
          "indexed": false,
          "internalType": "address",
          "name": "long",
          "type": "address"
        },
        {
          "indexed": false,
          "internalType": "address",
          "name": "short",
          "type": "address"
        },
        {
          "indexed": false,
          "internalType": "uint256",
          "name": "expirationDate",
          "type": "uint256"
        },
        {
          "indexed": false,
          "internalType": "int256",
          "name": "profitAndLoss",
          "type": "int256"
        }
      ],
      "name": "Settled",
      "type": "event"
    },
    {
      "inputs": [],
      "name": "annualRiskFreeRate",
      "outputs": [
        {
          "internalType": "int256",
          "name": "",
          "type": "int256"
        }
      ],
      "stateMutability": "view",
      "type": "function",
      "constant": true
    },
    {
      "inputs": [],
      "name": "exposureMarginRate",
      "outputs": [
        {
          "internalType": "uint256",
          "name": "",
          "type": "uint256"
        }
      ],
      "stateMutability": "view",
      "type": "function",
      "constant": true
    },
    {
      "inputs": [],
      "name": "initialForwardPrice",
      "outputs": [
        {
          "internalType": "uint256",
          "name": "",
          "type": "uint256"
        }
      ],
      "stateMutability": "view",
      "type": "function",
      "constant": true
    },
    {
      "inputs": [],
      "name": "maintenanceMarginRate",
      "outputs": [
        {
          "internalType": "uint256",
          "name": "",
          "type": "uint256"
        }
      ],
      "stateMutability": "view",
      "type": "function",
      "constant": true
    },
    {
      "inputs": [],
      "name": "prevDayClosingPrice",
      "outputs": [
        {
          "internalType": "uint256",
          "name": "",
          "type": "uint256"
        }
      ],
      "stateMutability": "view",
      "type": "function",
      "constant": true
    },
    {
      "inputs": [],
      "name": "underlyingDecimals",
      "outputs": [
        {
          "internalType": "int256",
          "name": "",
          "type": "int256"
        }
      ],
      "stateMutability": "view",
      "type": "function",
      "constant": true
    },
    {
      "inputs": [
        {
          "internalType": "address",
          "name": "_long",
          "type": "address"
        },
        {
          "internalType": "address",
          "name": "_short",
          "type": "address"
        },
        {
          "internalType": "uint256",
          "name": "_expirationDate",
          "type": "uint256"
        },
        {
          "internalType": "address",
          "name": "_longWallet",
          "type": "address"
        },
        {
          "internalType": "address",
          "name": "_shortWallet",
          "type": "address"
        },
        {
          "internalType": "uint256",
          "name": "_exposureMarginRate",
          "type": "uint256"
        },
        {
          "internalType": "uint256",
          "name": "_maintenanceMarginRate",
          "type": "uint256"
        },
        {
          "internalType": "address",
          "name": "_collateralTokenAddress",
          "type": "address"
        }
      ],
      "name": "initiateFFA",
      "outputs": [
        {
          "internalType": "bool",
          "name": "initiated_",
          "type": "bool"
        }
      ],
      "stateMutability": "nonpayable",
      "type": "function"
    },
    {
      "inputs": [],
      "name": "requestRiskFreeRate",
      "outputs": [],
      "stateMutability": "nonpayable",
      "type": "function"
    },
    {
      "inputs": [],
      "name": "setRiskFreeRate",
      "outputs": [],
      "stateMutability": "nonpayable",
      "type": "function"
    },
    {
      "inputs": [],
      "name": "requestUnderlyingPrice",
      "outputs": [],
      "stateMutability": "nonpayable",
      "type": "function"
    },
    {
      "inputs": [],
      "name": "setUnderlyingPrice",
      "outputs": [],
      "stateMutability": "nonpayable",
      "type": "function"
    },
    {
      "inputs": [],
      "name": "requestForwardPrice",
      "outputs": [],
      "stateMutability": "nonpayable",
      "type": "function"
    },
    {
      "inputs": [],
      "name": "getForwardPrice",
      "outputs": [
        {
          "internalType": "uint256",
          "name": "",
          "type": "uint256"
        }
      ],
      "stateMutability": "view",
      "type": "function",
      "constant": true
    },
    {
      "inputs": [
        {
          "internalType": "uint256",
          "name": "currentForwardPrice",
          "type": "uint256"
        }
      ],
      "name": "markToMarket",
      "outputs": [],
      "stateMutability": "nonpayable",
      "type": "function"
    },
    {
      "inputs": [],
      "name": "settleAtExpiration",
      "outputs": [],
      "stateMutability": "nonpayable",
      "type": "function"
    },
    {
      "inputs": [
        {
          "internalType": "address",
          "name": "_defaultingParty",
          "type": "address"
        }
      ],
      "name": "defaultContract",
      "outputs": [
        {
          "internalType": "bool",
          "name": "defaulted_",
          "type": "bool"
        }
      ],
      "stateMutability": "nonpayable",
      "type": "function"
    },
    {
      "inputs": [
        {
          "internalType": "address",
          "name": "senderWalletAddress",
          "type": "address"
        },
        {
          "internalType": "address",
          "name": "recipientWalletAddress",
          "type": "address"
        },
        {
          "internalType": "uint256",
          "name": "amount",
          "type": "uint256"
        },
        {
          "internalType": "address",
          "name": "_collateralTokenAddress",
          "type": "address"
        }
      ],
      "name": "transferCollateralFrom",
      "outputs": [
        {
          "internalType": "bool",
          "name": "transfered_",
          "type": "bool"
        }
      ],
      "stateMutability": "nonpayable",
      "type": "function"
    },
    {
      "inputs": [],
      "name": "getContractState",
      "outputs": [
        {
          "internalType": "string",
          "name": "",
          "type": "string"
        }
      ],
      "stateMutability": "view",
      "type": "function",
      "constant": true
    },
    {
      "inputs": [],
      "name": "getName",
      "outputs": [
        {
          "internalType": "string",
          "name": "",
          "type": "string"
        }
      ],
      "stateMutability": "view",
      "type": "function",
      "constant": true
    },
    {
      "inputs": [],
      "name": "getSymbol",
      "outputs": [
        {
          "internalType": "string",
          "name": "",
          "type": "string"
        }
      ],
      "stateMutability": "view",
      "type": "function",
      "constant": true
    },
    {
      "inputs": [],
      "name": "getSizeOfContract",
      "outputs": [
        {
          "internalType": "uint256",
          "name": "",
          "type": "uint256"
        }
      ],
      "stateMutability": "view",
      "type": "function",
      "constant": true
    },
    {
      "inputs": [],
      "name": "getUnderlyingDecimals",
      "outputs": [
        {
          "internalType": "int256",
          "name": "",
          "type": "int256"
        }
      ],
      "stateMutability": "view",
      "type": "function",
      "constant": true
    },
    {
      "inputs": [],
      "name": "getLong",
      "outputs": [
        {
          "internalType": "address",
          "name": "",
          "type": "address"
        }
      ],
      "stateMutability": "view",
      "type": "function",
      "constant": true
    },
    {
      "inputs": [],
      "name": "getShort",
      "outputs": [
        {
          "internalType": "address",
          "name": "",
          "type": "address"
        }
      ],
      "stateMutability": "view",
      "type": "function",
      "constant": true
    },
    {
      "inputs": [],
      "name": "getInitialForwardPrice",
      "outputs": [
        {
          "internalType": "uint256",
          "name": "",
          "type": "uint256"
        }
      ],
      "stateMutability": "view",
      "type": "function",
      "constant": true
    },
    {
      "inputs": [],
      "name": "getExpirationDate",
      "outputs": [
        {
          "internalType": "uint256",
          "name": "",
          "type": "uint256"
        }
      ],
      "stateMutability": "view",
      "type": "function",
      "constant": true
    },
    {
      "inputs": [],
      "name": "getLongWalletAddress",
      "outputs": [
        {
          "internalType": "address",
          "name": "",
          "type": "address"
        }
      ],
      "stateMutability": "view",
      "type": "function",
      "constant": true
    },
    {
      "inputs": [],
      "name": "getShortWalletAddress",
      "outputs": [
        {
          "internalType": "address",
          "name": "",
          "type": "address"
        }
      ],
      "stateMutability": "view",
      "type": "function",
      "constant": true
    },
    {
      "inputs": [],
      "name": "getUnderlyingApiURL",
      "outputs": [
        {
          "internalType": "string",
          "name": "",
          "type": "string"
        }
      ],
      "stateMutability": "view",
      "type": "function",
      "constant": true
    },
    {
      "inputs": [],
      "name": "getUnderlyingApiPath",
      "outputs": [
        {
          "internalType": "string",
          "name": "",
          "type": "string"
        }
      ],
      "stateMutability": "view",
      "type": "function",
      "constant": true
    }
  ],
  "bytecode": "0x60806040523480156200001157600080fd5b50604051620086a5380380620086a5833981016040819052620000349162000333565b855162000049906000906020890190620001ac565b5084516200005f906001906020880190620001ac565b50600384905581516200007a906011906020850190620001ac565b50825162000090906010906020860190620001ac565b506012819055604051620000a4906200023b565b604051809103906000f080158015620000c1573d6000803e3d6000fd5b50601360006101000a8154816001600160a01b0302191690836001600160a01b0316021790555060125460106011604051620000fd9062000249565b6200010b93929190620004a6565b604051809103906000f08015801562000128573d6000803e3d6000fd5b50601480546001600160a01b0319166001600160a01b0392909216919091179055604051620001579062000257565b604051809103906000f08015801562000174573d6000803e3d6000fd5b50601580546001600160a01b0319166001600160a01b039290921691909117905550506002805460ff19169055506200052892505050565b828054620001ba90620004d5565b90600052602060002090601f016020900481019282620001de576000855562000229565b82601f10620001f957805160ff191683800117855562000229565b8280016001018555821562000229579182015b82811115620002295782518255916020019190600101906200020c565b506200023792915062000265565b5090565b611ee3806200248283390190565b611f30806200436583390190565b612410806200629583390190565b5b8082111562000237576000815560010162000266565b600082601f8301126200028e57600080fd5b81516001600160401b0380821115620002ab57620002ab62000512565b604051601f8301601f19908116603f01168101908282118183101715620002d657620002d662000512565b81604052838152602092508683858801011115620002f357600080fd5b600091505b83821015620003175785820183015181830184015290820190620002f8565b83821115620003295760008385830101525b9695505050505050565b60008060008060008060c087890312156200034d57600080fd5b86516001600160401b03808211156200036557600080fd5b620003738a838b016200027c565b975060208901519150808211156200038a57600080fd5b620003988a838b016200027c565b9650604089015195506060890151915080821115620003b657600080fd5b620003c48a838b016200027c565b94506080890151915080821115620003db57600080fd5b50620003ea89828a016200027c565b92505060a087015190509295509295509295565b8054600090600181811c90808316806200041957607f831692505b60208084108214156200043c57634e487b7160e01b600052602260045260246000fd5b838852602088018280156200045a57600181146200046c5762000499565b60ff1987168252828201975062000499565b60008981526020902060005b87811015620004935781548482015290860190840162000478565b83019850505b5050505050505092915050565b838152606060208201526000620004c16060830185620003fe565b8281036040840152620003298185620003fe565b600181811c90821680620004ea57607f821691505b602082108114156200050c57634e487b7160e01b600052602260045260246000fd5b50919050565b634e487b7160e01b600052604160045260246000fd5b611f4a80620005386000396000f3fe608060405234801561001057600080fd5b50600436106101da5760003560e01c80637ed63ce91161010457806392081a47116100a2578063b317f5ec11610071578063b317f5ec14610332578063c5bf38a114610343578063c82ee7ab14610356578063e279cbe11461036757600080fd5b806392081a4714610311578063923123b3146103195780639b65569114610321578063addcb0e61461032957600080fd5b806385cbefa9116100de57806385cbefa9146102e557806389f00b6d146102ed5780638d2d8c5e146102f65780638f896f50146102fe57600080fd5b80637ed63ce9146102c25780637f4e4849146102ca57806380af00ca146102d257600080fd5b8063381cf2e81161017c578063616ab42c1161014b578063616ab42c146102995780636621f80d146102a1578063708febc8146102a957806370a4cd34146102ba57600080fd5b8063381cf2e81461025b57806347d3fa6d146102645780635ccee5fa146102895780635edf7d8b1461029157600080fd5b806325a760c2116101b857806325a760c21461020f5780632edef21614610226578063343d20881461022f5780633448f6591461023857600080fd5b806315070401146101df57806317d7de7c146101fd5780631bc7d9ab14610205575b600080fd5b6101e761036f565b6040516101f49190611cf9565b60405180910390f35b6101e7610401565b61020d610410565b005b61021860125481565b6040519081526020016101f4565b610218600f5481565b61021860065481565b61024b610246366004611ae2565b6104ca565b60405190151581526020016101f4565b61021860075481565b6004546001600160a01b03165b6040516001600160a01b0390911681526020016101f4565b61020d61061c565b600854610218565b6101e7610654565b610218610663565b600b546001600160a01b0316610271565b61020d6106fe565b61020d610897565b6101e7610942565b61020d6102e0366004611c07565b610ad7565b6101e7610ccd565b610218600e5481565b600654610218565b61024b61030c366004611afd565b610cdc565b601254610218565b600354610218565b61020d61126e565b610218600d5481565b6005546001600160a01b0316610271565b61024b610351366004611b4a565b6112f9565b600a546001600160a01b0316610271565b61020d61183c565b60606001805461037e90611e49565b80601f01602080910402602001604051908101604052809291908181526020018280546103aa90611e49565b80156103f75780601f106103cc576101008083540402835291602001916103f7565b820191906000526020600020905b8154815290600101906020018083116103da57829003601f168201915b5050505050905090565b60606000805461037e90611e49565b6013546009546001600160a01b03909116906369723be79061045990610435906118c7565b610440600754611a24565b610449426118c7565b6104546008546118c7565b611a79565b6040518263ffffffff1660e01b81526004016104759190611cf9565b602060405180830381600087803b15801561048f57600080fd5b505af11580156104a3573d6000803e3d6000fd5b505050506040513d601f19601f820116820180604052508101906104c79190611bee565b50565b6000600160025460ff1660038111156104e5576104e5611ed2565b146105455760405162461bcd60e51b815260206004820152602560248201527f436f6e74726163742068617320746f20626520696e20496e6974696174656420604482015264737461746560d81b60648201526084015b60405180910390fd5b600061055342600854611aab565b116105c65760405162461bcd60e51b815260206004820152602c60248201527f44656661756c74696e672063616e206f6e6c792068617070656e206265666f7260448201527f652065787069726174696f6e0000000000000000000000000000000000000000606482015260840161053c565b6002805460ff19166003179055604080514281526001600160a01b03841660208201527f724b99e866949401e1553ae6e0da07c7e24b0308581155730cbe34363752bd3f910160405180910390a1506001919050565b6014546040516369723be760e01b815260206004820152600060248201526001600160a01b03909116906369723be790604401610475565b60606010805461037e90611e49565b601354604080517f9df49c2300000000000000000000000000000000000000000000000000000000815290516000926001600160a01b031691639df49c23916004808301926020929190829003018186803b1580156106c157600080fd5b505afa1580156106d5573d6000803e3d6000fd5b505050506040513d601f19601f820116820180604052508101906106f99190611bee565b905090565b600061070c60085442611aab565b10156107805760405162461bcd60e51b815260206004820152602f60248201527f536574746c656d656e742063616e6e6f74206f6363757265206265666f72652060448201527f65787069726174696f6e20646174650000000000000000000000000000000000606482015260840161053c565b600160025460ff16600381111561079957610799611ed2565b146107f45760405162461bcd60e51b815260206004820152602560248201527f436f6e74726163742068617320746f20626520696e20496e6974696174656420604482015264737461746560d81b606482015260840161053c565b60006003546006546108069190611d8b565b90506000600354600f5461081a9190611d8b565b905060006108288383611daa565b6002805460ff191681179055600454600554600854604080516001600160a01b03948516815293909216602084015290820152606081018290529091507f408d2f82a05767182d614a96957816d6acbd66a392006f7aafee6d91fc880f909060800160405180910390a1505050565b6015546008546001600160a01b039091169063afb0a7d7906108ba904290611aab565b6040518263ffffffff1660e01b81526004016108d891815260200190565b600060405180830381600087803b1580156108f257600080fd5b505af1158015610906573d6000803e3d6000fd5b50506015546040516369723be760e01b815260206004820152600060248201526001600160a01b0390911692506369723be79150604401610475565b6060600060025460ff16600381111561095d5761095d611ed2565b141561099b575060408051808201909152600781527f4372656174656400000000000000000000000000000000000000000000000000602082015290565b600160025460ff1660038111156109b4576109b4611ed2565b14156109f2575060408051808201909152600981527f496e697469617465640000000000000000000000000000000000000000000000602082015290565b6002805460ff166003811115610a0a57610a0a611ed2565b1415610a48575060408051808201909152600781527f536574746c656400000000000000000000000000000000000000000000000000602082015290565b600360025460ff166003811115610a6157610a61611ed2565b1415610a9f575060408051808201909152600981527f44656661756c7465640000000000000000000000000000000000000000000000602082015290565b5060408051808201909152600b81527f7374617465206572726f72000000000000000000000000000000000000000000602082015290565b600160025460ff166003811115610af057610af0611ed2565b14610b4b5760405162461bcd60e51b815260206004820152602560248201527f436f6e74726163742068617320746f20626520696e20496e6974696174656420604482015264737461746560d81b606482015260840161053c565b6000610b5942600854611aab565b11610bcc5760405162461bcd60e51b815260206004820152602860248201527f4d20746f206d2063616e206f6e6c792068617070656e206265666f726520657860448201527f7069726174696f6e000000000000000000000000000000000000000000000000606482015260840161053c565b600060035482610bdc9190611d8b565b90506000600354600f54610bf09190611d8b565b90506000610bfe8284611daa565b90506000811315610c2f57600b54600a54600c54610c2d926001600160a01b0390811692811691859116610cdc565b505b6000811215610c6b57600a54600b54610c69916001600160a01b039081169116610c5884611e9f565b600c546001600160a01b0316610cdc565b505b600f84905560045460055460408051428152602081018590526001600160a01b0393841681830152929091166060830152517f63f10cc602ea66cf5c2a09a756a193c86ab46c33a794eb8d9aee6cf9426553a89181900360800190a150505050565b60606011805461037e90611e49565b60006001600160a01b038516610d595760405162461bcd60e51b8152602060048201526024808201527f53656e6465722077616c6c657420616464726573732063616e6e6f742062652060448201527f7a65726f00000000000000000000000000000000000000000000000000000000606482015260840161053c565b6001600160a01b038416610dd55760405162461bcd60e51b815260206004820152602760248201527f526563697069656e742077616c6c657420616464726573732063616e6e6f742060448201527f6265207a65726f00000000000000000000000000000000000000000000000000606482015260840161053c565b846001600160a01b0316846001600160a01b03161415610e5d5760405162461bcd60e51b815260206004820152602f60248201527f53656e64657220616e6420726563697069656e742077616c6c6574732063616e60448201527f6e6f74206265207468652073616d650000000000000000000000000000000000606482015260840161053c565b60008311610ed35760405162461bcd60e51b815260206004820152602e60248201527f416d6f756e74207472616e736665727265642068617320746f2062652067726560448201527f61746572207468616e207a65726f000000000000000000000000000000000000606482015260840161053c565b604051632a1e15e760e01b81523060048201526001600160a01b0383811660248301528691869160009190841690632a1e15e79060440160206040518083038186803b158015610f2257600080fd5b505afa158015610f36573d6000803e3d6000fd5b505050506040513d601f19601f82011682018060405250810190610f5a9190611bee565b905085811015610fd25760405162461bcd60e51b815260206004820152602160248201527f636f6c6c61746572616c2062616c616e6365206e6f742073756666696369656e60448201527f7400000000000000000000000000000000000000000000000000000000000000606482015260840161053c565b6040517f22604de20000000000000000000000000000000000000000000000000000000081526001600160a01b038681166004830152306024830152604482018890528416906322604de290606401600060405180830381600087803b15801561103b57600080fd5b505af115801561104f573d6000803e3d6000fd5b50506040517f23b872dd0000000000000000000000000000000000000000000000000000000081526001600160a01b038b811660048301528a81166024830152604482018a9052881692506323b872dd9150606401602060405180830381600087803b1580156110be57600080fd5b505af11580156110d2573d6000803e3d6000fd5b505050506040513d601f19601f820116820180604052508101906110f69190611bcc565b5060405163dfeff66160e01b81523060048201526001600160a01b03868116602483015287830360448301819052919085169063dfeff66190606401600060405180830381600087803b15801561114c57600080fd5b505af1158015611160573d6000803e3d6000fd5b5050604051632a1e15e760e01b81523060048201526001600160a01b038981166024830152600094508a935086169150632a1e15e79060440160206040518083038186803b1580156111b157600080fd5b505afa1580156111c5573d6000803e3d6000fd5b505050506040513d601f19601f820116820180604052508101906111e99190611bee565b6111f39190611d2c565b60405163dfeff66160e01b81523060048201526001600160a01b038881166024830152604482018390529192509084169063dfeff66190606401600060405180830381600087803b15801561124757600080fd5b505af115801561125b573d6000803e3d6000fd5b5060019c9b505050505050505050505050565b601560009054906101000a90046001600160a01b03166001600160a01b031663bd2563fb6040518163ffffffff1660e01b815260040160206040518083038186803b1580156112bc57600080fd5b505afa1580156112d0573d6000803e3d6000fd5b505050506040513d601f19601f820116820180604052508101906112f49190611bee565b600755565b60006001600160a01b0389166113515760405162461bcd60e51b815260206004820152601a60248201527f4c6f6e672063616e2774206265207a65726f2061646472657373000000000000604482015260640161053c565b6001600160a01b0388166113a75760405162461bcd60e51b815260206004820152601b60248201527f53686f72742063616e2774206265207a65726f20616464726573730000000000604482015260640161053c565b876001600160a01b0316896001600160a01b0316141561142f5760405162461bcd60e51b815260206004820152602260248201527f4c6f6e6720616e642073686f72742063616e27742062652073616d652070617260448201527f7479000000000000000000000000000000000000000000000000000000000000606482015260840161053c565b6001600160a01b0386166114aa5760405162461bcd60e51b8152602060048201526024808201527f4c6f6e672077616c6c65742063616e6e6f742068617665207a65726f2061646460448201527f7265737300000000000000000000000000000000000000000000000000000000606482015260840161053c565b6001600160a01b0385166115265760405162461bcd60e51b815260206004820152602560248201527f53686f72742077616c6c65742063616e6e6f742068617665207a65726f20616460448201527f6472657373000000000000000000000000000000000000000000000000000000606482015260840161053c565b846001600160a01b0316866001600160a01b031614156115ae5760405162461bcd60e51b815260206004820152602960248201527f6c6f6e6720616e642073686f72742077616c6c6574732063616e6e6f7420626560448201527f207468652073616d650000000000000000000000000000000000000000000000606482015260840161053c565b826116215760405162461bcd60e51b815260206004820152602660248201527f6d61696e74656e616e6365206d617267696e20726174652063616e6e6f74206260448201527f65207a65726f0000000000000000000000000000000000000000000000000000606482015260840161053c565b600061162d4289611aab565b116116a05760405162461bcd60e51b815260206004820152602860248201527f46464120636f6e74726163742068617320746f2065787069726520696e20746860448201527f6520667574757265000000000000000000000000000000000000000000000000606482015260840161053c565b600480546001600160a01b03808c1673ffffffffffffffffffffffffffffffffffffffff1992831617909255600580548b841692169190911790556015541663afb0a7d76116ee428a611aab565b6040518263ffffffff1660e01b815260040161170c91815260200190565b600060405180830381600087803b15801561172657600080fd5b505af115801561173a573d6000803e3d6000fd5b505060006006819055600f81905560088a9055600a80546001600160a01b038b811673ffffffffffffffffffffffffffffffffffffffff1992831617909255600b80548b8416908316179055600d899055600e889055600c8054928816929091169190911790556002805460ff1916600117905591506117bc90508486611d2c565b600554600454600654600754600854600354604080519485526020850193909352918301526060820152608081018490529293506001600160a01b03918216929116907fdabcbd8689bd18e2ffb54dbab7b5f14a246f19bec1c9184bee7ac6eeae2f2f299060a00160405180910390a35060019998505050505050505050565b601460009054906101000a90046001600160a01b03166001600160a01b0316639df49c236040518163ffffffff1660e01b815260040160206040518083038186803b15801561188a57600080fd5b505afa15801561189e573d6000803e3d6000fd5b505050506040513d601f19601f820116820180604052508101906118c29190611bee565b600955565b60608161190757505060408051808201909152600181527f3000000000000000000000000000000000000000000000000000000000000000602082015290565b8160005b8115611931578061191b81611e84565b915061192a9050600a83611d69565b915061190b565b60008167ffffffffffffffff81111561194c5761194c611efe565b6040519080825280601f01601f191660200182016040528015611976576020820181803683370190505b509050815b8515611a1b5761198c600182611e02565b9050600061199b600a88611d69565b6119a690600a611d8b565b6119b09088611e02565b6119bb906030611d44565b905060008160f81b9050808484815181106119d8576119d8611ee8565b60200101907effffffffffffffffffffffffffffffffffffffffffffffffffffffffffffff1916908160001a905350611a12600a89611d69565b9750505061197b565b50949350505050565b606060008212611a3d57611a37826118c7565b92915050565b611a4e611a4983611e9f565b6118c7565b604051602001611a5e9190611cb4565b6040516020818303038152906040529050919050565b919050565b606084848484604051602001611a929493929190611c20565b6040516020818303038152906040529050949350505050565b600081831115611aba57600080fd5b611ac48383611e02565b9392505050565b80356001600160a01b0381168114611a7457600080fd5b600060208284031215611af457600080fd5b611ac482611acb565b60008060008060808587031215611b1357600080fd5b611b1c85611acb565b9350611b2a60208601611acb565b925060408501359150611b3f60608601611acb565b905092959194509250565b600080600080600080600080610100898b031215611b6757600080fd5b611b7089611acb565b9750611b7e60208a01611acb565b965060408901359550611b9360608a01611acb565b9450611ba160808a01611acb565b935060a0890135925060c08901359150611bbd60e08a01611acb565b90509295985092959890939650565b600060208284031215611bde57600080fd5b81518015158114611ac457600080fd5b600060208284031215611c0057600080fd5b5051919050565b600060208284031215611c1957600080fd5b5035919050565b60008551611c32818460208a01611e19565b80830190507f2f000000000000000000000000000000000000000000000000000000000000008082528651611c6e816001850160208b01611e19565b600192019182018190528551611c8b816002850160208a01611e19565b60029201918201528351611ca6816003840160208801611e19565b016003019695505050505050565b7f2d00000000000000000000000000000000000000000000000000000000000000815260008251611cec816001850160208701611e19565b9190910160010192915050565b6020815260008251806020840152611d18816040850160208701611e19565b601f01601f19169190910160400192915050565b60008219821115611d3f57611d3f611ebc565b500190565b600060ff821660ff84168060ff03821115611d6157611d61611ebc565b019392505050565b600082611d8657634e487b7160e01b600052601260045260246000fd5b500490565b6000816000190483118215151615611da557611da5611ebc565b500290565b600080831283600160ff1b01831281151615611dc857611dc8611ebc565b837f7fffffffffffffffffffffffffffffffffffffffffffffffffffffffffffffff018313811615611dfc57611dfc611ebc565b50500390565b600082821015611e1457611e14611ebc565b500390565b60005b83811015611e34578181015183820152602001611e1c565b83811115611e43576000848401525b50505050565b600181811c90821680611e5d57607f821691505b60208210811415611e7e57634e487b7160e01b600052602260045260246000fd5b50919050565b6000600019821415611e9857611e98611ebc565b5060010190565b6000600160ff1b821415611eb557611eb5611ebc565b5060000390565b634e487b7160e01b600052601160045260246000fd5b634e487b7160e01b600052602160045260246000fd5b634e487b7160e01b600052603260045260246000fd5b634e487b7160e01b600052604160045260246000fdfea264697066735822122001ed5eb610d9533990f0b8aedafb18d94359263edd74f240f702b1af92ee0db764736f6c6343000807003360806040526001600455600f80546001600160a01b03199081167356dd6586db0d08c6ce7b2f2805af28616e082455179091556010805490911673a36085f69e2889c224210f603d836748e7dc008817905567016345785d8a00006011557f623636303264313465343733346334396135653163653139643435613436333260125560646013553480156200009357600080fd5b5060135460405180606001604052806029815260200162001eba60299139604080518082019091526005815264707269636560d81b6020820152601254600f546010546011548692869286926000926001600160a01b03908116928892911690878787876200010233620001c5565b6001600160a01b03861662000121576200011b62000217565b6200013d565b600280546001600160a01b0319166001600160a01b0388161790555b600980546001600160a01b0319166001600160a01b038a16179055600a879055600e859055600d84905582516200017c90600c906020860190620002c8565b5081516200019290600b906020850190620002c8565b5060068054911515600160a01b0260ff60a01b1990921691909117905550620003dd9d5050505050505050505050505050565b600680546001600160a01b038381166001600160a01b0319831681179093556040519116919082907f8be0079c531659141344cd1fd0a4f28419497f9722a3daafe3b4186f6b6457e090600090a35050565b620002c673c89bd4e1632d3a43cb03aaad5262cbe4038bc5716001600160a01b03166338cc48316040518163ffffffff1660e01b815260040160206040518083038186803b1580156200026957600080fd5b505afa1580156200027e573d6000803e3d6000fd5b505050506040513d601f19601f82011682018060405250810190620002a491906200036e565b600280546001600160a01b0319166001600160a01b0392909216919091179055565b565b828054620002d690620003a0565b90600052602060002090601f016020900481019282620002fa576000855562000345565b82601f106200031557805160ff191683800117855562000345565b8280016001018555821562000345579182015b828111156200034557825182559160200191906001019062000328565b506200035392915062000357565b5090565b5b8082111562000353576000815560010162000358565b6000602082840312156200038157600080fd5b81516001600160a01b03811681146200039957600080fd5b9392505050565b600181811c90821680620003b557607f821691505b60208210811415620003d757634e487b7160e01b600052602260045260246000fd5b50919050565b611acd80620003ed6000396000f3fe60806040526004361061014b5760003560e01c8063918c00b9116100b4578063c5b37c221161006e578063ddca3f4311610056578063ddca3f4314610388578063de0a217d1461039e578063f2fde38b146103f457005b8063c5b37c221461035c578063d233da081461037257005b8063a89ae4ba1161009c578063a89ae4ba14610311578063bd2563fb14610331578063c2939d971461034657005b8063918c00b9146102cb5780639df49c23146102fc57005b80636fb7cb57116101055780637e0b66d0116100ed5780637e0b66d0146102785780638da5cb5b146102985780638dc654a2146102b657005b80636fb7cb5714610243578063715018a61461026357005b80634665e65a116101335780634665e65a146101ed57806351744bca1461020357806369723be71461022357005b8063185defc61461018c578063313ce567146101c957005b3661018a57604080513381523460208201527f88a5966d370b9919b20f3e2c13ff65706f196a4e32cc2c12bf57088f88525874910160405180910390a1005b005b34801561019857600080fd5b506010546101ac906001600160a01b031681565b6040516001600160a01b0390911681526020015b60405180910390f35b3480156101d557600080fd5b506101df600d5481565b6040519081526020016101c0565b3480156101f957600080fd5b506101df60125481565b34801561020f57600080fd5b5061018a61021e36600461163d565b610414565b34801561022f57600080fd5b506101df61023e36600461165f565b610520565b34801561024f57600080fd5b50600f546101ac906001600160a01b031681565b34801561026f57600080fd5b5061018a61083a565b34801561028457600080fd5b5061018a61029336600461163d565b6108a0565b3480156102a457600080fd5b506006546001600160a01b03166101ac565b3480156102c257600080fd5b5061018a61099e565b3480156102d757600080fd5b506006546102ec90600160a01b900460ff1681565b60405190151581526020016101c0565b34801561030857600080fd5b506007546101df565b34801561031d57600080fd5b506009546101ac906001600160a01b031681565b34801561033d57600080fd5b506008546101df565b34801561035257600080fd5b506101df600a5481565b34801561036857600080fd5b506101df60115481565b34801561037e57600080fd5b506101df60135481565b34801561039457600080fd5b506101df600e5481565b3480156103aa57600080fd5b506103e76040518060400160405280600581526020017f707269636500000000000000000000000000000000000000000000000000000081525081565b6040516101c09190611828565b34801561040057600080fd5b5061018a61040f3660046115f2565b610bc7565b60008281526005602052604090205482906001600160a01b031633146104925760405162461bcd60e51b815260206004820152602860248201527f536f75726365206d75737420626520746865206f7261636c65206f6620746865604482015267081c995c5d595cdd60c21b60648201526084015b60405180910390fd5b600081815260056020526040808220805473ffffffffffffffffffffffffffffffffffffffff191690555182917f7cc135e0cebb02c3480ae5d74d377283180a2601f8f644edf7987b009316c63a91a260088290556040518381527f6930ee93026433301a14b1baa0b52ca0d4640cb1edaa703beeb9056e23526984906020015b60405180910390a1505050565b60006105606040805160a0810182526000808252602080830182905282840182905260608084018390528451808601909552845283015290608082015290565b600654600160a01b900460ff16156105a757600a546105a090307f51744bca00000000000000000000000000000000000000000000000000000000610ca9565b90506105d8565b600a546105d590307f7e0b66d000000000000000000000000000000000000000000000000000000000610ca9565b90505b6106ad6040518060400160405280600381526020017f67657400000000000000000000000000000000000000000000000000000000008152506106a5600c805461062190611a14565b80601f016020809104026020016040519081016040528092919081815260200182805461064d90611a14565b801561069a5780601f1061066f5761010080835404028352916020019161069a565b820191906000526020600020905b81548152906001019060200180831161067d57829003601f168201915b505050505086610d3a565b839190610d67565b6107816040518060400160405280600481526020017f7061746800000000000000000000000000000000000000000000000000000000815250600b80546106f390611a14565b80601f016020809104026020016040519081016040528092919081815260200182805461071f90611a14565b801561076c5780601f106107415761010080835404028352916020019161076c565b820191906000526020600020905b81548152906001019060200180831161074f57829003601f168201915b505050505083610d679092919063ffffffff16565b60408051808201909152600581527f74696d65730000000000000000000000000000000000000000000000000000006020820152600d546107c3918391610d8a565b600954600e546107de916001600160a01b0316908390610da8565b600954600a54600e54604080516001600160a01b0390941684526020840192909252908201529092507f5de0ca4d601c6369aafe37da9bab92be9804895234cdb72d8181492e84e6bcb29060600160405180910390a150919050565b6006546001600160a01b031633146108945760405162461bcd60e51b815260206004820181905260248201527f4f776e61626c653a2063616c6c6572206973206e6f7420746865206f776e65726044820152606401610489565b61089e6000610de0565b565b60008281526005602052604090205482906001600160a01b031633146109195760405162461bcd60e51b815260206004820152602860248201527f536f75726365206d75737420626520746865206f7261636c65206f6620746865604482015267081c995c5d595cdd60c21b6064820152608401610489565b600081815260056020526040808220805473ffffffffffffffffffffffffffffffffffffffff191690555182917f7cc135e0cebb02c3480ae5d74d377283180a2601f8f644edf7987b009316c63a91a260078290556040518381527f6930ee93026433301a14b1baa0b52ca0d4640cb1edaa703beeb9056e2352698490602001610513565b6006546001600160a01b031633146109f85760405162461bcd60e51b815260206004820181905260248201527f4f776e61626c653a2063616c6c6572206973206e6f7420746865206f776e65726044820152606401610489565b6000610a0c6002546001600160a01b031690565b6040517f70a082310000000000000000000000000000000000000000000000000000000081523060048201529091506000906001600160a01b038316906370a082319060240160206040518083038186803b158015610a6a57600080fd5b505afa158015610a7e573d6000803e3d6000fd5b505050506040513d601f19601f82011682018060405250810190610aa29190611710565b6040517fa9059cbb000000000000000000000000000000000000000000000000000000008152336004820152602481018290529091506001600160a01b0383169063a9059cbb90604401602060405180830381600087803b158015610b0657600080fd5b505af1158015610b1a573d6000803e3d6000fd5b505050506040513d601f19601f82011682018060405250810190610b3e919061161b565b610b8a5760405162461bcd60e51b815260206004820152601260248201527f556e61626c6520746f20776974686472617700000000000000000000000000006044820152606401610489565b60408051338152602081018390527fcb1436249a1dd8cf93362c28d79a4e20dc54398b6c49e30316e8396e72a584b0910160405180910390a15050565b6006546001600160a01b03163314610c215760405162461bcd60e51b815260206004820181905260248201527f4f776e61626c653a2063616c6c6572206973206e6f7420746865206f776e65726044820152606401610489565b6001600160a01b038116610c9d5760405162461bcd60e51b815260206004820152602660248201527f4f776e61626c653a206e6577206f776e657220697320746865207a65726f206160448201527f64647265737300000000000000000000000000000000000000000000000000006064820152608401610489565b610ca681610de0565b50565b610ce76040805160a0810182526000808252602080830182905282840182905260608084018390528451808601909552845283015290608082015290565b610d256040805160a0810182526000808252602080830182905282840182905260608084018390528451808601909552845283015290608082015290565b610d3181868686610e3f565b95945050505050565b60608282604051602001610d4f929190611755565b60405160208183030381529060405290505b92915050565b6080830151610d769083610eca565b6080830151610d859082610eca565b505050565b6080830151610d999083610eca565b6080830151610d859082610ee1565b6000610dd884848460017f4042994600000000000000000000000000000000000000000000000000000000610f45565b949350505050565b600680546001600160a01b0383811673ffffffffffffffffffffffffffffffffffffffff19831681179093556040519116919082907f8be0079c531659141344cd1fd0a4f28419497f9722a3daafe3b4186f6b6457e090600090a35050565b610e7d6040805160a0810182526000808252602080830182905282840182905260608084018390528451808601909552845283015290608082015290565b610e8d85608001516101006111be565b50509183526001600160a01b031660208301527fffffffff0000000000000000000000000000000000000000000000000000000016604082015290565b610ed78260038351611223565b610d8582826112f7565b67ffffffffffffffff19811215610f0057610efc8282611325565b5050565b67ffffffffffffffff811315610f1a57610efc8282611367565b60008112610f2e57610efc82600083611223565b610efc826001610f408460001961195d565b611223565b6004546040516bffffffffffffffffffffffff193060601b166020820152603481019190915260009060540160408051808303601f190181529181528151602092830120600454606089015260008181526005909352818320805473ffffffffffffffffffffffffffffffffffffffff19166001600160a01b038b16179055905190925082917fb5e6e01e79f91267dc17b4e6314d5d4d03593d2ceee0fbb452b750bd70ea5af991a2600082600080886000015189602001518a604001518b606001518a8d6080015160000151604051602401611029989796959493929190611784565b60408051601f198184030181529181526020820180517bffffffffffffffffffffffffffffffffffffffffffffffffffffffff167fffffffff000000000000000000000000000000000000000000000000000000009094169390931790925260025491517f4000aea00000000000000000000000000000000000000000000000000000000081529092506001600160a01b0390911690634000aea0906110d7908a9089908690600401611800565b602060405180830381600087803b1580156110f157600080fd5b505af1158015611105573d6000803e3d6000fd5b505050506040513d601f19601f82011682018060405250810190611129919061161b565b61119b5760405162461bcd60e51b815260206004820152602360248201527f756e61626c6520746f207472616e73666572416e6443616c6c20746f206f726160448201527f636c6500000000000000000000000000000000000000000000000000000000006064820152608401610489565b6001600460008282546111ae919061183b565b9091555091979650505050505050565b6040805180820190915260608152600060208201526111de602083611a49565b15611206576111ee602083611a49565b6111f99060206119d1565b611203908361183b565b91505b506020828101829052604080518085526000815290920101905290565b601781116112445761123e8360e0600585901b16831761138a565b50505050565b60ff811161126e57611261836018611fe0600586901b161761138a565b5061123e838260016113af565b61ffff81116112995761128c836019611fe0600586901b161761138a565b5061123e838260026113af565b63ffffffff81116112c6576112b983601a611fe0600586901b161761138a565b5061123e838260046113af565b67ffffffffffffffff8111610d85576112ea83601b611fe0600586901b161761138a565b5061123e838260086113af565b60408051808201909152606081526000602082015261131e838460000151518485516113d5565b9392505050565b6113308260c361138a565b50610efc826113418360001961195d565b60405160200161135391815260200190565b6040516020818303038152906040526114da565b6113728260c261138a565b50610efc828260405160200161135391815260200190565b60408051808201909152606081526000602082015261131e83846000015151846114e7565b604080518082019091526060815260006020820152610dd8848560000151518585611543565b60408051808201909152606081526000602082015282518211156113f857600080fd5b6020850151611407838661183b565b111561143a5761143a8561142a87602001518786611425919061183b565b6115c4565b61143590600261193e565b6115db565b6000808651805187602083010193508088870111156114595787860182525b505050602084015b60208410611499578051825261147860208361183b565b915061148560208261183b565b90506114926020856119d1565b9350611461565b600060016114a88660206119d1565b6114b490610100611896565b6114be91906119d1565b9151835183169219169190911790915250849050949350505050565b610ed78260028351611223565b6040805180820190915260608152600060208201528360200151831061151c5761151c8485602001516002611435919061193e565b835180516020858301018481535080851415611539576001810182525b5093949350505050565b6040805180820190915260608152600060208201526020850151611567858461183b565b111561157b5761157b8561142a868561183b565b6000600161158b84610100611896565b61159591906119d1565b90508551838682010185831982511617815250805184870111156115b95783860181525b509495945050505050565b6000818311156115d5575081610d61565b50919050565b81516115e783836111be565b5061123e83826112f7565b60006020828403121561160457600080fd5b81356001600160a01b038116811461131e57600080fd5b60006020828403121561162d57600080fd5b8151801515811461131e57600080fd5b6000806040838503121561165057600080fd5b50508035926020909101359150565b60006020828403121561167157600080fd5b813567ffffffffffffffff8082111561168957600080fd5b818401915084601f83011261169d57600080fd5b8135818111156116af576116af611a81565b604051601f8201601f19908116603f011681019083821181831017156116d7576116d7611a81565b816040528281528760208487010111156116f057600080fd5b826020860160208301376000928101602001929092525095945050505050565b60006020828403121561172257600080fd5b5051919050565b600081518084526117418160208601602086016119e8565b601f01601f19169290920160200192915050565b600083516117678184602088016119e8565b83519083019061177b8183602088016119e8565b01949350505050565b60006101006001600160a01b03808c1684528a60208501528960408501528089166060850152507fffffffff00000000000000000000000000000000000000000000000000000000871660808401528560a08401528460c08401528060e08401526117f181840185611729565b9b9a5050505050505050505050565b6001600160a01b0384168152826020820152606060408201526000610d316060830184611729565b60208152600061131e6020830184611729565b6000821982111561184e5761184e611a6b565b500190565b600181815b8085111561188e57816000190482111561187457611874611a6b565b8085161561188157918102915b93841c9390800290611858565b509250929050565b600061131e83836000826118ac57506001610d61565b816118b957506000610d61565b81600181146118cf57600281146118d9576118f5565b6001915050610d61565b60ff8411156118ea576118ea611a6b565b50506001821b610d61565b5060208310610133831016604e8410600b8410161715611918575081810a610d61565b6119228383611853565b806000190482111561193657611936611a6b565b029392505050565b600081600019048311821515161561195857611958611a6b565b500290565b6000808312837f80000000000000000000000000000000000000000000000000000000000000000183128115161561199757611997611a6b565b837f7fffffffffffffffffffffffffffffffffffffffffffffffffffffffffffffff0183138116156119cb576119cb611a6b565b50500390565b6000828210156119e3576119e3611a6b565b500390565b60005b83811015611a035781810151838201526020016119eb565b8381111561123e5750506000910152565b600181811c90821680611a2857607f821691505b602082108114156115d557634e487b7160e01b600052602260045260246000fd5b600082611a6657634e487b7160e01b600052601260045260246000fd5b500690565b634e487b7160e01b600052601160045260246000fd5b634e487b7160e01b600052604160045260246000fdfea264697066735822122037735ef0b2efa7708fa7a36edec387d998e92d54afb01eef83c6c306fcf5ef6d64736f6c63430008070033687474703a2f2f76616c756174696f6e2d6170692e6865726f6b756170702e636f6d2f70726963652f60806040526001600455600f80546001600160a01b03199081167356dd6586db0d08c6ce7b2f2805af28616e082455179091556010805490911673a36085f69e2889c224210f603d836748e7dc008817905567016345785d8a00006011557f62363630326431346534373334633439613565316365313964343561343633326012553480156200008e57600080fd5b5060405162001f3038038062001f30833981016040819052620000b1916200043b565b601254600f546010546011548692869286926000926001600160a01b0390811692889291169087878787620000e633620001a9565b6001600160a01b0386166200010557620000ff620001fb565b62000121565b600280546001600160a01b0319166001600160a01b0388161790555b600980546001600160a01b0319166001600160a01b038a16179055600a879055600e859055600d84905582516200016090600c906020860190620002ac565b5081516200017690600b906020850190620002ac565b5060068054911515600160a01b0260ff60a01b1990921691909117905550620005029d5050505050505050505050505050565b600680546001600160a01b038381166001600160a01b0319831681179093556040519116919082907f8be0079c531659141344cd1fd0a4f28419497f9722a3daafe3b4186f6b6457e090600090a35050565b620002aa73c89bd4e1632d3a43cb03aaad5262cbe4038bc5716001600160a01b03166338cc48316040518163ffffffff1660e01b815260040160206040518083038186803b1580156200024d57600080fd5b505afa15801562000262573d6000803e3d6000fd5b505050506040513d601f19601f8201168201806040525081019062000288919062000409565b600280546001600160a01b0319166001600160a01b0392909216919091179055565b565b828054620002ba90620004af565b90600052602060002090601f016020900481019282620002de576000855562000329565b82601f10620002f957805160ff191683800117855562000329565b8280016001018555821562000329579182015b82811115620003295782518255916020019190600101906200030c565b50620003379291506200033b565b5090565b5b808211156200033757600081556001016200033c565b600082601f8301126200036457600080fd5b81516001600160401b0380821115620003815762000381620004ec565b604051601f8301601f19908116603f01168101908282118183101715620003ac57620003ac620004ec565b81604052838152602092508683858801011115620003c957600080fd5b600091505b83821015620003ed5785820183015181830184015290820190620003ce565b83821115620003ff5760008385830101525b9695505050505050565b6000602082840312156200041c57600080fd5b81516001600160a01b03811681146200043457600080fd5b9392505050565b6000806000606084860312156200045157600080fd5b835160208501519093506001600160401b03808211156200047157600080fd5b6200047f8783880162000352565b935060408601519150808211156200049657600080fd5b50620004a58682870162000352565b9150509250925092565b600181811c90821680620004c457607f821691505b60208210811415620004e657634e487b7160e01b600052602260045260246000fd5b50919050565b634e487b7160e01b600052604160045260246000fd5b611a1e80620005126000396000f3fe60806040526004361061011b5760003560e01c80638dc654a21161009c578063bd2563fb1161006e578063c5b37c2211610056578063c5b37c221461032c578063ddca3f4314610342578063f2fde38b1461035857005b8063bd2563fb14610301578063c2939d971461031657005b80638dc654a214610286578063918c00b91461029b5780639df49c23146102cc578063a89ae4ba146102e157005b806369723be7116100ed578063715018a6116100d5578063715018a6146102335780637e0b66d0146102485780638da5cb5b1461026857005b806369723be7146101f35780636fb7cb571461021357005b8063185defc61461015c578063313ce567146101995780634665e65a146101bd57806351744bca146101d357005b3661015a57604080513381523460208201527f88a5966d370b9919b20f3e2c13ff65706f196a4e32cc2c12bf57088f88525874910160405180910390a1005b005b34801561016857600080fd5b5060105461017c906001600160a01b031681565b6040516001600160a01b0390911681526020015b60405180910390f35b3480156101a557600080fd5b506101af600d5481565b604051908152602001610190565b3480156101c957600080fd5b506101af60125481565b3480156101df57600080fd5b5061015a6101ee3660046115a1565b610378565b3480156101ff57600080fd5b506101af61020e3660046115c3565b610484565b34801561021f57600080fd5b50600f5461017c906001600160a01b031681565b34801561023f57600080fd5b5061015a61079e565b34801561025457600080fd5b5061015a6102633660046115a1565b610804565b34801561027457600080fd5b506006546001600160a01b031661017c565b34801561029257600080fd5b5061015a610902565b3480156102a757600080fd5b506006546102bc90600160a01b900460ff1681565b6040519015158152602001610190565b3480156102d857600080fd5b506007546101af565b3480156102ed57600080fd5b5060095461017c906001600160a01b031681565b34801561030d57600080fd5b506008546101af565b34801561032257600080fd5b506101af600a5481565b34801561033857600080fd5b506101af60115481565b34801561034e57600080fd5b506101af600e5481565b34801561036457600080fd5b5061015a610373366004611556565b610b2b565b60008281526005602052604090205482906001600160a01b031633146103f65760405162461bcd60e51b815260206004820152602860248201527f536f75726365206d75737420626520746865206f7261636c65206f6620746865604482015267081c995c5d595cdd60c21b60648201526084015b60405180910390fd5b600081815260056020526040808220805473ffffffffffffffffffffffffffffffffffffffff191690555182917f7cc135e0cebb02c3480ae5d74d377283180a2601f8f644edf7987b009316c63a91a260088290556040518381527f6930ee93026433301a14b1baa0b52ca0d4640cb1edaa703beeb9056e23526984906020015b60405180910390a1505050565b60006104c46040805160a0810182526000808252602080830182905282840182905260608084018390528451808601909552845283015290608082015290565b600654600160a01b900460ff161561050b57600a5461050490307f51744bca00000000000000000000000000000000000000000000000000000000610c0d565b905061053c565b600a5461053990307f7e0b66d000000000000000000000000000000000000000000000000000000000610c0d565b90505b6106116040518060400160405280600381526020017f6765740000000000000000000000000000000000000000000000000000000000815250610609600c805461058590611965565b80601f01602080910402602001604051908101604052809291908181526020018280546105b190611965565b80156105fe5780601f106105d3576101008083540402835291602001916105fe565b820191906000526020600020905b8154815290600101906020018083116105e157829003601f168201915b505050505086610c9e565b839190610ccb565b6106e56040518060400160405280600481526020017f7061746800000000000000000000000000000000000000000000000000000000815250600b805461065790611965565b80601f016020809104026020016040519081016040528092919081815260200182805461068390611965565b80156106d05780601f106106a5576101008083540402835291602001916106d0565b820191906000526020600020905b8154815290600101906020018083116106b357829003601f168201915b505050505083610ccb9092919063ffffffff16565b60408051808201909152600581527f74696d65730000000000000000000000000000000000000000000000000000006020820152600d54610727918391610cee565b600954600e54610742916001600160a01b0316908390610d0c565b600954600a54600e54604080516001600160a01b0390941684526020840192909252908201529092507f5de0ca4d601c6369aafe37da9bab92be9804895234cdb72d8181492e84e6bcb29060600160405180910390a150919050565b6006546001600160a01b031633146107f85760405162461bcd60e51b815260206004820181905260248201527f4f776e61626c653a2063616c6c6572206973206e6f7420746865206f776e657260448201526064016103ed565b6108026000610d44565b565b60008281526005602052604090205482906001600160a01b0316331461087d5760405162461bcd60e51b815260206004820152602860248201527f536f75726365206d75737420626520746865206f7261636c65206f6620746865604482015267081c995c5d595cdd60c21b60648201526084016103ed565b600081815260056020526040808220805473ffffffffffffffffffffffffffffffffffffffff191690555182917f7cc135e0cebb02c3480ae5d74d377283180a2601f8f644edf7987b009316c63a91a260078290556040518381527f6930ee93026433301a14b1baa0b52ca0d4640cb1edaa703beeb9056e2352698490602001610477565b6006546001600160a01b0316331461095c5760405162461bcd60e51b815260206004820181905260248201527f4f776e61626c653a2063616c6c6572206973206e6f7420746865206f776e657260448201526064016103ed565b60006109706002546001600160a01b031690565b6040517f70a082310000000000000000000000000000000000000000000000000000000081523060048201529091506000906001600160a01b038316906370a082319060240160206040518083038186803b1580156109ce57600080fd5b505afa1580156109e2573d6000803e3d6000fd5b505050506040513d601f19601f82011682018060405250810190610a069190611674565b6040517fa9059cbb000000000000000000000000000000000000000000000000000000008152336004820152602481018290529091506001600160a01b0383169063a9059cbb90604401602060405180830381600087803b158015610a6a57600080fd5b505af1158015610a7e573d6000803e3d6000fd5b505050506040513d601f19601f82011682018060405250810190610aa2919061157f565b610aee5760405162461bcd60e51b815260206004820152601260248201527f556e61626c6520746f207769746864726177000000000000000000000000000060448201526064016103ed565b60408051338152602081018390527fcb1436249a1dd8cf93362c28d79a4e20dc54398b6c49e30316e8396e72a584b0910160405180910390a15050565b6006546001600160a01b03163314610b855760405162461bcd60e51b815260206004820181905260248201527f4f776e61626c653a2063616c6c6572206973206e6f7420746865206f776e657260448201526064016103ed565b6001600160a01b038116610c015760405162461bcd60e51b815260206004820152602660248201527f4f776e61626c653a206e6577206f776e657220697320746865207a65726f206160448201527f646472657373000000000000000000000000000000000000000000000000000060648201526084016103ed565b610c0a81610d44565b50565b610c4b6040805160a0810182526000808252602080830182905282840182905260608084018390528451808601909552845283015290608082015290565b610c896040805160a0810182526000808252602080830182905282840182905260608084018390528451808601909552845283015290608082015290565b610c9581868686610da3565b95945050505050565b60608282604051602001610cb39291906116b9565b60405160208183030381529060405290505b92915050565b6080830151610cda9083610e2e565b6080830151610ce99082610e2e565b505050565b6080830151610cfd9083610e2e565b6080830151610ce99082610e45565b6000610d3c84848460017f4042994600000000000000000000000000000000000000000000000000000000610ea9565b949350505050565b600680546001600160a01b0383811673ffffffffffffffffffffffffffffffffffffffff19831681179093556040519116919082907f8be0079c531659141344cd1fd0a4f28419497f9722a3daafe3b4186f6b6457e090600090a35050565b610de16040805160a0810182526000808252602080830182905282840182905260608084018390528451808601909552845283015290608082015290565b610df18560800151610100611122565b50509183526001600160a01b031660208301527fffffffff0000000000000000000000000000000000000000000000000000000016604082015290565b610e3b8260038351611187565b610ce9828261125b565b67ffffffffffffffff19811215610e6457610e608282611289565b5050565b67ffffffffffffffff811315610e7e57610e6082826112cb565b60008112610e9257610e6082600083611187565b610e60826001610ea4846000196118ae565b611187565b6004546040516bffffffffffffffffffffffff193060601b166020820152603481019190915260009060540160408051808303601f190181529181528151602092830120600454606089015260008181526005909352818320805473ffffffffffffffffffffffffffffffffffffffff19166001600160a01b038b16179055905190925082917fb5e6e01e79f91267dc17b4e6314d5d4d03593d2ceee0fbb452b750bd70ea5af991a2600082600080886000015189602001518a604001518b606001518a8d6080015160000151604051602401610f8d9897969594939291906116e8565b60408051601f198184030181529181526020820180517bffffffffffffffffffffffffffffffffffffffffffffffffffffffff167fffffffff000000000000000000000000000000000000000000000000000000009094169390931790925260025491517f4000aea00000000000000000000000000000000000000000000000000000000081529092506001600160a01b0390911690634000aea09061103b908a9089908690600401611764565b602060405180830381600087803b15801561105557600080fd5b505af1158015611069573d6000803e3d6000fd5b505050506040513d601f19601f8201168201806040525081019061108d919061157f565b6110ff5760405162461bcd60e51b815260206004820152602360248201527f756e61626c6520746f207472616e73666572416e6443616c6c20746f206f726160448201527f636c65000000000000000000000000000000000000000000000000000000000060648201526084016103ed565b600160046000828254611112919061178c565b9091555091979650505050505050565b60408051808201909152606081526000602082015261114260208361199a565b1561116a5761115260208361199a565b61115d906020611922565b611167908361178c565b91505b506020828101829052604080518085526000815290920101905290565b601781116111a8576111a28360e0600585901b1683176112ee565b50505050565b60ff81116111d2576111c5836018611fe0600586901b16176112ee565b506111a283826001611313565b61ffff81116111fd576111f0836019611fe0600586901b16176112ee565b506111a283826002611313565b63ffffffff811161122a5761121d83601a611fe0600586901b16176112ee565b506111a283826004611313565b67ffffffffffffffff8111610ce95761124e83601b611fe0600586901b16176112ee565b506111a283826008611313565b60408051808201909152606081526000602082015261128283846000015151848551611339565b9392505050565b6112948260c36112ee565b50610e60826112a5836000196118ae565b6040516020016112b791815260200190565b60405160208183030381529060405261143e565b6112d68260c26112ee565b50610e6082826040516020016112b791815260200190565b604080518082019091526060815260006020820152611282838460000151518461144b565b604080518082019091526060815260006020820152610d3c8485600001515185856114a7565b604080518082019091526060815260006020820152825182111561135c57600080fd5b602085015161136b838661178c565b111561139e5761139e8561138e87602001518786611389919061178c565b611528565b61139990600261188f565b61153f565b6000808651805187602083010193508088870111156113bd5787860182525b505050602084015b602084106113fd57805182526113dc60208361178c565b91506113e960208261178c565b90506113f6602085611922565b93506113c5565b6000600161140c866020611922565b611418906101006117e7565b6114229190611922565b9151835183169219169190911790915250849050949350505050565b610e3b8260028351611187565b60408051808201909152606081526000602082015283602001518310611480576114808485602001516002611399919061188f565b83518051602085830101848153508085141561149d576001810182525b5093949350505050565b60408051808201909152606081526000602082015260208501516114cb858461178c565b11156114df576114df8561138e868561178c565b600060016114ef846101006117e7565b6114f99190611922565b905085518386820101858319825116178152508051848701111561151d5783860181525b509495945050505050565b600081831115611539575081610cc5565b50919050565b815161154b8383611122565b506111a2838261125b565b60006020828403121561156857600080fd5b81356001600160a01b038116811461128257600080fd5b60006020828403121561159157600080fd5b8151801515811461128257600080fd5b600080604083850312156115b457600080fd5b50508035926020909101359150565b6000602082840312156115d557600080fd5b813567ffffffffffffffff808211156115ed57600080fd5b818401915084601f83011261160157600080fd5b813581811115611613576116136119d2565b604051601f8201601f19908116603f0116810190838211818310171561163b5761163b6119d2565b8160405282815287602084870101111561165457600080fd5b826020860160208301376000928101602001929092525095945050505050565b60006020828403121561168657600080fd5b5051919050565b600081518084526116a5816020860160208601611939565b601f01601f19169290920160200192915050565b600083516116cb818460208801611939565b8351908301906116df818360208801611939565b01949350505050565b60006101006001600160a01b03808c1684528a60208501528960408501528089166060850152507fffffffff00000000000000000000000000000000000000000000000000000000871660808401528560a08401528460c08401528060e08401526117558184018561168d565b9b9a5050505050505050505050565b6001600160a01b0384168152826020820152606060408201526000610c95606083018461168d565b6000821982111561179f5761179f6119bc565b500190565b600181815b808511156117df5781600019048211156117c5576117c56119bc565b808516156117d257918102915b93841c93908002906117a9565b509250929050565b600061128283836000826117fd57506001610cc5565b8161180a57506000610cc5565b8160018114611820576002811461182a57611846565b6001915050610cc5565b60ff84111561183b5761183b6119bc565b50506001821b610cc5565b5060208310610133831016604e8410600b8410161715611869575081810a610cc5565b61187383836117a4565b8060001904821115611887576118876119bc565b029392505050565b60008160001904831182151516156118a9576118a96119bc565b500290565b6000808312837f8000000000000000000000000000000000000000000000000000000000000000018312811516156118e8576118e86119bc565b837f7fffffffffffffffffffffffffffffffffffffffffffffffffffffffffffffff01831381161561191c5761191c6119bc565b50500390565b600082821015611934576119346119bc565b500390565b60005b8381101561195457818101518382015260200161193c565b838111156111a25750506000910152565b600181811c9082168061197957607f821691505b6020821081141561153957634e487b7160e01b600052602260045260246000fd5b6000826119b757634e487b7160e01b600052601260045260246000fd5b500690565b634e487b7160e01b600052601160045260246000fd5b634e487b7160e01b600052604160045260246000fdfea264697066735822122086d42330177d7bac71ee4ceb3442d5853b15f11f11907ca5a861478207a45e2364736f6c634300080700336001600455600f80546001600160a01b03199081167356dd6586db0d08c6ce7b2f2805af28616e0824551782556010805490911673a36085f69e2889c224210f603d836748e7dc008817905567016345785d8a00006011557f3236343966633463613833633430313662666432643135373635353932626565601255606460135560c060405260808190526e3230ba30b9b2ba173230ba3097181760891b60a0908152620000b19160149190620002e7565b50348015620000bf57600080fd5b506013546040518060800160405280604f8152602001620023c1604f9139604080516020810190915260008152601254600f546010546011548692869286926001926001600160a01b03908116928892911690878787876200012133620001e4565b6001600160a01b03861662000140576200013a62000236565b6200015c565b600280546001600160a01b0319166001600160a01b0388161790555b600980546001600160a01b0319166001600160a01b038a16179055600a879055600e859055600d84905582516200019b90600c906020860190620002e7565b508151620001b190600b906020850190620002e7565b5060068054911515600160a01b0260ff60a01b1990921691909117905550620003fc9d5050505050505050505050505050565b600680546001600160a01b038381166001600160a01b0319831681179093556040519116919082907f8be0079c531659141344cd1fd0a4f28419497f9722a3daafe3b4186f6b6457e090600090a35050565b620002e573c89bd4e1632d3a43cb03aaad5262cbe4038bc5716001600160a01b03166338cc48316040518163ffffffff1660e01b815260040160206040518083038186803b1580156200028857600080fd5b505afa1580156200029d573d6000803e3d6000fd5b505050506040513d601f19601f82011682018060405250810190620002c391906200038d565b600280546001600160a01b0319166001600160a01b0392909216919091179055565b565b828054620002f590620003bf565b90600052602060002090601f01602090048101928262000319576000855562000364565b82601f106200033457805160ff191683800117855562000364565b8280016001018555821562000364579182015b828111156200036457825182559160200191906001019062000347565b506200037292915062000376565b5090565b5b8082111562000372576000815560010162000377565b600060208284031215620003a057600080fd5b81516001600160a01b0381168114620003b857600080fd5b9392505050565b600181811c90821680620003d457607f821691505b60208210811415620003f657634e487b7160e01b600052602260045260246000fd5b50919050565b611fb5806200040c6000396000f3fe6080604052600436106101615760003560e01c8063918c00b9116100bf578063c068e8b111610079578063d233da0811610056578063d233da08146103df578063ddca3f43146103f5578063f2fde38b1461040b57005b8063c068e8b11461039e578063c2939d97146103b3578063c5b37c22146103c957005b8063a89ae4ba116100a7578063a89ae4ba14610349578063afb0a7d714610369578063bd2563fb1461038957005b8063918c00b9146103035780639df49c231461033457005b806369723be71161011b5780637e0b66d0116100f85780637e0b66d0146102b05780638da5cb5b146102d05780638dc654a2146102ee57005b806369723be71461025b5780636fb7cb571461027b578063715018a61461029b57005b8063313ce56711610149578063313ce567146102015780634665e65a1461022557806351744bca1461023b57005b8063185defc6146101a25780631d5cd009146101df57005b366101a057604080513381523460208201527f88a5966d370b9919b20f3e2c13ff65706f196a4e32cc2c12bf57088f88525874910160405180910390a1005b005b3480156101ae57600080fd5b506010546101c2906001600160a01b031681565b6040516001600160a01b0390911681526020015b60405180910390f35b3480156101eb57600080fd5b506101f461042b565b6040516101d69190611c4f565b34801561020d57600080fd5b50610217600d5481565b6040519081526020016101d6565b34801561023157600080fd5b5061021760125481565b34801561024757600080fd5b506101a0610256366004611a4b565b610447565b34801561026757600080fd5b50610217610276366004611a86565b610553565b34801561028757600080fd5b50600f546101c2906001600160a01b031681565b3480156102a757600080fd5b506101a061086d565b3480156102bc57600080fd5b506101a06102cb366004611a4b565b6108d3565b3480156102dc57600080fd5b506006546001600160a01b03166101c2565b3480156102fa57600080fd5b506101a06109d1565b34801561030f57600080fd5b5060065461032490600160a01b900460ff1681565b60405190151581526020016101d6565b34801561034057600080fd5b50600754610217565b34801561035557600080fd5b506009546101c2906001600160a01b031681565b34801561037557600080fd5b506101a0610384366004611a6d565b610bfa565b34801561039557600080fd5b50600854610217565b3480156103aa57600080fd5b506101f4610ca1565b3480156103bf57600080fd5b50610217600a5481565b3480156103d557600080fd5b5061021760115481565b3480156103eb57600080fd5b5061021760135481565b34801561040157600080fd5b50610217600e5481565b34801561041757600080fd5b506101a0610426366004611a00565b610d2f565b6040518060800160405280604f8152602001611f31604f913981565b60008281526005602052604090205482906001600160a01b031633146104c55760405162461bcd60e51b815260206004820152602860248201527f536f75726365206d75737420626520746865206f7261636c65206f6620746865604482015267081c995c5d595cdd60c21b60648201526084015b60405180910390fd5b600081815260056020526040808220805473ffffffffffffffffffffffffffffffffffffffff191690555182917f7cc135e0cebb02c3480ae5d74d377283180a2601f8f644edf7987b009316c63a91a260088290556040518381527f6930ee93026433301a14b1baa0b52ca0d4640cb1edaa703beeb9056e23526984906020015b60405180910390a1505050565b60006105936040805160a0810182526000808252602080830182905282840182905260608084018390528451808601909552845283015290608082015290565b600654600160a01b900460ff16156105da57600a546105d390307f51744bca00000000000000000000000000000000000000000000000000000000610e0e565b905061060b565b600a5461060890307f7e0b66d000000000000000000000000000000000000000000000000000000000610e0e565b90505b6106e06040518060400160405280600381526020017f67657400000000000000000000000000000000000000000000000000000000008152506106d8600c805461065490611e74565b80601f016020809104026020016040519081016040528092919081815260200182805461068090611e74565b80156106cd5780601f106106a2576101008083540402835291602001916106cd565b820191906000526020600020905b8154815290600101906020018083116106b057829003601f168201915b505050505086610e9f565b839190610ecc565b6107b46040518060400160405280600481526020017f7061746800000000000000000000000000000000000000000000000000000000815250600b805461072690611e74565b80601f016020809104026020016040519081016040528092919081815260200182805461075290611e74565b801561079f5780601f106107745761010080835404028352916020019161079f565b820191906000526020600020905b81548152906001019060200180831161078257829003601f168201915b505050505083610ecc9092919063ffffffff16565b60408051808201909152600581527f74696d65730000000000000000000000000000000000000000000000000000006020820152600d546107f6918391610eef565b600954600e54610811916001600160a01b0316908390610f0d565b600954600a54600e54604080516001600160a01b0390941684526020840192909252908201529092507f5de0ca4d601c6369aafe37da9bab92be9804895234cdb72d8181492e84e6bcb29060600160405180910390a150919050565b6006546001600160a01b031633146108c75760405162461bcd60e51b815260206004820181905260248201527f4f776e61626c653a2063616c6c6572206973206e6f7420746865206f776e657260448201526064016104bc565b6108d16000610f45565b565b60008281526005602052604090205482906001600160a01b0316331461094c5760405162461bcd60e51b815260206004820152602860248201527f536f75726365206d75737420626520746865206f7261636c65206f6620746865604482015267081c995c5d595cdd60c21b60648201526084016104bc565b600081815260056020526040808220805473ffffffffffffffffffffffffffffffffffffffff191690555182917f7cc135e0cebb02c3480ae5d74d377283180a2601f8f644edf7987b009316c63a91a260078290556040518381527f6930ee93026433301a14b1baa0b52ca0d4640cb1edaa703beeb9056e2352698490602001610546565b6006546001600160a01b03163314610a2b5760405162461bcd60e51b815260206004820181905260248201527f4f776e61626c653a2063616c6c6572206973206e6f7420746865206f776e657260448201526064016104bc565b6000610a3f6002546001600160a01b031690565b6040517f70a082310000000000000000000000000000000000000000000000000000000081523060048201529091506000906001600160a01b038316906370a082319060240160206040518083038186803b158015610a9d57600080fd5b505afa158015610ab1573d6000803e3d6000fd5b505050506040513d601f19601f82011682018060405250810190610ad59190611b37565b6040517fa9059cbb000000000000000000000000000000000000000000000000000000008152336004820152602481018290529091506001600160a01b0383169063a9059cbb90604401602060405180830381600087803b158015610b3957600080fd5b505af1158015610b4d573d6000803e3d6000fd5b505050506040513d601f19601f82011682018060405250810190610b719190611a29565b610bbd5760405162461bcd60e51b815260206004820152601260248201527f556e61626c6520746f207769746864726177000000000000000000000000000060448201526064016104bc565b60408051338152602081018390527fcb1436249a1dd8cf93362c28d79a4e20dc54398b6c49e30316e8396e72a584b0910160405180910390a15050565b610c9e610c9960148054610c0d90611e74565b80601f0160208091040260200160405190810160405280929190818152602001828054610c3990611e74565b8015610c865780601f10610c5b57610100808354040283529160200191610c86565b820191906000526020600020905b815481529060010190602001808311610c6957829003601f168201915b5050505050610c9484610fa4565b611027565b611044565b50565b60148054610cae90611e74565b80601f0160208091040260200160405190810160405280929190818152602001828054610cda90611e74565b8015610d275780601f10610cfc57610100808354040283529160200191610d27565b820191906000526020600020905b815481529060010190602001808311610d0a57829003601f168201915b505050505081565b6006546001600160a01b03163314610d895760405162461bcd60e51b815260206004820181905260248201527f4f776e61626c653a2063616c6c6572206973206e6f7420746865206f776e657260448201526064016104bc565b6001600160a01b038116610e055760405162461bcd60e51b815260206004820152602660248201527f4f776e61626c653a206e6577206f776e657220697320746865207a65726f206160448201527f646472657373000000000000000000000000000000000000000000000000000060648201526084016104bc565b610c9e81610f45565b610e4c6040805160a0810182526000808252602080830182905282840182905260608084018390528451808601909552845283015290608082015290565b610e8a6040805160a0810182526000808252602080830182905282840182905260608084018390528451808601909552845283015290608082015290565b610e968186868661105b565b95945050505050565b60608282604051602001610eb4929190611b7c565b60405160208183030381529060405290505b92915050565b6080830151610edb90836110e6565b6080830151610eea90826110e6565b505050565b6080830151610efe90836110e6565b6080830151610eea90826110fd565b6000610f3d84848460017f404299460000000000000000000000000000000000000000000000000000000061115d565b949350505050565b600680546001600160a01b0383811673ffffffffffffffffffffffffffffffffffffffff19831681179093556040519116919082907f8be0079c531659141344cd1fd0a4f28419497f9722a3daafe3b4186f6b6457e090600090a35050565b600062375f008213610fb857506001919050565b8162375f00128015610fcd5750625c49008213155b15610fda57506002919050565b81625c4900128015610fef575062af57808213155b15610ffc57506003919050565b8162af57801280156110125750630167e9808213155b1561101f57506004919050565b506005919050565b606082611033836113d6565b604051602001610eb4929190611b7c565b805161105790600b906020840190611967565b5050565b6110996040805160a0810182526000808252602080830182905282840182905260608084018390528451808601909552845283015290608082015290565b6110a98560800151610100611533565b50509183526001600160a01b031660208301527fffffffff0000000000000000000000000000000000000000000000000000000016604082015290565b6110f38260038351611598565b610eea828261166c565b67ffffffffffffffff1981121561111857611057828261169a565b67ffffffffffffffff8113156111325761105782826116dc565b600081126111465761105782600083611598565b61105782600161115884600019611dbd565b611598565b6004546040516bffffffffffffffffffffffff193060601b166020820152603481019190915260009060540160408051808303601f190181529181528151602092830120600454606089015260008181526005909352818320805473ffffffffffffffffffffffffffffffffffffffff19166001600160a01b038b16179055905190925082917fb5e6e01e79f91267dc17b4e6314d5d4d03593d2ceee0fbb452b750bd70ea5af991a2600082600080886000015189602001518a604001518b606001518a8d6080015160000151604051602401611241989796959493929190611bab565b60408051601f198184030181529181526020820180517bffffffffffffffffffffffffffffffffffffffffffffffffffffffff167fffffffff000000000000000000000000000000000000000000000000000000009094169390931790925260025491517f4000aea00000000000000000000000000000000000000000000000000000000081529092506001600160a01b0390911690634000aea0906112ef908a9089908690600401611c27565b602060405180830381600087803b15801561130957600080fd5b505af115801561131d573d6000803e3d6000fd5b505050506040513d601f19601f820116820180604052508101906113419190611a29565b6113b35760405162461bcd60e51b815260206004820152602360248201527f756e61626c6520746f207472616e73666572416e6443616c6c20746f206f726160448201527f636c65000000000000000000000000000000000000000000000000000000000060648201526084016104bc565b6001600460008282546113c69190611c62565b9091555091979650505050505050565b60608161141657505060408051808201909152600181527f3000000000000000000000000000000000000000000000000000000000000000602082015290565b8160005b8115611440578061142a81611ea9565b91506114399050600a83611c9f565b915061141a565b60008167ffffffffffffffff81111561145b5761145b611f1a565b6040519080825280601f01601f191660200182016040528015611485576020820181803683370190505b509050815b851561152a5761149b600182611e31565b905060006114aa600a88611c9f565b6114b590600a611d9e565b6114bf9088611e31565b6114ca906030611c7a565b905060008160f81b9050808484815181106114e7576114e7611f04565b60200101907effffffffffffffffffffffffffffffffffffffffffffffffffffffffffffff1916908160001a905350611521600a89611c9f565b9750505061148a565b50949350505050565b604080518082019091526060815260006020820152611553602083611ec4565b1561157b57611563602083611ec4565b61156e906020611e31565b6115789083611c62565b91505b506020828101829052604080518085526000815290920101905290565b601781116115b9576115b38360e0600585901b1683176116ff565b50505050565b60ff81116115e3576115d6836018611fe0600586901b16176116ff565b506115b383826001611724565b61ffff811161160e57611601836019611fe0600586901b16176116ff565b506115b383826002611724565b63ffffffff811161163b5761162e83601a611fe0600586901b16176116ff565b506115b383826004611724565b67ffffffffffffffff8111610eea5761165f83601b611fe0600586901b16176116ff565b506115b383826008611724565b6040805180820190915260608152600060208201526116938384600001515184855161174a565b9392505050565b6116a58260c36116ff565b50611057826116b683600019611dbd565b6040516020016116c891815260200190565b60405160208183030381529060405261184f565b6116e78260c26116ff565b5061105782826040516020016116c891815260200190565b604080518082019091526060815260006020820152611693838460000151518461185c565b604080518082019091526060815260006020820152610f3d8485600001515185856118b8565b604080518082019091526060815260006020820152825182111561176d57600080fd5b602085015161177c8386611c62565b11156117af576117af8561179f8760200151878661179a9190611c62565b611939565b6117aa906002611d9e565b611950565b6000808651805187602083010193508088870111156117ce5787860182525b505050602084015b6020841061180e57805182526117ed602083611c62565b91506117fa602082611c62565b9050611807602085611e31565b93506117d6565b6000600161181d866020611e31565b61182990610100611cf6565b6118339190611e31565b9151835183169219169190911790915250849050949350505050565b6110f38260028351611598565b604080518082019091526060815260006020820152836020015183106118915761189184856020015160026117aa9190611d9e565b8351805160208583010184815350808514156118ae576001810182525b5093949350505050565b60408051808201909152606081526000602082015260208501516118dc8584611c62565b11156118f0576118f08561179f8685611c62565b6000600161190084610100611cf6565b61190a9190611e31565b905085518386820101858319825116178152508051848701111561192e5783860181525b509495945050505050565b60008183111561194a575081610ec6565b50919050565b815161195c8383611533565b506115b3838261166c565b82805461197390611e74565b90600052602060002090601f01602090048101928261199557600085556119db565b82601f106119ae57805160ff19168380011785556119db565b828001600101855582156119db579182015b828111156119db5782518255916020019190600101906119c0565b506119e79291506119eb565b5090565b5b808211156119e757600081556001016119ec565b600060208284031215611a1257600080fd5b81356001600160a01b038116811461169357600080fd5b600060208284031215611a3b57600080fd5b8151801515811461169357600080fd5b60008060408385031215611a5e57600080fd5b50508035926020909101359150565b600060208284031215611a7f57600080fd5b5035919050565b600060208284031215611a9857600080fd5b813567ffffffffffffffff80821115611ab057600080fd5b818401915084601f830112611ac457600080fd5b813581811115611ad657611ad6611f1a565b604051601f8201601f19908116603f01168101908382118183101715611afe57611afe611f1a565b81604052828152876020848701011115611b1757600080fd5b826020860160208301376000928101602001929092525095945050505050565b600060208284031215611b4957600080fd5b5051919050565b60008151808452611b68816020860160208601611e48565b601f01601f19169290920160200192915050565b60008351611b8e818460208801611e48565b835190830190611ba2818360208801611e48565b01949350505050565b60006101006001600160a01b03808c1684528a60208501528960408501528089166060850152507fffffffff00000000000000000000000000000000000000000000000000000000871660808401528560a08401528460c08401528060e0840152611c1881840185611b50565b9b9a5050505050505050505050565b6001600160a01b0384168152826020820152606060408201526000610e966060830184611b50565b6020815260006116936020830184611b50565b60008219821115611c7557611c75611ed8565b500190565b600060ff821660ff84168060ff03821115611c9757611c97611ed8565b019392505050565b600082611cae57611cae611eee565b500490565b600181815b80851115611cee578160001904821115611cd457611cd4611ed8565b80851615611ce157918102915b93841c9390800290611cb8565b509250929050565b60006116938383600082611d0c57506001610ec6565b81611d1957506000610ec6565b8160018114611d2f5760028114611d3957611d55565b6001915050610ec6565b60ff841115611d4a57611d4a611ed8565b50506001821b610ec6565b5060208310610133831016604e8410600b8410161715611d78575081810a610ec6565b611d828383611cb3565b8060001904821115611d9657611d96611ed8565b029392505050565b6000816000190483118215151615611db857611db8611ed8565b500290565b6000808312837f800000000000000000000000000000000000000000000000000000000000000001831281151615611df757611df7611ed8565b837f7fffffffffffffffffffffffffffffffffffffffffffffffffffffffffffffff018313811615611e2b57611e2b611ed8565b50500390565b600082821015611e4357611e43611ed8565b500390565b60005b83811015611e63578181015183820152602001611e4b565b838111156115b35750506000910152565b600181811c90821680611e8857607f821691505b6020821081141561194a57634e487b7160e01b600052602260045260246000fd5b6000600019821415611ebd57611ebd611ed8565b5060010190565b600082611ed357611ed3611eee565b500690565b634e487b7160e01b600052601160045260246000fd5b634e487b7160e01b600052601260045260246000fd5b634e487b7160e01b600052603260045260246000fd5b634e487b7160e01b600052604160045260246000fdfe68747470733a2f2f7777772e7175616e646c2e636f6d2f6170692f76332f64617461736574732f555354524541535552592f42494c4c52415445532e6a736f6e3f6170695f6b65793d4d595f4b4559a2646970667358221220155c721e9c0a30390268622fcae6b9487cc93a22a3a6c0c315baf4e7615e728f64736f6c6343000807003368747470733a2f2f7777772e7175616e646c2e636f6d2f6170692f76332f64617461736574732f555354524541535552592f42494c4c52415445532e6a736f6e3f6170695f6b65793d4d595f4b4559",
  "immutableReferences": {},
  "source": "// SPDX-License-Identifier: UNLICENSED\r\n\r\npragma solidity ^0.8.6;\r\n\r\nimport \"../utils/BokkyPooBahsDateTimeLibrary.sol\";\r\nimport \"@openzeppelin/contracts/access/Ownable.sol\";\r\nimport \"@openzeppelin/contracts/token/ERC20/IERC20.sol\";\r\nimport \"@openzeppelin/contracts/token/ERC20/utils/SafeERC20.sol\";\r\nimport \"@openzeppelin/contracts/utils/math/SafeMath.sol\";\r\n\r\nimport \"../interfaces/IFFAContract.sol\";\r\nimport \"./ChainlinkOracle.sol\";\r\nimport \"./CollateralWallet.sol\";\r\nimport \"./Oracles/LinkPoolOracles/LinkPoolValuationOracle.sol\";\r\nimport \"./Oracles/LinkPoolOracles/LinkPoolUintOracle.sol\";\r\nimport \"./Oracles/LinkPoolOracles/USDRFROracle.sol\";\r\n\r\ncontract FFAContract is IFFAContract{\r\n    using SafeERC20 for IERC20;\r\n    //state of contract\r\n    enum ContractState {Created, Initiated, Settled, Defaulted}\r\n    //contract detail\r\n    string private name;\r\n    string private symbol;\r\n    ContractState internal contractState;\r\n    uint256 private sizeOfContract;\r\n    address internal long;\r\n    address internal short;\r\n    uint256 public initialForwardPrice;\r\n    int public annualRiskFreeRate;\r\n    uint256 internal expirationDate;\r\n    uint256 private underlyingPrice;//scaled 1/100 ie. 45.07 -> 4507\r\n    //collateral wallets\r\n    address private longWallet;\r\n    address private shortWallet;\r\n    address private collateralTokenAddress;\r\n    //margin requirements\r\n    //MM(8%) + EM (2%) = IM (10%)\r\n    uint public exposureMarginRate;\r\n    uint public maintenanceMarginRate;\r\n    //M2M\r\n    uint256 public prevDayClosingPrice;\r\n    //underlying index price oracle\r\n    string private underlyingApiURL;\r\n    string private underlyingApiPath;\r\n    int public underlyingDecimals;\r\n    LinkPoolValuationOracle valuationOracle;\r\n    LinkPoolUintOracle underlyingOracle;\r\n    USDRFROracle usdRiskFreeRateOracle;\r\n    uint8 private rfrMaturityTranchIndex;\r\n\r\n    constructor(\r\n            string memory _name, \r\n            string memory _symbol, \r\n            uint256 _sizeOfContract,\r\n            string memory _underlyingApiURL,\r\n            string memory _underlyingApiPath,\r\n            int _underlyingDecimals\r\n            //address _collateralTokenAddress,\r\n    ) {\r\n        name = _name;\r\n        symbol = _symbol;\r\n        sizeOfContract = _sizeOfContract;\r\n        underlyingApiPath = _underlyingApiPath;\r\n        underlyingApiURL = _underlyingApiURL;\r\n        underlyingDecimals = _underlyingDecimals;\r\n        //collateralTokenAddress = _collateralTokenAddress;\r\n        valuationOracle = new LinkPoolValuationOracle();\r\n        underlyingOracle = new LinkPoolUintOracle(underlyingDecimals, underlyingApiURL, underlyingApiPath);\r\n        usdRiskFreeRateOracle = new USDRFROracle();\r\n        contractState = ContractState.Created;\r\n        //emit CreatedContract(decimals, sizeOfContract);\r\n    }\r\n\r\n    //initiateFFA: initiates futures contract with given parameters\r\n    function initiateFFA(address _long, address _short, /*uint256 _initialForwardPrice, */\r\n                         uint256 _expirationDate,\r\n                         address _longWallet, address _shortWallet, uint _exposureMarginRate,\r\n                         uint _maintenanceMarginRate, address _collateralTokenAddress) \r\n                         external override returns (bool initiated_) {\r\n        require(_long != address(0), \"Long can't be zero address\");\r\n        require(_short != address(0), \"Short can't be zero address\");\r\n        require(_long != _short, \"Long and short can't be same party\");\r\n        require(_longWallet != address(0), \"Long wallet cannot have zero address\");\r\n        require(_shortWallet != address(0), \"Short wallet cannot have zero address\");\r\n        require(_longWallet != _shortWallet, \"long and short wallets cannot be the same\");\r\n        require(_maintenanceMarginRate != 0, \"maintenance margin rate cannot be zero\");\r\n        require(BokkyPooBahsDateTimeLibrary.diffSeconds(block.timestamp, _expirationDate) > 0, \"FFA contract has to expire in the future\");\r\n        long = _long;\r\n        short = _short;\r\n        //update API path in accordance with the maturity of the contract\r\n        usdRiskFreeRateOracle.updateAPIPath(int(BokkyPooBahsDateTimeLibrary.diffSeconds(block.timestamp, _expirationDate)));\r\n\r\n        //call valuation API to get initialForwardPrice!!!!!!!!!!!!!11\r\n        initialForwardPrice = 0;//this doesn't need to be a parameter, just set it here directly\r\n        prevDayClosingPrice = initialForwardPrice;\r\n        //annualRiskFreeRate = _annualRiskFreeRate;\r\n        expirationDate = _expirationDate;\r\n        longWallet = _longWallet;\r\n        shortWallet = _shortWallet;\r\n        exposureMarginRate = _exposureMarginRate;\r\n        maintenanceMarginRate = _maintenanceMarginRate;\r\n        collateralTokenAddress = _collateralTokenAddress;\r\n        contractState = ContractState.Initiated;\r\n        //Do i need to deal with allowance?\r\n        uint initialMarginRate = exposureMarginRate + maintenanceMarginRate;\r\n        emit Initiated(long, short, initialForwardPrice, annualRiskFreeRate, expirationDate, sizeOfContract, initialMarginRate);\r\n        initiated_ = true;\r\n    }\r\n\r\n    //request annual risk free rate\r\n    function requestRiskFreeRate() public {\r\n        usdRiskFreeRateOracle.updateAPIPath(int(BokkyPooBahsDateTimeLibrary.diffSeconds(block.timestamp, expirationDate)));\r\n        usdRiskFreeRateOracle.requestIndexPrice(\"\");//do I add API key here??\r\n    }\r\n\r\n    //set annual risk free rate once job is fulfilled\r\n    function setRiskFreeRate() public {\r\n        annualRiskFreeRate = usdRiskFreeRateOracle.getSignedResult();\r\n    }\r\n\r\n    //request underlying price\r\n    function requestUnderlyingPrice() public {\r\n        underlyingOracle.requestIndexPrice(\"\");\r\n    }\r\n\r\n    //set underlying price once job is fulfilled\r\n    function setUnderlyingPrice() public {\r\n        underlyingPrice = underlyingOracle.getUnsignedResult();\r\n    }\r\n\r\n    //request forward price\r\n    function requestForwardPrice() public  {\r\n        valuationOracle.requestIndexPrice(concetenateStringsForURL(uint2str(underlyingPrice), int2str(annualRiskFreeRate), uint2str(block.timestamp), uint2str(expirationDate)));\r\n    }\r\n\r\n    //set forward price once job is fulfilled\r\n    function getForwardPrice() public view returns(uint256){\r\n        return valuationOracle.getUnsignedResult();\r\n    }\r\n\r\n    //concatanate strings and add /  where needed for URL\r\n    function concetenateStringsForURL(string memory a, string memory b, string memory c, string memory d) internal pure returns (string memory) {\r\n\t    return string(abi.encodePacked(a,\"/\", b, \"/\", c, \"/\", d));\r\n    }\r\n\r\n    \r\n    //parse uint to string\r\n    function uint2str(uint _i) internal pure returns (string memory _uintAsString) {\r\n        if (_i == 0) {\r\n            return \"0\";\r\n        }\r\n        uint j = _i;\r\n        uint len;\r\n        while (j != 0) {\r\n            len++;\r\n            j /= 10;\r\n        }\r\n        bytes memory bstr = new bytes(len);\r\n        uint k = len;\r\n        while (_i != 0) {\r\n            k = k-1;\r\n            uint8 temp = (48 + uint8(_i - _i / 10 * 10));\r\n            bytes1 b1 = bytes1(temp);\r\n            bstr[k] = b1;\r\n            _i /= 10;\r\n        }\r\n        return string(bstr);\r\n    }\r\n\r\n    //parse int to string\r\n    function int2str(int _i) internal pure returns (string memory _intAsString) {\r\n        if (_i >= 0) {\r\n            return uint2str(uint(_i));\r\n        } else {\r\n            return string(abi.encodePacked(\"-\", uint2str(uint(-_i)))); \r\n            //The only reason I used this solution is because I know that RFR can't be too many digits\r\n        }\r\n    }\r\n\r\n    /*  Margin calculation\r\n        * Initial Margin = Maintenance Margin + Exposure Margin\r\n        * A margin call is issued when a party's cash balance drops below the maintenance margin.\r\n        * A party will be allowed to hold their position as long as the maintenance margin is satisfied.\r\n        * M2M is calculated based on the previous day's closing price. Based on the M2M each party's\r\n        * account is credited or debited daily. \r\n        * At settlement calculate the P&L = Final Contract Value - Initial Contract Value\r\n        * https://zerodha.com/varsity/chapter/margin-m2m/\r\n    */\r\n\r\n    /* markToMarket : does mark to market daily */\r\n    function markToMarket(uint256 currentForwardPrice) external override {\r\n        require(contractState == ContractState.Initiated, \r\n                \"Contract has to be in Initiated state\");\r\n        require(BokkyPooBahsDateTimeLibrary.diffSeconds(block.timestamp, expirationDate) > 0, \r\n                \"M to m can only happen before expiration\");\r\n        \r\n        //current forward price needs to be updated\r\n        uint256 newContractValue = currentForwardPrice * sizeOfContract;\r\n        uint256 oldContractValue = prevDayClosingPrice * sizeOfContract;\r\n        //contract value change\r\n        int contractValueChange = int256(newContractValue) - int256(oldContractValue);\r\n\r\n        //delivery within collateral wallets\r\n        //In this case the amount to be transfered is in cents, not dollars due to 1:100 scaling\r\n        if (contractValueChange > 0) {\r\n            transferCollateralFrom(shortWallet, longWallet, \r\n                                   uint256(contractValueChange), collateralTokenAddress);\r\n        }\r\n        if (contractValueChange < 0) {\r\n            transferCollateralFrom(longWallet, shortWallet, \r\n                                   uint256(-contractValueChange), \r\n                                   collateralTokenAddress);\r\n        }\r\n\r\n        //update prevDayClosingPrice to current price\r\n        prevDayClosingPrice = currentForwardPrice;\r\n        \r\n        emit MarkedToMarket(block.timestamp, contractValueChange, long, short);\r\n    }\r\n    //settle contract \r\n    function settleAtExpiration() external override {\r\n            require(BokkyPooBahsDateTimeLibrary.diffSeconds(expirationDate, block.timestamp) >= 0, \"Settlement cannot occure before expiration date\" );\r\n            require(contractState == ContractState.Initiated, \"Contract has to be in Initiated state\");\r\n\r\n            //calculate P&L\r\n            uint256 initialContractValue = initialForwardPrice * sizeOfContract;\r\n            uint256 finalContractValue = prevDayClosingPrice * sizeOfContract;\r\n            int profitAndLoss = int256(finalContractValue) - int256(initialContractValue);\r\n\r\n            //change contract state and emit event\r\n            contractState = ContractState.Settled;\r\n            emit Settled(long, short, expirationDate, profitAndLoss);\r\n            //settled_ = true;\r\n    }\r\n\r\n    /* What happens when futures/forward contract counterparty defaults?\r\n     * https://money.stackexchange.com/questions/46475/what-happens-if-futures-contract-seller-defaults\r\n     * In this case we assume that the losing party's collateral wallet will always have enough funds to\r\n     * cover losses.\r\n     * A party can \"terminate\" the forward contract by entering another same contract taking the opposite\r\n     * position. \r\n     * https://financetrain.com/forward-contract-termination-prior-to-expiry/\r\n     */\r\n    //default contract\r\n    function defaultContract(address _defaultingParty) public override returns (bool defaulted_) {\r\n            require(contractState == ContractState.Initiated, \"Contract has to be in Initiated state\");\r\n            require(BokkyPooBahsDateTimeLibrary.diffSeconds(block.timestamp, expirationDate) > 0, \"Defaulting can only happen before expiration\");\r\n\r\n            //change contract state and emit event\r\n            contractState = ContractState.Defaulted;\r\n            emit Defaulted(block.timestamp, _defaultingParty);\r\n            defaulted_ = true;\r\n    }\r\n    /* transferCollateralFrom: transfers given amount of given token from one \r\n     *collateral wallet to the other*/\r\n    function transferCollateralFrom(address senderWalletAddress, \r\n            address recipientWalletAddress, uint256 amount, \r\n            address _collateralTokenAddress) public returns (bool transfered_){\r\n\r\n            require(senderWalletAddress != address(0), \r\n                    \"Sender wallet address cannot be zero\");\r\n            require(recipientWalletAddress != address(0), \r\n                    \"Recipient wallet address cannot be zero\");\r\n            require(recipientWalletAddress != senderWalletAddress, \r\n                    \"Sender and recipient wallets cannot be the same\");\r\n            require(amount > 0, \r\n                    \"Amount transferred has to be greater than zero\");\r\n            CollateralWallet senderWallet = CollateralWallet(senderWalletAddress);\r\n            CollateralWallet recipientWallet = CollateralWallet(recipientWalletAddress);\r\n            uint256 originalSenderMappedBalance = senderWallet.getMappedBalance(\r\n                                                                address(this), \r\n                                                                _collateralTokenAddress);\r\n            require(originalSenderMappedBalance >= amount, \r\n                    \"collateral balance not sufficient\");\r\n\r\n            //approval might need fixing\r\n            senderWallet.approveSpender(_collateralTokenAddress, \r\n                                        address(this), amount);\r\n            IERC20(_collateralTokenAddress).transferFrom(senderWalletAddress, \r\n                                                         recipientWalletAddress, \r\n                                                         amount);\r\n\r\n            //deduct from sender balance mapping\r\n            unchecked {\r\n                uint256 newSenderMappedBalance = originalSenderMappedBalance - amount;\r\n                senderWallet.setNewBalance(address(this), _collateralTokenAddress, \r\n                                           newSenderMappedBalance);\r\n            }\r\n\r\n            //add to recipient balance mapping\r\n            uint256 newRecipientMappedBalance = recipientWallet.getMappedBalance(\r\n                                                                    address(this), \r\n                                                                    _collateralTokenAddress) \r\n                                                                    + amount;\r\n            recipientWallet.setNewBalance(address(this), _collateralTokenAddress, \r\n                                          newRecipientMappedBalance);\r\n \r\n            transfered_ = true;\r\n    }\r\n\r\n    //receive and fallback functions\r\n    /*\r\n        receive () external payable {\r\n        \r\n        }\r\n        fallback () external payable {\r\n    }*/\r\n    \r\n    //getter functions\r\n    function getContractState() external view returns(string memory) {\r\n            if (contractState == ContractState.Created) {\r\n                return \"Created\";\r\n            } else if (contractState == ContractState.Initiated) {\r\n                return \"Initiated\";\r\n            } else if (contractState == ContractState.Settled) {\r\n                return \"Settled\";\r\n            } else if (contractState == ContractState.Defaulted) {\r\n                return \"Defaulted\";\r\n            } else {\r\n                return \"state error\";\r\n            }\r\n    }\r\n    function getName() external view returns(string memory) {\r\n        return name;\r\n    }\r\n    function getSymbol() external view returns(string memory) {\r\n        return symbol;\r\n    }\r\n    \r\n    function getSizeOfContract() external view returns(uint256) {\r\n        return sizeOfContract;\r\n    }\r\n    function getUnderlyingDecimals() external view returns (int) {\r\n        return underlyingDecimals;\r\n    }\r\n    function getLong() external view returns (address) {\r\n            return long;\r\n    }\r\n    function getShort() external view returns (address) {\r\n            return short;\r\n    }\r\n    function getInitialForwardPrice() external view returns (uint256) {\r\n            return initialForwardPrice;\r\n    }\r\n    function getExpirationDate() external view returns (uint256) {\r\n            return expirationDate;\r\n    }\r\n    function getLongWalletAddress() external view returns (address) {\r\n            return longWallet;\r\n    }\r\n    function getShortWalletAddress() external view returns (address) {\r\n            return shortWallet;\r\n    }\r\n\r\n    function getUnderlyingApiURL() external view returns (string memory) {\r\n        return underlyingApiURL;\r\n    }\r\n\r\n    function getUnderlyingApiPath() external view returns (string memory) {\r\n        return underlyingApiPath;\r\n    }\r\n\r\n}",
  "sourcePath": "C:\\Users\\Tomi\\OneDrive - The University of Chicago\\Documents\\Securrency\\FuturesExchange\\contracts\\FFAContract.sol",
  "compiler": {
    "name": "solc",
    "version": "0.8.7+commit.e28d00a7.Emscripten.clang"
  },
  "schemaVersion": "3.4.2",
  "updatedAt": "2021-09-13T15:41:40.526Z",
  "networkType": "ethereum",
  "devdoc": {
    "kind": "dev",
    "methods": {},
    "version": 1
  },
  "userdoc": {
    "kind": "user",
    "methods": {},
    "version": 1
  }
}