{
  "contractName": "FFAContract",
  "abi": [
    {
      "inputs": [
        {
          "internalType": "string",
          "name": "_name",
          "type": "string"
        },
        {
          "internalType": "string",
          "name": "_symbol",
          "type": "string"
        },
        {
          "internalType": "uint256",
          "name": "_sizeOfContract",
          "type": "uint256"
        },
        {
          "internalType": "string",
          "name": "_underlyingApiURL",
          "type": "string"
        },
        {
          "internalType": "string",
          "name": "_underlyingApiPath",
          "type": "string"
        },
        {
          "internalType": "int256",
          "name": "_underlyingDecimals",
          "type": "int256"
        }
      ],
      "stateMutability": "nonpayable",
      "type": "constructor"
    },
    {
      "anonymous": false,
      "inputs": [
        {
          "indexed": false,
          "internalType": "int256",
          "name": "decimals",
          "type": "int256"
        },
        {
          "indexed": false,
          "internalType": "uint256",
          "name": "sizeOfContract",
          "type": "uint256"
        }
      ],
      "name": "CreatedContract",
      "type": "event"
    },
    {
      "anonymous": false,
      "inputs": [
        {
          "indexed": false,
          "internalType": "uint256",
          "name": "defaultDate",
          "type": "uint256"
        },
        {
          "indexed": false,
          "internalType": "address",
          "name": "defaultingParty",
          "type": "address"
        }
      ],
      "name": "Defaulted",
      "type": "event"
    },
    {
      "anonymous": false,
      "inputs": [
        {
          "indexed": true,
          "internalType": "address",
          "name": "long",
          "type": "address"
        },
        {
          "indexed": true,
          "internalType": "address",
          "name": "short",
          "type": "address"
        },
        {
          "indexed": false,
          "internalType": "uint256",
          "name": "initialForwardPrice",
          "type": "uint256"
        },
        {
          "indexed": false,
          "internalType": "int256",
          "name": "riskFreeRate",
          "type": "int256"
        },
        {
          "indexed": false,
          "internalType": "uint256",
          "name": "expirationDate",
          "type": "uint256"
        },
        {
          "indexed": false,
          "internalType": "uint256",
          "name": "sizeOfContract",
          "type": "uint256"
        },
        {
          "indexed": false,
          "internalType": "uint256",
          "name": "initialMarginRate",
          "type": "uint256"
        }
      ],
      "name": "Initiated",
      "type": "event"
    },
    {
      "anonymous": false,
      "inputs": [
        {
          "indexed": false,
          "internalType": "uint256",
          "name": "mtmDate",
          "type": "uint256"
        },
        {
          "indexed": false,
          "internalType": "int256",
          "name": "contractValueChange",
          "type": "int256"
        },
        {
          "indexed": false,
          "internalType": "address",
          "name": "long",
          "type": "address"
        },
        {
          "indexed": false,
          "internalType": "address",
          "name": "short",
          "type": "address"
        }
      ],
      "name": "MarkedToMarket",
      "type": "event"
    },
    {
      "anonymous": false,
      "inputs": [
        {
          "indexed": false,
          "internalType": "address",
          "name": "long",
          "type": "address"
        },
        {
          "indexed": false,
          "internalType": "address",
          "name": "short",
          "type": "address"
        },
        {
          "indexed": false,
          "internalType": "uint256",
          "name": "expirationDate",
          "type": "uint256"
        },
        {
          "indexed": false,
          "internalType": "int256",
          "name": "profitAndLoss",
          "type": "int256"
        }
      ],
      "name": "Settled",
      "type": "event"
    },
    {
      "inputs": [],
      "name": "annualRiskFreeRate",
      "outputs": [
        {
          "internalType": "int256",
          "name": "",
          "type": "int256"
        }
      ],
      "stateMutability": "view",
      "type": "function"
    },
    {
      "inputs": [],
      "name": "exposureMarginRate",
      "outputs": [
        {
          "internalType": "uint256",
          "name": "",
          "type": "uint256"
        }
      ],
      "stateMutability": "view",
      "type": "function"
    },
    {
      "inputs": [],
      "name": "initialForwardPrice",
      "outputs": [
        {
          "internalType": "uint256",
          "name": "",
          "type": "uint256"
        }
      ],
      "stateMutability": "view",
      "type": "function"
    },
    {
      "inputs": [],
      "name": "maintenanceMarginRate",
      "outputs": [
        {
          "internalType": "uint256",
          "name": "",
          "type": "uint256"
        }
      ],
      "stateMutability": "view",
      "type": "function"
    },
    {
      "inputs": [],
      "name": "name",
      "outputs": [
        {
          "internalType": "string",
          "name": "",
          "type": "string"
        }
      ],
      "stateMutability": "view",
      "type": "function"
    },
    {
      "inputs": [],
      "name": "prevDayClosingPrice",
      "outputs": [
        {
          "internalType": "uint256",
          "name": "",
          "type": "uint256"
        }
      ],
      "stateMutability": "view",
      "type": "function"
    },
    {
      "inputs": [],
      "name": "symbol",
      "outputs": [
        {
          "internalType": "string",
          "name": "",
          "type": "string"
        }
      ],
      "stateMutability": "view",
      "type": "function"
    },
    {
      "inputs": [],
      "name": "underlyingDecimals",
      "outputs": [
        {
          "internalType": "int256",
          "name": "",
          "type": "int256"
        }
      ],
      "stateMutability": "view",
      "type": "function"
    },
    {
      "inputs": [
        {
          "internalType": "address",
          "name": "_long",
          "type": "address"
        },
        {
          "internalType": "address",
          "name": "_short",
          "type": "address"
        },
        {
          "internalType": "uint256",
          "name": "_expirationDate",
          "type": "uint256"
        },
        {
          "internalType": "address",
          "name": "_longWallet",
          "type": "address"
        },
        {
          "internalType": "address",
          "name": "_shortWallet",
          "type": "address"
        },
        {
          "internalType": "uint256",
          "name": "_exposureMarginRate",
          "type": "uint256"
        },
        {
          "internalType": "uint256",
          "name": "_maintenanceMarginRate",
          "type": "uint256"
        },
        {
          "internalType": "address",
          "name": "_collateralTokenAddress",
          "type": "address"
        }
      ],
      "name": "initiateFFA",
      "outputs": [
        {
          "internalType": "bool",
          "name": "initiated_",
          "type": "bool"
        }
      ],
      "stateMutability": "nonpayable",
      "type": "function"
    },
    {
      "inputs": [],
      "name": "requestRiskFreeRate",
      "outputs": [],
      "stateMutability": "nonpayable",
      "type": "function"
    },
    {
      "inputs": [],
      "name": "setRiskFreeRate",
      "outputs": [],
      "stateMutability": "nonpayable",
      "type": "function"
    },
    {
      "inputs": [],
      "name": "requestUnderlyingPrice",
      "outputs": [],
      "stateMutability": "nonpayable",
      "type": "function"
    },
    {
      "inputs": [],
      "name": "setUnderlyingPrice",
      "outputs": [],
      "stateMutability": "nonpayable",
      "type": "function"
    },
    {
      "inputs": [],
      "name": "requestForwardPrice",
      "outputs": [],
      "stateMutability": "nonpayable",
      "type": "function"
    },
    {
      "inputs": [],
      "name": "getForwardPrice",
      "outputs": [
        {
          "internalType": "uint256",
          "name": "",
          "type": "uint256"
        }
      ],
      "stateMutability": "view",
      "type": "function"
    },
    {
      "inputs": [
        {
          "internalType": "uint256",
          "name": "currentForwardPrice",
          "type": "uint256"
        }
      ],
      "name": "markToMarket",
      "outputs": [],
      "stateMutability": "nonpayable",
      "type": "function"
    },
    {
      "inputs": [],
      "name": "settleAtExpiration",
      "outputs": [],
      "stateMutability": "nonpayable",
      "type": "function"
    },
    {
      "inputs": [
        {
          "internalType": "address",
          "name": "_defaultingParty",
          "type": "address"
        }
      ],
      "name": "defaultContract",
      "outputs": [
        {
          "internalType": "bool",
          "name": "defaulted_",
          "type": "bool"
        }
      ],
      "stateMutability": "nonpayable",
      "type": "function"
    },
    {
      "inputs": [
        {
          "internalType": "address",
          "name": "senderWalletAddress",
          "type": "address"
        },
        {
          "internalType": "address",
          "name": "recipientWalletAddress",
          "type": "address"
        },
        {
          "internalType": "uint256",
          "name": "amount",
          "type": "uint256"
        },
        {
          "internalType": "address",
          "name": "_collateralTokenAddress",
          "type": "address"
        }
      ],
      "name": "transferCollateralFrom",
      "outputs": [
        {
          "internalType": "bool",
          "name": "transfered_",
          "type": "bool"
        }
      ],
      "stateMutability": "nonpayable",
      "type": "function"
    },
    {
      "inputs": [],
      "name": "getContractState",
      "outputs": [
        {
          "internalType": "string",
          "name": "",
          "type": "string"
        }
      ],
      "stateMutability": "view",
      "type": "function"
    },
    {
      "inputs": [],
      "name": "getName",
      "outputs": [
        {
          "internalType": "string",
          "name": "",
          "type": "string"
        }
      ],
      "stateMutability": "view",
      "type": "function"
    },
    {
      "inputs": [],
      "name": "getSymbol",
      "outputs": [
        {
          "internalType": "string",
          "name": "",
          "type": "string"
        }
      ],
      "stateMutability": "view",
      "type": "function"
    },
    {
      "inputs": [],
      "name": "getSizeOfContract",
      "outputs": [
        {
          "internalType": "uint256",
          "name": "",
          "type": "uint256"
        }
      ],
      "stateMutability": "view",
      "type": "function"
    },
    {
      "inputs": [],
      "name": "getUnderlyingDecimals",
      "outputs": [
        {
          "internalType": "int256",
          "name": "",
          "type": "int256"
        }
      ],
      "stateMutability": "view",
      "type": "function"
    },
    {
      "inputs": [],
      "name": "getLong",
      "outputs": [
        {
          "internalType": "address",
          "name": "",
          "type": "address"
        }
      ],
      "stateMutability": "view",
      "type": "function"
    },
    {
      "inputs": [],
      "name": "getShort",
      "outputs": [
        {
          "internalType": "address",
          "name": "",
          "type": "address"
        }
      ],
      "stateMutability": "view",
      "type": "function"
    },
    {
      "inputs": [],
      "name": "getInitialForwardPrice",
      "outputs": [
        {
          "internalType": "uint256",
          "name": "",
          "type": "uint256"
        }
      ],
      "stateMutability": "view",
      "type": "function"
    },
    {
      "inputs": [],
      "name": "getExpirationDate",
      "outputs": [
        {
          "internalType": "uint256",
          "name": "",
          "type": "uint256"
        }
      ],
      "stateMutability": "view",
      "type": "function"
    },
    {
      "inputs": [],
      "name": "getLongWalletAddress",
      "outputs": [
        {
          "internalType": "address",
          "name": "",
          "type": "address"
        }
      ],
      "stateMutability": "view",
      "type": "function"
    },
    {
      "inputs": [],
      "name": "getShortWalletAddress",
      "outputs": [
        {
          "internalType": "address",
          "name": "",
          "type": "address"
        }
      ],
      "stateMutability": "view",
      "type": "function"
    },
    {
      "inputs": [],
      "name": "getUnderlyingApiURL",
      "outputs": [
        {
          "internalType": "string",
          "name": "",
          "type": "string"
        }
      ],
      "stateMutability": "view",
      "type": "function"
    },
    {
      "inputs": [],
      "name": "getUnderlyingApiPath",
      "outputs": [
        {
          "internalType": "string",
          "name": "",
          "type": "string"
        }
      ],
      "stateMutability": "view",
      "type": "function"
    }
  ],
  "bytecode": "0x60806040523480156200001157600080fd5b506040516200792138038062007921833981016040819052620000349162000333565b855162000049906000906020890190620001ac565b5084516200005f906001906020880190620001ac565b50600384905581516200007a906011906020850190620001ac565b50825162000090906010906020860190620001ac565b506012819055604051620000a4906200023b565b604051809103906000f080158015620000c1573d6000803e3d6000fd5b50601360006101000a8154816001600160a01b0302191690836001600160a01b0316021790555060125460106011604051620000fd9062000249565b6200010b93929190620004a6565b604051809103906000f08015801562000128573d6000803e3d6000fd5b50601480546001600160a01b0319166001600160a01b0392909216919091179055604051620001579062000257565b604051809103906000f08015801562000174573d6000803e3d6000fd5b50601580546001600160a01b0319166001600160a01b039290921691909117905550506002805460ff19169055506200052892505050565b828054620001ba90620004d5565b90600052602060002090601f016020900481019282620001de576000855562000229565b82601f10620001f957805160ff191683800117855562000229565b8280016001018555821562000229579182015b82811115620002295782518255916020019190600101906200020c565b506200023792915062000265565b5090565b611b3e80620021d883390190565b611bbd8062003d1683390190565b61204e80620058d383390190565b5b8082111562000237576000815560010162000266565b600082601f8301126200028e57600080fd5b81516001600160401b0380821115620002ab57620002ab62000512565b604051601f8301601f19908116603f01168101908282118183101715620002d657620002d662000512565b81604052838152602092508683858801011115620002f357600080fd5b600091505b83821015620003175785820183015181830184015290820190620002f8565b83821115620003295760008385830101525b9695505050505050565b60008060008060008060c087890312156200034d57600080fd5b86516001600160401b03808211156200036557600080fd5b620003738a838b016200027c565b975060208901519150808211156200038a57600080fd5b620003988a838b016200027c565b9650604089015195506060890151915080821115620003b657600080fd5b620003c48a838b016200027c565b94506080890151915080821115620003db57600080fd5b50620003ea89828a016200027c565b92505060a087015190509295509295509295565b8054600090600181811c90808316806200041957607f831692505b60208084108214156200043c57634e487b7160e01b600052602260045260246000fd5b838852602088018280156200045a57600181146200046c5762000499565b60ff1987168252828201975062000499565b60008981526020902060005b87811015620004935781548482015290860190840162000478565b83019850505b5050505050505092915050565b838152606060208201526000620004c16060830185620003fe565b8281036040840152620003298185620003fe565b600181811c90821680620004ea57607f821691505b602082108114156200050c57634e487b7160e01b600052602260045260246000fd5b50919050565b634e487b7160e01b600052604160045260246000fd5b611ca080620005386000396000f3fe608060405234801561001057600080fd5b50600436106101805760003560e01c806306fdde031461018557806315070401146101a357806317d7de7c146101ab5780631bc7d9ab146101b357806325a760c2146101bd5780632edef216146101d4578063343d2088146101dd5780633448f659146101e6578063381cf2e81461020957806347d3fa6d146102125780635ccee5fa146102375780635edf7d8b1461023f578063616ab42c146102475780636621f80d1461024f578063708febc81461025757806370a4cd34146102685780637ed63ce9146102705780637f4e48491461027857806380af00ca1461028057806385cbefa91461029357806389f00b6d1461029b5780638d2d8c5e146102a45780638f896f50146102ac57806392081a47146102bf578063923123b3146102c757806395d89b41146102cf5780639b655691146102d7578063addcb0e6146102df578063b317f5ec146102e8578063c5bf38a1146102f9578063c82ee7ab1461030c578063e279cbe11461031d575b600080fd5b61018d610325565b60405161019a9190611a23565b60405180910390f35b61018d6103b3565b61018d610445565b6101bb610454565b005b6101c660125481565b60405190815260200161019a565b6101c6600f5481565b6101c660065481565b6101f96101f4366004611806565b61050e565b604051901515815260200161019a565b6101c660075481565b6004546001600160a01b03165b6040516001600160a01b03909116815260200161019a565b6101bb610615565b6008546101c6565b61018d61064d565b6101c661065c565b600b546001600160a01b031661021f565b6101bb6106de565b6101bb61082b565b61018d6108d6565b6101bb61028e36600461192b565b610a05565b61018d610ba8565b6101c6600e5481565b6006546101c6565b6101f96102ba366004611821565b610bb7565b6012546101c6565b6003546101c6565b61018d61108e565b6101bb61109b565b6101c6600d5481565b6005546001600160a01b031661021f565b6101f961030736600461186e565b611126565b600a546001600160a01b031661021f565b6101bb6115be565b6000805461033290611b9f565b80601f016020809104026020016040519081016040528092919081815260200182805461035e90611b9f565b80156103ab5780601f10610380576101008083540402835291602001916103ab565b820191906000526020600020905b81548152906001019060200180831161038e57829003601f168201915b505050505081565b6060600180546103c290611b9f565b80601f01602080910402602001604051908101604052809291908181526020018280546103ee90611b9f565b801561043b5780601f106104105761010080835404028352916020019161043b565b820191906000526020600020905b81548152906001019060200180831161041e57829003601f168201915b5050505050905090565b6060600080546103c290611b9f565b6013546009546001600160a01b03909116906369723be79061049d9061047990611620565b610484600754611748565b61048d42611620565b610498600854611620565b61179d565b6040518263ffffffff1660e01b81526004016104b99190611a23565b602060405180830381600087803b1580156104d357600080fd5b505af11580156104e7573d6000803e3d6000fd5b505050506040513d601f19601f8201168201806040525081019061050b9190611912565b50565b6000600160025460ff16600381111561052957610529611c28565b1461054f5760405162461bcd60e51b815260040161054690611a56565b60405180910390fd5b600061055d426008546117cf565b116105bf5760405162461bcd60e51b815260206004820152602c60248201527f44656661756c74696e672063616e206f6e6c792068617070656e206265666f7260448201526b329032bc3834b930ba34b7b760a11b6064820152608401610546565b6002805460ff19166003179055604080514281526001600160a01b03841660208201527f724b99e866949401e1553ae6e0da07c7e24b0308581155730cbe34363752bd3f910160405180910390a1506001919050565b6014546040516369723be760e01b815260206004820152600060248201526001600160a01b03909116906369723be7906044016104b9565b6060601080546103c290611b9f565b60135460408051639df49c2360e01b815290516000926001600160a01b031691639df49c23916004808301926020929190829003018186803b1580156106a157600080fd5b505afa1580156106b5573d6000803e3d6000fd5b505050506040513d601f19601f820116820180604052508101906106d99190611912565b905090565b60006106ec600854426117cf565b10156107525760405162461bcd60e51b815260206004820152602f60248201527f536574746c656d656e742063616e6e6f74206f6363757265206265666f72652060448201526e65787069726174696f6e206461746560881b6064820152608401610546565b600160025460ff16600381111561076b5761076b611c28565b146107885760405162461bcd60e51b815260040161054690611a56565b600060035460065461079a9190611afa565b90506000600354600f546107ae9190611afa565b905060006107bc8383611b19565b6002805460ff191681179055600454600554600854604080516001600160a01b03948516815293909216602084015290820152606081018290529091507f408d2f82a05767182d614a96957816d6acbd66a392006f7aafee6d91fc880f909060800160405180910390a1505050565b6015546008546001600160a01b039091169063afb0a7d79061084e9042906117cf565b6040518263ffffffff1660e01b815260040161086c91815260200190565b600060405180830381600087803b15801561088657600080fd5b505af115801561089a573d6000803e3d6000fd5b50506015546040516369723be760e01b815260206004820152600060248201526001600160a01b0390911692506369723be791506044016104b9565b6060600060025460ff1660038111156108f1576108f1611c28565b1415610919575060408051808201909152600781526610dc99585d195960ca1b602082015290565b600160025460ff16600381111561093257610932611c28565b141561095c5750604080518082019091526009815268125b9a5d1a585d195960ba1b602082015290565b6002805460ff16600381111561097457610974611c28565b141561099c575060408051808201909152600781526614d95d1d1b195960ca1b602082015290565b600360025460ff1660038111156109b5576109b5611c28565b14156109df5750604080518082019091526009815268111959985d5b1d195960ba1b602082015290565b5060408051808201909152600b81526a39ba30ba329032b93937b960a91b602082015290565b600160025460ff166003811115610a1e57610a1e611c28565b14610a3b5760405162461bcd60e51b815260040161054690611a56565b6000610a49426008546117cf565b11610aa75760405162461bcd60e51b815260206004820152602860248201527f4d20746f206d2063616e206f6e6c792068617070656e206265666f72652065786044820152673834b930ba34b7b760c11b6064820152608401610546565b600060035482610ab79190611afa565b90506000600354600f54610acb9190611afa565b90506000610ad98284611b19565b90506000811315610b0a57600b54600a54600c54610b08926001600160a01b0390811692811691859116610bb7565b505b6000811215610b4657600a54600b54610b44916001600160a01b039081169116610b3384611bf5565b600c546001600160a01b0316610bb7565b505b600f84905560045460055460408051428152602081018590526001600160a01b0393841681830152929091166060830152517f63f10cc602ea66cf5c2a09a756a193c86ab46c33a794eb8d9aee6cf9426553a89181900360800190a150505050565b6060601180546103c290611b9f565b60006001600160a01b038516610c1b5760405162461bcd60e51b8152602060048201526024808201527f53656e6465722077616c6c657420616464726573732063616e6e6f74206265206044820152637a65726f60e01b6064820152608401610546565b6001600160a01b038416610c815760405162461bcd60e51b815260206004820152602760248201527f526563697069656e742077616c6c657420616464726573732063616e6e6f74206044820152666265207a65726f60c81b6064820152608401610546565b846001600160a01b0316846001600160a01b03161415610cfb5760405162461bcd60e51b815260206004820152602f60248201527f53656e64657220616e6420726563697069656e742077616c6c6574732063616e60448201526e6e6f74206265207468652073616d6560881b6064820152608401610546565b60008311610d625760405162461bcd60e51b815260206004820152602e60248201527f416d6f756e74207472616e736665727265642068617320746f2062652067726560448201526d61746572207468616e207a65726f60901b6064820152608401610546565b604051632a1e15e760e01b8152859085906000906001600160a01b03841690632a1e15e790610d9790309089906004016119e5565b60206040518083038186803b158015610daf57600080fd5b505afa158015610dc3573d6000803e3d6000fd5b505050506040513d601f19601f82011682018060405250810190610de79190611912565b905085811015610e435760405162461bcd60e51b815260206004820152602160248201527f636f6c6c61746572616c2062616c616e6365206e6f742073756666696369656e6044820152601d60fa1b6064820152608401610546565b60405163113026f160e11b81526001600160a01b038416906322604de290610e7390889030908b906004016119ff565b600060405180830381600087803b158015610e8d57600080fd5b505af1158015610ea1573d6000803e3d6000fd5b50506040516323b872dd60e01b81526001600160a01b03881692506323b872dd9150610ed5908b908b908b906004016119ff565b602060405180830381600087803b158015610eef57600080fd5b505af1158015610f03573d6000803e3d6000fd5b505050506040513d601f19601f82011682018060405250810190610f2791906118f0565b5060405163dfeff66160e01b8152868203906001600160a01b0385169063dfeff66190610f5c9030908a9086906004016119ff565b600060405180830381600087803b158015610f7657600080fd5b505af1158015610f8a573d6000803e3d6000fd5b5050505050600086836001600160a01b0316632a1e15e730896040518363ffffffff1660e01b8152600401610fc09291906119e5565b60206040518083038186803b158015610fd857600080fd5b505afa158015610fec573d6000803e3d6000fd5b505050506040513d601f19601f820116820180604052508101906110109190611912565b61101a9190611a9b565b60405163dfeff66160e01b81529091506001600160a01b0384169063dfeff6619061104d9030908a9086906004016119ff565b600060405180830381600087803b15801561106757600080fd5b505af115801561107b573d6000803e3d6000fd5b5060019c9b505050505050505050505050565b6001805461033290611b9f565b601560009054906101000a90046001600160a01b03166001600160a01b031663bd2563fb6040518163ffffffff1660e01b815260040160206040518083038186803b1580156110e957600080fd5b505afa1580156110fd573d6000803e3d6000fd5b505050506040513d601f19601f820116820180604052508101906111219190611912565b600755565b60006001600160a01b03891661117b5760405162461bcd60e51b815260206004820152601a6024820152794c6f6e672063616e2774206265207a65726f206164647265737360301b6044820152606401610546565b6001600160a01b0388166111cf5760405162461bcd60e51b815260206004820152601b60248201527a53686f72742063616e2774206265207a65726f206164647265737360281b6044820152606401610546565b876001600160a01b0316896001600160a01b0316141561123c5760405162461bcd60e51b815260206004820152602260248201527f4c6f6e6720616e642073686f72742063616e27742062652073616d6520706172604482015261747960f01b6064820152608401610546565b6001600160a01b03861661129e5760405162461bcd60e51b8152602060048201526024808201527f4c6f6e672077616c6c65742063616e6e6f742068617665207a65726f206164646044820152637265737360e01b6064820152608401610546565b6001600160a01b0385166113025760405162461bcd60e51b815260206004820152602560248201527f53686f72742077616c6c65742063616e6e6f742068617665207a65726f206164604482015264647265737360d81b6064820152608401610546565b846001600160a01b0316866001600160a01b031614156113765760405162461bcd60e51b815260206004820152602960248201527f6c6f6e6720616e642073686f72742077616c6c6574732063616e6e6f74206265604482015268207468652073616d6560b81b6064820152608401610546565b826113d25760405162461bcd60e51b815260206004820152602660248201527f6d61696e74656e616e6365206d617267696e20726174652063616e6e6f74206260448201526565207a65726f60d01b6064820152608401610546565b60006113de42896117cf565b1161143c5760405162461bcd60e51b815260206004820152602860248201527f46464120636f6e74726163742068617320746f2065787069726520696e207468604482015267652066757475726560c01b6064820152608401610546565b600480546001600160a01b03808c166001600160a01b031992831617909255600580548b841692169190911790556015541663afb0a7d761147d428a6117cf565b6040518263ffffffff1660e01b815260040161149b91815260200190565b600060405180830381600087803b1580156114b557600080fd5b505af11580156114c9573d6000803e3d6000fd5b505060006006819055600f81905560088a9055600a80546001600160a01b038b81166001600160a01b031992831617909255600b80548b8416908316179055600d899055600e889055600c8054928816929091169190911790556002805460ff19166001179055915061153e90508486611a9b565b600554600454600654600754600854600354604080519485526020850193909352918301526060820152608081018490529293506001600160a01b03918216929116907fdabcbd8689bd18e2ffb54dbab7b5f14a246f19bec1c9184bee7ac6eeae2f2f299060a00160405180910390a35060019998505050505050505050565b601460009054906101000a90046001600160a01b03166001600160a01b0316639df49c236040518163ffffffff1660e01b815260040160206040518083038186803b15801561160c57600080fd5b505afa1580156104e7573d6000803e3d6000fd5b6060816116445750506040805180820190915260018152600360fc1b602082015290565b8160005b811561166e578061165881611bda565b91506116679050600a83611ad8565b9150611648565b6000816001600160401b0381111561168857611688611c54565b6040519080825280601f01601f1916602001820160405280156116b2576020820181803683370190505b509050815b851561173f576116c8600182611b58565b905060006116d7600a88611ad8565b6116e290600a611afa565b6116ec9088611b58565b6116f7906030611ab3565b905060008160f81b90508084848151811061171457611714611c3e565b60200101906001600160f81b031916908160001a905350611736600a89611ad8565b975050506116b7565b50949350505050565b6060600082126117615761175b82611620565b92915050565b61177261176d83611bf5565b611620565b60405160200161178291906119bc565b6040516020818303038152906040529050919050565b919050565b6060848484846040516020016117b69493929190611944565b6040516020818303038152906040529050949350505050565b6000818311156117de57600080fd5b6117e88383611b58565b9392505050565b80356001600160a01b038116811461179857600080fd5b60006020828403121561181857600080fd5b6117e8826117ef565b6000806000806080858703121561183757600080fd5b611840856117ef565b935061184e602086016117ef565b925060408501359150611863606086016117ef565b905092959194509250565b600080600080600080600080610100898b03121561188b57600080fd5b611894896117ef565b97506118a260208a016117ef565b9650604089013595506118b760608a016117ef565b94506118c560808a016117ef565b935060a0890135925060c089013591506118e160e08a016117ef565b90509295985092959890939650565b60006020828403121561190257600080fd5b815180151581146117e857600080fd5b60006020828403121561192457600080fd5b5051919050565b60006020828403121561193d57600080fd5b5035919050565b60008551611956818460208a01611b6f565b8083019050602f60f81b8082528651611976816001850160208b01611b6f565b600192019182018190528551611993816002850160208a01611b6f565b600292019182015283516119ae816003840160208801611b6f565b016003019695505050505050565b602d60f81b8152600082516119d8816001850160208701611b6f565b9190910160010192915050565b6001600160a01b0392831681529116602082015260400190565b6001600160a01b039384168152919092166020820152604081019190915260600190565b6020815260008251806020840152611a42816040850160208701611b6f565b601f01601f19169190910160400192915050565b60208082526025908201527f436f6e74726163742068617320746f20626520696e20496e6974696174656420604082015264737461746560d81b606082015260800190565b60008219821115611aae57611aae611c12565b500190565b600060ff821660ff84168060ff03821115611ad057611ad0611c12565b019392505050565b600082611af557634e487b7160e01b600052601260045260246000fd5b500490565b6000816000190483118215151615611b1457611b14611c12565b500290565b60008083128015600160ff1b850184121615611b3757611b37611c12565b6001600160ff1b0384018313811615611b5257611b52611c12565b50500390565b600082821015611b6a57611b6a611c12565b500390565b60005b83811015611b8a578181015183820152602001611b72565b83811115611b99576000848401525b50505050565b600181811c90821680611bb357607f821691505b60208210811415611bd457634e487b7160e01b600052602260045260246000fd5b50919050565b6000600019821415611bee57611bee611c12565b5060010190565b6000600160ff1b821415611c0b57611c0b611c12565b5060000390565b634e487b7160e01b600052601160045260246000fd5b634e487b7160e01b600052602160045260246000fd5b634e487b7160e01b600052603260045260246000fd5b634e487b7160e01b600052604160045260246000fdfea26469706673582212201b61c3db759c1850737647833beadd133770630b2cdf36c175029054e7d6407164736f6c6343000807003360806040526001600455600f80546001600160a01b03199081167356dd6586db0d08c6ce7b2f2805af28616e082455179091556010805490911673a36085f69e2889c224210f603d836748e7dc008817905567016345785d8a00006011557f623636303264313465343733346334396135653163653139643435613436333260125560646013553480156200009357600080fd5b5060135460405180606001604052806029815260200162001b1560299139604080518082019091526005815264707269636560d81b6020820152601254600f546010546011548692869286926000926001600160a01b03908116928892911690878787876200010233620001b4565b6001600160a01b03861662000121576200011b62000206565b6200012c565b6200012c866200029b565b600980546001600160a01b0319166001600160a01b038a16179055600a879055600e859055600d84905582516200016b90600c906020860190620002bd565b5081516200018190600b906020850190620002bd565b5060068054911515600160a01b0260ff60a01b1990921691909117905550620003d29d5050505050505050505050505050565b600680546001600160a01b038381166001600160a01b0319831681179093556040519116919082907f8be0079c531659141344cd1fd0a4f28419497f9722a3daafe3b4186f6b6457e090600090a35050565b6200029973c89bd4e1632d3a43cb03aaad5262cbe4038bc5716001600160a01b03166338cc48316040518163ffffffff1660e01b815260040160206040518083038186803b1580156200025857600080fd5b505afa1580156200026d573d6000803e3d6000fd5b505050506040513d601f19601f8201168201806040525081019062000293919062000363565b6200029b565b565b600280546001600160a01b0319166001600160a01b0392909216919091179055565b828054620002cb9062000395565b90600052602060002090601f016020900481019282620002ef57600085556200033a565b82601f106200030a57805160ff19168380011785556200033a565b828001600101855582156200033a579182015b828111156200033a5782518255916020019190600101906200031d565b50620003489291506200034c565b5090565b5b808211156200034857600081556001016200034d565b6000602082840312156200037657600080fd5b81516001600160a01b03811681146200038e57600080fd5b9392505050565b600181811c90821680620003aa57607f821691505b60208210811415620003cc57634e487b7160e01b600052602260045260246000fd5b50919050565b61173380620003e26000396000f3fe6080604052600436106100f05760003560e01c8063185defc614610132578063313ce567146101685780634665e65a1461018c57806351744bca146101a257806369723be7146101c25780636fb7cb57146101e2578063715018a6146102025780637e0b66d0146102175780638da5cb5b146102375780638dc654a21461024c578063918c00b9146102615780639df49c2314610292578063a89ae4ba146102a7578063bd2563fb146102c7578063c2939d97146102dc578063c5b37c22146102f2578063d233da0814610308578063ddca3f431461031e578063de0a217d14610334578063f2fde38b1461037257005b36610130577f88a5966d370b9919b20f3e2c13ff65706f196a4e32cc2c12bf57088f88525874333460405161012692919061135e565b60405180910390a1005b005b34801561013e57600080fd5b50601054610152906001600160a01b031681565b60405161015f919061134a565b60405180910390f35b34801561017457600080fd5b5061017e600d5481565b60405190815260200161015f565b34801561019857600080fd5b5061017e60125481565b3480156101ae57600080fd5b506101306101bd366004611204565b610392565b3480156101ce57600080fd5b5061017e6101dd366004611226565b610430565b3480156101ee57600080fd5b50600f54610152906001600160a01b031681565b34801561020e57600080fd5b50610130610697565b34801561022357600080fd5b50610130610232366004611204565b6106d2565b34801561024357600080fd5b5061015261075e565b34801561025857600080fd5b5061013061076d565b34801561026d57600080fd5b5060065461028290600160a01b900460ff1681565b604051901515815260200161015f565b34801561029e57600080fd5b5060075461017e565b3480156102b357600080fd5b50600954610152906001600160a01b031681565b3480156102d357600080fd5b5060085461017e565b3480156102e857600080fd5b5061017e600a5481565b3480156102fe57600080fd5b5061017e60115481565b34801561031457600080fd5b5061017e60135481565b34801561032a57600080fd5b5061017e600e5481565b34801561034057600080fd5b5061036560405180604001604052806005815260200164707269636560d81b81525081565b60405161015f9190611406565b34801561037e57600080fd5b5061013061038d3660046111b9565b610931565b60008281526005602052604090205482906001600160a01b031633146103d35760405162461bcd60e51b81526004016103ca9061144e565b60405180910390fd5b60008181526005602052604080822080546001600160a01b03191690555182916000805160206116de83398151915291a260088290556040518381526000805160206116be833981519152906020015b60405180910390a1505050565b600061043a61116a565b600654600160a01b900460ff161561046857600a5461046190306328ba25e560e11b6109d1565b9050610480565b600a5461047d90306307e0b66d60e41b6109d1565b90505b61053b6040518060400160405280600381526020016219d95d60ea1b815250610533600c80546104af9061163a565b80601f01602080910402602001604051908101604052809291908181526020018280546104db9061163a565b80156105285780601f106104fd57610100808354040283529160200191610528565b820191906000526020600020905b81548152906001019060200180831161050b57829003601f168201915b5050505050866109f6565b839190610a23565b6105f6604051806040016040528060048152602001630e0c2e8d60e31b815250600b80546105689061163a565b80601f01602080910402602001604051908101604052809291908181526020018280546105949061163a565b80156105e15780601f106105b6576101008083540402835291602001916105e1565b820191906000526020600020905b8154815290600101906020018083116105c457829003601f168201915b505050505083610a239092919063ffffffff16565b60408051808201909152600581526474696d657360d81b6020820152600d54610620918391610a46565b600954600e5461063b916001600160a01b0316908390610a64565b600954600a54600e54604080516001600160a01b0390941684526020840192909252908201529092507f5de0ca4d601c6369aafe37da9bab92be9804895234cdb72d8181492e84e6bcb29060600160405180910390a150919050565b336106a061075e565b6001600160a01b0316146106c65760405162461bcd60e51b81526004016103ca90611419565b6106d06000610a83565b565b60008281526005602052604090205482906001600160a01b0316331461070a5760405162461bcd60e51b81526004016103ca9061144e565b60008181526005602052604080822080546001600160a01b03191690555182916000805160206116de83398151915291a260078290556040518381526000805160206116be83398151915290602001610423565b6006546001600160a01b031690565b3361077661075e565b6001600160a01b03161461079c5760405162461bcd60e51b81526004016103ca90611419565b60006107b06002546001600160a01b031690565b90506000816001600160a01b03166370a08231306040518263ffffffff1660e01b81526004016107e0919061134a565b60206040518083038186803b1580156107f857600080fd5b505afa15801561080c573d6000803e3d6000fd5b505050506040513d601f19601f8201168201806040525081019061083091906112d6565b60405163a9059cbb60e01b81529091506001600160a01b0383169063a9059cbb90610861903390859060040161135e565b602060405180830381600087803b15801561087b57600080fd5b505af115801561088f573d6000803e3d6000fd5b505050506040513d601f19601f820116820180604052508101906108b391906111e2565b6108f45760405162461bcd60e51b8152602060048201526012602482015271556e61626c6520746f20776974686472617760701b60448201526064016103ca565b7fcb1436249a1dd8cf93362c28d79a4e20dc54398b6c49e30316e8396e72a584b0338260405161092592919061135e565b60405180910390a15050565b3361093a61075e565b6001600160a01b0316146109605760405162461bcd60e51b81526004016103ca90611419565b6001600160a01b0381166109c55760405162461bcd60e51b815260206004820152602660248201527f4f776e61626c653a206e6577206f776e657220697320746865207a65726f206160448201526564647265737360d01b60648201526084016103ca565b6109ce81610a83565b50565b6109d961116a565b6109e161116a565b6109ed81868686610ad5565b95945050505050565b60608282604051602001610a0b92919061131b565b60405160208183030381529060405290505b92915050565b6080830151610a329083610b12565b6080830151610a419082610b12565b505050565b6080830151610a559083610b12565b6080830151610a419082610b29565b6000610a7b84848460016320214ca360e11b610b8b565b949350505050565b600680546001600160a01b038381166001600160a01b0319831681179093556040519116919082907f8be0079c531659141344cd1fd0a4f28419497f9722a3daafe3b4186f6b6457e090600090a35050565b610add61116a565b610aed8560800151610100610d92565b50509183526001600160a01b031660208301526001600160e01b031916604082015290565b610b1f8260038351610dea565b610a418282610ebd565b6001600160401b0319811215610b4757610b438282610ede565b5050565b6001600160401b03811315610b6057610b438282610f20565b60008112610b7457610b4382600083610dea565b610b43826001610b86846000196115b8565b610dea565b6004546040516001600160601b03193060601b166020820152603481019190915260009060540160408051808303601f19018152918152815160209283012060045460608901526000818152600590935281832080546001600160a01b0319166001600160a01b038b16179055905190925082917fb5e6e01e79f91267dc17b4e6314d5d4d03593d2ceee0fbb452b750bd70ea5af991a2600082600080886000015189602001518a604001518b606001518a8d6080015160000151604051602401610c5d989796959493929190611377565b60408051601f198184030181529181526020820180516001600160e01b03166001600160e01b0319909416939093179092526002549151630200057560e51b81529092506001600160a01b0390911690634000aea090610cc5908a90899086906004016113df565b602060405180830381600087803b158015610cdf57600080fd5b505af1158015610cf3573d6000803e3d6000fd5b505050506040513d601f19601f82011682018060405250810190610d1791906111e2565b610d6f5760405162461bcd60e51b815260206004820152602360248201527f756e61626c6520746f207472616e73666572416e6443616c6c20746f206f7261604482015262636c6560e81b60648201526084016103ca565b600160046000828254610d829190611496565b9091555091979650505050505050565b610d9a61119f565b610da560208361166f565b15610dcd57610db560208361166f565b610dc09060206115f7565b610dca9083611496565b91505b506020828101829052604080518085526000815290920101905290565b60178111610e0b57610e058360e0600585901b168317610f43565b50505050565b60ff8111610e3557610e28836018611fe0600586901b1617610f43565b50610e0583826001610f5b565b61ffff8111610e6057610e53836019611fe0600586901b1617610f43565b50610e0583826002610f5b565b63ffffffff8111610e8d57610e8083601a611fe0600586901b1617610f43565b50610e0583826004610f5b565b6001600160401b038111610a4157610eb083601b611fe0600586901b1617610f43565b50610e0583826008610f5b565b610ec561119f565b610ed783846000015151848551610f74565b9392505050565b610ee98260c3610f43565b50610b4382610efa836000196115b8565b604051602001610f0c91815260200190565b60405160208183030381529060405261106c565b610f2b8260c2610f43565b50610b438282604051602001610f0c91815260200190565b610f4b61119f565b610ed78384600001515184611079565b610f6361119f565b610a7b8485600001515185856110c8565b610f7c61119f565b8251821115610f8a57600080fd5b6020850151610f998386611496565b1115610fcc57610fcc85610fbc87602001518786610fb79190611496565b61113c565b610fc7906002611599565b611153565b600080865180518760208301019350808887011115610feb5787860182525b505050602084015b6020841061102b578051825261100a602083611496565b9150611017602082611496565b90506110246020856115f7565b9350610ff3565b6000600161103a8660206115f7565b611046906101006114f1565b61105091906115f7565b9151835183169219169190911790915250849050949350505050565b610b1f8260028351610dea565b61108161119f565b836020015183106110a1576110a18485602001516002610fc79190611599565b8351805160208583010184815350808514156110be576001810182525b5093949350505050565b6110d061119f565b60208501516110df8584611496565b11156110f3576110f385610fbc8685611496565b60006001611103846101006114f1565b61110d91906115f7565b90508551838682010185831982511617815250805184870111156111315783860181525b509495945050505050565b60008183111561114d575081610a1d565b50919050565b815161115f8383610d92565b50610e058382610ebd565b6040805160a08101825260008082526020820181905291810182905260608101919091526080810161119a61119f565b905290565b604051806040016040528060608152602001600081525090565b6000602082840312156111cb57600080fd5b81356001600160a01b0381168114610ed757600080fd5b6000602082840312156111f457600080fd5b81518015158114610ed757600080fd5b6000806040838503121561121757600080fd5b50508035926020909101359150565b60006020828403121561123857600080fd5b81356001600160401b038082111561124f57600080fd5b818401915084601f83011261126357600080fd5b813581811115611275576112756116a7565b604051601f8201601f19908116603f0116810190838211818310171561129d5761129d6116a7565b816040528281528760208487010111156112b657600080fd5b826020860160208301376000928101602001929092525095945050505050565b6000602082840312156112e857600080fd5b5051919050565b6000815180845261130781602086016020860161160e565b601f01601f19169290920160200192915050565b6000835161132d81846020880161160e565b83519083019061134181836020880161160e565b01949350505050565b6001600160a01b0391909116815260200190565b6001600160a01b03929092168252602082015260400190565b6001600160a01b0389811682526020820189905260408201889052861660608201526001600160e01b03198516608082015260a0810184905260c0810183905261010060e082018190526000906113d0838201856112ef565b9b9a5050505050505050505050565b60018060a01b03841681528260208201526060604082015260006109ed60608301846112ef565b602081526000610ed760208301846112ef565b6020808252818101527f4f776e61626c653a2063616c6c6572206973206e6f7420746865206f776e6572604082015260600190565b60208082526028908201527f536f75726365206d75737420626520746865206f7261636c65206f6620746865604082015267081c995c5d595cdd60c21b606082015260800190565b600082198211156114a9576114a9611691565b500190565b600181815b808511156114e95781600019048211156114cf576114cf611691565b808516156114dc57918102915b93841c93908002906114b3565b509250929050565b6000610ed7838360008261150757506001610a1d565b8161151457506000610a1d565b816001811461152a576002811461153457611550565b6001915050610a1d565b60ff84111561154557611545611691565b50506001821b610a1d565b5060208310610133831016604e8410600b8410161715611573575081810a610a1d565b61157d83836114ae565b806000190482111561159157611591611691565b029392505050565b60008160001904831182151516156115b3576115b3611691565b500290565b60008083128015600160ff1b8501841216156115d6576115d6611691565b6001600160ff1b03840183138116156115f1576115f1611691565b50500390565b60008282101561160957611609611691565b500390565b60005b83811015611629578181015183820152602001611611565b83811115610e055750506000910152565b600181811c9082168061164e57607f821691505b6020821081141561114d57634e487b7160e01b600052602260045260246000fd5b60008261168c57634e487b7160e01b600052601260045260246000fd5b500690565b634e487b7160e01b600052601160045260246000fd5b634e487b7160e01b600052604160045260246000fdfe6930ee93026433301a14b1baa0b52ca0d4640cb1edaa703beeb9056e235269847cc135e0cebb02c3480ae5d74d377283180a2601f8f644edf7987b009316c63aa2646970667358221220cdd93fef7c8b568e8f5bacaabb9e3b35aadb50f2c4f0199b217320dc75adae9064736f6c63430008070033687474703a2f2f76616c756174696f6e2d6170692e6865726f6b756170702e636f6d2f70726963652f60806040526001600455600f80546001600160a01b03199081167356dd6586db0d08c6ce7b2f2805af28616e082455179091556010805490911673a36085f69e2889c224210f603d836748e7dc008817905567016345785d8a00006011557f62363630326431346534373334633439613565316365313964343561343633326012553480156200008e57600080fd5b5060405162001bbd38038062001bbd833981016040819052620000b19162000430565b601254600f546010546011548692869286926000926001600160a01b0390811692889291169087878787620000e63362000198565b6001600160a01b0386166200010557620000ff620001ea565b62000110565b62000110866200027f565b600980546001600160a01b0319166001600160a01b038a16179055600a879055600e859055600d84905582516200014f90600c906020860190620002a1565b5081516200016590600b906020850190620002a1565b5060068054911515600160a01b0260ff60a01b1990921691909117905550620004f79d5050505050505050505050505050565b600680546001600160a01b038381166001600160a01b0319831681179093556040519116919082907f8be0079c531659141344cd1fd0a4f28419497f9722a3daafe3b4186f6b6457e090600090a35050565b6200027d73c89bd4e1632d3a43cb03aaad5262cbe4038bc5716001600160a01b03166338cc48316040518163ffffffff1660e01b815260040160206040518083038186803b1580156200023c57600080fd5b505afa15801562000251573d6000803e3d6000fd5b505050506040513d601f19601f82011682018060405250810190620002779190620003fe565b6200027f565b565b600280546001600160a01b0319166001600160a01b0392909216919091179055565b828054620002af90620004a4565b90600052602060002090601f016020900481019282620002d357600085556200031e565b82601f10620002ee57805160ff19168380011785556200031e565b828001600101855582156200031e579182015b828111156200031e57825182559160200191906001019062000301565b506200032c92915062000330565b5090565b5b808211156200032c576000815560010162000331565b600082601f8301126200035957600080fd5b81516001600160401b0380821115620003765762000376620004e1565b604051601f8301601f19908116603f01168101908282118183101715620003a157620003a1620004e1565b81604052838152602092508683858801011115620003be57600080fd5b600091505b83821015620003e25785820183015181830184015290820190620003c3565b83821115620003f45760008385830101525b9695505050505050565b6000602082840312156200041157600080fd5b81516001600160a01b03811681146200042957600080fd5b9392505050565b6000806000606084860312156200044657600080fd5b835160208501519093506001600160401b03808211156200046657600080fd5b620004748783880162000347565b935060408601519150808211156200048b57600080fd5b506200049a8682870162000347565b9150509250925092565b600181811c90821680620004b957607f821691505b60208210811415620004db57634e487b7160e01b600052602260045260246000fd5b50919050565b634e487b7160e01b600052604160045260246000fd5b6116b680620005076000396000f3fe6080604052600436106100da5760003560e01c8063185defc61461011c578063313ce567146101525780634665e65a1461017657806351744bca1461018c57806369723be7146101ac5780636fb7cb57146101cc578063715018a6146101ec5780637e0b66d0146102015780638da5cb5b146102215780638dc654a214610236578063918c00b91461024b5780639df49c231461027c578063a89ae4ba14610291578063bd2563fb146102b1578063c2939d97146102c6578063c5b37c22146102dc578063ddca3f43146102f2578063f2fde38b1461030857005b3661011a577f88a5966d370b9919b20f3e2c13ff65706f196a4e32cc2c12bf57088f8852587433346040516101109291906112f4565b60405180910390a1005b005b34801561012857600080fd5b5060105461013c906001600160a01b031681565b60405161014991906112e0565b60405180910390f35b34801561015e57600080fd5b50610168600d5481565b604051908152602001610149565b34801561018257600080fd5b5061016860125481565b34801561019857600080fd5b5061011a6101a736600461119a565b610328565b3480156101b857600080fd5b506101686101c73660046111bc565b6103c6565b3480156101d857600080fd5b50600f5461013c906001600160a01b031681565b3480156101f857600080fd5b5061011a61062d565b34801561020d57600080fd5b5061011a61021c36600461119a565b610668565b34801561022d57600080fd5b5061013c6106f4565b34801561024257600080fd5b5061011a610703565b34801561025757600080fd5b5060065461026c90600160a01b900460ff1681565b6040519015158152602001610149565b34801561028857600080fd5b50600754610168565b34801561029d57600080fd5b5060095461013c906001600160a01b031681565b3480156102bd57600080fd5b50600854610168565b3480156102d257600080fd5b50610168600a5481565b3480156102e857600080fd5b5061016860115481565b3480156102fe57600080fd5b50610168600e5481565b34801561031457600080fd5b5061011a61032336600461114f565b6108c7565b60008281526005602052604090205482906001600160a01b031633146103695760405162461bcd60e51b8152600401610360906113d1565b60405180910390fd5b60008181526005602052604080822080546001600160a01b031916905551829160008051602061166183398151915291a26008829055604051838152600080516020611641833981519152906020015b60405180910390a1505050565b60006103d0611100565b600654600160a01b900460ff16156103fe57600a546103f790306328ba25e560e11b610967565b9050610416565b600a5461041390306307e0b66d60e41b610967565b90505b6104d16040518060400160405280600381526020016219d95d60ea1b8152506104c9600c8054610445906115bd565b80601f0160208091040260200160405190810160405280929190818152602001828054610471906115bd565b80156104be5780601f10610493576101008083540402835291602001916104be565b820191906000526020600020905b8154815290600101906020018083116104a157829003601f168201915b50505050508661098c565b8391906109b9565b61058c604051806040016040528060048152602001630e0c2e8d60e31b815250600b80546104fe906115bd565b80601f016020809104026020016040519081016040528092919081815260200182805461052a906115bd565b80156105775780601f1061054c57610100808354040283529160200191610577565b820191906000526020600020905b81548152906001019060200180831161055a57829003601f168201915b5050505050836109b99092919063ffffffff16565b60408051808201909152600581526474696d657360d81b6020820152600d546105b69183916109dc565b600954600e546105d1916001600160a01b03169083906109fa565b600954600a54600e54604080516001600160a01b0390941684526020840192909252908201529092507f5de0ca4d601c6369aafe37da9bab92be9804895234cdb72d8181492e84e6bcb29060600160405180910390a150919050565b336106366106f4565b6001600160a01b03161461065c5760405162461bcd60e51b81526004016103609061139c565b6106666000610a19565b565b60008281526005602052604090205482906001600160a01b031633146106a05760405162461bcd60e51b8152600401610360906113d1565b60008181526005602052604080822080546001600160a01b031916905551829160008051602061166183398151915291a26007829055604051838152600080516020611641833981519152906020016103b9565b6006546001600160a01b031690565b3361070c6106f4565b6001600160a01b0316146107325760405162461bcd60e51b81526004016103609061139c565b60006107466002546001600160a01b031690565b90506000816001600160a01b03166370a08231306040518263ffffffff1660e01b815260040161077691906112e0565b60206040518083038186803b15801561078e57600080fd5b505afa1580156107a2573d6000803e3d6000fd5b505050506040513d601f19601f820116820180604052508101906107c6919061126c565b60405163a9059cbb60e01b81529091506001600160a01b0383169063a9059cbb906107f790339085906004016112f4565b602060405180830381600087803b15801561081157600080fd5b505af1158015610825573d6000803e3d6000fd5b505050506040513d601f19601f820116820180604052508101906108499190611178565b61088a5760405162461bcd60e51b8152602060048201526012602482015271556e61626c6520746f20776974686472617760701b6044820152606401610360565b7fcb1436249a1dd8cf93362c28d79a4e20dc54398b6c49e30316e8396e72a584b033826040516108bb9291906112f4565b60405180910390a15050565b336108d06106f4565b6001600160a01b0316146108f65760405162461bcd60e51b81526004016103609061139c565b6001600160a01b03811661095b5760405162461bcd60e51b815260206004820152602660248201527f4f776e61626c653a206e6577206f776e657220697320746865207a65726f206160448201526564647265737360d01b6064820152608401610360565b61096481610a19565b50565b61096f611100565b610977611100565b61098381868686610a6b565b95945050505050565b606082826040516020016109a19291906112b1565b60405160208183030381529060405290505b92915050565b60808301516109c89083610aa8565b60808301516109d79082610aa8565b505050565b60808301516109eb9083610aa8565b60808301516109d79082610abf565b6000610a1184848460016320214ca360e11b610b21565b949350505050565b600680546001600160a01b038381166001600160a01b0319831681179093556040519116919082907f8be0079c531659141344cd1fd0a4f28419497f9722a3daafe3b4186f6b6457e090600090a35050565b610a73611100565b610a838560800151610100610d28565b50509183526001600160a01b031660208301526001600160e01b031916604082015290565b610ab58260038351610d80565b6109d78282610e53565b6001600160401b0319811215610add57610ad98282610e74565b5050565b6001600160401b03811315610af657610ad98282610eb6565b60008112610b0a57610ad982600083610d80565b610ad9826001610b1c8460001961153b565b610d80565b6004546040516001600160601b03193060601b166020820152603481019190915260009060540160408051808303601f19018152918152815160209283012060045460608901526000818152600590935281832080546001600160a01b0319166001600160a01b038b16179055905190925082917fb5e6e01e79f91267dc17b4e6314d5d4d03593d2ceee0fbb452b750bd70ea5af991a2600082600080886000015189602001518a604001518b606001518a8d6080015160000151604051602401610bf398979695949392919061130d565b60408051601f198184030181529181526020820180516001600160e01b03166001600160e01b0319909416939093179092526002549151630200057560e51b81529092506001600160a01b0390911690634000aea090610c5b908a9089908690600401611375565b602060405180830381600087803b158015610c7557600080fd5b505af1158015610c89573d6000803e3d6000fd5b505050506040513d601f19601f82011682018060405250810190610cad9190611178565b610d055760405162461bcd60e51b815260206004820152602360248201527f756e61626c6520746f207472616e73666572416e6443616c6c20746f206f7261604482015262636c6560e81b6064820152608401610360565b600160046000828254610d189190611419565b9091555091979650505050505050565b610d30611135565b610d3b6020836115f2565b15610d6357610d4b6020836115f2565b610d5690602061157a565b610d609083611419565b91505b506020828101829052604080518085526000815290920101905290565b60178111610da157610d9b8360e0600585901b168317610ed9565b50505050565b60ff8111610dcb57610dbe836018611fe0600586901b1617610ed9565b50610d9b83826001610ef1565b61ffff8111610df657610de9836019611fe0600586901b1617610ed9565b50610d9b83826002610ef1565b63ffffffff8111610e2357610e1683601a611fe0600586901b1617610ed9565b50610d9b83826004610ef1565b6001600160401b0381116109d757610e4683601b611fe0600586901b1617610ed9565b50610d9b83826008610ef1565b610e5b611135565b610e6d83846000015151848551610f0a565b9392505050565b610e7f8260c3610ed9565b50610ad982610e908360001961153b565b604051602001610ea291815260200190565b604051602081830303815290604052611002565b610ec18260c2610ed9565b50610ad98282604051602001610ea291815260200190565b610ee1611135565b610e6d838460000151518461100f565b610ef9611135565b610a1184856000015151858561105e565b610f12611135565b8251821115610f2057600080fd5b6020850151610f2f8386611419565b1115610f6257610f6285610f5287602001518786610f4d9190611419565b6110d2565b610f5d90600261151c565b6110e9565b600080865180518760208301019350808887011115610f815787860182525b505050602084015b60208410610fc15780518252610fa0602083611419565b9150610fad602082611419565b9050610fba60208561157a565b9350610f89565b60006001610fd086602061157a565b610fdc90610100611474565b610fe6919061157a565b9151835183169219169190911790915250849050949350505050565b610ab58260028351610d80565b611017611135565b83602001518310611037576110378485602001516002610f5d919061151c565b835180516020858301018481535080851415611054576001810182525b5093949350505050565b611066611135565b60208501516110758584611419565b11156110895761108985610f528685611419565b6000600161109984610100611474565b6110a3919061157a565b90508551838682010185831982511617815250805184870111156110c75783860181525b509495945050505050565b6000818311156110e35750816109b3565b50919050565b81516110f58383610d28565b50610d9b8382610e53565b6040805160a081018252600080825260208201819052918101829052606081019190915260808101611130611135565b905290565b604051806040016040528060608152602001600081525090565b60006020828403121561116157600080fd5b81356001600160a01b0381168114610e6d57600080fd5b60006020828403121561118a57600080fd5b81518015158114610e6d57600080fd5b600080604083850312156111ad57600080fd5b50508035926020909101359150565b6000602082840312156111ce57600080fd5b81356001600160401b03808211156111e557600080fd5b818401915084601f8301126111f957600080fd5b81358181111561120b5761120b61162a565b604051601f8201601f19908116603f011681019083821181831017156112335761123361162a565b8160405282815287602084870101111561124c57600080fd5b826020860160208301376000928101602001929092525095945050505050565b60006020828403121561127e57600080fd5b5051919050565b6000815180845261129d816020860160208601611591565b601f01601f19169290920160200192915050565b600083516112c3818460208801611591565b8351908301906112d7818360208801611591565b01949350505050565b6001600160a01b0391909116815260200190565b6001600160a01b03929092168252602082015260400190565b6001600160a01b0389811682526020820189905260408201889052861660608201526001600160e01b03198516608082015260a0810184905260c0810183905261010060e0820181905260009061136683820185611285565b9b9a5050505050505050505050565b60018060a01b03841681528260208201526060604082015260006109836060830184611285565b6020808252818101527f4f776e61626c653a2063616c6c6572206973206e6f7420746865206f776e6572604082015260600190565b60208082526028908201527f536f75726365206d75737420626520746865206f7261636c65206f6620746865604082015267081c995c5d595cdd60c21b606082015260800190565b6000821982111561142c5761142c611614565b500190565b600181815b8085111561146c57816000190482111561145257611452611614565b8085161561145f57918102915b93841c9390800290611436565b509250929050565b6000610e6d838360008261148a575060016109b3565b81611497575060006109b3565b81600181146114ad57600281146114b7576114d3565b60019150506109b3565b60ff8411156114c8576114c8611614565b50506001821b6109b3565b5060208310610133831016604e8410600b84101617156114f6575081810a6109b3565b6115008383611431565b806000190482111561151457611514611614565b029392505050565b600081600019048311821515161561153657611536611614565b500290565b60008083128015600160ff1b85018412161561155957611559611614565b6001600160ff1b038401831381161561157457611574611614565b50500390565b60008282101561158c5761158c611614565b500390565b60005b838110156115ac578181015183820152602001611594565b83811115610d9b5750506000910152565b600181811c908216806115d157607f821691505b602082108114156110e357634e487b7160e01b600052602260045260246000fd5b60008261160f57634e487b7160e01b600052601260045260246000fd5b500690565b634e487b7160e01b600052601160045260246000fd5b634e487b7160e01b600052604160045260246000fdfe6930ee93026433301a14b1baa0b52ca0d4640cb1edaa703beeb9056e235269847cc135e0cebb02c3480ae5d74d377283180a2601f8f644edf7987b009316c63aa26469706673582212204b002fe450b5587c7ede9ea4db36011adaaeebc784910e3a3c34bca86df84c7164736f6c634300080700336001600455600f80546001600160a01b03199081167356dd6586db0d08c6ce7b2f2805af28616e0824551782556010805490911673a36085f69e2889c224210f603d836748e7dc008817905567016345785d8a00006011557f3236343966633463613833633430313662666432643135373635353932626565601255606460135560c060405260808190526e3230ba30b9b2ba173230ba3097181760891b60a0908152620000b19160149190620002dc565b50348015620000bf57600080fd5b506013546040518060800160405280604f815260200162001fff604f9139604080516020810190915260008152601254600f546010546011548692869286926001926001600160a01b03908116928892911690878787876200012133620001d3565b6001600160a01b03861662000140576200013a62000225565b6200014b565b6200014b86620002ba565b600980546001600160a01b0319166001600160a01b038a16179055600a879055600e859055600d84905582516200018a90600c906020860190620002dc565b508151620001a090600b906020850190620002dc565b5060068054911515600160a01b0260ff60a01b1990921691909117905550620003f19d5050505050505050505050505050565b600680546001600160a01b038381166001600160a01b0319831681179093556040519116919082907f8be0079c531659141344cd1fd0a4f28419497f9722a3daafe3b4186f6b6457e090600090a35050565b620002b873c89bd4e1632d3a43cb03aaad5262cbe4038bc5716001600160a01b03166338cc48316040518163ffffffff1660e01b815260040160206040518083038186803b1580156200027757600080fd5b505afa1580156200028c573d6000803e3d6000fd5b505050506040513d601f19601f82011682018060405250810190620002b2919062000382565b620002ba565b565b600280546001600160a01b0319166001600160a01b0392909216919091179055565b828054620002ea90620003b4565b90600052602060002090601f0160209004810192826200030e576000855562000359565b82601f106200032957805160ff191683800117855562000359565b8280016001018555821562000359579182015b82811115620003595782518255916020019190600101906200033c565b50620003679291506200036b565b5090565b5b808211156200036757600081556001016200036c565b6000602082840312156200039557600080fd5b81516001600160a01b0381168114620003ad57600080fd5b9392505050565b600181811c90821680620003c957607f821691505b60208210811415620003eb57634e487b7160e01b600052602260045260246000fd5b50919050565b611bfe80620004016000396000f3fe6080604052600436106101065760003560e01c8063185defc6146101485780631d5cd0091461017e578063313ce567146101a05780634665e65a146101c457806351744bca146101da57806369723be7146101fa5780636fb7cb571461021a578063715018a61461023a5780637e0b66d01461024f5780638da5cb5b1461026f5780638dc654a214610284578063918c00b9146102995780639df49c23146102ca578063a89ae4ba146102df578063afb0a7d7146102ff578063bd2563fb1461031f578063c068e8b114610334578063c2939d9714610349578063c5b37c221461035f578063d233da0814610375578063ddca3f431461038b578063f2fde38b146103a157005b36610146577f88a5966d370b9919b20f3e2c13ff65706f196a4e32cc2c12bf57088f88525874333460405161013c929190611768565b60405180910390a1005b005b34801561015457600080fd5b50601054610168906001600160a01b031681565b6040516101759190611754565b60405180910390f35b34801561018a57600080fd5b506101936103c1565b6040516101759190611810565b3480156101ac57600080fd5b506101b6600d5481565b604051908152602001610175565b3480156101d057600080fd5b506101b660125481565b3480156101e657600080fd5b506101466101f53660046115f5565b6103dd565b34801561020657600080fd5b506101b6610215366004611630565b61047b565b34801561022657600080fd5b50600f54610168906001600160a01b031681565b34801561024657600080fd5b506101466106e2565b34801561025b57600080fd5b5061014661026a3660046115f5565b61071d565b34801561027b57600080fd5b506101686107a9565b34801561029057600080fd5b506101466107b8565b3480156102a557600080fd5b506006546102ba90600160a01b900460ff1681565b6040519015158152602001610175565b3480156102d657600080fd5b506007546101b6565b3480156102eb57600080fd5b50600954610168906001600160a01b031681565b34801561030b57600080fd5b5061014661031a366004611617565b61097c565b34801561032b57600080fd5b506008546101b6565b34801561034057600080fd5b50610193610a23565b34801561035557600080fd5b506101b6600a5481565b34801561036b57600080fd5b506101b660115481565b34801561038157600080fd5b506101b660135481565b34801561039757600080fd5b506101b6600e5481565b3480156103ad57600080fd5b506101466103bc3660046115aa565b610ab1565b6040518060800160405280604f8152602001611b3a604f913981565b60008281526005602052604090205482906001600160a01b0316331461041e5760405162461bcd60e51b815260040161041590611858565b60405180910390fd5b60008181526005602052604080822080546001600160a01b0319169055518291600080516020611ba983398151915291a26008829055604051838152600080516020611b89833981519152906020015b60405180910390a1505050565b60006104856114c2565b600654600160a01b900460ff16156104b357600a546104ac90306328ba25e560e11b610b4e565b90506104cb565b600a546104c890306307e0b66d60e41b610b4e565b90505b6105866040518060400160405280600381526020016219d95d60ea1b81525061057e600c80546104fa90611a7d565b80601f016020809104026020016040519081016040528092919081815260200182805461052690611a7d565b80156105735780601f1061054857610100808354040283529160200191610573565b820191906000526020600020905b81548152906001019060200180831161055657829003601f168201915b505050505086610b73565b839190610ba0565b610641604051806040016040528060048152602001630e0c2e8d60e31b815250600b80546105b390611a7d565b80601f01602080910402602001604051908101604052809291908181526020018280546105df90611a7d565b801561062c5780601f106106015761010080835404028352916020019161062c565b820191906000526020600020905b81548152906001019060200180831161060f57829003601f168201915b505050505083610ba09092919063ffffffff16565b60408051808201909152600581526474696d657360d81b6020820152600d5461066b918391610bc3565b600954600e54610686916001600160a01b0316908390610be1565b600954600a54600e54604080516001600160a01b0390941684526020840192909252908201529092507f5de0ca4d601c6369aafe37da9bab92be9804895234cdb72d8181492e84e6bcb29060600160405180910390a150919050565b336106eb6107a9565b6001600160a01b0316146107115760405162461bcd60e51b815260040161041590611823565b61071b6000610c00565b565b60008281526005602052604090205482906001600160a01b031633146107555760405162461bcd60e51b815260040161041590611858565b60008181526005602052604080822080546001600160a01b0319169055518291600080516020611ba983398151915291a26007829055604051838152600080516020611b898339815191529060200161046e565b6006546001600160a01b031690565b336107c16107a9565b6001600160a01b0316146107e75760405162461bcd60e51b815260040161041590611823565b60006107fb6002546001600160a01b031690565b90506000816001600160a01b03166370a08231306040518263ffffffff1660e01b815260040161082b9190611754565b60206040518083038186803b15801561084357600080fd5b505afa158015610857573d6000803e3d6000fd5b505050506040513d601f19601f8201168201806040525081019061087b91906116e0565b60405163a9059cbb60e01b81529091506001600160a01b0383169063a9059cbb906108ac9033908590600401611768565b602060405180830381600087803b1580156108c657600080fd5b505af11580156108da573d6000803e3d6000fd5b505050506040513d601f19601f820116820180604052508101906108fe91906115d3565b61093f5760405162461bcd60e51b8152602060048201526012602482015271556e61626c6520746f20776974686472617760701b6044820152606401610415565b7fcb1436249a1dd8cf93362c28d79a4e20dc54398b6c49e30316e8396e72a584b03382604051610970929190611768565b60405180910390a15050565b610a20610a1b6014805461098f90611a7d565b80601f01602080910402602001604051908101604052809291908181526020018280546109bb90611a7d565b8015610a085780601f106109dd57610100808354040283529160200191610a08565b820191906000526020600020905b8154815290600101906020018083116109eb57829003601f168201915b5050505050610a1684610c52565b610cd5565b610cf2565b50565b60148054610a3090611a7d565b80601f0160208091040260200160405190810160405280929190818152602001828054610a5c90611a7d565b8015610aa95780601f10610a7e57610100808354040283529160200191610aa9565b820191906000526020600020905b815481529060010190602001808311610a8c57829003601f168201915b505050505081565b33610aba6107a9565b6001600160a01b031614610ae05760405162461bcd60e51b815260040161041590611823565b6001600160a01b038116610b455760405162461bcd60e51b815260206004820152602660248201527f4f776e61626c653a206e6577206f776e657220697320746865207a65726f206160448201526564647265737360d01b6064820152608401610415565b610a2081610c00565b610b566114c2565b610b5e6114c2565b610b6a81868686610d09565b95945050505050565b60608282604051602001610b88929190611725565b60405160208183030381529060405290505b92915050565b6080830151610baf9083610d46565b6080830151610bbe9082610d46565b505050565b6080830151610bd29083610d46565b6080830151610bbe9082610d5d565b6000610bf884848460016320214ca360e11b610dbb565b949350505050565b600680546001600160a01b038381166001600160a01b0319831681179093556040519116919082907f8be0079c531659141344cd1fd0a4f28419497f9722a3daafe3b4186f6b6457e090600090a35050565b600062375f008213610c6657506001919050565b8162375f00128015610c7b5750625c49008213155b15610c8857506002919050565b81625c4900128015610c9d575062af57808213155b15610caa57506003919050565b8162af5780128015610cc05750630167e9808213155b15610ccd57506004919050565b506005919050565b606082610ce183610fc2565b604051602001610b88929190611725565b8051610d0590600b9060208401906114f7565b5050565b610d116114c2565b610d2185608001516101006110ea565b50509183526001600160a01b031660208301526001600160e01b031916604082015290565b610d538260038351611142565b610bbe8282611215565b6001600160401b0319811215610d7757610d058282611236565b6001600160401b03811315610d9057610d058282611278565b60008112610da457610d0582600083611142565b610d05826001610db6846000196119fb565b611142565b6004546040516001600160601b03193060601b166020820152603481019190915260009060540160408051808303601f19018152918152815160209283012060045460608901526000818152600590935281832080546001600160a01b0319166001600160a01b038b16179055905190925082917fb5e6e01e79f91267dc17b4e6314d5d4d03593d2ceee0fbb452b750bd70ea5af991a2600082600080886000015189602001518a604001518b606001518a8d6080015160000151604051602401610e8d989796959493929190611781565b60408051601f198184030181529181526020820180516001600160e01b03166001600160e01b0319909416939093179092526002549151630200057560e51b81529092506001600160a01b0390911690634000aea090610ef5908a90899086906004016117e9565b602060405180830381600087803b158015610f0f57600080fd5b505af1158015610f23573d6000803e3d6000fd5b505050506040513d601f19601f82011682018060405250810190610f4791906115d3565b610f9f5760405162461bcd60e51b815260206004820152602360248201527f756e61626c6520746f207472616e73666572416e6443616c6c20746f206f7261604482015262636c6560e81b6064820152608401610415565b600160046000828254610fb291906118a0565b9091555091979650505050505050565b606081610fe65750506040805180820190915260018152600360fc1b602082015290565b8160005b81156110105780610ffa81611ab2565b91506110099050600a836118dd565b9150610fea565b6000816001600160401b0381111561102a5761102a611b23565b6040519080825280601f01601f191660200182016040528015611054576020820181803683370190505b509050815b85156110e15761106a600182611a3a565b90506000611079600a886118dd565b61108490600a6119dc565b61108e9088611a3a565b6110999060306118b8565b905060008160f81b9050808484815181106110b6576110b6611b0d565b60200101906001600160f81b031916908160001a9053506110d8600a896118dd565b97505050611059565b50949350505050565b6110f261157b565b6110fd602083611acd565b156111255761110d602083611acd565b611118906020611a3a565b61112290836118a0565b91505b506020828101829052604080518085526000815290920101905290565b601781116111635761115d8360e0600585901b16831761129b565b50505050565b60ff811161118d57611180836018611fe0600586901b161761129b565b5061115d838260016112b3565b61ffff81116111b8576111ab836019611fe0600586901b161761129b565b5061115d838260026112b3565b63ffffffff81116111e5576111d883601a611fe0600586901b161761129b565b5061115d838260046112b3565b6001600160401b038111610bbe5761120883601b611fe0600586901b161761129b565b5061115d838260086112b3565b61121d61157b565b61122f838460000151518485516112cc565b9392505050565b6112418260c361129b565b50610d0582611252836000196119fb565b60405160200161126491815260200190565b6040516020818303038152906040526113c4565b6112838260c261129b565b50610d05828260405160200161126491815260200190565b6112a361157b565b61122f83846000015151846113d1565b6112bb61157b565b610bf8848560000151518585611420565b6112d461157b565b82518211156112e257600080fd5b60208501516112f183866118a0565b111561132457611324856113148760200151878661130f91906118a0565b611494565b61131f9060026119dc565b6114ab565b6000808651805187602083010193508088870111156113435787860182525b505050602084015b6020841061138357805182526113626020836118a0565b915061136f6020826118a0565b905061137c602085611a3a565b935061134b565b60006001611392866020611a3a565b61139e90610100611934565b6113a89190611a3a565b9151835183169219169190911790915250849050949350505050565b610d538260028351611142565b6113d961157b565b836020015183106113f9576113f9848560200151600261131f91906119dc565b835180516020858301018481535080851415611416576001810182525b5093949350505050565b61142861157b565b602085015161143785846118a0565b111561144b5761144b8561131486856118a0565b6000600161145b84610100611934565b6114659190611a3a565b90508551838682010185831982511617815250805184870111156114895783860181525b509495945050505050565b6000818311156114a5575081610b9a565b50919050565b81516114b783836110ea565b5061115d8382611215565b6040805160a0810182526000808252602082018190529181018290526060810191909152608081016114f261157b565b905290565b82805461150390611a7d565b90600052602060002090601f016020900481019282611525576000855561156b565b82601f1061153e57805160ff191683800117855561156b565b8280016001018555821561156b579182015b8281111561156b578251825591602001919060010190611550565b50611577929150611595565b5090565b604051806040016040528060608152602001600081525090565b5b808211156115775760008155600101611596565b6000602082840312156115bc57600080fd5b81356001600160a01b038116811461122f57600080fd5b6000602082840312156115e557600080fd5b8151801515811461122f57600080fd5b6000806040838503121561160857600080fd5b50508035926020909101359150565b60006020828403121561162957600080fd5b5035919050565b60006020828403121561164257600080fd5b81356001600160401b038082111561165957600080fd5b818401915084601f83011261166d57600080fd5b81358181111561167f5761167f611b23565b604051601f8201601f19908116603f011681019083821181831017156116a7576116a7611b23565b816040528281528760208487010111156116c057600080fd5b826020860160208301376000928101602001929092525095945050505050565b6000602082840312156116f257600080fd5b5051919050565b60008151808452611711816020860160208601611a51565b601f01601f19169290920160200192915050565b60008351611737818460208801611a51565b83519083019061174b818360208801611a51565b01949350505050565b6001600160a01b0391909116815260200190565b6001600160a01b03929092168252602082015260400190565b6001600160a01b0389811682526020820189905260408201889052861660608201526001600160e01b03198516608082015260a0810184905260c0810183905261010060e082018190526000906117da838201856116f9565b9b9a5050505050505050505050565b60018060a01b0384168152826020820152606060408201526000610b6a60608301846116f9565b60208152600061122f60208301846116f9565b6020808252818101527f4f776e61626c653a2063616c6c6572206973206e6f7420746865206f776e6572604082015260600190565b60208082526028908201527f536f75726365206d75737420626520746865206f7261636c65206f6620746865604082015267081c995c5d595cdd60c21b606082015260800190565b600082198211156118b3576118b3611ae1565b500190565b600060ff821660ff84168060ff038211156118d5576118d5611ae1565b019392505050565b6000826118ec576118ec611af7565b500490565b600181815b8085111561192c57816000190482111561191257611912611ae1565b8085161561191f57918102915b93841c93908002906118f6565b509250929050565b600061122f838360008261194a57506001610b9a565b8161195757506000610b9a565b816001811461196d576002811461197757611993565b6001915050610b9a565b60ff84111561198857611988611ae1565b50506001821b610b9a565b5060208310610133831016604e8410600b84101617156119b6575081810a610b9a565b6119c083836118f1565b80600019048211156119d4576119d4611ae1565b029392505050565b60008160001904831182151516156119f6576119f6611ae1565b500290565b60008083128015600160ff1b850184121615611a1957611a19611ae1565b6001600160ff1b0384018313811615611a3457611a34611ae1565b50500390565b600082821015611a4c57611a4c611ae1565b500390565b60005b83811015611a6c578181015183820152602001611a54565b8381111561115d5750506000910152565b600181811c90821680611a9157607f821691505b602082108114156114a557634e487b7160e01b600052602260045260246000fd5b6000600019821415611ac657611ac6611ae1565b5060010190565b600082611adc57611adc611af7565b500690565b634e487b7160e01b600052601160045260246000fd5b634e487b7160e01b600052601260045260246000fd5b634e487b7160e01b600052603260045260246000fd5b634e487b7160e01b600052604160045260246000fdfe68747470733a2f2f7777772e7175616e646c2e636f6d2f6170692f76332f64617461736574732f555354524541535552592f42494c4c52415445532e6a736f6e3f6170695f6b65793d4d595f4b45596930ee93026433301a14b1baa0b52ca0d4640cb1edaa703beeb9056e235269847cc135e0cebb02c3480ae5d74d377283180a2601f8f644edf7987b009316c63aa264697066735822122002e2534b21eccee032892d16e8f397088777448ca8b3b690d69336cae6899c0864736f6c6343000807003368747470733a2f2f7777772e7175616e646c2e636f6d2f6170692f76332f64617461736574732f555354524541535552592f42494c4c52415445532e6a736f6e3f6170695f6b65793d4d595f4b4559",
  "immutableReferences": {},
  "source": "// SPDX-License-Identifier: UNLICENSED\r\n\r\npragma solidity ^0.8.6;\r\n\r\nimport \"../utils/BokkyPooBahsDateTimeLibrary.sol\";\r\nimport \"@openzeppelin/contracts/access/Ownable.sol\";\r\nimport \"@openzeppelin/contracts/token/ERC20/IERC20.sol\";\r\nimport \"@openzeppelin/contracts/token/ERC20/utils/SafeERC20.sol\";\r\nimport \"@openzeppelin/contracts/utils/math/SafeMath.sol\";\r\n\r\nimport \"../interfaces/IFFAContract.sol\";\r\n//import \"./ChainlinkOracle.sol\";\r\nimport \"./CollateralWallet.sol\";\r\nimport \"./Oracles/LinkPoolOracles/LinkPoolValuationOracle.sol\";\r\nimport \"./Oracles/LinkPoolOracles/LinkPoolUintOracle.sol\";\r\nimport \"./Oracles/LinkPoolOracles/USDRFROracle.sol\";\r\n\r\nimport \"./Oracles/LinkPoolOracles/LinkPoolIntOracle.sol\";\r\n\r\ncontract FFAContract is IFFAContract{\r\n    using SafeERC20 for IERC20;\r\n    //state of contract\r\n    enum ContractState {Created, Initiated, Settled, Defaulted}\r\n    //contract detail\r\n    string public name;\r\n    string public symbol;\r\n    ContractState internal contractState;\r\n    uint256 private sizeOfContract; //I should move this to initiation!!\r\n    address internal long;\r\n    address internal short;\r\n    uint256 public initialForwardPrice;\r\n    int public annualRiskFreeRate;\r\n    uint256 internal expirationDate;\r\n    uint256 private underlyingPrice;//scaled 1/100 ie. 45.07 -> 4507\r\n    //collateral wallets\r\n    address private longWallet;\r\n    address private shortWallet;\r\n    address private collateralTokenAddress;\r\n    //margin requirements\r\n    //MM(8%) + EM (2%) = IM (10%)\r\n    uint public exposureMarginRate;\r\n    uint public maintenanceMarginRate;\r\n    //M2M\r\n    uint256 public prevDayClosingPrice;\r\n    //underlying index price oracle\r\n    string private underlyingApiURL;\r\n    string private underlyingApiPath;\r\n    int public underlyingDecimals;\r\n    /*\r\n    LinkPoolValuationOracle valuationOracle;\r\n    LinkPoolUintOracle underlyingOracle;\r\n    USDRFROracle usdRiskFreeRateOracle;\r\n    */\r\n    address payable valuationOracleAddress;\r\n    address payable underlyingOracleAddress;\r\n    address payable usdRiskFreeRateOracleAddress;\r\n    uint8 private rfrMaturityTranchIndex;\r\n\r\n    constructor(\r\n            string memory _name, \r\n            string memory _symbol, \r\n            uint256 _sizeOfContract,\r\n            string memory _underlyingApiURL,\r\n            string memory _underlyingApiPath,\r\n            int256 _underlyingDecimals\r\n    ) {\r\n        name = _name;\r\n        symbol = _symbol;\r\n        sizeOfContract = _sizeOfContract;\r\n        underlyingApiPath = _underlyingApiPath;\r\n        underlyingApiURL = _underlyingApiURL;\r\n        underlyingDecimals = _underlyingDecimals;\r\n        /*\r\n        valuationOracle = new LinkPoolValuationOracle();\r\n        underlyingOracle = new LinkPoolUintOracle(underlyingDecimals, underlyingApiURL, underlyingApiPath);\r\n        usdRiskFreeRateOracle = new USDRFROracle();*/\r\n        \r\n        valuationOracleAddress = payable(address(new LinkPoolValuationOracle()));\r\n        underlyingOracleAddress = payable(address(new LinkPoolUintOracle(underlyingDecimals, underlyingApiURL, underlyingApiPath)));\r\n        usdRiskFreeRateOracleAddress = payable(address(new USDRFROracle()));\r\n        contractState = ContractState.Created;\r\n        //emit CreatedContract(decimals, sizeOfContract);\r\n    }\r\n\r\n    //initiateFFA: initiates futures contract with given parameters\r\n    function initiateFFA(address _long, address _short, /*uint256 _initialForwardPrice, */\r\n                         uint256 _expirationDate,\r\n                         address _longWallet, address _shortWallet, uint _exposureMarginRate,\r\n                         uint _maintenanceMarginRate, address _collateralTokenAddress) \r\n                         external override returns (bool initiated_) {\r\n        require(_long != address(0), \"Long can't be zero address\");\r\n        require(_short != address(0), \"Short can't be zero address\");\r\n        require(_long != _short, \"Long and short can't be same party\");\r\n        require(_longWallet != address(0), \"Long wallet cannot have zero address\");\r\n        require(_shortWallet != address(0), \"Short wallet cannot have zero address\");\r\n        require(_longWallet != _shortWallet, \"long and short wallets cannot be the same\");\r\n        require(_maintenanceMarginRate != 0, \"maintenance margin rate cannot be zero\");\r\n        require(BokkyPooBahsDateTimeLibrary.diffSeconds(block.timestamp, _expirationDate) > 0, \"FFA contract has to expire in the future\");\r\n        long = _long;\r\n        short = _short;\r\n        //update API path in accordance with the maturity of the contract\r\n        USDRFROracle(usdRiskFreeRateOracleAddress).updateAPIPath(int(BokkyPooBahsDateTimeLibrary.diffSeconds(block.timestamp, _expirationDate)));\r\n        //usdRiskFreeRateOracle.updateAPIPath(int(BokkyPooBahsDateTimeLibrary.diffSeconds(block.timestamp, _expirationDate)));\r\n\r\n        //call valuation API to get initialForwardPrice!!!!!!!!!!!!!11\r\n        initialForwardPrice = 0;//this doesn't need to be a parameter, just set it here directly\r\n        prevDayClosingPrice = initialForwardPrice;\r\n        //annualRiskFreeRate = _annualRiskFreeRate;\r\n        expirationDate = _expirationDate;\r\n        longWallet = _longWallet;\r\n        shortWallet = _shortWallet;\r\n        exposureMarginRate = _exposureMarginRate;\r\n        maintenanceMarginRate = _maintenanceMarginRate;\r\n        collateralTokenAddress = _collateralTokenAddress;\r\n        contractState = ContractState.Initiated;\r\n        //Do i need to deal with allowance?\r\n        uint initialMarginRate = exposureMarginRate + maintenanceMarginRate;\r\n        emit Initiated(long, short, initialForwardPrice, annualRiskFreeRate, expirationDate, sizeOfContract, initialMarginRate);\r\n        initiated_ = true;\r\n    }\r\n\r\n    //request annual risk free rate\r\n    function requestRiskFreeRate() public {\r\n        /*\r\n        usdRiskFreeRateOracle.updateAPIPath(int(BokkyPooBahsDateTimeLibrary.diffSeconds(block.timestamp, expirationDate)));\r\n        usdRiskFreeRateOracle.requestIndexPrice(\"\");//do I add my API key here??\r\n        */\r\n        USDRFROracle(usdRiskFreeRateOracleAddress).updateAPIPath(int(BokkyPooBahsDateTimeLibrary.diffSeconds(block.timestamp, expirationDate)));\r\n        USDRFROracle(usdRiskFreeRateOracleAddress).requestIndexPrice(\"\");//do I add my API key here??\r\n    }\r\n\r\n    //set annual risk free rate once job is fulfilled\r\n    function setRiskFreeRate() public {\r\n        //annualRiskFreeRate = usdRiskFreeRateOracle.getSignedResult();\r\n        annualRiskFreeRate = USDRFROracle(usdRiskFreeRateOracleAddress).getSignedResult();\r\n    }\r\n\r\n    //request underlying price\r\n    function requestUnderlyingPrice() public {\r\n        //underlyingOracle.requestIndexPrice(\"\");\r\n        LinkPoolUintOracle(underlyingOracleAddress).requestIndexPrice(\"\");\r\n    }\r\n\r\n    //set underlying price once job is fulfilled\r\n    function setUnderlyingPrice() public {\r\n        //underlyingPrice = underlyingOracle.getUnsignedResult();\r\n        LinkPoolUintOracle(underlyingOracleAddress).getUnsignedResult();\r\n    }\r\n\r\n    //request forward price\r\n    function requestForwardPrice() public  {\r\n        //valuationOracle.requestIndexPrice(concetenateStringsForURL(uint2str(underlyingPrice), int2str(annualRiskFreeRate), uint2str(block.timestamp), uint2str(expirationDate)));\r\n        LinkPoolValuationOracle(valuationOracleAddress).requestIndexPrice(concetenateStringsForURL(uint2str(underlyingPrice), int2str(annualRiskFreeRate), uint2str(block.timestamp), uint2str(expirationDate)));\r\n    }\r\n\r\n    //set forward price once job is fulfilled\r\n    function getForwardPrice() public view returns(uint256){\r\n        //return valuationOracle.getUnsignedResult();\r\n        return LinkPoolValuationOracle(valuationOracleAddress).getUnsignedResult();\r\n    }\r\n\r\n    //concatanate strings and add /  where needed for URL\r\n    function concetenateStringsForURL(string memory a, string memory b, string memory c, string memory d) internal pure returns (string memory) {\r\n\t    return string(abi.encodePacked(a,\"/\", b, \"/\", c, \"/\", d));\r\n    }\r\n\r\n    \r\n    //parse uint to string\r\n    function uint2str(uint _i) internal pure returns (string memory _uintAsString) {\r\n        if (_i == 0) {\r\n            return \"0\";\r\n        }\r\n        uint j = _i;\r\n        uint len;\r\n        while (j != 0) {\r\n            len++;\r\n            j /= 10;\r\n        }\r\n        bytes memory bstr = new bytes(len);\r\n        uint k = len;\r\n        while (_i != 0) {\r\n            k = k-1;\r\n            uint8 temp = (48 + uint8(_i - _i / 10 * 10));\r\n            bytes1 b1 = bytes1(temp);\r\n            bstr[k] = b1;\r\n            _i /= 10;\r\n        }\r\n        return string(bstr);\r\n    }\r\n\r\n    //parse int to string\r\n    function int2str(int _i) internal pure returns (string memory _intAsString) {\r\n        if (_i >= 0) {\r\n            return uint2str(uint(_i));\r\n        } else {\r\n            return string(abi.encodePacked(\"-\", uint2str(uint(-_i)))); \r\n            //The only reason I used this solution is because I know that RFR can't be too many digits\r\n        }\r\n    }\r\n\r\n    /*  Margin calculation\r\n        * Initial Margin = Maintenance Margin + Exposure Margin\r\n        * A margin call is issued when a party's cash balance drops below the maintenance margin.\r\n        * A party will be allowed to hold their position as long as the maintenance margin is satisfied.\r\n        * M2M is calculated based on the previous day's closing price. Based on the M2M each party's\r\n        * account is credited or debited daily. \r\n        * At settlement calculate the P&L = Final Contract Value - Initial Contract Value\r\n        * https://zerodha.com/varsity/chapter/margin-m2m/\r\n    */\r\n\r\n    /* markToMarket : does mark to market daily */\r\n    function markToMarket(uint256 currentForwardPrice) external override {\r\n        require(contractState == ContractState.Initiated, \r\n                \"Contract has to be in Initiated state\");\r\n        require(BokkyPooBahsDateTimeLibrary.diffSeconds(block.timestamp, expirationDate) > 0, \r\n                \"M to m can only happen before expiration\");\r\n        \r\n        //current forward price needs to be updated\r\n        uint256 newContractValue = currentForwardPrice * sizeOfContract;\r\n        uint256 oldContractValue = prevDayClosingPrice * sizeOfContract;\r\n        //contract value change\r\n        int contractValueChange = int256(newContractValue) - int256(oldContractValue);\r\n\r\n        //delivery within collateral wallets\r\n        //In this case the amount to be transfered is in cents, not dollars due to 1:100 scaling\r\n        if (contractValueChange > 0) {\r\n            transferCollateralFrom(shortWallet, longWallet, \r\n                                   uint256(contractValueChange), collateralTokenAddress);\r\n        }\r\n        if (contractValueChange < 0) {\r\n            transferCollateralFrom(longWallet, shortWallet, \r\n                                   uint256(-contractValueChange), \r\n                                   collateralTokenAddress);\r\n        }\r\n\r\n        //update prevDayClosingPrice to current price\r\n        prevDayClosingPrice = currentForwardPrice;\r\n        \r\n        emit MarkedToMarket(block.timestamp, contractValueChange, long, short);\r\n    }\r\n    //settle contract \r\n    function settleAtExpiration() external override {\r\n            require(BokkyPooBahsDateTimeLibrary.diffSeconds(expirationDate, block.timestamp) >= 0, \"Settlement cannot occure before expiration date\" );\r\n            require(contractState == ContractState.Initiated, \"Contract has to be in Initiated state\");\r\n\r\n            //calculate P&L\r\n            uint256 initialContractValue = initialForwardPrice * sizeOfContract;\r\n            uint256 finalContractValue = prevDayClosingPrice * sizeOfContract;\r\n            int profitAndLoss = int256(finalContractValue) - int256(initialContractValue);\r\n\r\n            //change contract state and emit event\r\n            contractState = ContractState.Settled;\r\n            emit Settled(long, short, expirationDate, profitAndLoss);\r\n            //settled_ = true;\r\n    }\r\n\r\n    /* What happens when futures/forward contract counterparty defaults?\r\n     * https://money.stackexchange.com/questions/46475/what-happens-if-futures-contract-seller-defaults\r\n     * In this case we assume that the losing party's collateral wallet will always have enough funds to\r\n     * cover losses.\r\n     * A party can \"terminate\" the forward contract by entering another same contract taking the opposite\r\n     * position. \r\n     * https://financetrain.com/forward-contract-termination-prior-to-expiry/\r\n     */\r\n    //default contract\r\n    function defaultContract(address _defaultingParty) public override returns (bool defaulted_) {\r\n            require(contractState == ContractState.Initiated, \"Contract has to be in Initiated state\");\r\n            require(BokkyPooBahsDateTimeLibrary.diffSeconds(block.timestamp, expirationDate) > 0, \"Defaulting can only happen before expiration\");\r\n\r\n            //change contract state and emit event\r\n            contractState = ContractState.Defaulted;\r\n            emit Defaulted(block.timestamp, _defaultingParty);\r\n            defaulted_ = true;\r\n    }\r\n    /* transferCollateralFrom: transfers given amount of given token from one \r\n     *collateral wallet to the other*/\r\n    function transferCollateralFrom(address senderWalletAddress, \r\n            address recipientWalletAddress, uint256 amount, \r\n            address _collateralTokenAddress) public returns (bool transfered_){\r\n\r\n            require(senderWalletAddress != address(0), \r\n                    \"Sender wallet address cannot be zero\");\r\n            require(recipientWalletAddress != address(0), \r\n                    \"Recipient wallet address cannot be zero\");\r\n            require(recipientWalletAddress != senderWalletAddress, \r\n                    \"Sender and recipient wallets cannot be the same\");\r\n            require(amount > 0, \r\n                    \"Amount transferred has to be greater than zero\");\r\n            CollateralWallet senderWallet = CollateralWallet(senderWalletAddress);\r\n            CollateralWallet recipientWallet = CollateralWallet(recipientWalletAddress);\r\n            uint256 originalSenderMappedBalance = senderWallet.getMappedBalance(\r\n                                                                address(this), \r\n                                                                _collateralTokenAddress);\r\n            require(originalSenderMappedBalance >= amount, \r\n                    \"collateral balance not sufficient\");\r\n\r\n            //approval might need fixing\r\n            senderWallet.approveSpender(_collateralTokenAddress, \r\n                                        address(this), amount);\r\n            IERC20(_collateralTokenAddress).transferFrom(senderWalletAddress, \r\n                                                         recipientWalletAddress, \r\n                                                         amount);\r\n\r\n            //deduct from sender balance mapping\r\n            unchecked {\r\n                uint256 newSenderMappedBalance = originalSenderMappedBalance - amount;\r\n                senderWallet.setNewBalance(address(this), _collateralTokenAddress, \r\n                                           newSenderMappedBalance);\r\n            }\r\n\r\n            //add to recipient balance mapping\r\n            uint256 newRecipientMappedBalance = recipientWallet.getMappedBalance(\r\n                                                                    address(this), \r\n                                                                    _collateralTokenAddress) \r\n                                                                    + amount;\r\n            recipientWallet.setNewBalance(address(this), _collateralTokenAddress, \r\n                                          newRecipientMappedBalance);\r\n \r\n            transfered_ = true;\r\n    }\r\n\r\n    //receive and fallback functions\r\n    /*\r\n        receive () external payable {\r\n        \r\n        }\r\n        fallback () external payable {\r\n    }*/\r\n    \r\n    //getter functions\r\n    function getContractState() external view returns(string memory) {\r\n            if (contractState == ContractState.Created) {\r\n                return \"Created\";\r\n            } else if (contractState == ContractState.Initiated) {\r\n                return \"Initiated\";\r\n            } else if (contractState == ContractState.Settled) {\r\n                return \"Settled\";\r\n            } else if (contractState == ContractState.Defaulted) {\r\n                return \"Defaulted\";\r\n            } else {\r\n                return \"state error\";\r\n            }\r\n    }\r\n    function getName() external view returns(string memory) {\r\n        return name;\r\n    }\r\n    function getSymbol() external view returns(string memory) {\r\n        return symbol;\r\n    }\r\n    \r\n    function getSizeOfContract() external view returns(uint256) {\r\n        return sizeOfContract;\r\n    }\r\n    function getUnderlyingDecimals() external view returns (int) {\r\n        return underlyingDecimals;\r\n    }\r\n    function getLong() external view returns (address) {\r\n            return long;\r\n    }\r\n    function getShort() external view returns (address) {\r\n            return short;\r\n    }\r\n    function getInitialForwardPrice() external view returns (uint256) {\r\n            return initialForwardPrice;\r\n    }\r\n    function getExpirationDate() external view returns (uint256) {\r\n            return expirationDate;\r\n    }\r\n    function getLongWalletAddress() external view returns (address) {\r\n            return longWallet;\r\n    }\r\n    function getShortWalletAddress() external view returns (address) {\r\n            return shortWallet;\r\n    }\r\n\r\n    function getUnderlyingApiURL() external view returns (string memory) {\r\n        return underlyingApiURL;\r\n    }\r\n\r\n    function getUnderlyingApiPath() external view returns (string memory) {\r\n        return underlyingApiPath;\r\n    }\r\n\r\n}",
  "sourcePath": "C:\\Users\\Tomi\\OneDrive - The University of Chicago\\Documents\\Securrency\\FuturesExchange\\contracts\\FFAContract.sol",
  "compiler": {
    "name": "solc",
    "version": "0.8.7+commit.e28d00a7.Emscripten.clang"
  },
  "schemaVersion": "3.4.2",
  "updatedAt": "2021-09-16T13:58:13.240Z",
  "devdoc": {
    "kind": "dev",
    "methods": {},
    "version": 1
  },
  "userdoc": {
    "kind": "user",
    "methods": {},
    "version": 1
  }
}