{
  "contractName": "FFAContractMock",
  "abi": [
    {
      "inputs": [],
      "stateMutability": "nonpayable",
      "type": "constructor"
    },
    {
      "anonymous": false,
      "inputs": [
        {
          "indexed": false,
          "internalType": "int256",
          "name": "decimals",
          "type": "int256"
        },
        {
          "indexed": false,
          "internalType": "uint256",
          "name": "sizeOfContract",
          "type": "uint256"
        }
      ],
      "name": "CreatedContract",
      "type": "event"
    },
    {
      "anonymous": false,
      "inputs": [
        {
          "indexed": false,
          "internalType": "uint256",
          "name": "defaultDate",
          "type": "uint256"
        },
        {
          "indexed": false,
          "internalType": "address",
          "name": "defaultingParty",
          "type": "address"
        }
      ],
      "name": "Defaulted",
      "type": "event"
    },
    {
      "anonymous": false,
      "inputs": [
        {
          "indexed": true,
          "internalType": "address",
          "name": "long",
          "type": "address"
        },
        {
          "indexed": true,
          "internalType": "address",
          "name": "short",
          "type": "address"
        },
        {
          "indexed": false,
          "internalType": "uint256",
          "name": "initialForwardPrice",
          "type": "uint256"
        },
        {
          "indexed": false,
          "internalType": "uint256",
          "name": "riskFreeRate",
          "type": "uint256"
        },
        {
          "indexed": false,
          "internalType": "uint256",
          "name": "expirationDate",
          "type": "uint256"
        },
        {
          "indexed": false,
          "internalType": "uint256",
          "name": "sizeOfContract",
          "type": "uint256"
        },
        {
          "indexed": false,
          "internalType": "uint256",
          "name": "initialMarginRate",
          "type": "uint256"
        }
      ],
      "name": "Initiated",
      "type": "event"
    },
    {
      "anonymous": false,
      "inputs": [
        {
          "indexed": false,
          "internalType": "uint256",
          "name": "mtmDate",
          "type": "uint256"
        },
        {
          "indexed": false,
          "internalType": "int256",
          "name": "contractValueChange",
          "type": "int256"
        },
        {
          "indexed": false,
          "internalType": "address",
          "name": "long",
          "type": "address"
        },
        {
          "indexed": false,
          "internalType": "address",
          "name": "short",
          "type": "address"
        }
      ],
      "name": "MarkedToMarket",
      "type": "event"
    },
    {
      "anonymous": false,
      "inputs": [
        {
          "indexed": false,
          "internalType": "address",
          "name": "long",
          "type": "address"
        },
        {
          "indexed": false,
          "internalType": "address",
          "name": "short",
          "type": "address"
        },
        {
          "indexed": false,
          "internalType": "uint256",
          "name": "expirationDate",
          "type": "uint256"
        },
        {
          "indexed": false,
          "internalType": "int256",
          "name": "profitAndLoss",
          "type": "int256"
        }
      ],
      "name": "Settled",
      "type": "event"
    },
    {
      "inputs": [],
      "name": "annualRiskFreeRate",
      "outputs": [
        {
          "internalType": "uint256",
          "name": "",
          "type": "uint256"
        }
      ],
      "stateMutability": "view",
      "type": "function",
      "constant": true
    },
    {
      "inputs": [
        {
          "internalType": "address",
          "name": "_defaultingParty",
          "type": "address"
        }
      ],
      "name": "defaultContract",
      "outputs": [
        {
          "internalType": "bool",
          "name": "defaulted_",
          "type": "bool"
        }
      ],
      "stateMutability": "nonpayable",
      "type": "function"
    },
    {
      "inputs": [],
      "name": "exposureMarginRate",
      "outputs": [
        {
          "internalType": "uint256",
          "name": "",
          "type": "uint256"
        }
      ],
      "stateMutability": "view",
      "type": "function",
      "constant": true
    },
    {
      "inputs": [],
      "name": "getContractState",
      "outputs": [
        {
          "internalType": "string",
          "name": "",
          "type": "string"
        }
      ],
      "stateMutability": "view",
      "type": "function",
      "constant": true
    },
    {
      "inputs": [],
      "name": "getExpirationDate",
      "outputs": [
        {
          "internalType": "uint256",
          "name": "",
          "type": "uint256"
        }
      ],
      "stateMutability": "view",
      "type": "function",
      "constant": true
    },
    {
      "inputs": [],
      "name": "getForwardPrice",
      "outputs": [
        {
          "internalType": "uint256",
          "name": "",
          "type": "uint256"
        }
      ],
      "stateMutability": "view",
      "type": "function",
      "constant": true
    },
    {
      "inputs": [],
      "name": "getInitialForwardPrice",
      "outputs": [
        {
          "internalType": "uint256",
          "name": "",
          "type": "uint256"
        }
      ],
      "stateMutability": "view",
      "type": "function",
      "constant": true
    },
    {
      "inputs": [],
      "name": "getLong",
      "outputs": [
        {
          "internalType": "address",
          "name": "",
          "type": "address"
        }
      ],
      "stateMutability": "view",
      "type": "function",
      "constant": true
    },
    {
      "inputs": [],
      "name": "getLongWalletAddress",
      "outputs": [
        {
          "internalType": "address",
          "name": "",
          "type": "address"
        }
      ],
      "stateMutability": "view",
      "type": "function",
      "constant": true
    },
    {
      "inputs": [],
      "name": "getName",
      "outputs": [
        {
          "internalType": "string",
          "name": "",
          "type": "string"
        }
      ],
      "stateMutability": "view",
      "type": "function",
      "constant": true
    },
    {
      "inputs": [],
      "name": "getShort",
      "outputs": [
        {
          "internalType": "address",
          "name": "",
          "type": "address"
        }
      ],
      "stateMutability": "view",
      "type": "function",
      "constant": true
    },
    {
      "inputs": [],
      "name": "getShortWalletAddress",
      "outputs": [
        {
          "internalType": "address",
          "name": "",
          "type": "address"
        }
      ],
      "stateMutability": "view",
      "type": "function",
      "constant": true
    },
    {
      "inputs": [],
      "name": "getSizeOfContract",
      "outputs": [
        {
          "internalType": "uint256",
          "name": "",
          "type": "uint256"
        }
      ],
      "stateMutability": "view",
      "type": "function",
      "constant": true
    },
    {
      "inputs": [],
      "name": "getSymbol",
      "outputs": [
        {
          "internalType": "string",
          "name": "",
          "type": "string"
        }
      ],
      "stateMutability": "view",
      "type": "function",
      "constant": true
    },
    {
      "inputs": [],
      "name": "getUnderlyingApiPath",
      "outputs": [
        {
          "internalType": "string",
          "name": "",
          "type": "string"
        }
      ],
      "stateMutability": "view",
      "type": "function",
      "constant": true
    },
    {
      "inputs": [],
      "name": "getUnderlyingApiURL",
      "outputs": [
        {
          "internalType": "string",
          "name": "",
          "type": "string"
        }
      ],
      "stateMutability": "view",
      "type": "function",
      "constant": true
    },
    {
      "inputs": [],
      "name": "getUnderlyingDecimals",
      "outputs": [
        {
          "internalType": "int256",
          "name": "",
          "type": "int256"
        }
      ],
      "stateMutability": "view",
      "type": "function",
      "constant": true
    },
    {
      "inputs": [
        {
          "internalType": "address",
          "name": "_long",
          "type": "address"
        },
        {
          "internalType": "address",
          "name": "_short",
          "type": "address"
        },
        {
          "internalType": "uint256",
          "name": "_initialForwardPrice",
          "type": "uint256"
        },
        {
          "internalType": "uint256",
          "name": "_expirationDate",
          "type": "uint256"
        },
        {
          "internalType": "address",
          "name": "_longWallet",
          "type": "address"
        },
        {
          "internalType": "address",
          "name": "_shortWallet",
          "type": "address"
        },
        {
          "internalType": "uint256",
          "name": "_exposureMarginRate",
          "type": "uint256"
        },
        {
          "internalType": "uint256",
          "name": "_maintenanceMarginRate",
          "type": "uint256"
        },
        {
          "internalType": "address",
          "name": "_collateralTokenAddress",
          "type": "address"
        }
      ],
      "name": "initiateFFA",
      "outputs": [
        {
          "internalType": "bool",
          "name": "initiated_",
          "type": "bool"
        }
      ],
      "stateMutability": "nonpayable",
      "type": "function"
    },
    {
      "inputs": [],
      "name": "longTestWallet",
      "outputs": [
        {
          "internalType": "contract CollateralWallet",
          "name": "",
          "type": "address"
        }
      ],
      "stateMutability": "view",
      "type": "function",
      "constant": true
    },
    {
      "inputs": [],
      "name": "maintenanceMarginRate",
      "outputs": [
        {
          "internalType": "uint256",
          "name": "",
          "type": "uint256"
        }
      ],
      "stateMutability": "view",
      "type": "function",
      "constant": true
    },
    {
      "inputs": [
        {
          "internalType": "uint256",
          "name": "currentForwardPrice",
          "type": "uint256"
        }
      ],
      "name": "markToMarket",
      "outputs": [],
      "stateMutability": "nonpayable",
      "type": "function"
    },
    {
      "inputs": [],
      "name": "prevDayClosingPrice",
      "outputs": [
        {
          "internalType": "uint256",
          "name": "",
          "type": "uint256"
        }
      ],
      "stateMutability": "view",
      "type": "function",
      "constant": true
    },
    {
      "inputs": [],
      "name": "requestForwardPrice",
      "outputs": [],
      "stateMutability": "nonpayable",
      "type": "function"
    },
    {
      "inputs": [],
      "name": "requestUnderlyingPrice",
      "outputs": [],
      "stateMutability": "nonpayable",
      "type": "function"
    },
    {
      "inputs": [],
      "name": "setUnderlyingPrice",
      "outputs": [],
      "stateMutability": "nonpayable",
      "type": "function"
    },
    {
      "inputs": [],
      "name": "settleAtExpiration",
      "outputs": [],
      "stateMutability": "nonpayable",
      "type": "function"
    },
    {
      "inputs": [],
      "name": "shortTestWallet",
      "outputs": [
        {
          "internalType": "contract CollateralWallet",
          "name": "",
          "type": "address"
        }
      ],
      "stateMutability": "view",
      "type": "function",
      "constant": true
    },
    {
      "inputs": [
        {
          "internalType": "address",
          "name": "senderWalletAddress",
          "type": "address"
        },
        {
          "internalType": "address",
          "name": "recipientWalletAddress",
          "type": "address"
        },
        {
          "internalType": "uint256",
          "name": "amount",
          "type": "uint256"
        },
        {
          "internalType": "address",
          "name": "_collateralTokenAddress",
          "type": "address"
        }
      ],
      "name": "transferCollateralFrom",
      "outputs": [
        {
          "internalType": "bool",
          "name": "transfered_",
          "type": "bool"
        }
      ],
      "stateMutability": "nonpayable",
      "type": "function"
    },
    {
      "inputs": [],
      "name": "underlyingDecimals",
      "outputs": [
        {
          "internalType": "int256",
          "name": "",
          "type": "int256"
        }
      ],
      "stateMutability": "view",
      "type": "function",
      "constant": true
    },
    {
      "inputs": [
        {
          "internalType": "string",
          "name": "_name",
          "type": "string"
        }
      ],
      "name": "createLongCollateralWallet",
      "outputs": [
        {
          "internalType": "address",
          "name": "walletAddress_",
          "type": "address"
        }
      ],
      "stateMutability": "nonpayable",
      "type": "function"
    },
    {
      "inputs": [
        {
          "internalType": "string",
          "name": "_name",
          "type": "string"
        }
      ],
      "name": "createShortCollateralWallet",
      "outputs": [
        {
          "internalType": "address",
          "name": "walletAddress_",
          "type": "address"
        }
      ],
      "stateMutability": "nonpayable",
      "type": "function"
    },
    {
      "inputs": [],
      "name": "setStateToCreated",
      "outputs": [],
      "stateMutability": "nonpayable",
      "type": "function"
    },
    {
      "inputs": [],
      "name": "setStateToInitiated",
      "outputs": [],
      "stateMutability": "nonpayable",
      "type": "function"
    },
    {
      "inputs": [
        {
          "internalType": "uint256",
          "name": "newDate",
          "type": "uint256"
        }
      ],
      "name": "setExpirationDate",
      "outputs": [],
      "stateMutability": "nonpayable",
      "type": "function"
    },
    {
      "inputs": [
        {
          "internalType": "address",
          "name": "newLong",
          "type": "address"
        }
      ],
      "name": "setLong",
      "outputs": [],
      "stateMutability": "nonpayable",
      "type": "function"
    },
    {
      "inputs": [
        {
          "internalType": "string",
          "name": "a",
          "type": "string"
        },
        {
          "internalType": "string",
          "name": "b",
          "type": "string"
        }
      ],
      "name": "compareStrings",
      "outputs": [
        {
          "internalType": "bool",
          "name": "",
          "type": "bool"
        }
      ],
      "stateMutability": "pure",
      "type": "function",
      "constant": true
    }
  ],
  "bytecode": "0x60806040523480156200001157600080fd5b5060405180604001604052806009815260200168135bd8dac815195cdd60ba1b81525060405180604001604052806004815260200163135514d560e21b81525060646040518060600160405280603d815260200162006391603d913960405180604001604052806005815260200164707269636560d81b81525060648560009080519060200190620000a5929190620001bc565b508451620000bb906001906020880190620001bc565b5060038490558151620000d6906011906020850190620001bc565b508251620000ec906010906020860190620001bc565b50601281905560405162000100906200024b565b604051809103906000f0801580156200011d573d6000803e3d6000fd5b50601360006101000a8154816001600160a01b0302191690836001600160a01b0316021790555060125460106011604051620001599062000259565b620001679392919062000326565b604051809103906000f08015801562000184573d6000803e3d6000fd5b50601480546001600160a01b0319166001600160a01b039290921691909117905550506002805460ff19169055506200039c92505050565b828054620001ca906200035f565b90600052602060002090601f016020900481019282620001ee576000855562000239565b82601f106200020957805160ff191683800117855562000239565b8280016001018555821562000239579182015b82811115620002395782518255916020019190600101906200021c565b506200024792915062000267565b5090565b611b3e8062002c9683390190565b611bbd80620047d483390190565b5b8082111562000247576000815560010162000268565b8054600090600181811c90808316806200029957607f831692505b6020808410821415620002bc57634e487b7160e01b600052602260045260246000fd5b83885260208801828015620002da5760018114620002ec5762000319565b60ff1987168252828201975062000319565b60008981526020902060005b878110156200031357815484820152908601908401620002f8565b83019850505b5050505050505092915050565b8381526060602082015260006200034160608301856200027e565b82810360408401526200035581856200027e565b9695505050505050565b600181811c908216806200037457607f821691505b602082108114156200039657634e487b7160e01b600052602260045260246000fd5b50919050565b6128ea80620003ac6000396000f3fe60806040523480156200001157600080fd5b5060043610620001d25760003560e01c80630a25062314620001d757806315070401146200020857806317d7de7c14620002215780631bc7d9ab146200022b57806325a760c214620002375780632edef21614620002505780633448f659146200025a578063381cf2e8146200028257806347d3fa6d146200028c578063545bfeb8146200029e5780635ccee5fa14620002b45780635edf7d8b14620002be578063608bd7f414620002c7578063616ab42c14620002fa5780636621f80d1462000304578063708febc8146200030e57806370a4cd34146200032057806373f9e52e146200032a578063780279f114620003415780637f4e4849146200034b57806380af00ca146200035557806385cbefa9146200036c57806389f00b6d14620003765780638c349eca14620003805780638d2d8c5e14620003945780638f896f50146200039d57806392081a4714620003b4578063923123b314620003bd578063addcb0e614620003c6578063b07976de14620003d0578063b317f5ec14620003e7578063bed34bba14620003f9578063c82ee7ab1462000410578063d13c1b961462000422578063e279cbe1146200042c578063e5bee6de1462000436575b600080fd5b601654620001eb906001600160a01b031681565b6040516001600160a01b0390911681526020015b60405180910390f35b620002126200044d565b604051620001ff919062001c57565b62000212620004e7565b62000235620004f8565b005b6200024160125481565b604051908152602001620001ff565b62000241600f5481565b620002716200026b36600462001970565b620005c2565b6040519015158152602001620001ff565b6200024160075481565b6004546001600160a01b0316620001eb565b62000235620002af36600462001b61565b600855565b62000235620006d3565b60085462000241565b62000235620002d836600462001970565b600480546001600160a01b0319166001600160a01b0392909216919091179055565b620002126200070c565b620002416200071d565b600b546001600160a01b0316620001eb565b62000235620007a3565b620002716200033b366004620019e2565b62000900565b6200023562000d33565b6200021262000d49565b620002356200036636600462001b61565b62000e88565b6200021262001043565b62000241600e5481565b601754620001eb906001600160a01b031681565b60065462000241565b62000271620003ae3660046200198e565b62001054565b60125462000241565b60035462000241565b62000241600d5481565b620001eb620003e136600462001ab7565b62001555565b6005546001600160a01b0316620001eb565b620002716200040a36600462001af7565b620015b5565b600a546001600160a01b0316620001eb565b6200023562001612565b6200023562001627565b620001eb6200044736600462001ab7565b620016b6565b6060600180546200045e9062001deb565b80601f01602080910402602001604051908101604052809291908181526020018280546200048c9062001deb565b8015620004dd5780601f10620004b157610100808354040283529160200191620004dd565b820191906000526020600020905b815481529060010190602001808311620004bf57829003601f168201915b5050505050905090565b6060600080546200045e9062001deb565b6013546009546001600160a01b03909116906369723be7906200054b90620005209062001716565b6200052d60075462001716565b620005384262001716565b6200054560085462001716565b6200185a565b6040518263ffffffff1660e01b815260040162000569919062001c57565b602060405180830381600087803b1580156200058457600080fd5b505af115801562000599573d6000803e3d6000fd5b505050506040513d601f19601f82011682018060405250810190620005bf919062001a9d565b50565b6000600160025460ff166003811115620005e057620005e062001e7c565b14620006095760405162461bcd60e51b8152600401620006009062001c8c565b60405180910390fd5b600062000619426008546200188e565b116200067d5760405162461bcd60e51b815260206004820152602c60248201527f44656661756c74696e672063616e206f6e6c792068617070656e206265666f7260448201526b329032bc3834b930ba34b7b760a11b606482015260840162000600565b6002805460ff19166003179055604080514281526001600160a01b03841660208201527f724b99e866949401e1553ae6e0da07c7e24b0308581155730cbe34363752bd3f910160405180910390a1506001919050565b6014546040516369723be760e01b815260206004820152600060248201526001600160a01b03909116906369723be79060440162000569565b6060601080546200045e9062001deb565b60135460408051639df49c2360e01b815290516000926001600160a01b031691639df49c23916004808301926020929190829003018186803b1580156200076357600080fd5b505afa15801562000778573d6000803e3d6000fd5b505050506040513d601f19601f820116820180604052508101906200079e919062001a9d565b905090565b6000620007b3600854426200188e565b10156200081b5760405162461bcd60e51b815260206004820152602f60248201527f536574746c656d656e742063616e6e6f74206f6363757265206265666f72652060448201526e65787069726174696f6e206461746560881b606482015260840162000600565b600160025460ff16600381111562000837576200083762001e7c565b14620008575760405162461bcd60e51b8152600401620006009062001c8c565b60006003546006546200086b919062001d37565b90506000600354600f5462000881919062001d37565b9050600062000891838362001d59565b6002805460ff191681179055600454600554600854604080516001600160a01b03948516815293909216602084015290820152606081018290529091507f408d2f82a05767182d614a96957816d6acbd66a392006f7aafee6d91fc880f909060800160405180910390a1505050565b60006001600160a01b038a16620009575760405162461bcd60e51b815260206004820152601a6024820152794c6f6e672063616e2774206265207a65726f206164647265737360301b604482015260640162000600565b6001600160a01b038916620009ad5760405162461bcd60e51b815260206004820152601b60248201527a53686f72742063616e2774206265207a65726f206164647265737360281b604482015260640162000600565b886001600160a01b03168a6001600160a01b0316141562000a1c5760405162461bcd60e51b815260206004820152602260248201527f4c6f6e6720616e642073686f72742063616e27742062652073616d6520706172604482015261747960f01b606482015260840162000600565b6001600160a01b03861662000a805760405162461bcd60e51b8152602060048201526024808201527f4c6f6e672077616c6c65742063616e6e6f742068617665207a65726f206164646044820152637265737360e01b606482015260840162000600565b6001600160a01b03851662000ae65760405162461bcd60e51b815260206004820152602560248201527f53686f72742077616c6c65742063616e6e6f742068617665207a65726f206164604482015264647265737360d81b606482015260840162000600565b846001600160a01b0316866001600160a01b0316141562000b5c5760405162461bcd60e51b815260206004820152602960248201527f6c6f6e6720616e642073686f72742077616c6c6574732063616e6e6f74206265604482015268207468652073616d6560b81b606482015260840162000600565b8262000bba5760405162461bcd60e51b815260206004820152602660248201527f6d61696e74656e616e6365206d617267696e20726174652063616e6e6f74206260448201526565207a65726f60d01b606482015260840162000600565b600062000bc842896200188e565b1162000c285760405162461bcd60e51b815260206004820152602860248201527f46464120636f6e74726163742068617320746f2065787069726520696e207468604482015267652066757475726560c01b606482015260840162000600565b600480546001600160a01b03199081166001600160a01b038d8116919091179092556005805482168c841617905560068a9055600f8a90556008899055600a80548216898416179055600b80548216888416179055600d869055600e859055600c80549091169184169190911790556002805460ff19166001179055600062000cb2848662001cd1565b600554600454600654600754600854600354604080519485526020850193909352918301526060820152608081018490529293506001600160a01b03918216929116907f8d00cc8de9616b2f3f0677fa7220777e8a33961f4026e1adfa53d94bd062251c9060a00160405180910390a35060019a9950505050505050505050565b600280546001919060ff191682805b0217905550565b6060600060025460ff16600381111562000d675762000d6762001e7c565b141562000d90575060408051808201909152600781526610dc99585d195960ca1b602082015290565b600160025460ff16600381111562000dac5762000dac62001e7c565b141562000dd75750604080518082019091526009815268125b9a5d1a585d195960ba1b602082015290565b6002805460ff16600381111562000df25762000df262001e7c565b141562000e1b575060408051808201909152600781526614d95d1d1b195960ca1b602082015290565b600360025460ff16600381111562000e375762000e3762001e7c565b141562000e625750604080518082019091526009815268111959985d5b1d195960ba1b602082015290565b5060408051808201909152600b81526a39ba30ba329032b93937b960a91b602082015290565b600160025460ff16600381111562000ea45762000ea462001e7c565b1462000ec45760405162461bcd60e51b8152600401620006009062001c8c565b600062000ed4426008546200188e565b1162000f345760405162461bcd60e51b815260206004820152602860248201527f4d20746f206d2063616e206f6e6c792068617070656e206265666f72652065786044820152673834b930ba34b7b760c11b606482015260840162000600565b60006003548262000f46919062001d37565b90506000600354600f5462000f5c919062001d37565b9050600062000f6c828462001d59565b9050600081131562000fa057600b54600a54600c5462000f9e926001600160a01b039081169281169185911662001054565b505b600081121562000fe157600a54600b5462000fdf916001600160a01b03908116911662000fcd8462001e46565b600c546001600160a01b031662001054565b505b600f84905560045460055460408051428152602081018590526001600160a01b0393841681830152929091166060830152517f63f10cc602ea66cf5c2a09a756a193c86ab46c33a794eb8d9aee6cf9426553a89181900360800190a150505050565b6060601180546200045e9062001deb565b60006001600160a01b038516620010ba5760405162461bcd60e51b8152602060048201526024808201527f53656e6465722077616c6c657420616464726573732063616e6e6f74206265206044820152637a65726f60e01b606482015260840162000600565b6001600160a01b038416620011225760405162461bcd60e51b815260206004820152602760248201527f526563697069656e742077616c6c657420616464726573732063616e6e6f74206044820152666265207a65726f60c81b606482015260840162000600565b846001600160a01b0316846001600160a01b031614156200119e5760405162461bcd60e51b815260206004820152602f60248201527f53656e64657220616e6420726563697069656e742077616c6c6574732063616e60448201526e6e6f74206265207468652073616d6560881b606482015260840162000600565b60008311620012075760405162461bcd60e51b815260206004820152602e60248201527f416d6f756e74207472616e736665727265642068617320746f2062652067726560448201526d61746572207468616e207a65726f60901b606482015260840162000600565b604051632a1e15e760e01b8152859085906000906001600160a01b03841690632a1e15e7906200123e903090899060040162001c19565b60206040518083038186803b1580156200125757600080fd5b505afa1580156200126c573d6000803e3d6000fd5b505050506040513d601f19601f8201168201806040525081019062001292919062001a9d565b905085811015620012f05760405162461bcd60e51b815260206004820152602160248201527f636f6c6c61746572616c2062616c616e6365206e6f742073756666696369656e6044820152601d60fa1b606482015260840162000600565b60405163113026f160e11b81526001600160a01b038416906322604de2906200132290889030908b9060040162001c33565b600060405180830381600087803b1580156200133d57600080fd5b505af115801562001352573d6000803e3d6000fd5b50506040516323b872dd60e01b81526001600160a01b03881692506323b872dd915062001388908b908b908b9060040162001c33565b602060405180830381600087803b158015620013a357600080fd5b505af1158015620013b8573d6000803e3d6000fd5b505050506040513d601f19601f82011682018060405250810190620013de919062001a79565b5060405163dfeff66160e01b8152868203906001600160a01b0385169063dfeff66190620014159030908a90869060040162001c33565b600060405180830381600087803b1580156200143057600080fd5b505af115801562001445573d6000803e3d6000fd5b5050505050600086836001600160a01b0316632a1e15e730896040518363ffffffff1660e01b81526004016200147d92919062001c19565b60206040518083038186803b1580156200149657600080fd5b505afa158015620014ab573d6000803e3d6000fd5b505050506040513d601f19601f82011682018060405250810190620014d1919062001a9d565b620014dd919062001cd1565b60405163dfeff66160e01b81529091506001600160a01b0384169063dfeff66190620015129030908a90869060040162001c33565b600060405180830381600087803b1580156200152d57600080fd5b505af115801562001542573d6000803e3d6000fd5b5060019c9b505050505050505050505050565b6000816040516200156690620018b1565b62001572919062001c57565b604051809103906000f0801580156200158f573d6000803e3d6000fd5b50601680546001600160a01b0319166001600160a01b0392909216918217905592915050565b600081604051602001620015ca919062001b7b565b6040516020818303038152906040528051906020012083604051602001620015f3919062001b7b565b6040516020818303038152906040528051906020012014905092915050565b600280546000919060ff191660018362000d42565b601460009054906101000a90046001600160a01b03166001600160a01b0316639df49c236040518163ffffffff1660e01b815260040160206040518083038186803b1580156200167657600080fd5b505afa1580156200168b573d6000803e3d6000fd5b505050506040513d601f19601f82011682018060405250810190620016b1919062001a9d565b600955565b600081604051620016c790620018b1565b620016d3919062001c57565b604051809103906000f080158015620016f0573d6000803e3d6000fd5b50601780546001600160a01b0319166001600160a01b0392909216918217905592915050565b6060816200173b5750506040805180820190915260018152600360fc1b602082015290565b8160005b81156200176b5780620017528162001e28565b9150620017639050600a8362001d14565b91506200173f565b6000816001600160401b0381111562001788576200178862001ea8565b6040519080825280601f01601f191660200182016040528015620017b3576020820181803683370190505b509050815b85156200185157620017cc60018262001d9e565b90506000620017dd600a8862001d14565b620017ea90600a62001d37565b620017f6908862001d9e565b6200180390603062001cec565b905060008160f81b90508084848151811062001823576200182362001e92565b60200101906001600160f81b031916908160001a90535062001847600a8962001d14565b97505050620017b8565b50949350505050565b60608484848460405160200162001875949392919062001b99565b6040516020818303038152906040529050949350505050565b6000818311156200189e57600080fd5b620018aa838362001d9e565b9392505050565b6109f68062001ebf83390190565b80356001600160a01b0381168114620018d757600080fd5b919050565b600082601f830112620018ee57600080fd5b81356001600160401b03808211156200190b576200190b62001ea8565b604051601f8301601f19908116603f0116810190828211818310171562001936576200193662001ea8565b816040528381528660208588010111156200195057600080fd5b836020870160208301376000602085830101528094505050505092915050565b6000602082840312156200198357600080fd5b620018aa82620018bf565b60008060008060808587031215620019a557600080fd5b620019b085620018bf565b9350620019c060208601620018bf565b925060408501359150620019d760608601620018bf565b905092959194509250565b60008060008060008060008060006101208a8c03121562001a0257600080fd5b62001a0d8a620018bf565b985062001a1d60208b01620018bf565b975060408a0135965060608a0135955062001a3b60808b01620018bf565b945062001a4b60a08b01620018bf565b935060c08a0135925060e08a0135915062001a6a6101008b01620018bf565b90509295985092959850929598565b60006020828403121562001a8c57600080fd5b81518015158114620018aa57600080fd5b60006020828403121562001ab057600080fd5b5051919050565b60006020828403121562001aca57600080fd5b81356001600160401b0381111562001ae157600080fd5b62001aef84828501620018dc565b949350505050565b6000806040838503121562001b0b57600080fd5b82356001600160401b038082111562001b2357600080fd5b62001b3186838701620018dc565b9350602085013591508082111562001b4857600080fd5b5062001b5785828601620018dc565b9150509250929050565b60006020828403121562001b7457600080fd5b5035919050565b6000825162001b8f81846020870162001db8565b9190910192915050565b6000855162001bad818460208a0162001db8565b8083019050602f60f81b808252865162001bcf816001850160208b0162001db8565b60019201918201819052855162001bee816002850160208a0162001db8565b6002920191820152835162001c0b81600384016020880162001db8565b016003019695505050505050565b6001600160a01b0392831681529116602082015260400190565b6001600160a01b039384168152919092166020820152604081019190915260600190565b602081526000825180602084015262001c7881604085016020870162001db8565b601f01601f19169190910160400192915050565b60208082526025908201527f436f6e74726163742068617320746f20626520696e20496e6974696174656420604082015264737461746560d81b606082015260800190565b6000821982111562001ce75762001ce762001e66565b500190565b600060ff821660ff84168060ff0382111562001d0c5762001d0c62001e66565b019392505050565b60008262001d3257634e487b7160e01b600052601260045260246000fd5b500490565b600081600019048311821515161562001d545762001d5462001e66565b500290565b60008083128015600160ff1b85018412161562001d7a5762001d7a62001e66565b6001600160ff1b038401831381161562001d985762001d9862001e66565b50500390565b60008282101562001db35762001db362001e66565b500390565b60005b8381101562001dd557818101518382015260200162001dbb565b8381111562001de5576000848401525b50505050565b600181811c9082168062001e0057607f821691505b6020821081141562001e2257634e487b7160e01b600052602260045260246000fd5b50919050565b600060001982141562001e3f5762001e3f62001e66565b5060010190565b6000600160ff1b82141562001e5f5762001e5f62001e66565b5060000390565b634e487b7160e01b600052601160045260246000fd5b634e487b7160e01b600052602160045260246000fd5b634e487b7160e01b600052603260045260246000fd5b634e487b7160e01b600052604160045260246000fdfe60806040523480156200001157600080fd5b50604051620009f6380380620009f6833981016040819052620000349162000165565b6000805460ff19169055620000493362000066565b80516200005e906001906020840190620000bf565b505062000294565b600080546001600160a01b03838116610100818102610100600160a81b0319851617855560405193049190911692909183917f8be0079c531659141344cd1fd0a4f28419497f9722a3daafe3b4186f6b6457e091a35050565b828054620000cd9062000241565b90600052602060002090601f016020900481019282620000f157600085556200013c565b82601f106200010c57805160ff19168380011785556200013c565b828001600101855582156200013c579182015b828111156200013c5782518255916020019190600101906200011f565b506200014a9291506200014e565b5090565b5b808211156200014a57600081556001016200014f565b600060208083850312156200017957600080fd5b82516001600160401b03808211156200019157600080fd5b818501915085601f830112620001a657600080fd5b815181811115620001bb57620001bb6200027e565b604051601f8201601f19908116603f01168101908382118183101715620001e657620001e66200027e565b816040528281528886848701011115620001ff57600080fd5b600093505b8284101562000223578484018601518185018701529285019262000204565b82841115620002355760008684830101525b98975050505050505050565b600181811c908216806200025657607f821691505b602082108114156200027857634e487b7160e01b600052602260045260246000fd5b50919050565b634e487b7160e01b600052604160045260246000fd5b61075280620002a46000396000f3fe608060405234801561001057600080fd5b50600436106100785760003560e01c806317d7de7c1461007d57806322604de21461009b5780632a1e15e7146100b05780635c975abb146100d1578063715018a6146100e75780638da5cb5b146100ef578063dfeff6611461010f578063f2fde38b14610122575b600080fd5b610085610135565b60405161009291906105ea565b60405180910390f35b6100ae6100a936600461058c565b6101c7565b005b6100c36100be366004610559565b6102d0565b604051908152602001610092565b60005460ff166040519015158152602001610092565b6100ae61034a565b6100f7610385565b6040516001600160a01b039091168152602001610092565b6100ae61011d36600461058c565b610399565b6100ae610130366004610537565b610422565b606060018054610144906106e1565b80601f0160208091040260200160405190810160405280929190818152602001828054610170906106e1565b80156101bd5780601f10610192576101008083540402835291602001916101bd565b820191906000526020600020905b8154815290600101906020018083116101a057829003601f168201915b5050505050905090565b6001600160a01b0382166102225760405162461bcd60e51b815260206004820152601e60248201527f7370656e64657220616464726573732063616e6e6f74206265207a65726f000060448201526064015b60405180910390fd5b6001600160a01b0383166102485760405162461bcd60e51b815260040161021990610674565b60405163095ea7b360e01b81526001600160a01b0383811660048301526024820183905284169063095ea7b390604401602060405180830381600087803b15801561029257600080fd5b505af11580156102a6573d6000803e3d6000fd5b505050506040513d601f19601f820116820180604052508101906102ca91906105c8565b50505050565b60006001600160a01b0383166102f85760405162461bcd60e51b8152600401610219906106aa565b6001600160a01b03821661031e5760405162461bcd60e51b815260040161021990610674565b506001600160a01b03918216600090815260026020908152604080832093909416825291909152205490565b33610353610385565b6001600160a01b0316146103795760405162461bcd60e51b81526004016102199061063f565b61038360006104c2565b565b60005461010090046001600160a01b031690565b6001600160a01b0383166103bf5760405162461bcd60e51b8152600401610219906106aa565b6001600160a01b0382166103e55760405162461bcd60e51b815260040161021990610674565b6001600160a01b03928316600081815260026020908152604080832095909616825293845284812083905560038452848120918152925291902055565b3361042b610385565b6001600160a01b0316146104515760405162461bcd60e51b81526004016102199061063f565b6001600160a01b0381166104b65760405162461bcd60e51b815260206004820152602660248201527f4f776e61626c653a206e6577206f776e657220697320746865207a65726f206160448201526564647265737360d01b6064820152608401610219565b6104bf816104c2565b50565b600080546001600160a01b03838116610100818102610100600160a81b0319851617855560405193049190911692909183917f8be0079c531659141344cd1fd0a4f28419497f9722a3daafe3b4186f6b6457e091a35050565b80356001600160a01b038116811461053257600080fd5b919050565b60006020828403121561054957600080fd5b6105528261051b565b9392505050565b6000806040838503121561056c57600080fd5b6105758361051b565b91506105836020840161051b565b90509250929050565b6000806000606084860312156105a157600080fd5b6105aa8461051b565b92506105b86020850161051b565b9150604084013590509250925092565b6000602082840312156105da57600080fd5b8151801515811461055257600080fd5b600060208083528351808285015260005b81811015610617578581018301518582016040015282016105fb565b81811115610629576000604083870101525b50601f01601f1916929092016040019392505050565b6020808252818101527f4f776e61626c653a2063616c6c6572206973206e6f7420746865206f776e6572604082015260600190565b6020808252601c908201527b746f6b656e20616464726573732063616e6e6f74206265207a65726f60201b604082015260600190565b6020808252601f908201527f636f6e747261637420616464726573732063616e6e6f74206265207a65726f00604082015260600190565b600181811c908216806106f557607f821691505b6020821081141561071657634e487b7160e01b600052602260045260246000fd5b5091905056fea2646970667358221220184e272785e791f286792316ab012364274882a1105b556966e4efd974a8aec164736f6c63430008070033a264697066735822122051e4e76331e0ddc4cf7a304ee3641f21f7db4ab8061b878b3287841d9706513064736f6c6343000807003360806040526001600455600f80546001600160a01b03199081167356dd6586db0d08c6ce7b2f2805af28616e082455179091556010805490911673a36085f69e2889c224210f603d836748e7dc008817905567016345785d8a00006011557f623636303264313465343733346334396135653163653139643435613436333260125560646013553480156200009357600080fd5b5060135460405180606001604052806029815260200162001b1560299139604080518082019091526005815264707269636560d81b6020820152601254600f546010546011548692869286926000926001600160a01b03908116928892911690878787876200010233620001b4565b6001600160a01b03861662000121576200011b62000206565b6200012c565b6200012c866200029b565b600980546001600160a01b0319166001600160a01b038a16179055600a879055600e859055600d84905582516200016b90600c906020860190620002bd565b5081516200018190600b906020850190620002bd565b5060068054911515600160a01b0260ff60a01b1990921691909117905550620003d29d5050505050505050505050505050565b600680546001600160a01b038381166001600160a01b0319831681179093556040519116919082907f8be0079c531659141344cd1fd0a4f28419497f9722a3daafe3b4186f6b6457e090600090a35050565b6200029973c89bd4e1632d3a43cb03aaad5262cbe4038bc5716001600160a01b03166338cc48316040518163ffffffff1660e01b815260040160206040518083038186803b1580156200025857600080fd5b505afa1580156200026d573d6000803e3d6000fd5b505050506040513d601f19601f8201168201806040525081019062000293919062000363565b6200029b565b565b600280546001600160a01b0319166001600160a01b0392909216919091179055565b828054620002cb9062000395565b90600052602060002090601f016020900481019282620002ef57600085556200033a565b82601f106200030a57805160ff19168380011785556200033a565b828001600101855582156200033a579182015b828111156200033a5782518255916020019190600101906200031d565b50620003489291506200034c565b5090565b5b808211156200034857600081556001016200034d565b6000602082840312156200037657600080fd5b81516001600160a01b03811681146200038e57600080fd5b9392505050565b600181811c90821680620003aa57607f821691505b60208210811415620003cc57634e487b7160e01b600052602260045260246000fd5b50919050565b61173380620003e26000396000f3fe6080604052600436106100f05760003560e01c8063185defc614610132578063313ce567146101685780634665e65a1461018c57806351744bca146101a257806369723be7146101c25780636fb7cb57146101e2578063715018a6146102025780637e0b66d0146102175780638da5cb5b146102375780638dc654a21461024c578063918c00b9146102615780639df49c2314610292578063a89ae4ba146102a7578063bd2563fb146102c7578063c2939d97146102dc578063c5b37c22146102f2578063d233da0814610308578063ddca3f431461031e578063de0a217d14610334578063f2fde38b1461037257005b36610130577f88a5966d370b9919b20f3e2c13ff65706f196a4e32cc2c12bf57088f88525874333460405161012692919061135e565b60405180910390a1005b005b34801561013e57600080fd5b50601054610152906001600160a01b031681565b60405161015f919061134a565b60405180910390f35b34801561017457600080fd5b5061017e600d5481565b60405190815260200161015f565b34801561019857600080fd5b5061017e60125481565b3480156101ae57600080fd5b506101306101bd366004611204565b610392565b3480156101ce57600080fd5b5061017e6101dd366004611226565b610430565b3480156101ee57600080fd5b50600f54610152906001600160a01b031681565b34801561020e57600080fd5b50610130610697565b34801561022357600080fd5b50610130610232366004611204565b6106d2565b34801561024357600080fd5b5061015261075e565b34801561025857600080fd5b5061013061076d565b34801561026d57600080fd5b5060065461028290600160a01b900460ff1681565b604051901515815260200161015f565b34801561029e57600080fd5b5060075461017e565b3480156102b357600080fd5b50600954610152906001600160a01b031681565b3480156102d357600080fd5b5060085461017e565b3480156102e857600080fd5b5061017e600a5481565b3480156102fe57600080fd5b5061017e60115481565b34801561031457600080fd5b5061017e60135481565b34801561032a57600080fd5b5061017e600e5481565b34801561034057600080fd5b5061036560405180604001604052806005815260200164707269636560d81b81525081565b60405161015f9190611406565b34801561037e57600080fd5b5061013061038d3660046111b9565b610931565b60008281526005602052604090205482906001600160a01b031633146103d35760405162461bcd60e51b81526004016103ca9061144e565b60405180910390fd5b60008181526005602052604080822080546001600160a01b03191690555182916000805160206116de83398151915291a260088290556040518381526000805160206116be833981519152906020015b60405180910390a1505050565b600061043a61116a565b600654600160a01b900460ff161561046857600a5461046190306328ba25e560e11b6109d1565b9050610480565b600a5461047d90306307e0b66d60e41b6109d1565b90505b61053b6040518060400160405280600381526020016219d95d60ea1b815250610533600c80546104af9061163a565b80601f01602080910402602001604051908101604052809291908181526020018280546104db9061163a565b80156105285780601f106104fd57610100808354040283529160200191610528565b820191906000526020600020905b81548152906001019060200180831161050b57829003601f168201915b5050505050866109f6565b839190610a23565b6105f6604051806040016040528060048152602001630e0c2e8d60e31b815250600b80546105689061163a565b80601f01602080910402602001604051908101604052809291908181526020018280546105949061163a565b80156105e15780601f106105b6576101008083540402835291602001916105e1565b820191906000526020600020905b8154815290600101906020018083116105c457829003601f168201915b505050505083610a239092919063ffffffff16565b60408051808201909152600581526474696d657360d81b6020820152600d54610620918391610a46565b600954600e5461063b916001600160a01b0316908390610a64565b600954600a54600e54604080516001600160a01b0390941684526020840192909252908201529092507f5de0ca4d601c6369aafe37da9bab92be9804895234cdb72d8181492e84e6bcb29060600160405180910390a150919050565b336106a061075e565b6001600160a01b0316146106c65760405162461bcd60e51b81526004016103ca90611419565b6106d06000610a83565b565b60008281526005602052604090205482906001600160a01b0316331461070a5760405162461bcd60e51b81526004016103ca9061144e565b60008181526005602052604080822080546001600160a01b03191690555182916000805160206116de83398151915291a260078290556040518381526000805160206116be83398151915290602001610423565b6006546001600160a01b031690565b3361077661075e565b6001600160a01b03161461079c5760405162461bcd60e51b81526004016103ca90611419565b60006107b06002546001600160a01b031690565b90506000816001600160a01b03166370a08231306040518263ffffffff1660e01b81526004016107e0919061134a565b60206040518083038186803b1580156107f857600080fd5b505afa15801561080c573d6000803e3d6000fd5b505050506040513d601f19601f8201168201806040525081019061083091906112d6565b60405163a9059cbb60e01b81529091506001600160a01b0383169063a9059cbb90610861903390859060040161135e565b602060405180830381600087803b15801561087b57600080fd5b505af115801561088f573d6000803e3d6000fd5b505050506040513d601f19601f820116820180604052508101906108b391906111e2565b6108f45760405162461bcd60e51b8152602060048201526012602482015271556e61626c6520746f20776974686472617760701b60448201526064016103ca565b7fcb1436249a1dd8cf93362c28d79a4e20dc54398b6c49e30316e8396e72a584b0338260405161092592919061135e565b60405180910390a15050565b3361093a61075e565b6001600160a01b0316146109605760405162461bcd60e51b81526004016103ca90611419565b6001600160a01b0381166109c55760405162461bcd60e51b815260206004820152602660248201527f4f776e61626c653a206e6577206f776e657220697320746865207a65726f206160448201526564647265737360d01b60648201526084016103ca565b6109ce81610a83565b50565b6109d961116a565b6109e161116a565b6109ed81868686610ad5565b95945050505050565b60608282604051602001610a0b92919061131b565b60405160208183030381529060405290505b92915050565b6080830151610a329083610b12565b6080830151610a419082610b12565b505050565b6080830151610a559083610b12565b6080830151610a419082610b29565b6000610a7b84848460016320214ca360e11b610b8b565b949350505050565b600680546001600160a01b038381166001600160a01b0319831681179093556040519116919082907f8be0079c531659141344cd1fd0a4f28419497f9722a3daafe3b4186f6b6457e090600090a35050565b610add61116a565b610aed8560800151610100610d92565b50509183526001600160a01b031660208301526001600160e01b031916604082015290565b610b1f8260038351610dea565b610a418282610ebd565b6001600160401b0319811215610b4757610b438282610ede565b5050565b6001600160401b03811315610b6057610b438282610f20565b60008112610b7457610b4382600083610dea565b610b43826001610b86846000196115b8565b610dea565b6004546040516001600160601b03193060601b166020820152603481019190915260009060540160408051808303601f19018152918152815160209283012060045460608901526000818152600590935281832080546001600160a01b0319166001600160a01b038b16179055905190925082917fb5e6e01e79f91267dc17b4e6314d5d4d03593d2ceee0fbb452b750bd70ea5af991a2600082600080886000015189602001518a604001518b606001518a8d6080015160000151604051602401610c5d989796959493929190611377565b60408051601f198184030181529181526020820180516001600160e01b03166001600160e01b0319909416939093179092526002549151630200057560e51b81529092506001600160a01b0390911690634000aea090610cc5908a90899086906004016113df565b602060405180830381600087803b158015610cdf57600080fd5b505af1158015610cf3573d6000803e3d6000fd5b505050506040513d601f19601f82011682018060405250810190610d1791906111e2565b610d6f5760405162461bcd60e51b815260206004820152602360248201527f756e61626c6520746f207472616e73666572416e6443616c6c20746f206f7261604482015262636c6560e81b60648201526084016103ca565b600160046000828254610d829190611496565b9091555091979650505050505050565b610d9a61119f565b610da560208361166f565b15610dcd57610db560208361166f565b610dc09060206115f7565b610dca9083611496565b91505b506020828101829052604080518085526000815290920101905290565b60178111610e0b57610e058360e0600585901b168317610f43565b50505050565b60ff8111610e3557610e28836018611fe0600586901b1617610f43565b50610e0583826001610f5b565b61ffff8111610e6057610e53836019611fe0600586901b1617610f43565b50610e0583826002610f5b565b63ffffffff8111610e8d57610e8083601a611fe0600586901b1617610f43565b50610e0583826004610f5b565b6001600160401b038111610a4157610eb083601b611fe0600586901b1617610f43565b50610e0583826008610f5b565b610ec561119f565b610ed783846000015151848551610f74565b9392505050565b610ee98260c3610f43565b50610b4382610efa836000196115b8565b604051602001610f0c91815260200190565b60405160208183030381529060405261106c565b610f2b8260c2610f43565b50610b438282604051602001610f0c91815260200190565b610f4b61119f565b610ed78384600001515184611079565b610f6361119f565b610a7b8485600001515185856110c8565b610f7c61119f565b8251821115610f8a57600080fd5b6020850151610f998386611496565b1115610fcc57610fcc85610fbc87602001518786610fb79190611496565b61113c565b610fc7906002611599565b611153565b600080865180518760208301019350808887011115610feb5787860182525b505050602084015b6020841061102b578051825261100a602083611496565b9150611017602082611496565b90506110246020856115f7565b9350610ff3565b6000600161103a8660206115f7565b611046906101006114f1565b61105091906115f7565b9151835183169219169190911790915250849050949350505050565b610b1f8260028351610dea565b61108161119f565b836020015183106110a1576110a18485602001516002610fc79190611599565b8351805160208583010184815350808514156110be576001810182525b5093949350505050565b6110d061119f565b60208501516110df8584611496565b11156110f3576110f385610fbc8685611496565b60006001611103846101006114f1565b61110d91906115f7565b90508551838682010185831982511617815250805184870111156111315783860181525b509495945050505050565b60008183111561114d575081610a1d565b50919050565b815161115f8383610d92565b50610e058382610ebd565b6040805160a08101825260008082526020820181905291810182905260608101919091526080810161119a61119f565b905290565b604051806040016040528060608152602001600081525090565b6000602082840312156111cb57600080fd5b81356001600160a01b0381168114610ed757600080fd5b6000602082840312156111f457600080fd5b81518015158114610ed757600080fd5b6000806040838503121561121757600080fd5b50508035926020909101359150565b60006020828403121561123857600080fd5b81356001600160401b038082111561124f57600080fd5b818401915084601f83011261126357600080fd5b813581811115611275576112756116a7565b604051601f8201601f19908116603f0116810190838211818310171561129d5761129d6116a7565b816040528281528760208487010111156112b657600080fd5b826020860160208301376000928101602001929092525095945050505050565b6000602082840312156112e857600080fd5b5051919050565b6000815180845261130781602086016020860161160e565b601f01601f19169290920160200192915050565b6000835161132d81846020880161160e565b83519083019061134181836020880161160e565b01949350505050565b6001600160a01b0391909116815260200190565b6001600160a01b03929092168252602082015260400190565b6001600160a01b0389811682526020820189905260408201889052861660608201526001600160e01b03198516608082015260a0810184905260c0810183905261010060e082018190526000906113d0838201856112ef565b9b9a5050505050505050505050565b60018060a01b03841681528260208201526060604082015260006109ed60608301846112ef565b602081526000610ed760208301846112ef565b6020808252818101527f4f776e61626c653a2063616c6c6572206973206e6f7420746865206f776e6572604082015260600190565b60208082526028908201527f536f75726365206d75737420626520746865206f7261636c65206f6620746865604082015267081c995c5d595cdd60c21b606082015260800190565b600082198211156114a9576114a9611691565b500190565b600181815b808511156114e95781600019048211156114cf576114cf611691565b808516156114dc57918102915b93841c93908002906114b3565b509250929050565b6000610ed7838360008261150757506001610a1d565b8161151457506000610a1d565b816001811461152a576002811461153457611550565b6001915050610a1d565b60ff84111561154557611545611691565b50506001821b610a1d565b5060208310610133831016604e8410600b8410161715611573575081810a610a1d565b61157d83836114ae565b806000190482111561159157611591611691565b029392505050565b60008160001904831182151516156115b3576115b3611691565b500290565b60008083128015600160ff1b8501841216156115d6576115d6611691565b6001600160ff1b03840183138116156115f1576115f1611691565b50500390565b60008282101561160957611609611691565b500390565b60005b83811015611629578181015183820152602001611611565b83811115610e055750506000910152565b600181811c9082168061164e57607f821691505b6020821081141561114d57634e487b7160e01b600052602260045260246000fd5b60008261168c57634e487b7160e01b600052601260045260246000fd5b500690565b634e487b7160e01b600052601160045260246000fd5b634e487b7160e01b600052604160045260246000fdfe6930ee93026433301a14b1baa0b52ca0d4640cb1edaa703beeb9056e235269847cc135e0cebb02c3480ae5d74d377283180a2601f8f644edf7987b009316c63aa2646970667358221220ac14cfead878371fd9b335b152c8847903153c29d1161be08c937d35d41e128b64736f6c63430008070033687474703a2f2f76616c756174696f6e2d6170692e6865726f6b756170702e636f6d2f70726963652f60806040526001600455600f80546001600160a01b03199081167356dd6586db0d08c6ce7b2f2805af28616e082455179091556010805490911673a36085f69e2889c224210f603d836748e7dc008817905567016345785d8a00006011557f62363630326431346534373334633439613565316365313964343561343633326012553480156200008e57600080fd5b5060405162001bbd38038062001bbd833981016040819052620000b19162000430565b601254600f546010546011548692869286926000926001600160a01b0390811692889291169087878787620000e63362000198565b6001600160a01b0386166200010557620000ff620001ea565b62000110565b62000110866200027f565b600980546001600160a01b0319166001600160a01b038a16179055600a879055600e859055600d84905582516200014f90600c906020860190620002a1565b5081516200016590600b906020850190620002a1565b5060068054911515600160a01b0260ff60a01b1990921691909117905550620004f79d5050505050505050505050505050565b600680546001600160a01b038381166001600160a01b0319831681179093556040519116919082907f8be0079c531659141344cd1fd0a4f28419497f9722a3daafe3b4186f6b6457e090600090a35050565b6200027d73c89bd4e1632d3a43cb03aaad5262cbe4038bc5716001600160a01b03166338cc48316040518163ffffffff1660e01b815260040160206040518083038186803b1580156200023c57600080fd5b505afa15801562000251573d6000803e3d6000fd5b505050506040513d601f19601f82011682018060405250810190620002779190620003fe565b6200027f565b565b600280546001600160a01b0319166001600160a01b0392909216919091179055565b828054620002af90620004a4565b90600052602060002090601f016020900481019282620002d357600085556200031e565b82601f10620002ee57805160ff19168380011785556200031e565b828001600101855582156200031e579182015b828111156200031e57825182559160200191906001019062000301565b506200032c92915062000330565b5090565b5b808211156200032c576000815560010162000331565b600082601f8301126200035957600080fd5b81516001600160401b0380821115620003765762000376620004e1565b604051601f8301601f19908116603f01168101908282118183101715620003a157620003a1620004e1565b81604052838152602092508683858801011115620003be57600080fd5b600091505b83821015620003e25785820183015181830184015290820190620003c3565b83821115620003f45760008385830101525b9695505050505050565b6000602082840312156200041157600080fd5b81516001600160a01b03811681146200042957600080fd5b9392505050565b6000806000606084860312156200044657600080fd5b835160208501519093506001600160401b03808211156200046657600080fd5b620004748783880162000347565b935060408601519150808211156200048b57600080fd5b506200049a8682870162000347565b9150509250925092565b600181811c90821680620004b957607f821691505b60208210811415620004db57634e487b7160e01b600052602260045260246000fd5b50919050565b634e487b7160e01b600052604160045260246000fd5b6116b680620005076000396000f3fe6080604052600436106100da5760003560e01c8063185defc61461011c578063313ce567146101525780634665e65a1461017657806351744bca1461018c57806369723be7146101ac5780636fb7cb57146101cc578063715018a6146101ec5780637e0b66d0146102015780638da5cb5b146102215780638dc654a214610236578063918c00b91461024b5780639df49c231461027c578063a89ae4ba14610291578063bd2563fb146102b1578063c2939d97146102c6578063c5b37c22146102dc578063ddca3f43146102f2578063f2fde38b1461030857005b3661011a577f88a5966d370b9919b20f3e2c13ff65706f196a4e32cc2c12bf57088f8852587433346040516101109291906112f4565b60405180910390a1005b005b34801561012857600080fd5b5060105461013c906001600160a01b031681565b60405161014991906112e0565b60405180910390f35b34801561015e57600080fd5b50610168600d5481565b604051908152602001610149565b34801561018257600080fd5b5061016860125481565b34801561019857600080fd5b5061011a6101a736600461119a565b610328565b3480156101b857600080fd5b506101686101c73660046111bc565b6103c6565b3480156101d857600080fd5b50600f5461013c906001600160a01b031681565b3480156101f857600080fd5b5061011a61062d565b34801561020d57600080fd5b5061011a61021c36600461119a565b610668565b34801561022d57600080fd5b5061013c6106f4565b34801561024257600080fd5b5061011a610703565b34801561025757600080fd5b5060065461026c90600160a01b900460ff1681565b6040519015158152602001610149565b34801561028857600080fd5b50600754610168565b34801561029d57600080fd5b5060095461013c906001600160a01b031681565b3480156102bd57600080fd5b50600854610168565b3480156102d257600080fd5b50610168600a5481565b3480156102e857600080fd5b5061016860115481565b3480156102fe57600080fd5b50610168600e5481565b34801561031457600080fd5b5061011a61032336600461114f565b6108c7565b60008281526005602052604090205482906001600160a01b031633146103695760405162461bcd60e51b8152600401610360906113d1565b60405180910390fd5b60008181526005602052604080822080546001600160a01b031916905551829160008051602061166183398151915291a26008829055604051838152600080516020611641833981519152906020015b60405180910390a1505050565b60006103d0611100565b600654600160a01b900460ff16156103fe57600a546103f790306328ba25e560e11b610967565b9050610416565b600a5461041390306307e0b66d60e41b610967565b90505b6104d16040518060400160405280600381526020016219d95d60ea1b8152506104c9600c8054610445906115bd565b80601f0160208091040260200160405190810160405280929190818152602001828054610471906115bd565b80156104be5780601f10610493576101008083540402835291602001916104be565b820191906000526020600020905b8154815290600101906020018083116104a157829003601f168201915b50505050508661098c565b8391906109b9565b61058c604051806040016040528060048152602001630e0c2e8d60e31b815250600b80546104fe906115bd565b80601f016020809104026020016040519081016040528092919081815260200182805461052a906115bd565b80156105775780601f1061054c57610100808354040283529160200191610577565b820191906000526020600020905b81548152906001019060200180831161055a57829003601f168201915b5050505050836109b99092919063ffffffff16565b60408051808201909152600581526474696d657360d81b6020820152600d546105b69183916109dc565b600954600e546105d1916001600160a01b03169083906109fa565b600954600a54600e54604080516001600160a01b0390941684526020840192909252908201529092507f5de0ca4d601c6369aafe37da9bab92be9804895234cdb72d8181492e84e6bcb29060600160405180910390a150919050565b336106366106f4565b6001600160a01b03161461065c5760405162461bcd60e51b81526004016103609061139c565b6106666000610a19565b565b60008281526005602052604090205482906001600160a01b031633146106a05760405162461bcd60e51b8152600401610360906113d1565b60008181526005602052604080822080546001600160a01b031916905551829160008051602061166183398151915291a26007829055604051838152600080516020611641833981519152906020016103b9565b6006546001600160a01b031690565b3361070c6106f4565b6001600160a01b0316146107325760405162461bcd60e51b81526004016103609061139c565b60006107466002546001600160a01b031690565b90506000816001600160a01b03166370a08231306040518263ffffffff1660e01b815260040161077691906112e0565b60206040518083038186803b15801561078e57600080fd5b505afa1580156107a2573d6000803e3d6000fd5b505050506040513d601f19601f820116820180604052508101906107c6919061126c565b60405163a9059cbb60e01b81529091506001600160a01b0383169063a9059cbb906107f790339085906004016112f4565b602060405180830381600087803b15801561081157600080fd5b505af1158015610825573d6000803e3d6000fd5b505050506040513d601f19601f820116820180604052508101906108499190611178565b61088a5760405162461bcd60e51b8152602060048201526012602482015271556e61626c6520746f20776974686472617760701b6044820152606401610360565b7fcb1436249a1dd8cf93362c28d79a4e20dc54398b6c49e30316e8396e72a584b033826040516108bb9291906112f4565b60405180910390a15050565b336108d06106f4565b6001600160a01b0316146108f65760405162461bcd60e51b81526004016103609061139c565b6001600160a01b03811661095b5760405162461bcd60e51b815260206004820152602660248201527f4f776e61626c653a206e6577206f776e657220697320746865207a65726f206160448201526564647265737360d01b6064820152608401610360565b61096481610a19565b50565b61096f611100565b610977611100565b61098381868686610a6b565b95945050505050565b606082826040516020016109a19291906112b1565b60405160208183030381529060405290505b92915050565b60808301516109c89083610aa8565b60808301516109d79082610aa8565b505050565b60808301516109eb9083610aa8565b60808301516109d79082610abf565b6000610a1184848460016320214ca360e11b610b21565b949350505050565b600680546001600160a01b038381166001600160a01b0319831681179093556040519116919082907f8be0079c531659141344cd1fd0a4f28419497f9722a3daafe3b4186f6b6457e090600090a35050565b610a73611100565b610a838560800151610100610d28565b50509183526001600160a01b031660208301526001600160e01b031916604082015290565b610ab58260038351610d80565b6109d78282610e53565b6001600160401b0319811215610add57610ad98282610e74565b5050565b6001600160401b03811315610af657610ad98282610eb6565b60008112610b0a57610ad982600083610d80565b610ad9826001610b1c8460001961153b565b610d80565b6004546040516001600160601b03193060601b166020820152603481019190915260009060540160408051808303601f19018152918152815160209283012060045460608901526000818152600590935281832080546001600160a01b0319166001600160a01b038b16179055905190925082917fb5e6e01e79f91267dc17b4e6314d5d4d03593d2ceee0fbb452b750bd70ea5af991a2600082600080886000015189602001518a604001518b606001518a8d6080015160000151604051602401610bf398979695949392919061130d565b60408051601f198184030181529181526020820180516001600160e01b03166001600160e01b0319909416939093179092526002549151630200057560e51b81529092506001600160a01b0390911690634000aea090610c5b908a9089908690600401611375565b602060405180830381600087803b158015610c7557600080fd5b505af1158015610c89573d6000803e3d6000fd5b505050506040513d601f19601f82011682018060405250810190610cad9190611178565b610d055760405162461bcd60e51b815260206004820152602360248201527f756e61626c6520746f207472616e73666572416e6443616c6c20746f206f7261604482015262636c6560e81b6064820152608401610360565b600160046000828254610d189190611419565b9091555091979650505050505050565b610d30611135565b610d3b6020836115f2565b15610d6357610d4b6020836115f2565b610d5690602061157a565b610d609083611419565b91505b506020828101829052604080518085526000815290920101905290565b60178111610da157610d9b8360e0600585901b168317610ed9565b50505050565b60ff8111610dcb57610dbe836018611fe0600586901b1617610ed9565b50610d9b83826001610ef1565b61ffff8111610df657610de9836019611fe0600586901b1617610ed9565b50610d9b83826002610ef1565b63ffffffff8111610e2357610e1683601a611fe0600586901b1617610ed9565b50610d9b83826004610ef1565b6001600160401b0381116109d757610e4683601b611fe0600586901b1617610ed9565b50610d9b83826008610ef1565b610e5b611135565b610e6d83846000015151848551610f0a565b9392505050565b610e7f8260c3610ed9565b50610ad982610e908360001961153b565b604051602001610ea291815260200190565b604051602081830303815290604052611002565b610ec18260c2610ed9565b50610ad98282604051602001610ea291815260200190565b610ee1611135565b610e6d838460000151518461100f565b610ef9611135565b610a1184856000015151858561105e565b610f12611135565b8251821115610f2057600080fd5b6020850151610f2f8386611419565b1115610f6257610f6285610f5287602001518786610f4d9190611419565b6110d2565b610f5d90600261151c565b6110e9565b600080865180518760208301019350808887011115610f815787860182525b505050602084015b60208410610fc15780518252610fa0602083611419565b9150610fad602082611419565b9050610fba60208561157a565b9350610f89565b60006001610fd086602061157a565b610fdc90610100611474565b610fe6919061157a565b9151835183169219169190911790915250849050949350505050565b610ab58260028351610d80565b611017611135565b83602001518310611037576110378485602001516002610f5d919061151c565b835180516020858301018481535080851415611054576001810182525b5093949350505050565b611066611135565b60208501516110758584611419565b11156110895761108985610f528685611419565b6000600161109984610100611474565b6110a3919061157a565b90508551838682010185831982511617815250805184870111156110c75783860181525b509495945050505050565b6000818311156110e35750816109b3565b50919050565b81516110f58383610d28565b50610d9b8382610e53565b6040805160a081018252600080825260208201819052918101829052606081019190915260808101611130611135565b905290565b604051806040016040528060608152602001600081525090565b60006020828403121561116157600080fd5b81356001600160a01b0381168114610e6d57600080fd5b60006020828403121561118a57600080fd5b81518015158114610e6d57600080fd5b600080604083850312156111ad57600080fd5b50508035926020909101359150565b6000602082840312156111ce57600080fd5b81356001600160401b03808211156111e557600080fd5b818401915084601f8301126111f957600080fd5b81358181111561120b5761120b61162a565b604051601f8201601f19908116603f011681019083821181831017156112335761123361162a565b8160405282815287602084870101111561124c57600080fd5b826020860160208301376000928101602001929092525095945050505050565b60006020828403121561127e57600080fd5b5051919050565b6000815180845261129d816020860160208601611591565b601f01601f19169290920160200192915050565b600083516112c3818460208801611591565b8351908301906112d7818360208801611591565b01949350505050565b6001600160a01b0391909116815260200190565b6001600160a01b03929092168252602082015260400190565b6001600160a01b0389811682526020820189905260408201889052861660608201526001600160e01b03198516608082015260a0810184905260c0810183905261010060e0820181905260009061136683820185611285565b9b9a5050505050505050505050565b60018060a01b03841681528260208201526060604082015260006109836060830184611285565b6020808252818101527f4f776e61626c653a2063616c6c6572206973206e6f7420746865206f776e6572604082015260600190565b60208082526028908201527f536f75726365206d75737420626520746865206f7261636c65206f6620746865604082015267081c995c5d595cdd60c21b606082015260800190565b6000821982111561142c5761142c611614565b500190565b600181815b8085111561146c57816000190482111561145257611452611614565b8085161561145f57918102915b93841c9390800290611436565b509250929050565b6000610e6d838360008261148a575060016109b3565b81611497575060006109b3565b81600181146114ad57600281146114b7576114d3565b60019150506109b3565b60ff8411156114c8576114c8611614565b50506001821b6109b3565b5060208310610133831016604e8410600b84101617156114f6575081810a6109b3565b6115008383611431565b806000190482111561151457611514611614565b029392505050565b600081600019048311821515161561153657611536611614565b500290565b60008083128015600160ff1b85018412161561155957611559611614565b6001600160ff1b038401831381161561157457611574611614565b50500390565b60008282101561158c5761158c611614565b500390565b60005b838110156115ac578181015183820152602001611594565b83811115610d9b5750506000910152565b600181811c908216806115d157607f821691505b602082108114156110e357634e487b7160e01b600052602260045260246000fd5b60008261160f57634e487b7160e01b600052601260045260246000fd5b500690565b634e487b7160e01b600052601160045260246000fd5b634e487b7160e01b600052604160045260246000fdfe6930ee93026433301a14b1baa0b52ca0d4640cb1edaa703beeb9056e235269847cc135e0cebb02c3480ae5d74d377283180a2601f8f644edf7987b009316c63aa26469706673582212207c0f108f4a271e1780ecbb0d8661662dc0f2e0429da5f34528c1c698a192ec4464736f6c63430008070033687474703a2f2f76616c756174696f6e2d6170692e6865726f6b756170702e636f6d2f70726963652f343530302f313030302f302f3135373738343736",
  "immutableReferences": {},
  "source": "// SPDX-License-Identifier: UNLICENSED\r\n\r\npragma solidity ^0.8.6;\r\n\r\nimport \"../FFAContract.sol\";\r\n\r\ncontract FFAContractMock is FFAContract {\r\n\r\n    constructor() FFAContract(\"Mock Test\", \r\n                              \"MTST\", 100, \r\n                              \"http://valuation-api.herokuapp.com/price/4500/1000/0/15778476\", \r\n                              \"price\", 100) {}\r\n\r\n    /* Create long and short wallets for FFAContract*/\r\n    CollateralWallet public longTestWallet;\r\n    CollateralWallet public shortTestWallet;\r\n    function createLongCollateralWallet(string memory _name) external returns(address walletAddress_) {\r\n            longTestWallet = new CollateralWallet(_name);\r\n            walletAddress_ = address(longTestWallet);\r\n    }\r\n    function createShortCollateralWallet(string memory _name) external returns(address walletAddress_) {\r\n            shortTestWallet = new CollateralWallet(_name);\r\n            walletAddress_ = address(shortTestWallet);\r\n    }\r\n\r\n    function setStateToCreated() external {\r\n           contractState = ContractState.Created;\r\n    }\r\n\r\n    function setStateToInitiated() external {\r\n        contractState = ContractState.Initiated;\r\n    }\r\n\r\n    function setExpirationDate(uint newDate) external{\r\n        expirationDate = newDate;\r\n    }\r\n\r\n    function setLong(address newLong) external{\r\n        long = newLong;\r\n    }\r\n\r\n    function compareStrings(string memory a, string memory b) public pure returns (bool) {\r\n        return (keccak256(abi.encodePacked((a))) == keccak256(abi.encodePacked((b))));\r\n    }  \r\n}",
  "sourcePath": "C:\\Users\\Tomi\\OneDrive - The University of Chicago\\Documents\\Securrency\\FuturesExchange\\contracts\\mocks\\FFAContractMock.sol",
  "compiler": {
    "name": "solc",
    "version": "0.8.7+commit.e28d00a7.Emscripten.clang"
  },
  "schemaVersion": "3.4.2",
  "updatedAt": "2021-09-03T13:39:41.598Z",
  "networkType": "ethereum",
  "devdoc": {
    "kind": "dev",
    "methods": {},
    "version": 1
  },
  "userdoc": {
    "kind": "user",
    "methods": {},
    "version": 1
  }
}