{
  "contractName": "FFAContract",
  "abi": [
    {
      "inputs": [
        {
          "internalType": "string",
          "name": "_name",
          "type": "string"
        },
        {
          "internalType": "string",
          "name": "_symbol",
          "type": "string"
        },
        {
          "internalType": "uint8",
          "name": "_decimals",
          "type": "uint8"
        },
        {
          "internalType": "uint256",
          "name": "_sizeOfContract",
          "type": "uint256"
        }
      ],
      "stateMutability": "nonpayable",
      "type": "constructor"
    },
    {
      "anonymous": false,
      "inputs": [
        {
          "indexed": false,
          "internalType": "uint8",
          "name": "decimals",
          "type": "uint8"
        },
        {
          "indexed": false,
          "internalType": "uint256",
          "name": "sizeOfContract",
          "type": "uint256"
        }
      ],
      "name": "CreatedContract",
      "type": "event"
    },
    {
      "anonymous": false,
      "inputs": [
        {
          "indexed": false,
          "internalType": "uint256",
          "name": "defaultDate",
          "type": "uint256"
        },
        {
          "indexed": false,
          "internalType": "address",
          "name": "defaultingParty",
          "type": "address"
        }
      ],
      "name": "Defaulted",
      "type": "event"
    },
    {
      "anonymous": false,
      "inputs": [
        {
          "indexed": true,
          "internalType": "address",
          "name": "long",
          "type": "address"
        },
        {
          "indexed": true,
          "internalType": "address",
          "name": "short",
          "type": "address"
        },
        {
          "indexed": false,
          "internalType": "uint256",
          "name": "forwardPrice",
          "type": "uint256"
        },
        {
          "indexed": false,
          "internalType": "uint8",
          "name": "riskFreeRate",
          "type": "uint8"
        },
        {
          "indexed": false,
          "internalType": "uint256",
          "name": "expirationDate",
          "type": "uint256"
        }
      ],
      "name": "Initiated",
      "type": "event"
    },
    {
      "anonymous": false,
      "inputs": [
        {
          "indexed": false,
          "internalType": "uint256",
          "name": "mtmDate",
          "type": "uint256"
        },
        {
          "indexed": false,
          "internalType": "int256",
          "name": "dailyPayoff",
          "type": "int256"
        },
        {
          "indexed": false,
          "internalType": "address",
          "name": "long",
          "type": "address"
        },
        {
          "indexed": false,
          "internalType": "address",
          "name": "short",
          "type": "address"
        }
      ],
      "name": "MarkedToMarket",
      "type": "event"
    },
    {
      "anonymous": false,
      "inputs": [
        {
          "indexed": false,
          "internalType": "address",
          "name": "long",
          "type": "address"
        },
        {
          "indexed": false,
          "internalType": "address",
          "name": "short",
          "type": "address"
        },
        {
          "indexed": false,
          "internalType": "uint256",
          "name": "expirationDate",
          "type": "uint256"
        }
      ],
      "name": "Settled",
      "type": "event"
    },
    {
      "anonymous": false,
      "inputs": [
        {
          "indexed": false,
          "internalType": "uint8",
          "name": "riskFreeRate",
          "type": "uint8"
        },
        {
          "indexed": false,
          "internalType": "int256",
          "name": "indexPrice",
          "type": "int256"
        },
        {
          "indexed": false,
          "internalType": "uint256",
          "name": "valuationDate",
          "type": "uint256"
        },
        {
          "indexed": false,
          "internalType": "int256",
          "name": "forwardValue",
          "type": "int256"
        }
      ],
      "name": "Valuated",
      "type": "event"
    },
    {
      "inputs": [],
      "name": "contractState",
      "outputs": [
        {
          "internalType": "enum FFAContract.ContractState",
          "name": "",
          "type": "uint8"
        }
      ],
      "stateMutability": "view",
      "type": "function",
      "constant": true
    },
    {
      "inputs": [
        {
          "internalType": "address",
          "name": "_long",
          "type": "address"
        },
        {
          "internalType": "address",
          "name": "_short",
          "type": "address"
        },
        {
          "internalType": "uint256",
          "name": "_forwardPrice",
          "type": "uint256"
        },
        {
          "internalType": "uint8",
          "name": "_riskFreeRate",
          "type": "uint8"
        },
        {
          "internalType": "uint256",
          "name": "_expirationDate",
          "type": "uint256"
        },
        {
          "internalType": "address",
          "name": "_longWallet",
          "type": "address"
        },
        {
          "internalType": "address",
          "name": "_shortWallet",
          "type": "address"
        }
      ],
      "name": "initiateFFA",
      "outputs": [
        {
          "internalType": "bool",
          "name": "initiated_",
          "type": "bool"
        }
      ],
      "stateMutability": "nonpayable",
      "type": "function"
    },
    {
      "inputs": [],
      "name": "calcFFAValue",
      "outputs": [
        {
          "internalType": "uint256",
          "name": "value_",
          "type": "uint256"
        }
      ],
      "stateMutability": "nonpayable",
      "type": "function"
    },
    {
      "inputs": [],
      "name": "markToMarket",
      "outputs": [
        {
          "internalType": "bool",
          "name": "markedToMarket_",
          "type": "bool"
        }
      ],
      "stateMutability": "nonpayable",
      "type": "function"
    },
    {
      "inputs": [],
      "name": "settleAtExpiration",
      "outputs": [
        {
          "internalType": "bool",
          "name": "settled_",
          "type": "bool"
        }
      ],
      "stateMutability": "nonpayable",
      "type": "function"
    },
    {
      "inputs": [
        {
          "internalType": "address",
          "name": "_defaultingParty",
          "type": "address"
        }
      ],
      "name": "defaultContract",
      "outputs": [
        {
          "internalType": "bool",
          "name": "defaulted_",
          "type": "bool"
        }
      ],
      "stateMutability": "nonpayable",
      "type": "function"
    },
    {
      "inputs": [
        {
          "internalType": "contract CollateralWallet",
          "name": "senderWallet",
          "type": "address"
        },
        {
          "internalType": "contract CollateralWallet",
          "name": "recipientWallet",
          "type": "address"
        },
        {
          "internalType": "uint256",
          "name": "amount",
          "type": "uint256"
        },
        {
          "internalType": "address",
          "name": "collateralTokenAddress",
          "type": "address"
        }
      ],
      "name": "transferCollateralFrom",
      "outputs": [
        {
          "internalType": "bool",
          "name": "transfered_",
          "type": "bool"
        }
      ],
      "stateMutability": "nonpayable",
      "type": "function"
    },
    {
      "inputs": [
        {
          "internalType": "string",
          "name": "_name",
          "type": "string"
        }
      ],
      "name": "createCollateralWallet",
      "outputs": [
        {
          "internalType": "address",
          "name": "walletAddress_",
          "type": "address"
        }
      ],
      "stateMutability": "nonpayable",
      "type": "function"
    },
    {
      "inputs": [
        {
          "internalType": "uint256",
          "name": "index",
          "type": "uint256"
        }
      ],
      "name": "getCollateralWallets",
      "outputs": [
        {
          "internalType": "contract CollateralWallet",
          "name": "",
          "type": "address"
        }
      ],
      "stateMutability": "view",
      "type": "function",
      "constant": true
    },
    {
      "inputs": [],
      "name": "getContractState",
      "outputs": [
        {
          "internalType": "string",
          "name": "",
          "type": "string"
        }
      ],
      "stateMutability": "view",
      "type": "function",
      "constant": true
    },
    {
      "inputs": [],
      "name": "getName",
      "outputs": [
        {
          "internalType": "string",
          "name": "",
          "type": "string"
        }
      ],
      "stateMutability": "view",
      "type": "function",
      "constant": true
    },
    {
      "inputs": [],
      "name": "getSymbol",
      "outputs": [
        {
          "internalType": "string",
          "name": "",
          "type": "string"
        }
      ],
      "stateMutability": "view",
      "type": "function",
      "constant": true
    },
    {
      "inputs": [],
      "name": "getSizeOfContract",
      "outputs": [
        {
          "internalType": "uint256",
          "name": "",
          "type": "uint256"
        }
      ],
      "stateMutability": "view",
      "type": "function",
      "constant": true
    },
    {
      "inputs": [],
      "name": "getDecimals",
      "outputs": [
        {
          "internalType": "uint8",
          "name": "",
          "type": "uint8"
        }
      ],
      "stateMutability": "view",
      "type": "function",
      "constant": true
    },
    {
      "inputs": [],
      "name": "getLong",
      "outputs": [
        {
          "internalType": "address",
          "name": "",
          "type": "address"
        }
      ],
      "stateMutability": "view",
      "type": "function",
      "constant": true
    },
    {
      "inputs": [],
      "name": "getShort",
      "outputs": [
        {
          "internalType": "address",
          "name": "",
          "type": "address"
        }
      ],
      "stateMutability": "view",
      "type": "function",
      "constant": true
    },
    {
      "inputs": [],
      "name": "getForwardPrice",
      "outputs": [
        {
          "internalType": "uint256",
          "name": "",
          "type": "uint256"
        }
      ],
      "stateMutability": "view",
      "type": "function",
      "constant": true
    },
    {
      "inputs": [],
      "name": "getRiskFreeRate",
      "outputs": [
        {
          "internalType": "uint8",
          "name": "",
          "type": "uint8"
        }
      ],
      "stateMutability": "view",
      "type": "function",
      "constant": true
    },
    {
      "inputs": [],
      "name": "getExpirationDate",
      "outputs": [
        {
          "internalType": "uint256",
          "name": "",
          "type": "uint256"
        }
      ],
      "stateMutability": "view",
      "type": "function",
      "constant": true
    },
    {
      "inputs": [],
      "name": "getLongWalletAddress",
      "outputs": [
        {
          "internalType": "address",
          "name": "",
          "type": "address"
        }
      ],
      "stateMutability": "view",
      "type": "function",
      "constant": true
    },
    {
      "inputs": [],
      "name": "getShortWalletAddress",
      "outputs": [
        {
          "internalType": "address",
          "name": "",
          "type": "address"
        }
      ],
      "stateMutability": "view",
      "type": "function",
      "constant": true
    }
  ],
  "bytecode": "0x60806040523480156200001157600080fd5b5060405162003cd438038062003cd483398181016040528101906200003791906200026b565b83600090805190602001906200004f9291906200010f565b508260019080519060200190620000689291906200010f565b5081600260006101000a81548160ff021916908360ff160217905550806003819055506000600260016101000a81548160ff02191690836003811115620000b457620000b362000482565b5b02179055507faa7f6ea30e1ba480d45b98b3b903c55e2261e037d7b614e6164b23f23711d104600260009054906101000a900460ff16600354604051620000fd9291906200033d565b60405180910390a15050505062000568565b8280546200011d9062000416565b90600052602060002090601f0160209004810192826200014157600085556200018d565b82601f106200015c57805160ff19168380011785556200018d565b828001600101855582156200018d579182015b828111156200018c5782518255916020019190600101906200016f565b5b5090506200019c9190620001a0565b5090565b5b80821115620001bb576000816000905550600101620001a1565b5090565b6000620001d6620001d08462000393565b6200036a565b905082815260208101848484011115620001f557620001f462000514565b5b62000202848285620003e0565b509392505050565b600082601f8301126200022257620002216200050f565b5b815162000234848260208601620001bf565b91505092915050565b6000815190506200024e8162000534565b92915050565b60008151905062000265816200054e565b92915050565b600080600080608085870312156200028857620002876200051e565b5b600085015167ffffffffffffffff811115620002a957620002a862000519565b5b620002b7878288016200020a565b945050602085015167ffffffffffffffff811115620002db57620002da62000519565b5b620002e9878288016200020a565b9350506040620002fc8782880162000254565b92505060606200030f878288016200023d565b91505092959194509250565b6200032681620003c9565b82525050565b6200033781620003d3565b82525050565b60006040820190506200035460008301856200032c565b6200036360208301846200031b565b9392505050565b60006200037662000389565b90506200038482826200044c565b919050565b6000604051905090565b600067ffffffffffffffff821115620003b157620003b0620004e0565b5b620003bc8262000523565b9050602081019050919050565b6000819050919050565b600060ff82169050919050565b60005b8381101562000400578082015181840152602081019050620003e3565b8381111562000410576000848401525b50505050565b600060028204905060018216806200042f57607f821691505b60208210811415620004465762000445620004b1565b5b50919050565b620004578262000523565b810181811067ffffffffffffffff82111715620004795762000478620004e0565b5b80604052505050565b7f4e487b7100000000000000000000000000000000000000000000000000000000600052602160045260246000fd5b7f4e487b7100000000000000000000000000000000000000000000000000000000600052602260045260246000fd5b7f4e487b7100000000000000000000000000000000000000000000000000000000600052604160045260246000fd5b600080fd5b600080fd5b600080fd5b600080fd5b6000601f19601f8301169050919050565b6200053f81620003c9565b81146200054b57600080fd5b50565b6200055981620003d3565b81146200056557600080fd5b50565b61375c80620005786000396000f3fe60806040523480156200001157600080fd5b5060043610620001545760003560e01c806370a4cd3411620000c95780638f896f5011620000875780638f896f5014620003a7578063923123b314620003dd578063b317f5ec14620003ff578063c82ee7ab1462000421578063e9df7c5e1462000443578063f0141d8414620004655762000154565b806370a4cd3414620002fd57806378f8f7d4146200031f5780637f4e4849146200034157806385209ee014620003635780638543549114620003855762000154565b80635a4a905f11620001175780635a4a905f146200022b5780635c16a60d14620002615780635edf7d8b14620002975780636621f80d14620002b9578063708febc814620002db5762000154565b806315070401146200015957806317d7de7c146200017b5780633448f659146200019d57806347d3fa6d14620001d35780634bdcfab814620001f5575b600080fd5b6200016362000487565b60405162000172919062001ead565b60405180910390f35b6200018562000521565b60405162000194919062001ead565b60405180910390f35b620001bb6004803603810190620001b59190620018af565b620005bb565b604051620001ca919062001e56565b60405180910390f35b620001dd62000701565b604051620001ec919062001da2565b60405180910390f35b6200021360048036038101906200020d9190620018e1565b6200072b565b60405162000222919062001e56565b60405180910390f35b62000249600480360381019062000243919062001a89565b62000b01565b60405162000258919062001e73565b60405180910390f35b6200027f600480360381019062000279919062001a38565b62000b4c565b6040516200028e919062001da2565b60405180910390f35b620002a162000bf1565b604051620002b0919062002047565b60405180910390f35b620002c362000bfb565b604051620002d2919062002047565b60405180910390f35b620002e562000c05565b604051620002f4919062001da2565b60405180910390f35b6200030762000c2f565b60405162000316919062001e56565b60405180910390f35b6200032962000dba565b60405162000338919062001e56565b60405180910390f35b6200034b62000ec8565b6040516200035a919062001ead565b60405180910390f35b6200036d62001109565b6040516200037c919062001e90565b60405180910390f35b6200038f6200111c565b6040516200039e91906200211b565b60405180910390f35b620003c56004803603810190620003bf9190620019c6565b62001133565b604051620003d4919062001e56565b60405180910390f35b620003e7620013da565b604051620003f6919062002047565b60405180910390f35b62000409620013e4565b60405162000418919062001da2565b60405180910390f35b6200042b6200140e565b6040516200043a919062001da2565b60405180910390f35b6200044d62001438565b6040516200045c919062002047565b60405180910390f35b6200046f62001448565b6040516200047e91906200211b565b60405180910390f35b606060018054620004989062002380565b80601f0160208091040260200160405190810160405280929190818152602001828054620004c69062002380565b8015620005175780601f10620004eb5761010080835404028352916020019162000517565b820191906000526020600020905b815481529060010190602001808311620004f957829003601f168201915b5050505050905090565b606060008054620005329062002380565b80601f0160208091040260200160405190810160405280929190818152602001828054620005609062002380565b8015620005b15780601f106200058557610100808354040283529160200191620005b1565b820191906000526020600020905b8154815290600101906020018083116200059357829003601f168201915b5050505050905090565b600060016003811115620005d457620005d36200241b565b5b600260019054906101000a900460ff166003811115620005f957620005f86200241b565b5b146200063c576040517f08c379a0000000000000000000000000000000000000000000000000000000008152600401620006339062001f15565b60405180910390fd5b60006200064c426008546200145f565b116200068f576040517f08c379a0000000000000000000000000000000000000000000000000000000008152600401620006869062001f9d565b60405180910390fd5b6003600260016101000a81548160ff02191690836003811115620006b857620006b76200241b565b5b02179055507f724b99e866949401e1553ae6e0da07c7e24b0308581155730cbe34363752bd3f4283604051620006f092919062002064565b60405180910390a160019050919050565b6000600460009054906101000a900473ffffffffffffffffffffffffffffffffffffffff16905090565b60008073ffffffffffffffffffffffffffffffffffffffff168873ffffffffffffffffffffffffffffffffffffffff1614156200079f576040517f08c379a0000000000000000000000000000000000000000000000000000000008152600401620007969062001f37565b60405180910390fd5b600073ffffffffffffffffffffffffffffffffffffffff168773ffffffffffffffffffffffffffffffffffffffff16141562000812576040517f08c379a0000000000000000000000000000000000000000000000000000000008152600401620008099062001ef3565b60405180910390fd5b8673ffffffffffffffffffffffffffffffffffffffff168873ffffffffffffffffffffffffffffffffffffffff16141562000884576040517f08c379a00000000000000000000000000000000000000000000000000000000081526004016200087b9062001ed1565b60405180910390fd5b60006200089242866200145f565b11620008d5576040517f08c379a0000000000000000000000000000000000000000000000000000000008152600401620008cc9062001f7b565b60405180910390fd5b87600460006101000a81548173ffffffffffffffffffffffffffffffffffffffff021916908373ffffffffffffffffffffffffffffffffffffffff16021790555086600560006101000a81548173ffffffffffffffffffffffffffffffffffffffff021916908373ffffffffffffffffffffffffffffffffffffffff1602179055508560068190555084600760006101000a81548160ff021916908360ff1602179055508360088190555082600960006101000a81548173ffffffffffffffffffffffffffffffffffffffff021916908373ffffffffffffffffffffffffffffffffffffffff16021790555081600a60006101000a81548173ffffffffffffffffffffffffffffffffffffffff021916908373ffffffffffffffffffffffffffffffffffffffff1602179055506001600260016101000a81548160ff0219169083600381111562000a2b5762000a2a6200241b565b5b0217905550600560009054906101000a900473ffffffffffffffffffffffffffffffffffffffff1673ffffffffffffffffffffffffffffffffffffffff16600460009054906101000a900473ffffffffffffffffffffffffffffffffffffffff1673ffffffffffffffffffffffffffffffffffffffff167f3bf88603c760ed46445b475bf9bd18d23632b3df0c987c93907aa89ef3874cdd600654600760009054906101000a900460ff1660085460405162000aea93929190620020de565b60405180910390a360019050979650505050505050565b60006010828154811062000b1a5762000b1962002479565b5b9060005260206000200160009054906101000a900473ffffffffffffffffffffffffffffffffffffffff169050919050565b60008160405162000b5d9062001799565b62000b69919062001ead565b604051809103906000f08015801562000b86573d6000803e3d6000fd5b5090506010819080600181540180825580915050600190039060005260206000200160009091909190916101000a81548173ffffffffffffffffffffffffffffffffffffffff021916908373ffffffffffffffffffffffffffffffffffffffff160217905550919050565b6000600854905090565b6000600654905090565b6000600a60009054906101000a900473ffffffffffffffffffffffffffffffffffffffff16905090565b60008062000c40600854426200145f565b101562000c84576040517f08c379a000000000000000000000000000000000000000000000000000000000815260040162000c7b9062002003565b60405180910390fd5b6001600381111562000c9b5762000c9a6200241b565b5b600260019054906101000a900460ff16600381111562000cc05762000cbf6200241b565b5b1462000d03576040517f08c379a000000000000000000000000000000000000000000000000000000000815260040162000cfa9062001f15565b60405180910390fd5b60028060016101000a81548160ff0219169083600381111562000d2b5762000d2a6200241b565b5b02179055507f7e79a2206061184e05985ae0578dec52f817756a441996f984cdc817efc25a68600460009054906101000a900473ffffffffffffffffffffffffffffffffffffffff16600560009054906101000a900473ffffffffffffffffffffffffffffffffffffffff1660085460405162000dab9392919062001dec565b60405180910390a16001905090565b60006001600381111562000dd35762000dd26200241b565b5b600260019054906101000a900460ff16600381111562000df85762000df76200241b565b5b1462000e3b576040517f08c379a000000000000000000000000000000000000000000000000000000000815260040162000e329062001f15565b60405180910390fd5b60007f63f10cc602ea66cf5c2a09a756a193c86ab46c33a794eb8d9aee6cf9426553a84282600460009054906101000a900473ffffffffffffffffffffffffffffffffffffffff16600560009054906101000a900473ffffffffffffffffffffffffffffffffffffffff1660405162000eb8949392919062002091565b60405180910390a1600191505090565b60606000600381111562000ee15762000ee06200241b565b5b600260019054906101000a900460ff16600381111562000f065762000f056200241b565b5b141562000f4b576040518060400160405280600781526020017f4372656174656400000000000000000000000000000000000000000000000000815250905062001106565b6001600381111562000f625762000f616200241b565b5b600260019054906101000a900460ff16600381111562000f875762000f866200241b565b5b141562000fcc576040518060400160405280600981526020017f496e697469617465640000000000000000000000000000000000000000000000815250905062001106565b6002600381111562000fe35762000fe26200241b565b5b600260019054906101000a900460ff1660038111156200100857620010076200241b565b5b14156200104d576040518060400160405280600781526020017f536574746c656400000000000000000000000000000000000000000000000000815250905062001106565b6003808111156200106357620010626200241b565b5b600260019054906101000a900460ff1660038111156200108857620010876200241b565b5b1415620010cd576040518060400160405280600981526020017f44656661756c7465640000000000000000000000000000000000000000000000815250905062001106565b6040518060400160405280600b81526020017f7374617465206572726f7200000000000000000000000000000000000000000081525090505b90565b600260019054906101000a900460ff1681565b6000600760009054906101000a900460ff16905090565b6000808573ffffffffffffffffffffffffffffffffffffffff16632a1e15e730856040518363ffffffff1660e01b81526004016200117392919062001dbf565b60206040518083038186803b1580156200118c57600080fd5b505afa158015620011a1573d6000803e3d6000fd5b505050506040513d601f19601f82011682018060405250810190620011c7919062001abb565b9050838110156200120f576040517f08c379a0000000000000000000000000000000000000000000000000000000008152600401620012069062001fbf565b60405180910390fd5b6200123c85858573ffffffffffffffffffffffffffffffffffffffff16620014859092919063ffffffff16565b600084820390508673ffffffffffffffffffffffffffffffffffffffff1663dfeff6613086846040518463ffffffff1660e01b8152600401620012829392919062001dec565b600060405180830381600087803b1580156200129d57600080fd5b505af1158015620012b2573d6000803e3d6000fd5b50505050506000848673ffffffffffffffffffffffffffffffffffffffff16632a1e15e730876040518363ffffffff1660e01b8152600401620012f792919062001dbf565b60206040518083038186803b1580156200131057600080fd5b505afa15801562001325573d6000803e3d6000fd5b505050506040513d601f19601f820116820180604052508101906200134b919062001abb565b620013579190620021c9565b90508573ffffffffffffffffffffffffffffffffffffffff1663dfeff6613086846040518463ffffffff1660e01b8152600401620013989392919062001dec565b600060405180830381600087803b158015620013b357600080fd5b505af1158015620013c8573d6000803e3d6000fd5b50505050600192505050949350505050565b6000600354905090565b6000600560009054906101000a900473ffffffffffffffffffffffffffffffffffffffff16905090565b6000600960009054906101000a900473ffffffffffffffffffffffffffffffffffffffff16905090565b600042600e819055506000905090565b6000600260009054906101000a900460ff16905090565b6000818311156200146f57600080fd5b82826200147d919062002226565b905092915050565b6200150a8363a9059cbb60e01b8484604051602401620014a792919062001e29565b604051602081830303815290604052907bffffffffffffffffffffffffffffffffffffffffffffffffffffffff19166020820180517bffffffffffffffffffffffffffffffffffffffffffffffffffffffff83818316178352505050506200150f565b505050565b600062001573826040518060400160405280602081526020017f5361666545524332303a206c6f772d6c6576656c2063616c6c206661696c65648152508573ffffffffffffffffffffffffffffffffffffffff16620015de9092919063ffffffff16565b9050600081511115620015d9578080602001905181019062001596919062001994565b620015d8576040517f08c379a0000000000000000000000000000000000000000000000000000000008152600401620015cf9062002025565b60405180910390fd5b5b505050565b6060620015ef8484600085620015f8565b90509392505050565b60608247101562001640576040517f08c379a0000000000000000000000000000000000000000000000000000000008152600401620016379062001f59565b60405180910390fd5b6200164b856200171a565b6200168d576040517f08c379a0000000000000000000000000000000000000000000000000000000008152600401620016849062001fe1565b60405180910390fd5b6000808673ffffffffffffffffffffffffffffffffffffffff168587604051620016b8919062001d89565b60006040518083038185875af1925050503d8060008114620016f7576040519150601f19603f3d011682016040523d82523d6000602084013e620016fc565b606091505b50915091506200170e8282866200172d565b92505050949350505050565b600080823b905060008111915050919050565b606083156200173f5782905062001792565b600083511115620017535782518084602001fd5b816040517f08c379a000000000000000000000000000000000000000000000000000000000815260040162001789919062001ead565b60405180910390fd5b9392505050565b610e9e806200288983390190565b6000620017be620017b88462002161565b62002138565b905082815260208101848484011115620017dd57620017dc620024dc565b5b620017ea8482856200233b565b509392505050565b600081359050620018038162002806565b92915050565b6000815190506200181a8162002820565b92915050565b60008135905062001831816200283a565b92915050565b600082601f8301126200184f576200184e620024d7565b5b813562001861848260208601620017a7565b91505092915050565b6000813590506200187b8162002854565b92915050565b600081519050620018928162002854565b92915050565b600081359050620018a9816200286e565b92915050565b600060208284031215620018c857620018c7620024e6565b5b6000620018d884828501620017f2565b91505092915050565b600080600080600080600060e0888a031215620019035762001902620024e6565b5b6000620019138a828b01620017f2565b9750506020620019268a828b01620017f2565b9650506040620019398a828b016200186a565b95505060606200194c8a828b0162001898565b94505060806200195f8a828b016200186a565b93505060a0620019728a828b01620017f2565b92505060c0620019858a828b01620017f2565b91505092959891949750929550565b600060208284031215620019ad57620019ac620024e6565b5b6000620019bd8482850162001809565b91505092915050565b60008060008060808587031215620019e357620019e2620024e6565b5b6000620019f38782880162001820565b945050602062001a068782880162001820565b935050604062001a19878288016200186a565b925050606062001a2c87828801620017f2565b91505092959194509250565b60006020828403121562001a515762001a50620024e6565b5b600082013567ffffffffffffffff81111562001a725762001a71620024e1565b5b62001a808482850162001837565b91505092915050565b60006020828403121562001aa25762001aa1620024e6565b5b600062001ab2848285016200186a565b91505092915050565b60006020828403121562001ad45762001ad3620024e6565b5b600062001ae48482850162001881565b91505092915050565b62001af88162002261565b82525050565b62001b098162002275565b82525050565b600062001b1c8262002197565b62001b288185620021ad565b935062001b3a8185602086016200234a565b80840191505092915050565b62001b5181620022eb565b82525050565b62001b6281620022ff565b82525050565b62001b7381620022aa565b82525050565b600062001b8682620021a2565b62001b928185620021b8565b935062001ba48185602086016200234a565b62001baf81620024eb565b840191505092915050565b600062001bc9602283620021b8565b915062001bd682620024fc565b604082019050919050565b600062001bf0601b83620021b8565b915062001bfd826200254b565b602082019050919050565b600062001c17602583620021b8565b915062001c248262002574565b604082019050919050565b600062001c3e601a83620021b8565b915062001c4b82620025c3565b602082019050919050565b600062001c65602683620021b8565b915062001c7282620025ec565b604082019050919050565b600062001c8c602883620021b8565b915062001c99826200263b565b604082019050919050565b600062001cb3602c83620021b8565b915062001cc0826200268a565b604082019050919050565b600062001cda602183620021b8565b915062001ce782620026d9565b604082019050919050565b600062001d01601d83620021b8565b915062001d0e8262002728565b602082019050919050565b600062001d28602f83620021b8565b915062001d358262002751565b604082019050919050565b600062001d4f602a83620021b8565b915062001d5c82620027a0565b604082019050919050565b62001d7281620022d4565b82525050565b62001d8381620022de565b82525050565b600062001d97828462001b0f565b915081905092915050565b600060208201905062001db9600083018462001aed565b92915050565b600060408201905062001dd6600083018562001aed565b62001de5602083018462001aed565b9392505050565b600060608201905062001e03600083018662001aed565b62001e12602083018562001aed565b62001e21604083018462001d67565b949350505050565b600060408201905062001e40600083018562001aed565b62001e4f602083018462001d67565b9392505050565b600060208201905062001e6d600083018462001afe565b92915050565b600060208201905062001e8a600083018462001b46565b92915050565b600060208201905062001ea7600083018462001b57565b92915050565b6000602082019050818103600083015262001ec9818462001b79565b905092915050565b6000602082019050818103600083015262001eec8162001bba565b9050919050565b6000602082019050818103600083015262001f0e8162001be1565b9050919050565b6000602082019050818103600083015262001f308162001c08565b9050919050565b6000602082019050818103600083015262001f528162001c2f565b9050919050565b6000602082019050818103600083015262001f748162001c56565b9050919050565b6000602082019050818103600083015262001f968162001c7d565b9050919050565b6000602082019050818103600083015262001fb88162001ca4565b9050919050565b6000602082019050818103600083015262001fda8162001ccb565b9050919050565b6000602082019050818103600083015262001ffc8162001cf2565b9050919050565b600060208201905081810360008301526200201e8162001d19565b9050919050565b60006020820190508181036000830152620020408162001d40565b9050919050565b60006020820190506200205e600083018462001d67565b92915050565b60006040820190506200207b600083018562001d67565b6200208a602083018462001aed565b9392505050565b6000608082019050620020a8600083018762001d67565b620020b7602083018662001b68565b620020c6604083018562001aed565b620020d5606083018462001aed565b95945050505050565b6000606082019050620020f5600083018662001d67565b62002104602083018562001d78565b62002113604083018462001d67565b949350505050565b600060208201905062002132600083018462001d78565b92915050565b60006200214462002157565b9050620021528282620023b6565b919050565b6000604051905090565b600067ffffffffffffffff8211156200217f576200217e620024a8565b5b6200218a82620024eb565b9050602081019050919050565b600081519050919050565b600081519050919050565b600081905092915050565b600082825260208201905092915050565b6000620021d682620022d4565b9150620021e383620022d4565b9250827fffffffffffffffffffffffffffffffffffffffffffffffffffffffffffffffff038211156200221b576200221a620023ec565b5b828201905092915050565b60006200223382620022d4565b91506200224083620022d4565b925082821015620022565762002255620023ec565b5b828203905092915050565b60006200226e82620022b4565b9050919050565b60008115159050919050565b60006200228e8262002261565b9050919050565b6000819050620022a582620027ef565b919050565b6000819050919050565b600073ffffffffffffffffffffffffffffffffffffffff82169050919050565b6000819050919050565b600060ff82169050919050565b6000620022f88262002313565b9050919050565b60006200230c8262002295565b9050919050565b6000620023208262002327565b9050919050565b60006200233482620022b4565b9050919050565b82818337600083830152505050565b60005b838110156200236a5780820151818401526020810190506200234d565b838111156200237a576000848401525b50505050565b600060028204905060018216806200239957607f821691505b60208210811415620023b057620023af6200244a565b5b50919050565b620023c182620024eb565b810181811067ffffffffffffffff82111715620023e357620023e2620024a8565b5b80604052505050565b7f4e487b7100000000000000000000000000000000000000000000000000000000600052601160045260246000fd5b7f4e487b7100000000000000000000000000000000000000000000000000000000600052602160045260246000fd5b7f4e487b7100000000000000000000000000000000000000000000000000000000600052602260045260246000fd5b7f4e487b7100000000000000000000000000000000000000000000000000000000600052603260045260246000fd5b7f4e487b7100000000000000000000000000000000000000000000000000000000600052604160045260246000fd5b600080fd5b600080fd5b600080fd5b600080fd5b6000601f19601f8301169050919050565b7f4c6f6e6720616e642073686f72742063616e27742062652073616d652070617260008201527f7479000000000000000000000000000000000000000000000000000000000000602082015250565b7f53686f72742063616e2774206265207a65726f20616464726573730000000000600082015250565b7f436f6e74726163742068617320746f20626520696e20496e697469617465642060008201527f7374617465000000000000000000000000000000000000000000000000000000602082015250565b7f4c6f6e672063616e2774206265207a65726f2061646472657373000000000000600082015250565b7f416464726573733a20696e73756666696369656e742062616c616e636520666f60008201527f722063616c6c0000000000000000000000000000000000000000000000000000602082015250565b7f46464120636f6e74726163742068617320746f2065787069726520696e20746860008201527f6520667574757265000000000000000000000000000000000000000000000000602082015250565b7f44656661756c74696e672063616e206f6e6c792068617070656e206265666f7260008201527f652065787069726174696f6e0000000000000000000000000000000000000000602082015250565b7f636f6c6c61746572616c2062616c616e6365206e6f742073756666696369656e60008201527f7400000000000000000000000000000000000000000000000000000000000000602082015250565b7f416464726573733a2063616c6c20746f206e6f6e2d636f6e7472616374000000600082015250565b7f536574746c656d656e742063616e6e6f74206f6363757265206265666f72652060008201527f65787069726174696f6e20646174650000000000000000000000000000000000602082015250565b7f5361666545524332303a204552433230206f7065726174696f6e20646964206e60008201527f6f74207375636365656400000000000000000000000000000000000000000000602082015250565b600481106200280357620028026200241b565b5b50565b620028118162002261565b81146200281d57600080fd5b50565b6200282b8162002275565b81146200283757600080fd5b50565b620028458162002281565b81146200285157600080fd5b50565b6200285f81620022d4565b81146200286b57600080fd5b50565b6200287981620022de565b81146200288557600080fd5b5056fe60806040523480156200001157600080fd5b5060405162000e9e38038062000e9e83398181016040528101906200003791906200028c565b60008060006101000a81548160ff02191690831515021790555062000071620000656200009160201b60201c565b6200009960201b60201c565b8060019080519060200190620000899291906200015e565b505062000461565b600033905090565b60008060019054906101000a900473ffffffffffffffffffffffffffffffffffffffff16905081600060016101000a81548173ffffffffffffffffffffffffffffffffffffffff021916908373ffffffffffffffffffffffffffffffffffffffff1602179055508173ffffffffffffffffffffffffffffffffffffffff168173ffffffffffffffffffffffffffffffffffffffff167f8be0079c531659141344cd1fd0a4f28419497f9722a3daafe3b4186f6b6457e060405160405180910390a35050565b8280546200016c9062000372565b90600052602060002090601f016020900481019282620001905760008555620001dc565b82601f10620001ab57805160ff1916838001178555620001dc565b82800160010185558215620001dc579182015b82811115620001db578251825591602001919060010190620001be565b5b509050620001eb9190620001ef565b5090565b5b808211156200020a576000816000905550600101620001f0565b5090565b6000620002256200021f8462000306565b620002dd565b90508281526020810184848401111562000244576200024362000441565b5b620002518482856200033c565b509392505050565b600082601f8301126200027157620002706200043c565b5b8151620002838482602086016200020e565b91505092915050565b600060208284031215620002a557620002a46200044b565b5b600082015167ffffffffffffffff811115620002c657620002c562000446565b5b620002d48482850162000259565b91505092915050565b6000620002e9620002fc565b9050620002f78282620003a8565b919050565b6000604051905090565b600067ffffffffffffffff8211156200032457620003236200040d565b5b6200032f8262000450565b9050602081019050919050565b60005b838110156200035c5780820151818401526020810190506200033f565b838111156200036c576000848401525b50505050565b600060028204905060018216806200038b57607f821691505b60208210811415620003a257620003a1620003de565b5b50919050565b620003b38262000450565b810181811067ffffffffffffffff82111715620003d557620003d46200040d565b5b80604052505050565b7f4e487b7100000000000000000000000000000000000000000000000000000000600052602260045260246000fd5b7f4e487b7100000000000000000000000000000000000000000000000000000000600052604160045260246000fd5b600080fd5b600080fd5b600080fd5b600080fd5b6000601f19601f8301169050919050565b610a2d80620004716000396000f3fe608060405234801561001057600080fd5b506004361061007d5760003560e01c8063715018a61161005b578063715018a6146100ee5780638da5cb5b146100f8578063dfeff66114610116578063f2fde38b146101325761007d565b806317d7de7c146100825780632a1e15e7146100a05780635c975abb146100d0575b600080fd5b61008a61014e565b60405161009791906107c6565b60405180910390f35b6100ba60048036038101906100b59190610651565b6101e0565b6040516100c79190610828565b60405180910390f35b6100d8610267565b6040516100e591906107ab565b60405180910390f35b6100f661027d565b005b610100610305565b60405161010d9190610790565b60405180910390f35b610130600480360381019061012b9190610691565b61032e565b005b61014c60048036038101906101479190610624565b610435565b005b60606001805461015d906108da565b80601f0160208091040260200160405190810160405280929190818152602001828054610189906108da565b80156101d65780601f106101ab576101008083540402835291602001916101d6565b820191906000526020600020905b8154815290600101906020018083116101b957829003601f168201915b5050505050905090565b6000600260008473ffffffffffffffffffffffffffffffffffffffff1673ffffffffffffffffffffffffffffffffffffffff16815260200190815260200160002060008373ffffffffffffffffffffffffffffffffffffffff1673ffffffffffffffffffffffffffffffffffffffff16815260200190815260200160002054905092915050565b60008060009054906101000a900460ff16905090565b61028561052d565b73ffffffffffffffffffffffffffffffffffffffff166102a3610305565b73ffffffffffffffffffffffffffffffffffffffff16146102f9576040517f08c379a00000000000000000000000000000000000000000000000000000000081526004016102f090610808565b60405180910390fd5b6103036000610535565b565b60008060019054906101000a900473ffffffffffffffffffffffffffffffffffffffff16905090565b80600260008573ffffffffffffffffffffffffffffffffffffffff1673ffffffffffffffffffffffffffffffffffffffff16815260200190815260200160002060008473ffffffffffffffffffffffffffffffffffffffff1673ffffffffffffffffffffffffffffffffffffffff1681526020019081526020016000208190555080600360008473ffffffffffffffffffffffffffffffffffffffff1673ffffffffffffffffffffffffffffffffffffffff16815260200190815260200160002060008573ffffffffffffffffffffffffffffffffffffffff1673ffffffffffffffffffffffffffffffffffffffff16815260200190815260200160002081905550505050565b61043d61052d565b73ffffffffffffffffffffffffffffffffffffffff1661045b610305565b73ffffffffffffffffffffffffffffffffffffffff16146104b1576040517f08c379a00000000000000000000000000000000000000000000000000000000081526004016104a890610808565b60405180910390fd5b600073ffffffffffffffffffffffffffffffffffffffff168173ffffffffffffffffffffffffffffffffffffffff161415610521576040517f08c379a0000000000000000000000000000000000000000000000000000000008152600401610518906107e8565b60405180910390fd5b61052a81610535565b50565b600033905090565b60008060019054906101000a900473ffffffffffffffffffffffffffffffffffffffff16905081600060016101000a81548173ffffffffffffffffffffffffffffffffffffffff021916908373ffffffffffffffffffffffffffffffffffffffff1602179055508173ffffffffffffffffffffffffffffffffffffffff168173ffffffffffffffffffffffffffffffffffffffff167f8be0079c531659141344cd1fd0a4f28419497f9722a3daafe3b4186f6b6457e060405160405180910390a35050565b600081359050610609816109c9565b92915050565b60008135905061061e816109e0565b92915050565b60006020828403121561063a5761063961093b565b5b6000610648848285016105fa565b91505092915050565b600080604083850312156106685761066761093b565b5b6000610676858286016105fa565b9250506020610687858286016105fa565b9150509250929050565b6000806000606084860312156106aa576106a961093b565b5b60006106b8868287016105fa565b93505060206106c9868287016105fa565b92505060406106da8682870161060f565b9150509250925092565b6106ed8161085f565b82525050565b6106fc81610871565b82525050565b600061070d82610843565b610717818561084e565b93506107278185602086016108a7565b61073081610940565b840191505092915050565b600061074860268361084e565b915061075382610951565b604082019050919050565b600061076b60208361084e565b9150610776826109a0565b602082019050919050565b61078a8161089d565b82525050565b60006020820190506107a560008301846106e4565b92915050565b60006020820190506107c060008301846106f3565b92915050565b600060208201905081810360008301526107e08184610702565b905092915050565b600060208201905081810360008301526108018161073b565b9050919050565b600060208201905081810360008301526108218161075e565b9050919050565b600060208201905061083d6000830184610781565b92915050565b600081519050919050565b600082825260208201905092915050565b600061086a8261087d565b9050919050565b60008115159050919050565b600073ffffffffffffffffffffffffffffffffffffffff82169050919050565b6000819050919050565b60005b838110156108c55780820151818401526020810190506108aa565b838111156108d4576000848401525b50505050565b600060028204905060018216806108f257607f821691505b602082108114156109065761090561090c565b5b50919050565b7f4e487b7100000000000000000000000000000000000000000000000000000000600052602260045260246000fd5b600080fd5b6000601f19601f8301169050919050565b7f4f776e61626c653a206e6577206f776e657220697320746865207a65726f206160008201527f6464726573730000000000000000000000000000000000000000000000000000602082015250565b7f4f776e61626c653a2063616c6c6572206973206e6f7420746865206f776e6572600082015250565b6109d28161085f565b81146109dd57600080fd5b50565b6109e98161089d565b81146109f457600080fd5b5056fea26469706673582212208b3005268f0c09ca0511a2b107ab7dcae6fdaa03c454c4cf17c2cef408686ad364736f6c63430008070033a26469706673582212200ca24cb92041d5f0db7e5bb97f2db132502a27fa3b967a8bf946595465e8fcde64736f6c63430008070033",
  "immutableReferences": {},
  "source": "// SPDX-License-Identifier: UNLICENSED\r\n\r\npragma solidity ^0.8.6;\r\n\r\nimport \"../utils/BokkyPooBahsDateTimeLibrary.sol\";\r\nimport \"@openzeppelin/contracts/access/Ownable.sol\";\r\nimport \"@openzeppelin/contracts/token/ERC20/IERC20.sol\";\r\nimport \"@openzeppelin/contracts/token/ERC20/utils/SafeERC20.sol\";\r\nimport \"@openzeppelin/contracts/utils/math/SafeMath.sol\";\r\n\r\nimport \"../interfaces/IFFAContract.sol\";\r\nimport \"./ChainlinkOracle.sol\";\r\nimport \"./CollateralWallet.sol\";\r\n\r\ncontract FFAContract is IFFAContract{\r\n        using SafeERC20 for IERC20;\r\n\r\n        //state of contract\r\n        enum ContractState {Created, Initiated, Settled, Defaulted}\r\n\r\n        //contract detail\r\n        string private name;\r\n        string private symbol;\r\n        uint8 private decimals;\r\n        ContractState public contractState;\r\n        uint256 private sizeOfContract;\r\n        address private long;\r\n        address private short;\r\n        uint256 private forwardPrice;\r\n        uint8 private riskFreeRate;\r\n        uint256 private expirationDate;\r\n\r\n        //collateral wallets\r\n        address private longWallet;\r\n        address private shortWallet;\r\n\r\n\r\n        //margin requirements\r\n        uint256 private initialMargin;\r\n        uint256 private maintenanceMargin;\r\n\r\n        //valuation\r\n        int256 private value;\r\n        uint256 private valuationDate;\r\n\r\n        //underlying index price oracle\r\n        //address private oracleAddress;\r\n        //bytes32 private jobId;\r\n        ChainlinkOracle internal valuationOracle;\r\n\r\n        //add events to interface\r\n        /*\r\n        event CreatedContract(uint8 decimals, uint256 sizeOfContract);\r\n        event Initiated(address indexed long, address indexed short, uint256 forwardPrice, uint8 riskFreeRate, uint256 expirationDate);\r\n        event Valuated(uint8 riskFreeRate, int256 indexPrice, uint256 valuationDate, int256 forwardValue);\r\n        event MarkedToMarket(uint256 mtmDate, int256 dailyPayoff, address long, address short);\r\n        event Settled(address long, address short, uint256 expirationDate);\r\n        event Defaulted(uint256 defaultDate, address defaultingParty);*/\r\n\r\n        constructor(\r\n            string memory _name, \r\n            string memory _symbol, \r\n            //address _oracleAddress,\r\n            //bytes32 _jobId, \r\n            uint8 _decimals,\r\n            uint256 _sizeOfContract\r\n        ) {\r\n            name = _name;\r\n            symbol = _symbol;\r\n            //oracleAddress = _oracleAddress;\r\n            //jobId = _jobId;\r\n            decimals = _decimals;\r\n            sizeOfContract = _sizeOfContract;\r\n            //valuationOracle = new ChainlinkOracle(oracleAddress, jobId);//not sure\r\n            contractState = ContractState.Created;\r\n            emit CreatedContract(decimals, sizeOfContract);\r\n        }\r\n\r\n        //initiation\r\n        function initiateFFA(address _long, address _short, uint256 _forwardPrice, \r\n                             uint8 _riskFreeRate, uint256 _expirationDate,\r\n                             address _longWallet, address _shortWallet) \r\n                             external override returns (bool initiated_) {\r\n            require(_long != address(0), \"Long can't be zero address\");\r\n            require(_short != address(0), \"Short can't be zero address\");\r\n            require(_long != _short, \"Long and short can't be same party\");\r\n            require(BokkyPooBahsDateTimeLibrary.diffSeconds(block.timestamp, _expirationDate) > 0, \"FFA contract has to expire in the future\");\r\n            long = _long;\r\n            short = _short;\r\n            forwardPrice = _forwardPrice;\r\n            riskFreeRate = _riskFreeRate;\r\n            expirationDate = _expirationDate;\r\n            longWallet = _longWallet;\r\n            shortWallet = _shortWallet;\r\n            contractState = ContractState.Initiated;\r\n            //Do i need to deal with allowance?\r\n            emit Initiated(long, short, forwardPrice, riskFreeRate, expirationDate);\r\n            initiated_ = true;\r\n        }\r\n\r\n        //calculate value of contract\r\n        function calcFFAValue() external override returns (uint256 value_) {\r\n            valuationDate = block.timestamp;\r\n            //use valuation oracle here\r\n            \r\n            value_ = 0;\r\n        }\r\n\r\n        //mark to market\r\n        function markToMarket() external override returns (bool markedToMarket_) {\r\n            require(contractState == ContractState.Initiated, \"Contract has to be in Initiated state\");\r\n            //require(BokkyPooBahsDateTimeLibrary.diffSeconds(block.timestamp, expirationDate) > 0, \"M to m can only happen before expiration\");\r\n            //check allowance if neccessary here\r\n\r\n            //calculate net daily payoff\r\n            int256 dailyPayoff = 0;\r\n\r\n            //delivery within collateral wallets\r\n\r\n            //emit event\r\n            emit MarkedToMarket(block.timestamp, dailyPayoff, long, short);\r\n            markedToMarket_ = true;\r\n        }\r\n\r\n        //settle contract \r\n        function settleAtExpiration() public override returns (bool settled_) {\r\n            require(BokkyPooBahsDateTimeLibrary.diffSeconds(expirationDate, block.timestamp) >= 0, \"Settlement cannot occure before expiration date\" );\r\n            require(contractState == ContractState.Initiated, \"Contract has to be in Initiated state\");\r\n\r\n            //change contract state and emit event\r\n            contractState = ContractState.Settled;\r\n            emit Settled(long, short, expirationDate);\r\n            settled_ = true;\r\n        }\r\n\r\n        //default contract\r\n        function defaultContract(address _defaultingParty) public override returns (bool defaulted_) {\r\n            require(contractState == ContractState.Initiated, \"Contract has to be in Initiated state\");\r\n            require(BokkyPooBahsDateTimeLibrary.diffSeconds(block.timestamp, expirationDate) > 0, \"Defaulting can only happen before expiration\");\r\n\r\n            //change contract state and emit event\r\n            contractState = ContractState.Defaulted;\r\n            emit Defaulted(block.timestamp, _defaultingParty);\r\n            defaulted_ = true;\r\n        }\r\n\r\n        function transferCollateralFrom(CollateralWallet senderWallet, CollateralWallet recipientWallet, uint256 amount, address collateralTokenAddress) public returns (bool transfered_){\r\n            uint256 originalSenderMappedBalance = senderWallet.getMappedBalance(address(this), collateralTokenAddress);\r\n            require(originalSenderMappedBalance >= amount, \"collateral balance not sufficient\");\r\n\r\n            IERC20(collateralTokenAddress).safeTransfer(address(recipientWallet), amount);\r\n\r\n            //deduct from sender balance mapping\r\n            unchecked {\r\n                uint256 newSenderMappedBalance = originalSenderMappedBalance - amount;\r\n                senderWallet.setNewBalance(address(this), collateralTokenAddress, newSenderMappedBalance);\r\n            }\r\n\r\n            //add to recipient balance mapping\r\n            uint256 newRecipientMappedBalance = recipientWallet.getMappedBalance(address(this), collateralTokenAddress) + amount;\r\n            recipientWallet.setNewBalance(address(this), collateralTokenAddress, newRecipientMappedBalance);\r\n\r\n            transfered_ = true;\r\n        }\r\n\r\n        //these are for testing\r\n        /////////////////////////////////////\r\n        address[] private collateralWallets;\r\n\r\n        function createCollateralWallet(string memory _name) external returns(address walletAddress_) {\r\n            walletAddress_ = address(new CollateralWallet(_name));\r\n            collateralWallets.push(walletAddress_);\r\n        }\r\n\r\n        function getCollateralWallets(uint256 index) external view returns(CollateralWallet) {\r\n            return CollateralWallet(collateralWallets[index]);\r\n        }\r\n        //////////////////////////////////////\r\n\r\n        //what about receive and fallback functions?\r\n\r\n        //getter functions\r\n        function getContractState() external view returns(string memory) {\r\n            if (contractState == ContractState.Created) {\r\n                return \"Created\";\r\n            } else if (contractState == ContractState.Initiated) {\r\n                return \"Initiated\";\r\n            } else if (contractState == ContractState.Settled) {\r\n                return \"Settled\";\r\n            } else if (contractState == ContractState.Defaulted) {\r\n                return \"Defaulted\";\r\n            } else {\r\n                return \"state error\";\r\n            }\r\n        }\r\n\r\n        function getName() external view returns(string memory) {\r\n            return name;\r\n        }\r\n\r\n        function getSymbol() external view returns(string memory) {\r\n            return symbol;\r\n        }\r\n        \r\n        function getSizeOfContract() external view returns(uint256) {\r\n            return sizeOfContract;\r\n        }\r\n\r\n        function getDecimals() external view returns (uint8) {\r\n            return decimals;\r\n        }\r\n\r\n        function getLong() external view returns (address) {\r\n            return long;\r\n        }\r\n\r\n        function getShort() external view returns (address) {\r\n            return short;\r\n        }\r\n\r\n        function getForwardPrice() external view returns (uint256) {\r\n            return forwardPrice;\r\n        }\r\n\r\n        function getRiskFreeRate() external view returns (uint8) {\r\n            return riskFreeRate;\r\n        }\r\n\r\n        function getExpirationDate() external view returns (uint256) {\r\n            return expirationDate;\r\n        }\r\n\r\n        function getLongWalletAddress() external view returns (address) {\r\n            return longWallet;\r\n        }\r\n\r\n        function getShortWalletAddress() external view returns (address) {\r\n            return shortWallet;\r\n        }\r\n\r\n\r\n\r\n\r\n}",
  "sourcePath": "C:\\Users\\Tomi\\OneDrive - The University of Chicago\\Documents\\Securrency\\FuturesExchange\\contracts\\FFAContract.sol",
  "compiler": {
    "name": "solc",
    "version": "0.8.7+commit.e28d00a7.Emscripten.clang"
  },
  "schemaVersion": "3.4.2",
  "updatedAt": "2021-08-12T14:06:06.264Z",
  "networkType": "ethereum",
  "devdoc": {
    "kind": "dev",
    "methods": {},
    "version": 1
  },
  "userdoc": {
    "kind": "user",
    "methods": {},
    "version": 1
  }
}