{
  "contractName": "FFAContractMock",
  "abi": [
    {
      "inputs": [],
      "stateMutability": "nonpayable",
      "type": "constructor"
    },
    {
      "anonymous": false,
      "inputs": [
        {
          "indexed": false,
          "internalType": "int256",
          "name": "decimals",
          "type": "int256"
        },
        {
          "indexed": false,
          "internalType": "uint256",
          "name": "sizeOfContract",
          "type": "uint256"
        }
      ],
      "name": "CreatedContract",
      "type": "event"
    },
    {
      "anonymous": false,
      "inputs": [
        {
          "indexed": false,
          "internalType": "uint256",
          "name": "defaultDate",
          "type": "uint256"
        },
        {
          "indexed": false,
          "internalType": "address",
          "name": "defaultingParty",
          "type": "address"
        }
      ],
      "name": "Defaulted",
      "type": "event"
    },
    {
      "anonymous": false,
      "inputs": [
        {
          "indexed": true,
          "internalType": "address",
          "name": "long",
          "type": "address"
        },
        {
          "indexed": true,
          "internalType": "address",
          "name": "short",
          "type": "address"
        },
        {
          "indexed": false,
          "internalType": "uint256",
          "name": "initialForwardPrice",
          "type": "uint256"
        },
        {
          "indexed": false,
          "internalType": "int256",
          "name": "riskFreeRate",
          "type": "int256"
        },
        {
          "indexed": false,
          "internalType": "uint256",
          "name": "expirationDate",
          "type": "uint256"
        },
        {
          "indexed": false,
          "internalType": "uint256",
          "name": "sizeOfContract",
          "type": "uint256"
        },
        {
          "indexed": false,
          "internalType": "uint256",
          "name": "initialMarginRate",
          "type": "uint256"
        }
      ],
      "name": "Initiated",
      "type": "event"
    },
    {
      "anonymous": false,
      "inputs": [
        {
          "indexed": false,
          "internalType": "uint256",
          "name": "mtmDate",
          "type": "uint256"
        },
        {
          "indexed": false,
          "internalType": "int256",
          "name": "contractValueChange",
          "type": "int256"
        },
        {
          "indexed": false,
          "internalType": "address",
          "name": "long",
          "type": "address"
        },
        {
          "indexed": false,
          "internalType": "address",
          "name": "short",
          "type": "address"
        }
      ],
      "name": "MarkedToMarket",
      "type": "event"
    },
    {
      "anonymous": false,
      "inputs": [
        {
          "indexed": false,
          "internalType": "address",
          "name": "long",
          "type": "address"
        },
        {
          "indexed": false,
          "internalType": "address",
          "name": "short",
          "type": "address"
        },
        {
          "indexed": false,
          "internalType": "uint256",
          "name": "expirationDate",
          "type": "uint256"
        },
        {
          "indexed": false,
          "internalType": "int256",
          "name": "profitAndLoss",
          "type": "int256"
        }
      ],
      "name": "Settled",
      "type": "event"
    },
    {
      "inputs": [],
      "name": "annualRiskFreeRate",
      "outputs": [
        {
          "internalType": "int256",
          "name": "",
          "type": "int256"
        }
      ],
      "stateMutability": "view",
      "type": "function"
    },
    {
      "inputs": [
        {
          "internalType": "address",
          "name": "_defaultingParty",
          "type": "address"
        }
      ],
      "name": "defaultContract",
      "outputs": [
        {
          "internalType": "bool",
          "name": "defaulted_",
          "type": "bool"
        }
      ],
      "stateMutability": "nonpayable",
      "type": "function"
    },
    {
      "inputs": [],
      "name": "exposureMarginRate",
      "outputs": [
        {
          "internalType": "uint256",
          "name": "",
          "type": "uint256"
        }
      ],
      "stateMutability": "view",
      "type": "function"
    },
    {
      "inputs": [],
      "name": "getContractState",
      "outputs": [
        {
          "internalType": "string",
          "name": "",
          "type": "string"
        }
      ],
      "stateMutability": "view",
      "type": "function"
    },
    {
      "inputs": [],
      "name": "getExpirationDate",
      "outputs": [
        {
          "internalType": "uint256",
          "name": "",
          "type": "uint256"
        }
      ],
      "stateMutability": "view",
      "type": "function"
    },
    {
      "inputs": [],
      "name": "getForwardPrice",
      "outputs": [
        {
          "internalType": "uint256",
          "name": "",
          "type": "uint256"
        }
      ],
      "stateMutability": "view",
      "type": "function"
    },
    {
      "inputs": [],
      "name": "getInitialForwardPrice",
      "outputs": [
        {
          "internalType": "uint256",
          "name": "",
          "type": "uint256"
        }
      ],
      "stateMutability": "view",
      "type": "function"
    },
    {
      "inputs": [],
      "name": "getLong",
      "outputs": [
        {
          "internalType": "address",
          "name": "",
          "type": "address"
        }
      ],
      "stateMutability": "view",
      "type": "function"
    },
    {
      "inputs": [],
      "name": "getLongWalletAddress",
      "outputs": [
        {
          "internalType": "address",
          "name": "",
          "type": "address"
        }
      ],
      "stateMutability": "view",
      "type": "function"
    },
    {
      "inputs": [],
      "name": "getName",
      "outputs": [
        {
          "internalType": "string",
          "name": "",
          "type": "string"
        }
      ],
      "stateMutability": "view",
      "type": "function"
    },
    {
      "inputs": [],
      "name": "getShort",
      "outputs": [
        {
          "internalType": "address",
          "name": "",
          "type": "address"
        }
      ],
      "stateMutability": "view",
      "type": "function"
    },
    {
      "inputs": [],
      "name": "getShortWalletAddress",
      "outputs": [
        {
          "internalType": "address",
          "name": "",
          "type": "address"
        }
      ],
      "stateMutability": "view",
      "type": "function"
    },
    {
      "inputs": [],
      "name": "getSizeOfContract",
      "outputs": [
        {
          "internalType": "uint256",
          "name": "",
          "type": "uint256"
        }
      ],
      "stateMutability": "view",
      "type": "function"
    },
    {
      "inputs": [],
      "name": "getSymbol",
      "outputs": [
        {
          "internalType": "string",
          "name": "",
          "type": "string"
        }
      ],
      "stateMutability": "view",
      "type": "function"
    },
    {
      "inputs": [],
      "name": "getUnderlyingApiPath",
      "outputs": [
        {
          "internalType": "string",
          "name": "",
          "type": "string"
        }
      ],
      "stateMutability": "view",
      "type": "function"
    },
    {
      "inputs": [],
      "name": "getUnderlyingApiURL",
      "outputs": [
        {
          "internalType": "string",
          "name": "",
          "type": "string"
        }
      ],
      "stateMutability": "view",
      "type": "function"
    },
    {
      "inputs": [],
      "name": "getUnderlyingDecimals",
      "outputs": [
        {
          "internalType": "int256",
          "name": "",
          "type": "int256"
        }
      ],
      "stateMutability": "view",
      "type": "function"
    },
    {
      "inputs": [],
      "name": "initialForwardPrice",
      "outputs": [
        {
          "internalType": "uint256",
          "name": "",
          "type": "uint256"
        }
      ],
      "stateMutability": "view",
      "type": "function"
    },
    {
      "inputs": [
        {
          "internalType": "address",
          "name": "_long",
          "type": "address"
        },
        {
          "internalType": "address",
          "name": "_short",
          "type": "address"
        },
        {
          "internalType": "uint256",
          "name": "_expirationDate",
          "type": "uint256"
        },
        {
          "internalType": "address",
          "name": "_longWallet",
          "type": "address"
        },
        {
          "internalType": "address",
          "name": "_shortWallet",
          "type": "address"
        },
        {
          "internalType": "uint256",
          "name": "_exposureMarginRate",
          "type": "uint256"
        },
        {
          "internalType": "uint256",
          "name": "_maintenanceMarginRate",
          "type": "uint256"
        },
        {
          "internalType": "address",
          "name": "_collateralTokenAddress",
          "type": "address"
        }
      ],
      "name": "initiateFFA",
      "outputs": [
        {
          "internalType": "bool",
          "name": "initiated_",
          "type": "bool"
        }
      ],
      "stateMutability": "nonpayable",
      "type": "function"
    },
    {
      "inputs": [],
      "name": "longTestWallet",
      "outputs": [
        {
          "internalType": "contract CollateralWallet",
          "name": "",
          "type": "address"
        }
      ],
      "stateMutability": "view",
      "type": "function"
    },
    {
      "inputs": [],
      "name": "maintenanceMarginRate",
      "outputs": [
        {
          "internalType": "uint256",
          "name": "",
          "type": "uint256"
        }
      ],
      "stateMutability": "view",
      "type": "function"
    },
    {
      "inputs": [
        {
          "internalType": "uint256",
          "name": "currentForwardPrice",
          "type": "uint256"
        }
      ],
      "name": "markToMarket",
      "outputs": [],
      "stateMutability": "nonpayable",
      "type": "function"
    },
    {
      "inputs": [],
      "name": "name",
      "outputs": [
        {
          "internalType": "string",
          "name": "",
          "type": "string"
        }
      ],
      "stateMutability": "view",
      "type": "function"
    },
    {
      "inputs": [],
      "name": "prevDayClosingPrice",
      "outputs": [
        {
          "internalType": "uint256",
          "name": "",
          "type": "uint256"
        }
      ],
      "stateMutability": "view",
      "type": "function"
    },
    {
      "inputs": [],
      "name": "requestForwardPrice",
      "outputs": [],
      "stateMutability": "nonpayable",
      "type": "function"
    },
    {
      "inputs": [],
      "name": "requestRiskFreeRate",
      "outputs": [],
      "stateMutability": "nonpayable",
      "type": "function"
    },
    {
      "inputs": [],
      "name": "requestUnderlyingPrice",
      "outputs": [],
      "stateMutability": "nonpayable",
      "type": "function"
    },
    {
      "inputs": [],
      "name": "setRiskFreeRate",
      "outputs": [],
      "stateMutability": "nonpayable",
      "type": "function"
    },
    {
      "inputs": [],
      "name": "setUnderlyingPrice",
      "outputs": [],
      "stateMutability": "nonpayable",
      "type": "function"
    },
    {
      "inputs": [],
      "name": "settleAtExpiration",
      "outputs": [],
      "stateMutability": "nonpayable",
      "type": "function"
    },
    {
      "inputs": [],
      "name": "shortTestWallet",
      "outputs": [
        {
          "internalType": "contract CollateralWallet",
          "name": "",
          "type": "address"
        }
      ],
      "stateMutability": "view",
      "type": "function"
    },
    {
      "inputs": [],
      "name": "symbol",
      "outputs": [
        {
          "internalType": "string",
          "name": "",
          "type": "string"
        }
      ],
      "stateMutability": "view",
      "type": "function"
    },
    {
      "inputs": [
        {
          "internalType": "address",
          "name": "senderWalletAddress",
          "type": "address"
        },
        {
          "internalType": "address",
          "name": "recipientWalletAddress",
          "type": "address"
        },
        {
          "internalType": "uint256",
          "name": "amount",
          "type": "uint256"
        },
        {
          "internalType": "address",
          "name": "_collateralTokenAddress",
          "type": "address"
        }
      ],
      "name": "transferCollateralFrom",
      "outputs": [
        {
          "internalType": "bool",
          "name": "transfered_",
          "type": "bool"
        }
      ],
      "stateMutability": "nonpayable",
      "type": "function"
    },
    {
      "inputs": [],
      "name": "underlyingDecimals",
      "outputs": [
        {
          "internalType": "int256",
          "name": "",
          "type": "int256"
        }
      ],
      "stateMutability": "view",
      "type": "function"
    },
    {
      "inputs": [
        {
          "internalType": "string",
          "name": "_name",
          "type": "string"
        }
      ],
      "name": "createLongCollateralWallet",
      "outputs": [
        {
          "internalType": "address",
          "name": "walletAddress_",
          "type": "address"
        }
      ],
      "stateMutability": "nonpayable",
      "type": "function"
    },
    {
      "inputs": [
        {
          "internalType": "string",
          "name": "_name",
          "type": "string"
        }
      ],
      "name": "createShortCollateralWallet",
      "outputs": [
        {
          "internalType": "address",
          "name": "walletAddress_",
          "type": "address"
        }
      ],
      "stateMutability": "nonpayable",
      "type": "function"
    },
    {
      "inputs": [],
      "name": "setStateToCreated",
      "outputs": [],
      "stateMutability": "nonpayable",
      "type": "function"
    },
    {
      "inputs": [],
      "name": "setStateToInitiated",
      "outputs": [],
      "stateMutability": "nonpayable",
      "type": "function"
    },
    {
      "inputs": [
        {
          "internalType": "uint256",
          "name": "newDate",
          "type": "uint256"
        }
      ],
      "name": "setExpirationDate",
      "outputs": [],
      "stateMutability": "nonpayable",
      "type": "function"
    },
    {
      "inputs": [
        {
          "internalType": "address",
          "name": "newLong",
          "type": "address"
        }
      ],
      "name": "setLong",
      "outputs": [],
      "stateMutability": "nonpayable",
      "type": "function"
    },
    {
      "inputs": [
        {
          "internalType": "string",
          "name": "a",
          "type": "string"
        },
        {
          "internalType": "string",
          "name": "b",
          "type": "string"
        }
      ],
      "name": "compareStrings",
      "outputs": [
        {
          "internalType": "bool",
          "name": "",
          "type": "bool"
        }
      ],
      "stateMutability": "pure",
      "type": "function"
    },
    {
      "inputs": [
        {
          "internalType": "uint256",
          "name": "newInitialForwardPrice",
          "type": "uint256"
        }
      ],
      "name": "setInitialForwardPrice",
      "outputs": [],
      "stateMutability": "nonpayable",
      "type": "function"
    },
    {
      "inputs": [
        {
          "internalType": "uint256",
          "name": "newPrevDayClosingPrice",
          "type": "uint256"
        }
      ],
      "name": "setPrevDayClosingPrice",
      "outputs": [],
      "stateMutability": "nonpayable",
      "type": "function"
    }
  ],
  "bytecode": "0x60806040523480156200001157600080fd5b5060405180604001604052806009815260200168135bd8dac815195cdd60ba1b81525060405180604001604052806004815260200163135514d560e21b81525060646040518060600160405280603d815260200162003336603d913960405180604001604052806005815260200164707269636560d81b81525060648560009080519060200190620000a592919062000106565b508451620000bb90600190602088019062000106565b5060038490558151620000d690601190602085019062000106565b508251620000ec90601090602086019062000106565b5060125550506002805460ff1916905550620001e9915050565b8280546200011490620001ac565b90600052602060002090601f01602090048101928262000138576000855562000183565b82601f106200015357805160ff191683800117855562000183565b8280016001018555821562000183579182015b828111156200018357825182559160200191906001019062000166565b506200019192915062000195565b5090565b5b8082111562000191576000815560010162000196565b600181811c90821680620001c157607f821691505b60208210811415620001e357634e487b7160e01b600052602260045260246000fd5b50919050565b61313d80620001f96000396000f3fe60806040523480156200001157600080fd5b5060043610620003255760003560e01c8063780279f111620001b157806395d89b4111620000f5578063bed34bba11620000a3578063d13c1b96116200007a578063d13c1b9614620005d8578063e279cbe114620005e2578063e5bee6de14620005ec57600080fd5b8063bed34bba1462000598578063c5bf38a114620005af578063c82ee7ab14620005c657600080fd5b8063addcb0e611620000d8578063addcb0e61462000565578063b07976de146200056f578063b317f5ec146200058657600080fd5b806395d89b4114620005515780639b655691146200055b57600080fd5b806389f00b6d116200015f5780638f896f5011620001365780638f896f50146200052857806392081a47146200053f578063923123b3146200054857600080fd5b806389f00b6d14620005015780638c349eca146200050b5780638d2d8c5e146200051f57600080fd5b80637f4e484911620001945780637f4e484914620004d657806380af00ca14620004e057806385cbefa914620004f757600080fd5b8063780279f114620004c25780637ed63ce914620004cc57600080fd5b80633448f65911620002795780635edf7d8b11620002275780636621f80d11620001fe5780636621f80d146200049c578063708febc814620004a657806370a4cd3414620004b857600080fd5b80635edf7d8b1462000456578063608bd7f4146200045f578063616ab42c146200049257600080fd5b806347d3fa6d116200025c57806347d3fa6d1462000424578063545bfeb814620004365780635ccee5fa146200044c57600080fd5b80633448f65914620003f2578063381cf2e8146200041a57600080fd5b80631bc7d9ab11620002d757806325a760c211620002ba57806325a760c214620003c55780632edef21614620003de578063343d208814620003e857600080fd5b80631bc7d9ab14620003a5578063225b6b9914620003af57600080fd5b80630dde015a116200030c5780630dde015a146200037957806315070401146200039157806317d7de7c146200039b57600080fd5b806306fdde03146200032a5780630a250623146200034c575b600080fd5b6200033462000603565b604051620003439190620023c1565b60405180910390f35b60165462000360906001600160a01b031681565b6040516001600160a01b03909116815260200162000343565b6200038f6200038a366004620022a6565b600f55565b005b6200033462000699565b6200033462000733565b6200038f62000744565b6200038f620003c0366004620022a6565b600655565b620003cf60125481565b60405190815260200162000343565b620003cf600f5481565b620003cf60065481565b6200040962000403366004620020bd565b6200080e565b604051901515815260200162000343565b620003cf60075481565b6004546001600160a01b031662000360565b6200038f62000447366004620022a6565b600855565b6200038f62000968565b600854620003cf565b6200038f62000470366004620020bd565b600480546001600160a01b0319166001600160a01b0392909216919091179055565b62000334620009a1565b620003cf620009b2565b600b546001600160a01b031662000360565b6200038f62000a51565b6200038f62000bf9565b6200038f62000c0f565b6200033462000cc0565b6200038f620004f1366004620022a6565b62000e65565b6200033462001072565b620003cf600e5481565b60175462000360906001600160a01b031681565b600654620003cf565b6200040962000539366004620020db565b62001083565b601254620003cf565b600354620003cf565b6200033462001633565b6200038f62001642565b620003cf600d5481565b6200036062000580366004620021fa565b620016d1565b6005546001600160a01b031662000360565b62000409620005a93660046200223b565b62001731565b62000409620005c03660046200212f565b6200178e565b600a546001600160a01b031662000360565b6200038f62001cd0565b6200038f62001ce5565b62000360620005fd366004620021fa565b62001d74565b60008054620006129062002529565b80601f0160208091040260200160405190810160405280929190818152602001828054620006409062002529565b8015620006915780601f10620006655761010080835404028352916020019162000691565b820191906000526020600020905b8154815290600101906020018083116200067357829003601f168201915b505050505081565b606060018054620006aa9062002529565b80601f0160208091040260200160405190810160405280929190818152602001828054620006d89062002529565b8015620007295780601f10620006fd5761010080835404028352916020019162000729565b820191906000526020600020905b8154815290600101906020018083116200070b57829003601f168201915b5050505050905090565b606060008054620006aa9062002529565b6013546009546001600160a01b03909116906369723be79062000797906200076c9062001dd4565b6200077960075462001f4d565b620007844262001dd4565b6200079160085462001dd4565b62001fab565b6040518263ffffffff1660e01b8152600401620007b59190620023c1565b602060405180830381600087803b158015620007d057600080fd5b505af1158015620007e5573d6000803e3d6000fd5b505050506040513d601f19601f820116820180604052508101906200080b9190620021e0565b50565b6000600160025460ff1660038111156200082c576200082c620025ba565b146200088d5760405162461bcd60e51b815260206004820152602560248201527f436f6e74726163742068617320746f20626520696e20496e6974696174656420604482015264737461746560d81b60648201526084015b60405180910390fd5b60006200089d4260085462001fdf565b11620009125760405162461bcd60e51b815260206004820152602c60248201527f44656661756c74696e672063616e206f6e6c792068617070656e206265666f7260448201527f652065787069726174696f6e0000000000000000000000000000000000000000606482015260840162000884565b6002805460ff19166003179055604080514281526001600160a01b03841660208201527f724b99e866949401e1553ae6e0da07c7e24b0308581155730cbe34363752bd3f910160405180910390a1506001919050565b6014546040516369723be760e01b815260206004820152600060248201526001600160a01b03909116906369723be790604401620007b5565b606060108054620006aa9062002529565b601354604080517f9df49c2300000000000000000000000000000000000000000000000000000000815290516000926001600160a01b031691639df49c23916004808301926020929190829003018186803b15801562000a1157600080fd5b505afa15801562000a26573d6000803e3d6000fd5b505050506040513d601f19601f8201168201806040525081019062000a4c9190620021e0565b905090565b600062000a616008544262001fdf565b101562000ad75760405162461bcd60e51b815260206004820152602f60248201527f536574746c656d656e742063616e6e6f74206f6363757265206265666f72652060448201527f65787069726174696f6e20646174650000000000000000000000000000000000606482015260840162000884565b600160025460ff16600381111562000af35762000af3620025ba565b1462000b505760405162461bcd60e51b815260206004820152602560248201527f436f6e74726163742068617320746f20626520696e20496e6974696174656420604482015264737461746560d81b606482015260840162000884565b600060035460065462000b6491906200245c565b90506000600354600f5462000b7a91906200245c565b9050600062000b8a83836200247e565b6002805460ff191681179055600454600554600854604080516001600160a01b03948516815293909216602084015290820152606081018290529091507f408d2f82a05767182d614a96957816d6acbd66a392006f7aafee6d91fc880f909060800160405180910390a1505050565b600280546001919060ff191682805b0217905550565b6015546008546001600160a01b039091169063afb0a7d79062000c3490429062001fdf565b6040518263ffffffff1660e01b815260040162000c5391815260200190565b600060405180830381600087803b15801562000c6e57600080fd5b505af115801562000c83573d6000803e3d6000fd5b50506015546040516369723be760e01b815260206004820152600060248201526001600160a01b0390911692506369723be79150604401620007b5565b6060600060025460ff16600381111562000cde5762000cde620025ba565b141562000d1d575060408051808201909152600781527f4372656174656400000000000000000000000000000000000000000000000000602082015290565b600160025460ff16600381111562000d395762000d39620025ba565b141562000d78575060408051808201909152600981527f496e697469617465640000000000000000000000000000000000000000000000602082015290565b6002805460ff16600381111562000d935762000d93620025ba565b141562000dd2575060408051808201909152600781527f536574746c656400000000000000000000000000000000000000000000000000602082015290565b600360025460ff16600381111562000dee5762000dee620025ba565b141562000e2d575060408051808201909152600981527f44656661756c7465640000000000000000000000000000000000000000000000602082015290565b5060408051808201909152600b81527f7374617465206572726f72000000000000000000000000000000000000000000602082015290565b600160025460ff16600381111562000e815762000e81620025ba565b1462000ede5760405162461bcd60e51b815260206004820152602560248201527f436f6e74726163742068617320746f20626520696e20496e6974696174656420604482015264737461746560d81b606482015260840162000884565b600062000eee4260085462001fdf565b1162000f635760405162461bcd60e51b815260206004820152602860248201527f4d20746f206d2063616e206f6e6c792068617070656e206265666f726520657860448201527f7069726174696f6e000000000000000000000000000000000000000000000000606482015260840162000884565b60006003548262000f7591906200245c565b90506000600354600f5462000f8b91906200245c565b9050600062000f9b82846200247e565b9050600081131562000fcf57600b54600a54600c5462000fcd926001600160a01b039081169281169185911662001083565b505b60008112156200101057600a54600b546200100e916001600160a01b03908116911662000ffc8462002584565b600c546001600160a01b031662001083565b505b600f84905560045460055460408051428152602081018590526001600160a01b0393841681830152929091166060830152517f63f10cc602ea66cf5c2a09a756a193c86ab46c33a794eb8d9aee6cf9426553a89181900360800190a150505050565b606060118054620006aa9062002529565b60006001600160a01b038516620011025760405162461bcd60e51b8152602060048201526024808201527f53656e6465722077616c6c657420616464726573732063616e6e6f742062652060448201527f7a65726f00000000000000000000000000000000000000000000000000000000606482015260840162000884565b6001600160a01b038416620011805760405162461bcd60e51b815260206004820152602760248201527f526563697069656e742077616c6c657420616464726573732063616e6e6f742060448201527f6265207a65726f00000000000000000000000000000000000000000000000000606482015260840162000884565b846001600160a01b0316846001600160a01b031614156200120a5760405162461bcd60e51b815260206004820152602f60248201527f53656e64657220616e6420726563697069656e742077616c6c6574732063616e60448201527f6e6f74206265207468652073616d650000000000000000000000000000000000606482015260840162000884565b60008311620012825760405162461bcd60e51b815260206004820152602e60248201527f416d6f756e74207472616e736665727265642068617320746f2062652067726560448201527f61746572207468616e207a65726f000000000000000000000000000000000000606482015260840162000884565b604051632a1e15e760e01b81523060048201526001600160a01b0383811660248301528691869160009190841690632a1e15e79060440160206040518083038186803b158015620012d257600080fd5b505afa158015620012e7573d6000803e3d6000fd5b505050506040513d601f19601f820116820180604052508101906200130d9190620021e0565b905085811015620013875760405162461bcd60e51b815260206004820152602160248201527f636f6c6c61746572616c2062616c616e6365206e6f742073756666696369656e60448201527f7400000000000000000000000000000000000000000000000000000000000000606482015260840162000884565b6040517f22604de20000000000000000000000000000000000000000000000000000000081526001600160a01b038681166004830152306024830152604482018890528416906322604de290606401600060405180830381600087803b158015620013f157600080fd5b505af115801562001406573d6000803e3d6000fd5b50506040517f23b872dd0000000000000000000000000000000000000000000000000000000081526001600160a01b038b811660048301528a81166024830152604482018a9052881692506323b872dd9150606401602060405180830381600087803b1580156200147657600080fd5b505af11580156200148b573d6000803e3d6000fd5b505050506040513d601f19601f82011682018060405250810190620014b19190620021bc565b5060405163dfeff66160e01b81523060048201526001600160a01b03868116602483015287830360448301819052919085169063dfeff66190606401600060405180830381600087803b1580156200150857600080fd5b505af11580156200151d573d6000803e3d6000fd5b5050604051632a1e15e760e01b81523060048201526001600160a01b038981166024830152600094508a935086169150632a1e15e79060440160206040518083038186803b1580156200156f57600080fd5b505afa15801562001584573d6000803e3d6000fd5b505050506040513d601f19601f82011682018060405250810190620015aa9190620021e0565b620015b69190620023f6565b60405163dfeff66160e01b81523060048201526001600160a01b038881166024830152604482018390529192509084169063dfeff66190606401600060405180830381600087803b1580156200160b57600080fd5b505af115801562001620573d6000803e3d6000fd5b5060019c9b505050505050505050505050565b60018054620006129062002529565b601560009054906101000a90046001600160a01b03166001600160a01b031663bd2563fb6040518163ffffffff1660e01b815260040160206040518083038186803b1580156200169157600080fd5b505afa158015620016a6573d6000803e3d6000fd5b505050506040513d601f19601f82011682018060405250810190620016cc9190620021e0565b600755565b600081604051620016e29062002002565b620016ee9190620023c1565b604051809103906000f0801580156200170b573d6000803e3d6000fd5b50601680546001600160a01b0319166001600160a01b0392909216918217905592915050565b600081604051602001620017469190620022c0565b60405160208183030381529060405280519060200120836040516020016200176f9190620022c0565b6040516020818303038152906040528051906020012014905092915050565b60006001600160a01b038916620017e85760405162461bcd60e51b815260206004820152601a60248201527f4c6f6e672063616e2774206265207a65726f2061646472657373000000000000604482015260640162000884565b6001600160a01b038816620018405760405162461bcd60e51b815260206004820152601b60248201527f53686f72742063616e2774206265207a65726f20616464726573730000000000604482015260640162000884565b876001600160a01b0316896001600160a01b03161415620018ca5760405162461bcd60e51b815260206004820152602260248201527f4c6f6e6720616e642073686f72742063616e27742062652073616d652070617260448201527f7479000000000000000000000000000000000000000000000000000000000000606482015260840162000884565b6001600160a01b038616620019475760405162461bcd60e51b8152602060048201526024808201527f4c6f6e672077616c6c65742063616e6e6f742068617665207a65726f2061646460448201527f7265737300000000000000000000000000000000000000000000000000000000606482015260840162000884565b6001600160a01b038516620019c55760405162461bcd60e51b815260206004820152602560248201527f53686f72742077616c6c65742063616e6e6f742068617665207a65726f20616460448201527f6472657373000000000000000000000000000000000000000000000000000000606482015260840162000884565b846001600160a01b0316866001600160a01b0316141562001a4f5760405162461bcd60e51b815260206004820152602960248201527f6c6f6e6720616e642073686f72742077616c6c6574732063616e6e6f7420626560448201527f207468652073616d650000000000000000000000000000000000000000000000606482015260840162000884565b8262001ac45760405162461bcd60e51b815260206004820152602660248201527f6d61696e74656e616e6365206d617267696e20726174652063616e6e6f74206260448201527f65207a65726f0000000000000000000000000000000000000000000000000000606482015260840162000884565b600062001ad2428962001fdf565b1162001b475760405162461bcd60e51b815260206004820152602860248201527f46464120636f6e74726163742068617320746f2065787069726520696e20746860448201527f6520667574757265000000000000000000000000000000000000000000000000606482015260840162000884565b600480546001600160a01b03808c166001600160a01b031992831617909255600580548b841692169190911790556015541663afb0a7d762001b8a428a62001fdf565b6040518263ffffffff1660e01b815260040162001ba991815260200190565b600060405180830381600087803b15801562001bc457600080fd5b505af115801562001bd9573d6000803e3d6000fd5b505060006006819055600f81905560088a9055600a80546001600160a01b038b81166001600160a01b031992831617909255600b80548b8416908316179055600d899055600e889055600c8054928816929091169190911790556002805460ff19166001179055915062001c5090508486620023f6565b600554600454600654600754600854600354604080519485526020850193909352918301526060820152608081018490529293506001600160a01b03918216929116907fdabcbd8689bd18e2ffb54dbab7b5f14a246f19bec1c9184bee7ac6eeae2f2f299060a00160405180910390a35060019998505050505050505050565b600280546000919060ff191660018362000c08565b601460009054906101000a90046001600160a01b03166001600160a01b0316639df49c236040518163ffffffff1660e01b815260040160206040518083038186803b15801562001d3457600080fd5b505afa15801562001d49573d6000803e3d6000fd5b505050506040513d601f19601f8201168201806040525081019062001d6f9190620021e0565b600955565b60008160405162001d859062002002565b62001d919190620023c1565b604051809103906000f08015801562001dae573d6000803e3d6000fd5b50601780546001600160a01b0319166001600160a01b0392909216918217905592915050565b60608162001e1557505060408051808201909152600181527f3000000000000000000000000000000000000000000000000000000000000000602082015290565b8160005b811562001e45578062001e2c8162002566565b915062001e3d9050600a8362002439565b915062001e19565b60008167ffffffffffffffff81111562001e635762001e63620025e6565b6040519080825280601f01601f19166020018201604052801562001e8e576020820181803683370190505b509050815b851562001f445762001ea7600182620024dc565b9050600062001eb8600a8862002439565b62001ec590600a6200245c565b62001ed19088620024dc565b62001ede90603062002411565b905060008160f81b90508084848151811062001efe5762001efe620025d0565b60200101907effffffffffffffffffffffffffffffffffffffffffffffffffffffffffffff1916908160001a90535062001f3a600a8962002439565b9750505062001e93565b50949350505050565b60606000821262001f695762001f638262001dd4565b92915050565b62001f7e62001f788362002584565b62001dd4565b60405160200162001f9091906200237a565b6040516020818303038152906040529050919050565b919050565b60608484848460405160200162001fc69493929190620022de565b6040516020818303038152906040529050949350505050565b60008183111562001fef57600080fd5b62001ffb8383620024dc565b9392505050565b610b0b80620025fd83390190565b80356001600160a01b038116811462001fa657600080fd5b600082601f8301126200203a57600080fd5b813567ffffffffffffffff80821115620020585762002058620025e6565b604051601f8301601f19908116603f01168101908282118183101715620020835762002083620025e6565b816040528381528660208588010111156200209d57600080fd5b836020870160208301376000602085830101528094505050505092915050565b600060208284031215620020d057600080fd5b62001ffb8262002010565b60008060008060808587031215620020f257600080fd5b620020fd8562002010565b93506200210d6020860162002010565b925060408501359150620021246060860162002010565b905092959194509250565b600080600080600080600080610100898b0312156200214d57600080fd5b620021588962002010565b97506200216860208a0162002010565b9650604089013595506200217f60608a0162002010565b94506200218f60808a0162002010565b935060a0890135925060c08901359150620021ad60e08a0162002010565b90509295985092959890939650565b600060208284031215620021cf57600080fd5b8151801515811462001ffb57600080fd5b600060208284031215620021f357600080fd5b5051919050565b6000602082840312156200220d57600080fd5b813567ffffffffffffffff8111156200222557600080fd5b620022338482850162002028565b949350505050565b600080604083850312156200224f57600080fd5b823567ffffffffffffffff808211156200226857600080fd5b620022768683870162002028565b935060208501359150808211156200228d57600080fd5b506200229c8582860162002028565b9150509250929050565b600060208284031215620022b957600080fd5b5035919050565b60008251620022d4818460208701620024f6565b9190910192915050565b60008551620022f2818460208a01620024f6565b80830190507f2f00000000000000000000000000000000000000000000000000000000000000808252865162002330816001850160208b01620024f6565b6001920191820181905285516200234f816002850160208a01620024f6565b600292019182015283516200236c816003840160208801620024f6565b016003019695505050505050565b7f2d00000000000000000000000000000000000000000000000000000000000000815260008251620023b4816001850160208701620024f6565b9190910160010192915050565b6020815260008251806020840152620023e2816040850160208701620024f6565b601f01601f19169190910160400192915050565b600082198211156200240c576200240c620025a4565b500190565b600060ff821660ff84168060ff03821115620024315762002431620025a4565b019392505050565b6000826200245757634e487b7160e01b600052601260045260246000fd5b500490565b6000816000190483118215151615620024795762002479620025a4565b500290565b600080831283600160ff1b018312811516156200249f576200249f620025a4565b837f7fffffffffffffffffffffffffffffffffffffffffffffffffffffffffffffff018313811615620024d657620024d6620025a4565b50500390565b600082821015620024f157620024f1620025a4565b500390565b60005b8381101562002513578181015183820152602001620024f9565b8381111562002523576000848401525b50505050565b600181811c908216806200253e57607f821691505b602082108114156200256057634e487b7160e01b600052602260045260246000fd5b50919050565b60006000198214156200257d576200257d620025a4565b5060010190565b6000600160ff1b8214156200259d576200259d620025a4565b5060000390565b634e487b7160e01b600052601160045260246000fd5b634e487b7160e01b600052602160045260246000fd5b634e487b7160e01b600052603260045260246000fd5b634e487b7160e01b600052604160045260246000fdfe60806040523480156200001157600080fd5b5060405162000b0b38038062000b0b833981016040819052620000349162000165565b6000805460ff19169055620000493362000066565b80516200005e906001906020840190620000bf565b505062000294565b600080546001600160a01b03838116610100818102610100600160a81b0319851617855560405193049190911692909183917f8be0079c531659141344cd1fd0a4f28419497f9722a3daafe3b4186f6b6457e091a35050565b828054620000cd9062000241565b90600052602060002090601f016020900481019282620000f157600085556200013c565b82601f106200010c57805160ff19168380011785556200013c565b828001600101855582156200013c579182015b828111156200013c5782518255916020019190600101906200011f565b506200014a9291506200014e565b5090565b5b808211156200014a57600081556001016200014f565b600060208083850312156200017957600080fd5b82516001600160401b03808211156200019157600080fd5b818501915085601f830112620001a657600080fd5b815181811115620001bb57620001bb6200027e565b604051601f8201601f19908116603f01168101908382118183101715620001e657620001e66200027e565b816040528281528886848701011115620001ff57600080fd5b600093505b8284101562000223578484018601518185018701529285019262000204565b82841115620002355760008684830101525b98975050505050505050565b600181811c908216806200025657607f821691505b602082108114156200027857634e487b7160e01b600052602260045260246000fd5b50919050565b634e487b7160e01b600052604160045260246000fd5b61086780620002a46000396000f3fe608060405234801561001057600080fd5b50600436106100885760003560e01c8063715018a61161005b578063715018a6146100f75780638da5cb5b146100ff578063dfeff66114610128578063f2fde38b1461013b57600080fd5b806317d7de7c1461008d57806322604de2146100ab5780632a1e15e7146100c05780635c975abb146100e1575b600080fd5b61009561014e565b6040516100a29190610788565b60405180910390f35b6100be6100b936600461072a565b6101e0565b005b6100d36100ce3660046106f7565b610332565b6040519081526020016100a2565b60005460ff1660405190151581526020016100a2565b6100be61040c565b60005461010090046001600160a01b03166040516001600160a01b0390911681526020016100a2565b6100be61013636600461072a565b610478565b6100be6101493660046106d5565b610561565b60606001805461015d906107dd565b80601f0160208091040260200160405190810160405280929190818152602001828054610189906107dd565b80156101d65780601f106101ab576101008083540402835291602001916101d6565b820191906000526020600020905b8154815290600101906020018083116101b957829003601f168201915b5050505050905090565b6001600160a01b03821661023b5760405162461bcd60e51b815260206004820152601e60248201527f7370656e64657220616464726573732063616e6e6f74206265207a65726f000060448201526064015b60405180910390fd5b6001600160a01b0383166102915760405162461bcd60e51b815260206004820152601c60248201527f746f6b656e20616464726573732063616e6e6f74206265207a65726f000000006044820152606401610232565b6040517f095ea7b30000000000000000000000000000000000000000000000000000000081526001600160a01b0383811660048301526024820183905284169063095ea7b390604401602060405180830381600087803b1580156102f457600080fd5b505af1158015610308573d6000803e3d6000fd5b505050506040513d601f19601f8201168201806040525081019061032c9190610766565b50505050565b60006001600160a01b03831661038a5760405162461bcd60e51b815260206004820152601f60248201527f636f6e747261637420616464726573732063616e6e6f74206265207a65726f006044820152606401610232565b6001600160a01b0382166103e05760405162461bcd60e51b815260206004820152601c60248201527f746f6b656e20616464726573732063616e6e6f74206265207a65726f000000006044820152606401610232565b506001600160a01b03918216600090815260026020908152604080832093909416825291909152205490565b6000546001600160a01b0361010090910416331461046c5760405162461bcd60e51b815260206004820181905260248201527f4f776e61626c653a2063616c6c6572206973206e6f7420746865206f776e65726044820152606401610232565b6104766000610649565b565b6001600160a01b0383166104ce5760405162461bcd60e51b815260206004820152601f60248201527f636f6e747261637420616464726573732063616e6e6f74206265207a65726f006044820152606401610232565b6001600160a01b0382166105245760405162461bcd60e51b815260206004820152601c60248201527f746f6b656e20616464726573732063616e6e6f74206265207a65726f000000006044820152606401610232565b6001600160a01b03928316600081815260026020908152604080832095909616825293845284812083905560038452848120918152925291902055565b6000546001600160a01b036101009091041633146105c15760405162461bcd60e51b815260206004820181905260248201527f4f776e61626c653a2063616c6c6572206973206e6f7420746865206f776e65726044820152606401610232565b6001600160a01b03811661063d5760405162461bcd60e51b815260206004820152602660248201527f4f776e61626c653a206e6577206f776e657220697320746865207a65726f206160448201527f64647265737300000000000000000000000000000000000000000000000000006064820152608401610232565b61064681610649565b50565b600080546001600160a01b038381166101008181027fffffffffffffffffffffff0000000000000000000000000000000000000000ff851617855560405193049190911692909183917f8be0079c531659141344cd1fd0a4f28419497f9722a3daafe3b4186f6b6457e091a35050565b80356001600160a01b03811681146106d057600080fd5b919050565b6000602082840312156106e757600080fd5b6106f0826106b9565b9392505050565b6000806040838503121561070a57600080fd5b610713836106b9565b9150610721602084016106b9565b90509250929050565b60008060006060848603121561073f57600080fd5b610748846106b9565b9250610756602085016106b9565b9150604084013590509250925092565b60006020828403121561077857600080fd5b815180151581146106f057600080fd5b600060208083528351808285015260005b818110156107b557858101830151858201604001528201610799565b818111156107c7576000604083870101525b50601f01601f1916929092016040019392505050565b600181811c908216806107f157607f821691505b6020821081141561082b577f4e487b7100000000000000000000000000000000000000000000000000000000600052602260045260246000fd5b5091905056fea26469706673582212203f0ae9a59ad7848bb1060e04d85385e8a824be6bfa08158244690d2bb1f6c53364736f6c63430008070033a2646970667358221220c645e6f4f29db92b0b722c2257273e5300aa195e9627fee9363c8ad87026d6a164736f6c63430008070033687474703a2f2f76616c756174696f6e2d6170692e6865726f6b756170702e636f6d2f70726963652f343530302f313030302f302f3135373738343736",
  "immutableReferences": {},
  "source": "// SPDX-License-Identifier: UNLICENSED\r\n\r\npragma solidity ^0.8.6;\r\n\r\nimport \"../FFAContract.sol\";\r\n\r\ncontract FFAContractMock is FFAContract {\r\n\r\n    constructor() FFAContract(\"Mock Test\", \r\n                              \"MTST\", 100, \r\n                              \"http://valuation-api.herokuapp.com/price/4500/1000/0/15778476\", \r\n                              \"price\", 100) {}\r\n\r\n    /* Create long and short wallets for FFAContract*/\r\n    CollateralWallet public longTestWallet;\r\n    CollateralWallet public shortTestWallet;\r\n    function createLongCollateralWallet(string memory _name) external returns(address walletAddress_) {\r\n            longTestWallet = new CollateralWallet(_name);\r\n            walletAddress_ = address(longTestWallet);\r\n    }\r\n    function createShortCollateralWallet(string memory _name) external returns(address walletAddress_) {\r\n            shortTestWallet = new CollateralWallet(_name);\r\n            walletAddress_ = address(shortTestWallet);\r\n    }\r\n\r\n    function setStateToCreated() external {\r\n           contractState = ContractState.Created;\r\n    }\r\n\r\n    function setStateToInitiated() external {\r\n        contractState = ContractState.Initiated;\r\n    }\r\n\r\n    function setExpirationDate(uint newDate) external{\r\n        expirationDate = newDate;\r\n    }\r\n\r\n    function setLong(address newLong) external{\r\n        long = newLong;\r\n    }\r\n\r\n    function compareStrings(string memory a, string memory b) public pure returns (bool) {\r\n        return (keccak256(abi.encodePacked((a))) == keccak256(abi.encodePacked((b))));\r\n    }  \r\n\r\n    function setInitialForwardPrice(uint newInitialForwardPrice) external {\r\n        initialForwardPrice = newInitialForwardPrice;\r\n    }\r\n\r\n    function setPrevDayClosingPrice(uint newPrevDayClosingPrice) external {\r\n        prevDayClosingPrice = newPrevDayClosingPrice;\r\n    }\r\n}",
  "sourcePath": "C:\\Users\\Tomi\\OneDrive - The University of Chicago\\Documents\\Securrency\\FuturesExchange\\contracts\\mocks\\FFAContractMock.sol",
  "compiler": {
    "name": "solc",
    "version": "0.8.7+commit.e28d00a7.Emscripten.clang"
  },
  "schemaVersion": "3.4.2",
  "updatedAt": "2021-09-14T17:02:23.172Z",
  "devdoc": {
    "kind": "dev",
    "methods": {},
    "version": 1
  },
  "userdoc": {
    "kind": "user",
    "methods": {},
    "version": 1
  }
}