{
  "contractName": "FFAContract",
  "abi": [
    {
      "inputs": [
        {
          "internalType": "string",
          "name": "_name",
          "type": "string"
        },
        {
          "internalType": "string",
          "name": "_symbol",
          "type": "string"
        },
        {
          "internalType": "uint256",
          "name": "_sizeOfContract",
          "type": "uint256"
        },
        {
          "internalType": "string",
          "name": "_underlyingApiURL",
          "type": "string"
        },
        {
          "internalType": "string",
          "name": "_underlyingApiPath",
          "type": "string"
        },
        {
          "internalType": "int256",
          "name": "_underlyingDecimals",
          "type": "int256"
        }
      ],
      "stateMutability": "nonpayable",
      "type": "constructor"
    },
    {
      "anonymous": false,
      "inputs": [
        {
          "indexed": false,
          "internalType": "int256",
          "name": "decimals",
          "type": "int256"
        },
        {
          "indexed": false,
          "internalType": "uint256",
          "name": "sizeOfContract",
          "type": "uint256"
        }
      ],
      "name": "CreatedContract",
      "type": "event"
    },
    {
      "anonymous": false,
      "inputs": [
        {
          "indexed": false,
          "internalType": "uint256",
          "name": "defaultDate",
          "type": "uint256"
        },
        {
          "indexed": false,
          "internalType": "address",
          "name": "defaultingParty",
          "type": "address"
        }
      ],
      "name": "Defaulted",
      "type": "event"
    },
    {
      "anonymous": false,
      "inputs": [
        {
          "indexed": true,
          "internalType": "address",
          "name": "long",
          "type": "address"
        },
        {
          "indexed": true,
          "internalType": "address",
          "name": "short",
          "type": "address"
        },
        {
          "indexed": false,
          "internalType": "uint256",
          "name": "initialForwardPrice",
          "type": "uint256"
        },
        {
          "indexed": false,
          "internalType": "uint256",
          "name": "riskFreeRate",
          "type": "uint256"
        },
        {
          "indexed": false,
          "internalType": "uint256",
          "name": "expirationDate",
          "type": "uint256"
        },
        {
          "indexed": false,
          "internalType": "uint256",
          "name": "sizeOfContract",
          "type": "uint256"
        },
        {
          "indexed": false,
          "internalType": "uint256",
          "name": "initialMarginRate",
          "type": "uint256"
        }
      ],
      "name": "Initiated",
      "type": "event"
    },
    {
      "anonymous": false,
      "inputs": [
        {
          "indexed": false,
          "internalType": "uint256",
          "name": "mtmDate",
          "type": "uint256"
        },
        {
          "indexed": false,
          "internalType": "int256",
          "name": "contractValueChange",
          "type": "int256"
        },
        {
          "indexed": false,
          "internalType": "address",
          "name": "long",
          "type": "address"
        },
        {
          "indexed": false,
          "internalType": "address",
          "name": "short",
          "type": "address"
        }
      ],
      "name": "MarkedToMarket",
      "type": "event"
    },
    {
      "anonymous": false,
      "inputs": [
        {
          "indexed": false,
          "internalType": "address",
          "name": "long",
          "type": "address"
        },
        {
          "indexed": false,
          "internalType": "address",
          "name": "short",
          "type": "address"
        },
        {
          "indexed": false,
          "internalType": "uint256",
          "name": "expirationDate",
          "type": "uint256"
        },
        {
          "indexed": false,
          "internalType": "int256",
          "name": "profitAndLoss",
          "type": "int256"
        }
      ],
      "name": "Settled",
      "type": "event"
    },
    {
      "inputs": [],
      "name": "annualRiskFreeRate",
      "outputs": [
        {
          "internalType": "uint256",
          "name": "",
          "type": "uint256"
        }
      ],
      "stateMutability": "view",
      "type": "function",
      "constant": true
    },
    {
      "inputs": [],
      "name": "contractState",
      "outputs": [
        {
          "internalType": "enum FFAContract.ContractState",
          "name": "",
          "type": "uint8"
        }
      ],
      "stateMutability": "view",
      "type": "function",
      "constant": true
    },
    {
      "inputs": [],
      "name": "longTestWallet",
      "outputs": [
        {
          "internalType": "contract CollateralWallet",
          "name": "",
          "type": "address"
        }
      ],
      "stateMutability": "view",
      "type": "function",
      "constant": true
    },
    {
      "inputs": [],
      "name": "shortTestWallet",
      "outputs": [
        {
          "internalType": "contract CollateralWallet",
          "name": "",
          "type": "address"
        }
      ],
      "stateMutability": "view",
      "type": "function",
      "constant": true
    },
    {
      "inputs": [],
      "name": "underlyingDecimals",
      "outputs": [
        {
          "internalType": "int256",
          "name": "",
          "type": "int256"
        }
      ],
      "stateMutability": "view",
      "type": "function",
      "constant": true
    },
    {
      "inputs": [
        {
          "internalType": "address",
          "name": "_long",
          "type": "address"
        },
        {
          "internalType": "address",
          "name": "_short",
          "type": "address"
        },
        {
          "internalType": "uint256",
          "name": "_initialForwardPrice",
          "type": "uint256"
        },
        {
          "internalType": "uint256",
          "name": "_expirationDate",
          "type": "uint256"
        },
        {
          "internalType": "address",
          "name": "_longWallet",
          "type": "address"
        },
        {
          "internalType": "address",
          "name": "_shortWallet",
          "type": "address"
        },
        {
          "internalType": "uint256",
          "name": "_exposureMarginRate",
          "type": "uint256"
        },
        {
          "internalType": "uint256",
          "name": "_maintenanceMarginRate",
          "type": "uint256"
        }
      ],
      "name": "initiateFFA",
      "outputs": [
        {
          "internalType": "bool",
          "name": "initiated_",
          "type": "bool"
        }
      ],
      "stateMutability": "nonpayable",
      "type": "function"
    },
    {
      "inputs": [],
      "name": "requestUnderlyingPrice",
      "outputs": [],
      "stateMutability": "nonpayable",
      "type": "function"
    },
    {
      "inputs": [],
      "name": "setUnderlyingPrice",
      "outputs": [],
      "stateMutability": "nonpayable",
      "type": "function"
    },
    {
      "inputs": [],
      "name": "requestForwardPrice",
      "outputs": [],
      "stateMutability": "nonpayable",
      "type": "function"
    },
    {
      "inputs": [],
      "name": "getForwardPrice",
      "outputs": [
        {
          "internalType": "uint256",
          "name": "",
          "type": "uint256"
        }
      ],
      "stateMutability": "view",
      "type": "function",
      "constant": true
    },
    {
      "inputs": [
        {
          "internalType": "uint256",
          "name": "currentForwardPrice",
          "type": "uint256"
        }
      ],
      "name": "markToMarket",
      "outputs": [
        {
          "internalType": "bool",
          "name": "markedToMarket_",
          "type": "bool"
        }
      ],
      "stateMutability": "nonpayable",
      "type": "function"
    },
    {
      "inputs": [],
      "name": "settleAtExpiration",
      "outputs": [
        {
          "internalType": "bool",
          "name": "settled_",
          "type": "bool"
        }
      ],
      "stateMutability": "nonpayable",
      "type": "function"
    },
    {
      "inputs": [
        {
          "internalType": "address",
          "name": "_defaultingParty",
          "type": "address"
        }
      ],
      "name": "defaultContract",
      "outputs": [
        {
          "internalType": "bool",
          "name": "defaulted_",
          "type": "bool"
        }
      ],
      "stateMutability": "nonpayable",
      "type": "function"
    },
    {
      "inputs": [
        {
          "internalType": "address",
          "name": "senderWalletAddress",
          "type": "address"
        },
        {
          "internalType": "address",
          "name": "recipientWalletAddress",
          "type": "address"
        },
        {
          "internalType": "uint256",
          "name": "amount",
          "type": "uint256"
        },
        {
          "internalType": "address",
          "name": "_collateralTokenAddress",
          "type": "address"
        }
      ],
      "name": "transferCollateralFrom",
      "outputs": [
        {
          "internalType": "bool",
          "name": "transfered_",
          "type": "bool"
        }
      ],
      "stateMutability": "nonpayable",
      "type": "function"
    },
    {
      "inputs": [
        {
          "internalType": "string",
          "name": "_name",
          "type": "string"
        }
      ],
      "name": "createLongCollateralWallet",
      "outputs": [
        {
          "internalType": "address",
          "name": "walletAddress_",
          "type": "address"
        }
      ],
      "stateMutability": "nonpayable",
      "type": "function"
    },
    {
      "inputs": [
        {
          "internalType": "string",
          "name": "_name",
          "type": "string"
        }
      ],
      "name": "createShortCollateralWallet",
      "outputs": [
        {
          "internalType": "address",
          "name": "walletAddress_",
          "type": "address"
        }
      ],
      "stateMutability": "nonpayable",
      "type": "function"
    },
    {
      "inputs": [],
      "name": "getContractState",
      "outputs": [
        {
          "internalType": "string",
          "name": "",
          "type": "string"
        }
      ],
      "stateMutability": "view",
      "type": "function",
      "constant": true
    },
    {
      "inputs": [],
      "name": "getName",
      "outputs": [
        {
          "internalType": "string",
          "name": "",
          "type": "string"
        }
      ],
      "stateMutability": "view",
      "type": "function",
      "constant": true
    },
    {
      "inputs": [],
      "name": "getSymbol",
      "outputs": [
        {
          "internalType": "string",
          "name": "",
          "type": "string"
        }
      ],
      "stateMutability": "view",
      "type": "function",
      "constant": true
    },
    {
      "inputs": [],
      "name": "getSizeOfContract",
      "outputs": [
        {
          "internalType": "uint256",
          "name": "",
          "type": "uint256"
        }
      ],
      "stateMutability": "view",
      "type": "function",
      "constant": true
    },
    {
      "inputs": [],
      "name": "getUnderlyingDecimals",
      "outputs": [
        {
          "internalType": "int256",
          "name": "",
          "type": "int256"
        }
      ],
      "stateMutability": "view",
      "type": "function",
      "constant": true
    },
    {
      "inputs": [],
      "name": "getLong",
      "outputs": [
        {
          "internalType": "address",
          "name": "",
          "type": "address"
        }
      ],
      "stateMutability": "view",
      "type": "function",
      "constant": true
    },
    {
      "inputs": [],
      "name": "getShort",
      "outputs": [
        {
          "internalType": "address",
          "name": "",
          "type": "address"
        }
      ],
      "stateMutability": "view",
      "type": "function",
      "constant": true
    },
    {
      "inputs": [],
      "name": "getInitialForwardPrice",
      "outputs": [
        {
          "internalType": "uint256",
          "name": "",
          "type": "uint256"
        }
      ],
      "stateMutability": "view",
      "type": "function",
      "constant": true
    },
    {
      "inputs": [],
      "name": "getExpirationDate",
      "outputs": [
        {
          "internalType": "uint256",
          "name": "",
          "type": "uint256"
        }
      ],
      "stateMutability": "view",
      "type": "function",
      "constant": true
    },
    {
      "inputs": [],
      "name": "getLongWalletAddress",
      "outputs": [
        {
          "internalType": "address",
          "name": "",
          "type": "address"
        }
      ],
      "stateMutability": "view",
      "type": "function",
      "constant": true
    },
    {
      "inputs": [],
      "name": "getShortWalletAddress",
      "outputs": [
        {
          "internalType": "address",
          "name": "",
          "type": "address"
        }
      ],
      "stateMutability": "view",
      "type": "function",
      "constant": true
    }
  ],
  "bytecode": "0x60806040523480156200001157600080fd5b5060405162005ddd38038062005ddd8339810160408190526200003491620002d9565b85516200004990600090602089019062000160565b5084516200005f90600190602088019062000160565b50600384905581516200007a90601190602085019062000160565b5082516200009090601090602086019062000160565b506012819055604051620000a490620001ef565b604051809103906000f080158015620000c1573d6000803e3d6000fd5b50601360006101000a8154816001600160a01b0302191690836001600160a01b0316021790555060125460106011604051620000fd90620001fd565b6200010b939291906200044c565b604051809103906000f08015801562000128573d6000803e3d6000fd5b50601480546001600160a01b0319166001600160a01b039290921691909117905550506002805460ff1916905550620004ce92505050565b8280546200016e906200047b565b90600052602060002090601f016020900481019282620001925760008555620001dd565b82601f10620001ad57805160ff1916838001178555620001dd565b82800160010185558215620001dd579182015b82811115620001dd578251825591602001919060010190620001c0565b50620001eb9291506200020b565b5090565b61199f8062002a2083390190565b611a1e80620043bf83390190565b5b80821115620001eb57600081556001016200020c565b600082601f8301126200023457600080fd5b81516001600160401b0380821115620002515762000251620004b8565b604051601f8301601f19908116603f011681019082821181831017156200027c576200027c620004b8565b816040528381526020925086838588010111156200029957600080fd5b600091505b83821015620002bd57858201830151818301840152908201906200029e565b83821115620002cf5760008385830101525b9695505050505050565b60008060008060008060c08789031215620002f357600080fd5b86516001600160401b03808211156200030b57600080fd5b620003198a838b0162000222565b975060208901519150808211156200033057600080fd5b6200033e8a838b0162000222565b96506040890151955060608901519150808211156200035c57600080fd5b6200036a8a838b0162000222565b945060808901519150808211156200038157600080fd5b506200039089828a0162000222565b92505060a087015190509295509295509295565b8054600090600181811c9080831680620003bf57607f831692505b6020808410821415620003e257634e487b7160e01b600052602260045260246000fd5b8388526020880182801562000400576001811462000412576200043f565b60ff198716825282820197506200043f565b60008981526020902060005b8781101562000439578154848201529086019084016200041e565b83019850505b5050505050505092915050565b838152606060208201526000620004676060830185620003a4565b8281036040840152620002cf8185620003a4565b600181811c908216806200049057607f821691505b60208210811415620004b257634e487b7160e01b600052602260045260246000fd5b50919050565b634e487b7160e01b600052604160045260246000fd5b61254280620004de6000396000f3fe60806040523480156200001157600080fd5b5060043610620001665760003560e01c80630a250623146200016b57806315070401146200019c57806317d7de7c14620001b55780631bc7d9ab14620001bf57806325a760c214620001cb5780633448f65914620001e4578063381cf2e8146200020c57806347d3fa6d14620002165780635ccee5fa14620002285780635edf7d8b14620002325780636621f80d146200023b578063708febc8146200024557806370a4cd3414620002575780637369e31b14620002615780637f4e4849146200027857806380af00ca146200028257806385209ee014620002995780638c349eca14620002b65780638d2d8c5e14620002ca5780638f896f5014620002d357806392081a4714620002ea578063923123b314620002f3578063b07976de14620002fc578063b317f5ec1462000313578063c82ee7ab1462000325578063e279cbe11462000337578063e5bee6de1462000341575b600080fd5b6015546200017f906001600160a01b031681565b6040516001600160a01b0390911681526020015b60405180910390f35b620001a662000358565b60405162000193919062001883565b620001a6620003f2565b620001c962000403565b005b620001d560125481565b60405190815260200162000193565b620001fb620001f536600462001594565b620004cd565b604051901515815260200162000193565b620001d560075481565b6004546001600160a01b03166200017f565b620001c9620005de565b600854620001d5565b620001d562000617565b600b546001600160a01b03166200017f565b620001fb6200069d565b620001fb6200027236600462001606565b62000800565b620001a662000c2b565b620001fb6200029336600462001782565b62000d6a565b600254620002a79060ff1681565b6040516200019391906200185a565b6016546200017f906001600160a01b031681565b600654620001d5565b620001fb620002e4366004620015b2565b62000f2f565b601254620001d5565b600354620001d5565b6200017f6200030d366004620016c8565b6200127f565b6005546001600160a01b03166200017f565b600a546001600160a01b03166200017f565b620001c9620012df565b6200017f62000352366004620016c8565b6200136e565b606060018054620003699062001a63565b80601f0160208091040260200160405190810160405280929190818152602001828054620003979062001a63565b8015620003e85780601f10620003bc57610100808354040283529160200191620003e8565b820191906000526020600020905b815481529060010190602001808311620003ca57829003601f168201915b5050505050905090565b606060008054620003699062001a63565b6013546009546001600160a01b03909116906369723be79062000456906200042b90620013ce565b62000438600754620013ce565b6200044342620013ce565b62000450600854620013ce565b62001512565b6040518263ffffffff1660e01b815260040162000474919062001883565b602060405180830381600087803b1580156200048f57600080fd5b505af1158015620004a4573d6000803e3d6000fd5b505050506040513d601f19601f82011682018060405250810190620004ca9190620016ae565b50565b6000600160025460ff166003811115620004eb57620004eb62001ad4565b14620005145760405162461bcd60e51b81526004016200050b90620018b8565b60405180910390fd5b6000620005244260085462001546565b11620005885760405162461bcd60e51b815260206004820152602c60248201527f44656661756c74696e672063616e206f6e6c792068617070656e206265666f7260448201526b329032bc3834b930ba34b7b760a11b60648201526084016200050b565b6002805460ff19166003179055604080514281526001600160a01b03841660208201527f724b99e866949401e1553ae6e0da07c7e24b0308581155730cbe34363752bd3f910160405180910390a1506001919050565b6014546040516369723be760e01b815260206004820152600060248201526001600160a01b03909116906369723be79060440162000474565b6013546040805163de29278960e01b815290516000926001600160a01b03169163de292789916004808301926020929190829003018186803b1580156200065d57600080fd5b505afa15801562000672573d6000803e3d6000fd5b505050506040513d601f19601f82011682018060405250810190620006989190620016ae565b905090565b600080620006ae6008544262001546565b1015620007165760405162461bcd60e51b815260206004820152602f60248201527f536574746c656d656e742063616e6e6f74206f6363757265206265666f72652060448201526e65787069726174696f6e206461746560881b60648201526084016200050b565b600160025460ff16600381111562000732576200073262001ad4565b14620007525760405162461bcd60e51b81526004016200050b90620018b8565b6000600354600654620007669190620019f4565b90506000600354600f546200077c9190620019f4565b905060006200078c838362001a16565b6002805460ff191681179055600454600554600854604080516001600160a01b03948516815293909216602084015290820152606081018290529091507f408d2f82a05767182d614a96957816d6acbd66a392006f7aafee6d91fc880f909060800160405180910390a16001935050505090565b60006001600160a01b038916620008575760405162461bcd60e51b815260206004820152601a6024820152794c6f6e672063616e2774206265207a65726f206164647265737360301b60448201526064016200050b565b6001600160a01b038816620008ad5760405162461bcd60e51b815260206004820152601b60248201527a53686f72742063616e2774206265207a65726f206164647265737360281b60448201526064016200050b565b876001600160a01b0316896001600160a01b031614156200091c5760405162461bcd60e51b815260206004820152602260248201527f4c6f6e6720616e642073686f72742063616e27742062652073616d6520706172604482015261747960f01b60648201526084016200050b565b6001600160a01b038516620009805760405162461bcd60e51b8152602060048201526024808201527f4c6f6e672077616c6c65742063616e6e6f742068617665207a65726f206164646044820152637265737360e01b60648201526084016200050b565b6001600160a01b038416620009e65760405162461bcd60e51b815260206004820152602560248201527f53686f72742077616c6c65742063616e6e6f742068617665207a65726f206164604482015264647265737360d81b60648201526084016200050b565b836001600160a01b0316856001600160a01b0316141562000a5c5760405162461bcd60e51b815260206004820152602960248201527f6c6f6e6720616e642073686f72742077616c6c6574732063616e6e6f74206265604482015268207468652073616d6560b81b60648201526084016200050b565b6000600e541162000abf5760405162461bcd60e51b815260206004820152602660248201527f6d61696e74656e616e6365206d617267696e20726174652063616e6e6f74206260448201526565207a65726f60d01b60648201526084016200050b565b600062000acd428862001546565b1162000b2d5760405162461bcd60e51b815260206004820152602860248201527f46464120636f6e74726163742068617320746f2065787069726520696e207468604482015267652066757475726560c01b60648201526084016200050b565b600480546001600160a01b03199081166001600160a01b038c8116919091179092556005805482168b84161790556006899055600f8990556008889055600a80548216888416179055600b8054909116918616919091179055600d839055600e8290556002805460ff19166001179055600062000bab8385620018fd565b600554600454600654600754600854600354604080519485526020850193909352918301526060820152608081018490529293506001600160a01b03918216929116907f8d00cc8de9616b2f3f0677fa7220777e8a33961f4026e1adfa53d94bd062251c9060a00160405180910390a35060019998505050505050505050565b6060600060025460ff16600381111562000c495762000c4962001ad4565b141562000c72575060408051808201909152600781526610dc99585d195960ca1b602082015290565b600160025460ff16600381111562000c8e5762000c8e62001ad4565b141562000cb95750604080518082019091526009815268125b9a5d1a585d195960ba1b602082015290565b6002805460ff16600381111562000cd45762000cd462001ad4565b141562000cfd575060408051808201909152600781526614d95d1d1b195960ca1b602082015290565b600360025460ff16600381111562000d195762000d1962001ad4565b141562000d445750604080518082019091526009815268111959985d5b1d195960ba1b602082015290565b5060408051808201909152600b81526a39ba30ba329032b93937b960a91b602082015290565b6000600160025460ff16600381111562000d885762000d8862001ad4565b1462000da85760405162461bcd60e51b81526004016200050b90620018b8565b600062000db84260085462001546565b1162000e185760405162461bcd60e51b815260206004820152602860248201527f4d20746f206d2063616e206f6e6c792068617070656e206265666f72652065786044820152673834b930ba34b7b760c11b60648201526084016200050b565b60006003548362000e2a9190620019f4565b90506000600354600f5462000e409190620019f4565b9050600062000e50828462001a16565b9050600081131562000e8457600b54600a54600c5462000e82926001600160a01b039081169281169185911662000f2f565b505b600081121562000ec857600a54600b5462000ec6916001600160a01b03908116911662000eb48460001962001963565b600c546001600160a01b031662000f2f565b505b600f85905560045460055460408051428152602081018590526001600160a01b0393841681830152929091166060830152517f63f10cc602ea66cf5c2a09a756a193c86ab46c33a794eb8d9aee6cf9426553a89181900360800190a1506001949350505050565b604051632a1e15e760e01b81526000908590859083906001600160a01b03841690632a1e15e79062000f6890309089906004016200181c565b60206040518083038186803b15801562000f8157600080fd5b505afa15801562000f96573d6000803e3d6000fd5b505050506040513d601f19601f8201168201806040525081019062000fbc9190620016ae565b9050858110156200101a5760405162461bcd60e51b815260206004820152602160248201527f636f6c6c61746572616c2062616c616e6365206e6f742073756666696369656e6044820152601d60fa1b60648201526084016200050b565b60405163113026f160e11b81526001600160a01b038416906322604de2906200104c90889030908b9060040162001836565b600060405180830381600087803b1580156200106757600080fd5b505af11580156200107c573d6000803e3d6000fd5b50506040516323b872dd60e01b81526001600160a01b03881692506323b872dd9150620010b2908b908b908b9060040162001836565b602060405180830381600087803b158015620010cd57600080fd5b505af1158015620010e2573d6000803e3d6000fd5b505050506040513d601f19601f820116820180604052508101906200110891906200168a565b5060405163dfeff66160e01b8152868203906001600160a01b0385169063dfeff661906200113f9030908a90869060040162001836565b600060405180830381600087803b1580156200115a57600080fd5b505af11580156200116f573d6000803e3d6000fd5b5050505050600086836001600160a01b0316632a1e15e730896040518363ffffffff1660e01b8152600401620011a79291906200181c565b60206040518083038186803b158015620011c057600080fd5b505afa158015620011d5573d6000803e3d6000fd5b505050506040513d601f19601f82011682018060405250810190620011fb9190620016ae565b620012079190620018fd565b60405163dfeff66160e01b81529091506001600160a01b0384169063dfeff661906200123c9030908a90869060040162001836565b600060405180830381600087803b1580156200125757600080fd5b505af11580156200126c573d6000803e3d6000fd5b5060019c9b505050505050505050505050565b600081604051620012909062001569565b6200129c919062001883565b604051809103906000f080158015620012b9573d6000803e3d6000fd5b50601580546001600160a01b0319166001600160a01b0392909216918217905592915050565b601460009054906101000a90046001600160a01b03166001600160a01b031663de2927896040518163ffffffff1660e01b815260040160206040518083038186803b1580156200132e57600080fd5b505afa15801562001343573d6000803e3d6000fd5b505050506040513d601f19601f82011682018060405250810190620013699190620016ae565b600955565b6000816040516200137f9062001569565b6200138b919062001883565b604051809103906000f080158015620013a8573d6000803e3d6000fd5b50601680546001600160a01b0319166001600160a01b0392909216918217905592915050565b606081620013f35750506040805180820190915260018152600360fc1b602082015290565b8160005b81156200142357806200140a8162001aa0565b91506200141b9050600a8362001940565b9150620013f7565b6000816001600160401b0381111562001440576200144062001b00565b6040519080825280601f01601f1916602001820160405280156200146b576020820181803683370190505b509050815b851562001509576200148460018262001a16565b9050600062001495600a8862001940565b620014a290600a620019f4565b620014ae908862001a16565b620014bb90603062001918565b905060008160f81b905080848481518110620014db57620014db62001aea565b60200101906001600160f81b031916908160001a905350620014ff600a8962001940565b9750505062001470565b50949350505050565b6060848484846040516020016200152d94939291906200179c565b6040516020818303038152906040529050949350505050565b6000818311156200155657600080fd5b62001562838362001a16565b9392505050565b6109f68062001b1783390190565b80356001600160a01b03811681146200158f57600080fd5b919050565b600060208284031215620015a757600080fd5b620015628262001577565b60008060008060808587031215620015c957600080fd5b620015d48562001577565b9350620015e46020860162001577565b925060408501359150620015fb6060860162001577565b905092959194509250565b600080600080600080600080610100898b0312156200162457600080fd5b6200162f8962001577565b97506200163f60208a0162001577565b965060408901359550606089013594506200165d60808a0162001577565b93506200166d60a08a0162001577565b925060c0890135915060e089013590509295985092959890939650565b6000602082840312156200169d57600080fd5b815180151581146200156257600080fd5b600060208284031215620016c157600080fd5b5051919050565b600060208284031215620016db57600080fd5b81356001600160401b0380821115620016f357600080fd5b818401915084601f8301126200170857600080fd5b8135818111156200171d576200171d62001b00565b604051601f8201601f19908116603f0116810190838211818310171562001748576200174862001b00565b816040528281528760208487010111156200176257600080fd5b826020860160208301376000928101602001929092525095945050505050565b6000602082840312156200179557600080fd5b5035919050565b60008551620017b0818460208a0162001a30565b8083019050602f60f81b8082528651620017d2816001850160208b0162001a30565b600192019182018190528551620017f1816002850160208a0162001a30565b600292019182015283516200180e81600384016020880162001a30565b016003019695505050505050565b6001600160a01b0392831681529116602082015260400190565b6001600160a01b039384168152919092166020820152604081019190915260600190565b60208101600483106200187d57634e487b7160e01b600052602160045260246000fd5b91905290565b6020815260008251806020840152620018a481604085016020870162001a30565b601f01601f19169190910160400192915050565b60208082526025908201527f436f6e74726163742068617320746f20626520696e20496e6974696174656420604082015264737461746560d81b606082015260800190565b6000821982111562001913576200191362001abe565b500190565b600060ff821660ff84168060ff0382111562001938576200193862001abe565b019392505050565b6000826200195e57634e487b7160e01b600052601260045260246000fd5b500490565b60006001600160ff1b03818413828413808216868404861116156200198c576200198c62001abe565b600160ff1b6000871282811687830589121615620019ae57620019ae62001abe565b60008712925087820587128484161615620019cd57620019cd62001abe565b87850587128184161615620019e657620019e662001abe565b505050929093029392505050565b600081600019048311821515161562001a115762001a1162001abe565b500290565b60008282101562001a2b5762001a2b62001abe565b500390565b60005b8381101562001a4d57818101518382015260200162001a33565b8381111562001a5d576000848401525b50505050565b600181811c9082168062001a7857607f821691505b6020821081141562001a9a57634e487b7160e01b600052602260045260246000fd5b50919050565b600060001982141562001ab75762001ab762001abe565b5060010190565b634e487b7160e01b600052601160045260246000fd5b634e487b7160e01b600052602160045260246000fd5b634e487b7160e01b600052603260045260246000fd5b634e487b7160e01b600052604160045260246000fdfe60806040523480156200001157600080fd5b50604051620009f6380380620009f6833981016040819052620000349162000165565b6000805460ff19169055620000493362000066565b80516200005e906001906020840190620000bf565b505062000294565b600080546001600160a01b03838116610100818102610100600160a81b0319851617855560405193049190911692909183917f8be0079c531659141344cd1fd0a4f28419497f9722a3daafe3b4186f6b6457e091a35050565b828054620000cd9062000241565b90600052602060002090601f016020900481019282620000f157600085556200013c565b82601f106200010c57805160ff19168380011785556200013c565b828001600101855582156200013c579182015b828111156200013c5782518255916020019190600101906200011f565b506200014a9291506200014e565b5090565b5b808211156200014a57600081556001016200014f565b600060208083850312156200017957600080fd5b82516001600160401b03808211156200019157600080fd5b818501915085601f830112620001a657600080fd5b815181811115620001bb57620001bb6200027e565b604051601f8201601f19908116603f01168101908382118183101715620001e657620001e66200027e565b816040528281528886848701011115620001ff57600080fd5b600093505b8284101562000223578484018601518185018701529285019262000204565b82841115620002355760008684830101525b98975050505050505050565b600181811c908216806200025657607f821691505b602082108114156200027857634e487b7160e01b600052602260045260246000fd5b50919050565b634e487b7160e01b600052604160045260246000fd5b61075280620002a46000396000f3fe608060405234801561001057600080fd5b50600436106100785760003560e01c806317d7de7c1461007d57806322604de21461009b5780632a1e15e7146100b05780635c975abb146100d1578063715018a6146100e75780638da5cb5b146100ef578063dfeff6611461010f578063f2fde38b14610122575b600080fd5b610085610135565b60405161009291906105ea565b60405180910390f35b6100ae6100a936600461058c565b6101c7565b005b6100c36100be366004610559565b6102d0565b604051908152602001610092565b60005460ff166040519015158152602001610092565b6100ae61034a565b6100f7610385565b6040516001600160a01b039091168152602001610092565b6100ae61011d36600461058c565b610399565b6100ae610130366004610537565b610422565b606060018054610144906106e1565b80601f0160208091040260200160405190810160405280929190818152602001828054610170906106e1565b80156101bd5780601f10610192576101008083540402835291602001916101bd565b820191906000526020600020905b8154815290600101906020018083116101a057829003601f168201915b5050505050905090565b6001600160a01b0382166102225760405162461bcd60e51b815260206004820152601e60248201527f7370656e64657220616464726573732063616e6e6f74206265207a65726f000060448201526064015b60405180910390fd5b6001600160a01b0383166102485760405162461bcd60e51b815260040161021990610674565b60405163095ea7b360e01b81526001600160a01b0383811660048301526024820183905284169063095ea7b390604401602060405180830381600087803b15801561029257600080fd5b505af11580156102a6573d6000803e3d6000fd5b505050506040513d601f19601f820116820180604052508101906102ca91906105c8565b50505050565b60006001600160a01b0383166102f85760405162461bcd60e51b8152600401610219906106aa565b6001600160a01b03821661031e5760405162461bcd60e51b815260040161021990610674565b506001600160a01b03918216600090815260026020908152604080832093909416825291909152205490565b33610353610385565b6001600160a01b0316146103795760405162461bcd60e51b81526004016102199061063f565b61038360006104c2565b565b60005461010090046001600160a01b031690565b6001600160a01b0383166103bf5760405162461bcd60e51b8152600401610219906106aa565b6001600160a01b0382166103e55760405162461bcd60e51b815260040161021990610674565b6001600160a01b03928316600081815260026020908152604080832095909616825293845284812083905560038452848120918152925291902055565b3361042b610385565b6001600160a01b0316146104515760405162461bcd60e51b81526004016102199061063f565b6001600160a01b0381166104b65760405162461bcd60e51b815260206004820152602660248201527f4f776e61626c653a206e6577206f776e657220697320746865207a65726f206160448201526564647265737360d01b6064820152608401610219565b6104bf816104c2565b50565b600080546001600160a01b03838116610100818102610100600160a81b0319851617855560405193049190911692909183917f8be0079c531659141344cd1fd0a4f28419497f9722a3daafe3b4186f6b6457e091a35050565b80356001600160a01b038116811461053257600080fd5b919050565b60006020828403121561054957600080fd5b6105528261051b565b9392505050565b6000806040838503121561056c57600080fd5b6105758361051b565b91506105836020840161051b565b90509250929050565b6000806000606084860312156105a157600080fd5b6105aa8461051b565b92506105b86020850161051b565b9150604084013590509250925092565b6000602082840312156105da57600080fd5b8151801515811461055257600080fd5b600060208083528351808285015260005b81811015610617578581018301518582016040015282016105fb565b81811115610629576000604083870101525b50601f01601f1916929092016040019392505050565b6020808252818101527f4f776e61626c653a2063616c6c6572206973206e6f7420746865206f776e6572604082015260600190565b6020808252601c908201527b746f6b656e20616464726573732063616e6e6f74206265207a65726f60201b604082015260600190565b6020808252601f908201527f636f6e747261637420616464726573732063616e6e6f74206265207a65726f00604082015260600190565b600181811c908216806106f557607f821691505b6020821081141561071657634e487b7160e01b600052602260045260246000fd5b5091905056fea264697066735822122086a39547e90737779a50d6b1eec3a3bb70a8638aaaff70be1aa7536b9989542f64736f6c63430008070033a2646970667358221220b16d9b6896dd8744e03461b52d1b3e9d5a60ed4ab0aae91fe77a48314589eb5e64736f6c6343000807003360806040526001600455600e80546001600160a01b03199081167356dd6586db0d08c6ce7b2f2805af28616e082455179091557f6236363032643134653437333463343961356531636531396434356134363332600f556010805490911673a36085f69e2889c224210f603d836748e7dc008817905567016345785d8a000060115560646012553480156200009357600080fd5b506012546040518060600160405280602981526020016200197660299139604080518082019091526005815264707269636560d81b6020820152600e54600f546010546011546001600160a01b039384169390911690868686620000f73362000187565b6001600160a01b038516620001165762000110620001d9565b62000121565b62000121856200026e565b600880546001600160a01b0319166001600160a01b0389161790556009869055600d849055600c83905581516200016090600b90602085019062000290565b5080516200017690600a90602084019062000290565b5050505050505050505050620003a5565b600680546001600160a01b038381166001600160a01b0319831681179093556040519116919082907f8be0079c531659141344cd1fd0a4f28419497f9722a3daafe3b4186f6b6457e090600090a35050565b6200026c73c89bd4e1632d3a43cb03aaad5262cbe4038bc5716001600160a01b03166338cc48316040518163ffffffff1660e01b815260040160206040518083038186803b1580156200022b57600080fd5b505afa15801562000240573d6000803e3d6000fd5b505050506040513d601f19601f8201168201806040525081019062000266919062000336565b6200026e565b565b600280546001600160a01b0319166001600160a01b0392909216919091179055565b8280546200029e9062000368565b90600052602060002090601f016020900481019282620002c257600085556200030d565b82601f10620002dd57805160ff19168380011785556200030d565b828001600101855582156200030d579182015b828111156200030d578251825591602001919060010190620002f0565b506200031b9291506200031f565b5090565b5b808211156200031b576000815560010162000320565b6000602082840312156200034957600080fd5b81516001600160a01b03811681146200036157600080fd5b9392505050565b600181811c908216806200037d57607f821691505b602082108114156200039f57634e487b7160e01b600052602260045260246000fd5b50919050565b6115c180620003b56000396000f3fe6080604052600436106100cf5760003560e01c8063185defc614610111578063313ce5671461014757806332424aa31461016b5780634357855e1461018157806369723be7146101a15780636fb7cb57146101c1578063715018a6146101e15780638da5cb5b146101f65780638dc654a21461020b578063a89ae4ba14610220578063c2939d9714610240578063c5b37c2214610256578063ddca3f431461026c578063de29278914610282578063ec925c5b14610297578063f2fde38b146102d5578063f7b4ab67146102f557005b3661010f577f88a5966d370b9919b20f3e2c13ff65706f196a4e32cc2c12bf57088f885258743334604051610105929190611274565b60405180910390a1005b005b34801561011d57600080fd5b50601054610131906001600160a01b031681565b60405161013e9190611260565b60405180910390f35b34801561015357600080fd5b5061015d600c5481565b60405190815260200161013e565b34801561017757600080fd5b5061015d60125481565b34801561018d57600080fd5b5061010f61019c36600461111a565b61030b565b3480156101ad57600080fd5b5061015d6101bc36600461113c565b610409565b3480156101cd57600080fd5b50600e54610131906001600160a01b031681565b3480156101ed57600080fd5b5061010f610639565b34801561020257600080fd5b50610131610674565b34801561021757600080fd5b5061010f610683565b34801561022c57600080fd5b50600854610131906001600160a01b031681565b34801561024c57600080fd5b5061015d60095481565b34801561026257600080fd5b5061015d60115481565b34801561027857600080fd5b5061015d600d5481565b34801561028e57600080fd5b5060075461015d565b3480156102a357600080fd5b506102c860405180604001604052806005815260200164707269636560d81b81525081565b60405161013e919061131c565b3480156102e157600080fd5b5061010f6102f03660046110cf565b610847565b34801561030157600080fd5b5061015d600f5481565b60008281526005602052604090205482906001600160a01b031633146103895760405162461bcd60e51b815260206004820152602860248201527f536f75726365206d75737420626520746865206f7261636c65206f6620746865604482015267081c995c5d595cdd60c21b60648201526084015b60405180910390fd5b60008181526005602052604080822080546001600160a01b03191690555182917f7cc135e0cebb02c3480ae5d74d377283180a2601f8f644edf7987b009316c63a91a260078290556040518381527f6930ee93026433301a14b1baa0b52ca0d4640cb1edaa703beeb9056e235269849060200160405180910390a1505050565b60008061042060095430634357855e60e01b6108e7565b90506104dd6040518060400160405280600381526020016219d95d60ea1b8152506104d5600b805461045190611508565b80601f016020809104026020016040519081016040528092919081815260200182805461047d90611508565b80156104ca5780601f1061049f576101008083540402835291602001916104ca565b820191906000526020600020905b8154815290600101906020018083116104ad57829003601f168201915b50505050508661090c565b839190610939565b610598604051806040016040528060048152602001630e0c2e8d60e31b815250600a805461050a90611508565b80601f016020809104026020016040519081016040528092919081815260200182805461053690611508565b80156105835780601f1061055857610100808354040283529160200191610583565b820191906000526020600020905b81548152906001019060200180831161056657829003601f168201915b5050505050836109399092919063ffffffff16565b60408051808201909152600581526474696d657360d81b6020820152600c546105c291839161095c565b600854600d546105dd916001600160a01b031690839061097a565b600854600954600d54604080516001600160a01b0390941684526020840192909252908201529092507f5de0ca4d601c6369aafe37da9bab92be9804895234cdb72d8181492e84e6bcb29060600160405180910390a150919050565b33610642610674565b6001600160a01b0316146106685760405162461bcd60e51b81526004016103809061132f565b6106726000610999565b565b6006546001600160a01b031690565b3361068c610674565b6001600160a01b0316146106b25760405162461bcd60e51b81526004016103809061132f565b60006106c66002546001600160a01b031690565b90506000816001600160a01b03166370a08231306040518263ffffffff1660e01b81526004016106f69190611260565b60206040518083038186803b15801561070e57600080fd5b505afa158015610722573d6000803e3d6000fd5b505050506040513d601f19601f8201168201806040525081019061074691906111ec565b60405163a9059cbb60e01b81529091506001600160a01b0383169063a9059cbb906107779033908590600401611274565b602060405180830381600087803b15801561079157600080fd5b505af11580156107a5573d6000803e3d6000fd5b505050506040513d601f19601f820116820180604052508101906107c991906110f8565b61080a5760405162461bcd60e51b8152602060048201526012602482015271556e61626c6520746f20776974686472617760701b6044820152606401610380565b7fcb1436249a1dd8cf93362c28d79a4e20dc54398b6c49e30316e8396e72a584b0338260405161083b929190611274565b60405180910390a15050565b33610850610674565b6001600160a01b0316146108765760405162461bcd60e51b81526004016103809061132f565b6001600160a01b0381166108db5760405162461bcd60e51b815260206004820152602660248201527f4f776e61626c653a206e6577206f776e657220697320746865207a65726f206160448201526564647265737360d01b6064820152608401610380565b6108e481610999565b50565b6108ef611080565b6108f7611080565b610903818686866109eb565b95945050505050565b60608282604051602001610921929190611231565b60405160208183030381529060405290505b92915050565b60808301516109489083610a28565b60808301516109579082610a28565b505050565b608083015161096b9083610a28565b60808301516109579082610a3f565b600061099184848460016320214ca360e11b610aa1565b949350505050565b600680546001600160a01b038381166001600160a01b0319831681179093556040519116919082907f8be0079c531659141344cd1fd0a4f28419497f9722a3daafe3b4186f6b6457e090600090a35050565b6109f3611080565b610a038560800151610100610ca8565b50509183526001600160a01b031660208301526001600160e01b031916604082015290565b610a358260038351610d00565b6109578282610dd3565b6001600160401b0319811215610a5d57610a598282610df4565b5050565b6001600160401b03811315610a7657610a598282610e36565b60008112610a8a57610a5982600083610d00565b610a59826001610a9c84600019611486565b610d00565b6004546040516001600160601b03193060601b166020820152603481019190915260009060540160408051808303601f19018152918152815160209283012060045460608901526000818152600590935281832080546001600160a01b0319166001600160a01b038b16179055905190925082917fb5e6e01e79f91267dc17b4e6314d5d4d03593d2ceee0fbb452b750bd70ea5af991a2600082600080886000015189602001518a604001518b606001518a8d6080015160000151604051602401610b7398979695949392919061128d565b60408051601f198184030181529181526020820180516001600160e01b03166001600160e01b0319909416939093179092526002549151630200057560e51b81529092506001600160a01b0390911690634000aea090610bdb908a90899086906004016112f5565b602060405180830381600087803b158015610bf557600080fd5b505af1158015610c09573d6000803e3d6000fd5b505050506040513d601f19601f82011682018060405250810190610c2d91906110f8565b610c855760405162461bcd60e51b815260206004820152602360248201527f756e61626c6520746f207472616e73666572416e6443616c6c20746f206f7261604482015262636c6560e81b6064820152608401610380565b600160046000828254610c989190611364565b9091555091979650505050505050565b610cb06110b5565b610cbb60208361153d565b15610ce357610ccb60208361153d565b610cd69060206114c5565b610ce09083611364565b91505b506020828101829052604080518085526000815290920101905290565b60178111610d2157610d1b8360e0600585901b168317610e59565b50505050565b60ff8111610d4b57610d3e836018611fe0600586901b1617610e59565b50610d1b83826001610e71565b61ffff8111610d7657610d69836019611fe0600586901b1617610e59565b50610d1b83826002610e71565b63ffffffff8111610da357610d9683601a611fe0600586901b1617610e59565b50610d1b83826004610e71565b6001600160401b03811161095757610dc683601b611fe0600586901b1617610e59565b50610d1b83826008610e71565b610ddb6110b5565b610ded83846000015151848551610e8a565b9392505050565b610dff8260c3610e59565b50610a5982610e1083600019611486565b604051602001610e2291815260200190565b604051602081830303815290604052610f82565b610e418260c2610e59565b50610a598282604051602001610e2291815260200190565b610e616110b5565b610ded8384600001515184610f8f565b610e796110b5565b610991848560000151518585610fde565b610e926110b5565b8251821115610ea057600080fd5b6020850151610eaf8386611364565b1115610ee257610ee285610ed287602001518786610ecd9190611364565b611052565b610edd906002611467565b611069565b600080865180518760208301019350808887011115610f015787860182525b505050602084015b60208410610f415780518252610f20602083611364565b9150610f2d602082611364565b9050610f3a6020856114c5565b9350610f09565b60006001610f508660206114c5565b610f5c906101006113bf565b610f6691906114c5565b9151835183169219169190911790915250849050949350505050565b610a358260028351610d00565b610f976110b5565b83602001518310610fb757610fb78485602001516002610edd9190611467565b835180516020858301018481535080851415610fd4576001810182525b5093949350505050565b610fe66110b5565b6020850151610ff58584611364565b11156110095761100985610ed28685611364565b60006001611019846101006113bf565b61102391906114c5565b90508551838682010185831982511617815250805184870111156110475783860181525b509495945050505050565b600081831115611063575081610933565b50919050565b81516110758383610ca8565b50610d1b8382610dd3565b6040805160a0810182526000808252602082018190529181018290526060810191909152608081016110b06110b5565b905290565b604051806040016040528060608152602001600081525090565b6000602082840312156110e157600080fd5b81356001600160a01b0381168114610ded57600080fd5b60006020828403121561110a57600080fd5b81518015158114610ded57600080fd5b6000806040838503121561112d57600080fd5b50508035926020909101359150565b60006020828403121561114e57600080fd5b81356001600160401b038082111561116557600080fd5b818401915084601f83011261117957600080fd5b81358181111561118b5761118b611575565b604051601f8201601f19908116603f011681019083821181831017156111b3576111b3611575565b816040528281528760208487010111156111cc57600080fd5b826020860160208301376000928101602001929092525095945050505050565b6000602082840312156111fe57600080fd5b5051919050565b6000815180845261121d8160208601602086016114dc565b601f01601f19169290920160200192915050565b600083516112438184602088016114dc565b8351908301906112578183602088016114dc565b01949350505050565b6001600160a01b0391909116815260200190565b6001600160a01b03929092168252602082015260400190565b6001600160a01b0389811682526020820189905260408201889052861660608201526001600160e01b03198516608082015260a0810184905260c0810183905261010060e082018190526000906112e683820185611205565b9b9a5050505050505050505050565b60018060a01b03841681528260208201526060604082015260006109036060830184611205565b602081526000610ded6020830184611205565b6020808252818101527f4f776e61626c653a2063616c6c6572206973206e6f7420746865206f776e6572604082015260600190565b600082198211156113775761137761155f565b500190565b600181815b808511156113b757816000190482111561139d5761139d61155f565b808516156113aa57918102915b93841c9390800290611381565b509250929050565b6000610ded83836000826113d557506001610933565b816113e257506000610933565b81600181146113f857600281146114025761141e565b6001915050610933565b60ff8411156114135761141361155f565b50506001821b610933565b5060208310610133831016604e8410600b8410161715611441575081810a610933565b61144b838361137c565b806000190482111561145f5761145f61155f565b029392505050565b60008160001904831182151516156114815761148161155f565b500290565b60008083128015600160ff1b8501841216156114a4576114a461155f565b6001600160ff1b03840183138116156114bf576114bf61155f565b50500390565b6000828210156114d7576114d761155f565b500390565b60005b838110156114f75781810151838201526020016114df565b83811115610d1b5750506000910152565b600181811c9082168061151c57607f821691505b6020821081141561106357634e487b7160e01b600052602260045260246000fd5b60008261155a57634e487b7160e01b600052601260045260246000fd5b500690565b634e487b7160e01b600052601160045260246000fd5b634e487b7160e01b600052604160045260246000fdfea2646970667358221220fc0f532e0e3c406dc02d7966dcdf2db3225ae2cb29487b8bdc2121598aac1d7164736f6c63430008070033687474703a2f2f76616c756174696f6e2d6170692e6865726f6b756170702e636f6d2f70726963652f60806040526001600455600e80546001600160a01b03199081167356dd6586db0d08c6ce7b2f2805af28616e082455179091557f6236363032643134653437333463343961356531636531396434356134363332600f556010805490911673a36085f69e2889c224210f603d836748e7dc008817905567016345785d8a00006011553480156200008e57600080fd5b5060405162001a1e38038062001a1e833981016040819052620000b19162000403565b600e54600f546010546011546001600160a01b039384169390911690868686620000db336200016b565b6001600160a01b038516620000fa57620000f4620001bd565b62000105565b620001058562000252565b600880546001600160a01b0319166001600160a01b0389161790556009869055600d849055600c83905581516200014490600b90602085019062000274565b5080516200015a90600a90602084019062000274565b5050505050505050505050620004ca565b600680546001600160a01b038381166001600160a01b0319831681179093556040519116919082907f8be0079c531659141344cd1fd0a4f28419497f9722a3daafe3b4186f6b6457e090600090a35050565b6200025073c89bd4e1632d3a43cb03aaad5262cbe4038bc5716001600160a01b03166338cc48316040518163ffffffff1660e01b815260040160206040518083038186803b1580156200020f57600080fd5b505afa15801562000224573d6000803e3d6000fd5b505050506040513d601f19601f820116820180604052508101906200024a9190620003d1565b62000252565b565b600280546001600160a01b0319166001600160a01b0392909216919091179055565b828054620002829062000477565b90600052602060002090601f016020900481019282620002a65760008555620002f1565b82601f10620002c157805160ff1916838001178555620002f1565b82800160010185558215620002f1579182015b82811115620002f1578251825591602001919060010190620002d4565b50620002ff92915062000303565b5090565b5b80821115620002ff576000815560010162000304565b600082601f8301126200032c57600080fd5b81516001600160401b0380821115620003495762000349620004b4565b604051601f8301601f19908116603f01168101908282118183101715620003745762000374620004b4565b816040528381526020925086838588010111156200039157600080fd5b600091505b83821015620003b5578582018301518183018401529082019062000396565b83821115620003c75760008385830101525b9695505050505050565b600060208284031215620003e457600080fd5b81516001600160a01b0381168114620003fc57600080fd5b9392505050565b6000806000606084860312156200041957600080fd5b835160208501519093506001600160401b03808211156200043957600080fd5b62000447878388016200031a565b935060408601519150808211156200045e57600080fd5b506200046d868287016200031a565b9150509250925092565b600181811c908216806200048c57607f821691505b60208210811415620004ae57634e487b7160e01b600052602260045260246000fd5b50919050565b634e487b7160e01b600052604160045260246000fd5b61154480620004da6000396000f3fe6080604052600436106100b95760003560e01c8063185defc6146100fb578063313ce567146101315780634357855e1461015557806369723be7146101755780636fb7cb5714610195578063715018a6146101b55780638da5cb5b146101ca5780638dc654a2146101df578063a89ae4ba146101f4578063c2939d9714610214578063c5b37c221461022a578063ddca3f4314610240578063de29278914610256578063f2fde38b1461026b578063f7b4ab671461028b57005b366100f9577f88a5966d370b9919b20f3e2c13ff65706f196a4e32cc2c12bf57088f8852587433346040516100ef92919061120a565b60405180910390a1005b005b34801561010757600080fd5b5060105461011b906001600160a01b031681565b60405161012891906111f6565b60405180910390f35b34801561013d57600080fd5b50610147600c5481565b604051908152602001610128565b34801561016157600080fd5b506100f96101703660046110b0565b6102a1565b34801561018157600080fd5b506101476101903660046110d2565b61039f565b3480156101a157600080fd5b50600e5461011b906001600160a01b031681565b3480156101c157600080fd5b506100f96105cf565b3480156101d657600080fd5b5061011b61060a565b3480156101eb57600080fd5b506100f9610619565b34801561020057600080fd5b5060085461011b906001600160a01b031681565b34801561022057600080fd5b5061014760095481565b34801561023657600080fd5b5061014760115481565b34801561024c57600080fd5b50610147600d5481565b34801561026257600080fd5b50600754610147565b34801561027757600080fd5b506100f9610286366004611065565b6107dd565b34801561029757600080fd5b50610147600f5481565b60008281526005602052604090205482906001600160a01b0316331461031f5760405162461bcd60e51b815260206004820152602860248201527f536f75726365206d75737420626520746865206f7261636c65206f6620746865604482015267081c995c5d595cdd60c21b60648201526084015b60405180910390fd5b60008181526005602052604080822080546001600160a01b03191690555182917f7cc135e0cebb02c3480ae5d74d377283180a2601f8f644edf7987b009316c63a91a260078290556040518381527f6930ee93026433301a14b1baa0b52ca0d4640cb1edaa703beeb9056e235269849060200160405180910390a1505050565b6000806103b660095430634357855e60e01b61087d565b90506104736040518060400160405280600381526020016219d95d60ea1b81525061046b600b80546103e79061148b565b80601f01602080910402602001604051908101604052809291908181526020018280546104139061148b565b80156104605780601f1061043557610100808354040283529160200191610460565b820191906000526020600020905b81548152906001019060200180831161044357829003601f168201915b5050505050866108a2565b8391906108cf565b61052e604051806040016040528060048152602001630e0c2e8d60e31b815250600a80546104a09061148b565b80601f01602080910402602001604051908101604052809291908181526020018280546104cc9061148b565b80156105195780601f106104ee57610100808354040283529160200191610519565b820191906000526020600020905b8154815290600101906020018083116104fc57829003601f168201915b5050505050836108cf9092919063ffffffff16565b60408051808201909152600581526474696d657360d81b6020820152600c546105589183916108f2565b600854600d54610573916001600160a01b0316908390610910565b600854600954600d54604080516001600160a01b0390941684526020840192909252908201529092507f5de0ca4d601c6369aafe37da9bab92be9804895234cdb72d8181492e84e6bcb29060600160405180910390a150919050565b336105d861060a565b6001600160a01b0316146105fe5760405162461bcd60e51b8152600401610316906112b2565b610608600061092f565b565b6006546001600160a01b031690565b3361062261060a565b6001600160a01b0316146106485760405162461bcd60e51b8152600401610316906112b2565b600061065c6002546001600160a01b031690565b90506000816001600160a01b03166370a08231306040518263ffffffff1660e01b815260040161068c91906111f6565b60206040518083038186803b1580156106a457600080fd5b505afa1580156106b8573d6000803e3d6000fd5b505050506040513d601f19601f820116820180604052508101906106dc9190611182565b60405163a9059cbb60e01b81529091506001600160a01b0383169063a9059cbb9061070d903390859060040161120a565b602060405180830381600087803b15801561072757600080fd5b505af115801561073b573d6000803e3d6000fd5b505050506040513d601f19601f8201168201806040525081019061075f919061108e565b6107a05760405162461bcd60e51b8152602060048201526012602482015271556e61626c6520746f20776974686472617760701b6044820152606401610316565b7fcb1436249a1dd8cf93362c28d79a4e20dc54398b6c49e30316e8396e72a584b033826040516107d192919061120a565b60405180910390a15050565b336107e661060a565b6001600160a01b03161461080c5760405162461bcd60e51b8152600401610316906112b2565b6001600160a01b0381166108715760405162461bcd60e51b815260206004820152602660248201527f4f776e61626c653a206e6577206f776e657220697320746865207a65726f206160448201526564647265737360d01b6064820152608401610316565b61087a8161092f565b50565b610885611016565b61088d611016565b61089981868686610981565b95945050505050565b606082826040516020016108b79291906111c7565b60405160208183030381529060405290505b92915050565b60808301516108de90836109be565b60808301516108ed90826109be565b505050565b608083015161090190836109be565b60808301516108ed90826109d5565b600061092784848460016320214ca360e11b610a37565b949350505050565b600680546001600160a01b038381166001600160a01b0319831681179093556040519116919082907f8be0079c531659141344cd1fd0a4f28419497f9722a3daafe3b4186f6b6457e090600090a35050565b610989611016565b6109998560800151610100610c3e565b50509183526001600160a01b031660208301526001600160e01b031916604082015290565b6109cb8260038351610c96565b6108ed8282610d69565b6001600160401b03198112156109f3576109ef8282610d8a565b5050565b6001600160401b03811315610a0c576109ef8282610dcc565b60008112610a20576109ef82600083610c96565b6109ef826001610a3284600019611409565b610c96565b6004546040516001600160601b03193060601b166020820152603481019190915260009060540160408051808303601f19018152918152815160209283012060045460608901526000818152600590935281832080546001600160a01b0319166001600160a01b038b16179055905190925082917fb5e6e01e79f91267dc17b4e6314d5d4d03593d2ceee0fbb452b750bd70ea5af991a2600082600080886000015189602001518a604001518b606001518a8d6080015160000151604051602401610b09989796959493929190611223565b60408051601f198184030181529181526020820180516001600160e01b03166001600160e01b0319909416939093179092526002549151630200057560e51b81529092506001600160a01b0390911690634000aea090610b71908a908990869060040161128b565b602060405180830381600087803b158015610b8b57600080fd5b505af1158015610b9f573d6000803e3d6000fd5b505050506040513d601f19601f82011682018060405250810190610bc3919061108e565b610c1b5760405162461bcd60e51b815260206004820152602360248201527f756e61626c6520746f207472616e73666572416e6443616c6c20746f206f7261604482015262636c6560e81b6064820152608401610316565b600160046000828254610c2e91906112e7565b9091555091979650505050505050565b610c4661104b565b610c516020836114c0565b15610c7957610c616020836114c0565b610c6c906020611448565b610c7690836112e7565b91505b506020828101829052604080518085526000815290920101905290565b60178111610cb757610cb18360e0600585901b168317610def565b50505050565b60ff8111610ce157610cd4836018611fe0600586901b1617610def565b50610cb183826001610e07565b61ffff8111610d0c57610cff836019611fe0600586901b1617610def565b50610cb183826002610e07565b63ffffffff8111610d3957610d2c83601a611fe0600586901b1617610def565b50610cb183826004610e07565b6001600160401b0381116108ed57610d5c83601b611fe0600586901b1617610def565b50610cb183826008610e07565b610d7161104b565b610d8383846000015151848551610e20565b9392505050565b610d958260c3610def565b506109ef82610da683600019611409565b604051602001610db891815260200190565b604051602081830303815290604052610f18565b610dd78260c2610def565b506109ef8282604051602001610db891815260200190565b610df761104b565b610d838384600001515184610f25565b610e0f61104b565b610927848560000151518585610f74565b610e2861104b565b8251821115610e3657600080fd5b6020850151610e4583866112e7565b1115610e7857610e7885610e6887602001518786610e6391906112e7565b610fe8565b610e739060026113ea565b610fff565b600080865180518760208301019350808887011115610e975787860182525b505050602084015b60208410610ed75780518252610eb66020836112e7565b9150610ec36020826112e7565b9050610ed0602085611448565b9350610e9f565b60006001610ee6866020611448565b610ef290610100611342565b610efc9190611448565b9151835183169219169190911790915250849050949350505050565b6109cb8260028351610c96565b610f2d61104b565b83602001518310610f4d57610f4d8485602001516002610e7391906113ea565b835180516020858301018481535080851415610f6a576001810182525b5093949350505050565b610f7c61104b565b6020850151610f8b85846112e7565b1115610f9f57610f9f85610e6886856112e7565b60006001610faf84610100611342565b610fb99190611448565b9050855183868201018583198251161781525080518487011115610fdd5783860181525b509495945050505050565b600081831115610ff95750816108c9565b50919050565b815161100b8383610c3e565b50610cb18382610d69565b6040805160a08101825260008082526020820181905291810182905260608101919091526080810161104661104b565b905290565b604051806040016040528060608152602001600081525090565b60006020828403121561107757600080fd5b81356001600160a01b0381168114610d8357600080fd5b6000602082840312156110a057600080fd5b81518015158114610d8357600080fd5b600080604083850312156110c357600080fd5b50508035926020909101359150565b6000602082840312156110e457600080fd5b81356001600160401b03808211156110fb57600080fd5b818401915084601f83011261110f57600080fd5b813581811115611121576111216114f8565b604051601f8201601f19908116603f01168101908382118183101715611149576111496114f8565b8160405282815287602084870101111561116257600080fd5b826020860160208301376000928101602001929092525095945050505050565b60006020828403121561119457600080fd5b5051919050565b600081518084526111b381602086016020860161145f565b601f01601f19169290920160200192915050565b600083516111d981846020880161145f565b8351908301906111ed81836020880161145f565b01949350505050565b6001600160a01b0391909116815260200190565b6001600160a01b03929092168252602082015260400190565b6001600160a01b0389811682526020820189905260408201889052861660608201526001600160e01b03198516608082015260a0810184905260c0810183905261010060e0820181905260009061127c8382018561119b565b9b9a5050505050505050505050565b60018060a01b0384168152826020820152606060408201526000610899606083018461119b565b6020808252818101527f4f776e61626c653a2063616c6c6572206973206e6f7420746865206f776e6572604082015260600190565b600082198211156112fa576112fa6114e2565b500190565b600181815b8085111561133a578160001904821115611320576113206114e2565b8085161561132d57918102915b93841c9390800290611304565b509250929050565b6000610d838383600082611358575060016108c9565b81611365575060006108c9565b816001811461137b5760028114611385576113a1565b60019150506108c9565b60ff841115611396576113966114e2565b50506001821b6108c9565b5060208310610133831016604e8410600b84101617156113c4575081810a6108c9565b6113ce83836112ff565b80600019048211156113e2576113e26114e2565b029392505050565b6000816000190483118215151615611404576114046114e2565b500290565b60008083128015600160ff1b850184121615611427576114276114e2565b6001600160ff1b0384018313811615611442576114426114e2565b50500390565b60008282101561145a5761145a6114e2565b500390565b60005b8381101561147a578181015183820152602001611462565b83811115610cb15750506000910152565b600181811c9082168061149f57607f821691505b60208210811415610ff957634e487b7160e01b600052602260045260246000fd5b6000826114dd57634e487b7160e01b600052601260045260246000fd5b500690565b634e487b7160e01b600052601160045260246000fd5b634e487b7160e01b600052604160045260246000fdfea2646970667358221220985e023b205a392052ac4958feeb972ee320aa1faf89b303a05ef93e6290a53064736f6c63430008070033",
  "immutableReferences": {},
  "source": "// SPDX-License-Identifier: UNLICENSED\r\n\r\npragma solidity ^0.8.6;\r\n\r\nimport \"../utils/BokkyPooBahsDateTimeLibrary.sol\";\r\nimport \"@openzeppelin/contracts/access/Ownable.sol\";\r\nimport \"@openzeppelin/contracts/token/ERC20/IERC20.sol\";\r\nimport \"@openzeppelin/contracts/token/ERC20/utils/SafeERC20.sol\";\r\nimport \"@openzeppelin/contracts/utils/math/SafeMath.sol\";\r\n\r\nimport \"../interfaces/IFFAContract.sol\";\r\nimport \"./ChainlinkOracle.sol\";\r\nimport \"./CollateralWallet.sol\";\r\nimport \"./Oracles/LinkPoolOracles/LinkPoolValuationOracle.sol\";\r\nimport \"./Oracles/LinkPoolOracles/LinkPoolOracle.sol\";\r\n\r\ncontract FFAContract is IFFAContract{\r\n    using SafeERC20 for IERC20;\r\n    //state of contract\r\n    enum ContractState {Created, Initiated, Settled, Defaulted}\r\n    //contract detail\r\n    string private name;\r\n    string private symbol;\r\n    ContractState public contractState;\r\n    uint256 private sizeOfContract;\r\n    address private long;\r\n    address private short;\r\n    uint256 private initialForwardPrice;\r\n    uint public annualRiskFreeRate;\r\n    uint256 private expirationDate;\r\n    uint256 private underlyingPrice;//scaled 1/100 ie. 45.07 -> 4507\r\n    //collateral wallets\r\n    address private longWallet;\r\n    address private shortWallet;\r\n    address private collateralTokenAddress;\r\n    //margin requirements\r\n    //MM(8%) + EM (2%) = IM (10%)\r\n    uint private exposureMarginRate;\r\n    uint private maintenanceMarginRate;\r\n    //M2M\r\n    uint256 private prevDayClosingPrice;\r\n    //underlying index price oracle\r\n    string private underlyingApiURL;\r\n    string private underlyingApiPath;\r\n    int public underlyingDecimals;\r\n    LinkPoolValuationOracle valuationOracle;\r\n    LinkPoolOracle underlyingOracle;\r\n\r\n    constructor(\r\n            string memory _name, \r\n            string memory _symbol, \r\n            uint256 _sizeOfContract,\r\n            string memory _underlyingApiURL,\r\n            string memory _underlyingApiPath,\r\n            int _underlyingDecimals\r\n            //address _collateralTokenAddress,\r\n    ) {\r\n        name = _name;\r\n        symbol = _symbol;\r\n        sizeOfContract = _sizeOfContract;\r\n        underlyingApiPath = _underlyingApiPath;\r\n        underlyingApiURL = _underlyingApiURL;\r\n        underlyingDecimals = _underlyingDecimals;\r\n        //collateralTokenAddress = _collateralTokenAddress;\r\n        valuationOracle = new LinkPoolValuationOracle();\r\n        underlyingOracle = new LinkPoolOracle(underlyingDecimals, underlyingApiURL, underlyingApiPath);\r\n        contractState = ContractState.Created;\r\n        //emit CreatedContract(decimals, sizeOfContract);\r\n    }\r\n\r\n    //initiateFFA: initiates futures contract with given parameters\r\n    function initiateFFA(address _long, address _short, uint256 _initialForwardPrice, \r\n                         uint256 _expirationDate,\r\n                         address _longWallet, address _shortWallet, uint _exposureMarginRate,\r\n                         uint _maintenanceMarginRate) \r\n                         external override returns (bool initiated_) {\r\n        require(_long != address(0), \"Long can't be zero address\");\r\n        require(_short != address(0), \"Short can't be zero address\");\r\n        require(_long != _short, \"Long and short can't be same party\");\r\n        require(_longWallet != address(0), \"Long wallet cannot have zero address\");\r\n        require(_shortWallet != address(0), \"Short wallet cannot have zero address\");\r\n        require(_longWallet != _shortWallet, \"long and short wallets cannot be the same\");\r\n        require(maintenanceMarginRate >0, \"maintenance margin rate cannot be zero\");\r\n        require(BokkyPooBahsDateTimeLibrary.diffSeconds(block.timestamp, _expirationDate) > 0, \"FFA contract has to expire in the future\");\r\n        long = _long;\r\n        short = _short;\r\n        //call valuation API to get initialForwardPrice!!!!!!!!!!!!!11\r\n        initialForwardPrice = _initialForwardPrice;\r\n        prevDayClosingPrice = initialForwardPrice;\r\n        //annualRiskFreeRate = _annualRiskFreeRate;\r\n        expirationDate = _expirationDate;\r\n        longWallet = _longWallet;\r\n        shortWallet = _shortWallet;\r\n        exposureMarginRate = _exposureMarginRate;\r\n        maintenanceMarginRate = _maintenanceMarginRate;\r\n        contractState = ContractState.Initiated;\r\n        //Do i need to deal with allowance?\r\n        uint initialMarginRate = exposureMarginRate + maintenanceMarginRate;\r\n        emit Initiated(long, short, initialForwardPrice, annualRiskFreeRate, expirationDate, sizeOfContract, initialMarginRate);\r\n        initiated_ = true;\r\n    }\r\n\r\n    //request underlying price\r\n    function requestUnderlyingPrice() public {\r\n        underlyingOracle.requestIndexPrice(\"\");\r\n    }\r\n\r\n    //set underlying price once job is fulfilled\r\n    function setUnderlyingPrice() public {\r\n        underlyingPrice = underlyingOracle.getResult();\r\n    }\r\n\r\n    //request forward price\r\n    function requestForwardPrice() public  {\r\n        valuationOracle.requestIndexPrice(concetenateStringsForURL(uint2str(underlyingPrice), uint2str(annualRiskFreeRate), uint2str(block.timestamp), uint2str(expirationDate)));\r\n    }\r\n\r\n    //set forward price once job is fulfilled\r\n    function getForwardPrice() public view returns(uint256){\r\n        return valuationOracle.getResult();\r\n    }\r\n\r\n    //concatanate strings and add /  where needed for URL\r\n    function concetenateStringsForURL(string memory a, string memory b, string memory c, string memory d) internal pure returns (string memory) {\r\n\t    return string(abi.encodePacked(a,\"/\", b, \"/\", c, \"/\", d));\r\n    }\r\n\r\n    \r\n    //parse uint to string\r\n    function uint2str(uint _i) internal pure returns (string memory _uintAsString) {\r\n        if (_i == 0) {\r\n            return \"0\";\r\n        }\r\n        uint j = _i;\r\n        uint len;\r\n        while (j != 0) {\r\n            len++;\r\n            j /= 10;\r\n        }\r\n        bytes memory bstr = new bytes(len);\r\n        uint k = len;\r\n        while (_i != 0) {\r\n            k = k-1;\r\n            uint8 temp = (48 + uint8(_i - _i / 10 * 10));\r\n            bytes1 b1 = bytes1(temp);\r\n            bstr[k] = b1;\r\n            _i /= 10;\r\n        }\r\n        return string(bstr);\r\n    }\r\n\r\n        /*\r\n            * Initial Margin = Maintenance Margin + Exposure Margin\r\n            * A margin call is issued when a party's cash balance drops below the maintenance margin.\r\n            * A party will be allowed to hold their position as long as the maintenance margin is satisfied.\r\n            * M2M is calculated based on the previous day's closing price. Based on the M2M each party's\r\n            * account is credited or debited daily. \r\n            * At settlement calculate the P&L = Final Contract Value - Initial Contract Value\r\n            * https://zerodha.com/varsity/chapter/margin-m2m/\r\n        */\r\n        //mark to market\r\n        function markToMarket(uint256 currentForwardPrice) external override returns (bool markedToMarket_) {\r\n            require(contractState == ContractState.Initiated, \"Contract has to be in Initiated state\");\r\n            require(BokkyPooBahsDateTimeLibrary.diffSeconds(block.timestamp, expirationDate) > 0, \"M to m can only happen before expiration\");\r\n\r\n            //valuation\r\n            //uint256 currentForwardPrice = calcForwardPrice();\r\n            uint256 newContractValue = currentForwardPrice * sizeOfContract;\r\n            uint256 oldContractValue = prevDayClosingPrice * sizeOfContract;\r\n            //contract value change\r\n            int256 contractValueChange = int256(newContractValue - oldContractValue);\r\n\r\n            //delivery within collateral wallets\r\n            if (contractValueChange > 0) {\r\n                transferCollateralFrom(shortWallet, longWallet, uint256(contractValueChange), collateralTokenAddress);\r\n            }\r\n            if (contractValueChange < 0) {\r\n                transferCollateralFrom(longWallet, shortWallet, uint256(-1 * contractValueChange), collateralTokenAddress);\r\n            }\r\n\r\n            //update prevDayClosingPrice to current price\r\n            prevDayClosingPrice = currentForwardPrice;\r\n\r\n            //emit event\r\n            emit MarkedToMarket(block.timestamp, contractValueChange, long, short);\r\n            markedToMarket_ = true;\r\n        }\r\n\r\n        //settle contract \r\n        function settleAtExpiration() external override returns (bool settled_) {\r\n            require(BokkyPooBahsDateTimeLibrary.diffSeconds(expirationDate, block.timestamp) >= 0, \"Settlement cannot occure before expiration date\" );\r\n            require(contractState == ContractState.Initiated, \"Contract has to be in Initiated state\");\r\n\r\n            //calculate P&L\r\n            uint256 initialContractValue = initialForwardPrice * sizeOfContract;\r\n            uint256 finalContractValue = prevDayClosingPrice * sizeOfContract;\r\n            int256 profitAndLoss = int256(finalContractValue - initialContractValue);\r\n\r\n            //change contract state and emit event\r\n            contractState = ContractState.Settled;\r\n            emit Settled(long, short, expirationDate, profitAndLoss);\r\n            settled_ = true;\r\n        }\r\n\r\n        //default contract\r\n        function defaultContract(address _defaultingParty) public override returns (bool defaulted_) {\r\n            require(contractState == ContractState.Initiated, \"Contract has to be in Initiated state\");\r\n            require(BokkyPooBahsDateTimeLibrary.diffSeconds(block.timestamp, expirationDate) > 0, \"Defaulting can only happen before expiration\");\r\n\r\n            //change contract state and emit event\r\n            contractState = ContractState.Defaulted;\r\n            emit Defaulted(block.timestamp, _defaultingParty);\r\n            defaulted_ = true;\r\n        }\r\n\r\n        /* transferCollateralFrom: transfers given amount of given token from one collateral wallet to the other*/\r\n        function transferCollateralFrom(address senderWalletAddress, address recipientWalletAddress, uint256 amount, address _collateralTokenAddress) public returns (bool transfered_){\r\n            CollateralWallet senderWallet = CollateralWallet(senderWalletAddress);\r\n            CollateralWallet recipientWallet = CollateralWallet(recipientWalletAddress);\r\n            uint256 originalSenderMappedBalance = senderWallet.getMappedBalance(address(this), _collateralTokenAddress);\r\n            require(originalSenderMappedBalance >= amount, \"collateral balance not sufficient\");\r\n\r\n            //approval might need fixing\r\n            senderWallet.approveSpender(_collateralTokenAddress, address(this), amount);\r\n            IERC20(_collateralTokenAddress).transferFrom(senderWalletAddress, recipientWalletAddress, amount);\r\n\r\n            //deduct from sender balance mapping\r\n            unchecked {\r\n                uint256 newSenderMappedBalance = originalSenderMappedBalance - amount;\r\n                senderWallet.setNewBalance(address(this), _collateralTokenAddress, newSenderMappedBalance);\r\n            }\r\n\r\n            //add to recipient balance mapping\r\n            uint256 newRecipientMappedBalance = recipientWallet.getMappedBalance(address(this), _collateralTokenAddress) + amount;\r\n            recipientWallet.setNewBalance(address(this), _collateralTokenAddress, newRecipientMappedBalance);\r\n \r\n            transfered_ = true;\r\n        }\r\n\r\n        //these are for testing\r\n        /////////////////////////////////////\r\n\r\n        CollateralWallet public longTestWallet;\r\n        CollateralWallet public shortTestWallet;\r\n\r\n        function createLongCollateralWallet(string memory _name) external returns(address walletAddress_) {\r\n            longTestWallet = new CollateralWallet(_name);\r\n            walletAddress_ = address(longTestWallet);\r\n        }\r\n\r\n        function createShortCollateralWallet(string memory _name) external returns(address walletAddress_) {\r\n            shortTestWallet = new CollateralWallet(_name);\r\n            walletAddress_ = address(shortTestWallet);\r\n        }\r\n\r\n        //////////////////////////////////////\r\n\r\n        //receive and fallback functions\r\n        /*\r\n        receive () external payable {\r\n    \r\n        }\r\n\r\n        fallback () external payable {\r\n\r\n        }*/\r\n\r\n\r\n        //getter functions\r\n        function getContractState() external view returns(string memory) {\r\n            if (contractState == ContractState.Created) {\r\n                return \"Created\";\r\n            } else if (contractState == ContractState.Initiated) {\r\n                return \"Initiated\";\r\n            } else if (contractState == ContractState.Settled) {\r\n                return \"Settled\";\r\n            } else if (contractState == ContractState.Defaulted) {\r\n                return \"Defaulted\";\r\n            } else {\r\n                return \"state error\";\r\n            }\r\n        }\r\n\r\n        function getName() external view returns(string memory) {\r\n            return name;\r\n        }\r\n\r\n        function getSymbol() external view returns(string memory) {\r\n            return symbol;\r\n        }\r\n        \r\n        function getSizeOfContract() external view returns(uint256) {\r\n            return sizeOfContract;\r\n        }\r\n\r\n        function getUnderlyingDecimals() external view returns (int) {\r\n            return underlyingDecimals;\r\n        }\r\n\r\n        function getLong() external view returns (address) {\r\n            return long;\r\n        }\r\n\r\n        function getShort() external view returns (address) {\r\n            return short;\r\n        }\r\n\r\n        function getInitialForwardPrice() external view returns (uint256) {\r\n            return initialForwardPrice;\r\n        }\r\n\r\n        function getExpirationDate() external view returns (uint256) {\r\n            return expirationDate;\r\n        }\r\n\r\n        function getLongWalletAddress() external view returns (address) {\r\n            return longWallet;\r\n        }\r\n\r\n        function getShortWalletAddress() external view returns (address) {\r\n            return shortWallet;\r\n        }\r\n\r\n\r\n\r\n\r\n}",
  "sourcePath": "C:\\Users\\Tomi\\OneDrive - The University of Chicago\\Documents\\Securrency\\FuturesExchange\\contracts\\FFAContract.sol",
  "compiler": {
    "name": "solc",
    "version": "0.8.7+commit.e28d00a7.Emscripten.clang"
  },
  "schemaVersion": "3.4.2",
  "updatedAt": "2021-08-29T14:06:16.154Z",
  "networkType": "ethereum",
  "devdoc": {
    "kind": "dev",
    "methods": {},
    "version": 1
  },
  "userdoc": {
    "kind": "user",
    "methods": {},
    "version": 1
  }
}