{
  "contractName": "FFAContract",
  "abi": [
    {
      "inputs": [
        {
          "internalType": "string",
          "name": "_name",
          "type": "string"
        },
        {
          "internalType": "string",
          "name": "_symbol",
          "type": "string"
        },
        {
          "internalType": "uint8",
          "name": "_decimals",
          "type": "uint8"
        },
        {
          "internalType": "uint256",
          "name": "_sizeOfContract",
          "type": "uint256"
        }
      ],
      "stateMutability": "nonpayable",
      "type": "constructor"
    },
    {
      "anonymous": false,
      "inputs": [
        {
          "indexed": false,
          "internalType": "uint8",
          "name": "decimals",
          "type": "uint8"
        },
        {
          "indexed": false,
          "internalType": "uint256",
          "name": "sizeOfContract",
          "type": "uint256"
        }
      ],
      "name": "CreatedContract",
      "type": "event"
    },
    {
      "anonymous": false,
      "inputs": [
        {
          "indexed": false,
          "internalType": "uint256",
          "name": "defaultDate",
          "type": "uint256"
        },
        {
          "indexed": false,
          "internalType": "address",
          "name": "defaultingParty",
          "type": "address"
        }
      ],
      "name": "Defaulted",
      "type": "event"
    },
    {
      "anonymous": false,
      "inputs": [
        {
          "indexed": true,
          "internalType": "address",
          "name": "long",
          "type": "address"
        },
        {
          "indexed": true,
          "internalType": "address",
          "name": "short",
          "type": "address"
        },
        {
          "indexed": false,
          "internalType": "uint256",
          "name": "forwardPrice",
          "type": "uint256"
        },
        {
          "indexed": false,
          "internalType": "uint8",
          "name": "riskFreeRate",
          "type": "uint8"
        },
        {
          "indexed": false,
          "internalType": "uint256",
          "name": "expirationDate",
          "type": "uint256"
        }
      ],
      "name": "Initiated",
      "type": "event"
    },
    {
      "anonymous": false,
      "inputs": [
        {
          "indexed": false,
          "internalType": "uint256",
          "name": "mtmDate",
          "type": "uint256"
        },
        {
          "indexed": false,
          "internalType": "int256",
          "name": "dailyPayoff",
          "type": "int256"
        },
        {
          "indexed": false,
          "internalType": "address",
          "name": "long",
          "type": "address"
        },
        {
          "indexed": false,
          "internalType": "address",
          "name": "short",
          "type": "address"
        }
      ],
      "name": "MarkedToMarket",
      "type": "event"
    },
    {
      "anonymous": false,
      "inputs": [
        {
          "indexed": false,
          "internalType": "address",
          "name": "long",
          "type": "address"
        },
        {
          "indexed": false,
          "internalType": "address",
          "name": "short",
          "type": "address"
        },
        {
          "indexed": false,
          "internalType": "uint256",
          "name": "expirationDate",
          "type": "uint256"
        }
      ],
      "name": "Settled",
      "type": "event"
    },
    {
      "anonymous": false,
      "inputs": [
        {
          "indexed": false,
          "internalType": "uint8",
          "name": "riskFreeRate",
          "type": "uint8"
        },
        {
          "indexed": false,
          "internalType": "int256",
          "name": "indexPrice",
          "type": "int256"
        },
        {
          "indexed": false,
          "internalType": "uint256",
          "name": "valuationDate",
          "type": "uint256"
        },
        {
          "indexed": false,
          "internalType": "int256",
          "name": "forwardValue",
          "type": "int256"
        }
      ],
      "name": "Valuated",
      "type": "event"
    },
    {
      "inputs": [],
      "name": "contractState",
      "outputs": [
        {
          "internalType": "enum FFAContract.ContractState",
          "name": "",
          "type": "uint8"
        }
      ],
      "stateMutability": "view",
      "type": "function"
    },
    {
      "inputs": [
        {
          "internalType": "address",
          "name": "_long",
          "type": "address"
        },
        {
          "internalType": "address",
          "name": "_short",
          "type": "address"
        },
        {
          "internalType": "uint256",
          "name": "_forwardPrice",
          "type": "uint256"
        },
        {
          "internalType": "uint8",
          "name": "_riskFreeRate",
          "type": "uint8"
        },
        {
          "internalType": "uint256",
          "name": "_expirationDate",
          "type": "uint256"
        },
        {
          "internalType": "contract CollateralWallet",
          "name": "_longWallet",
          "type": "address"
        },
        {
          "internalType": "contract CollateralWallet",
          "name": "_shortWallet",
          "type": "address"
        }
      ],
      "name": "initiateFFA",
      "outputs": [
        {
          "internalType": "bool",
          "name": "initiated_",
          "type": "bool"
        }
      ],
      "stateMutability": "nonpayable",
      "type": "function"
    },
    {
      "inputs": [],
      "name": "calcFFAValue",
      "outputs": [
        {
          "internalType": "uint256",
          "name": "value_",
          "type": "uint256"
        }
      ],
      "stateMutability": "nonpayable",
      "type": "function"
    },
    {
      "inputs": [],
      "name": "markToMarket",
      "outputs": [
        {
          "internalType": "bool",
          "name": "markedToMarket_",
          "type": "bool"
        }
      ],
      "stateMutability": "nonpayable",
      "type": "function"
    },
    {
      "inputs": [],
      "name": "settleAtExpiration",
      "outputs": [
        {
          "internalType": "bool",
          "name": "settled_",
          "type": "bool"
        }
      ],
      "stateMutability": "nonpayable",
      "type": "function"
    },
    {
      "inputs": [
        {
          "internalType": "address",
          "name": "_defaultingParty",
          "type": "address"
        }
      ],
      "name": "defaultContract",
      "outputs": [
        {
          "internalType": "bool",
          "name": "defaulted_",
          "type": "bool"
        }
      ],
      "stateMutability": "nonpayable",
      "type": "function"
    },
    {
      "inputs": [],
      "name": "getContractState",
      "outputs": [
        {
          "internalType": "string",
          "name": "",
          "type": "string"
        }
      ],
      "stateMutability": "view",
      "type": "function"
    },
    {
      "inputs": [],
      "name": "getName",
      "outputs": [
        {
          "internalType": "string",
          "name": "",
          "type": "string"
        }
      ],
      "stateMutability": "view",
      "type": "function"
    },
    {
      "inputs": [],
      "name": "getSymbol",
      "outputs": [
        {
          "internalType": "string",
          "name": "",
          "type": "string"
        }
      ],
      "stateMutability": "view",
      "type": "function"
    },
    {
      "inputs": [],
      "name": "getSizeOfContract",
      "outputs": [
        {
          "internalType": "uint256",
          "name": "",
          "type": "uint256"
        }
      ],
      "stateMutability": "view",
      "type": "function"
    },
    {
      "inputs": [],
      "name": "getDecimals",
      "outputs": [
        {
          "internalType": "uint8",
          "name": "",
          "type": "uint8"
        }
      ],
      "stateMutability": "view",
      "type": "function"
    }
  ],
  "bytecode": "0x60806040523480156200001157600080fd5b5060405162001c1738038062001c1783398181016040528101906200003791906200026b565b83600090805190602001906200004f9291906200010f565b508260019080519060200190620000689291906200010f565b5081600260006101000a81548160ff021916908360ff160217905550806003819055506000600260016101000a81548160ff02191690836003811115620000b457620000b362000482565b5b02179055507faa7f6ea30e1ba480d45b98b3b903c55e2261e037d7b614e6164b23f23711d104600260009054906101000a900460ff16600354604051620000fd9291906200033d565b60405180910390a15050505062000568565b8280546200011d9062000416565b90600052602060002090601f0160209004810192826200014157600085556200018d565b82601f106200015c57805160ff19168380011785556200018d565b828001600101855582156200018d579182015b828111156200018c5782518255916020019190600101906200016f565b5b5090506200019c9190620001a0565b5090565b5b80821115620001bb576000816000905550600101620001a1565b5090565b6000620001d6620001d08462000393565b6200036a565b905082815260208101848484011115620001f557620001f462000514565b5b62000202848285620003e0565b509392505050565b600082601f8301126200022257620002216200050f565b5b815162000234848260208601620001bf565b91505092915050565b6000815190506200024e8162000534565b92915050565b60008151905062000265816200054e565b92915050565b600080600080608085870312156200028857620002876200051e565b5b600085015167ffffffffffffffff811115620002a957620002a862000519565b5b620002b7878288016200020a565b945050602085015167ffffffffffffffff811115620002db57620002da62000519565b5b620002e9878288016200020a565b9350506040620002fc8782880162000254565b92505060606200030f878288016200023d565b91505092959194509250565b6200032681620003c9565b82525050565b6200033781620003d3565b82525050565b60006040820190506200035460008301856200032c565b6200036360208301846200031b565b9392505050565b60006200037662000389565b90506200038482826200044c565b919050565b6000604051905090565b600067ffffffffffffffff821115620003b157620003b0620004e0565b5b620003bc8262000523565b9050602081019050919050565b6000819050919050565b600060ff82169050919050565b60005b8381101562000400578082015181840152602081019050620003e3565b8381111562000410576000848401525b50505050565b600060028204905060018216806200042f57607f821691505b60208210811415620004465762000445620004b1565b5b50919050565b620004578262000523565b810181811067ffffffffffffffff82111715620004795762000478620004e0565b5b80604052505050565b7f4e487b7100000000000000000000000000000000000000000000000000000000600052602160045260246000fd5b7f4e487b7100000000000000000000000000000000000000000000000000000000600052602260045260246000fd5b7f4e487b7100000000000000000000000000000000000000000000000000000000600052604160045260246000fd5b600080fd5b600080fd5b600080fd5b600080fd5b6000601f19601f8301169050919050565b6200053f81620003c9565b81146200054b57600080fd5b50565b6200055981620003d3565b81146200056557600080fd5b50565b61169f80620005786000396000f3fe608060405234801561001057600080fd5b50600436106100a95760003560e01c806378f8f7d41161007157806378f8f7d4146101685780637f4e48491461018657806385209ee0146101a4578063923123b3146101c2578063e9df7c5e146101e0578063f0141d84146101fe576100a9565b806315070401146100ae57806317d7de7c146100cc5780633448f659146100ea5780634bdcfab81461011a57806370a4cd341461014a575b600080fd5b6100b661021c565b6040516100c39190611051565b60405180910390f35b6100d46102ae565b6040516100e19190611051565b60405180910390f35b61010460048036038101906100ff9190610d8d565b610340565b604051610111919061101b565b60405180910390f35b610134600480360381019061012f9190610dba565b610473565b604051610141919061101b565b60405180910390f35b610152610836565b60405161015f919061101b565b60405180910390f35b6101706109ae565b60405161017d919061101b565b60405180910390f35b61018e610ab1565b60405161019b9190611051565b60405180910390f35b6101ac610cd2565b6040516101b99190611036565b60405180910390f35b6101ca610ce5565b6040516101d79190611153565b60405180910390f35b6101e8610cef565b6040516101f59190611153565b60405180910390f35b610206610cff565b6040516102139190611213565b60405180910390f35b60606001805461022b90611347565b80601f016020809104026020016040519081016040528092919081815260200182805461025790611347565b80156102a45780601f10610279576101008083540402835291602001916102a4565b820191906000526020600020905b81548152906001019060200180831161028757829003601f168201915b5050505050905090565b6060600080546102bd90611347565b80601f01602080910402602001604051908101604052809291908181526020018280546102e990611347565b80156103365780601f1061030b57610100808354040283529160200191610336565b820191906000526020600020905b81548152906001019060200180831161031957829003601f168201915b5050505050905090565b600060016003811115610356576103556113a8565b5b600260019054906101000a900460ff166003811115610378576103776113a8565b5b146103b8576040517f08c379a00000000000000000000000000000000000000000000000000000000081526004016103af906110b3565b60405180910390fd5b60006103c642600854610d16565b11610406576040517f08c379a00000000000000000000000000000000000000000000000000000000081526004016103fd90611113565b60405180910390fd5b6003600260016101000a81548160ff0219169083600381111561042c5761042b6113a8565b5b02179055507f724b99e866949401e1553ae6e0da07c7e24b0308581155730cbe34363752bd3f428360405161046292919061116e565b60405180910390a160019050919050565b60008073ffffffffffffffffffffffffffffffffffffffff168873ffffffffffffffffffffffffffffffffffffffff1614156104e4576040517f08c379a00000000000000000000000000000000000000000000000000000000081526004016104db906110d3565b60405180910390fd5b600073ffffffffffffffffffffffffffffffffffffffff168773ffffffffffffffffffffffffffffffffffffffff161415610554576040517f08c379a000000000000000000000000000000000000000000000000000000000815260040161054b90611093565b60405180910390fd5b8673ffffffffffffffffffffffffffffffffffffffff168873ffffffffffffffffffffffffffffffffffffffff1614156105c3576040517f08c379a00000000000000000000000000000000000000000000000000000000081526004016105ba90611073565b60405180910390fd5b60006105cf4286610d16565b1161060f576040517f08c379a0000000000000000000000000000000000000000000000000000000008152600401610606906110f3565b60405180910390fd5b87600460006101000a81548173ffffffffffffffffffffffffffffffffffffffff021916908373ffffffffffffffffffffffffffffffffffffffff16021790555086600560006101000a81548173ffffffffffffffffffffffffffffffffffffffff021916908373ffffffffffffffffffffffffffffffffffffffff1602179055508560068190555084600760006101000a81548160ff021916908360ff1602179055508360088190555082600960006101000a81548173ffffffffffffffffffffffffffffffffffffffff021916908373ffffffffffffffffffffffffffffffffffffffff16021790555081600a60006101000a81548173ffffffffffffffffffffffffffffffffffffffff021916908373ffffffffffffffffffffffffffffffffffffffff1602179055506001600260016101000a81548160ff02191690836003811115610762576107616113a8565b5b0217905550600560009054906101000a900473ffffffffffffffffffffffffffffffffffffffff1673ffffffffffffffffffffffffffffffffffffffff16600460009054906101000a900473ffffffffffffffffffffffffffffffffffffffff1673ffffffffffffffffffffffffffffffffffffffff167f3bf88603c760ed46445b475bf9bd18d23632b3df0c987c93907aa89ef3874cdd600654600760009054906101000a900460ff1660085460405161081f939291906111dc565b60405180910390a360019050979650505050505050565b60008061084560085442610d16565b1015610886576040517f08c379a000000000000000000000000000000000000000000000000000000000815260040161087d90611133565b60405180910390fd5b6001600381111561089a576108996113a8565b5b600260019054906101000a900460ff1660038111156108bc576108bb6113a8565b5b146108fc576040517f08c379a00000000000000000000000000000000000000000000000000000000081526004016108f3906110b3565b60405180910390fd5b60028060016101000a81548160ff02191690836003811115610921576109206113a8565b5b02179055507f7e79a2206061184e05985ae0578dec52f817756a441996f984cdc817efc25a68600460009054906101000a900473ffffffffffffffffffffffffffffffffffffffff16600560009054906101000a900473ffffffffffffffffffffffffffffffffffffffff1660085460405161099f93929190610fe4565b60405180910390a16001905090565b6000600160038111156109c4576109c36113a8565b5b600260019054906101000a900460ff1660038111156109e6576109e56113a8565b5b14610a26576040517f08c379a0000000000000000000000000000000000000000000000000000000008152600401610a1d906110b3565b60405180910390fd5b60007f63f10cc602ea66cf5c2a09a756a193c86ab46c33a794eb8d9aee6cf9426553a84282600460009054906101000a900473ffffffffffffffffffffffffffffffffffffffff16600560009054906101000a900473ffffffffffffffffffffffffffffffffffffffff16604051610aa19493929190611197565b60405180910390a1600191505090565b606060006003811115610ac757610ac66113a8565b5b600260019054906101000a900460ff166003811115610ae957610ae86113a8565b5b1415610b2c576040518060400160405280600781526020017f43726561746564000000000000000000000000000000000000000000000000008152509050610ccf565b60016003811115610b4057610b3f6113a8565b5b600260019054906101000a900460ff166003811115610b6257610b616113a8565b5b1415610ba5576040518060400160405280600981526020017f496e6974696174656400000000000000000000000000000000000000000000008152509050610ccf565b60026003811115610bb957610bb86113a8565b5b600260019054906101000a900460ff166003811115610bdb57610bda6113a8565b5b1415610c1e576040518060400160405280600781526020017f536574746c6564000000000000000000000000000000000000000000000000008152509050610ccf565b600380811115610c3157610c306113a8565b5b600260019054906101000a900460ff166003811115610c5357610c526113a8565b5b1415610c96576040518060400160405280600981526020017f44656661756c74656400000000000000000000000000000000000000000000008152509050610ccf565b6040518060400160405280600b81526020017f7374617465206572726f7200000000000000000000000000000000000000000081525090505b90565b600260019054906101000a900460ff1681565b6000600354905090565b600042600e819055506000905090565b6000600260009054906101000a900460ff16905090565b600081831115610d2557600080fd5b8282610d31919061124a565b905092915050565b600081359050610d488161160d565b92915050565b600081359050610d5d81611624565b92915050565b600081359050610d728161163b565b92915050565b600081359050610d8781611652565b92915050565b600060208284031215610da357610da2611406565b5b6000610db184828501610d39565b91505092915050565b600080600080600080600060e0888a031215610dd957610dd8611406565b5b6000610de78a828b01610d39565b9750506020610df88a828b01610d39565b9650506040610e098a828b01610d63565b9550506060610e1a8a828b01610d78565b9450506080610e2b8a828b01610d63565b93505060a0610e3c8a828b01610d4e565b92505060c0610e4d8a828b01610d4e565b91505092959891949750929550565b610e658161127e565b82525050565b610e7481611290565b82525050565b610e8381611302565b82525050565b610e92816112c1565b82525050565b6000610ea38261122e565b610ead8185611239565b9350610ebd818560208601611314565b610ec68161140b565b840191505092915050565b6000610ede602283611239565b9150610ee98261141c565b604082019050919050565b6000610f01601b83611239565b9150610f0c8261146b565b602082019050919050565b6000610f24602583611239565b9150610f2f82611494565b604082019050919050565b6000610f47601a83611239565b9150610f52826114e3565b602082019050919050565b6000610f6a602883611239565b9150610f758261150c565b604082019050919050565b6000610f8d602c83611239565b9150610f988261155b565b604082019050919050565b6000610fb0602f83611239565b9150610fbb826115aa565b604082019050919050565b610fcf816112eb565b82525050565b610fde816112f5565b82525050565b6000606082019050610ff96000830186610e5c565b6110066020830185610e5c565b6110136040830184610fc6565b949350505050565b60006020820190506110306000830184610e6b565b92915050565b600060208201905061104b6000830184610e7a565b92915050565b6000602082019050818103600083015261106b8184610e98565b905092915050565b6000602082019050818103600083015261108c81610ed1565b9050919050565b600060208201905081810360008301526110ac81610ef4565b9050919050565b600060208201905081810360008301526110cc81610f17565b9050919050565b600060208201905081810360008301526110ec81610f3a565b9050919050565b6000602082019050818103600083015261110c81610f5d565b9050919050565b6000602082019050818103600083015261112c81610f80565b9050919050565b6000602082019050818103600083015261114c81610fa3565b9050919050565b60006020820190506111686000830184610fc6565b92915050565b60006040820190506111836000830185610fc6565b6111906020830184610e5c565b9392505050565b60006080820190506111ac6000830187610fc6565b6111b96020830186610e89565b6111c66040830185610e5c565b6111d36060830184610e5c565b95945050505050565b60006060820190506111f16000830186610fc6565b6111fe6020830185610fd5565b61120b6040830184610fc6565b949350505050565b60006020820190506112286000830184610fd5565b92915050565b600081519050919050565b600082825260208201905092915050565b6000611255826112eb565b9150611260836112eb565b92508282101561127357611272611379565b5b828203905092915050565b6000611289826112cb565b9050919050565b60008115159050919050565b60006112a78261127e565b9050919050565b60008190506112bc826115f9565b919050565b6000819050919050565b600073ffffffffffffffffffffffffffffffffffffffff82169050919050565b6000819050919050565b600060ff82169050919050565b600061130d826112ae565b9050919050565b60005b83811015611332578082015181840152602081019050611317565b83811115611341576000848401525b50505050565b6000600282049050600182168061135f57607f821691505b60208210811415611373576113726113d7565b5b50919050565b7f4e487b7100000000000000000000000000000000000000000000000000000000600052601160045260246000fd5b7f4e487b7100000000000000000000000000000000000000000000000000000000600052602160045260246000fd5b7f4e487b7100000000000000000000000000000000000000000000000000000000600052602260045260246000fd5b600080fd5b6000601f19601f8301169050919050565b7f4c6f6e6720616e642073686f72742063616e27742062652073616d652070617260008201527f7479000000000000000000000000000000000000000000000000000000000000602082015250565b7f53686f72742063616e2774206265207a65726f20616464726573730000000000600082015250565b7f436f6e74726163742068617320746f20626520696e20496e697469617465642060008201527f7374617465000000000000000000000000000000000000000000000000000000602082015250565b7f4c6f6e672063616e2774206265207a65726f2061646472657373000000000000600082015250565b7f46464120636f6e74726163742068617320746f2065787069726520696e20746860008201527f6520667574757265000000000000000000000000000000000000000000000000602082015250565b7f44656661756c74696e672063616e206f6e6c792068617070656e206265666f7260008201527f652065787069726174696f6e0000000000000000000000000000000000000000602082015250565b7f536574746c656d656e742063616e6e6f74206f6363757265206265666f72652060008201527f65787069726174696f6e20646174650000000000000000000000000000000000602082015250565b6004811061160a576116096113a8565b5b50565b6116168161127e565b811461162157600080fd5b50565b61162d8161129c565b811461163857600080fd5b50565b611644816112eb565b811461164f57600080fd5b50565b61165b816112f5565b811461166657600080fd5b5056fea2646970667358221220c9afa6b9ccd8f359e5bef85fb6eaf8c59648e1ed2c7aedc65b8bef573f023efa64736f6c63430008070033",
  "immutableReferences": {},
  "source": "// SPDX-License-Identifier: UNLICENSED\r\n\r\npragma solidity ^0.8.6;\r\n\r\nimport \"../utils/BokkyPooBahsDateTimeLibrary.sol\";\r\nimport \"@openzeppelin/contracts/access/Ownable.sol\";\r\nimport \"@openzeppelin/contracts/token/ERC20/IERC20.sol\";\r\nimport \"@openzeppelin/contracts/token/ERC20/utils/SafeERC20.sol\";\r\nimport \"@openzeppelin/contracts/utils/math/SafeMath.sol\";\r\n\r\nimport \"../interfaces/IFFAContract.sol\";\r\nimport \"./ChainlinkOracle.sol\";\r\nimport \"./CollateralWallet.sol\";\r\n\r\ncontract FFAContract is IFFAContract{\r\n        using SafeERC20 for IERC20;\r\n\r\n        //state of contract\r\n        enum ContractState {Created, Initiated, Settled, Defaulted}\r\n\r\n        //contract detail\r\n        string private name;\r\n        string private symbol;\r\n        uint8 private decimals;\r\n        ContractState public contractState;\r\n        uint256 private sizeOfContract;\r\n        address private long;\r\n        address private short;\r\n        uint256 private forwardPrice;\r\n        uint8 private riskFreeRate;\r\n        uint256 private expirationDate;\r\n\r\n        //collateral wallets\r\n        CollateralWallet private longWallet;\r\n        CollateralWallet private shortWallet;\r\n\r\n\r\n        //margin requirements\r\n        uint256 private initialMargin;\r\n        uint256 private maintenanceMargin;\r\n\r\n        //valuation\r\n        int256 private value;\r\n        uint256 private valuationDate;\r\n\r\n        //underlying index price oracle\r\n        //address private oracleAddress;\r\n        //bytes32 private jobId;\r\n        ChainlinkOracle internal valuationOracle;\r\n\r\n        //add events to interface\r\n\r\n        constructor(\r\n            string memory _name, \r\n            string memory _symbol, \r\n            //address _oracleAddress,\r\n            //bytes32 _jobId, \r\n            uint8 _decimals,\r\n            uint256 _sizeOfContract\r\n        ) {\r\n            name = _name;\r\n            symbol = _symbol;\r\n            //oracleAddress = _oracleAddress;\r\n            //jobId = _jobId;\r\n            decimals = _decimals;\r\n            sizeOfContract = _sizeOfContract;\r\n            //valuationOracle = new ChainlinkOracle(oracleAddress, jobId);//not sure\r\n            contractState = ContractState.Created;\r\n            emit CreatedContract(decimals, sizeOfContract);\r\n        }\r\n\r\n        //initiation\r\n        function initiateFFA(address _long, address _short, uint256 _forwardPrice, \r\n                             uint8 _riskFreeRate, uint256 _expirationDate,\r\n                             CollateralWallet _longWallet, CollateralWallet _shortWallet) \r\n                             external override returns (bool initiated_) {\r\n            require(_long != address(0), \"Long can't be zero address\");\r\n            require(_short != address(0), \"Short can't be zero address\");\r\n            require(_long != _short, \"Long and short can't be same party\");\r\n            require(BokkyPooBahsDateTimeLibrary.diffSeconds(block.timestamp, _expirationDate) > 0, \"FFA contract has to expire in the future\");\r\n            long = _long;\r\n            short = _short;\r\n            forwardPrice = _forwardPrice;\r\n            riskFreeRate = _riskFreeRate;\r\n            expirationDate = _expirationDate;\r\n            longWallet = _longWallet;\r\n            shortWallet = _shortWallet;\r\n            contractState = ContractState.Initiated;\r\n            //Do i need to deal with allowance?\r\n            emit Initiated(long, short, forwardPrice, riskFreeRate, expirationDate);\r\n            initiated_ = true;\r\n        }\r\n\r\n        //calculate value of contract\r\n        function calcFFAValue() external override returns (uint256 value_) {\r\n            valuationDate = block.timestamp;\r\n            //use valuation oracle here\r\n            \r\n            value_ = 0;\r\n        }\r\n\r\n        //mark to market\r\n        function markToMarket() external override returns (bool markedToMarket_) {\r\n            //check requirements\r\n            require(contractState == ContractState.Initiated, \"Contract has to be in Initiated state\");\r\n            //require(BokkyPooBahsDateTimeLibrary.diffSeconds(block.timestamp, expirationDate) > 0, \"M to m can only happen before expiration\");\r\n            //check allowance if neccessary here\r\n\r\n            //calculate net daily payoff\r\n            int256 dailyPayoff = 0;\r\n\r\n            //delivery within collateral wallets\r\n\r\n            //emit event\r\n            emit MarkedToMarket(block.timestamp, dailyPayoff, long, short);\r\n            markedToMarket_ = true;\r\n        }\r\n\r\n        //settle contract \r\n        function settleAtExpiration() public override returns (bool settled_) {\r\n            require(BokkyPooBahsDateTimeLibrary.diffSeconds(expirationDate, block.timestamp) >= 0, \"Settlement cannot occure before expiration date\" );\r\n            require(contractState == ContractState.Initiated, \"Contract has to be in Initiated state\");\r\n\r\n            //change contract state and emit event\r\n            contractState = ContractState.Settled;\r\n            emit Settled(long, short, expirationDate);\r\n            settled_ = true;\r\n        }\r\n\r\n        //default contract\r\n        function defaultContract(address _defaultingParty) public override returns (bool defaulted_) {\r\n            require(contractState == ContractState.Initiated, \"Contract has to be in Initiated state\");\r\n            require(BokkyPooBahsDateTimeLibrary.diffSeconds(block.timestamp, expirationDate) > 0, \"Defaulting can only happen before expiration\");\r\n\r\n            //change contract state and emit event\r\n            contractState = ContractState.Defaulted;\r\n            emit Defaulted(block.timestamp, _defaultingParty);\r\n            defaulted_ = true;\r\n        }\r\n\r\n        function transferCollateralFrom(CollateralWallet senderWallet, CollateralWallet recipientWallet, uint256 amount, address collateralTokenAddress) internal returns (bool transfered_){\r\n            uint256 originalSenderMappedBalance = senderWallet.getMappedBalance(address(this), collateralTokenAddress);\r\n            require(originalSenderMappedBalance >= amount, \"collateral balance not sufficient\");\r\n\r\n            IERC20(collateralTokenAddress).safeTransfer(address(recipientWallet), amount);\r\n\r\n            //deduct from sender balance mapping\r\n            unchecked {\r\n                uint256 newSenderMappedBalance = originalSenderMappedBalance - amount;\r\n                senderWallet.setNewBalance(address(this), collateralTokenAddress, newSenderMappedBalance);\r\n            }\r\n\r\n            //add to recipient balance mapping\r\n            uint256 newRecipientMappedBalance = recipientWallet.getMappedBalance(address(this), collateralTokenAddress) + amount;\r\n            recipientWallet.setNewBalance(address(this), collateralTokenAddress, newRecipientMappedBalance);\r\n\r\n            transfered_ = true;\r\n        }\r\n\r\n        //what about receive and fallback functions\r\n\r\n        //include getter functions here\r\n        function getContractState() external view returns(string memory) {\r\n            if (contractState == ContractState.Created) {\r\n                return \"Created\";\r\n            } else if (contractState == ContractState.Initiated) {\r\n                return \"Initiated\";\r\n            } else if (contractState == ContractState.Settled) {\r\n                return \"Settled\";\r\n            } else if (contractState == ContractState.Defaulted) {\r\n                return \"Defaulted\";\r\n            } else {\r\n                return \"state error\";\r\n            }\r\n        }\r\n\r\n        function getName() external view returns(string memory) {\r\n            return name;\r\n        }\r\n\r\n        function getSymbol() external view returns(string memory) {\r\n            return symbol;\r\n        }\r\n        \r\n        function getSizeOfContract() external view returns(uint256) {\r\n            return sizeOfContract;\r\n        }\r\n\r\n        function getDecimals() external view returns (uint8) {\r\n            return decimals;\r\n        }\r\n\r\n\r\n\r\n}",
  "sourcePath": "C:\\Users\\Tomi\\OneDrive - The University of Chicago\\Documents\\Securrency\\FuturesExchange\\contracts\\FFAContract.sol",
  "compiler": {
    "name": "solc",
    "version": "0.8.7+commit.e28d00a7.Emscripten.clang"
  },
  "schemaVersion": "3.4.2",
  "updatedAt": "2021-08-11T15:33:45.087Z",
  "devdoc": {
    "kind": "dev",
    "methods": {},
    "version": 1
  },
  "userdoc": {
    "kind": "user",
    "methods": {},
    "version": 1
  }
}