{
  "contractName": "FFAContract",
  "abi": [
    {
      "inputs": [
        {
          "internalType": "string",
          "name": "_name",
          "type": "string"
        },
        {
          "internalType": "string",
          "name": "_symbol",
          "type": "string"
        },
        {
          "internalType": "uint8",
          "name": "_decimals",
          "type": "uint8"
        },
        {
          "internalType": "uint256",
          "name": "_sizeOfContract",
          "type": "uint256"
        }
      ],
      "stateMutability": "nonpayable",
      "type": "constructor"
    },
    {
      "anonymous": false,
      "inputs": [
        {
          "indexed": false,
          "internalType": "uint8",
          "name": "decimals",
          "type": "uint8"
        },
        {
          "indexed": false,
          "internalType": "uint256",
          "name": "sizeOfContract",
          "type": "uint256"
        }
      ],
      "name": "CreatedContract",
      "type": "event"
    },
    {
      "anonymous": false,
      "inputs": [
        {
          "indexed": false,
          "internalType": "uint256",
          "name": "defaultDate",
          "type": "uint256"
        },
        {
          "indexed": false,
          "internalType": "address",
          "name": "defaultingParty",
          "type": "address"
        }
      ],
      "name": "Defaulted",
      "type": "event"
    },
    {
      "anonymous": false,
      "inputs": [
        {
          "indexed": true,
          "internalType": "address",
          "name": "long",
          "type": "address"
        },
        {
          "indexed": true,
          "internalType": "address",
          "name": "short",
          "type": "address"
        },
        {
          "indexed": false,
          "internalType": "uint256",
          "name": "initialForwardPrice",
          "type": "uint256"
        },
        {
          "indexed": false,
          "internalType": "uint8",
          "name": "riskFreeRate",
          "type": "uint8"
        },
        {
          "indexed": false,
          "internalType": "uint256",
          "name": "expirationDate",
          "type": "uint256"
        },
        {
          "indexed": false,
          "internalType": "uint256",
          "name": "sizeOfContract",
          "type": "uint256"
        }
      ],
      "name": "Initiated",
      "type": "event"
    },
    {
      "anonymous": false,
      "inputs": [
        {
          "indexed": false,
          "internalType": "uint256",
          "name": "mtmDate",
          "type": "uint256"
        },
        {
          "indexed": false,
          "internalType": "int256",
          "name": "contractValueChange",
          "type": "int256"
        },
        {
          "indexed": false,
          "internalType": "address",
          "name": "long",
          "type": "address"
        },
        {
          "indexed": false,
          "internalType": "address",
          "name": "short",
          "type": "address"
        }
      ],
      "name": "MarkedToMarket",
      "type": "event"
    },
    {
      "anonymous": false,
      "inputs": [
        {
          "indexed": false,
          "internalType": "address",
          "name": "long",
          "type": "address"
        },
        {
          "indexed": false,
          "internalType": "address",
          "name": "short",
          "type": "address"
        },
        {
          "indexed": false,
          "internalType": "uint256",
          "name": "expirationDate",
          "type": "uint256"
        },
        {
          "indexed": false,
          "internalType": "int256",
          "name": "profitAndLoss",
          "type": "int256"
        }
      ],
      "name": "Settled",
      "type": "event"
    },
    {
      "inputs": [],
      "name": "contractState",
      "outputs": [
        {
          "internalType": "enum FFAContract.ContractState",
          "name": "",
          "type": "uint8"
        }
      ],
      "stateMutability": "view",
      "type": "function"
    },
    {
      "inputs": [
        {
          "internalType": "address",
          "name": "_long",
          "type": "address"
        },
        {
          "internalType": "address",
          "name": "_short",
          "type": "address"
        },
        {
          "internalType": "uint256",
          "name": "_initialForwardPrice",
          "type": "uint256"
        },
        {
          "internalType": "uint8",
          "name": "_riskFreeRate",
          "type": "uint8"
        },
        {
          "internalType": "uint256",
          "name": "_expirationDate",
          "type": "uint256"
        },
        {
          "internalType": "address",
          "name": "_longWallet",
          "type": "address"
        },
        {
          "internalType": "address",
          "name": "_shortWallet",
          "type": "address"
        }
      ],
      "name": "initiateFFA",
      "outputs": [
        {
          "internalType": "bool",
          "name": "initiated_",
          "type": "bool"
        }
      ],
      "stateMutability": "nonpayable",
      "type": "function"
    },
    {
      "inputs": [],
      "name": "calcForwardPrice",
      "outputs": [
        {
          "internalType": "uint256",
          "name": "price_",
          "type": "uint256"
        }
      ],
      "stateMutability": "nonpayable",
      "type": "function"
    },
    {
      "inputs": [],
      "name": "markToMarket",
      "outputs": [
        {
          "internalType": "bool",
          "name": "markedToMarket_",
          "type": "bool"
        }
      ],
      "stateMutability": "nonpayable",
      "type": "function"
    },
    {
      "inputs": [],
      "name": "settleAtExpiration",
      "outputs": [
        {
          "internalType": "bool",
          "name": "settled_",
          "type": "bool"
        }
      ],
      "stateMutability": "nonpayable",
      "type": "function"
    },
    {
      "inputs": [
        {
          "internalType": "address",
          "name": "_defaultingParty",
          "type": "address"
        }
      ],
      "name": "defaultContract",
      "outputs": [
        {
          "internalType": "bool",
          "name": "defaulted_",
          "type": "bool"
        }
      ],
      "stateMutability": "nonpayable",
      "type": "function"
    },
    {
      "inputs": [
        {
          "internalType": "address",
          "name": "senderWalletAddress",
          "type": "address"
        },
        {
          "internalType": "address",
          "name": "recipientWalletAddress",
          "type": "address"
        },
        {
          "internalType": "uint256",
          "name": "amount",
          "type": "uint256"
        },
        {
          "internalType": "address",
          "name": "_collateralTokenAddress",
          "type": "address"
        }
      ],
      "name": "transferCollateralFrom",
      "outputs": [
        {
          "internalType": "bool",
          "name": "transfered_",
          "type": "bool"
        }
      ],
      "stateMutability": "nonpayable",
      "type": "function"
    },
    {
      "inputs": [
        {
          "internalType": "string",
          "name": "_name",
          "type": "string"
        }
      ],
      "name": "createCollateralWallet",
      "outputs": [
        {
          "internalType": "address",
          "name": "walletAddress_",
          "type": "address"
        }
      ],
      "stateMutability": "nonpayable",
      "type": "function"
    },
    {
      "inputs": [
        {
          "internalType": "uint256",
          "name": "index",
          "type": "uint256"
        }
      ],
      "name": "getCollateralWallets",
      "outputs": [
        {
          "internalType": "contract CollateralWallet",
          "name": "",
          "type": "address"
        }
      ],
      "stateMutability": "view",
      "type": "function"
    },
    {
      "inputs": [],
      "name": "getContractState",
      "outputs": [
        {
          "internalType": "string",
          "name": "",
          "type": "string"
        }
      ],
      "stateMutability": "view",
      "type": "function"
    },
    {
      "inputs": [],
      "name": "getName",
      "outputs": [
        {
          "internalType": "string",
          "name": "",
          "type": "string"
        }
      ],
      "stateMutability": "view",
      "type": "function"
    },
    {
      "inputs": [],
      "name": "getSymbol",
      "outputs": [
        {
          "internalType": "string",
          "name": "",
          "type": "string"
        }
      ],
      "stateMutability": "view",
      "type": "function"
    },
    {
      "inputs": [],
      "name": "getSizeOfContract",
      "outputs": [
        {
          "internalType": "uint256",
          "name": "",
          "type": "uint256"
        }
      ],
      "stateMutability": "view",
      "type": "function"
    },
    {
      "inputs": [],
      "name": "getDecimals",
      "outputs": [
        {
          "internalType": "uint8",
          "name": "",
          "type": "uint8"
        }
      ],
      "stateMutability": "view",
      "type": "function"
    },
    {
      "inputs": [],
      "name": "getLong",
      "outputs": [
        {
          "internalType": "address",
          "name": "",
          "type": "address"
        }
      ],
      "stateMutability": "view",
      "type": "function"
    },
    {
      "inputs": [],
      "name": "getShort",
      "outputs": [
        {
          "internalType": "address",
          "name": "",
          "type": "address"
        }
      ],
      "stateMutability": "view",
      "type": "function"
    },
    {
      "inputs": [],
      "name": "getInitialForwardPrice",
      "outputs": [
        {
          "internalType": "uint256",
          "name": "",
          "type": "uint256"
        }
      ],
      "stateMutability": "view",
      "type": "function"
    },
    {
      "inputs": [],
      "name": "getRiskFreeRate",
      "outputs": [
        {
          "internalType": "uint8",
          "name": "",
          "type": "uint8"
        }
      ],
      "stateMutability": "view",
      "type": "function"
    },
    {
      "inputs": [],
      "name": "getExpirationDate",
      "outputs": [
        {
          "internalType": "uint256",
          "name": "",
          "type": "uint256"
        }
      ],
      "stateMutability": "view",
      "type": "function"
    },
    {
      "inputs": [],
      "name": "getLongWalletAddress",
      "outputs": [
        {
          "internalType": "address",
          "name": "",
          "type": "address"
        }
      ],
      "stateMutability": "view",
      "type": "function"
    },
    {
      "inputs": [],
      "name": "getShortWalletAddress",
      "outputs": [
        {
          "internalType": "address",
          "name": "",
          "type": "address"
        }
      ],
      "stateMutability": "view",
      "type": "function"
    }
  ],
  "bytecode": "0x60806040523480156200001157600080fd5b5060405162003e0938038062003e0983398181016040528101906200003791906200026b565b83600090805190602001906200004f9291906200010f565b508260019080519060200190620000689291906200010f565b5081600260006101000a81548160ff021916908360ff160217905550806003819055506000600260016101000a81548160ff02191690836003811115620000b457620000b362000482565b5b02179055507faa7f6ea30e1ba480d45b98b3b903c55e2261e037d7b614e6164b23f23711d104600260009054906101000a900460ff16600354604051620000fd9291906200033d565b60405180910390a15050505062000568565b8280546200011d9062000416565b90600052602060002090601f0160209004810192826200014157600085556200018d565b82601f106200015c57805160ff19168380011785556200018d565b828001600101855582156200018d579182015b828111156200018c5782518255916020019190600101906200016f565b5b5090506200019c9190620001a0565b5090565b5b80821115620001bb576000816000905550600101620001a1565b5090565b6000620001d6620001d08462000393565b6200036a565b905082815260208101848484011115620001f557620001f462000514565b5b62000202848285620003e0565b509392505050565b600082601f8301126200022257620002216200050f565b5b815162000234848260208601620001bf565b91505092915050565b6000815190506200024e8162000534565b92915050565b60008151905062000265816200054e565b92915050565b600080600080608085870312156200028857620002876200051e565b5b600085015167ffffffffffffffff811115620002a957620002a862000519565b5b620002b7878288016200020a565b945050602085015167ffffffffffffffff811115620002db57620002da62000519565b5b620002e9878288016200020a565b9350506040620002fc8782880162000254565b92505060606200030f878288016200023d565b91505092959194509250565b6200032681620003c9565b82525050565b6200033781620003d3565b82525050565b60006040820190506200035460008301856200032c565b6200036360208301846200031b565b9392505050565b60006200037662000389565b90506200038482826200044c565b919050565b6000604051905090565b600067ffffffffffffffff821115620003b157620003b0620004e0565b5b620003bc8262000523565b9050602081019050919050565b6000819050919050565b600060ff82169050919050565b60005b8381101562000400578082015181840152602081019050620003e3565b8381111562000410576000848401525b50505050565b600060028204905060018216806200042f57607f821691505b60208210811415620004465762000445620004b1565b5b50919050565b620004578262000523565b810181811067ffffffffffffffff82111715620004795762000478620004e0565b5b80604052505050565b7f4e487b7100000000000000000000000000000000000000000000000000000000600052602160045260246000fd5b7f4e487b7100000000000000000000000000000000000000000000000000000000600052602260045260246000fd5b7f4e487b7100000000000000000000000000000000000000000000000000000000600052604160045260246000fd5b600080fd5b600080fd5b600080fd5b600080fd5b6000601f19601f8301169050919050565b6200053f81620003c9565b81146200054b57600080fd5b50565b6200055981620003d3565b81146200056557600080fd5b50565b61389180620005786000396000f3fe60806040523480156200001157600080fd5b5060043610620001545760003560e01c806378f8f7d411620000c95780638f896f5011620000875780638f896f5014620003a7578063923123b314620003dd578063a986805814620003ff578063b317f5ec1462000421578063c82ee7ab1462000443578063f0141d8414620004655762000154565b806378f8f7d414620002fd5780637f4e4849146200031f57806385209ee014620003415780638543549114620003635780638d2d8c5e14620003855762000154565b80635a4a905f11620001175780635a4a905f146200022b5780635c16a60d14620002615780635edf7d8b1462000297578063708febc814620002b957806370a4cd3414620002db5762000154565b806315070401146200015957806317d7de7c146200017b5780633448f659146200019d57806347d3fa6d14620001d35780634bdcfab814620001f5575b600080fd5b6200016362000487565b60405162000172919062001e0e565b60405180910390f35b6200018562000521565b60405162000194919062001e0e565b60405180910390f35b620001bb6004803603810190620001b591906200188e565b620005bb565b604051620001ca919062001db7565b60405180910390f35b620001dd62000701565b604051620001ec919062001ce3565b60405180910390f35b6200021360048036038101906200020d919062001932565b6200072b565b60405162000222919062001db7565b60405180910390f35b62000249600480360381019062000243919062001a68565b62000b0e565b60405162000258919062001dd4565b60405180910390f35b6200027f600480360381019062000279919062001a17565b62000b59565b6040516200028e919062001ce3565b60405180910390f35b620002a162000bfe565b604051620002b0919062001f64565b60405180910390f35b620002c362000c08565b604051620002d2919062001ce3565b60405180910390f35b620002e562000c32565b604051620002f4919062001db7565b60405180910390f35b6200030762000e00565b60405162000316919062001db7565b60405180910390f35b62000329620010e0565b60405162000338919062001e0e565b60405180910390f35b6200034b62001321565b6040516200035a919062001df1565b60405180910390f35b6200036d62001334565b6040516200037c919062002048565b60405180910390f35b6200038f6200134b565b6040516200039e919062001f64565b60405180910390f35b620003c56004803603810190620003bf9190620018c0565b62001355565b604051620003d4919062001db7565b60405180910390f35b620003e7620016e4565b604051620003f6919062001f64565b60405180910390f35b62000409620016ee565b60405162000418919062001f64565b60405180910390f35b6200042b620016fe565b6040516200043a919062001ce3565b60405180910390f35b6200044d62001728565b6040516200045c919062001ce3565b60405180910390f35b6200046f62001752565b6040516200047e919062002048565b60405180910390f35b60606001805462000498906200240b565b80601f0160208091040260200160405190810160405280929190818152602001828054620004c6906200240b565b8015620005175780601f10620004eb5761010080835404028352916020019162000517565b820191906000526020600020905b815481529060010190602001808311620004f957829003601f168201915b5050505050905090565b60606000805462000532906200240b565b80601f016020809104026020016040519081016040528092919081815260200182805462000560906200240b565b8015620005b15780601f106200058557610100808354040283529160200191620005b1565b820191906000526020600020905b8154815290600101906020018083116200059357829003601f168201915b5050505050905090565b600060016003811115620005d457620005d3620024a6565b5b600260019054906101000a900460ff166003811115620005f957620005f8620024a6565b5b146200063c576040517f08c379a0000000000000000000000000000000000000000000000000000000008152600401620006339062001e76565b60405180910390fd5b60006200064c4260085462001769565b116200068f576040517f08c379a0000000000000000000000000000000000000000000000000000000008152600401620006869062001edc565b60405180910390fd5b6003600260016101000a81548160ff02191690836003811115620006b857620006b7620024a6565b5b02179055507f724b99e866949401e1553ae6e0da07c7e24b0308581155730cbe34363752bd3f4283604051620006f092919062001f81565b60405180910390a160019050919050565b6000600460009054906101000a900473ffffffffffffffffffffffffffffffffffffffff16905090565b60008073ffffffffffffffffffffffffffffffffffffffff168873ffffffffffffffffffffffffffffffffffffffff1614156200079f576040517f08c379a0000000000000000000000000000000000000000000000000000000008152600401620007969062001e98565b60405180910390fd5b600073ffffffffffffffffffffffffffffffffffffffff168773ffffffffffffffffffffffffffffffffffffffff16141562000812576040517f08c379a0000000000000000000000000000000000000000000000000000000008152600401620008099062001e54565b60405180910390fd5b8673ffffffffffffffffffffffffffffffffffffffff168873ffffffffffffffffffffffffffffffffffffffff16141562000884576040517f08c379a00000000000000000000000000000000000000000000000000000000081526004016200087b9062001e32565b60405180910390fd5b600062000892428662001769565b11620008d5576040517f08c379a0000000000000000000000000000000000000000000000000000000008152600401620008cc9062001eba565b60405180910390fd5b87600460006101000a81548173ffffffffffffffffffffffffffffffffffffffff021916908373ffffffffffffffffffffffffffffffffffffffff16021790555086600560006101000a81548173ffffffffffffffffffffffffffffffffffffffff021916908373ffffffffffffffffffffffffffffffffffffffff16021790555085600681905550600654600e8190555084600760006101000a81548160ff021916908360ff1602179055508360088190555082600960006101000a81548173ffffffffffffffffffffffffffffffffffffffff021916908373ffffffffffffffffffffffffffffffffffffffff16021790555081600a60006101000a81548173ffffffffffffffffffffffffffffffffffffffff021916908373ffffffffffffffffffffffffffffffffffffffff1602179055506001600260016101000a81548160ff0219169083600381111562000a345762000a33620024a6565b5b0217905550600560009054906101000a900473ffffffffffffffffffffffffffffffffffffffff1673ffffffffffffffffffffffffffffffffffffffff16600460009054906101000a900473ffffffffffffffffffffffffffffffffffffffff1673ffffffffffffffffffffffffffffffffffffffff167fe167e5abe88ec3070c89f7b0cb7c3bbfd41661105e276e6c44816ad932cfc913600654600760009054906101000a900460ff1660085460035460405162000af7949392919062001ffb565b60405180910390a360019050979650505050505050565b60006011828154811062000b275762000b2662002504565b5b9060005260206000200160009054906101000a900473ffffffffffffffffffffffffffffffffffffffff169050919050565b60008160405162000b6a906200178f565b62000b76919062001e0e565b604051809103906000f08015801562000b93573d6000803e3d6000fd5b5090506011819080600181540180825580915050600190039060005260206000200160009091909190916101000a81548173ffffffffffffffffffffffffffffffffffffffff021916908373ffffffffffffffffffffffffffffffffffffffff160217905550919050565b6000600854905090565b6000600a60009054906101000a900473ffffffffffffffffffffffffffffffffffffffff16905090565b60008062000c436008544262001769565b101562000c87576040517f08c379a000000000000000000000000000000000000000000000000000000000815260040162000c7e9062001f42565b60405180910390fd5b6001600381111562000c9e5762000c9d620024a6565b5b600260019054906101000a900460ff16600381111562000cc35762000cc2620024a6565b5b1462000d06576040517f08c379a000000000000000000000000000000000000000000000000000000000815260040162000cfd9062001e76565b60405180910390fd5b600060035460065462000d1a919062002264565b90506000600354600e5462000d30919062002264565b90506000828262000d429190620022c5565b905060028060016101000a81548160ff0219169083600381111562000d6c5762000d6b620024a6565b5b02179055507f408d2f82a05767182d614a96957816d6acbd66a392006f7aafee6d91fc880f90600460009054906101000a900473ffffffffffffffffffffffffffffffffffffffff16600560009054906101000a900473ffffffffffffffffffffffffffffffffffffffff166008548460405162000dee949392919062001d6a565b60405180910390a16001935050505090565b60006001600381111562000e195762000e18620024a6565b5b600260019054906101000a900460ff16600381111562000e3e5762000e3d620024a6565b5b1462000e81576040517f08c379a000000000000000000000000000000000000000000000000000000000815260040162000e789062001e76565b60405180910390fd5b600062000e914260085462001769565b1162000ed4576040517f08c379a000000000000000000000000000000000000000000000000000000000815260040162000ecb9062001f20565b60405180910390fd5b600062000ee0620016ee565b905060006003548262000ef4919062002264565b90506000600354600e5462000f0a919062002264565b90506000818362000f1c9190620022c5565b9050600081131562000f9e5762000f9c600a60009054906101000a900473ffffffffffffffffffffffffffffffffffffffff16600960009054906101000a900473ffffffffffffffffffffffffffffffffffffffff1683600b60009054906101000a900473ffffffffffffffffffffffffffffffffffffffff1662001355565b505b60008112156200104b5762001049600960009054906101000a900473ffffffffffffffffffffffffffffffffffffffff16600a60009054906101000a900473ffffffffffffffffffffffffffffffffffffffff16837fffffffffffffffffffffffffffffffffffffffffffffffffffffffffffffffff6200102091906200213d565b600b60009054906101000a900473ffffffffffffffffffffffffffffffffffffffff1662001355565b505b83600e819055507f63f10cc602ea66cf5c2a09a756a193c86ab46c33a794eb8d9aee6cf9426553a84282600460009054906101000a900473ffffffffffffffffffffffffffffffffffffffff16600560009054906101000a900473ffffffffffffffffffffffffffffffffffffffff16604051620010cd949392919062001fae565b60405180910390a1600194505050505090565b606060006003811115620010f957620010f8620024a6565b5b600260019054906101000a900460ff1660038111156200111e576200111d620024a6565b5b141562001163576040518060400160405280600781526020017f437265617465640000000000000000000000000000000000000000000000000081525090506200131e565b600160038111156200117a5762001179620024a6565b5b600260019054906101000a900460ff1660038111156200119f576200119e620024a6565b5b1415620011e4576040518060400160405280600981526020017f496e69746961746564000000000000000000000000000000000000000000000081525090506200131e565b60026003811115620011fb57620011fa620024a6565b5b600260019054906101000a900460ff16600381111562001220576200121f620024a6565b5b141562001265576040518060400160405280600781526020017f536574746c65640000000000000000000000000000000000000000000000000081525090506200131e565b6003808111156200127b576200127a620024a6565b5b600260019054906101000a900460ff166003811115620012a0576200129f620024a6565b5b1415620012e5576040518060400160405280600981526020017f44656661756c746564000000000000000000000000000000000000000000000081525090506200131e565b6040518060400160405280600b81526020017f7374617465206572726f7200000000000000000000000000000000000000000081525090505b90565b600260019054906101000a900460ff1681565b6000600760009054906101000a900460ff16905090565b6000600654905090565b600080859050600085905060008273ffffffffffffffffffffffffffffffffffffffff16632a1e15e730876040518363ffffffff1660e01b81526004016200139f92919062001d00565b60206040518083038186803b158015620013b857600080fd5b505afa158015620013cd573d6000803e3d6000fd5b505050506040513d601f19601f82011682018060405250810190620013f3919062001a9a565b9050858110156200143b576040517f08c379a0000000000000000000000000000000000000000000000000000000008152600401620014329062001efe565b60405180910390fd5b8273ffffffffffffffffffffffffffffffffffffffff166322604de28630896040518463ffffffff1660e01b81526004016200147a9392919062001d2d565b600060405180830381600087803b1580156200149557600080fd5b505af1158015620014aa573d6000803e3d6000fd5b505050508473ffffffffffffffffffffffffffffffffffffffff166323b872dd8989896040518463ffffffff1660e01b8152600401620014ed9392919062001d2d565b602060405180830381600087803b1580156200150857600080fd5b505af11580156200151d573d6000803e3d6000fd5b505050506040513d601f19601f82011682018060405250810190620015439190620019e5565b50600086820390508373ffffffffffffffffffffffffffffffffffffffff1663dfeff6613088846040518463ffffffff1660e01b81526004016200158a9392919062001d2d565b600060405180830381600087803b158015620015a557600080fd5b505af1158015620015ba573d6000803e3d6000fd5b50505050506000868373ffffffffffffffffffffffffffffffffffffffff16632a1e15e730896040518363ffffffff1660e01b8152600401620015ff92919062001d00565b60206040518083038186803b1580156200161857600080fd5b505afa1580156200162d573d6000803e3d6000fd5b505050506040513d601f19601f8201168201806040525081019062001653919062001a9a565b6200165f9190620020e0565b90508273ffffffffffffffffffffffffffffffffffffffff1663dfeff6613088846040518463ffffffff1660e01b8152600401620016a09392919062001d2d565b600060405180830381600087803b158015620016bb57600080fd5b505af1158015620016d0573d6000803e3d6000fd5b505050506001945050505050949350505050565b6000600354905090565b600042600f8190555060f3905090565b6000600560009054906101000a900473ffffffffffffffffffffffffffffffffffffffff16905090565b6000600960009054906101000a900473ffffffffffffffffffffffffffffffffffffffff16905090565b6000600260009054906101000a900460ff16905090565b6000818311156200177957600080fd5b8282620017879190620022c5565b905092915050565b610fda806200288283390190565b6000620017b4620017ae846200208e565b62002065565b905082815260208101848484011115620017d357620017d262002567565b5b620017e0848285620023c6565b509392505050565b600081359050620017f98162002819565b92915050565b600081519050620018108162002833565b92915050565b600082601f8301126200182e576200182d62002562565b5b8135620018408482602086016200179d565b91505092915050565b6000813590506200185a816200284d565b92915050565b60008151905062001871816200284d565b92915050565b600081359050620018888162002867565b92915050565b600060208284031215620018a757620018a662002571565b5b6000620018b784828501620017e8565b91505092915050565b60008060008060808587031215620018dd57620018dc62002571565b5b6000620018ed87828801620017e8565b94505060206200190087828801620017e8565b9350506040620019138782880162001849565b92505060606200192687828801620017e8565b91505092959194509250565b600080600080600080600060e0888a03121562001954576200195362002571565b5b6000620019648a828b01620017e8565b9750506020620019778a828b01620017e8565b96505060406200198a8a828b0162001849565b95505060606200199d8a828b0162001877565b9450506080620019b08a828b0162001849565b93505060a0620019c38a828b01620017e8565b92505060c0620019d68a828b01620017e8565b91505092959891949750929550565b600060208284031215620019fe57620019fd62002571565b5b600062001a0e84828501620017ff565b91505092915050565b60006020828403121562001a305762001a2f62002571565b5b600082013567ffffffffffffffff81111562001a515762001a506200256c565b5b62001a5f8482850162001816565b91505092915050565b60006020828403121562001a815762001a8062002571565b5b600062001a918482850162001849565b91505092915050565b60006020828403121562001ab35762001ab262002571565b5b600062001ac38482850162001860565b91505092915050565b62001ad78162002300565b82525050565b62001ae88162002314565b82525050565b62001af98162002376565b82525050565b62001b0a816200238a565b82525050565b62001b1b8162002335565b82525050565b600062001b2e82620020c4565b62001b3a8185620020cf565b935062001b4c818560208601620023d5565b62001b578162002576565b840191505092915050565b600062001b71602283620020cf565b915062001b7e8262002587565b604082019050919050565b600062001b98601b83620020cf565b915062001ba582620025d6565b602082019050919050565b600062001bbf602583620020cf565b915062001bcc82620025ff565b604082019050919050565b600062001be6601a83620020cf565b915062001bf3826200264e565b602082019050919050565b600062001c0d602883620020cf565b915062001c1a8262002677565b604082019050919050565b600062001c34602c83620020cf565b915062001c4182620026c6565b604082019050919050565b600062001c5b602183620020cf565b915062001c688262002715565b604082019050919050565b600062001c82602883620020cf565b915062001c8f8262002764565b604082019050919050565b600062001ca9602f83620020cf565b915062001cb682620027b3565b604082019050919050565b62001ccc816200235f565b82525050565b62001cdd8162002369565b82525050565b600060208201905062001cfa600083018462001acc565b92915050565b600060408201905062001d17600083018562001acc565b62001d26602083018462001acc565b9392505050565b600060608201905062001d44600083018662001acc565b62001d53602083018562001acc565b62001d62604083018462001cc1565b949350505050565b600060808201905062001d81600083018762001acc565b62001d90602083018662001acc565b62001d9f604083018562001cc1565b62001dae606083018462001b10565b95945050505050565b600060208201905062001dce600083018462001add565b92915050565b600060208201905062001deb600083018462001aee565b92915050565b600060208201905062001e08600083018462001aff565b92915050565b6000602082019050818103600083015262001e2a818462001b21565b905092915050565b6000602082019050818103600083015262001e4d8162001b62565b9050919050565b6000602082019050818103600083015262001e6f8162001b89565b9050919050565b6000602082019050818103600083015262001e918162001bb0565b9050919050565b6000602082019050818103600083015262001eb38162001bd7565b9050919050565b6000602082019050818103600083015262001ed58162001bfe565b9050919050565b6000602082019050818103600083015262001ef78162001c25565b9050919050565b6000602082019050818103600083015262001f198162001c4c565b9050919050565b6000602082019050818103600083015262001f3b8162001c73565b9050919050565b6000602082019050818103600083015262001f5d8162001c9a565b9050919050565b600060208201905062001f7b600083018462001cc1565b92915050565b600060408201905062001f98600083018562001cc1565b62001fa7602083018462001acc565b9392505050565b600060808201905062001fc5600083018762001cc1565b62001fd4602083018662001b10565b62001fe3604083018562001acc565b62001ff2606083018462001acc565b95945050505050565b600060808201905062002012600083018762001cc1565b62002021602083018662001cd2565b62002030604083018562001cc1565b6200203f606083018462001cc1565b95945050505050565b60006020820190506200205f600083018462001cd2565b92915050565b60006200207162002084565b90506200207f828262002441565b919050565b6000604051905090565b600067ffffffffffffffff821115620020ac57620020ab62002533565b5b620020b78262002576565b9050602081019050919050565b600081519050919050565b600082825260208201905092915050565b6000620020ed826200235f565b9150620020fa836200235f565b9250827fffffffffffffffffffffffffffffffffffffffffffffffffffffffffffffffff0382111562002132576200213162002477565b5b828201905092915050565b60006200214a8262002335565b9150620021578362002335565b9250827f7fffffffffffffffffffffffffffffffffffffffffffffffffffffffffffffff048211600084136000841316161562002199576200219862002477565b5b817f80000000000000000000000000000000000000000000000000000000000000000583126000841260008413161615620021d957620021d862002477565b5b827f8000000000000000000000000000000000000000000000000000000000000000058212600084136000841216161562002219576200221862002477565b5b827f7fffffffffffffffffffffffffffffffffffffffffffffffffffffffffffffff058212600084126000841216161562002259576200225862002477565b5b828202905092915050565b600062002271826200235f565b91506200227e836200235f565b9250817fffffffffffffffffffffffffffffffffffffffffffffffffffffffffffffffff0483118215151615620022ba57620022b962002477565b5b828202905092915050565b6000620022d2826200235f565b9150620022df836200235f565b925082821015620022f557620022f462002477565b5b828203905092915050565b60006200230d826200233f565b9050919050565b60008115159050919050565b6000819050620023308262002802565b919050565b6000819050919050565b600073ffffffffffffffffffffffffffffffffffffffff82169050919050565b6000819050919050565b600060ff82169050919050565b600062002383826200239e565b9050919050565b6000620023978262002320565b9050919050565b6000620023ab82620023b2565b9050919050565b6000620023bf826200233f565b9050919050565b82818337600083830152505050565b60005b83811015620023f5578082015181840152602081019050620023d8565b8381111562002405576000848401525b50505050565b600060028204905060018216806200242457607f821691505b602082108114156200243b576200243a620024d5565b5b50919050565b6200244c8262002576565b810181811067ffffffffffffffff821117156200246e576200246d62002533565b5b80604052505050565b7f4e487b7100000000000000000000000000000000000000000000000000000000600052601160045260246000fd5b7f4e487b7100000000000000000000000000000000000000000000000000000000600052602160045260246000fd5b7f4e487b7100000000000000000000000000000000000000000000000000000000600052602260045260246000fd5b7f4e487b7100000000000000000000000000000000000000000000000000000000600052603260045260246000fd5b7f4e487b7100000000000000000000000000000000000000000000000000000000600052604160045260246000fd5b600080fd5b600080fd5b600080fd5b600080fd5b6000601f19601f8301169050919050565b7f4c6f6e6720616e642073686f72742063616e27742062652073616d652070617260008201527f7479000000000000000000000000000000000000000000000000000000000000602082015250565b7f53686f72742063616e2774206265207a65726f20616464726573730000000000600082015250565b7f436f6e74726163742068617320746f20626520696e20496e697469617465642060008201527f7374617465000000000000000000000000000000000000000000000000000000602082015250565b7f4c6f6e672063616e2774206265207a65726f2061646472657373000000000000600082015250565b7f46464120636f6e74726163742068617320746f2065787069726520696e20746860008201527f6520667574757265000000000000000000000000000000000000000000000000602082015250565b7f44656661756c74696e672063616e206f6e6c792068617070656e206265666f7260008201527f652065787069726174696f6e0000000000000000000000000000000000000000602082015250565b7f636f6c6c61746572616c2062616c616e6365206e6f742073756666696369656e60008201527f7400000000000000000000000000000000000000000000000000000000000000602082015250565b7f4d20746f206d2063616e206f6e6c792068617070656e206265666f726520657860008201527f7069726174696f6e000000000000000000000000000000000000000000000000602082015250565b7f536574746c656d656e742063616e6e6f74206f6363757265206265666f72652060008201527f65787069726174696f6e20646174650000000000000000000000000000000000602082015250565b60048110620028165762002815620024a6565b5b50565b620028248162002300565b81146200283057600080fd5b50565b6200283e8162002314565b81146200284a57600080fd5b50565b62002858816200235f565b81146200286457600080fd5b50565b620028728162002369565b81146200287e57600080fd5b5056fe60806040523480156200001157600080fd5b5060405162000fda38038062000fda83398181016040528101906200003791906200028c565b60008060006101000a81548160ff02191690831515021790555062000071620000656200009160201b60201c565b6200009960201b60201c565b8060019080519060200190620000899291906200015e565b505062000461565b600033905090565b60008060019054906101000a900473ffffffffffffffffffffffffffffffffffffffff16905081600060016101000a81548173ffffffffffffffffffffffffffffffffffffffff021916908373ffffffffffffffffffffffffffffffffffffffff1602179055508173ffffffffffffffffffffffffffffffffffffffff168173ffffffffffffffffffffffffffffffffffffffff167f8be0079c531659141344cd1fd0a4f28419497f9722a3daafe3b4186f6b6457e060405160405180910390a35050565b8280546200016c9062000372565b90600052602060002090601f016020900481019282620001905760008555620001dc565b82601f10620001ab57805160ff1916838001178555620001dc565b82800160010185558215620001dc579182015b82811115620001db578251825591602001919060010190620001be565b5b509050620001eb9190620001ef565b5090565b5b808211156200020a576000816000905550600101620001f0565b5090565b6000620002256200021f8462000306565b620002dd565b90508281526020810184848401111562000244576200024362000441565b5b620002518482856200033c565b509392505050565b600082601f8301126200027157620002706200043c565b5b8151620002838482602086016200020e565b91505092915050565b600060208284031215620002a557620002a46200044b565b5b600082015167ffffffffffffffff811115620002c657620002c562000446565b5b620002d48482850162000259565b91505092915050565b6000620002e9620002fc565b9050620002f78282620003a8565b919050565b6000604051905090565b600067ffffffffffffffff8211156200032457620003236200040d565b5b6200032f8262000450565b9050602081019050919050565b60005b838110156200035c5780820151818401526020810190506200033f565b838111156200036c576000848401525b50505050565b600060028204905060018216806200038b57607f821691505b60208210811415620003a257620003a1620003de565b5b50919050565b620003b38262000450565b810181811067ffffffffffffffff82111715620003d557620003d46200040d565b5b80604052505050565b7f4e487b7100000000000000000000000000000000000000000000000000000000600052602260045260246000fd5b7f4e487b7100000000000000000000000000000000000000000000000000000000600052604160045260246000fd5b600080fd5b600080fd5b600080fd5b600080fd5b6000601f19601f8301169050919050565b610b6980620004716000396000f3fe608060405234801561001057600080fd5b50600436106100885760003560e01c8063715018a61161005b578063715018a6146101155780638da5cb5b1461011f578063dfeff6611461013d578063f2fde38b1461015957610088565b806317d7de7c1461008d57806322604de2146100ab5780632a1e15e7146100c75780635c975abb146100f7575b600080fd5b610095610175565b6040516100a291906108eb565b60405180910390f35b6100c560048036038101906100c09190610760565b610207565b005b6100e160048036038101906100dc9190610720565b61029a565b6040516100ee919061094d565b60405180910390f35b6100ff610321565b60405161010c91906108d0565b60405180910390f35b61011d610337565b005b6101276103bf565b604051610134919061088c565b60405180910390f35b61015760048036038101906101529190610760565b6103e8565b005b610173600480360381019061016e91906106f3565b6104ef565b005b606060018054610184906109ff565b80601f01602080910402602001604051908101604052809291908181526020018280546101b0906109ff565b80156101fd5780601f106101d2576101008083540402835291602001916101fd565b820191906000526020600020905b8154815290600101906020018083116101e057829003601f168201915b5050505050905090565b8273ffffffffffffffffffffffffffffffffffffffff1663095ea7b383836040518363ffffffff1660e01b81526004016102429291906108a7565b602060405180830381600087803b15801561025c57600080fd5b505af1158015610270573d6000803e3d6000fd5b505050506040513d601f19601f8201168201806040525081019061029491906107b3565b50505050565b6000600260008473ffffffffffffffffffffffffffffffffffffffff1673ffffffffffffffffffffffffffffffffffffffff16815260200190815260200160002060008373ffffffffffffffffffffffffffffffffffffffff1673ffffffffffffffffffffffffffffffffffffffff16815260200190815260200160002054905092915050565b60008060009054906101000a900460ff16905090565b61033f6105e7565b73ffffffffffffffffffffffffffffffffffffffff1661035d6103bf565b73ffffffffffffffffffffffffffffffffffffffff16146103b3576040517f08c379a00000000000000000000000000000000000000000000000000000000081526004016103aa9061092d565b60405180910390fd5b6103bd60006105ef565b565b60008060019054906101000a900473ffffffffffffffffffffffffffffffffffffffff16905090565b80600260008573ffffffffffffffffffffffffffffffffffffffff1673ffffffffffffffffffffffffffffffffffffffff16815260200190815260200160002060008473ffffffffffffffffffffffffffffffffffffffff1673ffffffffffffffffffffffffffffffffffffffff1681526020019081526020016000208190555080600360008473ffffffffffffffffffffffffffffffffffffffff1673ffffffffffffffffffffffffffffffffffffffff16815260200190815260200160002060008573ffffffffffffffffffffffffffffffffffffffff1673ffffffffffffffffffffffffffffffffffffffff16815260200190815260200160002081905550505050565b6104f76105e7565b73ffffffffffffffffffffffffffffffffffffffff166105156103bf565b73ffffffffffffffffffffffffffffffffffffffff161461056b576040517f08c379a00000000000000000000000000000000000000000000000000000000081526004016105629061092d565b60405180910390fd5b600073ffffffffffffffffffffffffffffffffffffffff168173ffffffffffffffffffffffffffffffffffffffff1614156105db576040517f08c379a00000000000000000000000000000000000000000000000000000000081526004016105d29061090d565b60405180910390fd5b6105e4816105ef565b50565b600033905090565b60008060019054906101000a900473ffffffffffffffffffffffffffffffffffffffff16905081600060016101000a81548173ffffffffffffffffffffffffffffffffffffffff021916908373ffffffffffffffffffffffffffffffffffffffff1602179055508173ffffffffffffffffffffffffffffffffffffffff168173ffffffffffffffffffffffffffffffffffffffff167f8be0079c531659141344cd1fd0a4f28419497f9722a3daafe3b4186f6b6457e060405160405180910390a35050565b6000813590506106c381610aee565b92915050565b6000815190506106d881610b05565b92915050565b6000813590506106ed81610b1c565b92915050565b60006020828403121561070957610708610a60565b5b6000610717848285016106b4565b91505092915050565b6000806040838503121561073757610736610a60565b5b6000610745858286016106b4565b9250506020610756858286016106b4565b9150509250929050565b60008060006060848603121561077957610778610a60565b5b6000610787868287016106b4565b9350506020610798868287016106b4565b92505060406107a9868287016106de565b9150509250925092565b6000602082840312156107c9576107c8610a60565b5b60006107d7848285016106c9565b91505092915050565b6107e981610984565b82525050565b6107f881610996565b82525050565b600061080982610968565b6108138185610973565b93506108238185602086016109cc565b61082c81610a65565b840191505092915050565b6000610844602683610973565b915061084f82610a76565b604082019050919050565b6000610867602083610973565b915061087282610ac5565b602082019050919050565b610886816109c2565b82525050565b60006020820190506108a160008301846107e0565b92915050565b60006040820190506108bc60008301856107e0565b6108c9602083018461087d565b9392505050565b60006020820190506108e560008301846107ef565b92915050565b6000602082019050818103600083015261090581846107fe565b905092915050565b6000602082019050818103600083015261092681610837565b9050919050565b600060208201905081810360008301526109468161085a565b9050919050565b6000602082019050610962600083018461087d565b92915050565b600081519050919050565b600082825260208201905092915050565b600061098f826109a2565b9050919050565b60008115159050919050565b600073ffffffffffffffffffffffffffffffffffffffff82169050919050565b6000819050919050565b60005b838110156109ea5780820151818401526020810190506109cf565b838111156109f9576000848401525b50505050565b60006002820490506001821680610a1757607f821691505b60208210811415610a2b57610a2a610a31565b5b50919050565b7f4e487b7100000000000000000000000000000000000000000000000000000000600052602260045260246000fd5b600080fd5b6000601f19601f8301169050919050565b7f4f776e61626c653a206e6577206f776e657220697320746865207a65726f206160008201527f6464726573730000000000000000000000000000000000000000000000000000602082015250565b7f4f776e61626c653a2063616c6c6572206973206e6f7420746865206f776e6572600082015250565b610af781610984565b8114610b0257600080fd5b50565b610b0e81610996565b8114610b1957600080fd5b50565b610b25816109c2565b8114610b3057600080fd5b5056fea264697066735822122081d665426aa59f0fbf7816983f0553a3b920660e753bc53043b74cb75ee7f17f64736f6c63430008070033a264697066735822122004fb7354f8eee25caaa9ca42e71021e795eb1db0639feacff29fb3fda78be3a064736f6c63430008070033",
  "immutableReferences": {},
  "source": "// SPDX-License-Identifier: UNLICENSED\r\n\r\npragma solidity ^0.8.6;\r\n\r\nimport \"../utils/BokkyPooBahsDateTimeLibrary.sol\";\r\nimport \"@openzeppelin/contracts/access/Ownable.sol\";\r\nimport \"@openzeppelin/contracts/token/ERC20/IERC20.sol\";\r\nimport \"@openzeppelin/contracts/token/ERC20/utils/SafeERC20.sol\";\r\nimport \"@openzeppelin/contracts/utils/math/SafeMath.sol\";\r\n\r\nimport \"../interfaces/IFFAContract.sol\";\r\nimport \"./ChainlinkOracle.sol\";\r\nimport \"./CollateralWallet.sol\";\r\n\r\ncontract FFAContract is IFFAContract{\r\n        using SafeERC20 for IERC20;\r\n\r\n        //state of contract\r\n        enum ContractState {Created, Initiated, Settled, Defaulted}\r\n\r\n        //contract detail\r\n        string private name;\r\n        string private symbol;\r\n        uint8 private decimals;\r\n        ContractState public contractState;\r\n        uint256 private sizeOfContract;\r\n        address private long;\r\n        address private short;\r\n        uint256 private initialForwardPrice;\r\n        uint8 private riskFreeRate;\r\n        uint256 private expirationDate;\r\n\r\n        //collateral wallets\r\n        address private longWallet;\r\n        address private shortWallet;\r\n        address private collateralTokenAddress;\r\n\r\n\r\n        //margin requirements\r\n        uint256 private exposureMarginRate;\r\n        uint256 private maintenanceMarginRate;\r\n\r\n        //M2M\r\n        uint256 private prevDayClosingPrice;\r\n\r\n        //valuation\r\n        //int256 private contractValue;\r\n        uint256 private pricingDate;\r\n\r\n        //underlying index price oracle\r\n        //address private oracleAddress;\r\n        //bytes32 private jobId;\r\n        ChainlinkOracle internal valuationOracle;\r\n\r\n        constructor(\r\n            string memory _name, \r\n            string memory _symbol, \r\n            //address _oracleAddress,\r\n            //bytes32 _jobId, \r\n            uint8 _decimals,\r\n            uint256 _sizeOfContract\r\n            //address _collateralTokenAddress\r\n        ) {\r\n            name = _name;\r\n            symbol = _symbol;\r\n            //oracleAddress = _oracleAddress;\r\n            //jobId = _jobId;\r\n            decimals = _decimals;\r\n            sizeOfContract = _sizeOfContract;\r\n            //collateralTokenAddress = _collateralTokenAddress;\r\n            //valuationOracle = new ChainlinkOracle(oracleAddress, jobId);//not sure\r\n            contractState = ContractState.Created;\r\n            emit CreatedContract(decimals, sizeOfContract);\r\n        }\r\n\r\n        //initiation\r\n        function initiateFFA(address _long, address _short, uint256 _initialForwardPrice, \r\n                             uint8 _riskFreeRate, uint256 _expirationDate,\r\n                             address _longWallet, address _shortWallet) \r\n                             external override returns (bool initiated_) {\r\n            require(_long != address(0), \"Long can't be zero address\");\r\n            require(_short != address(0), \"Short can't be zero address\");\r\n            require(_long != _short, \"Long and short can't be same party\");\r\n            require(BokkyPooBahsDateTimeLibrary.diffSeconds(block.timestamp, _expirationDate) > 0, \"FFA contract has to expire in the future\");\r\n            long = _long;\r\n            short = _short;\r\n            //call valuation API to get initialForwardPrice!!!!!!!!!!!!!11\r\n            initialForwardPrice = _initialForwardPrice;\r\n            prevDayClosingPrice = initialForwardPrice;\r\n            riskFreeRate = _riskFreeRate;\r\n            expirationDate = _expirationDate;\r\n            longWallet = _longWallet;\r\n            shortWallet = _shortWallet;\r\n            contractState = ContractState.Initiated;\r\n            //Do i need to deal with allowance?\r\n            emit Initiated(long, short, initialForwardPrice, riskFreeRate, expirationDate, sizeOfContract);\r\n            initiated_ = true;\r\n        }\r\n\r\n        //calculate value of contract\r\n        /*\r\n        function calcFFAValue() external override returns (uint256 value_) {\r\n            pricingDate = block.timestamp;\r\n            //use valuation oracle here\r\n            \r\n            value_ = 0;\r\n        }*/\r\n\r\n        //calculate forward price\r\n        function calcForwardPrice() public returns (uint256 price_) {\r\n            pricingDate = block.timestamp;\r\n\r\n            //call valuation oracle here\r\n            price_ = 243;\r\n        }\r\n\r\n        /*\r\n            * Initial Margin = Maintenance Margin + Exposure Margin\r\n            * A margin call is issued when a party's cash balance drops below the maintenance margin.\r\n            * M2M is calculated based on the previous day's closing price. Based on the M2M each party's\r\n            * account is credited or debited daily. \r\n            * At settlement calculate the P&L = Final Contract Value - Initial Contract Value\r\n            * https://zerodha.com/varsity/chapter/margin-m2m/\r\n        */\r\n        //mark to market\r\n        function markToMarket() external override returns (bool markedToMarket_) {\r\n            require(contractState == ContractState.Initiated, \"Contract has to be in Initiated state\");\r\n            require(BokkyPooBahsDateTimeLibrary.diffSeconds(block.timestamp, expirationDate) > 0, \"M to m can only happen before expiration\");\r\n\r\n            //valuation\r\n            uint256 currentForwardPrice = calcForwardPrice();\r\n            uint256 newContractValue = currentForwardPrice * sizeOfContract;\r\n            uint256 oldContractValue = prevDayClosingPrice * sizeOfContract;\r\n            //contract value change\r\n            int256 contractValueChange = int256(newContractValue - oldContractValue);\r\n\r\n            //delivery within collateral wallets\r\n            if (contractValueChange > 0) {\r\n                transferCollateralFrom(shortWallet, longWallet, uint256(contractValueChange), collateralTokenAddress);\r\n            }\r\n            if (contractValueChange < 0) {\r\n                transferCollateralFrom(longWallet, shortWallet, uint256(-1 * contractValueChange), collateralTokenAddress);\r\n            }\r\n\r\n            //update prevDayClosingPrice to current price\r\n            prevDayClosingPrice = currentForwardPrice;\r\n\r\n            //emit event\r\n            emit MarkedToMarket(block.timestamp, contractValueChange, long, short);\r\n            markedToMarket_ = true;\r\n        }\r\n\r\n        //payoff at settlement\r\n        /*\r\n        function settlementPayoff() private returns (bool settlementPayoff_) {\r\n            require(BokkyPooBahsDateTimeLibrary.diffSeconds(expirationDate, block.timestamp) >= 0, \"Settlement cannot occure before expiration date\" );\r\n            require(contractState == ContractState.Initiated, \"Contract has to be in Initiated state\");\r\n\r\n        }*/\r\n\r\n        //settle contract \r\n        function settleAtExpiration() external override returns (bool settled_) {\r\n            require(BokkyPooBahsDateTimeLibrary.diffSeconds(expirationDate, block.timestamp) >= 0, \"Settlement cannot occure before expiration date\" );\r\n            require(contractState == ContractState.Initiated, \"Contract has to be in Initiated state\");\r\n\r\n            //calculate P&L\r\n            uint256 initialContractValue = initialForwardPrice * sizeOfContract;\r\n            uint256 finalContractValue = prevDayClosingPrice * sizeOfContract;\r\n            int256 profitAndLoss = int256(finalContractValue - initialContractValue);\r\n\r\n            //change contract state and emit event\r\n            contractState = ContractState.Settled;\r\n            emit Settled(long, short, expirationDate, profitAndLoss);\r\n            settled_ = true;\r\n        }\r\n\r\n        //default contract\r\n        function defaultContract(address _defaultingParty) public override returns (bool defaulted_) {\r\n            require(contractState == ContractState.Initiated, \"Contract has to be in Initiated state\");\r\n            require(BokkyPooBahsDateTimeLibrary.diffSeconds(block.timestamp, expirationDate) > 0, \"Defaulting can only happen before expiration\");\r\n\r\n            //change contract state and emit event\r\n            contractState = ContractState.Defaulted;\r\n            emit Defaulted(block.timestamp, _defaultingParty);\r\n            defaulted_ = true;\r\n        }\r\n\r\n        function transferCollateralFrom(address senderWalletAddress, address recipientWalletAddress, uint256 amount, address _collateralTokenAddress) public returns (bool transfered_){\r\n            CollateralWallet senderWallet = CollateralWallet(senderWalletAddress);\r\n            CollateralWallet recipientWallet = CollateralWallet(recipientWalletAddress);\r\n            uint256 originalSenderMappedBalance = senderWallet.getMappedBalance(address(this), _collateralTokenAddress);\r\n            require(originalSenderMappedBalance >= amount, \"collateral balance not sufficient\");\r\n\r\n            //approval might need fixing\r\n            senderWallet.approveSpender(_collateralTokenAddress, address(this), amount);\r\n            IERC20(_collateralTokenAddress).transferFrom(senderWalletAddress, recipientWalletAddress, amount);\r\n\r\n            //deduct from sender balance mapping\r\n            unchecked {\r\n                uint256 newSenderMappedBalance = originalSenderMappedBalance - amount;\r\n                senderWallet.setNewBalance(address(this), _collateralTokenAddress, newSenderMappedBalance);\r\n            }\r\n\r\n            //add to recipient balance mapping\r\n            uint256 newRecipientMappedBalance = recipientWallet.getMappedBalance(address(this), _collateralTokenAddress) + amount;\r\n            recipientWallet.setNewBalance(address(this), _collateralTokenAddress, newRecipientMappedBalance);\r\n \r\n            transfered_ = true;\r\n        }\r\n\r\n        //these are for testing\r\n        /////////////////////////////////////\r\n        address[] private collateralWallets;\r\n\r\n        function createCollateralWallet(string memory _name) external returns(address walletAddress_) {\r\n            walletAddress_ = address(new CollateralWallet(_name));\r\n            collateralWallets.push(walletAddress_);\r\n        }\r\n\r\n        function getCollateralWallets(uint256 index) external view returns(CollateralWallet) {\r\n            return CollateralWallet(collateralWallets[index]);\r\n        }\r\n        //////////////////////////////////////\r\n\r\n        //what about receive and fallback functions?\r\n\r\n        //getter functions\r\n        function getContractState() external view returns(string memory) {\r\n            if (contractState == ContractState.Created) {\r\n                return \"Created\";\r\n            } else if (contractState == ContractState.Initiated) {\r\n                return \"Initiated\";\r\n            } else if (contractState == ContractState.Settled) {\r\n                return \"Settled\";\r\n            } else if (contractState == ContractState.Defaulted) {\r\n                return \"Defaulted\";\r\n            } else {\r\n                return \"state error\";\r\n            }\r\n        }\r\n\r\n        function getName() external view returns(string memory) {\r\n            return name;\r\n        }\r\n\r\n        function getSymbol() external view returns(string memory) {\r\n            return symbol;\r\n        }\r\n        \r\n        function getSizeOfContract() external view returns(uint256) {\r\n            return sizeOfContract;\r\n        }\r\n\r\n        function getDecimals() external view returns (uint8) {\r\n            return decimals;\r\n        }\r\n\r\n        function getLong() external view returns (address) {\r\n            return long;\r\n        }\r\n\r\n        function getShort() external view returns (address) {\r\n            return short;\r\n        }\r\n\r\n        function getInitialForwardPrice() external view returns (uint256) {\r\n            return initialForwardPrice;\r\n        }\r\n\r\n        function getRiskFreeRate() external view returns (uint8) {\r\n            return riskFreeRate;\r\n        }\r\n\r\n        function getExpirationDate() external view returns (uint256) {\r\n            return expirationDate;\r\n        }\r\n\r\n        function getLongWalletAddress() external view returns (address) {\r\n            return longWallet;\r\n        }\r\n\r\n        function getShortWalletAddress() external view returns (address) {\r\n            return shortWallet;\r\n        }\r\n\r\n\r\n\r\n\r\n}",
  "sourcePath": "C:\\Users\\Tomi\\OneDrive - The University of Chicago\\Documents\\Securrency\\FuturesExchange\\contracts\\FFAContract.sol",
  "compiler": {
    "name": "solc",
    "version": "0.8.7+commit.e28d00a7.Emscripten.clang"
  },
  "schemaVersion": "3.4.2",
  "updatedAt": "2021-08-18T08:44:21.523Z",
  "devdoc": {
    "kind": "dev",
    "methods": {},
    "version": 1
  },
  "userdoc": {
    "kind": "user",
    "methods": {},
    "version": 1
  }
}