{
  "contractName": "FFAContract",
  "abi": [
    {
      "inputs": [
        {
          "internalType": "string",
          "name": "_name",
          "type": "string"
        },
        {
          "internalType": "string",
          "name": "_symbol",
          "type": "string"
        },
        {
          "internalType": "uint8",
          "name": "_decimals",
          "type": "uint8"
        },
        {
          "internalType": "uint256",
          "name": "_sizeOfContract",
          "type": "uint256"
        },
        {
          "internalType": "uint8",
          "name": "_exposureMarginRate",
          "type": "uint8"
        },
        {
          "internalType": "uint8",
          "name": "_maintenanceMarginRate",
          "type": "uint8"
        }
      ],
      "stateMutability": "nonpayable",
      "type": "constructor"
    },
    {
      "anonymous": false,
      "inputs": [
        {
          "indexed": false,
          "internalType": "uint8",
          "name": "decimals",
          "type": "uint8"
        },
        {
          "indexed": false,
          "internalType": "uint256",
          "name": "sizeOfContract",
          "type": "uint256"
        }
      ],
      "name": "CreatedContract",
      "type": "event"
    },
    {
      "anonymous": false,
      "inputs": [
        {
          "indexed": false,
          "internalType": "uint256",
          "name": "defaultDate",
          "type": "uint256"
        },
        {
          "indexed": false,
          "internalType": "address",
          "name": "defaultingParty",
          "type": "address"
        }
      ],
      "name": "Defaulted",
      "type": "event"
    },
    {
      "anonymous": false,
      "inputs": [
        {
          "indexed": true,
          "internalType": "address",
          "name": "long",
          "type": "address"
        },
        {
          "indexed": true,
          "internalType": "address",
          "name": "short",
          "type": "address"
        },
        {
          "indexed": false,
          "internalType": "uint256",
          "name": "initialForwardPrice",
          "type": "uint256"
        },
        {
          "indexed": false,
          "internalType": "uint8",
          "name": "riskFreeRate",
          "type": "uint8"
        },
        {
          "indexed": false,
          "internalType": "uint256",
          "name": "expirationDate",
          "type": "uint256"
        },
        {
          "indexed": false,
          "internalType": "uint256",
          "name": "sizeOfContract",
          "type": "uint256"
        }
      ],
      "name": "Initiated",
      "type": "event"
    },
    {
      "anonymous": false,
      "inputs": [
        {
          "indexed": false,
          "internalType": "uint256",
          "name": "mtmDate",
          "type": "uint256"
        },
        {
          "indexed": false,
          "internalType": "int256",
          "name": "contractValueChange",
          "type": "int256"
        },
        {
          "indexed": false,
          "internalType": "address",
          "name": "long",
          "type": "address"
        },
        {
          "indexed": false,
          "internalType": "address",
          "name": "short",
          "type": "address"
        }
      ],
      "name": "MarkedToMarket",
      "type": "event"
    },
    {
      "anonymous": false,
      "inputs": [
        {
          "indexed": false,
          "internalType": "address",
          "name": "long",
          "type": "address"
        },
        {
          "indexed": false,
          "internalType": "address",
          "name": "short",
          "type": "address"
        },
        {
          "indexed": false,
          "internalType": "uint256",
          "name": "expirationDate",
          "type": "uint256"
        },
        {
          "indexed": false,
          "internalType": "int256",
          "name": "profitAndLoss",
          "type": "int256"
        }
      ],
      "name": "Settled",
      "type": "event"
    },
    {
      "inputs": [],
      "name": "contractState",
      "outputs": [
        {
          "internalType": "enum FFAContract.ContractState",
          "name": "",
          "type": "uint8"
        }
      ],
      "stateMutability": "view",
      "type": "function",
      "constant": true
    },
    {
      "inputs": [
        {
          "internalType": "address",
          "name": "_long",
          "type": "address"
        },
        {
          "internalType": "address",
          "name": "_short",
          "type": "address"
        },
        {
          "internalType": "uint256",
          "name": "_initialForwardPrice",
          "type": "uint256"
        },
        {
          "internalType": "uint8",
          "name": "_riskFreeRate",
          "type": "uint8"
        },
        {
          "internalType": "uint256",
          "name": "_expirationDate",
          "type": "uint256"
        },
        {
          "internalType": "address",
          "name": "_longWallet",
          "type": "address"
        },
        {
          "internalType": "address",
          "name": "_shortWallet",
          "type": "address"
        }
      ],
      "name": "initiateFFA",
      "outputs": [
        {
          "internalType": "bool",
          "name": "initiated_",
          "type": "bool"
        }
      ],
      "stateMutability": "nonpayable",
      "type": "function"
    },
    {
      "inputs": [],
      "name": "calcForwardPrice",
      "outputs": [
        {
          "internalType": "uint256",
          "name": "price_",
          "type": "uint256"
        }
      ],
      "stateMutability": "nonpayable",
      "type": "function"
    },
    {
      "inputs": [],
      "name": "markToMarket",
      "outputs": [
        {
          "internalType": "bool",
          "name": "markedToMarket_",
          "type": "bool"
        }
      ],
      "stateMutability": "nonpayable",
      "type": "function"
    },
    {
      "inputs": [],
      "name": "settleAtExpiration",
      "outputs": [
        {
          "internalType": "bool",
          "name": "settled_",
          "type": "bool"
        }
      ],
      "stateMutability": "nonpayable",
      "type": "function"
    },
    {
      "inputs": [
        {
          "internalType": "address",
          "name": "_defaultingParty",
          "type": "address"
        }
      ],
      "name": "defaultContract",
      "outputs": [
        {
          "internalType": "bool",
          "name": "defaulted_",
          "type": "bool"
        }
      ],
      "stateMutability": "nonpayable",
      "type": "function"
    },
    {
      "inputs": [
        {
          "internalType": "address",
          "name": "senderWalletAddress",
          "type": "address"
        },
        {
          "internalType": "address",
          "name": "recipientWalletAddress",
          "type": "address"
        },
        {
          "internalType": "uint256",
          "name": "amount",
          "type": "uint256"
        },
        {
          "internalType": "address",
          "name": "_collateralTokenAddress",
          "type": "address"
        }
      ],
      "name": "transferCollateralFrom",
      "outputs": [
        {
          "internalType": "bool",
          "name": "transfered_",
          "type": "bool"
        }
      ],
      "stateMutability": "nonpayable",
      "type": "function"
    },
    {
      "inputs": [
        {
          "internalType": "string",
          "name": "_name",
          "type": "string"
        }
      ],
      "name": "createCollateralWallet",
      "outputs": [
        {
          "internalType": "contract CollateralWallet",
          "name": "",
          "type": "address"
        }
      ],
      "stateMutability": "nonpayable",
      "type": "function"
    },
    {
      "inputs": [],
      "name": "getContractState",
      "outputs": [
        {
          "internalType": "string",
          "name": "",
          "type": "string"
        }
      ],
      "stateMutability": "view",
      "type": "function",
      "constant": true
    },
    {
      "inputs": [],
      "name": "getName",
      "outputs": [
        {
          "internalType": "string",
          "name": "",
          "type": "string"
        }
      ],
      "stateMutability": "view",
      "type": "function",
      "constant": true
    },
    {
      "inputs": [],
      "name": "getSymbol",
      "outputs": [
        {
          "internalType": "string",
          "name": "",
          "type": "string"
        }
      ],
      "stateMutability": "view",
      "type": "function",
      "constant": true
    },
    {
      "inputs": [],
      "name": "getSizeOfContract",
      "outputs": [
        {
          "internalType": "uint256",
          "name": "",
          "type": "uint256"
        }
      ],
      "stateMutability": "view",
      "type": "function",
      "constant": true
    },
    {
      "inputs": [],
      "name": "getDecimals",
      "outputs": [
        {
          "internalType": "uint8",
          "name": "",
          "type": "uint8"
        }
      ],
      "stateMutability": "view",
      "type": "function",
      "constant": true
    },
    {
      "inputs": [],
      "name": "getLong",
      "outputs": [
        {
          "internalType": "address",
          "name": "",
          "type": "address"
        }
      ],
      "stateMutability": "view",
      "type": "function",
      "constant": true
    },
    {
      "inputs": [],
      "name": "getShort",
      "outputs": [
        {
          "internalType": "address",
          "name": "",
          "type": "address"
        }
      ],
      "stateMutability": "view",
      "type": "function",
      "constant": true
    },
    {
      "inputs": [],
      "name": "getInitialForwardPrice",
      "outputs": [
        {
          "internalType": "uint256",
          "name": "",
          "type": "uint256"
        }
      ],
      "stateMutability": "view",
      "type": "function",
      "constant": true
    },
    {
      "inputs": [],
      "name": "getRiskFreeRate",
      "outputs": [
        {
          "internalType": "uint8",
          "name": "",
          "type": "uint8"
        }
      ],
      "stateMutability": "view",
      "type": "function",
      "constant": true
    },
    {
      "inputs": [],
      "name": "getExpirationDate",
      "outputs": [
        {
          "internalType": "uint256",
          "name": "",
          "type": "uint256"
        }
      ],
      "stateMutability": "view",
      "type": "function",
      "constant": true
    },
    {
      "inputs": [],
      "name": "getLongWalletAddress",
      "outputs": [
        {
          "internalType": "address",
          "name": "",
          "type": "address"
        }
      ],
      "stateMutability": "view",
      "type": "function",
      "constant": true
    },
    {
      "inputs": [],
      "name": "getShortWalletAddress",
      "outputs": [
        {
          "internalType": "address",
          "name": "",
          "type": "address"
        }
      ],
      "stateMutability": "view",
      "type": "function",
      "constant": true
    }
  ],
  "bytecode": "0x60806040523480156200001157600080fd5b506040516200403a3803806200403a8339818101604052810190620000379190620002a3565b85600090805190602001906200004f92919062000147565b5084600190805190602001906200006892919062000147565b5083600260006101000a81548160ff021916908360ff1602179055508260038190555081600b60146101000a81548160ff021916908360ff16021790555080600b60156101000a81548160ff021916908360ff1602179055506000600260016101000a81548160ff02191690836003811115620000ea57620000e9620004e4565b5b02179055507faa7f6ea30e1ba480d45b98b3b903c55e2261e037d7b614e6164b23f23711d104600260009054906101000a900460ff16600354604051620001339291906200039f565b60405180910390a1505050505050620005ca565b828054620001559062000478565b90600052602060002090601f016020900481019282620001795760008555620001c5565b82601f106200019457805160ff1916838001178555620001c5565b82800160010185558215620001c5579182015b82811115620001c4578251825591602001919060010190620001a7565b5b509050620001d49190620001d8565b5090565b5b80821115620001f3576000816000905550600101620001d9565b5090565b60006200020e6200020884620003f5565b620003cc565b9050828152602081018484840111156200022d576200022c62000576565b5b6200023a84828562000442565b509392505050565b600082601f8301126200025a576200025962000571565b5b81516200026c848260208601620001f7565b91505092915050565b600081519050620002868162000596565b92915050565b6000815190506200029d81620005b0565b92915050565b60008060008060008060c08789031215620002c357620002c262000580565b5b600087015167ffffffffffffffff811115620002e457620002e36200057b565b5b620002f289828a0162000242565b965050602087015167ffffffffffffffff8111156200031657620003156200057b565b5b6200032489828a0162000242565b95505060406200033789828a016200028c565b94505060606200034a89828a0162000275565b93505060806200035d89828a016200028c565b92505060a06200037089828a016200028c565b9150509295509295509295565b62000388816200042b565b82525050565b620003998162000435565b82525050565b6000604082019050620003b660008301856200038e565b620003c560208301846200037d565b9392505050565b6000620003d8620003eb565b9050620003e68282620004ae565b919050565b6000604051905090565b600067ffffffffffffffff82111562000413576200041262000542565b5b6200041e8262000585565b9050602081019050919050565b6000819050919050565b600060ff82169050919050565b60005b838110156200046257808201518184015260208101905062000445565b8381111562000472576000848401525b50505050565b600060028204905060018216806200049157607f821691505b60208210811415620004a857620004a762000513565b5b50919050565b620004b98262000585565b810181811067ffffffffffffffff82111715620004db57620004da62000542565b5b80604052505050565b7f4e487b7100000000000000000000000000000000000000000000000000000000600052602160045260246000fd5b7f4e487b7100000000000000000000000000000000000000000000000000000000600052602260045260246000fd5b7f4e487b7100000000000000000000000000000000000000000000000000000000600052604160045260246000fd5b600080fd5b600080fd5b600080fd5b600080fd5b6000601f19601f8301169050919050565b620005a1816200042b565b8114620005ad57600080fd5b50565b620005bb8162000435565b8114620005c757600080fd5b50565b613a6080620005da6000396000f3fe60806040523480156200001157600080fd5b5060043610620001485760003560e01c80637f4e484911620000bd578063923123b3116200007b578063923123b3146200039b578063a986805814620003bd578063b317f5ec14620003df578063c82ee7ab1462000401578063f0141d8414620004235762000148565b80637f4e484914620002dd57806385209ee014620002ff5780638543549114620003215780638d2d8c5e14620003435780638f896f5014620003655762000148565b80635c16a60d116200010b5780635c16a60d146200021f5780635edf7d8b1462000255578063708febc8146200027757806370a4cd34146200029957806378f8f7d414620002bb5762000148565b806315070401146200014d57806317d7de7c146200016f5780633448f659146200019157806347d3fa6d14620001c75780634bdcfab814620001e9575b600080fd5b6200015762000445565b60405162000166919062001eb9565b60405180910390f35b62000179620004df565b60405162000188919062001eb9565b60405180910390f35b620001af6004803603810190620001a99190620018f6565b62000579565b604051620001be919062001e62565b60405180910390f35b620001d1620006bf565b604051620001e0919062001d8e565b60405180910390f35b6200020760048036038101906200020191906200199a565b620006e9565b60405162000216919062001e62565b60405180910390f35b6200023d600480360381019062000237919062001a7f565b62000c24565b6040516200024c919062001e7f565b60405180910390f35b6200025f62000c66565b6040516200026e919062002075565b60405180910390f35b6200028162000c70565b60405162000290919062001d8e565b60405180910390f35b620002a362000c9a565b604051620002b2919062001e62565b60405180910390f35b620002c562000e68565b604051620002d4919062001e62565b60405180910390f35b620002e762001148565b604051620002f6919062001eb9565b60405180910390f35b6200030962001389565b60405162000318919062001e9c565b60405180910390f35b6200032b6200139c565b6040516200033a919062002159565b60405180910390f35b6200034d620013b3565b6040516200035c919062002075565b60405180910390f35b6200038360048036038101906200037d919062001928565b620013bd565b60405162000392919062001e62565b60405180910390f35b620003a56200174c565b604051620003b4919062002075565b60405180910390f35b620003c762001756565b604051620003d6919062002075565b60405180910390f35b620003e962001766565b604051620003f8919062001d8e565b60405180910390f35b6200040b62001790565b6040516200041a919062001d8e565b60405180910390f35b6200042d620017ba565b6040516200043c919062002159565b60405180910390f35b60606001805462000456906200251c565b80601f016020809104026020016040519081016040528092919081815260200182805462000484906200251c565b8015620004d55780601f10620004a957610100808354040283529160200191620004d5565b820191906000526020600020905b815481529060010190602001808311620004b757829003601f168201915b5050505050905090565b606060008054620004f0906200251c565b80601f01602080910402602001604051908101604052809291908181526020018280546200051e906200251c565b80156200056f5780601f1062000543576101008083540402835291602001916200056f565b820191906000526020600020905b8154815290600101906020018083116200055157829003601f168201915b5050505050905090565b600060016003811115620005925762000591620025b7565b5b600260019054906101000a900460ff166003811115620005b757620005b6620025b7565b5b14620005fa576040517f08c379a0000000000000000000000000000000000000000000000000000000008152600401620005f19062001f21565b60405180910390fd5b60006200060a42600854620017d1565b116200064d576040517f08c379a0000000000000000000000000000000000000000000000000000000008152600401620006449062001f87565b60405180910390fd5b6003600260016101000a81548160ff02191690836003811115620006765762000675620025b7565b5b02179055507f724b99e866949401e1553ae6e0da07c7e24b0308581155730cbe34363752bd3f4283604051620006ae92919062002092565b60405180910390a160019050919050565b6000600460009054906101000a900473ffffffffffffffffffffffffffffffffffffffff16905090565b60008073ffffffffffffffffffffffffffffffffffffffff168873ffffffffffffffffffffffffffffffffffffffff1614156200075d576040517f08c379a0000000000000000000000000000000000000000000000000000000008152600401620007549062001f43565b60405180910390fd5b600073ffffffffffffffffffffffffffffffffffffffff168773ffffffffffffffffffffffffffffffffffffffff161415620007d0576040517f08c379a0000000000000000000000000000000000000000000000000000000008152600401620007c79062001eff565b60405180910390fd5b8673ffffffffffffffffffffffffffffffffffffffff168873ffffffffffffffffffffffffffffffffffffffff16141562000842576040517f08c379a0000000000000000000000000000000000000000000000000000000008152600401620008399062001edd565b60405180910390fd5b600073ffffffffffffffffffffffffffffffffffffffff168373ffffffffffffffffffffffffffffffffffffffff161415620008b5576040517f08c379a0000000000000000000000000000000000000000000000000000000008152600401620008ac9062001fa9565b60405180910390fd5b600073ffffffffffffffffffffffffffffffffffffffff168273ffffffffffffffffffffffffffffffffffffffff16141562000928576040517f08c379a00000000000000000000000000000000000000000000000000000000081526004016200091f906200200f565b60405180910390fd5b8173ffffffffffffffffffffffffffffffffffffffff168373ffffffffffffffffffffffffffffffffffffffff1614156200099a576040517f08c379a0000000000000000000000000000000000000000000000000000000008152600401620009919062002053565b60405180910390fd5b6000620009a84286620017d1565b11620009eb576040517f08c379a0000000000000000000000000000000000000000000000000000000008152600401620009e29062001f65565b60405180910390fd5b87600460006101000a81548173ffffffffffffffffffffffffffffffffffffffff021916908373ffffffffffffffffffffffffffffffffffffffff16021790555086600560006101000a81548173ffffffffffffffffffffffffffffffffffffffff021916908373ffffffffffffffffffffffffffffffffffffffff16021790555085600681905550600654600c8190555084600760006101000a81548160ff021916908360ff1602179055508360088190555082600960006101000a81548173ffffffffffffffffffffffffffffffffffffffff021916908373ffffffffffffffffffffffffffffffffffffffff16021790555081600a60006101000a81548173ffffffffffffffffffffffffffffffffffffffff021916908373ffffffffffffffffffffffffffffffffffffffff1602179055506001600260016101000a81548160ff0219169083600381111562000b4a5762000b49620025b7565b5b0217905550600560009054906101000a900473ffffffffffffffffffffffffffffffffffffffff1673ffffffffffffffffffffffffffffffffffffffff16600460009054906101000a900473ffffffffffffffffffffffffffffffffffffffff1673ffffffffffffffffffffffffffffffffffffffff167fe167e5abe88ec3070c89f7b0cb7c3bbfd41661105e276e6c44816ad932cfc913600654600760009054906101000a900460ff1660085460035460405162000c0d94939291906200210c565b60405180910390a360019050979650505050505050565b60008160405162000c3590620017f7565b62000c41919062001eb9565b604051809103906000f08015801562000c5e573d6000803e3d6000fd5b509050919050565b6000600854905090565b6000600a60009054906101000a900473ffffffffffffffffffffffffffffffffffffffff16905090565b60008062000cab60085442620017d1565b101562000cef576040517f08c379a000000000000000000000000000000000000000000000000000000000815260040162000ce69062002031565b60405180910390fd5b6001600381111562000d065762000d05620025b7565b5b600260019054906101000a900460ff16600381111562000d2b5762000d2a620025b7565b5b1462000d6e576040517f08c379a000000000000000000000000000000000000000000000000000000000815260040162000d659062001f21565b60405180910390fd5b600060035460065462000d82919062002375565b90506000600354600c5462000d98919062002375565b90506000828262000daa9190620023d6565b905060028060016101000a81548160ff0219169083600381111562000dd45762000dd3620025b7565b5b02179055507f408d2f82a05767182d614a96957816d6acbd66a392006f7aafee6d91fc880f90600460009054906101000a900473ffffffffffffffffffffffffffffffffffffffff16600560009054906101000a900473ffffffffffffffffffffffffffffffffffffffff166008548460405162000e56949392919062001e15565b60405180910390a16001935050505090565b60006001600381111562000e815762000e80620025b7565b5b600260019054906101000a900460ff16600381111562000ea65762000ea5620025b7565b5b1462000ee9576040517f08c379a000000000000000000000000000000000000000000000000000000000815260040162000ee09062001f21565b60405180910390fd5b600062000ef942600854620017d1565b1162000f3c576040517f08c379a000000000000000000000000000000000000000000000000000000000815260040162000f339062001fed565b60405180910390fd5b600062000f4862001756565b905060006003548262000f5c919062002375565b90506000600354600c5462000f72919062002375565b90506000818362000f849190620023d6565b90506000811315620010065762001004600a60009054906101000a900473ffffffffffffffffffffffffffffffffffffffff16600960009054906101000a900473ffffffffffffffffffffffffffffffffffffffff1683600b60009054906101000a900473ffffffffffffffffffffffffffffffffffffffff16620013bd565b505b6000811215620010b357620010b1600960009054906101000a900473ffffffffffffffffffffffffffffffffffffffff16600a60009054906101000a900473ffffffffffffffffffffffffffffffffffffffff16837fffffffffffffffffffffffffffffffffffffffffffffffffffffffffffffffff6200108891906200224e565b600b60009054906101000a900473ffffffffffffffffffffffffffffffffffffffff16620013bd565b505b83600c819055507f63f10cc602ea66cf5c2a09a756a193c86ab46c33a794eb8d9aee6cf9426553a84282600460009054906101000a900473ffffffffffffffffffffffffffffffffffffffff16600560009054906101000a900473ffffffffffffffffffffffffffffffffffffffff16604051620011359493929190620020bf565b60405180910390a1600194505050505090565b606060006003811115620011615762001160620025b7565b5b600260019054906101000a900460ff166003811115620011865762001185620025b7565b5b1415620011cb576040518060400160405280600781526020017f4372656174656400000000000000000000000000000000000000000000000000815250905062001386565b60016003811115620011e257620011e1620025b7565b5b600260019054906101000a900460ff166003811115620012075762001206620025b7565b5b14156200124c576040518060400160405280600981526020017f496e697469617465640000000000000000000000000000000000000000000000815250905062001386565b60026003811115620012635762001262620025b7565b5b600260019054906101000a900460ff166003811115620012885762001287620025b7565b5b1415620012cd576040518060400160405280600781526020017f536574746c656400000000000000000000000000000000000000000000000000815250905062001386565b600380811115620012e357620012e2620025b7565b5b600260019054906101000a900460ff166003811115620013085762001307620025b7565b5b14156200134d576040518060400160405280600981526020017f44656661756c7465640000000000000000000000000000000000000000000000815250905062001386565b6040518060400160405280600b81526020017f7374617465206572726f7200000000000000000000000000000000000000000081525090505b90565b600260019054906101000a900460ff1681565b6000600760009054906101000a900460ff16905090565b6000600654905090565b600080859050600085905060008273ffffffffffffffffffffffffffffffffffffffff16632a1e15e730876040518363ffffffff1660e01b81526004016200140792919062001dab565b60206040518083038186803b1580156200142057600080fd5b505afa15801562001435573d6000803e3d6000fd5b505050506040513d601f19601f820116820180604052508101906200145b919062001ad0565b905085811015620014a3576040517f08c379a00000000000000000000000000000000000000000000000000000000081526004016200149a9062001fcb565b60405180910390fd5b8273ffffffffffffffffffffffffffffffffffffffff166322604de28630896040518463ffffffff1660e01b8152600401620014e29392919062001dd8565b600060405180830381600087803b158015620014fd57600080fd5b505af115801562001512573d6000803e3d6000fd5b505050508473ffffffffffffffffffffffffffffffffffffffff166323b872dd8989896040518463ffffffff1660e01b8152600401620015559392919062001dd8565b602060405180830381600087803b1580156200157057600080fd5b505af115801562001585573d6000803e3d6000fd5b505050506040513d601f19601f82011682018060405250810190620015ab919062001a4d565b50600086820390508373ffffffffffffffffffffffffffffffffffffffff1663dfeff6613088846040518463ffffffff1660e01b8152600401620015f29392919062001dd8565b600060405180830381600087803b1580156200160d57600080fd5b505af115801562001622573d6000803e3d6000fd5b50505050506000868373ffffffffffffffffffffffffffffffffffffffff16632a1e15e730896040518363ffffffff1660e01b81526004016200166792919062001dab565b60206040518083038186803b1580156200168057600080fd5b505afa15801562001695573d6000803e3d6000fd5b505050506040513d601f19601f82011682018060405250810190620016bb919062001ad0565b620016c79190620021f1565b90508273ffffffffffffffffffffffffffffffffffffffff1663dfeff6613088846040518463ffffffff1660e01b8152600401620017089392919062001dd8565b600060405180830381600087803b1580156200172357600080fd5b505af115801562001738573d6000803e3d6000fd5b505050506001945050505050949350505050565b6000600354905090565b600042600d8190555060f3905090565b6000600560009054906101000a900473ffffffffffffffffffffffffffffffffffffffff16905090565b6000600960009054906101000a900473ffffffffffffffffffffffffffffffffffffffff16905090565b6000600260009054906101000a900460ff16905090565b600081831115620017e157600080fd5b8282620017ef9190620023d6565b905092915050565b610fda8062002a5183390190565b60006200181c62001816846200219f565b62002176565b9050828152602081018484840111156200183b576200183a62002649565b5b62001848848285620024d7565b509392505050565b6000813590506200186181620029e8565b92915050565b600081519050620018788162002a02565b92915050565b600082601f83011262001896576200189562002644565b5b8135620018a884826020860162001805565b91505092915050565b600081359050620018c28162002a1c565b92915050565b600081519050620018d98162002a1c565b92915050565b600081359050620018f08162002a36565b92915050565b6000602082840312156200190f576200190e62002653565b5b60006200191f8482850162001850565b91505092915050565b6000806000806080858703121562001945576200194462002653565b5b6000620019558782880162001850565b9450506020620019688782880162001850565b93505060406200197b87828801620018b1565b92505060606200198e8782880162001850565b91505092959194509250565b600080600080600080600060e0888a031215620019bc57620019bb62002653565b5b6000620019cc8a828b0162001850565b9750506020620019df8a828b0162001850565b9650506040620019f28a828b01620018b1565b955050606062001a058a828b01620018df565b945050608062001a188a828b01620018b1565b93505060a062001a2b8a828b0162001850565b92505060c062001a3e8a828b0162001850565b91505092959891949750929550565b60006020828403121562001a665762001a6562002653565b5b600062001a768482850162001867565b91505092915050565b60006020828403121562001a985762001a9762002653565b5b600082013567ffffffffffffffff81111562001ab95762001ab86200264e565b5b62001ac7848285016200187e565b91505092915050565b60006020828403121562001ae95762001ae862002653565b5b600062001af984828501620018c8565b91505092915050565b62001b0d8162002411565b82525050565b62001b1e8162002425565b82525050565b62001b2f8162002487565b82525050565b62001b40816200249b565b82525050565b62001b518162002446565b82525050565b600062001b6482620021d5565b62001b708185620021e0565b935062001b82818560208601620024e6565b62001b8d8162002658565b840191505092915050565b600062001ba7602283620021e0565b915062001bb48262002669565b604082019050919050565b600062001bce601b83620021e0565b915062001bdb82620026b8565b602082019050919050565b600062001bf5602583620021e0565b915062001c0282620026e1565b604082019050919050565b600062001c1c601a83620021e0565b915062001c298262002730565b602082019050919050565b600062001c43602883620021e0565b915062001c508262002759565b604082019050919050565b600062001c6a602c83620021e0565b915062001c7782620027a8565b604082019050919050565b600062001c91602483620021e0565b915062001c9e82620027f7565b604082019050919050565b600062001cb8602183620021e0565b915062001cc58262002846565b604082019050919050565b600062001cdf602883620021e0565b915062001cec8262002895565b604082019050919050565b600062001d06602583620021e0565b915062001d1382620028e4565b604082019050919050565b600062001d2d602f83620021e0565b915062001d3a8262002933565b604082019050919050565b600062001d54602983620021e0565b915062001d618262002982565b604082019050919050565b62001d778162002470565b82525050565b62001d88816200247a565b82525050565b600060208201905062001da5600083018462001b02565b92915050565b600060408201905062001dc2600083018562001b02565b62001dd1602083018462001b02565b9392505050565b600060608201905062001def600083018662001b02565b62001dfe602083018562001b02565b62001e0d604083018462001d6c565b949350505050565b600060808201905062001e2c600083018762001b02565b62001e3b602083018662001b02565b62001e4a604083018562001d6c565b62001e59606083018462001b46565b95945050505050565b600060208201905062001e79600083018462001b13565b92915050565b600060208201905062001e96600083018462001b24565b92915050565b600060208201905062001eb3600083018462001b35565b92915050565b6000602082019050818103600083015262001ed5818462001b57565b905092915050565b6000602082019050818103600083015262001ef88162001b98565b9050919050565b6000602082019050818103600083015262001f1a8162001bbf565b9050919050565b6000602082019050818103600083015262001f3c8162001be6565b9050919050565b6000602082019050818103600083015262001f5e8162001c0d565b9050919050565b6000602082019050818103600083015262001f808162001c34565b9050919050565b6000602082019050818103600083015262001fa28162001c5b565b9050919050565b6000602082019050818103600083015262001fc48162001c82565b9050919050565b6000602082019050818103600083015262001fe68162001ca9565b9050919050565b60006020820190508181036000830152620020088162001cd0565b9050919050565b600060208201905081810360008301526200202a8162001cf7565b9050919050565b600060208201905081810360008301526200204c8162001d1e565b9050919050565b600060208201905081810360008301526200206e8162001d45565b9050919050565b60006020820190506200208c600083018462001d6c565b92915050565b6000604082019050620020a9600083018562001d6c565b620020b8602083018462001b02565b9392505050565b6000608082019050620020d6600083018762001d6c565b620020e5602083018662001b46565b620020f4604083018562001b02565b62002103606083018462001b02565b95945050505050565b600060808201905062002123600083018762001d6c565b62002132602083018662001d7d565b62002141604083018562001d6c565b62002150606083018462001d6c565b95945050505050565b600060208201905062002170600083018462001d7d565b92915050565b60006200218262002195565b905062002190828262002552565b919050565b6000604051905090565b600067ffffffffffffffff821115620021bd57620021bc62002615565b5b620021c88262002658565b9050602081019050919050565b600081519050919050565b600082825260208201905092915050565b6000620021fe8262002470565b91506200220b8362002470565b9250827fffffffffffffffffffffffffffffffffffffffffffffffffffffffffffffffff0382111562002243576200224262002588565b5b828201905092915050565b60006200225b8262002446565b9150620022688362002446565b9250827f7fffffffffffffffffffffffffffffffffffffffffffffffffffffffffffffff0482116000841360008413161615620022aa57620022a962002588565b5b817f80000000000000000000000000000000000000000000000000000000000000000583126000841260008413161615620022ea57620022e962002588565b5b827f800000000000000000000000000000000000000000000000000000000000000005821260008413600084121616156200232a576200232962002588565b5b827f7fffffffffffffffffffffffffffffffffffffffffffffffffffffffffffffff05821260008412600084121616156200236a576200236962002588565b5b828202905092915050565b6000620023828262002470565b91506200238f8362002470565b9250817fffffffffffffffffffffffffffffffffffffffffffffffffffffffffffffffff0483118215151615620023cb57620023ca62002588565b5b828202905092915050565b6000620023e38262002470565b9150620023f08362002470565b92508282101562002406576200240562002588565b5b828203905092915050565b60006200241e8262002450565b9050919050565b60008115159050919050565b60008190506200244182620029d1565b919050565b6000819050919050565b600073ffffffffffffffffffffffffffffffffffffffff82169050919050565b6000819050919050565b600060ff82169050919050565b60006200249482620024af565b9050919050565b6000620024a88262002431565b9050919050565b6000620024bc82620024c3565b9050919050565b6000620024d08262002450565b9050919050565b82818337600083830152505050565b60005b8381101562002506578082015181840152602081019050620024e9565b8381111562002516576000848401525b50505050565b600060028204905060018216806200253557607f821691505b602082108114156200254c576200254b620025e6565b5b50919050565b6200255d8262002658565b810181811067ffffffffffffffff821117156200257f576200257e62002615565b5b80604052505050565b7f4e487b7100000000000000000000000000000000000000000000000000000000600052601160045260246000fd5b7f4e487b7100000000000000000000000000000000000000000000000000000000600052602160045260246000fd5b7f4e487b7100000000000000000000000000000000000000000000000000000000600052602260045260246000fd5b7f4e487b7100000000000000000000000000000000000000000000000000000000600052604160045260246000fd5b600080fd5b600080fd5b600080fd5b600080fd5b6000601f19601f8301169050919050565b7f4c6f6e6720616e642073686f72742063616e27742062652073616d652070617260008201527f7479000000000000000000000000000000000000000000000000000000000000602082015250565b7f53686f72742063616e2774206265207a65726f20616464726573730000000000600082015250565b7f436f6e74726163742068617320746f20626520696e20496e697469617465642060008201527f7374617465000000000000000000000000000000000000000000000000000000602082015250565b7f4c6f6e672063616e2774206265207a65726f2061646472657373000000000000600082015250565b7f46464120636f6e74726163742068617320746f2065787069726520696e20746860008201527f6520667574757265000000000000000000000000000000000000000000000000602082015250565b7f44656661756c74696e672063616e206f6e6c792068617070656e206265666f7260008201527f652065787069726174696f6e0000000000000000000000000000000000000000602082015250565b7f4c6f6e672077616c6c65742063616e6e6f742068617665207a65726f2061646460008201527f7265737300000000000000000000000000000000000000000000000000000000602082015250565b7f636f6c6c61746572616c2062616c616e6365206e6f742073756666696369656e60008201527f7400000000000000000000000000000000000000000000000000000000000000602082015250565b7f4d20746f206d2063616e206f6e6c792068617070656e206265666f726520657860008201527f7069726174696f6e000000000000000000000000000000000000000000000000602082015250565b7f53686f72742077616c6c65742063616e6e6f742068617665207a65726f20616460008201527f6472657373000000000000000000000000000000000000000000000000000000602082015250565b7f536574746c656d656e742063616e6e6f74206f6363757265206265666f72652060008201527f65787069726174696f6e20646174650000000000000000000000000000000000602082015250565b7f6c6f6e6720616e642073686f72742077616c6c6574732063616e6e6f7420626560008201527f207468652073616d650000000000000000000000000000000000000000000000602082015250565b60048110620029e557620029e4620025b7565b5b50565b620029f38162002411565b8114620029ff57600080fd5b50565b62002a0d8162002425565b811462002a1957600080fd5b50565b62002a278162002470565b811462002a3357600080fd5b50565b62002a41816200247a565b811462002a4d57600080fd5b5056fe60806040523480156200001157600080fd5b5060405162000fda38038062000fda83398181016040528101906200003791906200028c565b60008060006101000a81548160ff02191690831515021790555062000071620000656200009160201b60201c565b6200009960201b60201c565b8060019080519060200190620000899291906200015e565b505062000461565b600033905090565b60008060019054906101000a900473ffffffffffffffffffffffffffffffffffffffff16905081600060016101000a81548173ffffffffffffffffffffffffffffffffffffffff021916908373ffffffffffffffffffffffffffffffffffffffff1602179055508173ffffffffffffffffffffffffffffffffffffffff168173ffffffffffffffffffffffffffffffffffffffff167f8be0079c531659141344cd1fd0a4f28419497f9722a3daafe3b4186f6b6457e060405160405180910390a35050565b8280546200016c9062000372565b90600052602060002090601f016020900481019282620001905760008555620001dc565b82601f10620001ab57805160ff1916838001178555620001dc565b82800160010185558215620001dc579182015b82811115620001db578251825591602001919060010190620001be565b5b509050620001eb9190620001ef565b5090565b5b808211156200020a576000816000905550600101620001f0565b5090565b6000620002256200021f8462000306565b620002dd565b90508281526020810184848401111562000244576200024362000441565b5b620002518482856200033c565b509392505050565b600082601f8301126200027157620002706200043c565b5b8151620002838482602086016200020e565b91505092915050565b600060208284031215620002a557620002a46200044b565b5b600082015167ffffffffffffffff811115620002c657620002c562000446565b5b620002d48482850162000259565b91505092915050565b6000620002e9620002fc565b9050620002f78282620003a8565b919050565b6000604051905090565b600067ffffffffffffffff8211156200032457620003236200040d565b5b6200032f8262000450565b9050602081019050919050565b60005b838110156200035c5780820151818401526020810190506200033f565b838111156200036c576000848401525b50505050565b600060028204905060018216806200038b57607f821691505b60208210811415620003a257620003a1620003de565b5b50919050565b620003b38262000450565b810181811067ffffffffffffffff82111715620003d557620003d46200040d565b5b80604052505050565b7f4e487b7100000000000000000000000000000000000000000000000000000000600052602260045260246000fd5b7f4e487b7100000000000000000000000000000000000000000000000000000000600052604160045260246000fd5b600080fd5b600080fd5b600080fd5b600080fd5b6000601f19601f8301169050919050565b610b6980620004716000396000f3fe608060405234801561001057600080fd5b50600436106100885760003560e01c8063715018a61161005b578063715018a6146101155780638da5cb5b1461011f578063dfeff6611461013d578063f2fde38b1461015957610088565b806317d7de7c1461008d57806322604de2146100ab5780632a1e15e7146100c75780635c975abb146100f7575b600080fd5b610095610175565b6040516100a291906108eb565b60405180910390f35b6100c560048036038101906100c09190610760565b610207565b005b6100e160048036038101906100dc9190610720565b61029a565b6040516100ee919061094d565b60405180910390f35b6100ff610321565b60405161010c91906108d0565b60405180910390f35b61011d610337565b005b6101276103bf565b604051610134919061088c565b60405180910390f35b61015760048036038101906101529190610760565b6103e8565b005b610173600480360381019061016e91906106f3565b6104ef565b005b606060018054610184906109ff565b80601f01602080910402602001604051908101604052809291908181526020018280546101b0906109ff565b80156101fd5780601f106101d2576101008083540402835291602001916101fd565b820191906000526020600020905b8154815290600101906020018083116101e057829003601f168201915b5050505050905090565b8273ffffffffffffffffffffffffffffffffffffffff1663095ea7b383836040518363ffffffff1660e01b81526004016102429291906108a7565b602060405180830381600087803b15801561025c57600080fd5b505af1158015610270573d6000803e3d6000fd5b505050506040513d601f19601f8201168201806040525081019061029491906107b3565b50505050565b6000600260008473ffffffffffffffffffffffffffffffffffffffff1673ffffffffffffffffffffffffffffffffffffffff16815260200190815260200160002060008373ffffffffffffffffffffffffffffffffffffffff1673ffffffffffffffffffffffffffffffffffffffff16815260200190815260200160002054905092915050565b60008060009054906101000a900460ff16905090565b61033f6105e7565b73ffffffffffffffffffffffffffffffffffffffff1661035d6103bf565b73ffffffffffffffffffffffffffffffffffffffff16146103b3576040517f08c379a00000000000000000000000000000000000000000000000000000000081526004016103aa9061092d565b60405180910390fd5b6103bd60006105ef565b565b60008060019054906101000a900473ffffffffffffffffffffffffffffffffffffffff16905090565b80600260008573ffffffffffffffffffffffffffffffffffffffff1673ffffffffffffffffffffffffffffffffffffffff16815260200190815260200160002060008473ffffffffffffffffffffffffffffffffffffffff1673ffffffffffffffffffffffffffffffffffffffff1681526020019081526020016000208190555080600360008473ffffffffffffffffffffffffffffffffffffffff1673ffffffffffffffffffffffffffffffffffffffff16815260200190815260200160002060008573ffffffffffffffffffffffffffffffffffffffff1673ffffffffffffffffffffffffffffffffffffffff16815260200190815260200160002081905550505050565b6104f76105e7565b73ffffffffffffffffffffffffffffffffffffffff166105156103bf565b73ffffffffffffffffffffffffffffffffffffffff161461056b576040517f08c379a00000000000000000000000000000000000000000000000000000000081526004016105629061092d565b60405180910390fd5b600073ffffffffffffffffffffffffffffffffffffffff168173ffffffffffffffffffffffffffffffffffffffff1614156105db576040517f08c379a00000000000000000000000000000000000000000000000000000000081526004016105d29061090d565b60405180910390fd5b6105e4816105ef565b50565b600033905090565b60008060019054906101000a900473ffffffffffffffffffffffffffffffffffffffff16905081600060016101000a81548173ffffffffffffffffffffffffffffffffffffffff021916908373ffffffffffffffffffffffffffffffffffffffff1602179055508173ffffffffffffffffffffffffffffffffffffffff168173ffffffffffffffffffffffffffffffffffffffff167f8be0079c531659141344cd1fd0a4f28419497f9722a3daafe3b4186f6b6457e060405160405180910390a35050565b6000813590506106c381610aee565b92915050565b6000815190506106d881610b05565b92915050565b6000813590506106ed81610b1c565b92915050565b60006020828403121561070957610708610a60565b5b6000610717848285016106b4565b91505092915050565b6000806040838503121561073757610736610a60565b5b6000610745858286016106b4565b9250506020610756858286016106b4565b9150509250929050565b60008060006060848603121561077957610778610a60565b5b6000610787868287016106b4565b9350506020610798868287016106b4565b92505060406107a9868287016106de565b9150509250925092565b6000602082840312156107c9576107c8610a60565b5b60006107d7848285016106c9565b91505092915050565b6107e981610984565b82525050565b6107f881610996565b82525050565b600061080982610968565b6108138185610973565b93506108238185602086016109cc565b61082c81610a65565b840191505092915050565b6000610844602683610973565b915061084f82610a76565b604082019050919050565b6000610867602083610973565b915061087282610ac5565b602082019050919050565b610886816109c2565b82525050565b60006020820190506108a160008301846107e0565b92915050565b60006040820190506108bc60008301856107e0565b6108c9602083018461087d565b9392505050565b60006020820190506108e560008301846107ef565b92915050565b6000602082019050818103600083015261090581846107fe565b905092915050565b6000602082019050818103600083015261092681610837565b9050919050565b600060208201905081810360008301526109468161085a565b9050919050565b6000602082019050610962600083018461087d565b92915050565b600081519050919050565b600082825260208201905092915050565b600061098f826109a2565b9050919050565b60008115159050919050565b600073ffffffffffffffffffffffffffffffffffffffff82169050919050565b6000819050919050565b60005b838110156109ea5780820151818401526020810190506109cf565b838111156109f9576000848401525b50505050565b60006002820490506001821680610a1757607f821691505b60208210811415610a2b57610a2a610a31565b5b50919050565b7f4e487b7100000000000000000000000000000000000000000000000000000000600052602260045260246000fd5b600080fd5b6000601f19601f8301169050919050565b7f4f776e61626c653a206e6577206f776e657220697320746865207a65726f206160008201527f6464726573730000000000000000000000000000000000000000000000000000602082015250565b7f4f776e61626c653a2063616c6c6572206973206e6f7420746865206f776e6572600082015250565b610af781610984565b8114610b0257600080fd5b50565b610b0e81610996565b8114610b1957600080fd5b50565b610b25816109c2565b8114610b3057600080fd5b5056fea2646970667358221220d6bc10c1c9191626b731e36e57ab67e2006d41829eb256d8f51ffca17d78cc3964736f6c63430008070033a2646970667358221220ab77c34c78be0eb9699cc07737f3465c8521556c9b35390808aab81ee2e19e7664736f6c63430008070033",
  "immutableReferences": {},
  "source": "// SPDX-License-Identifier: UNLICENSED\r\n\r\npragma solidity ^0.8.6;\r\n\r\nimport \"../utils/BokkyPooBahsDateTimeLibrary.sol\";\r\nimport \"@openzeppelin/contracts/access/Ownable.sol\";\r\nimport \"@openzeppelin/contracts/token/ERC20/IERC20.sol\";\r\nimport \"@openzeppelin/contracts/token/ERC20/utils/SafeERC20.sol\";\r\nimport \"@openzeppelin/contracts/utils/math/SafeMath.sol\";\r\n\r\nimport \"../interfaces/IFFAContract.sol\";\r\nimport \"./ChainlinkOracle.sol\";\r\nimport \"./CollateralWallet.sol\";\r\n\r\ncontract FFAContract is IFFAContract{\r\n        using SafeERC20 for IERC20;\r\n\r\n        //state of contract\r\n        enum ContractState {Created, Initiated, Settled, Defaulted}\r\n\r\n        //contract detail\r\n        string private name;\r\n        string private symbol;\r\n        uint8 private decimals;\r\n        ContractState public contractState;\r\n        uint256 private sizeOfContract;\r\n        address private long;\r\n        address private short;\r\n        uint256 private initialForwardPrice;\r\n        uint8 private riskFreeRate;\r\n        uint256 private expirationDate;\r\n\r\n        //collateral wallets\r\n        address private longWallet;\r\n        address private shortWallet;\r\n        address private collateralTokenAddress;\r\n\r\n\r\n        //margin requirements\r\n        //MM(8%) + EM (2%) = IM (10%)\r\n        uint8 private exposureMarginRate;\r\n        uint8 private maintenanceMarginRate;\r\n\r\n        //M2M\r\n        uint256 private prevDayClosingPrice;\r\n\r\n        //valuation\r\n        uint256 private pricingDate;\r\n\r\n        //underlying index price oracle\r\n        /* Sometimes oracles and jobs start and stop working so\r\n         * we need to be able to set oracle address and job\r\n         */\r\n        address private oracleAddress;\r\n        bytes32 private jobId;\r\n        ChainlinkOracle internal valuationOracle;\r\n\r\n        constructor(\r\n            string memory _name, \r\n            string memory _symbol, \r\n            //address _oracleAddress,\r\n            //bytes32 _jobId, \r\n            uint8 _decimals,\r\n            uint256 _sizeOfContract,\r\n            //address _collateralTokenAddress,\r\n            uint8 _exposureMarginRate,\r\n            uint8 _maintenanceMarginRate\r\n        ) {\r\n            name = _name;\r\n            symbol = _symbol;\r\n            //oracleAddress = _oracleAddress;\r\n            //jobId = _jobId;\r\n            decimals = _decimals;\r\n            sizeOfContract = _sizeOfContract;\r\n            //collateralTokenAddress = _collateralTokenAddress;\r\n            //valuationOracle = new ChainlinkOracle(oracleAddress, jobId);//not sure\r\n            exposureMarginRate = _exposureMarginRate;\r\n            maintenanceMarginRate = _maintenanceMarginRate;\r\n            contractState = ContractState.Created;\r\n            emit CreatedContract(decimals, sizeOfContract);\r\n        }\r\n\r\n        //initiation\r\n        function initiateFFA(address _long, address _short, uint256 _initialForwardPrice, \r\n                             uint8 _riskFreeRate, uint256 _expirationDate,\r\n                             address _longWallet, address _shortWallet) \r\n                             external override returns (bool initiated_) {\r\n            require(_long != address(0), \"Long can't be zero address\");\r\n            require(_short != address(0), \"Short can't be zero address\");\r\n            require(_long != _short, \"Long and short can't be same party\");\r\n            require(_longWallet != address(0), \"Long wallet cannot have zero address\");\r\n            require(_shortWallet != address(0), \"Short wallet cannot have zero address\");\r\n            require(_longWallet != _shortWallet, \"long and short wallets cannot be the same\");\r\n            require(BokkyPooBahsDateTimeLibrary.diffSeconds(block.timestamp, _expirationDate) > 0, \"FFA contract has to expire in the future\");\r\n            long = _long;\r\n            short = _short;\r\n            //call valuation API to get initialForwardPrice!!!!!!!!!!!!!11\r\n            initialForwardPrice = _initialForwardPrice;\r\n            prevDayClosingPrice = initialForwardPrice;\r\n            riskFreeRate = _riskFreeRate;\r\n            expirationDate = _expirationDate;\r\n            longWallet = _longWallet;\r\n            shortWallet = _shortWallet;\r\n            contractState = ContractState.Initiated;\r\n            //Do i need to deal with allowance?\r\n            emit Initiated(long, short, initialForwardPrice, riskFreeRate, expirationDate, sizeOfContract);\r\n            initiated_ = true;\r\n        }\r\n\r\n        //calculate value of contract\r\n        /*\r\n        function calcFFAValue() external override returns (uint256 value_) {\r\n            pricingDate = block.timestamp;\r\n            //use valuation oracle here\r\n            \r\n            value_ = 0;\r\n        }*/\r\n\r\n        //calculate forward price\r\n        function calcForwardPrice() public returns (uint256 price_) {\r\n            pricingDate = block.timestamp;\r\n\r\n            //call valuation oracle here\r\n            price_ = 243;\r\n        }\r\n\r\n        /*\r\n            * Initial Margin = Maintenance Margin + Exposure Margin\r\n            * A margin call is issued when a party's cash balance drops below the maintenance margin.\r\n            * A party will be allowed to hold their position as long as the maintenance margin is satisfied.\r\n            * M2M is calculated based on the previous day's closing price. Based on the M2M each party's\r\n            * account is credited or debited daily. \r\n            * At settlement calculate the P&L = Final Contract Value - Initial Contract Value\r\n            * https://zerodha.com/varsity/chapter/margin-m2m/\r\n        */\r\n        //mark to market\r\n        function markToMarket() external override returns (bool markedToMarket_) {\r\n            require(contractState == ContractState.Initiated, \"Contract has to be in Initiated state\");\r\n            require(BokkyPooBahsDateTimeLibrary.diffSeconds(block.timestamp, expirationDate) > 0, \"M to m can only happen before expiration\");\r\n\r\n            //valuation\r\n            uint256 currentForwardPrice = calcForwardPrice();\r\n            uint256 newContractValue = currentForwardPrice * sizeOfContract;\r\n            uint256 oldContractValue = prevDayClosingPrice * sizeOfContract;\r\n            //contract value change\r\n            int256 contractValueChange = int256(newContractValue - oldContractValue);\r\n\r\n            //delivery within collateral wallets\r\n            if (contractValueChange > 0) {\r\n                transferCollateralFrom(shortWallet, longWallet, uint256(contractValueChange), collateralTokenAddress);\r\n            }\r\n            if (contractValueChange < 0) {\r\n                transferCollateralFrom(longWallet, shortWallet, uint256(-1 * contractValueChange), collateralTokenAddress);\r\n            }\r\n\r\n            //update prevDayClosingPrice to current price\r\n            prevDayClosingPrice = currentForwardPrice;\r\n\r\n            //emit event\r\n            emit MarkedToMarket(block.timestamp, contractValueChange, long, short);\r\n            markedToMarket_ = true;\r\n        }\r\n\r\n        //settle contract \r\n        function settleAtExpiration() external override returns (bool settled_) {\r\n            require(BokkyPooBahsDateTimeLibrary.diffSeconds(expirationDate, block.timestamp) >= 0, \"Settlement cannot occure before expiration date\" );\r\n            require(contractState == ContractState.Initiated, \"Contract has to be in Initiated state\");\r\n\r\n            //calculate P&L\r\n            uint256 initialContractValue = initialForwardPrice * sizeOfContract;\r\n            uint256 finalContractValue = prevDayClosingPrice * sizeOfContract;\r\n            int256 profitAndLoss = int256(finalContractValue - initialContractValue);\r\n\r\n            //change contract state and emit event\r\n            contractState = ContractState.Settled;\r\n            emit Settled(long, short, expirationDate, profitAndLoss);\r\n            settled_ = true;\r\n        }\r\n\r\n        //default contract\r\n        function defaultContract(address _defaultingParty) public override returns (bool defaulted_) {\r\n            require(contractState == ContractState.Initiated, \"Contract has to be in Initiated state\");\r\n            require(BokkyPooBahsDateTimeLibrary.diffSeconds(block.timestamp, expirationDate) > 0, \"Defaulting can only happen before expiration\");\r\n\r\n            //change contract state and emit event\r\n            contractState = ContractState.Defaulted;\r\n            emit Defaulted(block.timestamp, _defaultingParty);\r\n            defaulted_ = true;\r\n        }\r\n\r\n        function transferCollateralFrom(address senderWalletAddress, address recipientWalletAddress, uint256 amount, address _collateralTokenAddress) public returns (bool transfered_){\r\n            CollateralWallet senderWallet = CollateralWallet(senderWalletAddress);\r\n            CollateralWallet recipientWallet = CollateralWallet(recipientWalletAddress);\r\n            uint256 originalSenderMappedBalance = senderWallet.getMappedBalance(address(this), _collateralTokenAddress);\r\n            require(originalSenderMappedBalance >= amount, \"collateral balance not sufficient\");\r\n\r\n            //approval might need fixing\r\n            senderWallet.approveSpender(_collateralTokenAddress, address(this), amount);\r\n            IERC20(_collateralTokenAddress).transferFrom(senderWalletAddress, recipientWalletAddress, amount);\r\n\r\n            //deduct from sender balance mapping\r\n            unchecked {\r\n                uint256 newSenderMappedBalance = originalSenderMappedBalance - amount;\r\n                senderWallet.setNewBalance(address(this), _collateralTokenAddress, newSenderMappedBalance);\r\n            }\r\n\r\n            //add to recipient balance mapping\r\n            uint256 newRecipientMappedBalance = recipientWallet.getMappedBalance(address(this), _collateralTokenAddress) + amount;\r\n            recipientWallet.setNewBalance(address(this), _collateralTokenAddress, newRecipientMappedBalance);\r\n \r\n            transfered_ = true;\r\n        }\r\n\r\n        //these are for testing\r\n        /////////////////////////////////////\r\n\r\n        function createCollateralWallet(string memory _name) external returns(CollateralWallet) {\r\n            return new CollateralWallet(_name);\r\n            //walletAddress_ = address(newCollateralWallet);\r\n        }\r\n        //////////////////////////////////////\r\n\r\n        //receive and fallback functions\r\n        /*\r\n        receive () external payable {\r\n    \r\n        }\r\n\r\n        fallback () external payable {\r\n\r\n        }*/\r\n\r\n\r\n        //getter functions\r\n        function getContractState() external view returns(string memory) {\r\n            if (contractState == ContractState.Created) {\r\n                return \"Created\";\r\n            } else if (contractState == ContractState.Initiated) {\r\n                return \"Initiated\";\r\n            } else if (contractState == ContractState.Settled) {\r\n                return \"Settled\";\r\n            } else if (contractState == ContractState.Defaulted) {\r\n                return \"Defaulted\";\r\n            } else {\r\n                return \"state error\";\r\n            }\r\n        }\r\n\r\n        function getName() external view returns(string memory) {\r\n            return name;\r\n        }\r\n\r\n        function getSymbol() external view returns(string memory) {\r\n            return symbol;\r\n        }\r\n        \r\n        function getSizeOfContract() external view returns(uint256) {\r\n            return sizeOfContract;\r\n        }\r\n\r\n        function getDecimals() external view returns (uint8) {\r\n            return decimals;\r\n        }\r\n\r\n        function getLong() external view returns (address) {\r\n            return long;\r\n        }\r\n\r\n        function getShort() external view returns (address) {\r\n            return short;\r\n        }\r\n\r\n        function getInitialForwardPrice() external view returns (uint256) {\r\n            return initialForwardPrice;\r\n        }\r\n\r\n        function getRiskFreeRate() external view returns (uint8) {\r\n            return riskFreeRate;\r\n        }\r\n\r\n        function getExpirationDate() external view returns (uint256) {\r\n            return expirationDate;\r\n        }\r\n\r\n        function getLongWalletAddress() external view returns (address) {\r\n            return longWallet;\r\n        }\r\n\r\n        function getShortWalletAddress() external view returns (address) {\r\n            return shortWallet;\r\n        }\r\n\r\n\r\n\r\n\r\n}",
  "sourcePath": "C:\\Users\\Tomi\\OneDrive - The University of Chicago\\Documents\\Securrency\\FuturesExchange\\contracts\\FFAContract.sol",
  "compiler": {
    "name": "solc",
    "version": "0.8.7+commit.e28d00a7.Emscripten.clang"
  },
  "schemaVersion": "3.4.2",
  "updatedAt": "2021-08-20T14:58:13.394Z",
  "networkType": "ethereum",
  "devdoc": {
    "kind": "dev",
    "methods": {},
    "version": 1
  },
  "userdoc": {
    "kind": "user",
    "methods": {},
    "version": 1
  }
}