{
  "contractName": "FFAFactory",
  "abi": [
    {
      "anonymous": false,
      "inputs": [
        {
          "indexed": false,
          "internalType": "string",
          "name": "name",
          "type": "string"
        },
        {
          "indexed": false,
          "internalType": "string",
          "name": "symbol",
          "type": "string"
        },
        {
          "indexed": false,
          "internalType": "uint256",
          "name": "sizeOfContract",
          "type": "uint256"
        }
      ],
      "name": "Created",
      "type": "event"
    },
    {
      "inputs": [
        {
          "internalType": "string",
          "name": "name",
          "type": "string"
        },
        {
          "internalType": "string",
          "name": "symbol",
          "type": "string"
        },
        {
          "internalType": "address",
          "name": "oracleAddress",
          "type": "address"
        },
        {
          "internalType": "bytes32",
          "name": "jobId",
          "type": "bytes32"
        },
        {
          "internalType": "uint256",
          "name": "fee",
          "type": "uint256"
        },
        {
          "internalType": "address",
          "name": "linkAddress",
          "type": "address"
        },
        {
          "internalType": "string",
          "name": "underlyingApiURL",
          "type": "string"
        },
        {
          "internalType": "string",
          "name": "underlyingApiPath",
          "type": "string"
        },
        {
          "internalType": "int256",
          "name": "decimals",
          "type": "int256"
        },
        {
          "internalType": "uint256",
          "name": "sizeOfContract",
          "type": "uint256"
        }
      ],
      "name": "createFFAContract",
      "outputs": [
        {
          "internalType": "address",
          "name": "ffaContractAddress_",
          "type": "address"
        }
      ],
      "stateMutability": "nonpayable",
      "type": "function"
    },
    {
      "inputs": [
        {
          "internalType": "uint256",
          "name": "index",
          "type": "uint256"
        }
      ],
      "name": "getFFAContract",
      "outputs": [
        {
          "internalType": "contract FFAContract",
          "name": "",
          "type": "address"
        }
      ],
      "stateMutability": "view",
      "type": "function"
    }
  ],
  "bytecode": "0x608060405234801561001057600080fd5b506162af806100206000396000f3fe60806040523480156200001157600080fd5b50600436106200003a5760003560e01c80631de3f260146200003f578063d058bd931462000072575b600080fd5b620000566200005036600462000509565b62000089565b6040516001600160a01b03909116815260200160405180910390f35b620000566200008336600462000610565b620003d1565b60006001600160a01b038916620000f55760405162461bcd60e51b815260206004820152602560248201527f6f7261636c6520616464726573732063616e6e6f74206265207a65726f206164604482015264647265737360d81b60648201526084015b60405180910390fd5b87620001435760405162461bcd60e51b815260206004820152601c60248201527b6a6f6249642063616e6e6f7420626520656d70747920737472696e6760201b6044820152606401620000ec565b826200018b5760405162461bcd60e51b8152602060048201526016602482015275646563696d616c732063616e2774206265207a65726f60501b6044820152606401620000ec565b60008211620001dc5760405162461bcd60e51b815260206004820152601c60248201527b636f6e74726163742073697a652063616e6e6f74206265207a65726f60201b6044820152606401620000ec565b8a8a8a8a8a8a8a8a8a8a604051620001f49062000403565b620002099a9998979695949392919062000676565b604051809103906000f08015801562000226573d6000803e3d6000fd5b506040516610dc99585d195960ca1b602082015290915060270160405160208183030381529060405280519060200120816001600160a01b0316637f4e48496040518163ffffffff1660e01b815260040160006040518083038186803b1580156200029057600080fd5b505afa158015620002a5573d6000803e3d6000fd5b505050506040513d6000823e601f3d908101601f19168201604052620002cf91908101906200048a565b604051602001620002e1919062000658565b60405160208183030381529060405280519060200120146200033d5760405162461bcd60e51b815260206004820152601460248201527318dbdb9d1c9858dd081b9bdd0818dc99585d195960621b6044820152606401620000ec565b600080546001810182559080527f290decd9548b62a8d60345a988386fc84ba6bc95484008f6362f93160ef3e5630180546001600160a01b0319166001600160a01b0383161790556040517f1a4e879d87481bd05a3a677d4b1955b720847250037488426080927c494cda0690620003bb908d908d9086906200070f565b60405180910390a19a9950505050505050505050565b6000808281548110620003e857620003e8620007d9565b6000918252602090912001546001600160a01b031692915050565b615a74806200080683390190565b80356001600160a01b03811681146200042957600080fd5b919050565b600082601f8301126200044057600080fd5b81356200045762000451826200077c565b62000749565b8181528460208386010111156200046d57600080fd5b816020850160208301376000918101602001919091529392505050565b6000602082840312156200049d57600080fd5b81516001600160401b03811115620004b457600080fd5b8201601f81018413620004c657600080fd5b8051620004d762000451826200077c565b818152856020838501011115620004ed57600080fd5b62000500826020830160208601620007a6565b95945050505050565b6000806000806000806000806000806101408b8d0312156200052a57600080fd5b8a356001600160401b03808211156200054257600080fd5b620005508e838f016200042e565b9b5060208d01359150808211156200056757600080fd5b620005758e838f016200042e565b9a506200058560408e0162000411565b995060608d0135985060808d01359750620005a360a08e0162000411565b965060c08d0135915080821115620005ba57600080fd5b620005c88e838f016200042e565b955060e08d0135915080821115620005df57600080fd5b50620005ee8d828e016200042e565b9350506101008b013591506101208b013590509295989b9194979a5092959850565b6000602082840312156200062357600080fd5b5035919050565b6000815180845262000644816020860160208601620007a6565b601f01601f19169290920160200192915050565b600082516200066c818460208701620007a6565b9190910192915050565b60006101408083526200068c8184018e6200062a565b90508281036020840152620006a2818d6200062a565b6001600160a01b038c81166040860152606085018c9052608085018b9052891660a085015283810360c08501529050620006dd81886200062a565b905082810360e0840152620006f381876200062a565b6101008401959095525050610120015298975050505050505050565b6060815260006200072460608301866200062a565b82810360208401526200073881866200062a565b915050826040830152949350505050565b604051601f8201601f191681016001600160401b0381118282101715620007745762000774620007ef565b604052919050565b60006001600160401b03821115620007985762000798620007ef565b50601f01601f191660200190565b60005b83811015620007c3578181015183820152602001620007a9565b83811115620007d3576000848401525b50505050565b634e487b7160e01b600052603260045260246000fd5b634e487b7160e01b600052604160045260246000fdfe608060405260646002553480156200001657600080fd5b5060405162005a7438038062005a748339810160408190526200003991620003f3565b89516200004e9060009060208d01906200025d565b508851620000649060019060208c01906200025d565b50601280546001600160a01b03808b166001600160a01b0319928316179092556013899055601488905560158054928816929091169190911790558351620000b49060169060208701906200025d565b508251620000ca9060179060208601906200025d565b5060028290556004819055601254601354601554601454600a546008546011546009546040516001600160a01b0398891698909616956200010b90620002ec565b6001600160a01b03988916815260208101979097529690941660408601526060850192909252608084015260a083015260c082015260e081019190915261010001604051809103906000f08015801562000169573d6000803e3d6000fd5b50601880546001600160a01b0319166001600160a01b0392831617905560125460135460155460145460025460405194861695939460169460179416929190620001b390620002fa565b620001c59796959493929190620005a2565b604051809103906000f080158015620001e2573d6000803e3d6000fd5b50601980546001600160a01b0319166001600160a01b03929092169190911790556003805460ff191690556002546004546040805192835260208301919091527f679acb356027c7608e2bdc5bc99fc5767c6b2e9562921abfd30d62eb06b11c0b910160405180910390a15050505050505050505062000652565b8280546200026b90620005ff565b90600052602060002090601f0160209004810192826200028f5760008555620002da565b82601f10620002aa57805160ff1916838001178555620002da565b82800160010185558215620002da579182015b82811115620002da578251825591602001919060010190620002bd565b50620002e892915062000308565b5090565b611a5f806200296783390190565b6116ae80620043c683390190565b5b80821115620002e8576000815560010162000309565b80516001600160a01b03811681146200033757600080fd5b919050565b600082601f8301126200034e57600080fd5b81516001600160401b03808211156200036b576200036b6200063c565b604051601f8301601f19908116603f011681019082821181831017156200039657620003966200063c565b81604052838152602092508683858801011115620003b357600080fd5b600091505b83821015620003d75785820183015181830184015290820190620003b8565b83821115620003e95760008385830101525b9695505050505050565b6000806000806000806000806000806101408b8d0312156200041457600080fd5b8a516001600160401b03808211156200042c57600080fd5b6200043a8e838f016200033c565b9b5060208d01519150808211156200045157600080fd5b6200045f8e838f016200033c565b9a506200046f60408e016200031f565b995060608d0151985060808d015197506200048d60a08e016200031f565b965060c08d0151915080821115620004a457600080fd5b620004b28e838f016200033c565b955060e08d0151915080821115620004c957600080fd5b50620004d88d828e016200033c565b9350506101008b015191506101208b015190509295989b9194979a5092959850565b8054600090600181811c90808316806200051557607f831692505b60208084108214156200053857634e487b7160e01b600052602260045260246000fd5b83885260208801828015620005565760018114620005685762000595565b60ff1987168252828201975062000595565b60008981526020902060005b878110156200058f5781548482015290860190840162000574565b83019850505b5050505050505092915050565b600060018060a01b03808a16835288602084015260e06040840152620005cc60e0840189620004fa565b8381036060850152620005e08189620004fa565b91909616608084015260a08301949094525060c0015295945050505050565b600181811c908216806200061457607f821691505b602082108114156200063657634e487b7160e01b600052602260045260246000fd5b50919050565b634e487b7160e01b600052604160045260246000fd5b61230580620006626000396000f3fe60806040523480156200001157600080fd5b5060043610620001725760003560e01c80630a25062314620001775780631507040114620001a857806317d7de7c14620001c1578063235cea9814620001cb5780633448f65914620001df578063347ce67d146200020757806347d3fa6d146200021e5780635edf7d8b1462000230578063708febc8146200024357806370a4cd34146200025557806378f8f7d4146200025f5780637f4e4849146200026957806385209ee014620002735780638543549114620002905780638c349eca14620002995780638d2d8c5e14620002ad5780638f896f5014620002b6578063923123b314620002cd578063a89ae4ba14620002d6578063a986805814620002ea578063b07976de14620002f4578063b317f5ec146200030b578063c2939d97146200031d578063c82ee7ab1462000327578063ddca3f431462000339578063e279cbe11462000343578063e5bee6de146200034f578063f0141d841462000366575b600080fd5b601a546200018b906001600160a01b031681565b6040516001600160a01b0390911681526020015b60405180910390f35b620001b26200036f565b6040516200019f9190620016d5565b620001b262000409565b6015546200018b906001600160a01b031681565b620001f6620001f036600462001476565b6200041a565b60405190151581526020016200019f565b620001f662000218366004620014e8565b6200052a565b6005546001600160a01b03166200018b565b6009545b6040519081526020016200019f565b600c546001600160a01b03166200018b565b620001f66200095b565b620001f662000abf565b620001b262000c92565b600354620002819060ff1681565b6040516200019f9190620016ac565b60085462000234565b601b546200018b906001600160a01b031681565b60075462000234565b620001f6620002c736600462001494565b62000dd0565b60045462000234565b6012546200018b906001600160a01b031681565b6200023462001120565b6200018b62000305366004620015b4565b6200124c565b6006546001600160a01b03166200018b565b6200023460135481565b600b546001600160a01b03166200018b565b6200023460145481565b6200034d620012ac565b005b6200018b62000360366004620015b4565b620013c8565b60025462000234565b60606001805462000380906200185a565b80601f0160208091040260200160405190810160405280929190818152602001828054620003ae906200185a565b8015620003ff5780601f10620003d357610100808354040283529160200191620003ff565b820191906000526020600020905b815481529060010190602001808311620003e157829003601f168201915b5050505050905090565b60606000805462000380906200185a565b600060016003805460ff1690811115620004385762000438620018ad565b14620004615760405162461bcd60e51b815260040162000458906200172d565b60405180910390fd5b6000620004714260095462001428565b11620004d55760405162461bcd60e51b815260206004820152602c60248201527f44656661756c74696e672063616e206f6e6c792068617070656e206265666f7260448201526b329032bc3834b930ba34b7b760a11b606482015260840162000458565b6003805460ff191681179055604080514281526001600160a01b03841660208201527f724b99e866949401e1553ae6e0da07c7e24b0308581155730cbe34363752bd3f910160405180910390a1506001919050565b60006001600160a01b038a16620005815760405162461bcd60e51b815260206004820152601a6024820152794c6f6e672063616e2774206265207a65726f206164647265737360301b604482015260640162000458565b6001600160a01b038916620005d75760405162461bcd60e51b815260206004820152601b60248201527a53686f72742063616e2774206265207a65726f206164647265737360281b604482015260640162000458565b886001600160a01b03168a6001600160a01b03161415620006465760405162461bcd60e51b815260206004820152602260248201527f4c6f6e6720616e642073686f72742063616e27742062652073616d6520706172604482015261747960f01b606482015260840162000458565b6001600160a01b038516620006aa5760405162461bcd60e51b8152602060048201526024808201527f4c6f6e672077616c6c65742063616e6e6f742068617665207a65726f206164646044820152637265737360e01b606482015260840162000458565b6001600160a01b038416620007105760405162461bcd60e51b815260206004820152602560248201527f53686f72742077616c6c65742063616e6e6f742068617665207a65726f206164604482015264647265737360d81b606482015260840162000458565b836001600160a01b0316856001600160a01b03161415620007865760405162461bcd60e51b815260206004820152602960248201527f6c6f6e6720616e642073686f72742077616c6c6574732063616e6e6f74206265604482015268207468652073616d6560b81b606482015260840162000458565b6000600f5411620007e95760405162461bcd60e51b815260206004820152602660248201527f6d61696e74656e616e6365206d617267696e20726174652063616e6e6f74206260448201526565207a65726f60d01b606482015260840162000458565b6000620007f7428862001428565b11620008575760405162461bcd60e51b815260206004820152602860248201527f46464120636f6e74726163742068617320746f2065787069726520696e207468604482015267652066757475726560c01b606482015260840162000458565b600580546001600160a01b03199081166001600160a01b038d8116919091179092556006805482168c841617905560078a905560108a905560088990556009889055600b80548216888416179055600c8054909116918616919091179055600e839055600f8290556003805460ff191660011790556000620008da838562001772565b600654600554600754600854600954600454604080519485526020850193909352918301526060820152608081018490529293506001600160a01b03918216929116907f8d00cc8de9616b2f3f0677fa7220777e8a33961f4026e1adfa53d94bd062251c9060a00160405180910390a35060019a9950505050505050505050565b6000806200096c6009544262001428565b1015620009d45760405162461bcd60e51b815260206004820152602f60248201527f536574746c656d656e742063616e6e6f74206f6363757265206265666f72652060448201526e65787069726174696f6e206461746560881b606482015260840162000458565b60016003805460ff1690811115620009f057620009f0620018ad565b1462000a105760405162461bcd60e51b815260040162000458906200172d565b600060045460075462000a2491906200181e565b9050600060045460105462000a3a91906200181e565b9050600062000a4a838362001840565b6003805460ff19166002179055600554600654600954604080516001600160a01b03948516815293909216602084015290820152606081018290529091507f408d2f82a05767182d614a96957816d6acbd66a392006f7aafee6d91fc880f909060800160405180910390a16001935050505090565b600060016003805460ff169081111562000add5762000add620018ad565b1462000afd5760405162461bcd60e51b815260040162000458906200172d565b600062000b0d4260095462001428565b1162000b6d5760405162461bcd60e51b815260206004820152602860248201527f4d20746f206d2063616e206f6e6c792068617070656e206265666f72652065786044820152673834b930ba34b7b760c11b606482015260840162000458565b600062000b7962001120565b905060006004548262000b8d91906200181e565b9050600060045460105462000ba391906200181e565b9050600062000bb3828462001840565b9050600081131562000be757600c54600b54600d5462000be5926001600160a01b039081169281169185911662000dd0565b505b600081121562000c2b57600b54600c5462000c29916001600160a01b03908116911662000c17846000196200178d565b600d546001600160a01b031662000dd0565b505b601084905560055460065460408051428152602081018590526001600160a01b0393841681830152929091166060830152517f63f10cc602ea66cf5c2a09a756a193c86ab46c33a794eb8d9aee6cf9426553a89181900360800190a1600194505050505090565b606060006003805460ff169081111562000cb05762000cb0620018ad565b141562000cd9575060408051808201909152600781526610dc99585d195960ca1b602082015290565b60016003805460ff169081111562000cf55762000cf5620018ad565b141562000d205750604080518082019091526009815268125b9a5d1a585d195960ba1b602082015290565b60026003805460ff169081111562000d3c5762000d3c620018ad565b141562000d65575060408051808201909152600781526614d95d1d1b195960ca1b602082015290565b6003805460ff168181111562000d7f5762000d7f620018ad565b141562000daa5750604080518082019091526009815268111959985d5b1d195960ba1b602082015290565b5060408051808201909152600b81526a39ba30ba329032b93937b960a91b602082015290565b604051632a1e15e760e01b81526000908590859083906001600160a01b03841690632a1e15e79062000e0990309089906004016200166e565b60206040518083038186803b15801562000e2257600080fd5b505afa15801562000e37573d6000803e3d6000fd5b505050506040513d601f19601f8201168201806040525081019062000e5d91906200159a565b90508581101562000ebb5760405162461bcd60e51b815260206004820152602160248201527f636f6c6c61746572616c2062616c616e6365206e6f742073756666696369656e6044820152601d60fa1b606482015260840162000458565b60405163113026f160e11b81526001600160a01b038416906322604de29062000eed90889030908b9060040162001688565b600060405180830381600087803b15801562000f0857600080fd5b505af115801562000f1d573d6000803e3d6000fd5b50506040516323b872dd60e01b81526001600160a01b03881692506323b872dd915062000f53908b908b908b9060040162001688565b602060405180830381600087803b15801562000f6e57600080fd5b505af115801562000f83573d6000803e3d6000fd5b505050506040513d601f19601f8201168201806040525081019062000fa9919062001576565b5060405163dfeff66160e01b8152868203906001600160a01b0385169063dfeff6619062000fe09030908a90869060040162001688565b600060405180830381600087803b15801562000ffb57600080fd5b505af115801562001010573d6000803e3d6000fd5b5050505050600086836001600160a01b0316632a1e15e730896040518363ffffffff1660e01b8152600401620010489291906200166e565b60206040518083038186803b1580156200106157600080fd5b505afa15801562001076573d6000803e3d6000fd5b505050506040513d601f19601f820116820180604052508101906200109c91906200159a565b620010a8919062001772565b60405163dfeff66160e01b81529091506001600160a01b0384169063dfeff66190620010dd9030908a90869060040162001688565b600060405180830381600087803b158015620010f857600080fd5b505af11580156200110d573d6000803e3d6000fd5b5060019c9b505050505050505050505050565b42601155600062001130620012ac565b601860009054906101000a90046001600160a01b03166001600160a01b0316630f00494a6040518163ffffffff1660e01b8152600401602060405180830381600087803b1580156200118157600080fd5b505af115801562001196573d6000803e3d6000fd5b505050506040513d601f19601f82011682018060405250810190620011bc91906200159a565b50601860009054906101000a90046001600160a01b03166001600160a01b031663de2927896040518163ffffffff1660e01b815260040160206040518083038186803b1580156200120c57600080fd5b505afa15801562001221573d6000803e3d6000fd5b505050506040513d601f19601f820116820180604052508101906200124791906200159a565b905090565b6000816040516200125d906200144b565b620012699190620016d5565b604051809103906000f08015801562001286573d6000803e3d6000fd5b50601a80546001600160a01b0319166001600160a01b0392909216918217905592915050565b601960009054906101000a90046001600160a01b03166001600160a01b0316630f00494a6040518163ffffffff1660e01b8152600401602060405180830381600087803b158015620012fd57600080fd5b505af115801562001312573d6000803e3d6000fd5b505050506040513d601f19601f820116820180604052508101906200133891906200159a565b50601960009054906101000a90046001600160a01b03166001600160a01b031663de2927896040518163ffffffff1660e01b815260040160206040518083038186803b1580156200138857600080fd5b505afa1580156200139d573d6000803e3d6000fd5b505050506040513d601f19601f82011682018060405250810190620013c391906200159a565b600a55565b600081604051620013d9906200144b565b620013e59190620016d5565b604051809103906000f08015801562001402573d6000803e3d6000fd5b50601b80546001600160a01b0319166001600160a01b0392909216918217905592915050565b6000818311156200143857600080fd5b62001444838362001840565b9392505050565b6109f680620018da83390190565b80356001600160a01b03811681146200147157600080fd5b919050565b6000602082840312156200148957600080fd5b620014448262001459565b60008060008060808587031215620014ab57600080fd5b620014b68562001459565b9350620014c66020860162001459565b925060408501359150620014dd6060860162001459565b905092959194509250565b60008060008060008060008060006101208a8c0312156200150857600080fd5b620015138a62001459565b98506200152360208b0162001459565b975060408a0135965060608a0135955060808a013594506200154860a08b0162001459565b93506200155860c08b0162001459565b925060e08a013591506101008a013590509295985092959850929598565b6000602082840312156200158957600080fd5b815180151581146200144457600080fd5b600060208284031215620015ad57600080fd5b5051919050565b600060208284031215620015c757600080fd5b81356001600160401b0380821115620015df57600080fd5b818401915084601f830112620015f457600080fd5b813581811115620016095762001609620018c3565b604051601f8201601f19908116603f01168101908382118183101715620016345762001634620018c3565b816040528281528760208487010111156200164e57600080fd5b826020860160208301376000928101602001929092525095945050505050565b6001600160a01b0392831681529116602082015260400190565b6001600160a01b039384168152919092166020820152604081019190915260600190565b6020810160048310620016cf57634e487b7160e01b600052602160045260246000fd5b91905290565b600060208083528351808285015260005b818110156200170457858101830151858201604001528201620016e6565b8181111562001717576000604083870101525b50601f01601f1916929092016040019392505050565b60208082526025908201527f436f6e74726163742068617320746f20626520696e20496e6974696174656420604082015264737461746560d81b606082015260800190565b6000821982111562001788576200178862001897565b500190565b60006001600160ff1b0381841382841380821686840486111615620017b657620017b662001897565b600160ff1b6000871282811687830589121615620017d857620017d862001897565b60008712925087820587128484161615620017f757620017f762001897565b8785058712818416161562001810576200181062001897565b505050929093029392505050565b60008160001904831182151516156200183b576200183b62001897565b500290565b60008282101562001855576200185562001897565b500390565b600181811c908216806200186f57607f821691505b602082108114156200189157634e487b7160e01b600052602260045260246000fd5b50919050565b634e487b7160e01b600052601160045260246000fd5b634e487b7160e01b600052602160045260246000fd5b634e487b7160e01b600052604160045260246000fdfe60806040523480156200001157600080fd5b50604051620009f6380380620009f6833981016040819052620000349162000165565b6000805460ff19169055620000493362000066565b80516200005e906001906020840190620000bf565b505062000294565b600080546001600160a01b03838116610100818102610100600160a81b0319851617855560405193049190911692909183917f8be0079c531659141344cd1fd0a4f28419497f9722a3daafe3b4186f6b6457e091a35050565b828054620000cd9062000241565b90600052602060002090601f016020900481019282620000f157600085556200013c565b82601f106200010c57805160ff19168380011785556200013c565b828001600101855582156200013c579182015b828111156200013c5782518255916020019190600101906200011f565b506200014a9291506200014e565b5090565b5b808211156200014a57600081556001016200014f565b600060208083850312156200017957600080fd5b82516001600160401b03808211156200019157600080fd5b818501915085601f830112620001a657600080fd5b815181811115620001bb57620001bb6200027e565b604051601f8201601f19908116603f01168101908382118183101715620001e657620001e66200027e565b816040528281528886848701011115620001ff57600080fd5b600093505b8284101562000223578484018601518185018701529285019262000204565b82841115620002355760008684830101525b98975050505050505050565b600181811c908216806200025657607f821691505b602082108114156200027857634e487b7160e01b600052602260045260246000fd5b50919050565b634e487b7160e01b600052604160045260246000fd5b61075280620002a46000396000f3fe608060405234801561001057600080fd5b50600436106100785760003560e01c806317d7de7c1461007d57806322604de21461009b5780632a1e15e7146100b05780635c975abb146100d1578063715018a6146100e75780638da5cb5b146100ef578063dfeff6611461010f578063f2fde38b14610122575b600080fd5b610085610135565b60405161009291906105ea565b60405180910390f35b6100ae6100a936600461058c565b6101c7565b005b6100c36100be366004610559565b6102d0565b604051908152602001610092565b60005460ff166040519015158152602001610092565b6100ae61034a565b6100f7610385565b6040516001600160a01b039091168152602001610092565b6100ae61011d36600461058c565b610399565b6100ae610130366004610537565b610422565b606060018054610144906106e1565b80601f0160208091040260200160405190810160405280929190818152602001828054610170906106e1565b80156101bd5780601f10610192576101008083540402835291602001916101bd565b820191906000526020600020905b8154815290600101906020018083116101a057829003601f168201915b5050505050905090565b6001600160a01b0382166102225760405162461bcd60e51b815260206004820152601e60248201527f7370656e64657220616464726573732063616e6e6f74206265207a65726f000060448201526064015b60405180910390fd5b6001600160a01b0383166102485760405162461bcd60e51b815260040161021990610674565b60405163095ea7b360e01b81526001600160a01b0383811660048301526024820183905284169063095ea7b390604401602060405180830381600087803b15801561029257600080fd5b505af11580156102a6573d6000803e3d6000fd5b505050506040513d601f19601f820116820180604052508101906102ca91906105c8565b50505050565b60006001600160a01b0383166102f85760405162461bcd60e51b8152600401610219906106aa565b6001600160a01b03821661031e5760405162461bcd60e51b815260040161021990610674565b506001600160a01b03918216600090815260026020908152604080832093909416825291909152205490565b33610353610385565b6001600160a01b0316146103795760405162461bcd60e51b81526004016102199061063f565b61038360006104c2565b565b60005461010090046001600160a01b031690565b6001600160a01b0383166103bf5760405162461bcd60e51b8152600401610219906106aa565b6001600160a01b0382166103e55760405162461bcd60e51b815260040161021990610674565b6001600160a01b03928316600081815260026020908152604080832095909616825293845284812083905560038452848120918152925291902055565b3361042b610385565b6001600160a01b0316146104515760405162461bcd60e51b81526004016102199061063f565b6001600160a01b0381166104b65760405162461bcd60e51b815260206004820152602660248201527f4f776e61626c653a206e6577206f776e657220697320746865207a65726f206160448201526564647265737360d01b6064820152608401610219565b6104bf816104c2565b50565b600080546001600160a01b03838116610100818102610100600160a81b0319851617855560405193049190911692909183917f8be0079c531659141344cd1fd0a4f28419497f9722a3daafe3b4186f6b6457e091a35050565b80356001600160a01b038116811461053257600080fd5b919050565b60006020828403121561054957600080fd5b6105528261051b565b9392505050565b6000806040838503121561056c57600080fd5b6105758361051b565b91506105836020840161051b565b90509250929050565b6000806000606084860312156105a157600080fd5b6105aa8461051b565b92506105b86020850161051b565b9150604084013590509250925092565b6000602082840312156105da57600080fd5b8151801515811461055257600080fd5b600060208083528351808285015260005b81811015610617578581018301518582016040015282016105fb565b81811115610629576000604083870101525b50601f01601f1916929092016040019392505050565b6020808252818101527f4f776e61626c653a2063616c6c6572206973206e6f7420746865206f776e6572604082015260600190565b6020808252601c908201527b746f6b656e20616464726573732063616e6e6f74206265207a65726f60201b604082015260600190565b6020808252601f908201527f636f6e747261637420616464726573732063616e6e6f74206265207a65726f00604082015260600190565b600181811c908216806106f557607f821691505b6020821081141561071657634e487b7160e01b600052602260045260246000fd5b5091905056fea2646970667358221220d81bfc5e1d6718738b09dff57b8eeef86bf54639007203865d3d53e80a08cbf764736f6c63430008070033a2646970667358221220ac7a0a9463011e456e38a5286fbfb87088b25c3352fb37ee638a50436286bd0d64736f6c63430008070033608060405260016004553480156200001657600080fd5b5060405162001a5f38038062001a5f8339810160408190526200003991620003cc565b87876200008b60405180606001604052806028815260200162001a376028913962000064886200013c565b6200006f886200013c565b6200007a886200013c565b62000085886200013c565b62000280565b604080518082019091526005815264707269636560d81b602082015289896064620000b633620002b7565b600880546001600160a01b0319166001600160a01b03891617905560098690558451620000eb90600a90602088019062000309565b5083516200010190600b90602087019062000309565b50600c80546001600160a01b0319166001600160a01b039490941693909317909255600e55600d55506200060d9a5050505050505050505050565b606081620001615750506040805180820190915260018152600360fc1b602082015290565b8160005b81156200019157806200017881620005ad565b9150620001899050600a8362000511565b915062000165565b6000816001600160401b03811115620001ae57620001ae620005f7565b6040519080825280601f01601f191660200182016040528015620001d9576020820181803683370190505b509050815b85156200027757620001f260018262000556565b9050600062000203600a8862000511565b6200021090600a62000534565b6200021c908862000556565b62000229906030620004e9565b905060008160f81b905080848481518110620002495762000249620005e1565b60200101906001600160f81b031916908160001a9053506200026d600a8962000511565b97505050620001de565b50949350505050565b606085858585856040516020016200029d9594939291906200047c565b604051602081830303815290604052905095945050505050565b600680546001600160a01b038381166001600160a01b0319831681179093556040519116919082907f8be0079c531659141344cd1fd0a4f28419497f9722a3daafe3b4186f6b6457e090600090a35050565b828054620003179062000570565b90600052602060002090601f0160209004810192826200033b576000855562000386565b82601f106200035657805160ff191683800117855562000386565b8280016001018555821562000386579182015b828111156200038657825182559160200191906001019062000369565b506200039492915062000398565b5090565b5b8082111562000394576000815560010162000399565b80516001600160a01b0381168114620003c757600080fd5b919050565b600080600080600080600080610100898b031215620003ea57600080fd5b620003f589620003af565b9750602089015196506200040c60408a01620003af565b9550606089015194506080890151935060a0890151925060c0890151915060e089015190509295985092959890939650565b6000815160005b8181101562000461576020818501810151868301520162000445565b8181111562000471576000828601525b509290920192915050565b60006200048a82886200043e565b602f60f81b808252620004a160018301896200043e565b9150808252620004b560018301886200043e565b9150808252620004c960018301876200043e565b9081529050620004dd60018201856200043e565b98975050505050505050565b600060ff821660ff84168060ff03821115620005095762000509620005cb565b019392505050565b6000826200052f57634e487b7160e01b600052601260045260246000fd5b500490565b6000816000190483118215151615620005515762000551620005cb565b500290565b6000828210156200056b576200056b620005cb565b500390565b600181811c908216806200058557607f821691505b60208210811415620005a757634e487b7160e01b600052602260045260246000fd5b50919050565b6000600019821415620005c457620005c4620005cb565b5060010190565b634e487b7160e01b600052601160045260246000fd5b634e487b7160e01b600052603260045260246000fd5b634e487b7160e01b600052604160045260246000fd5b61141a806200061d6000396000f3fe6080604052600436106100ae5760003560e01c80630f00494a146100f0578063235cea9814610118578063313ce567146101455780634357855e1461015b5780636dff2c0b1461017b578063715018a6146101b95780638da5cb5b146101ce5780638dc654a2146101e3578063a89ae4ba146101f8578063be4624bb14610218578063c2939d971461022d578063ddca3f4314610243578063de29278914610259578063f2fde38b1461026e57005b366100ee577f88a5966d370b9919b20f3e2c13ff65706f196a4e32cc2c12bf57088f8852587433346040516100e492919061110f565b60405180910390a1005b005b3480156100fc57600080fd5b5061010561028e565b6040519081526020015b60405180910390f35b34801561012457600080fd5b50600c54610138906001600160a01b031681565b60405161010f91906110fb565b34801561015157600080fd5b50610105600d5481565b34801561016757600080fd5b506100ee610176366004611073565b61042d565b34801561018757600080fd5b506101ac60405180604001604052806005815260200164707269636560d81b81525081565b60405161010f91906111b7565b3480156101c557600080fd5b506100ee61052b565b3480156101da57600080fd5b50610138610566565b3480156101ef57600080fd5b506100ee610575565b34801561020457600080fd5b50600854610138906001600160a01b031681565b34801561022457600080fd5b506101ac610739565b34801561023957600080fd5b5061010560095481565b34801561024f57600080fd5b50610105600e5481565b34801561026557600080fd5b50600754610105565b34801561027a57600080fd5b506100ee610289366004611028565b6107c7565b6000806102a560095430634357855e60e01b610867565b90506103616040518060400160405280600381526020016219d95d60ea1b815250600a80546102d390611377565b80601f01602080910402602001604051908101604052809291908181526020018280546102ff90611377565b801561034c5780601f106103215761010080835404028352916020019161034c565b820191906000526020600020905b81548152906001019060200180831161032f57829003601f168201915b50505050508361088c9092919063ffffffff16565b61038e604051806040016040528060048152602001630e0c2e8d60e31b815250600b80546102d390611377565b60408051808201909152600581526474696d657360d81b6020820152600d546103b89183916108af565b600854600e546103d3916001600160a01b03169083906108cd565b600854600954600e54604080516001600160a01b0390941684526020840192909252908201529092507f5de0ca4d601c6369aafe37da9bab92be9804895234cdb72d8181492e84e6bcb29060600160405180910390a15090565b60008281526005602052604090205482906001600160a01b031633146104ab5760405162461bcd60e51b815260206004820152602860248201527f536f75726365206d75737420626520746865206f7261636c65206f6620746865604482015267081c995c5d595cdd60c21b60648201526084015b60405180910390fd5b60008181526005602052604080822080546001600160a01b03191690555182917f7cc135e0cebb02c3480ae5d74d377283180a2601f8f644edf7987b009316c63a91a260078290556040518381527f6930ee93026433301a14b1baa0b52ca0d4640cb1edaa703beeb9056e235269849060200160405180910390a1505050565b33610534610566565b6001600160a01b03161461055a5760405162461bcd60e51b81526004016104a2906111ca565b61056460006108ec565b565b6006546001600160a01b031690565b3361057e610566565b6001600160a01b0316146105a45760405162461bcd60e51b81526004016104a2906111ca565b60006105b86002546001600160a01b031690565b90506000816001600160a01b03166370a08231306040518263ffffffff1660e01b81526004016105e891906110fb565b60206040518083038186803b15801561060057600080fd5b505afa158015610614573d6000803e3d6000fd5b505050506040513d601f19601f820116820180604052508101906106389190611095565b60405163a9059cbb60e01b81529091506001600160a01b0383169063a9059cbb90610669903390859060040161110f565b602060405180830381600087803b15801561068357600080fd5b505af1158015610697573d6000803e3d6000fd5b505050506040513d601f19601f820116820180604052508101906106bb9190611051565b6106fc5760405162461bcd60e51b8152602060048201526012602482015271556e61626c6520746f20776974686472617760701b60448201526064016104a2565b7fcb1436249a1dd8cf93362c28d79a4e20dc54398b6c49e30316e8396e72a584b0338260405161072d92919061110f565b60405180910390a15050565b600f805461074690611377565b80601f016020809104026020016040519081016040528092919081815260200182805461077290611377565b80156107bf5780601f10610794576101008083540402835291602001916107bf565b820191906000526020600020905b8154815290600101906020018083116107a257829003601f168201915b505050505081565b336107d0610566565b6001600160a01b0316146107f65760405162461bcd60e51b81526004016104a2906111ca565b6001600160a01b03811661085b5760405162461bcd60e51b815260206004820152602660248201527f4f776e61626c653a206e6577206f776e657220697320746865207a65726f206160448201526564647265737360d01b60648201526084016104a2565b610864816108ec565b50565b61086f610fd9565b610877610fd9565b6108838186868661093e565b95945050505050565b608083015161089b908361097b565b60808301516108aa908261097b565b505050565b60808301516108be908361097b565b60808301516108aa9082610992565b60006108e484848460016320214ca360e11b6109f4565b949350505050565b600680546001600160a01b038381166001600160a01b0319831681179093556040519116919082907f8be0079c531659141344cd1fd0a4f28419497f9722a3daafe3b4186f6b6457e090600090a35050565b610946610fd9565b6109568560800151610100610bfb565b50509183526001600160a01b031660208301526001600160e01b031916604082015290565b6109888260038351610c59565b6108aa8282610d2c565b6001600160401b03198112156109b0576109ac8282610d4d565b5050565b6001600160401b038113156109c9576109ac8282610d8f565b600081126109dd576109ac82600083610c59565b6109ac8260016109ef84600019611321565b610c59565b6004546040516001600160601b03193060601b166020820152603481019190915260009060540160408051808303601f19018152918152815160209283012060045460608901526000818152600590935281832080546001600160a01b0319166001600160a01b038b16179055905190925082917fb5e6e01e79f91267dc17b4e6314d5d4d03593d2ceee0fbb452b750bd70ea5af991a2600082600080886000015189602001518a604001518b606001518a8d6080015160000151604051602401610ac6989796959493929190611128565b60408051601f198184030181529181526020820180516001600160e01b03166001600160e01b0319909416939093179092526002549151630200057560e51b81529092506001600160a01b0390911690634000aea090610b2e908a9089908690600401611190565b602060405180830381600087803b158015610b4857600080fd5b505af1158015610b5c573d6000803e3d6000fd5b505050506040513d601f19601f82011682018060405250810190610b809190611051565b610bd85760405162461bcd60e51b815260206004820152602360248201527f756e61626c6520746f207472616e73666572416e6443616c6c20746f206f7261604482015262636c6560e81b60648201526084016104a2565b600160046000828254610beb91906111ff565b9091555091979650505050505050565b610c0361100e565b610c0e6020836113ac565b15610c3657610c1e6020836113ac565b610c29906020611360565b610c3390836111ff565b91505b506020808301829052604080518085526000815283019091019052815b92915050565b60178111610c7a57610c748360e0600585901b168317610db2565b50505050565b60ff8111610ca457610c97836018611fe0600586901b1617610db2565b50610c7483826001610dca565b61ffff8111610ccf57610cc2836019611fe0600586901b1617610db2565b50610c7483826002610dca565b63ffffffff8111610cfc57610cef83601a611fe0600586901b1617610db2565b50610c7483826004610dca565b6001600160401b0381116108aa57610d1f83601b611fe0600586901b1617610db2565b50610c7483826008610dca565b610d3461100e565b610d4683846000015151848551610de3565b9392505050565b610d588260c3610db2565b506109ac82610d6983600019611321565b604051602001610d7b91815260200190565b604051602081830303815290604052610edb565b610d9a8260c2610db2565b506109ac8282604051602001610d7b91815260200190565b610dba61100e565b610d468384600001515184610ee8565b610dd261100e565b6108e4848560000151518585610f37565b610deb61100e565b8251821115610df957600080fd5b6020850151610e0883866111ff565b1115610e3b57610e3b85610e2b87602001518786610e2691906111ff565b610fab565b610e36906002611302565b610fc2565b600080865180518760208301019350808887011115610e5a5787860182525b505050602084015b60208410610e9a5780518252610e796020836111ff565b9150610e866020826111ff565b9050610e93602085611360565b9350610e62565b60006001610ea9866020611360565b610eb59061010061125a565b610ebf9190611360565b9151835183169219169190911790915250849050949350505050565b6109888260028351610c59565b610ef061100e565b83602001518310610f1057610f108485602001516002610e369190611302565b835180516020858301018481535080851415610f2d576001810182525b5093949350505050565b610f3f61100e565b6020850151610f4e85846111ff565b1115610f6257610f6285610e2b86856111ff565b60006001610f728461010061125a565b610f7c9190611360565b9050855183868201018583198251161781525080518487011115610fa05783860181525b509495945050505050565b600081831115610fbc575081610c53565b50919050565b8151610fce8383610bfb565b50610c748382610d2c565b6040805160a08101825260008082526020820181905291810182905260608101919091526080810161100961100e565b905290565b604051806040016040528060608152602001600081525090565b60006020828403121561103a57600080fd5b81356001600160a01b0381168114610d4657600080fd5b60006020828403121561106357600080fd5b81518015158114610d4657600080fd5b6000806040838503121561108657600080fd5b50508035926020909101359150565b6000602082840312156110a757600080fd5b5051919050565b6000815180845260005b818110156110d4576020818501810151868301820152016110b8565b818111156110e6576000602083870101525b50601f01601f19169290920160200192915050565b6001600160a01b0391909116815260200190565b6001600160a01b03929092168252602082015260400190565b6001600160a01b0389811682526020820189905260408201889052861660608201526001600160e01b03198516608082015260a0810184905260c0810183905261010060e08201819052600090611181838201856110ae565b9b9a5050505050505050505050565b60018060a01b038416815282602082015260606040820152600061088360608301846110ae565b602081526000610d4660208301846110ae565b6020808252818101527f4f776e61626c653a2063616c6c6572206973206e6f7420746865206f776e6572604082015260600190565b60008219821115611212576112126113ce565b500190565b600181815b80851115611252578160001904821115611238576112386113ce565b8085161561124557918102915b93841c939080029061121c565b509250929050565b6000610d46838360008261127057506001610c53565b8161127d57506000610c53565b8160018114611293576002811461129d576112b9565b6001915050610c53565b60ff8411156112ae576112ae6113ce565b50506001821b610c53565b5060208310610133831016604e8410600b84101617156112dc575081810a610c53565b6112e68383611217565b80600019048211156112fa576112fa6113ce565b029392505050565b600081600019048311821515161561131c5761131c6113ce565b500290565b60008083128015600160ff1b85018412161561133f5761133f6113ce565b6001600160ff1b038401831381161561135a5761135a6113ce565b50500390565b600082821015611372576113726113ce565b500390565b600181811c9082168061138b57607f821691505b60208210811415610fbc57634e487b7160e01b600052602260045260246000fd5b6000826113c957634e487b7160e01b600052601260045260246000fd5b500690565b634e487b7160e01b600052601160045260246000fdfea264697066735822122068bc023e44a8cc1c09aefd260e9e6fd180b65a96c1b018a9d047c4ee0a34750f64736f6c63430008070033687474703a2f2f76616c756174696f6e2d6170692e6865726f6b756170702e636f6d2f7072696365608060405260016004553480156200001657600080fd5b50604051620016ae380380620016ae83398101604081905262000039916200028e565b6200004433620000c2565b600880546001600160a01b0319166001600160a01b038916179055600986905584516200007990600a90602088019062000114565b5083516200008f90600b90602087019062000114565b50600c80546001600160a01b0319166001600160a01b039490941693909317909255600e55600d55506200038e92505050565b600680546001600160a01b038381166001600160a01b0319831681179093556040519116919082907f8be0079c531659141344cd1fd0a4f28419497f9722a3daafe3b4186f6b6457e090600090a35050565b82805462000122906200033b565b90600052602060002090601f01602090048101928262000146576000855562000191565b82601f106200016157805160ff191683800117855562000191565b8280016001018555821562000191579182015b828111156200019157825182559160200191906001019062000174565b506200019f929150620001a3565b5090565b5b808211156200019f5760008155600101620001a4565b80516001600160a01b0381168114620001d257600080fd5b919050565b600082601f830112620001e957600080fd5b81516001600160401b038082111562000206576200020662000378565b604051601f8301601f19908116603f0116810190828211818310171562000231576200023162000378565b816040528381526020925086838588010111156200024e57600080fd5b600091505b8382101562000272578582018301518183018401529082019062000253565b83821115620002845760008385830101525b9695505050505050565b600080600080600080600060e0888a031215620002aa57600080fd5b620002b588620001ba565b602089015160408a015191985096506001600160401b0380821115620002da57600080fd5b620002e88b838c01620001d7565b965060608a0151915080821115620002ff57600080fd5b506200030e8a828b01620001d7565b9450506200031f60808901620001ba565b925060a0880151915060c0880151905092959891949750929550565b600181811c908216806200035057607f821691505b602082108114156200037257634e487b7160e01b600052602260045260246000fd5b50919050565b634e487b7160e01b600052604160045260246000fd5b611310806200039e6000396000f3fe6080604052600436106100985760003560e01c80630f00494a146100da578063235cea9814610102578063313ce5671461012f5780634357855e14610145578063715018a6146101655780638da5cb5b1461017a5780638dc654a21461018f578063a89ae4ba146101a4578063c2939d97146101c4578063ddca3f43146101da578063de292789146101f0578063f2fde38b1461020557005b366100d8577f88a5966d370b9919b20f3e2c13ff65706f196a4e32cc2c12bf57088f8852587433346040516100ce929190611018565b60405180910390a1005b005b3480156100e657600080fd5b506100ef610225565b6040519081526020015b60405180910390f35b34801561010e57600080fd5b50600c54610122906001600160a01b031681565b6040516100f99190611004565b34801561013b57600080fd5b506100ef600d5481565b34801561015157600080fd5b506100d8610160366004610f7c565b6103c4565b34801561017157600080fd5b506100d86104c2565b34801561018657600080fd5b506101226104fd565b34801561019b57600080fd5b506100d861050c565b3480156101b057600080fd5b50600854610122906001600160a01b031681565b3480156101d057600080fd5b506100ef60095481565b3480156101e657600080fd5b506100ef600e5481565b3480156101fc57600080fd5b506007546100ef565b34801561021157600080fd5b506100d8610220366004610f31565b6106d0565b60008061023c60095430634357855e60e01b610770565b90506102f86040518060400160405280600381526020016219d95d60ea1b815250600a805461026a9061126d565b80601f01602080910402602001604051908101604052809291908181526020018280546102969061126d565b80156102e35780601f106102b8576101008083540402835291602001916102e3565b820191906000526020600020905b8154815290600101906020018083116102c657829003601f168201915b5050505050836107959092919063ffffffff16565b610325604051806040016040528060048152602001630e0c2e8d60e31b815250600b805461026a9061126d565b60408051808201909152600581526474696d657360d81b6020820152600d5461034f9183916107b8565b600854600e5461036a916001600160a01b03169083906107d6565b600854600954600e54604080516001600160a01b0390941684526020840192909252908201529092507f5de0ca4d601c6369aafe37da9bab92be9804895234cdb72d8181492e84e6bcb29060600160405180910390a15090565b60008281526005602052604090205482906001600160a01b031633146104425760405162461bcd60e51b815260206004820152602860248201527f536f75726365206d75737420626520746865206f7261636c65206f6620746865604482015267081c995c5d595cdd60c21b60648201526084015b60405180910390fd5b60008181526005602052604080822080546001600160a01b03191690555182917f7cc135e0cebb02c3480ae5d74d377283180a2601f8f644edf7987b009316c63a91a260078290556040518381527f6930ee93026433301a14b1baa0b52ca0d4640cb1edaa703beeb9056e235269849060200160405180910390a1505050565b336104cb6104fd565b6001600160a01b0316146104f15760405162461bcd60e51b8152600401610439906110c0565b6104fb60006107f5565b565b6006546001600160a01b031690565b336105156104fd565b6001600160a01b03161461053b5760405162461bcd60e51b8152600401610439906110c0565b600061054f6002546001600160a01b031690565b90506000816001600160a01b03166370a08231306040518263ffffffff1660e01b815260040161057f9190611004565b60206040518083038186803b15801561059757600080fd5b505afa1580156105ab573d6000803e3d6000fd5b505050506040513d601f19601f820116820180604052508101906105cf9190610f9e565b60405163a9059cbb60e01b81529091506001600160a01b0383169063a9059cbb906106009033908590600401611018565b602060405180830381600087803b15801561061a57600080fd5b505af115801561062e573d6000803e3d6000fd5b505050506040513d601f19601f820116820180604052508101906106529190610f5a565b6106935760405162461bcd60e51b8152602060048201526012602482015271556e61626c6520746f20776974686472617760701b6044820152606401610439565b7fcb1436249a1dd8cf93362c28d79a4e20dc54398b6c49e30316e8396e72a584b033826040516106c4929190611018565b60405180910390a15050565b336106d96104fd565b6001600160a01b0316146106ff5760405162461bcd60e51b8152600401610439906110c0565b6001600160a01b0381166107645760405162461bcd60e51b815260206004820152602660248201527f4f776e61626c653a206e6577206f776e657220697320746865207a65726f206160448201526564647265737360d01b6064820152608401610439565b61076d816107f5565b50565b610778610ee2565b610780610ee2565b61078c81868686610847565b95945050505050565b60808301516107a49083610884565b60808301516107b39082610884565b505050565b60808301516107c79083610884565b60808301516107b3908261089b565b60006107ed84848460016320214ca360e11b6108fd565b949350505050565b600680546001600160a01b038381166001600160a01b0319831681179093556040519116919082907f8be0079c531659141344cd1fd0a4f28419497f9722a3daafe3b4186f6b6457e090600090a35050565b61084f610ee2565b61085f8560800151610100610b04565b50509183526001600160a01b031660208301526001600160e01b031916604082015290565b6108918260038351610b62565b6107b38282610c35565b6001600160401b03198112156108b9576108b58282610c56565b5050565b6001600160401b038113156108d2576108b58282610c98565b600081126108e6576108b582600083610b62565b6108b58260016108f884600019611217565b610b62565b6004546040516001600160601b03193060601b166020820152603481019190915260009060540160408051808303601f19018152918152815160209283012060045460608901526000818152600590935281832080546001600160a01b0319166001600160a01b038b16179055905190925082917fb5e6e01e79f91267dc17b4e6314d5d4d03593d2ceee0fbb452b750bd70ea5af991a2600082600080886000015189602001518a604001518b606001518a8d60800151600001516040516024016109cf989796959493929190611031565b60408051601f198184030181529181526020820180516001600160e01b03166001600160e01b0319909416939093179092526002549151630200057560e51b81529092506001600160a01b0390911690634000aea090610a37908a9089908690600401611099565b602060405180830381600087803b158015610a5157600080fd5b505af1158015610a65573d6000803e3d6000fd5b505050506040513d601f19601f82011682018060405250810190610a899190610f5a565b610ae15760405162461bcd60e51b815260206004820152602360248201527f756e61626c6520746f207472616e73666572416e6443616c6c20746f206f7261604482015262636c6560e81b6064820152608401610439565b600160046000828254610af491906110f5565b9091555091979650505050505050565b610b0c610f17565b610b176020836112a2565b15610b3f57610b276020836112a2565b610b32906020611256565b610b3c90836110f5565b91505b506020808301829052604080518085526000815283019091019052815b92915050565b60178111610b8357610b7d8360e0600585901b168317610cbb565b50505050565b60ff8111610bad57610ba0836018611fe0600586901b1617610cbb565b50610b7d83826001610cd3565b61ffff8111610bd857610bcb836019611fe0600586901b1617610cbb565b50610b7d83826002610cd3565b63ffffffff8111610c0557610bf883601a611fe0600586901b1617610cbb565b50610b7d83826004610cd3565b6001600160401b0381116107b357610c2883601b611fe0600586901b1617610cbb565b50610b7d83826008610cd3565b610c3d610f17565b610c4f83846000015151848551610cec565b9392505050565b610c618260c3610cbb565b506108b582610c7283600019611217565b604051602001610c8491815260200190565b604051602081830303815290604052610de4565b610ca38260c2610cbb565b506108b58282604051602001610c8491815260200190565b610cc3610f17565b610c4f8384600001515184610df1565b610cdb610f17565b6107ed848560000151518585610e40565b610cf4610f17565b8251821115610d0257600080fd5b6020850151610d1183866110f5565b1115610d4457610d4485610d3487602001518786610d2f91906110f5565b610eb4565b610d3f9060026111f8565b610ecb565b600080865180518760208301019350808887011115610d635787860182525b505050602084015b60208410610da35780518252610d826020836110f5565b9150610d8f6020826110f5565b9050610d9c602085611256565b9350610d6b565b60006001610db2866020611256565b610dbe90610100611150565b610dc89190611256565b9151835183169219169190911790915250849050949350505050565b6108918260028351610b62565b610df9610f17565b83602001518310610e1957610e198485602001516002610d3f91906111f8565b835180516020858301018481535080851415610e36576001810182525b5093949350505050565b610e48610f17565b6020850151610e5785846110f5565b1115610e6b57610e6b85610d3486856110f5565b60006001610e7b84610100611150565b610e859190611256565b9050855183868201018583198251161781525080518487011115610ea95783860181525b509495945050505050565b600081831115610ec5575081610b5c565b50919050565b8151610ed78383610b04565b50610b7d8382610c35565b6040805160a081018252600080825260208201819052918101829052606081019190915260808101610f12610f17565b905290565b604051806040016040528060608152602001600081525090565b600060208284031215610f4357600080fd5b81356001600160a01b0381168114610c4f57600080fd5b600060208284031215610f6c57600080fd5b81518015158114610c4f57600080fd5b60008060408385031215610f8f57600080fd5b50508035926020909101359150565b600060208284031215610fb057600080fd5b5051919050565b6000815180845260005b81811015610fdd57602081850181015186830182015201610fc1565b81811115610fef576000602083870101525b50601f01601f19169290920160200192915050565b6001600160a01b0391909116815260200190565b6001600160a01b03929092168252602082015260400190565b6001600160a01b0389811682526020820189905260408201889052861660608201526001600160e01b03198516608082015260a0810184905260c0810183905261010060e0820181905260009061108a83820185610fb7565b9b9a5050505050505050505050565b60018060a01b038416815282602082015260606040820152600061078c6060830184610fb7565b6020808252818101527f4f776e61626c653a2063616c6c6572206973206e6f7420746865206f776e6572604082015260600190565b60008219821115611108576111086112c4565b500190565b600181815b8085111561114857816000190482111561112e5761112e6112c4565b8085161561113b57918102915b93841c9390800290611112565b509250929050565b6000610c4f838360008261116657506001610b5c565b8161117357506000610b5c565b81600181146111895760028114611193576111af565b6001915050610b5c565b60ff8411156111a4576111a46112c4565b50506001821b610b5c565b5060208310610133831016604e8410600b84101617156111d2575081810a610b5c565b6111dc838361110d565b80600019048211156111f0576111f06112c4565b029392505050565b6000816000190483118215151615611212576112126112c4565b500290565b60008083128015600160ff1b850184121615611235576112356112c4565b6001600160ff1b0384018313811615611250576112506112c4565b50500390565b600082821015611268576112686112c4565b500390565b600181811c9082168061128157607f821691505b60208210811415610ec557634e487b7160e01b600052602260045260246000fd5b6000826112bf57634e487b7160e01b600052601260045260246000fd5b500690565b634e487b7160e01b600052601160045260246000fdfea2646970667358221220af34045410d6bcf843f4cb9532fd20ad5f3e64fb6bedddf0ed44cc55d2a648b664736f6c63430008070033a2646970667358221220e21d6f212450069507c9d63cf4947fa551ec4dbd2e5e5a78dfe633ee0826312364736f6c63430008070033",
  "immutableReferences": {},
  "source": "// SPDX-License-Identifier: UNLICENSED\r\n\r\npragma solidity ^0.8.6;\r\n\r\nimport \"@openzeppelin/contracts/access/Ownable.sol\";\r\nimport \"@openzeppelin/contracts/token/ERC20/IERC20.sol\";\r\nimport \"@openzeppelin/contracts/token/ERC20/utils/SafeERC20.sol\";\r\nimport \"./FFAContract.sol\";\r\n\r\ncontract FFAFactory {\r\n    using SafeERC20 for IERC20;\r\n\r\n    //hold addresses of FFA contracts\r\n    address[] private ffaContracts;\r\n\r\n    event Created(string name, string symbol, uint256 sizeOfContract);\r\n\r\n    function createFFAContract(\r\n        string memory name, \r\n        string memory symbol,\r\n        address oracleAddress,\r\n        bytes32 jobId, \r\n        uint256 fee,\r\n        address linkAddress,\r\n        string memory underlyingApiURL,\r\n        string memory underlyingApiPath,\r\n        int decimals,\r\n        uint256 sizeOfContract\r\n        /* margin rate representation:\r\n         * Scaled 1/100\r\n         * 1.25% -> 125\r\n         */\r\n        ) \r\n        external returns (address ffaContractAddress_) {\r\n            \r\n            require (oracleAddress != address(0), \"oracle address cannot be zero address\");\r\n            require(jobId != \"\", \"jobId cannot be empty string\");\r\n            require(decimals != 0, \"decimals can't be zero\");\r\n            require(sizeOfContract > 0, \"contract size cannot be zero\");\r\n\r\n            \r\n            ffaContractAddress_ = address(new FFAContract(name, symbol, oracleAddress, jobId, fee, linkAddress, underlyingApiURL, underlyingApiPath, decimals, sizeOfContract));\r\n            require(keccak256(abi.encodePacked(FFAContract(ffaContractAddress_).getContractState())) == keccak256(abi.encodePacked(\"Created\")), \"contract not created\");\r\n            ffaContracts.push(ffaContractAddress_);\r\n            emit Created(name, symbol, sizeOfContract);\r\n    }\r\n\r\n    function getFFAContract(uint256 index) external view returns(FFAContract) {\r\n        return FFAContract(ffaContracts[index]);\r\n    }\r\n}\r\n\r\n",
  "sourcePath": "C:\\Users\\Tomi\\OneDrive - The University of Chicago\\Documents\\Securrency\\FuturesExchange\\contracts\\FFAFactory.sol",
  "compiler": {
    "name": "solc",
    "version": "0.8.7+commit.e28d00a7.Emscripten.clang"
  },
  "schemaVersion": "3.4.2",
  "updatedAt": "2021-08-25T12:30:01.918Z",
  "devdoc": {
    "kind": "dev",
    "methods": {},
    "version": 1
  },
  "userdoc": {
    "kind": "user",
    "methods": {},
    "version": 1
  }
}