{
  "contractName": "FFAFactory",
  "abi": [
    {
      "anonymous": false,
      "inputs": [
        {
          "indexed": false,
          "internalType": "string",
          "name": "name",
          "type": "string"
        },
        {
          "indexed": false,
          "internalType": "string",
          "name": "symbol",
          "type": "string"
        },
        {
          "indexed": false,
          "internalType": "uint256",
          "name": "sizeOfContract",
          "type": "uint256"
        }
      ],
      "name": "Created",
      "type": "event"
    },
    {
      "inputs": [
        {
          "internalType": "string",
          "name": "name",
          "type": "string"
        },
        {
          "internalType": "string",
          "name": "symbol",
          "type": "string"
        },
        {
          "internalType": "uint256",
          "name": "sizeOfContract",
          "type": "uint256"
        },
        {
          "internalType": "string",
          "name": "underlyingApiURL",
          "type": "string"
        },
        {
          "internalType": "string",
          "name": "underlyingApiPath",
          "type": "string"
        },
        {
          "internalType": "int256",
          "name": "underlyingDecimals",
          "type": "int256"
        }
      ],
      "name": "createFFAContract",
      "outputs": [
        {
          "internalType": "address",
          "name": "ffaContractAddress_",
          "type": "address"
        }
      ],
      "stateMutability": "nonpayable",
      "type": "function"
    },
    {
      "inputs": [
        {
          "internalType": "uint256",
          "name": "index",
          "type": "uint256"
        }
      ],
      "name": "getFFAContract",
      "outputs": [
        {
          "internalType": "contract FFAContract",
          "name": "",
          "type": "address"
        }
      ],
      "stateMutability": "view",
      "type": "function",
      "constant": true
    }
  ],
  "bytecode": "0x608060405234801561001057600080fd5b5061274b806100206000396000f3fe608060405234801561001057600080fd5b50600436106100365760003560e01c806319a6afd01461003b578063d058bd9314610077575b600080fd5b61004e6100493660046101e7565b61008a565b60405173ffffffffffffffffffffffffffffffffffffffff909116815260200160405180910390f35b61004e6100853660046102a6565b610111565b600086868686868660405161009e9061014d565b6100ad96959493929190610342565b604051809103906000f0801580156100c9573d6000803e3d6000fd5b5090507f1a4e879d87481bd05a3a677d4b1955b720847250037488426080927c494cda068787876040516100ff9392919061030c565b60405180910390a19695505050505050565b6000808281548110610125576101256103a9565b60009182526020909120015473ffffffffffffffffffffffffffffffffffffffff1692915050565b612340806103d683390190565b600082601f83011261016b57600080fd5b813567ffffffffffffffff80821115610186576101866103bf565b604051601f8301601f19908116603f011681019082821181831017156101ae576101ae6103bf565b816040528381528660208588010111156101c757600080fd5b836020870160208301376000602085830101528094505050505092915050565b60008060008060008060c0878903121561020057600080fd5b863567ffffffffffffffff8082111561021857600080fd5b6102248a838b0161015a565b9750602089013591508082111561023a57600080fd5b6102468a838b0161015a565b965060408901359550606089013591508082111561026357600080fd5b61026f8a838b0161015a565b9450608089013591508082111561028557600080fd5b5061029289828a0161015a565b92505060a087013590509295509295509295565b6000602082840312156102b857600080fd5b5035919050565b6000815180845260005b818110156102e5576020818501810151868301820152016102c9565b818111156102f7576000602083870101525b50601f01601f19169290920160200192915050565b60608152600061031f60608301866102bf565b828103602084015261033181866102bf565b915050826040830152949350505050565b60c08152600061035560c08301896102bf565b828103602084015261036781896102bf565b9050866040840152828103606084015261038181876102bf565b9050828103608084015261039581866102bf565b9150508260a0830152979650505050505050565b634e487b7160e01b600052603260045260246000fd5b634e487b7160e01b600052604160045260246000fdfe60806040523480156200001157600080fd5b506040516200234038038062002340833981016040819052620000349162000207565b855162000049906000906020890190620000aa565b5084516200005f906001906020880190620000aa565b50600384905581516200007a906011906020850190620000aa565b50825162000090906010906020860190620000aa565b5060125550506002805460ff191690555062000325915050565b828054620000b890620002d2565b90600052602060002090601f016020900481019282620000dc576000855562000127565b82601f10620000f757805160ff191683800117855562000127565b8280016001018555821562000127579182015b82811115620001275782518255916020019190600101906200010a565b506200013592915062000139565b5090565b5b808211156200013557600081556001016200013a565b600082601f8301126200016257600080fd5b81516001600160401b03808211156200017f576200017f6200030f565b604051601f8301601f19908116603f01168101908282118183101715620001aa57620001aa6200030f565b81604052838152602092508683858801011115620001c757600080fd5b600091505b83821015620001eb5785820183015181830184015290820190620001cc565b83821115620001fd5760008385830101525b9695505050505050565b60008060008060008060c087890312156200022157600080fd5b86516001600160401b03808211156200023957600080fd5b620002478a838b0162000150565b975060208901519150808211156200025e57600080fd5b6200026c8a838b0162000150565b96506040890151955060608901519150808211156200028a57600080fd5b620002988a838b0162000150565b94506080890151915080821115620002af57600080fd5b50620002be89828a0162000150565b92505060a087015190509295509295509295565b600181811c90821680620002e757607f821691505b602082108114156200030957634e487b7160e01b600052602260045260246000fd5b50919050565b634e487b7160e01b600052604160045260246000fd5b61200b80620003356000396000f3fe608060405234801561001057600080fd5b50600436106101f05760003560e01c80637ed63ce91161010f578063923123b3116100a2578063b317f5ec11610071578063b317f5ec14610358578063c5bf38a114610369578063c82ee7ab1461037c578063e279cbe11461038d57600080fd5b8063923123b31461033757806395d89b411461033f5780639b65569114610347578063addcb0e61461034f57600080fd5b806389f00b6d116100de57806389f00b6d1461030b5780638d2d8c5e146103145780638f896f501461031c57806392081a471461032f57600080fd5b80637ed63ce9146102e05780637f4e4849146102e857806380af00ca146102f057806385cbefa91461030357600080fd5b8063381cf2e811610187578063616ab42c11610156578063616ab42c146102b75780636621f80d146102bf578063708febc8146102c757806370a4cd34146102d857600080fd5b8063381cf2e81461027957806347d3fa6d146102825780635ccee5fa146102a75780635edf7d8b146102af57600080fd5b806325a760c2116101c357806325a760c21461022d5780632edef21614610244578063343d20881461024d5780633448f6591461025657600080fd5b806306fdde03146101f5578063150704011461021357806317d7de7c1461021b5780631bc7d9ab14610223575b600080fd5b6101fd610395565b60405161020a9190611dba565b60405180910390f35b6101fd610423565b6101fd6104b5565b61022b6104c4565b005b61023660125481565b60405190815260200161020a565b610236600f5481565b61023660065481565b610269610264366004611ba3565b61057e565b604051901515815260200161020a565b61023660075481565b6004546001600160a01b03165b6040516001600160a01b03909116815260200161020a565b61022b6106d0565b600854610236565b6101fd610708565b610236610717565b600b546001600160a01b031661028f565b61022b6107b2565b61022b61094b565b6101fd6109f6565b61022b6102fe366004611cc8565b610b8b565b6101fd610d81565b610236600e5481565b600654610236565b61026961032a366004611bbe565b610d90565b601254610236565b600354610236565b6101fd611322565b61022b61132f565b610236600d5481565b6005546001600160a01b031661028f565b610269610377366004611c0b565b6113ba565b600a546001600160a01b031661028f565b61022b6118fd565b600080546103a290611f0a565b80601f01602080910402602001604051908101604052809291908181526020018280546103ce90611f0a565b801561041b5780601f106103f05761010080835404028352916020019161041b565b820191906000526020600020905b8154815290600101906020018083116103fe57829003601f168201915b505050505081565b60606001805461043290611f0a565b80601f016020809104026020016040519081016040528092919081815260200182805461045e90611f0a565b80156104ab5780601f10610480576101008083540402835291602001916104ab565b820191906000526020600020905b81548152906001019060200180831161048e57829003601f168201915b5050505050905090565b60606000805461043290611f0a565b6013546009546001600160a01b03909116906369723be79061050d906104e990611988565b6104f4600754611ae5565b6104fd42611988565b610508600854611988565b611b3a565b6040518263ffffffff1660e01b81526004016105299190611dba565b602060405180830381600087803b15801561054357600080fd5b505af1158015610557573d6000803e3d6000fd5b505050506040513d601f19601f8201168201806040525081019061057b9190611caf565b50565b6000600160025460ff16600381111561059957610599611f93565b146105f95760405162461bcd60e51b815260206004820152602560248201527f436f6e74726163742068617320746f20626520696e20496e6974696174656420604482015264737461746560d81b60648201526084015b60405180910390fd5b600061060742600854611b6c565b1161067a5760405162461bcd60e51b815260206004820152602c60248201527f44656661756c74696e672063616e206f6e6c792068617070656e206265666f7260448201527f652065787069726174696f6e000000000000000000000000000000000000000060648201526084016105f0565b6002805460ff19166003179055604080514281526001600160a01b03841660208201527f724b99e866949401e1553ae6e0da07c7e24b0308581155730cbe34363752bd3f910160405180910390a1506001919050565b6014546040516369723be760e01b815260206004820152600060248201526001600160a01b03909116906369723be790604401610529565b60606010805461043290611f0a565b601354604080517f9df49c2300000000000000000000000000000000000000000000000000000000815290516000926001600160a01b031691639df49c23916004808301926020929190829003018186803b15801561077557600080fd5b505afa158015610789573d6000803e3d6000fd5b505050506040513d601f19601f820116820180604052508101906107ad9190611caf565b905090565b60006107c060085442611b6c565b10156108345760405162461bcd60e51b815260206004820152602f60248201527f536574746c656d656e742063616e6e6f74206f6363757265206265666f72652060448201527f65787069726174696f6e2064617465000000000000000000000000000000000060648201526084016105f0565b600160025460ff16600381111561084d5761084d611f93565b146108a85760405162461bcd60e51b815260206004820152602560248201527f436f6e74726163742068617320746f20626520696e20496e6974696174656420604482015264737461746560d81b60648201526084016105f0565b60006003546006546108ba9190611e4c565b90506000600354600f546108ce9190611e4c565b905060006108dc8383611e6b565b6002805460ff191681179055600454600554600854604080516001600160a01b03948516815293909216602084015290820152606081018290529091507f408d2f82a05767182d614a96957816d6acbd66a392006f7aafee6d91fc880f909060800160405180910390a1505050565b6015546008546001600160a01b039091169063afb0a7d79061096e904290611b6c565b6040518263ffffffff1660e01b815260040161098c91815260200190565b600060405180830381600087803b1580156109a657600080fd5b505af11580156109ba573d6000803e3d6000fd5b50506015546040516369723be760e01b815260206004820152600060248201526001600160a01b0390911692506369723be79150604401610529565b6060600060025460ff166003811115610a1157610a11611f93565b1415610a4f575060408051808201909152600781527f4372656174656400000000000000000000000000000000000000000000000000602082015290565b600160025460ff166003811115610a6857610a68611f93565b1415610aa6575060408051808201909152600981527f496e697469617465640000000000000000000000000000000000000000000000602082015290565b6002805460ff166003811115610abe57610abe611f93565b1415610afc575060408051808201909152600781527f536574746c656400000000000000000000000000000000000000000000000000602082015290565b600360025460ff166003811115610b1557610b15611f93565b1415610b53575060408051808201909152600981527f44656661756c7465640000000000000000000000000000000000000000000000602082015290565b5060408051808201909152600b81527f7374617465206572726f72000000000000000000000000000000000000000000602082015290565b600160025460ff166003811115610ba457610ba4611f93565b14610bff5760405162461bcd60e51b815260206004820152602560248201527f436f6e74726163742068617320746f20626520696e20496e6974696174656420604482015264737461746560d81b60648201526084016105f0565b6000610c0d42600854611b6c565b11610c805760405162461bcd60e51b815260206004820152602860248201527f4d20746f206d2063616e206f6e6c792068617070656e206265666f726520657860448201527f7069726174696f6e00000000000000000000000000000000000000000000000060648201526084016105f0565b600060035482610c909190611e4c565b90506000600354600f54610ca49190611e4c565b90506000610cb28284611e6b565b90506000811315610ce357600b54600a54600c54610ce1926001600160a01b0390811692811691859116610d90565b505b6000811215610d1f57600a54600b54610d1d916001600160a01b039081169116610d0c84611f60565b600c546001600160a01b0316610d90565b505b600f84905560045460055460408051428152602081018590526001600160a01b0393841681830152929091166060830152517f63f10cc602ea66cf5c2a09a756a193c86ab46c33a794eb8d9aee6cf9426553a89181900360800190a150505050565b60606011805461043290611f0a565b60006001600160a01b038516610e0d5760405162461bcd60e51b8152602060048201526024808201527f53656e6465722077616c6c657420616464726573732063616e6e6f742062652060448201527f7a65726f0000000000000000000000000000000000000000000000000000000060648201526084016105f0565b6001600160a01b038416610e895760405162461bcd60e51b815260206004820152602760248201527f526563697069656e742077616c6c657420616464726573732063616e6e6f742060448201527f6265207a65726f0000000000000000000000000000000000000000000000000060648201526084016105f0565b846001600160a01b0316846001600160a01b03161415610f115760405162461bcd60e51b815260206004820152602f60248201527f53656e64657220616e6420726563697069656e742077616c6c6574732063616e60448201527f6e6f74206265207468652073616d65000000000000000000000000000000000060648201526084016105f0565b60008311610f875760405162461bcd60e51b815260206004820152602e60248201527f416d6f756e74207472616e736665727265642068617320746f2062652067726560448201527f61746572207468616e207a65726f00000000000000000000000000000000000060648201526084016105f0565b604051632a1e15e760e01b81523060048201526001600160a01b0383811660248301528691869160009190841690632a1e15e79060440160206040518083038186803b158015610fd657600080fd5b505afa158015610fea573d6000803e3d6000fd5b505050506040513d601f19601f8201168201806040525081019061100e9190611caf565b9050858110156110865760405162461bcd60e51b815260206004820152602160248201527f636f6c6c61746572616c2062616c616e6365206e6f742073756666696369656e60448201527f740000000000000000000000000000000000000000000000000000000000000060648201526084016105f0565b6040517f22604de20000000000000000000000000000000000000000000000000000000081526001600160a01b038681166004830152306024830152604482018890528416906322604de290606401600060405180830381600087803b1580156110ef57600080fd5b505af1158015611103573d6000803e3d6000fd5b50506040517f23b872dd0000000000000000000000000000000000000000000000000000000081526001600160a01b038b811660048301528a81166024830152604482018a9052881692506323b872dd9150606401602060405180830381600087803b15801561117257600080fd5b505af1158015611186573d6000803e3d6000fd5b505050506040513d601f19601f820116820180604052508101906111aa9190611c8d565b5060405163dfeff66160e01b81523060048201526001600160a01b03868116602483015287830360448301819052919085169063dfeff66190606401600060405180830381600087803b15801561120057600080fd5b505af1158015611214573d6000803e3d6000fd5b5050604051632a1e15e760e01b81523060048201526001600160a01b038981166024830152600094508a935086169150632a1e15e79060440160206040518083038186803b15801561126557600080fd5b505afa158015611279573d6000803e3d6000fd5b505050506040513d601f19601f8201168201806040525081019061129d9190611caf565b6112a79190611ded565b60405163dfeff66160e01b81523060048201526001600160a01b038881166024830152604482018390529192509084169063dfeff66190606401600060405180830381600087803b1580156112fb57600080fd5b505af115801561130f573d6000803e3d6000fd5b5060019c9b505050505050505050505050565b600180546103a290611f0a565b601560009054906101000a90046001600160a01b03166001600160a01b031663bd2563fb6040518163ffffffff1660e01b815260040160206040518083038186803b15801561137d57600080fd5b505afa158015611391573d6000803e3d6000fd5b505050506040513d601f19601f820116820180604052508101906113b59190611caf565b600755565b60006001600160a01b0389166114125760405162461bcd60e51b815260206004820152601a60248201527f4c6f6e672063616e2774206265207a65726f206164647265737300000000000060448201526064016105f0565b6001600160a01b0388166114685760405162461bcd60e51b815260206004820152601b60248201527f53686f72742063616e2774206265207a65726f2061646472657373000000000060448201526064016105f0565b876001600160a01b0316896001600160a01b031614156114f05760405162461bcd60e51b815260206004820152602260248201527f4c6f6e6720616e642073686f72742063616e27742062652073616d652070617260448201527f747900000000000000000000000000000000000000000000000000000000000060648201526084016105f0565b6001600160a01b03861661156b5760405162461bcd60e51b8152602060048201526024808201527f4c6f6e672077616c6c65742063616e6e6f742068617665207a65726f2061646460448201527f726573730000000000000000000000000000000000000000000000000000000060648201526084016105f0565b6001600160a01b0385166115e75760405162461bcd60e51b815260206004820152602560248201527f53686f72742077616c6c65742063616e6e6f742068617665207a65726f20616460448201527f647265737300000000000000000000000000000000000000000000000000000060648201526084016105f0565b846001600160a01b0316866001600160a01b0316141561166f5760405162461bcd60e51b815260206004820152602960248201527f6c6f6e6720616e642073686f72742077616c6c6574732063616e6e6f7420626560448201527f207468652073616d65000000000000000000000000000000000000000000000060648201526084016105f0565b826116e25760405162461bcd60e51b815260206004820152602660248201527f6d61696e74656e616e6365206d617267696e20726174652063616e6e6f74206260448201527f65207a65726f000000000000000000000000000000000000000000000000000060648201526084016105f0565b60006116ee4289611b6c565b116117615760405162461bcd60e51b815260206004820152602860248201527f46464120636f6e74726163742068617320746f2065787069726520696e20746860448201527f652066757475726500000000000000000000000000000000000000000000000060648201526084016105f0565b600480546001600160a01b03808c1673ffffffffffffffffffffffffffffffffffffffff1992831617909255600580548b841692169190911790556015541663afb0a7d76117af428a611b6c565b6040518263ffffffff1660e01b81526004016117cd91815260200190565b600060405180830381600087803b1580156117e757600080fd5b505af11580156117fb573d6000803e3d6000fd5b505060006006819055600f81905560088a9055600a80546001600160a01b038b811673ffffffffffffffffffffffffffffffffffffffff1992831617909255600b80548b8416908316179055600d899055600e889055600c8054928816929091169190911790556002805460ff19166001179055915061187d90508486611ded565b600554600454600654600754600854600354604080519485526020850193909352918301526060820152608081018490529293506001600160a01b03918216929116907fdabcbd8689bd18e2ffb54dbab7b5f14a246f19bec1c9184bee7ac6eeae2f2f299060a00160405180910390a35060019998505050505050505050565b601460009054906101000a90046001600160a01b03166001600160a01b0316639df49c236040518163ffffffff1660e01b815260040160206040518083038186803b15801561194b57600080fd5b505afa15801561195f573d6000803e3d6000fd5b505050506040513d601f19601f820116820180604052508101906119839190611caf565b600955565b6060816119c857505060408051808201909152600181527f3000000000000000000000000000000000000000000000000000000000000000602082015290565b8160005b81156119f257806119dc81611f45565b91506119eb9050600a83611e2a565b91506119cc565b60008167ffffffffffffffff811115611a0d57611a0d611fbf565b6040519080825280601f01601f191660200182016040528015611a37576020820181803683370190505b509050815b8515611adc57611a4d600182611ec3565b90506000611a5c600a88611e2a565b611a6790600a611e4c565b611a719088611ec3565b611a7c906030611e05565b905060008160f81b905080848481518110611a9957611a99611fa9565b60200101907effffffffffffffffffffffffffffffffffffffffffffffffffffffffffffff1916908160001a905350611ad3600a89611e2a565b97505050611a3c565b50949350505050565b606060008212611afe57611af882611988565b92915050565b611b0f611b0a83611f60565b611988565b604051602001611b1f9190611d75565b6040516020818303038152906040529050919050565b919050565b606084848484604051602001611b539493929190611ce1565b6040516020818303038152906040529050949350505050565b600081831115611b7b57600080fd5b611b858383611ec3565b9392505050565b80356001600160a01b0381168114611b3557600080fd5b600060208284031215611bb557600080fd5b611b8582611b8c565b60008060008060808587031215611bd457600080fd5b611bdd85611b8c565b9350611beb60208601611b8c565b925060408501359150611c0060608601611b8c565b905092959194509250565b600080600080600080600080610100898b031215611c2857600080fd5b611c3189611b8c565b9750611c3f60208a01611b8c565b965060408901359550611c5460608a01611b8c565b9450611c6260808a01611b8c565b935060a0890135925060c08901359150611c7e60e08a01611b8c565b90509295985092959890939650565b600060208284031215611c9f57600080fd5b81518015158114611b8557600080fd5b600060208284031215611cc157600080fd5b5051919050565b600060208284031215611cda57600080fd5b5035919050565b60008551611cf3818460208a01611eda565b80830190507f2f000000000000000000000000000000000000000000000000000000000000008082528651611d2f816001850160208b01611eda565b600192019182018190528551611d4c816002850160208a01611eda565b60029201918201528351611d67816003840160208801611eda565b016003019695505050505050565b7f2d00000000000000000000000000000000000000000000000000000000000000815260008251611dad816001850160208701611eda565b9190910160010192915050565b6020815260008251806020840152611dd9816040850160208701611eda565b601f01601f19169190910160400192915050565b60008219821115611e0057611e00611f7d565b500190565b600060ff821660ff84168060ff03821115611e2257611e22611f7d565b019392505050565b600082611e4757634e487b7160e01b600052601260045260246000fd5b500490565b6000816000190483118215151615611e6657611e66611f7d565b500290565b600080831283600160ff1b01831281151615611e8957611e89611f7d565b837f7fffffffffffffffffffffffffffffffffffffffffffffffffffffffffffffff018313811615611ebd57611ebd611f7d565b50500390565b600082821015611ed557611ed5611f7d565b500390565b60005b83811015611ef5578181015183820152602001611edd565b83811115611f04576000848401525b50505050565b600181811c90821680611f1e57607f821691505b60208210811415611f3f57634e487b7160e01b600052602260045260246000fd5b50919050565b6000600019821415611f5957611f59611f7d565b5060010190565b6000600160ff1b821415611f7657611f76611f7d565b5060000390565b634e487b7160e01b600052601160045260246000fd5b634e487b7160e01b600052602160045260246000fd5b634e487b7160e01b600052603260045260246000fd5b634e487b7160e01b600052604160045260246000fdfea26469706673582212208eb414a0fa85ff12dee1790c41185a3ce94687a0e09ac90432e0b16d2ce1505864736f6c63430008070033a264697066735822122025a6a6e9623efbc2c5e74472877c1a8987fca9c314b5abe84c8065ead537954264736f6c63430008070033",
  "immutableReferences": {},
  "source": "// SPDX-License-Identifier: UNLICENSED\r\n\r\npragma solidity ^0.8.6;\r\n\r\nimport \"@openzeppelin/contracts/access/Ownable.sol\";\r\nimport \"@openzeppelin/contracts/token/ERC20/IERC20.sol\";\r\nimport \"@openzeppelin/contracts/token/ERC20/utils/SafeERC20.sol\";\r\nimport \"./FFAContract.sol\";\r\n\r\ncontract FFAFactory {\r\n    using SafeERC20 for IERC20;\r\n\r\n    //hold addresses of FFA contracts\r\n    address[] private ffaContracts;\r\n\r\n    event Created(string name, string symbol, uint256 sizeOfContract);\r\n    \r\n    function createFFAContract(\r\n        string memory name, \r\n        string memory symbol,\r\n        uint256 sizeOfContract,\r\n        string memory underlyingApiURL,\r\n        string memory underlyingApiPath,\r\n        int256 underlyingDecimals\r\n        ) \r\n        external returns (address ffaContractAddress_) {\r\n            /*\r\n            require(bytes(underlyingApiURL).length != 0, \"url cannot be empty string\");\r\n            require(bytes(underlyingApiPath).length != 0, \"url cannot be empty string\");\r\n            require(underlyingDecimals != 0, \"decimals can't be zero\");\r\n            require(sizeOfContract > 0, \"contract size cannot be zero\");*/\r\n            ffaContractAddress_ = address(new FFAContract(name, symbol, sizeOfContract, underlyingApiURL, underlyingApiPath, underlyingDecimals));\r\n            //ffaContractAddress_ = address(new FFAContract(name, symbol, sizeOfContract, underlyingApiURL, underlyingApiPath, underlyingDecimals));\r\n            //require(keccak256(abi.encodePacked(FFAContract(ffaContractAddress_).getContractState())) == keccak256(abi.encodePacked(\"Created\")), \"contract not created\");\r\n            //ffaContracts.push(ffaContractAddress_);\r\n            emit Created(name, symbol, sizeOfContract);\r\n    }\r\n\r\n    function getFFAContract(uint256 index) external view returns(FFAContract) {\r\n        return FFAContract(ffaContracts[index]);\r\n    }\r\n}\r\n\r\n",
  "sourcePath": "C:\\Users\\Tomi\\OneDrive - The University of Chicago\\Documents\\Securrency\\FuturesExchange\\contracts\\FFAFactory.sol",
  "compiler": {
    "name": "solc",
    "version": "0.8.7+commit.e28d00a7.Emscripten.clang"
  },
  "schemaVersion": "3.4.2",
  "updatedAt": "2021-09-14T17:02:30.839Z",
  "networkType": "ethereum",
  "devdoc": {
    "kind": "dev",
    "methods": {},
    "version": 1
  },
  "userdoc": {
    "kind": "user",
    "methods": {},
    "version": 1
  }
}