{
  "contractName": "FFAFactory",
  "abi": [
    {
      "anonymous": false,
      "inputs": [
        {
          "indexed": false,
          "internalType": "string",
          "name": "name",
          "type": "string"
        },
        {
          "indexed": false,
          "internalType": "string",
          "name": "symbol",
          "type": "string"
        },
        {
          "indexed": false,
          "internalType": "uint256",
          "name": "sizeOfContract",
          "type": "uint256"
        }
      ],
      "name": "Created",
      "type": "event"
    },
    {
      "inputs": [
        {
          "internalType": "string",
          "name": "name",
          "type": "string"
        },
        {
          "internalType": "string",
          "name": "symbol",
          "type": "string"
        },
        {
          "internalType": "address",
          "name": "oracleAddress",
          "type": "address"
        },
        {
          "internalType": "bytes32",
          "name": "jobId",
          "type": "bytes32"
        },
        {
          "internalType": "uint256",
          "name": "fee",
          "type": "uint256"
        },
        {
          "internalType": "address",
          "name": "linkAddress",
          "type": "address"
        },
        {
          "internalType": "int256",
          "name": "decimals",
          "type": "int256"
        },
        {
          "internalType": "uint256",
          "name": "sizeOfContract",
          "type": "uint256"
        }
      ],
      "name": "createFFAContract",
      "outputs": [
        {
          "internalType": "address",
          "name": "ffaContractAddress_",
          "type": "address"
        }
      ],
      "stateMutability": "nonpayable",
      "type": "function"
    },
    {
      "inputs": [
        {
          "internalType": "uint256",
          "name": "index",
          "type": "uint256"
        }
      ],
      "name": "getFFAContract",
      "outputs": [
        {
          "internalType": "contract FFAContract",
          "name": "",
          "type": "address"
        }
      ],
      "stateMutability": "view",
      "type": "function"
    }
  ],
  "bytecode": "0x608060405234801561001057600080fd5b5061b4d2806100206000396000f3fe60806040523480156200001157600080fd5b50600436106200003a5760003560e01c8063d058bd93146200003f578063d27d8bc21462000075575b600080fd5b6200005d6004803603810190620000579190620005b7565b620000ab565b6040516200006c91906200076a565b60405180910390f35b6200009360048036038101906200008d919062000456565b620000f5565b604051620000a291906200074d565b60405180910390f35b6000808281548110620000c357620000c262000a53565b5b9060005260206000200160009054906101000a900473ffffffffffffffffffffffffffffffffffffffff169050919050565b60008a8a8a8a8a8a8a8a8a8a6040516200010f906200030f565b620001249a9998979695949392919062000787565b604051809103906000f08015801562000141573d6000803e3d6000fd5b509050604051602001620001559062000736565b604051602081830303815290604052805190602001208173ffffffffffffffffffffffffffffffffffffffff16637f4e48496040518163ffffffff1660e01b815260040160006040518083038186803b158015620001b257600080fd5b505afa158015620001c7573d6000803e3d6000fd5b505050506040513d6000823e3d601f19601f82011682018060405250810190620001f2919062000566565b6040516020016200020491906200071d565b60405160208183030381529060405280519060200120146200025d576040517f08c379a00000000000000000000000000000000000000000000000000000000081526004016200025490620008a2565b60405180910390fd5b6000819080600181540180825580915050600190039060005260206000200160009091909190916101000a81548173ffffffffffffffffffffffffffffffffffffffff021916908373ffffffffffffffffffffffffffffffffffffffff1602179055507f1a4e879d87481bd05a3a677d4b1955b720847250037488426080927c494cda068b8b8b8b86604051620002f995949392919062000853565b60405180910390a19a9950505050505050505050565b61a8d98062000bc483390190565b6000620003346200032e84620008ed565b620008c4565b90508281526020810184848401111562000353576200035262000ac0565b5b62000360848285620009e7565b509392505050565b600081359050620003798162000b5b565b92915050565b600081359050620003908162000b75565b92915050565b600081359050620003a78162000b8f565b92915050565b60008083601f840112620003c657620003c562000ab6565b5b8235905067ffffffffffffffff811115620003e657620003e562000ab1565b5b60208301915083600182028301111562000405576200040462000abb565b5b9250929050565b600082601f83011262000424576200042362000ab6565b5b8151620004368482602086016200031d565b91505092915050565b600081359050620004508162000ba9565b92915050565b6000806000806000806000806000806101008b8d0312156200047d576200047c62000aca565b5b60008b013567ffffffffffffffff8111156200049e576200049d62000ac5565b5b620004ac8d828e01620003ad565b9a509a505060208b013567ffffffffffffffff811115620004d257620004d162000ac5565b5b620004e08d828e01620003ad565b98509850506040620004f58d828e0162000368565b9650506060620005088d828e016200037f565b95505060806200051b8d828e016200043f565b94505060a06200052e8d828e0162000368565b93505060c0620005418d828e0162000396565b92505060e0620005548d828e016200043f565b9150509295989b9194979a5092959850565b6000602082840312156200057f576200057e62000aca565b5b600082015167ffffffffffffffff811115620005a0576200059f62000ac5565b5b620005ae848285016200040c565b91505092915050565b600060208284031215620005d057620005cf62000aca565b5b6000620005e0848285016200043f565b91505092915050565b620005f4816200094a565b82525050565b62000605816200095e565b82525050565b62000616816200099c565b82525050565b620006278162000968565b82525050565b60006200063b83856200092e565b93506200064a838584620009d8565b620006558362000acf565b840190509392505050565b60006200066d8262000923565b6200067981856200093f565b93506200068b818560208601620009e7565b80840191505092915050565b6000620006a66014836200092e565b9150620006b38262000ae0565b602082019050919050565b6000620006cd6004836200092e565b9150620006da8262000b09565b602082019050919050565b6000620006f46007836200093f565b9150620007018262000b32565b600782019050919050565b620007178162000992565b82525050565b60006200072b828462000660565b915081905092915050565b60006200074382620006e5565b9150819050919050565b6000602082019050620007646000830184620005e9565b92915050565b60006020820190506200078160008301846200060b565b92915050565b6000610140820190508181036000830152620007a5818c8e6200062d565b90508181036020830152620007bc818a8c6200062d565b9050620007cd6040830189620005e9565b620007dc6060830188620005fa565b620007eb60808301876200070c565b620007fa60a0830186620005e9565b81810360c08301526200080d81620006be565b905081810360e08301526200082281620006be565b9050620008346101008301856200061c565b620008446101208301846200070c565b9b9a5050505050505050505050565b60006060820190508181036000830152620008708187896200062d565b90508181036020830152620008878185876200062d565b90506200089860408301846200070c565b9695505050505050565b60006020820190508181036000830152620008bd8162000697565b9050919050565b6000620008d0620008e3565b9050620008de828262000a1d565b919050565b6000604051905090565b600067ffffffffffffffff8211156200090b576200090a62000a82565b5b620009168262000acf565b9050602081019050919050565b600081519050919050565b600082825260208201905092915050565b600081905092915050565b6000620009578262000972565b9050919050565b6000819050919050565b6000819050919050565b600073ffffffffffffffffffffffffffffffffffffffff82169050919050565b6000819050919050565b6000620009a982620009b0565b9050919050565b6000620009bd82620009c4565b9050919050565b6000620009d18262000972565b9050919050565b82818337600083830152505050565b60005b8381101562000a07578082015181840152602081019050620009ea565b8381111562000a17576000848401525b50505050565b62000a288262000acf565b810181811067ffffffffffffffff8211171562000a4a5762000a4962000a82565b5b80604052505050565b7f4e487b7100000000000000000000000000000000000000000000000000000000600052603260045260246000fd5b7f4e487b7100000000000000000000000000000000000000000000000000000000600052604160045260246000fd5b600080fd5b600080fd5b600080fd5b600080fd5b600080fd5b600080fd5b6000601f19601f8301169050919050565b7f636f6e7472616374206e6f742063726561746564000000000000000000000000600082015250565b7f7465737400000000000000000000000000000000000000000000000000000000600082015250565b7f4372656174656400000000000000000000000000000000000000000000000000600082015250565b62000b66816200094a565b811462000b7257600080fd5b50565b62000b80816200095e565b811462000b8c57600080fd5b50565b62000b9a8162000968565b811462000ba657600080fd5b50565b62000bb48162000992565b811462000bc057600080fd5b5056fe608060405260646002553480156200001657600080fd5b506040516200a8d93803806200a8d983398181016040528101906200003c919062000509565b89600090805190602001906200005492919062000363565b5088600190805190602001906200006d92919062000363565b5087601260006101000a81548173ffffffffffffffffffffffffffffffffffffffff021916908373ffffffffffffffffffffffffffffffffffffffff160217905550866013819055508560148190555084601560006101000a81548173ffffffffffffffffffffffffffffffffffffffff021916908373ffffffffffffffffffffffffffffffffffffffff16021790555083601690805190602001906200011692919062000363565b5082601790805190602001906200012f92919062000363565b508160028190555080600481905550601260009054906101000a900473ffffffffffffffffffffffffffffffffffffffff16601354601560009054906101000a900473ffffffffffffffffffffffffffffffffffffffff16601454600a54600854601154600954604051620001a490620003f4565b620001b79897969594939291906200074b565b604051809103906000f080158015620001d4573d6000803e3d6000fd5b50601860006101000a81548173ffffffffffffffffffffffffffffffffffffffff021916908373ffffffffffffffffffffffffffffffffffffffff160217905550601260009054906101000a900473ffffffffffffffffffffffffffffffffffffffff1660135460166017601560009054906101000a900473ffffffffffffffffffffffffffffffffffffffff16601454600254604051620002769062000402565b620002889796959493929190620007d9565b604051809103906000f080158015620002a5573d6000803e3d6000fd5b50601960006101000a81548173ffffffffffffffffffffffffffffffffffffffff021916908373ffffffffffffffffffffffffffffffffffffffff1602179055506000600360006101000a81548160ff021916908360038111156200030f576200030e62000a0a565b5b02179055507f679acb356027c7608e2bdc5bc99fc5767c6b2e9562921abfd30d62eb06b11c0b6002546004546040516200034b92919062000864565b60405180910390a15050505050505050505062000b24565b82805462000371906200099e565b90600052602060002090601f016020900481019282620003955760008555620003e1565b82601f10620003b057805160ff1916838001178555620003e1565b82800160010185558215620003e1579182015b82811115620003e0578251825591602001919060010190620003c3565b5b509050620003f0919062000410565b5090565b612eff80620050d583390190565b6129058062007fd483390190565b5b808211156200042b57600081600090555060010162000411565b5090565b6000620004466200044084620008ba565b62000891565b90508281526020810184848401111562000465576200046462000a9c565b5b6200047284828562000968565b509392505050565b6000815190506200048b8162000abc565b92915050565b600081519050620004a28162000ad6565b92915050565b600081519050620004b98162000af0565b92915050565b600082601f830112620004d757620004d662000a97565b5b8151620004e98482602086016200042f565b91505092915050565b600081519050620005038162000b0a565b92915050565b6000806000806000806000806000806101408b8d03121562000530576200052f62000aa6565b5b60008b015167ffffffffffffffff81111562000551576200055062000aa1565b5b6200055f8d828e01620004bf565b9a505060208b015167ffffffffffffffff81111562000583576200058262000aa1565b5b620005918d828e01620004bf565b9950506040620005a48d828e016200047a565b9850506060620005b78d828e0162000491565b9750506080620005ca8d828e01620004f2565b96505060a0620005dd8d828e016200047a565b95505060c08b015167ffffffffffffffff81111562000601576200060062000aa1565b5b6200060f8d828e01620004bf565b94505060e08b015167ffffffffffffffff81111562000633576200063262000aa1565b5b620006418d828e01620004bf565b935050610100620006558d828e01620004a8565b925050610120620006698d828e01620004f2565b9150509295989b9194979a5092959850565b620006868162000916565b82525050565b62000697816200092a565b82525050565b620006a88162000934565b82525050565b60008154620006bd816200099e565b620006c9818662000905565b94506001821660008114620006e75760018114620006fa5762000731565b60ff198316865260208601935062000731565b6200070585620008f0565b60005b83811015620007295781548189015260018201915060208101905062000708565b808801955050505b50505092915050565b62000745816200095e565b82525050565b60006101008201905062000763600083018b6200067b565b62000772602083018a6200068c565b6200078160408301896200067b565b6200079060608301886200073a565b6200079f60808301876200073a565b620007ae60a08301866200073a565b620007bd60c08301856200073a565b620007cc60e08301846200073a565b9998505050505050505050565b600060e082019050620007f0600083018a6200067b565b620007ff60208301896200068c565b8181036040830152620008138188620006ae565b90508181036060830152620008298187620006ae565b90506200083a60808301866200067b565b6200084960a08301856200073a565b6200085860c08301846200069d565b98975050505050505050565b60006040820190506200087b60008301856200069d565b6200088a60208301846200073a565b9392505050565b60006200089d620008b0565b9050620008ab8282620009d4565b919050565b6000604051905090565b600067ffffffffffffffff821115620008d857620008d762000a68565b5b620008e38262000aab565b9050602081019050919050565b60008190508160005260206000209050919050565b600082825260208201905092915050565b600062000923826200093e565b9050919050565b6000819050919050565b6000819050919050565b600073ffffffffffffffffffffffffffffffffffffffff82169050919050565b6000819050919050565b60005b83811015620009885780820151818401526020810190506200096b565b8381111562000998576000848401525b50505050565b60006002820490506001821680620009b757607f821691505b60208210811415620009ce57620009cd62000a39565b5b50919050565b620009df8262000aab565b810181811067ffffffffffffffff8211171562000a015762000a0062000a68565b5b80604052505050565b7f4e487b7100000000000000000000000000000000000000000000000000000000600052602160045260246000fd5b7f4e487b7100000000000000000000000000000000000000000000000000000000600052602260045260246000fd5b7f4e487b7100000000000000000000000000000000000000000000000000000000600052604160045260246000fd5b600080fd5b600080fd5b600080fd5b600080fd5b6000601f19601f8301169050919050565b62000ac78162000916565b811462000ad357600080fd5b50565b62000ae1816200092a565b811462000aed57600080fd5b50565b62000afb8162000934565b811462000b0757600080fd5b50565b62000b15816200095e565b811462000b2157600080fd5b50565b6145a18062000b346000396000f3fe60806040523480156200001157600080fd5b5060043610620001f05760003560e01c80638c349eca1162000111578063b317f5ec11620000a5578063ddca3f43116200007b578063ddca3f431462000575578063e279cbe11462000597578063e5bee6de14620005a3578063f0141d8414620005d957620001f0565b8063b317f5ec146200050f578063c2939d971462000531578063c82ee7ab146200055357620001f0565b8063923123b311620000e7578063923123b31462000473578063a89ae4ba1462000495578063a986805814620004b7578063b07976de14620004d957620001f0565b80638c349eca14620003f95780638d2d8c5e146200041b5780638f896f50146200043d57620001f0565b80635edf7d8b116200018957806378f8f7d4116200015f57806378f8f7d414620003715780637f4e4849146200039357806385209ee014620003b55780638543549114620003d757620001f0565b80635edf7d8b146200030b578063708febc8146200032d57806370a4cd34146200034f57620001f0565b8063235cea9811620001cb578063235cea98146200025b5780633448f659146200027d578063347ce67d14620002b357806347d3fa6d14620002e957620001f0565b80630a25062314620001f557806315070401146200021757806317d7de7c1462000239575b600080fd5b620001ff620005fb565b6040516200020e91906200255f565b60405180910390f35b6200022162000621565b604051620002309190620025b6565b60405180910390f35b62000243620006bb565b604051620002529190620025b6565b60405180910390f35b6200026562000755565b60405162000274919062002451565b60405180910390f35b6200029b600480360381019062000295919062001f34565b6200077b565b604051620002aa919062002525565b60405180910390f35b620002d16004803603810190620002cb919062001fd8565b620008c0565b604051620002e0919062002525565b60405180910390f35b620002f362000e4b565b60405162000302919062002451565b60405180910390f35b6200031562000e75565b60405162000324919062002794565b60405180910390f35b6200033762000e7f565b60405162000346919062002451565b60405180910390f35b6200035962000ea9565b60405162000368919062002525565b60405180910390f35b6200037b62001078565b6040516200038a919062002525565b60405180910390f35b6200039d62001358565b604051620003ac9190620025b6565b60405180910390f35b620003bf62001599565b604051620003ce91906200257c565b60405180910390f35b620003e1620015ac565b604051620003f0919062002794565b60405180910390f35b62000403620015b6565b6040516200041291906200255f565b60405180910390f35b62000425620015dc565b60405162000434919062002794565b60405180910390f35b6200045b600480360381019062000455919062001f66565b620015e6565b6040516200046a919062002525565b60405180910390f35b6200047d62001975565b6040516200048c919062002794565b60405180910390f35b6200049f6200197f565b604051620004ae919062002451565b60405180910390f35b620004c1620019a5565b604051620004d0919062002794565b60405180910390f35b620004f76004803603810190620004f191906200211b565b62001b08565b60405162000506919062002451565b60405180910390f35b6200051962001bad565b60405162000528919062002451565b60405180910390f35b6200053b62001bd7565b6040516200054a919062002542565b60405180910390f35b6200055d62001bdd565b6040516200056c919062002451565b60405180910390f35b6200057f62001c07565b6040516200058e919062002794565b60405180910390f35b620005a162001c0d565b005b620005c16004803603810190620005bb91906200211b565b62001d60565b604051620005d0919062002451565b60405180910390f35b620005e362001e05565b604051620005f2919062002599565b60405180910390f35b601a60009054906101000a900473ffffffffffffffffffffffffffffffffffffffff1681565b606060018054620006329062002c2b565b80601f0160208091040260200160405190810160405280929190818152602001828054620006609062002c2b565b8015620006b15780601f106200068557610100808354040283529160200191620006b1565b820191906000526020600020905b8154815290600101906020018083116200069357829003601f168201915b5050505050905090565b606060008054620006cc9062002c2b565b80601f0160208091040260200160405190810160405280929190818152602001828054620006fa9062002c2b565b80156200074b5780601f106200071f576101008083540402835291602001916200074b565b820191906000526020600020905b8154815290600101906020018083116200072d57829003601f168201915b5050505050905090565b601560009054906101000a900473ffffffffffffffffffffffffffffffffffffffff1681565b60006001600381111562000794576200079362002cc6565b5b600360009054906101000a900460ff166003811115620007b957620007b862002cc6565b5b14620007fc576040517f08c379a0000000000000000000000000000000000000000000000000000000008152600401620007f3906200261e565b60405180910390fd5b60006200080c4260095462001e0f565b116200084f576040517f08c379a0000000000000000000000000000000000000000000000000000000008152600401620008469062002684565b60405180910390fd5b60038060006101000a81548160ff0219169083600381111562000877576200087662002cc6565b5b02179055507f724b99e866949401e1553ae6e0da07c7e24b0308581155730cbe34363752bd3f4283604051620008af929190620027b1565b60405180910390a160019050919050565b60008073ffffffffffffffffffffffffffffffffffffffff168a73ffffffffffffffffffffffffffffffffffffffff16141562000934576040517f08c379a00000000000000000000000000000000000000000000000000000000081526004016200092b9062002640565b60405180910390fd5b600073ffffffffffffffffffffffffffffffffffffffff168973ffffffffffffffffffffffffffffffffffffffff161415620009a7576040517f08c379a00000000000000000000000000000000000000000000000000000000081526004016200099e90620025fc565b60405180910390fd5b8873ffffffffffffffffffffffffffffffffffffffff168a73ffffffffffffffffffffffffffffffffffffffff16141562000a19576040517f08c379a000000000000000000000000000000000000000000000000000000000815260040162000a1090620025da565b60405180910390fd5b600073ffffffffffffffffffffffffffffffffffffffff168573ffffffffffffffffffffffffffffffffffffffff16141562000a8c576040517f08c379a000000000000000000000000000000000000000000000000000000000815260040162000a8390620026a6565b60405180910390fd5b600073ffffffffffffffffffffffffffffffffffffffff168473ffffffffffffffffffffffffffffffffffffffff16141562000aff576040517f08c379a000000000000000000000000000000000000000000000000000000000815260040162000af6906200270c565b60405180910390fd5b8373ffffffffffffffffffffffffffffffffffffffff168573ffffffffffffffffffffffffffffffffffffffff16141562000b71576040517f08c379a000000000000000000000000000000000000000000000000000000000815260040162000b689062002772565b60405180910390fd5b6000600f541162000bb9576040517f08c379a000000000000000000000000000000000000000000000000000000000815260040162000bb0906200272e565b60405180910390fd5b600062000bc7428862001e0f565b1162000c0a576040517f08c379a000000000000000000000000000000000000000000000000000000000815260040162000c019062002662565b60405180910390fd5b89600560006101000a81548173ffffffffffffffffffffffffffffffffffffffff021916908373ffffffffffffffffffffffffffffffffffffffff16021790555088600660006101000a81548173ffffffffffffffffffffffffffffffffffffffff021916908373ffffffffffffffffffffffffffffffffffffffff16021790555087600781905550600754601081905550866008819055508560098190555084600b60006101000a81548173ffffffffffffffffffffffffffffffffffffffff021916908373ffffffffffffffffffffffffffffffffffffffff16021790555083600c60006101000a81548173ffffffffffffffffffffffffffffffffffffffff021916908373ffffffffffffffffffffffffffffffffffffffff16021790555082600e8190555081600f819055506001600360006101000a81548160ff0219169083600381111562000d635762000d6262002cc6565b5b02179055506000600f54600e5462000d7c919062002903565b9050600660009054906101000a900473ffffffffffffffffffffffffffffffffffffffff1673ffffffffffffffffffffffffffffffffffffffff16600560009054906101000a900473ffffffffffffffffffffffffffffffffffffffff1673ffffffffffffffffffffffffffffffffffffffff167f8d00cc8de9616b2f3f0677fa7220777e8a33961f4026e1adfa53d94bd062251c6007546008546009546004548760405162000e319594939291906200282b565b60405180910390a360019150509998505050505050505050565b6000600560009054906101000a900473ffffffffffffffffffffffffffffffffffffffff16905090565b6000600954905090565b6000600c60009054906101000a900473ffffffffffffffffffffffffffffffffffffffff16905090565b60008062000eba6009544262001e0f565b101562000efe576040517f08c379a000000000000000000000000000000000000000000000000000000000815260040162000ef59062002750565b60405180910390fd5b6001600381111562000f155762000f1462002cc6565b5b600360009054906101000a900460ff16600381111562000f3a5762000f3962002cc6565b5b1462000f7d576040517f08c379a000000000000000000000000000000000000000000000000000000000815260040162000f74906200261e565b60405180910390fd5b600060045460075462000f91919062002a87565b9050600060045460105462000fa7919062002a87565b90506000828262000fb9919062002ae8565b90506002600360006101000a81548160ff0219169083600381111562000fe45762000fe362002cc6565b5b02179055507f408d2f82a05767182d614a96957816d6acbd66a392006f7aafee6d91fc880f90600560009054906101000a900473ffffffffffffffffffffffffffffffffffffffff16600660009054906101000a900473ffffffffffffffffffffffffffffffffffffffff1660095484604051620010669493929190620024d8565b60405180910390a16001935050505090565b60006001600381111562001091576200109062002cc6565b5b600360009054906101000a900460ff166003811115620010b657620010b562002cc6565b5b14620010f9576040517f08c379a0000000000000000000000000000000000000000000000000000000008152600401620010f0906200261e565b60405180910390fd5b6000620011094260095462001e0f565b116200114c576040517f08c379a00000000000000000000000000000000000000000000000000000000081526004016200114390620026ea565b60405180910390fd5b600062001158620019a5565b90506000600454826200116c919062002a87565b9050600060045460105462001182919062002a87565b90506000818362001194919062002ae8565b90506000811315620012165762001214600c60009054906101000a900473ffffffffffffffffffffffffffffffffffffffff16600b60009054906101000a900473ffffffffffffffffffffffffffffffffffffffff1683600d60009054906101000a900473ffffffffffffffffffffffffffffffffffffffff16620015e6565b505b6000811215620012c357620012c1600b60009054906101000a900473ffffffffffffffffffffffffffffffffffffffff16600c60009054906101000a900473ffffffffffffffffffffffffffffffffffffffff16837fffffffffffffffffffffffffffffffffffffffffffffffffffffffffffffffff62001298919062002960565b600d60009054906101000a900473ffffffffffffffffffffffffffffffffffffffff16620015e6565b505b836010819055507f63f10cc602ea66cf5c2a09a756a193c86ab46c33a794eb8d9aee6cf9426553a84282600560009054906101000a900473ffffffffffffffffffffffffffffffffffffffff16600660009054906101000a900473ffffffffffffffffffffffffffffffffffffffff16604051620013459493929190620027de565b60405180910390a1600194505050505090565b60606000600381111562001371576200137062002cc6565b5b600360009054906101000a900460ff16600381111562001396576200139562002cc6565b5b1415620013db576040518060400160405280600781526020017f4372656174656400000000000000000000000000000000000000000000000000815250905062001596565b60016003811115620013f257620013f162002cc6565b5b600360009054906101000a900460ff16600381111562001417576200141662002cc6565b5b14156200145c576040518060400160405280600981526020017f496e697469617465640000000000000000000000000000000000000000000000815250905062001596565b6002600381111562001473576200147262002cc6565b5b600360009054906101000a900460ff16600381111562001498576200149762002cc6565b5b1415620014dd576040518060400160405280600781526020017f536574746c656400000000000000000000000000000000000000000000000000815250905062001596565b600380811115620014f357620014f262002cc6565b5b600360009054906101000a900460ff16600381111562001518576200151762002cc6565b5b14156200155d576040518060400160405280600981526020017f44656661756c7465640000000000000000000000000000000000000000000000815250905062001596565b6040518060400160405280600b81526020017f7374617465206572726f7200000000000000000000000000000000000000000081525090505b90565b600360009054906101000a900460ff1681565b6000600854905090565b601b60009054906101000a900473ffffffffffffffffffffffffffffffffffffffff1681565b6000600754905090565b600080859050600085905060008273ffffffffffffffffffffffffffffffffffffffff16632a1e15e730876040518363ffffffff1660e01b8152600401620016309291906200246e565b60206040518083038186803b1580156200164957600080fd5b505afa1580156200165e573d6000803e3d6000fd5b505050506040513d601f19601f820116820180604052508101906200168491906200216c565b905085811015620016cc576040517f08c379a0000000000000000000000000000000000000000000000000000000008152600401620016c390620026c8565b60405180910390fd5b8273ffffffffffffffffffffffffffffffffffffffff166322604de28630896040518463ffffffff1660e01b81526004016200170b939291906200249b565b600060405180830381600087803b1580156200172657600080fd5b505af11580156200173b573d6000803e3d6000fd5b505050508473ffffffffffffffffffffffffffffffffffffffff166323b872dd8989896040518463ffffffff1660e01b81526004016200177e939291906200249b565b602060405180830381600087803b1580156200179957600080fd5b505af1158015620017ae573d6000803e3d6000fd5b505050506040513d601f19601f82011682018060405250810190620017d49190620020b7565b50600086820390508373ffffffffffffffffffffffffffffffffffffffff1663dfeff6613088846040518463ffffffff1660e01b81526004016200181b939291906200249b565b600060405180830381600087803b1580156200183657600080fd5b505af11580156200184b573d6000803e3d6000fd5b50505050506000868373ffffffffffffffffffffffffffffffffffffffff16632a1e15e730896040518363ffffffff1660e01b8152600401620018909291906200246e565b60206040518083038186803b158015620018a957600080fd5b505afa158015620018be573d6000803e3d6000fd5b505050506040513d601f19601f82011682018060405250810190620018e491906200216c565b620018f0919062002903565b90508273ffffffffffffffffffffffffffffffffffffffff1663dfeff6613088846040518463ffffffff1660e01b815260040162001931939291906200249b565b600060405180830381600087803b1580156200194c57600080fd5b505af115801562001961573d6000803e3d6000fd5b505050506001945050505050949350505050565b6000600454905090565b601260009054906101000a900473ffffffffffffffffffffffffffffffffffffffff1681565b600042601181905550620019b862001c0d565b601860009054906101000a900473ffffffffffffffffffffffffffffffffffffffff1673ffffffffffffffffffffffffffffffffffffffff16630f00494a6040518163ffffffff1660e01b8152600401602060405180830381600087803b15801562001a2357600080fd5b505af115801562001a38573d6000803e3d6000fd5b505050506040513d601f19601f8201168201806040525081019062001a5e9190620020e9565b50601860009054906101000a900473ffffffffffffffffffffffffffffffffffffffff1673ffffffffffffffffffffffffffffffffffffffff1663de2927896040518163ffffffff1660e01b815260040160206040518083038186803b15801562001ac857600080fd5b505afa15801562001add573d6000803e3d6000fd5b505050506040513d601f19601f8201168201806040525081019062001b0391906200216c565b905090565b60008160405162001b199062001e35565b62001b259190620025b6565b604051809103906000f08015801562001b42573d6000803e3d6000fd5b50601a60006101000a81548173ffffffffffffffffffffffffffffffffffffffff021916908373ffffffffffffffffffffffffffffffffffffffff160217905550601a60009054906101000a900473ffffffffffffffffffffffffffffffffffffffff169050919050565b6000600660009054906101000a900473ffffffffffffffffffffffffffffffffffffffff16905090565b60135481565b6000600b60009054906101000a900473ffffffffffffffffffffffffffffffffffffffff16905090565b60145481565b601960009054906101000a900473ffffffffffffffffffffffffffffffffffffffff1673ffffffffffffffffffffffffffffffffffffffff16630f00494a6040518163ffffffff1660e01b8152600401602060405180830381600087803b15801562001c7857600080fd5b505af115801562001c8d573d6000803e3d6000fd5b505050506040513d601f19601f8201168201806040525081019062001cb39190620020e9565b50601960009054906101000a900473ffffffffffffffffffffffffffffffffffffffff1673ffffffffffffffffffffffffffffffffffffffff1663de2927896040518163ffffffff1660e01b815260040160206040518083038186803b15801562001d1d57600080fd5b505afa15801562001d32573d6000803e3d6000fd5b505050506040513d601f19601f8201168201806040525081019062001d5891906200216c565b600a81905550565b60008160405162001d719062001e35565b62001d7d9190620025b6565b604051809103906000f08015801562001d9a573d6000803e3d6000fd5b50601b60006101000a81548173ffffffffffffffffffffffffffffffffffffffff021916908373ffffffffffffffffffffffffffffffffffffffff160217905550601b60009054906101000a900473ffffffffffffffffffffffffffffffffffffffff169050919050565b6000600254905090565b60008183111562001e1f57600080fd5b828262001e2d919062002ae8565b905092915050565b6113bd80620031af83390190565b600062001e5a62001e5484620028b1565b62002888565b90508281526020810184848401111562001e795762001e7862002d58565b5b62001e8684828562002be6565b509392505050565b60008135905062001e9f8162003146565b92915050565b60008151905062001eb68162003160565b92915050565b60008151905062001ecd816200317a565b92915050565b600082601f83011262001eeb5762001eea62002d53565b5b813562001efd84826020860162001e43565b91505092915050565b60008135905062001f178162003194565b92915050565b60008151905062001f2e8162003194565b92915050565b60006020828403121562001f4d5762001f4c62002d62565b5b600062001f5d8482850162001e8e565b91505092915050565b6000806000806080858703121562001f835762001f8262002d62565b5b600062001f938782880162001e8e565b945050602062001fa68782880162001e8e565b935050604062001fb98782880162001f06565b925050606062001fcc8782880162001e8e565b91505092959194509250565b60008060008060008060008060006101208a8c03121562001ffe5762001ffd62002d62565b5b60006200200e8c828d0162001e8e565b9950506020620020218c828d0162001e8e565b9850506040620020348c828d0162001f06565b9750506060620020478c828d0162001f06565b96505060806200205a8c828d0162001f06565b95505060a06200206d8c828d0162001e8e565b94505060c0620020808c828d0162001e8e565b93505060e0620020938c828d0162001f06565b925050610100620020a78c828d0162001f06565b9150509295985092959850929598565b600060208284031215620020d057620020cf62002d62565b5b6000620020e08482850162001ea5565b91505092915050565b60006020828403121562002102576200210162002d62565b5b6000620021128482850162001ebc565b91505092915050565b60006020828403121562002134576200213362002d62565b5b600082013567ffffffffffffffff81111562002155576200215462002d5d565b5b620021638482850162001ed3565b91505092915050565b60006020828403121562002185576200218462002d62565b5b6000620021958482850162001f1d565b91505092915050565b620021a98162002b23565b82525050565b620021ba8162002b37565b82525050565b620021cb8162002b43565b82525050565b620021dc8162002b96565b82525050565b620021ed8162002baa565b82525050565b620021fe8162002b62565b82525050565b60006200221182620028e7565b6200221d8185620028f2565b93506200222f81856020860162002bf5565b6200223a8162002d67565b840191505092915050565b600062002254602283620028f2565b9150620022618262002d78565b604082019050919050565b60006200227b601b83620028f2565b9150620022888262002dc7565b602082019050919050565b6000620022a2602583620028f2565b9150620022af8262002df0565b604082019050919050565b6000620022c9601a83620028f2565b9150620022d68262002e3f565b602082019050919050565b6000620022f0602883620028f2565b9150620022fd8262002e68565b604082019050919050565b600062002317602c83620028f2565b9150620023248262002eb7565b604082019050919050565b60006200233e602483620028f2565b91506200234b8262002f06565b604082019050919050565b600062002365602183620028f2565b9150620023728262002f55565b604082019050919050565b60006200238c602883620028f2565b9150620023998262002fa4565b604082019050919050565b6000620023b3602583620028f2565b9150620023c08262002ff3565b604082019050919050565b6000620023da602683620028f2565b9150620023e78262003042565b604082019050919050565b600062002401602f83620028f2565b91506200240e8262003091565b604082019050919050565b600062002428602983620028f2565b91506200243582620030e0565b604082019050919050565b6200244b8162002b8c565b82525050565b60006020820190506200246860008301846200219e565b92915050565b60006040820190506200248560008301856200219e565b6200249460208301846200219e565b9392505050565b6000606082019050620024b260008301866200219e565b620024c160208301856200219e565b620024d0604083018462002440565b949350505050565b6000608082019050620024ef60008301876200219e565b620024fe60208301866200219e565b6200250d604083018562002440565b6200251c6060830184620021f3565b95945050505050565b60006020820190506200253c6000830184620021af565b92915050565b6000602082019050620025596000830184620021c0565b92915050565b6000602082019050620025766000830184620021d1565b92915050565b6000602082019050620025936000830184620021e2565b92915050565b6000602082019050620025b06000830184620021f3565b92915050565b60006020820190508181036000830152620025d2818462002204565b905092915050565b60006020820190508181036000830152620025f58162002245565b9050919050565b6000602082019050818103600083015262002617816200226c565b9050919050565b60006020820190508181036000830152620026398162002293565b9050919050565b600060208201905081810360008301526200265b81620022ba565b9050919050565b600060208201905081810360008301526200267d81620022e1565b9050919050565b600060208201905081810360008301526200269f8162002308565b9050919050565b60006020820190508181036000830152620026c1816200232f565b9050919050565b60006020820190508181036000830152620026e38162002356565b9050919050565b6000602082019050818103600083015262002705816200237d565b9050919050565b600060208201905081810360008301526200272781620023a4565b9050919050565b600060208201905081810360008301526200274981620023cb565b9050919050565b600060208201905081810360008301526200276b81620023f2565b9050919050565b600060208201905081810360008301526200278d8162002419565b9050919050565b6000602082019050620027ab600083018462002440565b92915050565b6000604082019050620027c8600083018562002440565b620027d760208301846200219e565b9392505050565b6000608082019050620027f5600083018762002440565b620028046020830186620021f3565b6200281360408301856200219e565b6200282260608301846200219e565b95945050505050565b600060a08201905062002842600083018862002440565b62002851602083018762002440565b62002860604083018662002440565b6200286f606083018562002440565b6200287e608083018462002440565b9695505050505050565b600062002894620028a7565b9050620028a2828262002c61565b919050565b6000604051905090565b600067ffffffffffffffff821115620028cf57620028ce62002d24565b5b620028da8262002d67565b9050602081019050919050565b600081519050919050565b600082825260208201905092915050565b6000620029108262002b8c565b91506200291d8362002b8c565b9250827fffffffffffffffffffffffffffffffffffffffffffffffffffffffffffffffff0382111562002955576200295462002c97565b5b828201905092915050565b60006200296d8262002b62565b91506200297a8362002b62565b9250827f7fffffffffffffffffffffffffffffffffffffffffffffffffffffffffffffff0482116000841360008413161615620029bc57620029bb62002c97565b5b817f80000000000000000000000000000000000000000000000000000000000000000583126000841260008413161615620029fc57620029fb62002c97565b5b827f8000000000000000000000000000000000000000000000000000000000000000058212600084136000841216161562002a3c5762002a3b62002c97565b5b827f7fffffffffffffffffffffffffffffffffffffffffffffffffffffffffffffff058212600084126000841216161562002a7c5762002a7b62002c97565b5b828202905092915050565b600062002a948262002b8c565b915062002aa18362002b8c565b9250817fffffffffffffffffffffffffffffffffffffffffffffffffffffffffffffffff048311821515161562002add5762002adc62002c97565b5b828202905092915050565b600062002af58262002b8c565b915062002b028362002b8c565b92508282101562002b185762002b1762002c97565b5b828203905092915050565b600062002b308262002b6c565b9050919050565b60008115159050919050565b6000819050919050565b600081905062002b5d826200312f565b919050565b6000819050919050565b600073ffffffffffffffffffffffffffffffffffffffff82169050919050565b6000819050919050565b600062002ba38262002bbe565b9050919050565b600062002bb78262002b4d565b9050919050565b600062002bcb8262002bd2565b9050919050565b600062002bdf8262002b6c565b9050919050565b82818337600083830152505050565b60005b8381101562002c1557808201518184015260208101905062002bf8565b8381111562002c25576000848401525b50505050565b6000600282049050600182168062002c4457607f821691505b6020821081141562002c5b5762002c5a62002cf5565b5b50919050565b62002c6c8262002d67565b810181811067ffffffffffffffff8211171562002c8e5762002c8d62002d24565b5b80604052505050565b7f4e487b7100000000000000000000000000000000000000000000000000000000600052601160045260246000fd5b7f4e487b7100000000000000000000000000000000000000000000000000000000600052602160045260246000fd5b7f4e487b7100000000000000000000000000000000000000000000000000000000600052602260045260246000fd5b7f4e487b7100000000000000000000000000000000000000000000000000000000600052604160045260246000fd5b600080fd5b600080fd5b600080fd5b600080fd5b6000601f19601f8301169050919050565b7f4c6f6e6720616e642073686f72742063616e27742062652073616d652070617260008201527f7479000000000000000000000000000000000000000000000000000000000000602082015250565b7f53686f72742063616e2774206265207a65726f20616464726573730000000000600082015250565b7f436f6e74726163742068617320746f20626520696e20496e697469617465642060008201527f7374617465000000000000000000000000000000000000000000000000000000602082015250565b7f4c6f6e672063616e2774206265207a65726f2061646472657373000000000000600082015250565b7f46464120636f6e74726163742068617320746f2065787069726520696e20746860008201527f6520667574757265000000000000000000000000000000000000000000000000602082015250565b7f44656661756c74696e672063616e206f6e6c792068617070656e206265666f7260008201527f652065787069726174696f6e0000000000000000000000000000000000000000602082015250565b7f4c6f6e672077616c6c65742063616e6e6f742068617665207a65726f2061646460008201527f7265737300000000000000000000000000000000000000000000000000000000602082015250565b7f636f6c6c61746572616c2062616c616e6365206e6f742073756666696369656e60008201527f7400000000000000000000000000000000000000000000000000000000000000602082015250565b7f4d20746f206d2063616e206f6e6c792068617070656e206265666f726520657860008201527f7069726174696f6e000000000000000000000000000000000000000000000000602082015250565b7f53686f72742077616c6c65742063616e6e6f742068617665207a65726f20616460008201527f6472657373000000000000000000000000000000000000000000000000000000602082015250565b7f6d61696e74656e616e6365206d617267696e20726174652063616e6e6f74206260008201527f65207a65726f0000000000000000000000000000000000000000000000000000602082015250565b7f536574746c656d656e742063616e6e6f74206f6363757265206265666f72652060008201527f65787069726174696f6e20646174650000000000000000000000000000000000602082015250565b7f6c6f6e6720616e642073686f72742077616c6c6574732063616e6e6f7420626560008201527f207468652073616d650000000000000000000000000000000000000000000000602082015250565b6004811062003143576200314262002cc6565b5b50565b620031518162002b23565b81146200315d57600080fd5b50565b6200316b8162002b37565b81146200317757600080fd5b50565b620031858162002b43565b81146200319157600080fd5b50565b6200319f8162002b8c565b8114620031ab57600080fd5b5056fe60806040523480156200001157600080fd5b50604051620013bd380380620013bd83398181016040528101906200003791906200028c565b60008060006101000a81548160ff02191690831515021790555062000071620000656200009160201b60201c565b6200009960201b60201c565b8060019080519060200190620000899291906200015e565b505062000461565b600033905090565b60008060019054906101000a900473ffffffffffffffffffffffffffffffffffffffff16905081600060016101000a81548173ffffffffffffffffffffffffffffffffffffffff021916908373ffffffffffffffffffffffffffffffffffffffff1602179055508173ffffffffffffffffffffffffffffffffffffffff168173ffffffffffffffffffffffffffffffffffffffff167f8be0079c531659141344cd1fd0a4f28419497f9722a3daafe3b4186f6b6457e060405160405180910390a35050565b8280546200016c9062000372565b90600052602060002090601f016020900481019282620001905760008555620001dc565b82601f10620001ab57805160ff1916838001178555620001dc565b82800160010185558215620001dc579182015b82811115620001db578251825591602001919060010190620001be565b5b509050620001eb9190620001ef565b5090565b5b808211156200020a576000816000905550600101620001f0565b5090565b6000620002256200021f8462000306565b620002dd565b90508281526020810184848401111562000244576200024362000441565b5b620002518482856200033c565b509392505050565b600082601f8301126200027157620002706200043c565b5b8151620002838482602086016200020e565b91505092915050565b600060208284031215620002a557620002a46200044b565b5b600082015167ffffffffffffffff811115620002c657620002c562000446565b5b620002d48482850162000259565b91505092915050565b6000620002e9620002fc565b9050620002f78282620003a8565b919050565b6000604051905090565b600067ffffffffffffffff8211156200032457620003236200040d565b5b6200032f8262000450565b9050602081019050919050565b60005b838110156200035c5780820151818401526020810190506200033f565b838111156200036c576000848401525b50505050565b600060028204905060018216806200038b57607f821691505b60208210811415620003a257620003a1620003de565b5b50919050565b620003b38262000450565b810181811067ffffffffffffffff82111715620003d557620003d46200040d565b5b80604052505050565b7f4e487b7100000000000000000000000000000000000000000000000000000000600052602260045260246000fd5b7f4e487b7100000000000000000000000000000000000000000000000000000000600052604160045260246000fd5b600080fd5b600080fd5b600080fd5b600080fd5b6000601f19601f8301169050919050565b610f4c80620004716000396000f3fe608060405234801561001057600080fd5b50600436106100885760003560e01c8063715018a61161005b578063715018a6146101155780638da5cb5b1461011f578063dfeff6611461013d578063f2fde38b1461015957610088565b806317d7de7c1461008d57806322604de2146100ab5780632a1e15e7146100c75780635c975abb146100f7575b600080fd5b610095610175565b6040516100a29190610bf3565b60405180910390f35b6100c560048036038101906100c091906109ff565b610207565b005b6100e160048036038101906100dc91906109bf565b61037a565b6040516100ee9190610cb5565b60405180910390f35b6100ff6104e0565b60405161010c9190610bd8565b60405180910390f35b61011d6104f6565b005b61012761057e565b6040516101349190610b94565b60405180910390f35b610157600480360381019061015291906109ff565b6105a7565b005b610173600480360381019061016e9190610992565b61078e565b005b60606001805461018490610d67565b80601f01602080910402602001604051908101604052809291908181526020018280546101b090610d67565b80156101fd5780601f106101d2576101008083540402835291602001916101fd565b820191906000526020600020905b8154815290600101906020018083116101e057829003601f168201915b5050505050905090565b600073ffffffffffffffffffffffffffffffffffffffff168273ffffffffffffffffffffffffffffffffffffffff161415610277576040517f08c379a000000000000000000000000000000000000000000000000000000000815260040161026e90610c35565b60405180910390fd5b600073ffffffffffffffffffffffffffffffffffffffff168373ffffffffffffffffffffffffffffffffffffffff1614156102e7576040517f08c379a00000000000000000000000000000000000000000000000000000000081526004016102de90610c75565b60405180910390fd5b8273ffffffffffffffffffffffffffffffffffffffff1663095ea7b383836040518363ffffffff1660e01b8152600401610322929190610baf565b602060405180830381600087803b15801561033c57600080fd5b505af1158015610350573d6000803e3d6000fd5b505050506040513d601f19601f820116820180604052508101906103749190610a52565b50505050565b60008073ffffffffffffffffffffffffffffffffffffffff168373ffffffffffffffffffffffffffffffffffffffff1614156103eb576040517f08c379a00000000000000000000000000000000000000000000000000000000081526004016103e290610c95565b60405180910390fd5b600073ffffffffffffffffffffffffffffffffffffffff168273ffffffffffffffffffffffffffffffffffffffff16141561045b576040517f08c379a000000000000000000000000000000000000000000000000000000000815260040161045290610c75565b60405180910390fd5b600260008473ffffffffffffffffffffffffffffffffffffffff1673ffffffffffffffffffffffffffffffffffffffff16815260200190815260200160002060008373ffffffffffffffffffffffffffffffffffffffff1673ffffffffffffffffffffffffffffffffffffffff16815260200190815260200160002054905092915050565b60008060009054906101000a900460ff16905090565b6104fe610886565b73ffffffffffffffffffffffffffffffffffffffff1661051c61057e565b73ffffffffffffffffffffffffffffffffffffffff1614610572576040517f08c379a000000000000000000000000000000000000000000000000000000000815260040161056990610c55565b60405180910390fd5b61057c600061088e565b565b60008060019054906101000a900473ffffffffffffffffffffffffffffffffffffffff16905090565b600073ffffffffffffffffffffffffffffffffffffffff168373ffffffffffffffffffffffffffffffffffffffff161415610617576040517f08c379a000000000000000000000000000000000000000000000000000000000815260040161060e90610c95565b60405180910390fd5b600073ffffffffffffffffffffffffffffffffffffffff168273ffffffffffffffffffffffffffffffffffffffff161415610687576040517f08c379a000000000000000000000000000000000000000000000000000000000815260040161067e90610c75565b60405180910390fd5b80600260008573ffffffffffffffffffffffffffffffffffffffff1673ffffffffffffffffffffffffffffffffffffffff16815260200190815260200160002060008473ffffffffffffffffffffffffffffffffffffffff1673ffffffffffffffffffffffffffffffffffffffff1681526020019081526020016000208190555080600360008473ffffffffffffffffffffffffffffffffffffffff1673ffffffffffffffffffffffffffffffffffffffff16815260200190815260200160002060008573ffffffffffffffffffffffffffffffffffffffff1673ffffffffffffffffffffffffffffffffffffffff16815260200190815260200160002081905550505050565b610796610886565b73ffffffffffffffffffffffffffffffffffffffff166107b461057e565b73ffffffffffffffffffffffffffffffffffffffff161461080a576040517f08c379a000000000000000000000000000000000000000000000000000000000815260040161080190610c55565b60405180910390fd5b600073ffffffffffffffffffffffffffffffffffffffff168173ffffffffffffffffffffffffffffffffffffffff16141561087a576040517f08c379a000000000000000000000000000000000000000000000000000000000815260040161087190610c15565b60405180910390fd5b6108838161088e565b50565b600033905090565b60008060019054906101000a900473ffffffffffffffffffffffffffffffffffffffff16905081600060016101000a81548173ffffffffffffffffffffffffffffffffffffffff021916908373ffffffffffffffffffffffffffffffffffffffff1602179055508173ffffffffffffffffffffffffffffffffffffffff168173ffffffffffffffffffffffffffffffffffffffff167f8be0079c531659141344cd1fd0a4f28419497f9722a3daafe3b4186f6b6457e060405160405180910390a35050565b60008135905061096281610ed1565b92915050565b60008151905061097781610ee8565b92915050565b60008135905061098c81610eff565b92915050565b6000602082840312156109a8576109a7610dc8565b5b60006109b684828501610953565b91505092915050565b600080604083850312156109d6576109d5610dc8565b5b60006109e485828601610953565b92505060206109f585828601610953565b9150509250929050565b600080600060608486031215610a1857610a17610dc8565b5b6000610a2686828701610953565b9350506020610a3786828701610953565b9250506040610a488682870161097d565b9150509250925092565b600060208284031215610a6857610a67610dc8565b5b6000610a7684828501610968565b91505092915050565b610a8881610cec565b82525050565b610a9781610cfe565b82525050565b6000610aa882610cd0565b610ab28185610cdb565b9350610ac2818560208601610d34565b610acb81610dcd565b840191505092915050565b6000610ae3602683610cdb565b9150610aee82610dde565b604082019050919050565b6000610b06601e83610cdb565b9150610b1182610e2d565b602082019050919050565b6000610b29602083610cdb565b9150610b3482610e56565b602082019050919050565b6000610b4c601c83610cdb565b9150610b5782610e7f565b602082019050919050565b6000610b6f601f83610cdb565b9150610b7a82610ea8565b602082019050919050565b610b8e81610d2a565b82525050565b6000602082019050610ba96000830184610a7f565b92915050565b6000604082019050610bc46000830185610a7f565b610bd16020830184610b85565b9392505050565b6000602082019050610bed6000830184610a8e565b92915050565b60006020820190508181036000830152610c0d8184610a9d565b905092915050565b60006020820190508181036000830152610c2e81610ad6565b9050919050565b60006020820190508181036000830152610c4e81610af9565b9050919050565b60006020820190508181036000830152610c6e81610b1c565b9050919050565b60006020820190508181036000830152610c8e81610b3f565b9050919050565b60006020820190508181036000830152610cae81610b62565b9050919050565b6000602082019050610cca6000830184610b85565b92915050565b600081519050919050565b600082825260208201905092915050565b6000610cf782610d0a565b9050919050565b60008115159050919050565b600073ffffffffffffffffffffffffffffffffffffffff82169050919050565b6000819050919050565b60005b83811015610d52578082015181840152602081019050610d37565b83811115610d61576000848401525b50505050565b60006002820490506001821680610d7f57607f821691505b60208210811415610d9357610d92610d99565b5b50919050565b7f4e487b7100000000000000000000000000000000000000000000000000000000600052602260045260246000fd5b600080fd5b6000601f19601f8301169050919050565b7f4f776e61626c653a206e6577206f776e657220697320746865207a65726f206160008201527f6464726573730000000000000000000000000000000000000000000000000000602082015250565b7f7370656e64657220616464726573732063616e6e6f74206265207a65726f0000600082015250565b7f4f776e61626c653a2063616c6c6572206973206e6f7420746865206f776e6572600082015250565b7f746f6b656e20616464726573732063616e6e6f74206265207a65726f00000000600082015250565b7f636f6e747261637420616464726573732063616e6e6f74206265207a65726f00600082015250565b610eda81610cec565b8114610ee557600080fd5b50565b610ef181610cfe565b8114610efc57600080fd5b50565b610f0881610d2a565b8114610f1357600080fd5b5056fea2646970667358221220306be83618583febb7c955ba0be54a0d51075bd5a4d3dbb5c9410c6c98bed47b64736f6c63430008070033a26469706673582212201a3586de3762db6c6abde6cbd469e500c481c75b3a8e3f42dec2875a0719dc3d64736f6c63430008070033608060405260016004553480156200001657600080fd5b5060405162002eff38038062002eff83398181016040528101906200003c919062000584565b8787620000ac60405180606001604052806028815260200162002ed7602891396200006d88620001e460201b60201c565b6200007e88620001e460201b60201c565b6200008f88620001e460201b60201c565b620000a088620001e460201b60201c565b6200038a60201b60201c565b6040518060400160405280600581526020017f70726963650000000000000000000000000000000000000000000000000000008152508989606462000106620000fa620003c160201b60201c565b620003c960201b60201c565b86600860006101000a81548173ffffffffffffffffffffffffffffffffffffffff021916908373ffffffffffffffffffffffffffffffffffffffff1602179055508560098190555084600a9080519060200190620001669291906200048f565b5083600b90805190602001906200017f9291906200048f565b5082600c60006101000a81548173ffffffffffffffffffffffffffffffffffffffff021916908373ffffffffffffffffffffffffffffffffffffffff16021790555081600e8190555080600d8190555050505050505050505050505050505062000ad2565b606060008214156200022e576040518060400160405280600181526020017f3000000000000000000000000000000000000000000000000000000000000000815250905062000385565b600082905060005b60008214620002665780806200024c906200091d565b915050600a826200025e919062000788565b915062000236565b60008167ffffffffffffffff81111562000285576200028462000a27565b5b6040519080825280601f01601f191660200182016040528015620002b85781602001600182028036833780820191505090505b50905060008290505b600086146200037d57600181620002d9919062000821565b90506000600a8088620002ed919062000788565b620002f99190620007c0565b8762000306919062000821565b60306200031491906200074a565b905060008160f81b905080848481518110620003355762000334620009f8565b5b60200101907effffffffffffffffffffffffffffffffffffffffffffffffffffffffffffff1916908160001a905350600a8862000373919062000788565b97505050620002c1565b819450505050505b919050565b60608585858585604051602001620003a7959493929190620006ab565b604051602081830303815290604052905095945050505050565b600033905090565b6000600660009054906101000a900473ffffffffffffffffffffffffffffffffffffffff16905081600660006101000a81548173ffffffffffffffffffffffffffffffffffffffff021916908373ffffffffffffffffffffffffffffffffffffffff1602179055508173ffffffffffffffffffffffffffffffffffffffff168173ffffffffffffffffffffffffffffffffffffffff167f8be0079c531659141344cd1fd0a4f28419497f9722a3daafe3b4186f6b6457e060405160405180910390a35050565b8280546200049d90620008e7565b90600052602060002090601f016020900481019282620004c157600085556200050d565b82601f10620004dc57805160ff19168380011785556200050d565b828001600101855582156200050d579182015b828111156200050c578251825591602001919060010190620004ef565b5b5090506200051c919062000520565b5090565b5b808211156200053b57600081600090555060010162000521565b5090565b600081519050620005508162000a84565b92915050565b600081519050620005678162000a9e565b92915050565b6000815190506200057e8162000ab8565b92915050565b600080600080600080600080610100898b031215620005a857620005a762000a56565b5b6000620005b88b828c016200053f565b9850506020620005cb8b828c0162000556565b9750506040620005de8b828c016200053f565b9650506060620005f18b828c016200056d565b9550506080620006048b828c016200056d565b94505060a0620006178b828c016200056d565b93505060c06200062a8b828c016200056d565b92505060e06200063d8b828c016200056d565b9150509295985092959890939650565b60006200065a8262000734565b6200066681856200073f565b935062000678818560208601620008b1565b80840191505092915050565b6000620006936001836200073f565b9150620006a08262000a5b565b600182019050919050565b6000620006b982886200064d565b9150620006c68262000684565b9150620006d482876200064d565b9150620006e18262000684565b9150620006ef82866200064d565b9150620006fc8262000684565b91506200070a82856200064d565b9150620007178262000684565b91506200072582846200064d565b91508190509695505050505050565b600081519050919050565b600081905092915050565b60006200075782620008a4565b91506200076483620008a4565b92508260ff038211156200077d576200077c6200096b565b5b828201905092915050565b600062000795826200089a565b9150620007a2836200089a565b925082620007b557620007b46200099a565b5b828204905092915050565b6000620007cd826200089a565b9150620007da836200089a565b9250817fffffffffffffffffffffffffffffffffffffffffffffffffffffffffffffffff04831182151516156200081657620008156200096b565b5b828202905092915050565b60006200082e826200089a565b91506200083b836200089a565b9250828210156200085157620008506200096b565b5b828203905092915050565b600062000869826200087a565b9050919050565b6000819050919050565b600073ffffffffffffffffffffffffffffffffffffffff82169050919050565b6000819050919050565b600060ff82169050919050565b60005b83811015620008d1578082015181840152602081019050620008b4565b83811115620008e1576000848401525b50505050565b600060028204905060018216806200090057607f821691505b60208210811415620009175762000916620009c9565b5b50919050565b60006200092a826200089a565b91507fffffffffffffffffffffffffffffffffffffffffffffffffffffffffffffffff82141562000960576200095f6200096b565b5b600182019050919050565b7f4e487b7100000000000000000000000000000000000000000000000000000000600052601160045260246000fd5b7f4e487b7100000000000000000000000000000000000000000000000000000000600052601260045260246000fd5b7f4e487b7100000000000000000000000000000000000000000000000000000000600052602260045260246000fd5b7f4e487b7100000000000000000000000000000000000000000000000000000000600052603260045260246000fd5b7f4e487b7100000000000000000000000000000000000000000000000000000000600052604160045260246000fd5b600080fd5b7f2f00000000000000000000000000000000000000000000000000000000000000600082015250565b62000a8f816200085c565b811462000a9b57600080fd5b50565b62000aa98162000870565b811462000ab557600080fd5b50565b62000ac3816200089a565b811462000acf57600080fd5b50565b6123f58062000ae26000396000f3fe6080604052600436106100e15760003560e01c80638dc654a21161007f578063c2939d9711610059578063c2939d97146102a7578063ddca3f43146102d2578063de292789146102fd578063f2fde38b1461032857610121565b80638dc654a21461023a578063a89ae4ba14610251578063be4624bb1461027c57610121565b80634357855e116100bb5780634357855e146101a45780636dff2c0b146101cd578063715018a6146101f85780638da5cb5b1461020f57610121565b80630f00494a14610123578063235cea981461014e578063313ce5671461017957610121565b36610121577f88a5966d370b9919b20f3e2c13ff65706f196a4e32cc2c12bf57088f885258743334604051610117929190611ac5565b60405180910390a1005b005b34801561012f57600080fd5b50610138610351565b6040516101459190611bb1565b60405180910390f35b34801561015a57600080fd5b506101636105f4565b6040516101709190611a73565b60405180910390f35b34801561018557600080fd5b5061018e61061a565b60405161019b9190611bcc565b60405180910390f35b3480156101b057600080fd5b506101cb60048036038101906101c69190611840565b610620565b005b3480156101d957600080fd5b506101e2610768565b6040516101ef9190611be7565b60405180910390f35b34801561020457600080fd5b5061020d6107a1565b005b34801561021b57600080fd5b50610224610829565b6040516102319190611a73565b60405180910390f35b34801561024657600080fd5b5061024f610853565b005b34801561025d57600080fd5b50610266610a71565b6040516102739190611a73565b60405180910390f35b34801561028857600080fd5b50610291610a97565b60405161029e9190611be7565b60405180910390f35b3480156102b357600080fd5b506102bc610b25565b6040516102c99190611bb1565b60405180910390f35b3480156102de57600080fd5b506102e7610b2b565b6040516102f49190611ca9565b60405180910390f35b34801561030957600080fd5b50610312610b31565b60405161031f9190611ca9565b60405180910390f35b34801561033457600080fd5b5061034f600480360381019061034a91906117e6565b610b3b565b005b60008061036860095430634357855e60e01b610c33565b905061043e6040518060400160405280600381526020017f6765740000000000000000000000000000000000000000000000000000000000815250600a80546103b0906120d6565b80601f01602080910402602001604051908101604052809291908181526020018280546103dc906120d6565b80156104295780601f106103fe57610100808354040283529160200191610429565b820191906000526020600020905b81548152906001019060200180831161040c57829003601f168201915b505050505083610c649092919063ffffffff16565b6105126040518060400160405280600481526020017f7061746800000000000000000000000000000000000000000000000000000000815250600b8054610484906120d6565b80601f01602080910402602001604051908101604052809291908181526020018280546104b0906120d6565b80156104fd5780601f106104d2576101008083540402835291602001916104fd565b820191906000526020600020905b8154815290600101906020018083116104e057829003601f168201915b505050505083610c649092919063ffffffff16565b61055e6040518060400160405280600581526020017f74696d6573000000000000000000000000000000000000000000000000000000815250600d5483610c979092919063ffffffff16565b61058d600860009054906101000a900473ffffffffffffffffffffffffffffffffffffffff1682600e54610cca565b91507f5de0ca4d601c6369aafe37da9bab92be9804895234cdb72d8181492e84e6bcb2600860009054906101000a900473ffffffffffffffffffffffffffffffffffffffff16600954600e546040516105e893929190611a8e565b60405180910390a15090565b600c60009054906101000a900473ffffffffffffffffffffffffffffffffffffffff1681565b600d5481565b816005600082815260200190815260200160002060009054906101000a900473ffffffffffffffffffffffffffffffffffffffff1673ffffffffffffffffffffffffffffffffffffffff163373ffffffffffffffffffffffffffffffffffffffff16146106c2576040517f08c379a00000000000000000000000000000000000000000000000000000000081526004016106b990611c69565b60405180910390fd5b6005600082815260200190815260200160002060006101000a81549073ffffffffffffffffffffffffffffffffffffffff0219169055807f7cc135e0cebb02c3480ae5d74d377283180a2601f8f644edf7987b009316c63a60405160405180910390a2816007819055507f6930ee93026433301a14b1baa0b52ca0d4640cb1edaa703beeb9056e235269848360405161075b9190611bb1565b60405180910390a1505050565b6040518060400160405280600581526020017f707269636500000000000000000000000000000000000000000000000000000081525081565b6107a9610cea565b73ffffffffffffffffffffffffffffffffffffffff166107c7610829565b73ffffffffffffffffffffffffffffffffffffffff161461081d576040517f08c379a000000000000000000000000000000000000000000000000000000000815260040161081490611c49565b60405180910390fd5b6108276000610cf2565b565b6000600660009054906101000a900473ffffffffffffffffffffffffffffffffffffffff16905090565b61085b610cea565b73ffffffffffffffffffffffffffffffffffffffff16610879610829565b73ffffffffffffffffffffffffffffffffffffffff16146108cf576040517f08c379a00000000000000000000000000000000000000000000000000000000081526004016108c690611c49565b60405180910390fd5b60006108d9610db8565b905060008173ffffffffffffffffffffffffffffffffffffffff166370a08231306040518263ffffffff1660e01b81526004016109169190611a73565b60206040518083038186803b15801561092e57600080fd5b505afa158015610942573d6000803e3d6000fd5b505050506040513d601f19601f820116820180604052508101906109669190611880565b90508173ffffffffffffffffffffffffffffffffffffffff1663a9059cbb33836040518363ffffffff1660e01b81526004016109a3929190611ac5565b602060405180830381600087803b1580156109bd57600080fd5b505af11580156109d1573d6000803e3d6000fd5b505050506040513d601f19601f820116820180604052508101906109f59190611813565b610a34576040517f08c379a0000000000000000000000000000000000000000000000000000000008152600401610a2b90611c89565b60405180910390fd5b7fcb1436249a1dd8cf93362c28d79a4e20dc54398b6c49e30316e8396e72a584b03382604051610a65929190611ac5565b60405180910390a15050565b600860009054906101000a900473ffffffffffffffffffffffffffffffffffffffff1681565b600f8054610aa4906120d6565b80601f0160208091040260200160405190810160405280929190818152602001828054610ad0906120d6565b8015610b1d5780601f10610af257610100808354040283529160200191610b1d565b820191906000526020600020905b815481529060010190602001808311610b0057829003601f168201915b505050505081565b60095481565b600e5481565b6000600754905090565b610b43610cea565b73ffffffffffffffffffffffffffffffffffffffff16610b61610829565b73ffffffffffffffffffffffffffffffffffffffff1614610bb7576040517f08c379a0000000000000000000000000000000000000000000000000000000008152600401610bae90611c49565b60405180910390fd5b600073ffffffffffffffffffffffffffffffffffffffff168173ffffffffffffffffffffffffffffffffffffffff161415610c27576040517f08c379a0000000000000000000000000000000000000000000000000000000008152600401610c1e90611c09565b60405180910390fd5b610c3081610cf2565b50565b610c3b6116f6565b610c436116f6565b610c5a85858584610de2909392919063ffffffff16565b9150509392505050565b610c7b828460800151610e9290919063ffffffff16565b610c92818460800151610e9290919063ffffffff16565b505050565b610cae828460800151610e9290919063ffffffff16565b610cc5818460800151610eb790919063ffffffff16565b505050565b6000610ce18484846001634042994660e01b610f64565b90509392505050565b600033905090565b6000600660009054906101000a900473ffffffffffffffffffffffffffffffffffffffff16905081600660006101000a81548173ffffffffffffffffffffffffffffffffffffffff021916908373ffffffffffffffffffffffffffffffffffffffff1602179055508173ffffffffffffffffffffffffffffffffffffffff168173ffffffffffffffffffffffffffffffffffffffff167f8be0079c531659141344cd1fd0a4f28419497f9722a3daafe3b4186f6b6457e060405160405180910390a35050565b6000600260009054906101000a900473ffffffffffffffffffffffffffffffffffffffff16905090565b610dea6116f6565b610dfa85608001516101006111cc565b508385600001818152505082856020019073ffffffffffffffffffffffffffffffffffffffff16908173ffffffffffffffffffffffffffffffffffffffff16815250508185604001907bffffffffffffffffffffffffffffffffffffffffffffffffffffffff191690817bffffffffffffffffffffffffffffffffffffffffffffffffffffffff191681525050849050949350505050565b610e9f8260038351611236565b610eb2818361137b90919063ffffffff16565b505050565b7fffffffffffffffffffffffffffffffffffffffffffffffff0000000000000000811215610eee57610ee9828261139d565b610f60565b67ffffffffffffffff811315610f0d57610f088282611414565b610f5f565b60008112610f2657610f2182600083611236565b610f5e565b610f5d826001837fffffffffffffffffffffffffffffffffffffffffffffffffffffffffffffffff610f589190611f1d565b611236565b5b5b5b5050565b600030600454604051602001610f7b929190611a47565b604051602081830303815290604052805190602001209050600454856060018181525050856005600083815260200190815260200160002060006101000a81548173ffffffffffffffffffffffffffffffffffffffff021916908373ffffffffffffffffffffffffffffffffffffffff160217905550807fb5e6e01e79f91267dc17b4e6314d5d4d03593d2ceee0fbb452b750bd70ea5af960405160405180910390a2600082600080886000015189602001518a604001518b606001518a8d6080015160000151604051602401611059989796959493929190611aee565b604051602081830303815290604052907bffffffffffffffffffffffffffffffffffffffffffffffffffffffff19166020820180517bffffffffffffffffffffffffffffffffffffffffffffffffffffffff83818316178352505050509050600260009054906101000a900473ffffffffffffffffffffffffffffffffffffffff1673ffffffffffffffffffffffffffffffffffffffff16634000aea08887846040518463ffffffff1660e01b815260040161111793929190611b73565b602060405180830381600087803b15801561113157600080fd5b505af1158015611145573d6000803e3d6000fd5b505050506040513d601f19601f820116820180604052508101906111699190611813565b6111a8576040517f08c379a000000000000000000000000000000000000000000000000000000000815260040161119f90611c29565b60405180910390fd5b6001600460008282546111bb9190611cfc565b925050819055505095945050505050565b6111d4611763565b60006020836111e39190612136565b1461120f576020826111f59190612136565b60206112019190611fb1565b8261120c9190611cfc565b91505b81836020018181525050604051808452600081528281016020016040525082905092915050565b601781116112635761125d8160058460ff16901b60ff16178461146090919063ffffffff16565b50611376565b60ff81116112a557611288601860058460ff16901b178461146090919063ffffffff16565b5061129f816001856114809092919063ffffffff16565b50611375565b61ffff81116112e8576112cb601960058460ff16901b178461146090919063ffffffff16565b506112e2816002856114809092919063ffffffff16565b50611374565b63ffffffff811161132d57611310601a60058460ff16901b178461146090919063ffffffff16565b50611327816004856114809092919063ffffffff16565b50611373565b67ffffffffffffffff811161137257611359601b60058460ff16901b178461146090919063ffffffff16565b50611370816008856114809092919063ffffffff16565b505b5b5b5b5b505050565b611383611763565b611395838460000151518485516114a2565b905092915050565b6113bb60036005600660ff16901b178361146090919063ffffffff16565b5061141082827fffffffffffffffffffffffffffffffffffffffffffffffffffffffffffffffff6113ec9190611f1d565b6040516020016113fc9190611ca9565b6040516020818303038152906040526115ac565b5050565b61143260026005600660ff16901b178361146090919063ffffffff16565b5061145c82826040516020016114489190611ca9565b6040516020818303038152906040526115ac565b5050565b611468611763565b61147883846000015151846115d1565b905092915050565b611488611763565b611499848560000151518585611628565b90509392505050565b6114aa611763565b82518211156114b857600080fd5b846020015182856114c99190611cfc565b11156114fe576114fd8560026114ee886020015188876114e99190611cfc565b6116b6565b6114f89190611ec3565b6116d2565b5b60008086518051876020830101935080888701111561151d5787860182525b60208701925050505b60208410611564578051825260208261153f9190611cfc565b915060208161154e9190611cfc565b905060208461155d9190611fb1565b9350611526565b600060018560206115759190611fb1565b6101006115829190611da5565b61158c9190611fb1565b905080198251168184511681811785525050879350505050949350505050565b6115b98260028351611236565b6115cc818361137b90919063ffffffff16565b505050565b6115d9611763565b836020015183106115ff576115fe84600286602001516115f99190611ec3565b6116d2565b5b835180516020858301018481538186141561161b576001820183525b5050508390509392505050565b611630611763565b846020015184836116419190611cfc565b11156116695761166885600286856116599190611cfc565b6116639190611ec3565b6116d2565b5b600060018361010061167b9190611da5565b6116859190611fb1565b905085518386820101858319825116178152815185880111156116a85784870182525b505085915050949350505050565b6000818311156116c8578290506116cc565b8190505b92915050565b6000826000015190506116e583836111cc565b506116f0838261137b565b50505050565b6040518060a0016040528060008019168152602001600073ffffffffffffffffffffffffffffffffffffffff16815260200160007bffffffffffffffffffffffffffffffffffffffffffffffffffffffff191681526020016000815260200161175d611763565b81525090565b604051806040016040528060608152602001600081525090565b60008135905061178c81612363565b92915050565b6000815190506117a18161237a565b92915050565b6000813590506117b681612391565b92915050565b6000813590506117cb816123a8565b92915050565b6000815190506117e0816123a8565b92915050565b6000602082840312156117fc576117fb6121f4565b5b600061180a8482850161177d565b91505092915050565b600060208284031215611829576118286121f4565b5b600061183784828501611792565b91505092915050565b60008060408385031215611857576118566121f4565b5b6000611865858286016117a7565b9250506020611876858286016117bc565b9150509250929050565b600060208284031215611896576118956121f4565b5b60006118a4848285016117d1565b91505092915050565b6118b681611fe5565b82525050565b6118c581612003565b82525050565b6118d48161200d565b82525050565b60006118e582611cc4565b6118ef8185611cda565b93506118ff8185602086016120a3565b611908816121f9565b840191505092915050565b61192461191f8261206d565b612108565b82525050565b61193381612039565b82525050565b600061194482611ccf565b61194e8185611ceb565b935061195e8185602086016120a3565b611967816121f9565b840191505092915050565b600061197f602683611ceb565b915061198a82612224565b604082019050919050565b60006119a2602383611ceb565b91506119ad82612273565b604082019050919050565b60006119c5602083611ceb565b91506119d0826122c2565b602082019050919050565b60006119e8602883611ceb565b91506119f3826122eb565b604082019050919050565b6000611a0b601283611ceb565b9150611a168261233a565b602082019050919050565b611a2a81612063565b82525050565b611a41611a3c82612063565b61212c565b82525050565b6000611a538285611913565b601482019150611a638284611a30565b6020820191508190509392505050565b6000602082019050611a8860008301846118ad565b92915050565b6000606082019050611aa360008301866118ad565b611ab060208301856118bc565b611abd6040830184611a21565b949350505050565b6000604082019050611ada60008301856118ad565b611ae76020830184611a21565b9392505050565b600061010082019050611b04600083018b6118ad565b611b11602083018a611a21565b611b1e60408301896118bc565b611b2b60608301886118ad565b611b3860808301876118cb565b611b4560a0830186611a21565b611b5260c0830185611a21565b81810360e0830152611b6481846118da565b90509998505050505050505050565b6000606082019050611b8860008301866118ad565b611b956020830185611a21565b8181036040830152611ba781846118da565b9050949350505050565b6000602082019050611bc660008301846118bc565b92915050565b6000602082019050611be1600083018461192a565b92915050565b60006020820190508181036000830152611c018184611939565b905092915050565b60006020820190508181036000830152611c2281611972565b9050919050565b60006020820190508181036000830152611c4281611995565b9050919050565b60006020820190508181036000830152611c62816119b8565b9050919050565b60006020820190508181036000830152611c82816119db565b9050919050565b60006020820190508181036000830152611ca2816119fe565b9050919050565b6000602082019050611cbe6000830184611a21565b92915050565b600081519050919050565b600081519050919050565b600082825260208201905092915050565b600082825260208201905092915050565b6000611d0782612063565b9150611d1283612063565b9250827fffffffffffffffffffffffffffffffffffffffffffffffffffffffffffffffff03821115611d4757611d46612167565b5b828201905092915050565b6000808291508390505b6001851115611d9c57808604811115611d7857611d77612167565b5b6001851615611d875780820291505b8081029050611d9585612217565b9450611d5c565b94509492505050565b6000611db082612063565b9150611dbb83612063565b9250611de87fffffffffffffffffffffffffffffffffffffffffffffffffffffffffffffffff8484611df0565b905092915050565b600082611e005760019050611ebc565b81611e0e5760009050611ebc565b8160018114611e245760028114611e2e57611e5d565b6001915050611ebc565b60ff841115611e4057611e3f612167565b5b8360020a915084821115611e5757611e56612167565b5b50611ebc565b5060208310610133831016604e8410600b8410161715611e925782820a905083811115611e8d57611e8c612167565b5b611ebc565b611e9f8484846001611d52565b92509050818404811115611eb657611eb5612167565b5b81810290505b9392505050565b6000611ece82612063565b9150611ed983612063565b9250817fffffffffffffffffffffffffffffffffffffffffffffffffffffffffffffffff0483118215151615611f1257611f11612167565b5b828202905092915050565b6000611f2882612039565b9150611f3383612039565b9250827f800000000000000000000000000000000000000000000000000000000000000001821260008412151615611f6e57611f6d612167565b5b827f7fffffffffffffffffffffffffffffffffffffffffffffffffffffffffffffff018213600084121615611fa657611fa5612167565b5b828203905092915050565b6000611fbc82612063565b9150611fc783612063565b925082821015611fda57611fd9612167565b5b828203905092915050565b6000611ff082612043565b9050919050565b60008115159050919050565b6000819050919050565b60007fffffffff0000000000000000000000000000000000000000000000000000000082169050919050565b6000819050919050565b600073ffffffffffffffffffffffffffffffffffffffff82169050919050565b6000819050919050565b60006120788261207f565b9050919050565b600061208a82612091565b9050919050565b600061209c82612043565b9050919050565b60005b838110156120c15780820151818401526020810190506120a6565b838111156120d0576000848401525b50505050565b600060028204905060018216806120ee57607f821691505b60208210811415612102576121016121c5565b5b50919050565b60006121138261211a565b9050919050565b60006121258261220a565b9050919050565b6000819050919050565b600061214182612063565b915061214c83612063565b92508261215c5761215b612196565b5b828206905092915050565b7f4e487b7100000000000000000000000000000000000000000000000000000000600052601160045260246000fd5b7f4e487b7100000000000000000000000000000000000000000000000000000000600052601260045260246000fd5b7f4e487b7100000000000000000000000000000000000000000000000000000000600052602260045260246000fd5b600080fd5b6000601f19601f8301169050919050565b60008160601b9050919050565b60008160011c9050919050565b7f4f776e61626c653a206e6577206f776e657220697320746865207a65726f206160008201527f6464726573730000000000000000000000000000000000000000000000000000602082015250565b7f756e61626c6520746f207472616e73666572416e6443616c6c20746f206f726160008201527f636c650000000000000000000000000000000000000000000000000000000000602082015250565b7f4f776e61626c653a2063616c6c6572206973206e6f7420746865206f776e6572600082015250565b7f536f75726365206d75737420626520746865206f7261636c65206f662074686560008201527f2072657175657374000000000000000000000000000000000000000000000000602082015250565b7f556e61626c6520746f2077697468647261770000000000000000000000000000600082015250565b61236c81611fe5565b811461237757600080fd5b50565b61238381611ff7565b811461238e57600080fd5b50565b61239a81612003565b81146123a557600080fd5b50565b6123b181612063565b81146123bc57600080fd5b5056fea26469706673582212206649ac3a9d21e91b1064deb122d62981a6ed5da9d1c183761ea01b0595a96d2f64736f6c63430008070033687474703a2f2f76616c756174696f6e2d6170692e6865726f6b756170702e636f6d2f7072696365608060405260016004553480156200001657600080fd5b50604051620029053803806200290583398181016040528101906200003c91906200038a565b6200005c620000506200013260201b60201c565b6200013a60201b60201c565b86600860006101000a81548173ffffffffffffffffffffffffffffffffffffffff021916908373ffffffffffffffffffffffffffffffffffffffff1602179055508560098190555084600a9080519060200190620000bc92919062000200565b5083600b9080519060200190620000d592919062000200565b5082600c60006101000a81548173ffffffffffffffffffffffffffffffffffffffff021916908373ffffffffffffffffffffffffffffffffffffffff16021790555081600e8190555080600d8190555050505050505050620006b9565b600033905090565b6000600660009054906101000a900473ffffffffffffffffffffffffffffffffffffffff16905081600660006101000a81548173ffffffffffffffffffffffffffffffffffffffff021916908373ffffffffffffffffffffffffffffffffffffffff1602179055508173ffffffffffffffffffffffffffffffffffffffff168173ffffffffffffffffffffffffffffffffffffffff167f8be0079c531659141344cd1fd0a4f28419497f9722a3daafe3b4186f6b6457e060405160405180910390a35050565b8280546200020e9062000562565b90600052602060002090601f0160209004810192826200023257600085556200027e565b82601f106200024d57805160ff19168380011785556200027e565b828001600101855582156200027e579182015b828111156200027d57825182559160200191906001019062000260565b5b5090506200028d919062000291565b5090565b5b80821115620002ac57600081600090555060010162000292565b5090565b6000620002c7620002c184620004a4565b6200047b565b905082815260208101848484011115620002e657620002e562000631565b5b620002f38482856200052c565b509392505050565b6000815190506200030c8162000651565b92915050565b60008151905062000323816200066b565b92915050565b6000815190506200033a8162000685565b92915050565b600082601f8301126200035857620003576200062c565b5b81516200036a848260208601620002b0565b91505092915050565b60008151905062000384816200069f565b92915050565b600080600080600080600060e0888a031215620003ac57620003ab6200063b565b5b6000620003bc8a828b01620002fb565b9750506020620003cf8a828b0162000312565b965050604088015167ffffffffffffffff811115620003f357620003f262000636565b5b620004018a828b0162000340565b955050606088015167ffffffffffffffff81111562000425576200042462000636565b5b620004338a828b0162000340565b9450506080620004468a828b01620002fb565b93505060a0620004598a828b0162000373565b92505060c06200046c8a828b0162000329565b91505092959891949750929550565b6000620004876200049a565b905062000495828262000598565b919050565b6000604051905090565b600067ffffffffffffffff821115620004c257620004c1620005fd565b5b620004cd8262000640565b9050602081019050919050565b6000620004e78262000502565b9050919050565b6000819050919050565b6000819050919050565b600073ffffffffffffffffffffffffffffffffffffffff82169050919050565b6000819050919050565b60005b838110156200054c5780820151818401526020810190506200052f565b838111156200055c576000848401525b50505050565b600060028204905060018216806200057b57607f821691505b60208210811415620005925762000591620005ce565b5b50919050565b620005a38262000640565b810181811067ffffffffffffffff82111715620005c557620005c4620005fd565b5b80604052505050565b7f4e487b7100000000000000000000000000000000000000000000000000000000600052602260045260246000fd5b7f4e487b7100000000000000000000000000000000000000000000000000000000600052604160045260246000fd5b600080fd5b600080fd5b600080fd5b600080fd5b6000601f19601f8301169050919050565b6200065c81620004da565b81146200066857600080fd5b50565b6200067681620004ee565b81146200068257600080fd5b50565b6200069081620004f8565b81146200069c57600080fd5b50565b620006aa8162000522565b8114620006b657600080fd5b50565b61223c80620006c96000396000f3fe6080604052600436106100ab5760003560e01c80638dc654a2116100645780638dc654a2146101d9578063a89ae4ba146101f0578063c2939d971461021b578063ddca3f4314610246578063de29278914610271578063f2fde38b1461029c576100eb565b80630f00494a146100ed578063235cea9814610118578063313ce567146101435780634357855e1461016e578063715018a6146101975780638da5cb5b146101ae576100eb565b366100eb577f88a5966d370b9919b20f3e2c13ff65706f196a4e32cc2c12bf57088f8852587433346040516100e1929190611939565b60405180910390a1005b005b3480156100f957600080fd5b506101026102c5565b60405161010f9190611a25565b60405180910390f35b34801561012457600080fd5b5061012d610568565b60405161013a91906118e7565b60405180910390f35b34801561014f57600080fd5b5061015861058e565b6040516101659190611a40565b60405180910390f35b34801561017a57600080fd5b50610195600480360381019061019091906116ed565b610594565b005b3480156101a357600080fd5b506101ac6106dc565b005b3480156101ba57600080fd5b506101c3610764565b6040516101d091906118e7565b60405180910390f35b3480156101e557600080fd5b506101ee61078e565b005b3480156101fc57600080fd5b506102056109ac565b60405161021291906118e7565b60405180910390f35b34801561022757600080fd5b506102306109d2565b60405161023d9190611a25565b60405180910390f35b34801561025257600080fd5b5061025b6109d8565b6040516102689190611afb565b60405180910390f35b34801561027d57600080fd5b506102866109de565b6040516102939190611afb565b60405180910390f35b3480156102a857600080fd5b506102c360048036038101906102be9190611693565b6109e8565b005b6000806102dc60095430634357855e60e01b610ae0565b90506103b26040518060400160405280600381526020017f6765740000000000000000000000000000000000000000000000000000000000815250600a805461032490611f1d565b80601f016020809104026020016040519081016040528092919081815260200182805461035090611f1d565b801561039d5780601f106103725761010080835404028352916020019161039d565b820191906000526020600020905b81548152906001019060200180831161038057829003601f168201915b505050505083610b119092919063ffffffff16565b6104866040518060400160405280600481526020017f7061746800000000000000000000000000000000000000000000000000000000815250600b80546103f890611f1d565b80601f016020809104026020016040519081016040528092919081815260200182805461042490611f1d565b80156104715780601f1061044657610100808354040283529160200191610471565b820191906000526020600020905b81548152906001019060200180831161045457829003601f168201915b505050505083610b119092919063ffffffff16565b6104d26040518060400160405280600581526020017f74696d6573000000000000000000000000000000000000000000000000000000815250600d5483610b449092919063ffffffff16565b610501600860009054906101000a900473ffffffffffffffffffffffffffffffffffffffff1682600e54610b77565b91507f5de0ca4d601c6369aafe37da9bab92be9804895234cdb72d8181492e84e6bcb2600860009054906101000a900473ffffffffffffffffffffffffffffffffffffffff16600954600e5460405161055c93929190611902565b60405180910390a15090565b600c60009054906101000a900473ffffffffffffffffffffffffffffffffffffffff1681565b600d5481565b816005600082815260200190815260200160002060009054906101000a900473ffffffffffffffffffffffffffffffffffffffff1673ffffffffffffffffffffffffffffffffffffffff163373ffffffffffffffffffffffffffffffffffffffff1614610636576040517f08c379a000000000000000000000000000000000000000000000000000000000815260040161062d90611abb565b60405180910390fd5b6005600082815260200190815260200160002060006101000a81549073ffffffffffffffffffffffffffffffffffffffff0219169055807f7cc135e0cebb02c3480ae5d74d377283180a2601f8f644edf7987b009316c63a60405160405180910390a2816007819055507f6930ee93026433301a14b1baa0b52ca0d4640cb1edaa703beeb9056e23526984836040516106cf9190611a25565b60405180910390a1505050565b6106e4610b97565b73ffffffffffffffffffffffffffffffffffffffff16610702610764565b73ffffffffffffffffffffffffffffffffffffffff1614610758576040517f08c379a000000000000000000000000000000000000000000000000000000000815260040161074f90611a9b565b60405180910390fd5b6107626000610b9f565b565b6000600660009054906101000a900473ffffffffffffffffffffffffffffffffffffffff16905090565b610796610b97565b73ffffffffffffffffffffffffffffffffffffffff166107b4610764565b73ffffffffffffffffffffffffffffffffffffffff161461080a576040517f08c379a000000000000000000000000000000000000000000000000000000000815260040161080190611a9b565b60405180910390fd5b6000610814610c65565b905060008173ffffffffffffffffffffffffffffffffffffffff166370a08231306040518263ffffffff1660e01b815260040161085191906118e7565b60206040518083038186803b15801561086957600080fd5b505afa15801561087d573d6000803e3d6000fd5b505050506040513d601f19601f820116820180604052508101906108a1919061172d565b90508173ffffffffffffffffffffffffffffffffffffffff1663a9059cbb33836040518363ffffffff1660e01b81526004016108de929190611939565b602060405180830381600087803b1580156108f857600080fd5b505af115801561090c573d6000803e3d6000fd5b505050506040513d601f19601f8201168201806040525081019061093091906116c0565b61096f576040517f08c379a000000000000000000000000000000000000000000000000000000000815260040161096690611adb565b60405180910390fd5b7fcb1436249a1dd8cf93362c28d79a4e20dc54398b6c49e30316e8396e72a584b033826040516109a0929190611939565b60405180910390a15050565b600860009054906101000a900473ffffffffffffffffffffffffffffffffffffffff1681565b60095481565b600e5481565b6000600754905090565b6109f0610b97565b73ffffffffffffffffffffffffffffffffffffffff16610a0e610764565b73ffffffffffffffffffffffffffffffffffffffff1614610a64576040517f08c379a0000000000000000000000000000000000000000000000000000000008152600401610a5b90611a9b565b60405180910390fd5b600073ffffffffffffffffffffffffffffffffffffffff168173ffffffffffffffffffffffffffffffffffffffff161415610ad4576040517f08c379a0000000000000000000000000000000000000000000000000000000008152600401610acb90611a5b565b60405180910390fd5b610add81610b9f565b50565b610ae86115a3565b610af06115a3565b610b0785858584610c8f909392919063ffffffff16565b9150509392505050565b610b28828460800151610d3f90919063ffffffff16565b610b3f818460800151610d3f90919063ffffffff16565b505050565b610b5b828460800151610d3f90919063ffffffff16565b610b72818460800151610d6490919063ffffffff16565b505050565b6000610b8e8484846001634042994660e01b610e11565b90509392505050565b600033905090565b6000600660009054906101000a900473ffffffffffffffffffffffffffffffffffffffff16905081600660006101000a81548173ffffffffffffffffffffffffffffffffffffffff021916908373ffffffffffffffffffffffffffffffffffffffff1602179055508173ffffffffffffffffffffffffffffffffffffffff168173ffffffffffffffffffffffffffffffffffffffff167f8be0079c531659141344cd1fd0a4f28419497f9722a3daafe3b4186f6b6457e060405160405180910390a35050565b6000600260009054906101000a900473ffffffffffffffffffffffffffffffffffffffff16905090565b610c976115a3565b610ca78560800151610100611079565b508385600001818152505082856020019073ffffffffffffffffffffffffffffffffffffffff16908173ffffffffffffffffffffffffffffffffffffffff16815250508185604001907bffffffffffffffffffffffffffffffffffffffffffffffffffffffff191690817bffffffffffffffffffffffffffffffffffffffffffffffffffffffff191681525050849050949350505050565b610d4c82600383516110e3565b610d5f818361122890919063ffffffff16565b505050565b7fffffffffffffffffffffffffffffffffffffffffffffffff0000000000000000811215610d9b57610d96828261124a565b610e0d565b67ffffffffffffffff811315610dba57610db582826112c1565b610e0c565b60008112610dd357610dce826000836110e3565b610e0b565b610e0a826001837fffffffffffffffffffffffffffffffffffffffffffffffffffffffffffffffff610e059190611d64565b6110e3565b5b5b5b5050565b600030600454604051602001610e289291906118bb565b604051602081830303815290604052805190602001209050600454856060018181525050856005600083815260200190815260200160002060006101000a81548173ffffffffffffffffffffffffffffffffffffffff021916908373ffffffffffffffffffffffffffffffffffffffff160217905550807fb5e6e01e79f91267dc17b4e6314d5d4d03593d2ceee0fbb452b750bd70ea5af960405160405180910390a2600082600080886000015189602001518a604001518b606001518a8d6080015160000151604051602401610f06989796959493929190611962565b604051602081830303815290604052907bffffffffffffffffffffffffffffffffffffffffffffffffffffffff19166020820180517bffffffffffffffffffffffffffffffffffffffffffffffffffffffff83818316178352505050509050600260009054906101000a900473ffffffffffffffffffffffffffffffffffffffff1673ffffffffffffffffffffffffffffffffffffffff16634000aea08887846040518463ffffffff1660e01b8152600401610fc4939291906119e7565b602060405180830381600087803b158015610fde57600080fd5b505af1158015610ff2573d6000803e3d6000fd5b505050506040513d601f19601f8201168201806040525081019061101691906116c0565b611055576040517f08c379a000000000000000000000000000000000000000000000000000000000815260040161104c90611a7b565b60405180910390fd5b6001600460008282546110689190611b43565b925050819055505095945050505050565b611081611610565b60006020836110909190611f7d565b146110bc576020826110a29190611f7d565b60206110ae9190611df8565b826110b99190611b43565b91505b81836020018181525050604051808452600081528281016020016040525082905092915050565b601781116111105761110a8160058460ff16901b60ff16178461130d90919063ffffffff16565b50611223565b60ff811161115257611135601860058460ff16901b178461130d90919063ffffffff16565b5061114c8160018561132d9092919063ffffffff16565b50611222565b61ffff811161119557611178601960058460ff16901b178461130d90919063ffffffff16565b5061118f8160028561132d9092919063ffffffff16565b50611221565b63ffffffff81116111da576111bd601a60058460ff16901b178461130d90919063ffffffff16565b506111d48160048561132d9092919063ffffffff16565b50611220565b67ffffffffffffffff811161121f57611206601b60058460ff16901b178461130d90919063ffffffff16565b5061121d8160088561132d9092919063ffffffff16565b505b5b5b5b5b505050565b611230611610565b6112428384600001515184855161134f565b905092915050565b61126860036005600660ff16901b178361130d90919063ffffffff16565b506112bd82827fffffffffffffffffffffffffffffffffffffffffffffffffffffffffffffffff6112999190611d64565b6040516020016112a99190611afb565b604051602081830303815290604052611459565b5050565b6112df60026005600660ff16901b178361130d90919063ffffffff16565b5061130982826040516020016112f59190611afb565b604051602081830303815290604052611459565b5050565b611315611610565b611325838460000151518461147e565b905092915050565b611335611610565b6113468485600001515185856114d5565b90509392505050565b611357611610565b825182111561136557600080fd5b846020015182856113769190611b43565b11156113ab576113aa85600261139b886020015188876113969190611b43565b611563565b6113a59190611d0a565b61157f565b5b6000808651805187602083010193508088870111156113ca5787860182525b60208701925050505b6020841061141157805182526020826113ec9190611b43565b91506020816113fb9190611b43565b905060208461140a9190611df8565b93506113d3565b600060018560206114229190611df8565b61010061142f9190611bec565b6114399190611df8565b905080198251168184511681811785525050879350505050949350505050565b61146682600283516110e3565b611479818361122890919063ffffffff16565b505050565b611486611610565b836020015183106114ac576114ab84600286602001516114a69190611d0a565b61157f565b5b83518051602085830101848153818614156114c8576001820183525b5050508390509392505050565b6114dd611610565b846020015184836114ee9190611b43565b11156115165761151585600286856115069190611b43565b6115109190611d0a565b61157f565b5b60006001836101006115289190611bec565b6115329190611df8565b905085518386820101858319825116178152815185880111156115555784870182525b505085915050949350505050565b60008183111561157557829050611579565b8190505b92915050565b6000826000015190506115928383611079565b5061159d8382611228565b50505050565b6040518060a0016040528060008019168152602001600073ffffffffffffffffffffffffffffffffffffffff16815260200160007bffffffffffffffffffffffffffffffffffffffffffffffffffffffff191681526020016000815260200161160a611610565b81525090565b604051806040016040528060608152602001600081525090565b600081359050611639816121aa565b92915050565b60008151905061164e816121c1565b92915050565b600081359050611663816121d8565b92915050565b600081359050611678816121ef565b92915050565b60008151905061168d816121ef565b92915050565b6000602082840312156116a9576116a861203b565b5b60006116b78482850161162a565b91505092915050565b6000602082840312156116d6576116d561203b565b5b60006116e48482850161163f565b91505092915050565b600080604083850312156117045761170361203b565b5b600061171285828601611654565b925050602061172385828601611669565b9150509250929050565b6000602082840312156117435761174261203b565b5b60006117518482850161167e565b91505092915050565b61176381611e2c565b82525050565b61177281611e4a565b82525050565b61178181611e54565b82525050565b600061179282611b16565b61179c8185611b21565b93506117ac818560208601611eea565b6117b581612040565b840191505092915050565b6117d16117cc82611eb4565b611f4f565b82525050565b6117e081611e80565b82525050565b60006117f3602683611b32565b91506117fe8261206b565b604082019050919050565b6000611816602383611b32565b9150611821826120ba565b604082019050919050565b6000611839602083611b32565b915061184482612109565b602082019050919050565b600061185c602883611b32565b915061186782612132565b604082019050919050565b600061187f601283611b32565b915061188a82612181565b602082019050919050565b61189e81611eaa565b82525050565b6118b56118b082611eaa565b611f73565b82525050565b60006118c782856117c0565b6014820191506118d782846118a4565b6020820191508190509392505050565b60006020820190506118fc600083018461175a565b92915050565b6000606082019050611917600083018661175a565b6119246020830185611769565b6119316040830184611895565b949350505050565b600060408201905061194e600083018561175a565b61195b6020830184611895565b9392505050565b600061010082019050611978600083018b61175a565b611985602083018a611895565b6119926040830189611769565b61199f606083018861175a565b6119ac6080830187611778565b6119b960a0830186611895565b6119c660c0830185611895565b81810360e08301526119d88184611787565b90509998505050505050505050565b60006060820190506119fc600083018661175a565b611a096020830185611895565b8181036040830152611a1b8184611787565b9050949350505050565b6000602082019050611a3a6000830184611769565b92915050565b6000602082019050611a5560008301846117d7565b92915050565b60006020820190508181036000830152611a74816117e6565b9050919050565b60006020820190508181036000830152611a9481611809565b9050919050565b60006020820190508181036000830152611ab48161182c565b9050919050565b60006020820190508181036000830152611ad48161184f565b9050919050565b60006020820190508181036000830152611af481611872565b9050919050565b6000602082019050611b106000830184611895565b92915050565b600081519050919050565b600082825260208201905092915050565b600082825260208201905092915050565b6000611b4e82611eaa565b9150611b5983611eaa565b9250827fffffffffffffffffffffffffffffffffffffffffffffffffffffffffffffffff03821115611b8e57611b8d611fae565b5b828201905092915050565b6000808291508390505b6001851115611be357808604811115611bbf57611bbe611fae565b5b6001851615611bce5780820291505b8081029050611bdc8561205e565b9450611ba3565b94509492505050565b6000611bf782611eaa565b9150611c0283611eaa565b9250611c2f7fffffffffffffffffffffffffffffffffffffffffffffffffffffffffffffffff8484611c37565b905092915050565b600082611c475760019050611d03565b81611c555760009050611d03565b8160018114611c6b5760028114611c7557611ca4565b6001915050611d03565b60ff841115611c8757611c86611fae565b5b8360020a915084821115611c9e57611c9d611fae565b5b50611d03565b5060208310610133831016604e8410600b8410161715611cd95782820a905083811115611cd457611cd3611fae565b5b611d03565b611ce68484846001611b99565b92509050818404811115611cfd57611cfc611fae565b5b81810290505b9392505050565b6000611d1582611eaa565b9150611d2083611eaa565b9250817fffffffffffffffffffffffffffffffffffffffffffffffffffffffffffffffff0483118215151615611d5957611d58611fae565b5b828202905092915050565b6000611d6f82611e80565b9150611d7a83611e80565b9250827f800000000000000000000000000000000000000000000000000000000000000001821260008412151615611db557611db4611fae565b5b827f7fffffffffffffffffffffffffffffffffffffffffffffffffffffffffffffff018213600084121615611ded57611dec611fae565b5b828203905092915050565b6000611e0382611eaa565b9150611e0e83611eaa565b925082821015611e2157611e20611fae565b5b828203905092915050565b6000611e3782611e8a565b9050919050565b60008115159050919050565b6000819050919050565b60007fffffffff0000000000000000000000000000000000000000000000000000000082169050919050565b6000819050919050565b600073ffffffffffffffffffffffffffffffffffffffff82169050919050565b6000819050919050565b6000611ebf82611ec6565b9050919050565b6000611ed182611ed8565b9050919050565b6000611ee382611e8a565b9050919050565b60005b83811015611f08578082015181840152602081019050611eed565b83811115611f17576000848401525b50505050565b60006002820490506001821680611f3557607f821691505b60208210811415611f4957611f4861200c565b5b50919050565b6000611f5a82611f61565b9050919050565b6000611f6c82612051565b9050919050565b6000819050919050565b6000611f8882611eaa565b9150611f9383611eaa565b925082611fa357611fa2611fdd565b5b828206905092915050565b7f4e487b7100000000000000000000000000000000000000000000000000000000600052601160045260246000fd5b7f4e487b7100000000000000000000000000000000000000000000000000000000600052601260045260246000fd5b7f4e487b7100000000000000000000000000000000000000000000000000000000600052602260045260246000fd5b600080fd5b6000601f19601f8301169050919050565b60008160601b9050919050565b60008160011c9050919050565b7f4f776e61626c653a206e6577206f776e657220697320746865207a65726f206160008201527f6464726573730000000000000000000000000000000000000000000000000000602082015250565b7f756e61626c6520746f207472616e73666572416e6443616c6c20746f206f726160008201527f636c650000000000000000000000000000000000000000000000000000000000602082015250565b7f4f776e61626c653a2063616c6c6572206973206e6f7420746865206f776e6572600082015250565b7f536f75726365206d75737420626520746865206f7261636c65206f662074686560008201527f2072657175657374000000000000000000000000000000000000000000000000602082015250565b7f556e61626c6520746f2077697468647261770000000000000000000000000000600082015250565b6121b381611e2c565b81146121be57600080fd5b50565b6121ca81611e3e565b81146121d557600080fd5b50565b6121e181611e4a565b81146121ec57600080fd5b50565b6121f881611eaa565b811461220357600080fd5b5056fea2646970667358221220a3662ec831a4e68fffb0adb668ab4c033d3ae2f5bb5be5bd1ca010ca1917145d64736f6c63430008070033a26469706673582212208cd6b7e80a718ca515da8625e8edbe255e3200a52f52c5e51447db7711cbd66764736f6c63430008070033",
  "immutableReferences": {},
  "source": "// SPDX-License-Identifier: UNLICENSED\r\n\r\npragma solidity ^0.8.6;\r\n\r\nimport \"@openzeppelin/contracts/access/Ownable.sol\";\r\nimport \"@openzeppelin/contracts/token/ERC20/IERC20.sol\";\r\nimport \"@openzeppelin/contracts/token/ERC20/utils/SafeERC20.sol\";\r\nimport \"./FFAContract.sol\";\r\n\r\ncontract FFAFactory {\r\n    using SafeERC20 for IERC20;\r\n\r\n    //hold addresses of FFA contracts\r\n    address[] private ffaContracts;\r\n\r\n    event Created(string name, string symbol, uint256 sizeOfContract);\r\n\r\n    function createFFAContract(\r\n        string calldata name, \r\n        string calldata symbol,\r\n        address oracleAddress,\r\n        bytes32 jobId, \r\n        uint256 fee,\r\n        address linkAddress,\r\n        //string memory underlyingApiURL,\r\n        //string memory underlyingApiPath,\r\n        int decimals,\r\n        uint256 sizeOfContract\r\n        /* margin rate representation:\r\n         * Scaled 1/100\r\n         * 1.25% -> 125\r\n         */\r\n        ) \r\n        external returns (address ffaContractAddress_) {\r\n            \r\n            //require (oracleAddress != address(0), \"oracle address cannot be zero address\");\r\n            //require(jobId != \"\", \"jobId cannot be empty string\");\r\n            //require(decimals != 0, \"decimals can't be zero\");\r\n            //require(sizeOfContract > 0, \"contract size cannot be zero\");\r\n\r\n            \r\n            ffaContractAddress_ = address(new FFAContract(name, symbol, oracleAddress, jobId, fee, linkAddress, \"test\", \"test\", decimals, sizeOfContract));\r\n            require(keccak256(abi.encodePacked(FFAContract(ffaContractAddress_).getContractState())) == keccak256(abi.encodePacked(\"Created\")), \"contract not created\");\r\n            ffaContracts.push(ffaContractAddress_);\r\n            emit Created(name, symbol, sizeOfContract);\r\n    }\r\n\r\n    function getFFAContract(uint256 index) external view returns(FFAContract) {\r\n        return FFAContract(ffaContracts[index]);\r\n    }\r\n}\r\n\r\n//Dennis notes:\r\n//query the state of the contract whether it's created\r\n            //no gas cost\r\n            //try catch - expect error and have specific plan to unwind system\r\n            // - heuristic call\r\n            //may or may not have direct control over what we are calling\r\n            //deal with 3rd party errors\r\n            //solidty added try-catch blocks for contract calls because they can be heuristic\r\n            //heuristic - range of things that go wrong\r\n            //if you have to try cath you dont try catch for internal server error\r\n            //in smart contract htings are heuristic - latency of network may fail for variety of reasons\r\n            //smart contracts don't make outside calls for this heuristic problem -> this is why chainlink is great\r\n            //this is why try catch was introduced\r\n            //destructor - sufficiently cleanup the object, nested, orpahns etc...\r\n            //\"try catch finally\" - tried event caught error, for any other error finally execute this",
  "sourcePath": "C:\\Users\\Tomi\\OneDrive - The University of Chicago\\Documents\\Securrency\\FuturesExchange\\contracts\\FFAFactory.sol",
  "compiler": {
    "name": "solc",
    "version": "0.8.7+commit.e28d00a7.Emscripten.clang"
  },
  "schemaVersion": "3.4.2",
  "updatedAt": "2021-08-23T21:26:39.665Z",
  "devdoc": {
    "kind": "dev",
    "methods": {},
    "version": 1
  },
  "userdoc": {
    "kind": "user",
    "methods": {},
    "version": 1
  }
}