{
  "contractName": "FFAFactory",
  "abi": [
    {
      "anonymous": false,
      "inputs": [
        {
          "indexed": false,
          "internalType": "string",
          "name": "name",
          "type": "string"
        },
        {
          "indexed": false,
          "internalType": "string",
          "name": "symbol",
          "type": "string"
        },
        {
          "indexed": false,
          "internalType": "uint256",
          "name": "sizeOfContract",
          "type": "uint256"
        },
        {
          "indexed": false,
          "internalType": "uint8",
          "name": "initialMarginRate",
          "type": "uint8"
        },
        {
          "indexed": false,
          "internalType": "uint8",
          "name": "maintenanceMarginRate",
          "type": "uint8"
        }
      ],
      "name": "Created",
      "type": "event"
    },
    {
      "inputs": [
        {
          "internalType": "string",
          "name": "name",
          "type": "string"
        },
        {
          "internalType": "string",
          "name": "symbol",
          "type": "string"
        },
        {
          "internalType": "uint8",
          "name": "decimals",
          "type": "uint8"
        },
        {
          "internalType": "uint256",
          "name": "sizeOfContract",
          "type": "uint256"
        },
        {
          "internalType": "uint8",
          "name": "exposureMarginRate",
          "type": "uint8"
        },
        {
          "internalType": "uint8",
          "name": "maintenanceMarginRate",
          "type": "uint8"
        }
      ],
      "name": "createFFAContract",
      "outputs": [
        {
          "internalType": "address",
          "name": "ffaContractAddress_",
          "type": "address"
        }
      ],
      "stateMutability": "nonpayable",
      "type": "function"
    },
    {
      "inputs": [
        {
          "internalType": "uint256",
          "name": "index",
          "type": "uint256"
        }
      ],
      "name": "getFFAContract",
      "outputs": [
        {
          "internalType": "contract FFAContract",
          "name": "",
          "type": "address"
        }
      ],
      "stateMutability": "view",
      "type": "function"
    }
  ],
  "bytecode": "0x608060405234801561001057600080fd5b50614f18806100206000396000f3fe60806040523480156200001157600080fd5b50600436106200003a5760003560e01c8063c6afc92e146200003f578063d058bd931462000075575b600080fd5b6200005d6004803603810190620000579190620004c7565b620000ab565b6040516200006c9190620007a8565b60405180910390f35b6200009360048036038101906200008d9190620005fc565b62000364565b604051620000a29190620007c5565b60405180910390f35b6000808411620000f2576040517f08c379a0000000000000000000000000000000000000000000000000000000008152600401620000e990620008d0565b60405180910390fd5b60008260ff16116200013b576040517f08c379a0000000000000000000000000000000000000000000000000000000008152600401620001329062000914565b60405180910390fd5b88888888888888886040516200015190620003ae565b6200016498979695949392919062000851565b604051809103906000f08015801562000181573d6000803e3d6000fd5b509050604051602001620001959062000791565b604051602081830303815290604052805190602001208173ffffffffffffffffffffffffffffffffffffffff16637f4e48496040518163ffffffff1660e01b815260040160006040518083038186803b158015620001f257600080fd5b505afa15801562000207573d6000803e3d6000fd5b505050506040513d6000823e3d601f19601f82011682018060405250810190620002329190620005ab565b60405160200162000244919062000778565b60405160208183030381529060405280519060200120146200029d576040517f08c379a00000000000000000000000000000000000000000000000000000000081526004016200029490620008f2565b60405180910390fd5b6000819080600181540180825580915050600190039060005260206000200160009091909190916101000a81548173ffffffffffffffffffffffffffffffffffffffff021916908373ffffffffffffffffffffffffffffffffffffffff16021790555060008284620003109190620009bc565b90507f2ab62b204eb14c5496e0c33e64e2e3f207acb85f7c6a52e316fdc4f2badf10148a8a8a8a8986896040516200034f9796959493929190620007e2565b60405180910390a15098975050505050505050565b60008082815481106200037c576200037b62000b2b565b5b9060005260206000200160009054906101000a900473ffffffffffffffffffffffffffffffffffffffff169050919050565b61422c8062000cb783390190565b6000620003d3620003cd846200095f565b62000936565b905082815260208101848484011115620003f257620003f162000b98565b5b620003ff84828562000a90565b509392505050565b60008083601f84011262000420576200041f62000b8e565b5b8235905067ffffffffffffffff81111562000440576200043f62000b89565b5b6020830191508360018202830111156200045f576200045e62000b93565b5b9250929050565b600082601f8301126200047e576200047d62000b8e565b5b815162000490848260208601620003bc565b91505092915050565b600081359050620004aa8162000c82565b92915050565b600081359050620004c18162000c9c565b92915050565b60008060008060008060008060c0898b031215620004ea57620004e962000ba2565b5b600089013567ffffffffffffffff8111156200050b576200050a62000b9d565b5b620005198b828c0162000407565b9850985050602089013567ffffffffffffffff8111156200053f576200053e62000b9d565b5b6200054d8b828c0162000407565b96509650506040620005628b828c01620004b0565b9450506060620005758b828c0162000499565b9350506080620005888b828c01620004b0565b92505060a06200059b8b828c01620004b0565b9150509295985092959890939650565b600060208284031215620005c457620005c362000ba2565b5b600082015167ffffffffffffffff811115620005e557620005e462000b9d565b5b620005f38482850162000466565b91505092915050565b60006020828403121562000615576200061462000ba2565b5b6000620006258482850162000499565b91505092915050565b6200063981620009fa565b82525050565b6200064a8162000a45565b82525050565b60006200065e8385620009a0565b93506200066d83858462000a81565b620006788362000ba7565b840190509392505050565b6000620006908262000995565b6200069c8185620009b1565b9350620006ae81856020860162000a90565b80840191505092915050565b6000620006c9601c83620009a0565b9150620006d68262000bb8565b602082019050919050565b6000620006f0601483620009a0565b9150620006fd8262000be1565b602082019050919050565b600062000717602683620009a0565b9150620007248262000c0a565b604082019050919050565b60006200073e600783620009b1565b91506200074b8262000c59565b600782019050919050565b620007618162000a2e565b82525050565b620007728162000a38565b82525050565b600062000786828462000683565b915081905092915050565b60006200079e826200072f565b9150819050919050565b6000602082019050620007bf60008301846200062e565b92915050565b6000602082019050620007dc60008301846200063f565b92915050565b600060a0820190508181036000830152620007ff81898b62000650565b905081810360208301526200081681878962000650565b905062000827604083018662000756565b62000836606083018562000767565b62000845608083018462000767565b98975050505050505050565b600060c08201905081810360008301526200086e818a8c62000650565b905081810360208301526200088581888a62000650565b905062000896604083018762000767565b620008a5606083018662000756565b620008b4608083018562000767565b620008c360a083018462000767565b9998505050505050505050565b60006020820190508181036000830152620008eb81620006ba565b9050919050565b600060208201905081810360008301526200090d81620006e1565b9050919050565b600060208201905081810360008301526200092f8162000708565b9050919050565b60006200094262000955565b905062000950828262000ac6565b919050565b6000604051905090565b600067ffffffffffffffff8211156200097d576200097c62000b5a565b5b620009888262000ba7565b9050602081019050919050565b600081519050919050565b600082825260208201905092915050565b600081905092915050565b6000620009c98262000a38565b9150620009d68362000a38565b92508260ff03821115620009ef57620009ee62000afc565b5b828201905092915050565b600062000a078262000a0e565b9050919050565b600073ffffffffffffffffffffffffffffffffffffffff82169050919050565b6000819050919050565b600060ff82169050919050565b600062000a528262000a59565b9050919050565b600062000a668262000a6d565b9050919050565b600062000a7a8262000a0e565b9050919050565b82818337600083830152505050565b60005b8381101562000ab057808201518184015260208101905062000a93565b8381111562000ac0576000848401525b50505050565b62000ad18262000ba7565b810181811067ffffffffffffffff8211171562000af35762000af262000b5a565b5b80604052505050565b7f4e487b7100000000000000000000000000000000000000000000000000000000600052601160045260246000fd5b7f4e487b7100000000000000000000000000000000000000000000000000000000600052603260045260246000fd5b7f4e487b7100000000000000000000000000000000000000000000000000000000600052604160045260246000fd5b600080fd5b600080fd5b600080fd5b600080fd5b600080fd5b600080fd5b6000601f19601f8301169050919050565b7f636f6e74726163742073697a652063616e6e6f74206265207a65726f00000000600082015250565b7f636f6e7472616374206e6f742063726561746564000000000000000000000000600082015250565b7f6d61696e74656e616e6365206d617267696e20726174652063616e6e6f74206260008201527f65207a65726f0000000000000000000000000000000000000000000000000000602082015250565b7f4372656174656400000000000000000000000000000000000000000000000000600082015250565b62000c8d8162000a2e565b811462000c9957600080fd5b50565b62000ca78162000a38565b811462000cb357600080fd5b5056fe60806040523480156200001157600080fd5b506040516200422c3803806200422c8339818101604052810190620000379190620002a3565b85600090805190602001906200004f92919062000147565b5084600190805190602001906200006892919062000147565b5083600260006101000a81548160ff021916908360ff1602179055508260038190555081600b60146101000a81548160ff021916908360ff16021790555080600b60156101000a81548160ff021916908360ff1602179055506000600260016101000a81548160ff02191690836003811115620000ea57620000e9620004e4565b5b02179055507faa7f6ea30e1ba480d45b98b3b903c55e2261e037d7b614e6164b23f23711d104600260009054906101000a900460ff16600354604051620001339291906200039f565b60405180910390a1505050505050620005ca565b828054620001559062000478565b90600052602060002090601f016020900481019282620001795760008555620001c5565b82601f106200019457805160ff1916838001178555620001c5565b82800160010185558215620001c5579182015b82811115620001c4578251825591602001919060010190620001a7565b5b509050620001d49190620001d8565b5090565b5b80821115620001f3576000816000905550600101620001d9565b5090565b60006200020e6200020884620003f5565b620003cc565b9050828152602081018484840111156200022d576200022c62000576565b5b6200023a84828562000442565b509392505050565b600082601f8301126200025a576200025962000571565b5b81516200026c848260208601620001f7565b91505092915050565b600081519050620002868162000596565b92915050565b6000815190506200029d81620005b0565b92915050565b60008060008060008060c08789031215620002c357620002c262000580565b5b600087015167ffffffffffffffff811115620002e457620002e36200057b565b5b620002f289828a0162000242565b965050602087015167ffffffffffffffff8111156200031657620003156200057b565b5b6200032489828a0162000242565b95505060406200033789828a016200028c565b94505060606200034a89828a0162000275565b93505060806200035d89828a016200028c565b92505060a06200037089828a016200028c565b9150509295509295509295565b62000388816200042b565b82525050565b620003998162000435565b82525050565b6000604082019050620003b660008301856200038e565b620003c560208301846200037d565b9392505050565b6000620003d8620003eb565b9050620003e68282620004ae565b919050565b6000604051905090565b600067ffffffffffffffff82111562000413576200041262000542565b5b6200041e8262000585565b9050602081019050919050565b6000819050919050565b600060ff82169050919050565b60005b838110156200046257808201518184015260208101905062000445565b8381111562000472576000848401525b50505050565b600060028204905060018216806200049157607f821691505b60208210811415620004a857620004a762000513565b5b50919050565b620004b98262000585565b810181811067ffffffffffffffff82111715620004db57620004da62000542565b5b80604052505050565b7f4e487b7100000000000000000000000000000000000000000000000000000000600052602160045260246000fd5b7f4e487b7100000000000000000000000000000000000000000000000000000000600052602260045260246000fd5b7f4e487b7100000000000000000000000000000000000000000000000000000000600052604160045260246000fd5b600080fd5b600080fd5b600080fd5b600080fd5b6000601f19601f8301169050919050565b620005a1816200042b565b8114620005ad57600080fd5b50565b620005bb8162000435565b8114620005c757600080fd5b50565b613c5280620005da6000396000f3fe60806040523480156200001157600080fd5b50600436106200016c5760003560e01c806385209ee011620000d5578063a98680581162000087578063a986805814620003ef578063b07976de1462000411578063b317f5ec1462000447578063c82ee7ab1462000469578063e5bee6de146200048b578063f0141d8414620004c1576200016c565b806385209ee0146200030f5780638543549114620003315780638c349eca14620003535780638d2d8c5e14620003755780638f896f501462000397578063923123b314620003cd576200016c565b80634bdcfab8116200012f5780634bdcfab8146200022f5780635edf7d8b1462000265578063708febc8146200028757806370a4cd3414620002a957806378f8f7d414620002cb5780637f4e484914620002ed576200016c565b80630a250623146200017157806315070401146200019357806317d7de7c14620001b55780633448f65914620001d757806347d3fa6d146200020d575b600080fd5b6200017b620004e3565b6040516200018a919062002071565b60405180910390f35b6200019d62000509565b604051620001ac9190620020ab565b60405180910390f35b620001bf620005a3565b604051620001ce9190620020ab565b60405180910390f35b620001f56004803603810190620001ef919062001ae8565b6200063d565b60405162000204919062002054565b60405180910390f35b6200021762000783565b60405162000226919062001f80565b60405180910390f35b6200024d600480360381019062000247919062001b8c565b620007ad565b6040516200025c919062002054565b60405180910390f35b6200026f62000ce8565b6040516200027e919062002267565b60405180910390f35b6200029162000cf2565b604051620002a0919062001f80565b60405180910390f35b620002b362000d1c565b604051620002c2919062002054565b60405180910390f35b620002d562000eea565b604051620002e4919062002054565b60405180910390f35b620002f7620011ca565b604051620003069190620020ab565b60405180910390f35b620003196200140b565b6040516200032891906200208e565b60405180910390f35b6200033b6200141e565b6040516200034a91906200234b565b60405180910390f35b6200035d62001435565b6040516200036c919062002071565b60405180910390f35b6200037f6200145b565b6040516200038e919062002267565b60405180910390f35b620003b56004803603810190620003af919062001b1a565b62001465565b604051620003c4919062002054565b60405180910390f35b620003d7620017f4565b604051620003e6919062002267565b60405180910390f35b620003f9620017fe565b60405162000408919062002267565b60405180910390f35b6200042f600480360381019062000429919062001c71565b6200180e565b6040516200043e919062001f80565b60405180910390f35b62000451620018b3565b60405162000460919062001f80565b60405180910390f35b62000473620018dd565b60405162000482919062001f80565b60405180910390f35b620004a96004803603810190620004a3919062001c71565b62001907565b604051620004b8919062001f80565b60405180910390f35b620004cb620019ac565b604051620004da91906200234b565b60405180910390f35b601160009054906101000a900473ffffffffffffffffffffffffffffffffffffffff1681565b6060600180546200051a906200270e565b80601f016020809104026020016040519081016040528092919081815260200182805462000548906200270e565b8015620005995780601f106200056d5761010080835404028352916020019162000599565b820191906000526020600020905b8154815290600101906020018083116200057b57829003601f168201915b5050505050905090565b606060008054620005b4906200270e565b80601f0160208091040260200160405190810160405280929190818152602001828054620005e2906200270e565b8015620006335780601f10620006075761010080835404028352916020019162000633565b820191906000526020600020905b8154815290600101906020018083116200061557829003601f168201915b5050505050905090565b600060016003811115620006565762000655620027a9565b5b600260019054906101000a900460ff1660038111156200067b576200067a620027a9565b5b14620006be576040517f08c379a0000000000000000000000000000000000000000000000000000000008152600401620006b59062002113565b60405180910390fd5b6000620006ce42600854620019c3565b1162000711576040517f08c379a0000000000000000000000000000000000000000000000000000000008152600401620007089062002179565b60405180910390fd5b6003600260016101000a81548160ff021916908360038111156200073a5762000739620027a9565b5b02179055507f724b99e866949401e1553ae6e0da07c7e24b0308581155730cbe34363752bd3f42836040516200077292919062002284565b60405180910390a160019050919050565b6000600460009054906101000a900473ffffffffffffffffffffffffffffffffffffffff16905090565b60008073ffffffffffffffffffffffffffffffffffffffff168873ffffffffffffffffffffffffffffffffffffffff16141562000821576040517f08c379a0000000000000000000000000000000000000000000000000000000008152600401620008189062002135565b60405180910390fd5b600073ffffffffffffffffffffffffffffffffffffffff168773ffffffffffffffffffffffffffffffffffffffff16141562000894576040517f08c379a00000000000000000000000000000000000000000000000000000000081526004016200088b90620020f1565b60405180910390fd5b8673ffffffffffffffffffffffffffffffffffffffff168873ffffffffffffffffffffffffffffffffffffffff16141562000906576040517f08c379a0000000000000000000000000000000000000000000000000000000008152600401620008fd90620020cf565b60405180910390fd5b600073ffffffffffffffffffffffffffffffffffffffff168373ffffffffffffffffffffffffffffffffffffffff16141562000979576040517f08c379a000000000000000000000000000000000000000000000000000000000815260040162000970906200219b565b60405180910390fd5b600073ffffffffffffffffffffffffffffffffffffffff168273ffffffffffffffffffffffffffffffffffffffff161415620009ec576040517f08c379a0000000000000000000000000000000000000000000000000000000008152600401620009e39062002201565b60405180910390fd5b8173ffffffffffffffffffffffffffffffffffffffff168373ffffffffffffffffffffffffffffffffffffffff16141562000a5e576040517f08c379a000000000000000000000000000000000000000000000000000000000815260040162000a559062002245565b60405180910390fd5b600062000a6c4286620019c3565b1162000aaf576040517f08c379a000000000000000000000000000000000000000000000000000000000815260040162000aa69062002157565b60405180910390fd5b87600460006101000a81548173ffffffffffffffffffffffffffffffffffffffff021916908373ffffffffffffffffffffffffffffffffffffffff16021790555086600560006101000a81548173ffffffffffffffffffffffffffffffffffffffff021916908373ffffffffffffffffffffffffffffffffffffffff16021790555085600681905550600654600c8190555084600760006101000a81548160ff021916908360ff1602179055508360088190555082600960006101000a81548173ffffffffffffffffffffffffffffffffffffffff021916908373ffffffffffffffffffffffffffffffffffffffff16021790555081600a60006101000a81548173ffffffffffffffffffffffffffffffffffffffff021916908373ffffffffffffffffffffffffffffffffffffffff1602179055506001600260016101000a81548160ff0219169083600381111562000c0e5762000c0d620027a9565b5b0217905550600560009054906101000a900473ffffffffffffffffffffffffffffffffffffffff1673ffffffffffffffffffffffffffffffffffffffff16600460009054906101000a900473ffffffffffffffffffffffffffffffffffffffff1673ffffffffffffffffffffffffffffffffffffffff167fe167e5abe88ec3070c89f7b0cb7c3bbfd41661105e276e6c44816ad932cfc913600654600760009054906101000a900460ff1660085460035460405162000cd19493929190620022fe565b60405180910390a360019050979650505050505050565b6000600854905090565b6000600a60009054906101000a900473ffffffffffffffffffffffffffffffffffffffff16905090565b60008062000d2d60085442620019c3565b101562000d71576040517f08c379a000000000000000000000000000000000000000000000000000000000815260040162000d689062002223565b60405180910390fd5b6001600381111562000d885762000d87620027a9565b5b600260019054906101000a900460ff16600381111562000dad5762000dac620027a9565b5b1462000df0576040517f08c379a000000000000000000000000000000000000000000000000000000000815260040162000de79062002113565b60405180910390fd5b600060035460065462000e04919062002567565b90506000600354600c5462000e1a919062002567565b90506000828262000e2c9190620025c8565b905060028060016101000a81548160ff0219169083600381111562000e565762000e55620027a9565b5b02179055507f408d2f82a05767182d614a96957816d6acbd66a392006f7aafee6d91fc880f90600460009054906101000a900473ffffffffffffffffffffffffffffffffffffffff16600560009054906101000a900473ffffffffffffffffffffffffffffffffffffffff166008548460405162000ed8949392919062002007565b60405180910390a16001935050505090565b60006001600381111562000f035762000f02620027a9565b5b600260019054906101000a900460ff16600381111562000f285762000f27620027a9565b5b1462000f6b576040517f08c379a000000000000000000000000000000000000000000000000000000000815260040162000f629062002113565b60405180910390fd5b600062000f7b42600854620019c3565b1162000fbe576040517f08c379a000000000000000000000000000000000000000000000000000000000815260040162000fb590620021df565b60405180910390fd5b600062000fca620017fe565b905060006003548262000fde919062002567565b90506000600354600c5462000ff4919062002567565b905060008183620010069190620025c8565b90506000811315620010885762001086600a60009054906101000a900473ffffffffffffffffffffffffffffffffffffffff16600960009054906101000a900473ffffffffffffffffffffffffffffffffffffffff1683600b60009054906101000a900473ffffffffffffffffffffffffffffffffffffffff1662001465565b505b6000811215620011355762001133600960009054906101000a900473ffffffffffffffffffffffffffffffffffffffff16600a60009054906101000a900473ffffffffffffffffffffffffffffffffffffffff16837fffffffffffffffffffffffffffffffffffffffffffffffffffffffffffffffff6200110a919062002440565b600b60009054906101000a900473ffffffffffffffffffffffffffffffffffffffff1662001465565b505b83600c819055507f63f10cc602ea66cf5c2a09a756a193c86ab46c33a794eb8d9aee6cf9426553a84282600460009054906101000a900473ffffffffffffffffffffffffffffffffffffffff16600560009054906101000a900473ffffffffffffffffffffffffffffffffffffffff16604051620011b79493929190620022b1565b60405180910390a1600194505050505090565b606060006003811115620011e357620011e2620027a9565b5b600260019054906101000a900460ff166003811115620012085762001207620027a9565b5b14156200124d576040518060400160405280600781526020017f4372656174656400000000000000000000000000000000000000000000000000815250905062001408565b60016003811115620012645762001263620027a9565b5b600260019054906101000a900460ff166003811115620012895762001288620027a9565b5b1415620012ce576040518060400160405280600981526020017f496e697469617465640000000000000000000000000000000000000000000000815250905062001408565b60026003811115620012e557620012e4620027a9565b5b600260019054906101000a900460ff1660038111156200130a5762001309620027a9565b5b14156200134f576040518060400160405280600781526020017f536574746c656400000000000000000000000000000000000000000000000000815250905062001408565b600380811115620013655762001364620027a9565b5b600260019054906101000a900460ff1660038111156200138a5762001389620027a9565b5b1415620013cf576040518060400160405280600981526020017f44656661756c7465640000000000000000000000000000000000000000000000815250905062001408565b6040518060400160405280600b81526020017f7374617465206572726f7200000000000000000000000000000000000000000081525090505b90565b600260019054906101000a900460ff1681565b6000600760009054906101000a900460ff16905090565b601260009054906101000a900473ffffffffffffffffffffffffffffffffffffffff1681565b6000600654905090565b600080859050600085905060008273ffffffffffffffffffffffffffffffffffffffff16632a1e15e730876040518363ffffffff1660e01b8152600401620014af92919062001f9d565b60206040518083038186803b158015620014c857600080fd5b505afa158015620014dd573d6000803e3d6000fd5b505050506040513d601f19601f8201168201806040525081019062001503919062001cc2565b9050858110156200154b576040517f08c379a00000000000000000000000000000000000000000000000000000000081526004016200154290620021bd565b60405180910390fd5b8273ffffffffffffffffffffffffffffffffffffffff166322604de28630896040518463ffffffff1660e01b81526004016200158a9392919062001fca565b600060405180830381600087803b158015620015a557600080fd5b505af1158015620015ba573d6000803e3d6000fd5b505050508473ffffffffffffffffffffffffffffffffffffffff166323b872dd8989896040518463ffffffff1660e01b8152600401620015fd9392919062001fca565b602060405180830381600087803b1580156200161857600080fd5b505af11580156200162d573d6000803e3d6000fd5b505050506040513d601f19601f8201168201806040525081019062001653919062001c3f565b50600086820390508373ffffffffffffffffffffffffffffffffffffffff1663dfeff6613088846040518463ffffffff1660e01b81526004016200169a9392919062001fca565b600060405180830381600087803b158015620016b557600080fd5b505af1158015620016ca573d6000803e3d6000fd5b50505050506000868373ffffffffffffffffffffffffffffffffffffffff16632a1e15e730896040518363ffffffff1660e01b81526004016200170f92919062001f9d565b60206040518083038186803b1580156200172857600080fd5b505afa1580156200173d573d6000803e3d6000fd5b505050506040513d601f19601f8201168201806040525081019062001763919062001cc2565b6200176f9190620023e3565b90508273ffffffffffffffffffffffffffffffffffffffff1663dfeff6613088846040518463ffffffff1660e01b8152600401620017b09392919062001fca565b600060405180830381600087803b158015620017cb57600080fd5b505af1158015620017e0573d6000803e3d6000fd5b505050506001945050505050949350505050565b6000600354905090565b600042600d8190555060f3905090565b6000816040516200181f90620019e9565b6200182b9190620020ab565b604051809103906000f08015801562001848573d6000803e3d6000fd5b50601160006101000a81548173ffffffffffffffffffffffffffffffffffffffff021916908373ffffffffffffffffffffffffffffffffffffffff160217905550601160009054906101000a900473ffffffffffffffffffffffffffffffffffffffff169050919050565b6000600560009054906101000a900473ffffffffffffffffffffffffffffffffffffffff16905090565b6000600960009054906101000a900473ffffffffffffffffffffffffffffffffffffffff16905090565b6000816040516200191890620019e9565b620019249190620020ab565b604051809103906000f08015801562001941573d6000803e3d6000fd5b50601260006101000a81548173ffffffffffffffffffffffffffffffffffffffff021916908373ffffffffffffffffffffffffffffffffffffffff160217905550601260009054906101000a900473ffffffffffffffffffffffffffffffffffffffff169050919050565b6000600260009054906101000a900460ff16905090565b600081831115620019d357600080fd5b8282620019e19190620025c8565b905092915050565b610fda8062002c4383390190565b600062001a0e62001a088462002391565b62002368565b90508281526020810184848401111562001a2d5762001a2c6200283b565b5b62001a3a848285620026c9565b509392505050565b60008135905062001a538162002bda565b92915050565b60008151905062001a6a8162002bf4565b92915050565b600082601f83011262001a885762001a8762002836565b5b813562001a9a848260208601620019f7565b91505092915050565b60008135905062001ab48162002c0e565b92915050565b60008151905062001acb8162002c0e565b92915050565b60008135905062001ae28162002c28565b92915050565b60006020828403121562001b015762001b0062002845565b5b600062001b118482850162001a42565b91505092915050565b6000806000806080858703121562001b375762001b3662002845565b5b600062001b478782880162001a42565b945050602062001b5a8782880162001a42565b935050604062001b6d8782880162001aa3565b925050606062001b808782880162001a42565b91505092959194509250565b600080600080600080600060e0888a03121562001bae5762001bad62002845565b5b600062001bbe8a828b0162001a42565b975050602062001bd18a828b0162001a42565b965050604062001be48a828b0162001aa3565b955050606062001bf78a828b0162001ad1565b945050608062001c0a8a828b0162001aa3565b93505060a062001c1d8a828b0162001a42565b92505060c062001c308a828b0162001a42565b91505092959891949750929550565b60006020828403121562001c585762001c5762002845565b5b600062001c688482850162001a59565b91505092915050565b60006020828403121562001c8a5762001c8962002845565b5b600082013567ffffffffffffffff81111562001cab5762001caa62002840565b5b62001cb98482850162001a70565b91505092915050565b60006020828403121562001cdb5762001cda62002845565b5b600062001ceb8482850162001aba565b91505092915050565b62001cff8162002603565b82525050565b62001d108162002617565b82525050565b62001d218162002679565b82525050565b62001d32816200268d565b82525050565b62001d438162002638565b82525050565b600062001d5682620023c7565b62001d628185620023d2565b935062001d74818560208601620026d8565b62001d7f816200284a565b840191505092915050565b600062001d99602283620023d2565b915062001da6826200285b565b604082019050919050565b600062001dc0601b83620023d2565b915062001dcd82620028aa565b602082019050919050565b600062001de7602583620023d2565b915062001df482620028d3565b604082019050919050565b600062001e0e601a83620023d2565b915062001e1b8262002922565b602082019050919050565b600062001e35602883620023d2565b915062001e42826200294b565b604082019050919050565b600062001e5c602c83620023d2565b915062001e69826200299a565b604082019050919050565b600062001e83602483620023d2565b915062001e9082620029e9565b604082019050919050565b600062001eaa602183620023d2565b915062001eb78262002a38565b604082019050919050565b600062001ed1602883620023d2565b915062001ede8262002a87565b604082019050919050565b600062001ef8602583620023d2565b915062001f058262002ad6565b604082019050919050565b600062001f1f602f83620023d2565b915062001f2c8262002b25565b604082019050919050565b600062001f46602983620023d2565b915062001f538262002b74565b604082019050919050565b62001f698162002662565b82525050565b62001f7a816200266c565b82525050565b600060208201905062001f97600083018462001cf4565b92915050565b600060408201905062001fb4600083018562001cf4565b62001fc3602083018462001cf4565b9392505050565b600060608201905062001fe1600083018662001cf4565b62001ff0602083018562001cf4565b62001fff604083018462001f5e565b949350505050565b60006080820190506200201e600083018762001cf4565b6200202d602083018662001cf4565b6200203c604083018562001f5e565b6200204b606083018462001d38565b95945050505050565b60006020820190506200206b600083018462001d05565b92915050565b600060208201905062002088600083018462001d16565b92915050565b6000602082019050620020a5600083018462001d27565b92915050565b60006020820190508181036000830152620020c7818462001d49565b905092915050565b60006020820190508181036000830152620020ea8162001d8a565b9050919050565b600060208201905081810360008301526200210c8162001db1565b9050919050565b600060208201905081810360008301526200212e8162001dd8565b9050919050565b60006020820190508181036000830152620021508162001dff565b9050919050565b60006020820190508181036000830152620021728162001e26565b9050919050565b60006020820190508181036000830152620021948162001e4d565b9050919050565b60006020820190508181036000830152620021b68162001e74565b9050919050565b60006020820190508181036000830152620021d88162001e9b565b9050919050565b60006020820190508181036000830152620021fa8162001ec2565b9050919050565b600060208201905081810360008301526200221c8162001ee9565b9050919050565b600060208201905081810360008301526200223e8162001f10565b9050919050565b60006020820190508181036000830152620022608162001f37565b9050919050565b60006020820190506200227e600083018462001f5e565b92915050565b60006040820190506200229b600083018562001f5e565b620022aa602083018462001cf4565b9392505050565b6000608082019050620022c8600083018762001f5e565b620022d7602083018662001d38565b620022e6604083018562001cf4565b620022f5606083018462001cf4565b95945050505050565b600060808201905062002315600083018762001f5e565b62002324602083018662001f6f565b62002333604083018562001f5e565b62002342606083018462001f5e565b95945050505050565b600060208201905062002362600083018462001f6f565b92915050565b60006200237462002387565b905062002382828262002744565b919050565b6000604051905090565b600067ffffffffffffffff821115620023af57620023ae62002807565b5b620023ba826200284a565b9050602081019050919050565b600081519050919050565b600082825260208201905092915050565b6000620023f08262002662565b9150620023fd8362002662565b9250827fffffffffffffffffffffffffffffffffffffffffffffffffffffffffffffffff038211156200243557620024346200277a565b5b828201905092915050565b60006200244d8262002638565b91506200245a8362002638565b9250827f7fffffffffffffffffffffffffffffffffffffffffffffffffffffffffffffff04821160008413600084131616156200249c576200249b6200277a565b5b817f80000000000000000000000000000000000000000000000000000000000000000583126000841260008413161615620024dc57620024db6200277a565b5b827f800000000000000000000000000000000000000000000000000000000000000005821260008413600084121616156200251c576200251b6200277a565b5b827f7fffffffffffffffffffffffffffffffffffffffffffffffffffffffffffffff05821260008412600084121616156200255c576200255b6200277a565b5b828202905092915050565b6000620025748262002662565b9150620025818362002662565b9250817fffffffffffffffffffffffffffffffffffffffffffffffffffffffffffffffff0483118215151615620025bd57620025bc6200277a565b5b828202905092915050565b6000620025d58262002662565b9150620025e28362002662565b925082821015620025f857620025f76200277a565b5b828203905092915050565b6000620026108262002642565b9050919050565b60008115159050919050565b6000819050620026338262002bc3565b919050565b6000819050919050565b600073ffffffffffffffffffffffffffffffffffffffff82169050919050565b6000819050919050565b600060ff82169050919050565b60006200268682620026a1565b9050919050565b60006200269a8262002623565b9050919050565b6000620026ae82620026b5565b9050919050565b6000620026c28262002642565b9050919050565b82818337600083830152505050565b60005b83811015620026f8578082015181840152602081019050620026db565b8381111562002708576000848401525b50505050565b600060028204905060018216806200272757607f821691505b602082108114156200273e576200273d620027d8565b5b50919050565b6200274f826200284a565b810181811067ffffffffffffffff8211171562002771576200277062002807565b5b80604052505050565b7f4e487b7100000000000000000000000000000000000000000000000000000000600052601160045260246000fd5b7f4e487b7100000000000000000000000000000000000000000000000000000000600052602160045260246000fd5b7f4e487b7100000000000000000000000000000000000000000000000000000000600052602260045260246000fd5b7f4e487b7100000000000000000000000000000000000000000000000000000000600052604160045260246000fd5b600080fd5b600080fd5b600080fd5b600080fd5b6000601f19601f8301169050919050565b7f4c6f6e6720616e642073686f72742063616e27742062652073616d652070617260008201527f7479000000000000000000000000000000000000000000000000000000000000602082015250565b7f53686f72742063616e2774206265207a65726f20616464726573730000000000600082015250565b7f436f6e74726163742068617320746f20626520696e20496e697469617465642060008201527f7374617465000000000000000000000000000000000000000000000000000000602082015250565b7f4c6f6e672063616e2774206265207a65726f2061646472657373000000000000600082015250565b7f46464120636f6e74726163742068617320746f2065787069726520696e20746860008201527f6520667574757265000000000000000000000000000000000000000000000000602082015250565b7f44656661756c74696e672063616e206f6e6c792068617070656e206265666f7260008201527f652065787069726174696f6e0000000000000000000000000000000000000000602082015250565b7f4c6f6e672077616c6c65742063616e6e6f742068617665207a65726f2061646460008201527f7265737300000000000000000000000000000000000000000000000000000000602082015250565b7f636f6c6c61746572616c2062616c616e6365206e6f742073756666696369656e60008201527f7400000000000000000000000000000000000000000000000000000000000000602082015250565b7f4d20746f206d2063616e206f6e6c792068617070656e206265666f726520657860008201527f7069726174696f6e000000000000000000000000000000000000000000000000602082015250565b7f53686f72742077616c6c65742063616e6e6f742068617665207a65726f20616460008201527f6472657373000000000000000000000000000000000000000000000000000000602082015250565b7f536574746c656d656e742063616e6e6f74206f6363757265206265666f72652060008201527f65787069726174696f6e20646174650000000000000000000000000000000000602082015250565b7f6c6f6e6720616e642073686f72742077616c6c6574732063616e6e6f7420626560008201527f207468652073616d650000000000000000000000000000000000000000000000602082015250565b6004811062002bd75762002bd6620027a9565b5b50565b62002be58162002603565b811462002bf157600080fd5b50565b62002bff8162002617565b811462002c0b57600080fd5b50565b62002c198162002662565b811462002c2557600080fd5b50565b62002c33816200266c565b811462002c3f57600080fd5b5056fe60806040523480156200001157600080fd5b5060405162000fda38038062000fda83398181016040528101906200003791906200028c565b60008060006101000a81548160ff02191690831515021790555062000071620000656200009160201b60201c565b6200009960201b60201c565b8060019080519060200190620000899291906200015e565b505062000461565b600033905090565b60008060019054906101000a900473ffffffffffffffffffffffffffffffffffffffff16905081600060016101000a81548173ffffffffffffffffffffffffffffffffffffffff021916908373ffffffffffffffffffffffffffffffffffffffff1602179055508173ffffffffffffffffffffffffffffffffffffffff168173ffffffffffffffffffffffffffffffffffffffff167f8be0079c531659141344cd1fd0a4f28419497f9722a3daafe3b4186f6b6457e060405160405180910390a35050565b8280546200016c9062000372565b90600052602060002090601f016020900481019282620001905760008555620001dc565b82601f10620001ab57805160ff1916838001178555620001dc565b82800160010185558215620001dc579182015b82811115620001db578251825591602001919060010190620001be565b5b509050620001eb9190620001ef565b5090565b5b808211156200020a576000816000905550600101620001f0565b5090565b6000620002256200021f8462000306565b620002dd565b90508281526020810184848401111562000244576200024362000441565b5b620002518482856200033c565b509392505050565b600082601f8301126200027157620002706200043c565b5b8151620002838482602086016200020e565b91505092915050565b600060208284031215620002a557620002a46200044b565b5b600082015167ffffffffffffffff811115620002c657620002c562000446565b5b620002d48482850162000259565b91505092915050565b6000620002e9620002fc565b9050620002f78282620003a8565b919050565b6000604051905090565b600067ffffffffffffffff8211156200032457620003236200040d565b5b6200032f8262000450565b9050602081019050919050565b60005b838110156200035c5780820151818401526020810190506200033f565b838111156200036c576000848401525b50505050565b600060028204905060018216806200038b57607f821691505b60208210811415620003a257620003a1620003de565b5b50919050565b620003b38262000450565b810181811067ffffffffffffffff82111715620003d557620003d46200040d565b5b80604052505050565b7f4e487b7100000000000000000000000000000000000000000000000000000000600052602260045260246000fd5b7f4e487b7100000000000000000000000000000000000000000000000000000000600052604160045260246000fd5b600080fd5b600080fd5b600080fd5b600080fd5b6000601f19601f8301169050919050565b610b6980620004716000396000f3fe608060405234801561001057600080fd5b50600436106100885760003560e01c8063715018a61161005b578063715018a6146101155780638da5cb5b1461011f578063dfeff6611461013d578063f2fde38b1461015957610088565b806317d7de7c1461008d57806322604de2146100ab5780632a1e15e7146100c75780635c975abb146100f7575b600080fd5b610095610175565b6040516100a291906108eb565b60405180910390f35b6100c560048036038101906100c09190610760565b610207565b005b6100e160048036038101906100dc9190610720565b61029a565b6040516100ee919061094d565b60405180910390f35b6100ff610321565b60405161010c91906108d0565b60405180910390f35b61011d610337565b005b6101276103bf565b604051610134919061088c565b60405180910390f35b61015760048036038101906101529190610760565b6103e8565b005b610173600480360381019061016e91906106f3565b6104ef565b005b606060018054610184906109ff565b80601f01602080910402602001604051908101604052809291908181526020018280546101b0906109ff565b80156101fd5780601f106101d2576101008083540402835291602001916101fd565b820191906000526020600020905b8154815290600101906020018083116101e057829003601f168201915b5050505050905090565b8273ffffffffffffffffffffffffffffffffffffffff1663095ea7b383836040518363ffffffff1660e01b81526004016102429291906108a7565b602060405180830381600087803b15801561025c57600080fd5b505af1158015610270573d6000803e3d6000fd5b505050506040513d601f19601f8201168201806040525081019061029491906107b3565b50505050565b6000600260008473ffffffffffffffffffffffffffffffffffffffff1673ffffffffffffffffffffffffffffffffffffffff16815260200190815260200160002060008373ffffffffffffffffffffffffffffffffffffffff1673ffffffffffffffffffffffffffffffffffffffff16815260200190815260200160002054905092915050565b60008060009054906101000a900460ff16905090565b61033f6105e7565b73ffffffffffffffffffffffffffffffffffffffff1661035d6103bf565b73ffffffffffffffffffffffffffffffffffffffff16146103b3576040517f08c379a00000000000000000000000000000000000000000000000000000000081526004016103aa9061092d565b60405180910390fd5b6103bd60006105ef565b565b60008060019054906101000a900473ffffffffffffffffffffffffffffffffffffffff16905090565b80600260008573ffffffffffffffffffffffffffffffffffffffff1673ffffffffffffffffffffffffffffffffffffffff16815260200190815260200160002060008473ffffffffffffffffffffffffffffffffffffffff1673ffffffffffffffffffffffffffffffffffffffff1681526020019081526020016000208190555080600360008473ffffffffffffffffffffffffffffffffffffffff1673ffffffffffffffffffffffffffffffffffffffff16815260200190815260200160002060008573ffffffffffffffffffffffffffffffffffffffff1673ffffffffffffffffffffffffffffffffffffffff16815260200190815260200160002081905550505050565b6104f76105e7565b73ffffffffffffffffffffffffffffffffffffffff166105156103bf565b73ffffffffffffffffffffffffffffffffffffffff161461056b576040517f08c379a00000000000000000000000000000000000000000000000000000000081526004016105629061092d565b60405180910390fd5b600073ffffffffffffffffffffffffffffffffffffffff168173ffffffffffffffffffffffffffffffffffffffff1614156105db576040517f08c379a00000000000000000000000000000000000000000000000000000000081526004016105d29061090d565b60405180910390fd5b6105e4816105ef565b50565b600033905090565b60008060019054906101000a900473ffffffffffffffffffffffffffffffffffffffff16905081600060016101000a81548173ffffffffffffffffffffffffffffffffffffffff021916908373ffffffffffffffffffffffffffffffffffffffff1602179055508173ffffffffffffffffffffffffffffffffffffffff168173ffffffffffffffffffffffffffffffffffffffff167f8be0079c531659141344cd1fd0a4f28419497f9722a3daafe3b4186f6b6457e060405160405180910390a35050565b6000813590506106c381610aee565b92915050565b6000815190506106d881610b05565b92915050565b6000813590506106ed81610b1c565b92915050565b60006020828403121561070957610708610a60565b5b6000610717848285016106b4565b91505092915050565b6000806040838503121561073757610736610a60565b5b6000610745858286016106b4565b9250506020610756858286016106b4565b9150509250929050565b60008060006060848603121561077957610778610a60565b5b6000610787868287016106b4565b9350506020610798868287016106b4565b92505060406107a9868287016106de565b9150509250925092565b6000602082840312156107c9576107c8610a60565b5b60006107d7848285016106c9565b91505092915050565b6107e981610984565b82525050565b6107f881610996565b82525050565b600061080982610968565b6108138185610973565b93506108238185602086016109cc565b61082c81610a65565b840191505092915050565b6000610844602683610973565b915061084f82610a76565b604082019050919050565b6000610867602083610973565b915061087282610ac5565b602082019050919050565b610886816109c2565b82525050565b60006020820190506108a160008301846107e0565b92915050565b60006040820190506108bc60008301856107e0565b6108c9602083018461087d565b9392505050565b60006020820190506108e560008301846107ef565b92915050565b6000602082019050818103600083015261090581846107fe565b905092915050565b6000602082019050818103600083015261092681610837565b9050919050565b600060208201905081810360008301526109468161085a565b9050919050565b6000602082019050610962600083018461087d565b92915050565b600081519050919050565b600082825260208201905092915050565b600061098f826109a2565b9050919050565b60008115159050919050565b600073ffffffffffffffffffffffffffffffffffffffff82169050919050565b6000819050919050565b60005b838110156109ea5780820151818401526020810190506109cf565b838111156109f9576000848401525b50505050565b60006002820490506001821680610a1757607f821691505b60208210811415610a2b57610a2a610a31565b5b50919050565b7f4e487b7100000000000000000000000000000000000000000000000000000000600052602260045260246000fd5b600080fd5b6000601f19601f8301169050919050565b7f4f776e61626c653a206e6577206f776e657220697320746865207a65726f206160008201527f6464726573730000000000000000000000000000000000000000000000000000602082015250565b7f4f776e61626c653a2063616c6c6572206973206e6f7420746865206f776e6572600082015250565b610af781610984565b8114610b0257600080fd5b50565b610b0e81610996565b8114610b1957600080fd5b50565b610b25816109c2565b8114610b3057600080fd5b5056fea264697066735822122005658b317cfe526aa50f9bbd55698715c45900d0033ee97f714fb91e596191c864736f6c63430008070033a2646970667358221220e0c6882e2da69c106e0b26e203b5dd04a595972522f0de3e08381e7e05dbb45a64736f6c63430008070033a2646970667358221220e06ddd7d2bd4dd3b9aad86a41a380f27f143079cd7e0fe06a273094a703d24b764736f6c63430008070033",
  "immutableReferences": {},
  "source": "// SPDX-License-Identifier: UNLICENSED\r\n\r\npragma solidity ^0.8.6;\r\n\r\nimport \"@openzeppelin/contracts/access/Ownable.sol\";\r\nimport \"@openzeppelin/contracts/token/ERC20/IERC20.sol\";\r\nimport \"@openzeppelin/contracts/token/ERC20/utils/SafeERC20.sol\";\r\nimport \"./FFAContract.sol\";\r\n\r\ncontract FFAFactory {\r\n    using SafeERC20 for IERC20;\r\n\r\n    //hold address of FFA contracts\r\n    address[] private ffaContracts;\r\n\r\n    event Created(string name, string symbol, uint256 sizeOfContract, uint8 initialMarginRate, uint8 maintenanceMarginRate);\r\n\r\n    function createFFAContract(\r\n        string calldata name, \r\n        string calldata symbol, \r\n        //address oracleAddress,\r\n        //bytes32 jobId, \r\n        uint8 decimals,\r\n        uint256 sizeOfContract, \r\n        uint8 exposureMarginRate,//scaled 1/100 for fixed-point arithemtics\r\n        uint8 maintenanceMarginRate//scaled 1/100 for fixed-point arithemtics\r\n        ) \r\n        external returns (address ffaContractAddress_) {\r\n            \r\n            //require (oracleAddress != address(0), \"oracle address cannot be zero address\");\r\n            //require(jobId != \"\", \"jobId cannot be empty string\");\r\n            require(sizeOfContract > 0, \"contract size cannot be zero\");\r\n            require(maintenanceMarginRate >0, \"maintenance margin rate cannot be zero\");\r\n\r\n            \r\n            ffaContractAddress_ = address(new FFAContract(name, symbol, decimals, sizeOfContract, exposureMarginRate, maintenanceMarginRate));\r\n            require(keccak256(abi.encodePacked(FFAContract(ffaContractAddress_).getContractState())) == keccak256(abi.encodePacked(\"Created\")), \"contract not created\");\r\n            ffaContracts.push(ffaContractAddress_);\r\n            uint8 initialMarginRate = exposureMarginRate + maintenanceMarginRate;\r\n            emit Created(name, symbol, sizeOfContract, initialMarginRate, maintenanceMarginRate);\r\n    }\r\n\r\n    function getFFAContract(uint256 index) external view returns(FFAContract) {\r\n        return FFAContract(ffaContracts[index]);\r\n    }\r\n}\r\n\r\n//Dennis notes:\r\n//query the state of the contract whether it's created\r\n            //no gas cost\r\n            //try catch - expect error and have specific plan to unwind system\r\n            // - heuristic call\r\n            //may or may not have direct control over what we are calling\r\n            //deal with 3rd party errors\r\n            //solidty added try-catch blocks for contract calls because they can be heuristic\r\n            //heuristic - range of things that go wrong\r\n            //if you have to try cath you dont try catch for internal server error\r\n            //in smart contract htings are heuristic - latency of network may fail for variety of reasons\r\n            //smart contracts don't make outside calls for this heuristic problem -> this is why chainlink is great\r\n            //this is why try catch was introduced\r\n            //destructor - sufficiently cleanup the object, nested, orpahns etc...\r\n            //\"try catch finally\" - tried event caught error, for any other error finally execute this",
  "sourcePath": "C:\\Users\\Tomi\\OneDrive - The University of Chicago\\Documents\\Securrency\\FuturesExchange\\contracts\\FFAFactory.sol",
  "compiler": {
    "name": "solc",
    "version": "0.8.7+commit.e28d00a7.Emscripten.clang"
  },
  "schemaVersion": "3.4.2",
  "updatedAt": "2021-08-22T20:27:46.272Z",
  "devdoc": {
    "kind": "dev",
    "methods": {},
    "version": 1
  },
  "userdoc": {
    "kind": "user",
    "methods": {},
    "version": 1
  }
}