{
  "contractName": "FFAFactory",
  "abi": [
    {
      "anonymous": false,
      "inputs": [
        {
          "indexed": false,
          "internalType": "address",
          "name": "oracleAddress",
          "type": "address"
        },
        {
          "indexed": false,
          "internalType": "bytes32",
          "name": "jobId",
          "type": "bytes32"
        },
        {
          "indexed": false,
          "internalType": "uint8",
          "name": "decimals",
          "type": "uint8"
        },
        {
          "indexed": false,
          "internalType": "uint256",
          "name": "sizeOfContract",
          "type": "uint256"
        }
      ],
      "name": "Created",
      "type": "event"
    },
    {
      "inputs": [
        {
          "internalType": "string",
          "name": "_name",
          "type": "string"
        },
        {
          "internalType": "string",
          "name": "_symbol",
          "type": "string"
        },
        {
          "internalType": "bytes32",
          "name": "_jobId",
          "type": "bytes32"
        },
        {
          "internalType": "uint8",
          "name": "_decimals",
          "type": "uint8"
        },
        {
          "internalType": "uint256",
          "name": "_sizeOfContract",
          "type": "uint256"
        }
      ],
      "name": "createFFAContract",
      "outputs": [
        {
          "internalType": "address",
          "name": "ffaContractAddress_",
          "type": "address"
        }
      ],
      "stateMutability": "nonpayable",
      "type": "function"
    },
    {
      "inputs": [
        {
          "internalType": "uint256",
          "name": "index",
          "type": "uint256"
        }
      ],
      "name": "getFFAContract",
      "outputs": [
        {
          "internalType": "contract FFAContract",
          "name": "",
          "type": "address"
        }
      ],
      "stateMutability": "view",
      "type": "function",
      "constant": true
    }
  ],
  "bytecode": "0x6080604052732f90a6d021db21e1b2a077c5a37b3c7e75d15b7e600160006101000a81548173ffffffffffffffffffffffffffffffffffffffff021916908373ffffffffffffffffffffffffffffffffffffffff16021790555034801561006557600080fd5b50612899806100756000396000f3fe60806040523480156200001157600080fd5b50600436106200003a5760003560e01c806304428db5146200003f578063d058bd931462000075575b600080fd5b6200005d600480360381019062000057919062000555565b620000ab565b6040516200006c919062000832565b60405180910390f35b6200009360048036038101906200008d919062000675565b620003db565b604051620000a291906200089c565b60405180910390f35b60008073ffffffffffffffffffffffffffffffffffffffff16600160009054906101000a900473ffffffffffffffffffffffffffffffffffffffff1673ffffffffffffffffffffffffffffffffffffffff16141562000141576040517f08c379a000000000000000000000000000000000000000000000000000000000815260040162000138906200095a565b60405180910390fd5b600084141562000188576040517f08c379a00000000000000000000000000000000000000000000000000000000081526004016200017f906200097c565b60405180910390fd5b87878787600160009054906101000a900473ffffffffffffffffffffffffffffffffffffffff16888888604051620001c09062000425565b620001d3989796959493929190620008b9565b604051809103906000f080158015620001f0573d6000803e3d6000fd5b50905060405160200162000204906200081b565b604051602081830303815290604052805190602001208173ffffffffffffffffffffffffffffffffffffffff16637f4e48496040518163ffffffff1660e01b815260040160006040518083038186803b1580156200026157600080fd5b505afa15801562000276573d6000803e3d6000fd5b505050506040513d6000823e3d601f19601f82011682018060405250810190620002a1919062000624565b604051602001620002b3919062000802565b60405160208183030381529060405280519060200120146200030c576040517f08c379a0000000000000000000000000000000000000000000000000000000008152600401620003039062000938565b60405180910390fd5b6000819080600181540180825580915050600190039060005260206000200160009091909190916101000a81548173ffffffffffffffffffffffffffffffffffffffff021916908373ffffffffffffffffffffffffffffffffffffffff1602179055507f0afa8d0777f4cc44de30a86b67ed2a59baf2916963f65de8ee0066d6da0a438d600160009054906101000a900473ffffffffffffffffffffffffffffffffffffffff16858585604051620003c894939291906200084f565b60405180910390a1979650505050505050565b6000808281548110620003f357620003f262000b1c565b5b9060005260206000200160009054906101000a900473ffffffffffffffffffffffffffffffffffffffff169050919050565b611ba28062000cc283390190565b60006200044a6200044484620009c7565b6200099e565b90508281526020810184848401111562000469576200046862000b89565b5b6200047684828562000ab0565b509392505050565b6000813590506200048f8162000c73565b92915050565b60008083601f840112620004ae57620004ad62000b7f565b5b8235905067ffffffffffffffff811115620004ce57620004cd62000b7a565b5b602083019150836001820283011115620004ed57620004ec62000b84565b5b9250929050565b600082601f8301126200050c576200050b62000b7f565b5b81516200051e84826020860162000433565b91505092915050565b600081359050620005388162000c8d565b92915050565b6000813590506200054f8162000ca7565b92915050565b600080600080600080600060a0888a03121562000577576200057662000b93565b5b600088013567ffffffffffffffff81111562000598576200059762000b8e565b5b620005a68a828b0162000495565b9750975050602088013567ffffffffffffffff811115620005cc57620005cb62000b8e565b5b620005da8a828b0162000495565b95509550506040620005ef8a828b016200047e565b9350506060620006028a828b016200053e565b9250506080620006158a828b0162000527565b91505092959891949750929550565b6000602082840312156200063d576200063c62000b93565b5b600082015167ffffffffffffffff8111156200065e576200065d62000b8e565b5b6200066c84828501620004f4565b91505092915050565b6000602082840312156200068e576200068d62000b93565b5b60006200069e8482850162000527565b91505092915050565b620006b28162000a24565b82525050565b620006c38162000a38565b82525050565b620006d48162000a79565b82525050565b6000620006e8838562000a08565b9350620006f783858462000aa1565b620007028362000b98565b840190509392505050565b60006200071a82620009fd565b62000726818562000a19565b93506200073881856020860162000ab0565b80840191505092915050565b60006200075360148362000a08565b9150620007608262000ba9565b602082019050919050565b60006200077a60258362000a08565b9150620007878262000bd2565b604082019050919050565b6000620007a1601c8362000a08565b9150620007ae8262000c21565b602082019050919050565b6000620007c860078362000a19565b9150620007d58262000c4a565b600782019050919050565b620007eb8162000a62565b82525050565b620007fc8162000a6c565b82525050565b60006200081082846200070d565b915081905092915050565b60006200082882620007b9565b9150819050919050565b6000602082019050620008496000830184620006a7565b92915050565b6000608082019050620008666000830187620006a7565b620008756020830186620006b8565b620008846040830185620007f1565b620008936060830184620007e0565b95945050505050565b6000602082019050620008b36000830184620006c9565b92915050565b600060c0820190508181036000830152620008d6818a8c620006da565b90508181036020830152620008ed81888a620006da565b9050620008fe6040830187620006a7565b6200090d6060830186620006b8565b6200091c6080830185620007f1565b6200092b60a0830184620007e0565b9998505050505050505050565b60006020820190508181036000830152620009538162000744565b9050919050565b6000602082019050818103600083015262000975816200076b565b9050919050565b60006020820190508181036000830152620009978162000792565b9050919050565b6000620009aa620009bd565b9050620009b8828262000ae6565b919050565b6000604051905090565b600067ffffffffffffffff821115620009e557620009e462000b4b565b5b620009f08262000b98565b9050602081019050919050565b600081519050919050565b600082825260208201905092915050565b600081905092915050565b600062000a318262000a42565b9050919050565b6000819050919050565b600073ffffffffffffffffffffffffffffffffffffffff82169050919050565b6000819050919050565b600060ff82169050919050565b600062000a868262000a8d565b9050919050565b600062000a9a8262000a42565b9050919050565b82818337600083830152505050565b60005b8381101562000ad057808201518184015260208101905062000ab3565b8381111562000ae0576000848401525b50505050565b62000af18262000b98565b810181811067ffffffffffffffff8211171562000b135762000b1262000b4b565b5b80604052505050565b7f4e487b7100000000000000000000000000000000000000000000000000000000600052603260045260246000fd5b7f4e487b7100000000000000000000000000000000000000000000000000000000600052604160045260246000fd5b600080fd5b600080fd5b600080fd5b600080fd5b600080fd5b600080fd5b6000601f19601f8301169050919050565b7f636f6e7472616374206e6f742063726561746564000000000000000000000000600082015250565b7f6f7261636c6520616464726573732063616e6e6f74206265207a65726f20616460008201527f6472657373000000000000000000000000000000000000000000000000000000602082015250565b7f6a6f6249642063616e6e6f7420626520656d70747920737472696e6700000000600082015250565b7f4372656174656400000000000000000000000000000000000000000000000000600082015250565b62000c7e8162000a38565b811462000c8a57600080fd5b50565b62000c988162000a62565b811462000ca457600080fd5b50565b62000cb28162000a6c565b811462000cbe57600080fd5b5056fe60806040523480156200001157600080fd5b5060405162001ba238038062001ba2833981810160405281019062000037919062000297565b85600090805190602001906200004f9291906200010d565b508460019080519060200190620000689291906200010d565b5083600f60006101000a81548173ffffffffffffffffffffffffffffffffffffffff021916908373ffffffffffffffffffffffffffffffffffffffff1602179055508260108190555081600260006101000a81548160ff021916908360ff160217905550806003819055506000600260016101000a81548160ff02191690836003811115620000fc57620000fb620004c7565b5b0217905550505050505050620005e1565b8280546200011b906200045b565b90600052602060002090601f0160209004810192826200013f57600085556200018b565b82601f106200015a57805160ff19168380011785556200018b565b828001600101855582156200018b579182015b828111156200018a5782518255916020019190600101906200016d565b5b5090506200019a91906200019e565b5090565b5b80821115620001b95760008160009055506001016200019f565b5090565b6000620001d4620001ce846200039a565b62000371565b905082815260208101848484011115620001f357620001f262000559565b5b6200020084828562000425565b509392505050565b600081519050620002198162000579565b92915050565b600081519050620002308162000593565b92915050565b600082601f8301126200024e576200024d62000554565b5b815162000260848260208601620001bd565b91505092915050565b6000815190506200027a81620005ad565b92915050565b6000815190506200029181620005c7565b92915050565b60008060008060008060c08789031215620002b757620002b662000563565b5b600087015167ffffffffffffffff811115620002d857620002d76200055e565b5b620002e689828a0162000236565b965050602087015167ffffffffffffffff8111156200030a57620003096200055e565b5b6200031889828a0162000236565b95505060406200032b89828a0162000208565b94505060606200033e89828a016200021f565b93505060806200035189828a0162000280565b92505060a06200036489828a0162000269565b9150509295509295509295565b60006200037d62000390565b90506200038b828262000491565b919050565b6000604051905090565b600067ffffffffffffffff821115620003b857620003b762000525565b5b620003c38262000568565b9050602081019050919050565b6000620003dd82620003ee565b9050919050565b6000819050919050565b600073ffffffffffffffffffffffffffffffffffffffff82169050919050565b6000819050919050565b600060ff82169050919050565b60005b838110156200044557808201518184015260208101905062000428565b8381111562000455576000848401525b50505050565b600060028204905060018216806200047457607f821691505b602082108114156200048b576200048a620004f6565b5b50919050565b6200049c8262000568565b810181811067ffffffffffffffff82111715620004be57620004bd62000525565b5b80604052505050565b7f4e487b7100000000000000000000000000000000000000000000000000000000600052602160045260246000fd5b7f4e487b7100000000000000000000000000000000000000000000000000000000600052602260045260246000fd5b7f4e487b7100000000000000000000000000000000000000000000000000000000600052604160045260246000fd5b600080fd5b600080fd5b600080fd5b600080fd5b6000601f19601f8301169050919050565b6200058481620003d0565b81146200059057600080fd5b50565b6200059e81620003e4565b8114620005aa57600080fd5b50565b620005b8816200040e565b8114620005c457600080fd5b50565b620005d28162000418565b8114620005de57600080fd5b50565b6115b180620005f16000396000f3fe608060405234801561001057600080fd5b50600436106100935760003560e01c806378f8f7d41161006657806378f8f7d4146101345780637f4e48491461015257806385209ee014610170578063e9df7c5e1461018e578063f0141d84146101ac57610093565b806317d7de7c146100985780633448f659146100b65780634bdcfab8146100e657806370a4cd3414610116575b600080fd5b6100a06101ca565b6040516100ad9190610f63565b60405180910390f35b6100d060048036038101906100cb9190610c9f565b61025c565b6040516100dd9190610f2d565b60405180910390f35b61010060048036038101906100fb9190610ccc565b61038f565b60405161010d9190610f2d565b60405180910390f35b61011e610752565b60405161012b9190610f2d565b60405180910390f35b61013c6108ca565b6040516101499190610f2d565b60405180910390f35b61015a6109cd565b6040516101679190610f63565b60405180910390f35b610178610bee565b6040516101859190610f48565b60405180910390f35b610196610c01565b6040516101a39190611065565b60405180910390f35b6101b4610c11565b6040516101c19190611125565b60405180910390f35b6060600080546101d990611259565b80601f016020809104026020016040519081016040528092919081815260200182805461020590611259565b80156102525780601f1061022757610100808354040283529160200191610252565b820191906000526020600020905b81548152906001019060200180831161023557829003601f168201915b5050505050905090565b600060016003811115610272576102716112ba565b5b600260019054906101000a900460ff166003811115610294576102936112ba565b5b146102d4576040517f08c379a00000000000000000000000000000000000000000000000000000000081526004016102cb90610fc5565b60405180910390fd5b60006102e242600854610c28565b11610322576040517f08c379a000000000000000000000000000000000000000000000000000000000815260040161031990611025565b60405180910390fd5b6003600260016101000a81548160ff02191690836003811115610348576103476112ba565b5b02179055507f724b99e866949401e1553ae6e0da07c7e24b0308581155730cbe34363752bd3f428360405161037e929190611080565b60405180910390a160019050919050565b60008073ffffffffffffffffffffffffffffffffffffffff168873ffffffffffffffffffffffffffffffffffffffff161415610400576040517f08c379a00000000000000000000000000000000000000000000000000000000081526004016103f790610fe5565b60405180910390fd5b600073ffffffffffffffffffffffffffffffffffffffff168773ffffffffffffffffffffffffffffffffffffffff161415610470576040517f08c379a000000000000000000000000000000000000000000000000000000000815260040161046790610fa5565b60405180910390fd5b8673ffffffffffffffffffffffffffffffffffffffff168873ffffffffffffffffffffffffffffffffffffffff1614156104df576040517f08c379a00000000000000000000000000000000000000000000000000000000081526004016104d690610f85565b60405180910390fd5b60006104eb4286610c28565b1161052b576040517f08c379a000000000000000000000000000000000000000000000000000000000815260040161052290611005565b60405180910390fd5b87600460006101000a81548173ffffffffffffffffffffffffffffffffffffffff021916908373ffffffffffffffffffffffffffffffffffffffff16021790555086600560006101000a81548173ffffffffffffffffffffffffffffffffffffffff021916908373ffffffffffffffffffffffffffffffffffffffff1602179055508560068190555084600760006101000a81548160ff021916908360ff1602179055508360088190555082600960006101000a81548173ffffffffffffffffffffffffffffffffffffffff021916908373ffffffffffffffffffffffffffffffffffffffff16021790555081600a60006101000a81548173ffffffffffffffffffffffffffffffffffffffff021916908373ffffffffffffffffffffffffffffffffffffffff1602179055506001600260016101000a81548160ff0219169083600381111561067e5761067d6112ba565b5b0217905550600560009054906101000a900473ffffffffffffffffffffffffffffffffffffffff1673ffffffffffffffffffffffffffffffffffffffff16600460009054906101000a900473ffffffffffffffffffffffffffffffffffffffff1673ffffffffffffffffffffffffffffffffffffffff167f3bf88603c760ed46445b475bf9bd18d23632b3df0c987c93907aa89ef3874cdd600654600760009054906101000a900460ff1660085460405161073b939291906110ee565b60405180910390a360019050979650505050505050565b60008061076160085442610c28565b10156107a2576040517f08c379a000000000000000000000000000000000000000000000000000000000815260040161079990611045565b60405180910390fd5b600160038111156107b6576107b56112ba565b5b600260019054906101000a900460ff1660038111156107d8576107d76112ba565b5b14610818576040517f08c379a000000000000000000000000000000000000000000000000000000000815260040161080f90610fc5565b60405180910390fd5b60028060016101000a81548160ff0219169083600381111561083d5761083c6112ba565b5b02179055507f7e79a2206061184e05985ae0578dec52f817756a441996f984cdc817efc25a68600460009054906101000a900473ffffffffffffffffffffffffffffffffffffffff16600560009054906101000a900473ffffffffffffffffffffffffffffffffffffffff166008546040516108bb93929190610ef6565b60405180910390a16001905090565b6000600160038111156108e0576108df6112ba565b5b600260019054906101000a900460ff166003811115610902576109016112ba565b5b14610942576040517f08c379a000000000000000000000000000000000000000000000000000000000815260040161093990610fc5565b60405180910390fd5b60007f63f10cc602ea66cf5c2a09a756a193c86ab46c33a794eb8d9aee6cf9426553a84282600460009054906101000a900473ffffffffffffffffffffffffffffffffffffffff16600560009054906101000a900473ffffffffffffffffffffffffffffffffffffffff166040516109bd94939291906110a9565b60405180910390a1600191505090565b6060600060038111156109e3576109e26112ba565b5b600260019054906101000a900460ff166003811115610a0557610a046112ba565b5b1415610a48576040518060400160405280600781526020017f43726561746564000000000000000000000000000000000000000000000000008152509050610beb565b60016003811115610a5c57610a5b6112ba565b5b600260019054906101000a900460ff166003811115610a7e57610a7d6112ba565b5b1415610ac1576040518060400160405280600981526020017f496e6974696174656400000000000000000000000000000000000000000000008152509050610beb565b60026003811115610ad557610ad46112ba565b5b600260019054906101000a900460ff166003811115610af757610af66112ba565b5b1415610b3a576040518060400160405280600781526020017f536574746c6564000000000000000000000000000000000000000000000000008152509050610beb565b600380811115610b4d57610b4c6112ba565b5b600260019054906101000a900460ff166003811115610b6f57610b6e6112ba565b5b1415610bb2576040518060400160405280600981526020017f44656661756c74656400000000000000000000000000000000000000000000008152509050610beb565b6040518060400160405280600b81526020017f7374617465206572726f7200000000000000000000000000000000000000000081525090505b90565b600260019054906101000a900460ff1681565b600042600e819055506000905090565b6000600260009054906101000a900460ff16905090565b600081831115610c3757600080fd5b8282610c43919061115c565b905092915050565b600081359050610c5a8161151f565b92915050565b600081359050610c6f81611536565b92915050565b600081359050610c848161154d565b92915050565b600081359050610c9981611564565b92915050565b600060208284031215610cb557610cb4611318565b5b6000610cc384828501610c4b565b91505092915050565b600080600080600080600060e0888a031215610ceb57610cea611318565b5b6000610cf98a828b01610c4b565b9750506020610d0a8a828b01610c4b565b9650506040610d1b8a828b01610c75565b9550506060610d2c8a828b01610c8a565b9450506080610d3d8a828b01610c75565b93505060a0610d4e8a828b01610c60565b92505060c0610d5f8a828b01610c60565b91505092959891949750929550565b610d7781611190565b82525050565b610d86816111a2565b82525050565b610d9581611214565b82525050565b610da4816111d3565b82525050565b6000610db582611140565b610dbf818561114b565b9350610dcf818560208601611226565b610dd88161131d565b840191505092915050565b6000610df060228361114b565b9150610dfb8261132e565b604082019050919050565b6000610e13601b8361114b565b9150610e1e8261137d565b602082019050919050565b6000610e3660258361114b565b9150610e41826113a6565b604082019050919050565b6000610e59601a8361114b565b9150610e64826113f5565b602082019050919050565b6000610e7c60288361114b565b9150610e878261141e565b604082019050919050565b6000610e9f602c8361114b565b9150610eaa8261146d565b604082019050919050565b6000610ec2602f8361114b565b9150610ecd826114bc565b604082019050919050565b610ee1816111fd565b82525050565b610ef081611207565b82525050565b6000606082019050610f0b6000830186610d6e565b610f186020830185610d6e565b610f256040830184610ed8565b949350505050565b6000602082019050610f426000830184610d7d565b92915050565b6000602082019050610f5d6000830184610d8c565b92915050565b60006020820190508181036000830152610f7d8184610daa565b905092915050565b60006020820190508181036000830152610f9e81610de3565b9050919050565b60006020820190508181036000830152610fbe81610e06565b9050919050565b60006020820190508181036000830152610fde81610e29565b9050919050565b60006020820190508181036000830152610ffe81610e4c565b9050919050565b6000602082019050818103600083015261101e81610e6f565b9050919050565b6000602082019050818103600083015261103e81610e92565b9050919050565b6000602082019050818103600083015261105e81610eb5565b9050919050565b600060208201905061107a6000830184610ed8565b92915050565b60006040820190506110956000830185610ed8565b6110a26020830184610d6e565b9392505050565b60006080820190506110be6000830187610ed8565b6110cb6020830186610d9b565b6110d86040830185610d6e565b6110e56060830184610d6e565b95945050505050565b60006060820190506111036000830186610ed8565b6111106020830185610ee7565b61111d6040830184610ed8565b949350505050565b600060208201905061113a6000830184610ee7565b92915050565b600081519050919050565b600082825260208201905092915050565b6000611167826111fd565b9150611172836111fd565b9250828210156111855761118461128b565b5b828203905092915050565b600061119b826111dd565b9050919050565b60008115159050919050565b60006111b982611190565b9050919050565b60008190506111ce8261150b565b919050565b6000819050919050565b600073ffffffffffffffffffffffffffffffffffffffff82169050919050565b6000819050919050565b600060ff82169050919050565b600061121f826111c0565b9050919050565b60005b83811015611244578082015181840152602081019050611229565b83811115611253576000848401525b50505050565b6000600282049050600182168061127157607f821691505b60208210811415611285576112846112e9565b5b50919050565b7f4e487b7100000000000000000000000000000000000000000000000000000000600052601160045260246000fd5b7f4e487b7100000000000000000000000000000000000000000000000000000000600052602160045260246000fd5b7f4e487b7100000000000000000000000000000000000000000000000000000000600052602260045260246000fd5b600080fd5b6000601f19601f8301169050919050565b7f4c6f6e6720616e642073686f72742063616e27742062652073616d652070617260008201527f7479000000000000000000000000000000000000000000000000000000000000602082015250565b7f53686f72742063616e2774206265207a65726f20616464726573730000000000600082015250565b7f436f6e74726163742068617320746f20626520696e20496e697469617465642060008201527f7374617465000000000000000000000000000000000000000000000000000000602082015250565b7f4c6f6e672063616e2774206265207a65726f2061646472657373000000000000600082015250565b7f46464120636f6e74726163742068617320746f2065787069726520696e20746860008201527f6520667574757265000000000000000000000000000000000000000000000000602082015250565b7f44656661756c74696e672063616e206f6e6c792068617070656e206265666f7260008201527f652065787069726174696f6e0000000000000000000000000000000000000000602082015250565b7f536574746c656d656e742063616e6e6f74206f6363757265206265666f72652060008201527f65787069726174696f6e20646174650000000000000000000000000000000000602082015250565b6004811061151c5761151b6112ba565b5b50565b61152881611190565b811461153357600080fd5b50565b61153f816111ae565b811461154a57600080fd5b50565b611556816111fd565b811461156157600080fd5b50565b61156d81611207565b811461157857600080fd5b5056fea26469706673582212206001b6d857292e7060373f3b6806245a060ee58cbaf5f45c2e75f1603406316b64736f6c63430008060033a264697066735822122052b2b1fda5d2fc38a76c2e566c0746f8be3af44c1cf6f3742b0e2f1fc893fc7d64736f6c63430008060033",
  "immutableReferences": {},
  "source": "// SPDX-License-Identifier: UNLICENSED\r\n\r\npragma solidity ^0.8.6;\r\n\r\nimport \"@openzeppelin/contracts/access/Ownable.sol\";\r\nimport \"@openzeppelin/contracts/token/ERC20/IERC20.sol\";\r\nimport \"@openzeppelin/contracts/token/ERC20/utils/SafeERC20.sol\";\r\nimport \"./FFAContract.sol\";\r\n\r\ncontract FFAFactory {\r\n    using SafeERC20 for IERC20;\r\n\r\n    //hold address of FFA contracts\r\n    address[] private ffaContracts;\r\n\r\n    address _oracleAddress = 0x2f90A6D021db21e1B2A077c5a37B3C7E75D15b7e;//temporary\r\n\r\n    event Created(address oracleAddress, bytes32 jobId, uint8 decimals, uint256 sizeOfContract);\r\n\r\n    function createFFAContract(\r\n        string calldata _name, \r\n        string calldata _symbol, \r\n        //address _oracleAddress,\r\n        bytes32 _jobId, \r\n        uint8 _decimals,\r\n        uint256 _sizeOfContract\r\n        ) \r\n        external returns (address ffaContractAddress_) {\r\n            //check valid oracleAddress and jobId\r\n            require (_oracleAddress != address(0), \"oracle address cannot be zero address\");\r\n            require(_jobId != \"\", \"jobId cannot be empty string\");\r\n            \r\n            ffaContractAddress_ = address(new FFAContract(_name, _symbol, _oracleAddress, _jobId, _decimals, _sizeOfContract));\r\n            require(keccak256(abi.encodePacked(FFAContract(ffaContractAddress_).getContractState())) == keccak256(abi.encodePacked(\"Created\")), \"contract not created\");\r\n            ffaContracts.push(ffaContractAddress_);\r\n            emit Created(_oracleAddress, _jobId, _decimals, _sizeOfContract);\r\n    }\r\n\r\n    //do i need modifier\r\n    //could just send address and then use .at\r\n    function getFFAContract(uint256 index) external view returns(FFAContract) {\r\n        return FFAContract(ffaContracts[index]);\r\n    }\r\n}\r\n\r\n//Dennis notes:\r\n//query the state of the contract whether it's created\r\n            //no gas cost\r\n            //try catch - expect error and have specific plan to unwind system\r\n            // - heuristic call\r\n            //may or may not have direct control over what we are calling\r\n            //deal with 3rd party errors\r\n            //solidty added try-catch blocks for contract calls because they can be heuristic\r\n            //heuristic - range of things that go wrong\r\n            //if you have to try cath you dont try catch for internal server error\r\n            //in smart contract htings are heuristic - latency of network may fail for variety of reasons\r\n            //smart contracts don't make outside calls for this heuristic problem -> this is why chainlink is great\r\n            //this is why try catch was introduced\r\n            //destructor - sufficiently cleanup the object, nested, orpahns etc...\r\n            //\"try catch finally\" - tried event caught error, for any other error finally execute this",
  "sourcePath": "C:\\Users\\Tomi\\OneDrive - The University of Chicago\\Documents\\Securrency\\FuturesExchange\\contracts\\FFAFactory.sol",
  "compiler": {
    "name": "solc",
    "version": "0.8.6+commit.11564f7e.Emscripten.clang"
  },
  "schemaVersion": "3.4.2",
  "updatedAt": "2021-08-11T08:47:59.637Z",
  "networkType": "ethereum",
  "devdoc": {
    "kind": "dev",
    "methods": {},
    "version": 1
  },
  "userdoc": {
    "kind": "user",
    "methods": {},
    "version": 1
  }
}