{
  "contractName": "FFAFactory",
  "abi": [
    {
      "anonymous": false,
      "inputs": [
        {
          "indexed": false,
          "internalType": "uint8",
          "name": "decimals",
          "type": "uint8"
        },
        {
          "indexed": false,
          "internalType": "uint256",
          "name": "sizeOfContract",
          "type": "uint256"
        }
      ],
      "name": "Created",
      "type": "event"
    },
    {
      "inputs": [
        {
          "internalType": "string",
          "name": "_name",
          "type": "string"
        },
        {
          "internalType": "string",
          "name": "_symbol",
          "type": "string"
        },
        {
          "internalType": "uint8",
          "name": "_decimals",
          "type": "uint8"
        },
        {
          "internalType": "uint256",
          "name": "_sizeOfContract",
          "type": "uint256"
        }
      ],
      "name": "createFFAContract",
      "outputs": [
        {
          "internalType": "address",
          "name": "ffaContractAddress_",
          "type": "address"
        }
      ],
      "stateMutability": "nonpayable",
      "type": "function"
    },
    {
      "inputs": [
        {
          "internalType": "uint256",
          "name": "index",
          "type": "uint256"
        }
      ],
      "name": "getFFAContract",
      "outputs": [
        {
          "internalType": "contract FFAContract",
          "name": "",
          "type": "address"
        }
      ],
      "stateMutability": "view",
      "type": "function"
    }
  ],
  "bytecode": "0x608060405234801561001057600080fd5b5061264d806100206000396000f3fe60806040523480156200001157600080fd5b50600436106200003a5760003560e01c80633fe454fb146200003f578063d058bd931462000075575b600080fd5b6200005d600480360381019062000057919062000416565b620000ab565b6040516200006c91906200067d565b60405180910390f35b6200009360048036038101906200008d91906200051f565b620002b3565b604051620000a291906200069a565b60405180910390f35b6000868686868686604051620000c190620002fd565b620000d296959493929190620006b7565b604051809103906000f080158015620000ef573d6000803e3d6000fd5b509050604051602001620001039062000666565b604051602081830303815290604052805190602001208173ffffffffffffffffffffffffffffffffffffffff16637f4e48496040518163ffffffff1660e01b815260040160006040518083038186803b1580156200016057600080fd5b505afa15801562000175573d6000803e3d6000fd5b505050506040513d6000823e3d601f19601f82011682018060405250810190620001a09190620004ce565b604051602001620001b291906200064d565b60405160208183030381529060405280519060200120146200020b576040517f08c379a0000000000000000000000000000000000000000000000000000000008152600401620002029062000716565b60405180910390fd5b6000819080600181540180825580915050600190039060005260206000200160009091909190916101000a81548173ffffffffffffffffffffffffffffffffffffffff021916908373ffffffffffffffffffffffffffffffffffffffff1602179055507f70b32a3ce62823ca43066c81a498bb5406f1fae0580853b8b7970a9ae05a6c8c8383604051620002a192919062000738565b60405180910390a19695505050505050565b6000808281548110620002cb57620002ca620008ed565b5b9060005260206000200160009054906101000a900473ffffffffffffffffffffffffffffffffffffffff169050919050565b611c178062000a0183390190565b6000620003226200031c846200078e565b62000765565b9050828152602081018484840111156200034157620003406200095a565b5b6200034e84828562000881565b509392505050565b60008083601f8401126200036f576200036e62000950565b5b8235905067ffffffffffffffff8111156200038f576200038e6200094b565b5b602083019150836001820283011115620003ae57620003ad62000955565b5b9250929050565b600082601f830112620003cd57620003cc62000950565b5b8151620003df8482602086016200030b565b91505092915050565b600081359050620003f981620009cc565b92915050565b6000813590506200041081620009e6565b92915050565b6000806000806000806080878903121562000436576200043562000964565b5b600087013567ffffffffffffffff8111156200045757620004566200095f565b5b6200046589828a0162000356565b9650965050602087013567ffffffffffffffff8111156200048b576200048a6200095f565b5b6200049989828a0162000356565b94509450506040620004ae89828a01620003ff565b9250506060620004c189828a01620003e8565b9150509295509295509295565b600060208284031215620004e757620004e662000964565b5b600082015167ffffffffffffffff8111156200050857620005076200095f565b5b6200051684828501620003b5565b91505092915050565b60006020828403121562000538576200053762000964565b5b60006200054884828501620003e8565b91505092915050565b6200055c81620007eb565b82525050565b6200056d8162000836565b82525050565b6000620005818385620007cf565b93506200059083858462000872565b6200059b8362000969565b840190509392505050565b6000620005b382620007c4565b620005bf8185620007e0565b9350620005d181856020860162000881565b80840191505092915050565b6000620005ec601483620007cf565b9150620005f9826200097a565b602082019050919050565b600062000613600783620007e0565b91506200062082620009a3565b600782019050919050565b62000636816200081f565b82525050565b620006478162000829565b82525050565b60006200065b8284620005a6565b915081905092915050565b6000620006738262000604565b9150819050919050565b600060208201905062000694600083018462000551565b92915050565b6000602082019050620006b1600083018462000562565b92915050565b60006080820190508181036000830152620006d481888a62000573565b90508181036020830152620006eb81868862000573565b9050620006fc60408301856200063c565b6200070b60608301846200062b565b979650505050505050565b600060208201905081810360008301526200073181620005dd565b9050919050565b60006040820190506200074f60008301856200063c565b6200075e60208301846200062b565b9392505050565b60006200077162000784565b90506200077f8282620008b7565b919050565b6000604051905090565b600067ffffffffffffffff821115620007ac57620007ab6200091c565b5b620007b78262000969565b9050602081019050919050565b600081519050919050565b600082825260208201905092915050565b600081905092915050565b6000620007f882620007ff565b9050919050565b600073ffffffffffffffffffffffffffffffffffffffff82169050919050565b6000819050919050565b600060ff82169050919050565b600062000843826200084a565b9050919050565b600062000857826200085e565b9050919050565b60006200086b82620007ff565b9050919050565b82818337600083830152505050565b60005b83811015620008a157808201518184015260208101905062000884565b83811115620008b1576000848401525b50505050565b620008c28262000969565b810181811067ffffffffffffffff82111715620008e457620008e36200091c565b5b80604052505050565b7f4e487b7100000000000000000000000000000000000000000000000000000000600052603260045260246000fd5b7f4e487b7100000000000000000000000000000000000000000000000000000000600052604160045260246000fd5b600080fd5b600080fd5b600080fd5b600080fd5b600080fd5b600080fd5b6000601f19601f8301169050919050565b7f636f6e7472616374206e6f742063726561746564000000000000000000000000600082015250565b7f4372656174656400000000000000000000000000000000000000000000000000600082015250565b620009d7816200081f565b8114620009e357600080fd5b50565b620009f18162000829565b8114620009fd57600080fd5b5056fe60806040523480156200001157600080fd5b5060405162001c1738038062001c1783398181016040528101906200003791906200026b565b83600090805190602001906200004f9291906200010f565b508260019080519060200190620000689291906200010f565b5081600260006101000a81548160ff021916908360ff160217905550806003819055506000600260016101000a81548160ff02191690836003811115620000b457620000b362000482565b5b02179055507faa7f6ea30e1ba480d45b98b3b903c55e2261e037d7b614e6164b23f23711d104600260009054906101000a900460ff16600354604051620000fd9291906200033d565b60405180910390a15050505062000568565b8280546200011d9062000416565b90600052602060002090601f0160209004810192826200014157600085556200018d565b82601f106200015c57805160ff19168380011785556200018d565b828001600101855582156200018d579182015b828111156200018c5782518255916020019190600101906200016f565b5b5090506200019c9190620001a0565b5090565b5b80821115620001bb576000816000905550600101620001a1565b5090565b6000620001d6620001d08462000393565b6200036a565b905082815260208101848484011115620001f557620001f462000514565b5b62000202848285620003e0565b509392505050565b600082601f8301126200022257620002216200050f565b5b815162000234848260208601620001bf565b91505092915050565b6000815190506200024e8162000534565b92915050565b60008151905062000265816200054e565b92915050565b600080600080608085870312156200028857620002876200051e565b5b600085015167ffffffffffffffff811115620002a957620002a862000519565b5b620002b7878288016200020a565b945050602085015167ffffffffffffffff811115620002db57620002da62000519565b5b620002e9878288016200020a565b9350506040620002fc8782880162000254565b92505060606200030f878288016200023d565b91505092959194509250565b6200032681620003c9565b82525050565b6200033781620003d3565b82525050565b60006040820190506200035460008301856200032c565b6200036360208301846200031b565b9392505050565b60006200037662000389565b90506200038482826200044c565b919050565b6000604051905090565b600067ffffffffffffffff821115620003b157620003b0620004e0565b5b620003bc8262000523565b9050602081019050919050565b6000819050919050565b600060ff82169050919050565b60005b8381101562000400578082015181840152602081019050620003e3565b8381111562000410576000848401525b50505050565b600060028204905060018216806200042f57607f821691505b60208210811415620004465762000445620004b1565b5b50919050565b620004578262000523565b810181811067ffffffffffffffff82111715620004795762000478620004e0565b5b80604052505050565b7f4e487b7100000000000000000000000000000000000000000000000000000000600052602160045260246000fd5b7f4e487b7100000000000000000000000000000000000000000000000000000000600052602260045260246000fd5b7f4e487b7100000000000000000000000000000000000000000000000000000000600052604160045260246000fd5b600080fd5b600080fd5b600080fd5b600080fd5b6000601f19601f8301169050919050565b6200053f81620003c9565b81146200054b57600080fd5b50565b6200055981620003d3565b81146200056557600080fd5b50565b61169f80620005786000396000f3fe608060405234801561001057600080fd5b50600436106100a95760003560e01c806378f8f7d41161007157806378f8f7d4146101685780637f4e48491461018657806385209ee0146101a4578063923123b3146101c2578063e9df7c5e146101e0578063f0141d84146101fe576100a9565b806315070401146100ae57806317d7de7c146100cc5780633448f659146100ea5780634bdcfab81461011a57806370a4cd341461014a575b600080fd5b6100b661021c565b6040516100c39190611051565b60405180910390f35b6100d46102ae565b6040516100e19190611051565b60405180910390f35b61010460048036038101906100ff9190610d8d565b610340565b604051610111919061101b565b60405180910390f35b610134600480360381019061012f9190610dba565b610473565b604051610141919061101b565b60405180910390f35b610152610836565b60405161015f919061101b565b60405180910390f35b6101706109ae565b60405161017d919061101b565b60405180910390f35b61018e610ab1565b60405161019b9190611051565b60405180910390f35b6101ac610cd2565b6040516101b99190611036565b60405180910390f35b6101ca610ce5565b6040516101d79190611153565b60405180910390f35b6101e8610cef565b6040516101f59190611153565b60405180910390f35b610206610cff565b6040516102139190611213565b60405180910390f35b60606001805461022b90611347565b80601f016020809104026020016040519081016040528092919081815260200182805461025790611347565b80156102a45780601f10610279576101008083540402835291602001916102a4565b820191906000526020600020905b81548152906001019060200180831161028757829003601f168201915b5050505050905090565b6060600080546102bd90611347565b80601f01602080910402602001604051908101604052809291908181526020018280546102e990611347565b80156103365780601f1061030b57610100808354040283529160200191610336565b820191906000526020600020905b81548152906001019060200180831161031957829003601f168201915b5050505050905090565b600060016003811115610356576103556113a8565b5b600260019054906101000a900460ff166003811115610378576103776113a8565b5b146103b8576040517f08c379a00000000000000000000000000000000000000000000000000000000081526004016103af906110b3565b60405180910390fd5b60006103c642600854610d16565b11610406576040517f08c379a00000000000000000000000000000000000000000000000000000000081526004016103fd90611113565b60405180910390fd5b6003600260016101000a81548160ff0219169083600381111561042c5761042b6113a8565b5b02179055507f724b99e866949401e1553ae6e0da07c7e24b0308581155730cbe34363752bd3f428360405161046292919061116e565b60405180910390a160019050919050565b60008073ffffffffffffffffffffffffffffffffffffffff168873ffffffffffffffffffffffffffffffffffffffff1614156104e4576040517f08c379a00000000000000000000000000000000000000000000000000000000081526004016104db906110d3565b60405180910390fd5b600073ffffffffffffffffffffffffffffffffffffffff168773ffffffffffffffffffffffffffffffffffffffff161415610554576040517f08c379a000000000000000000000000000000000000000000000000000000000815260040161054b90611093565b60405180910390fd5b8673ffffffffffffffffffffffffffffffffffffffff168873ffffffffffffffffffffffffffffffffffffffff1614156105c3576040517f08c379a00000000000000000000000000000000000000000000000000000000081526004016105ba90611073565b60405180910390fd5b60006105cf4286610d16565b1161060f576040517f08c379a0000000000000000000000000000000000000000000000000000000008152600401610606906110f3565b60405180910390fd5b87600460006101000a81548173ffffffffffffffffffffffffffffffffffffffff021916908373ffffffffffffffffffffffffffffffffffffffff16021790555086600560006101000a81548173ffffffffffffffffffffffffffffffffffffffff021916908373ffffffffffffffffffffffffffffffffffffffff1602179055508560068190555084600760006101000a81548160ff021916908360ff1602179055508360088190555082600960006101000a81548173ffffffffffffffffffffffffffffffffffffffff021916908373ffffffffffffffffffffffffffffffffffffffff16021790555081600a60006101000a81548173ffffffffffffffffffffffffffffffffffffffff021916908373ffffffffffffffffffffffffffffffffffffffff1602179055506001600260016101000a81548160ff02191690836003811115610762576107616113a8565b5b0217905550600560009054906101000a900473ffffffffffffffffffffffffffffffffffffffff1673ffffffffffffffffffffffffffffffffffffffff16600460009054906101000a900473ffffffffffffffffffffffffffffffffffffffff1673ffffffffffffffffffffffffffffffffffffffff167f3bf88603c760ed46445b475bf9bd18d23632b3df0c987c93907aa89ef3874cdd600654600760009054906101000a900460ff1660085460405161081f939291906111dc565b60405180910390a360019050979650505050505050565b60008061084560085442610d16565b1015610886576040517f08c379a000000000000000000000000000000000000000000000000000000000815260040161087d90611133565b60405180910390fd5b6001600381111561089a576108996113a8565b5b600260019054906101000a900460ff1660038111156108bc576108bb6113a8565b5b146108fc576040517f08c379a00000000000000000000000000000000000000000000000000000000081526004016108f3906110b3565b60405180910390fd5b60028060016101000a81548160ff02191690836003811115610921576109206113a8565b5b02179055507f7e79a2206061184e05985ae0578dec52f817756a441996f984cdc817efc25a68600460009054906101000a900473ffffffffffffffffffffffffffffffffffffffff16600560009054906101000a900473ffffffffffffffffffffffffffffffffffffffff1660085460405161099f93929190610fe4565b60405180910390a16001905090565b6000600160038111156109c4576109c36113a8565b5b600260019054906101000a900460ff1660038111156109e6576109e56113a8565b5b14610a26576040517f08c379a0000000000000000000000000000000000000000000000000000000008152600401610a1d906110b3565b60405180910390fd5b60007f63f10cc602ea66cf5c2a09a756a193c86ab46c33a794eb8d9aee6cf9426553a84282600460009054906101000a900473ffffffffffffffffffffffffffffffffffffffff16600560009054906101000a900473ffffffffffffffffffffffffffffffffffffffff16604051610aa19493929190611197565b60405180910390a1600191505090565b606060006003811115610ac757610ac66113a8565b5b600260019054906101000a900460ff166003811115610ae957610ae86113a8565b5b1415610b2c576040518060400160405280600781526020017f43726561746564000000000000000000000000000000000000000000000000008152509050610ccf565b60016003811115610b4057610b3f6113a8565b5b600260019054906101000a900460ff166003811115610b6257610b616113a8565b5b1415610ba5576040518060400160405280600981526020017f496e6974696174656400000000000000000000000000000000000000000000008152509050610ccf565b60026003811115610bb957610bb86113a8565b5b600260019054906101000a900460ff166003811115610bdb57610bda6113a8565b5b1415610c1e576040518060400160405280600781526020017f536574746c6564000000000000000000000000000000000000000000000000008152509050610ccf565b600380811115610c3157610c306113a8565b5b600260019054906101000a900460ff166003811115610c5357610c526113a8565b5b1415610c96576040518060400160405280600981526020017f44656661756c74656400000000000000000000000000000000000000000000008152509050610ccf565b6040518060400160405280600b81526020017f7374617465206572726f7200000000000000000000000000000000000000000081525090505b90565b600260019054906101000a900460ff1681565b6000600354905090565b600042600e819055506000905090565b6000600260009054906101000a900460ff16905090565b600081831115610d2557600080fd5b8282610d31919061124a565b905092915050565b600081359050610d488161160d565b92915050565b600081359050610d5d81611624565b92915050565b600081359050610d728161163b565b92915050565b600081359050610d8781611652565b92915050565b600060208284031215610da357610da2611406565b5b6000610db184828501610d39565b91505092915050565b600080600080600080600060e0888a031215610dd957610dd8611406565b5b6000610de78a828b01610d39565b9750506020610df88a828b01610d39565b9650506040610e098a828b01610d63565b9550506060610e1a8a828b01610d78565b9450506080610e2b8a828b01610d63565b93505060a0610e3c8a828b01610d4e565b92505060c0610e4d8a828b01610d4e565b91505092959891949750929550565b610e658161127e565b82525050565b610e7481611290565b82525050565b610e8381611302565b82525050565b610e92816112c1565b82525050565b6000610ea38261122e565b610ead8185611239565b9350610ebd818560208601611314565b610ec68161140b565b840191505092915050565b6000610ede602283611239565b9150610ee98261141c565b604082019050919050565b6000610f01601b83611239565b9150610f0c8261146b565b602082019050919050565b6000610f24602583611239565b9150610f2f82611494565b604082019050919050565b6000610f47601a83611239565b9150610f52826114e3565b602082019050919050565b6000610f6a602883611239565b9150610f758261150c565b604082019050919050565b6000610f8d602c83611239565b9150610f988261155b565b604082019050919050565b6000610fb0602f83611239565b9150610fbb826115aa565b604082019050919050565b610fcf816112eb565b82525050565b610fde816112f5565b82525050565b6000606082019050610ff96000830186610e5c565b6110066020830185610e5c565b6110136040830184610fc6565b949350505050565b60006020820190506110306000830184610e6b565b92915050565b600060208201905061104b6000830184610e7a565b92915050565b6000602082019050818103600083015261106b8184610e98565b905092915050565b6000602082019050818103600083015261108c81610ed1565b9050919050565b600060208201905081810360008301526110ac81610ef4565b9050919050565b600060208201905081810360008301526110cc81610f17565b9050919050565b600060208201905081810360008301526110ec81610f3a565b9050919050565b6000602082019050818103600083015261110c81610f5d565b9050919050565b6000602082019050818103600083015261112c81610f80565b9050919050565b6000602082019050818103600083015261114c81610fa3565b9050919050565b60006020820190506111686000830184610fc6565b92915050565b60006040820190506111836000830185610fc6565b6111906020830184610e5c565b9392505050565b60006080820190506111ac6000830187610fc6565b6111b96020830186610e89565b6111c66040830185610e5c565b6111d36060830184610e5c565b95945050505050565b60006060820190506111f16000830186610fc6565b6111fe6020830185610fd5565b61120b6040830184610fc6565b949350505050565b60006020820190506112286000830184610fd5565b92915050565b600081519050919050565b600082825260208201905092915050565b6000611255826112eb565b9150611260836112eb565b92508282101561127357611272611379565b5b828203905092915050565b6000611289826112cb565b9050919050565b60008115159050919050565b60006112a78261127e565b9050919050565b60008190506112bc826115f9565b919050565b6000819050919050565b600073ffffffffffffffffffffffffffffffffffffffff82169050919050565b6000819050919050565b600060ff82169050919050565b600061130d826112ae565b9050919050565b60005b83811015611332578082015181840152602081019050611317565b83811115611341576000848401525b50505050565b6000600282049050600182168061135f57607f821691505b60208210811415611373576113726113d7565b5b50919050565b7f4e487b7100000000000000000000000000000000000000000000000000000000600052601160045260246000fd5b7f4e487b7100000000000000000000000000000000000000000000000000000000600052602160045260246000fd5b7f4e487b7100000000000000000000000000000000000000000000000000000000600052602260045260246000fd5b600080fd5b6000601f19601f8301169050919050565b7f4c6f6e6720616e642073686f72742063616e27742062652073616d652070617260008201527f7479000000000000000000000000000000000000000000000000000000000000602082015250565b7f53686f72742063616e2774206265207a65726f20616464726573730000000000600082015250565b7f436f6e74726163742068617320746f20626520696e20496e697469617465642060008201527f7374617465000000000000000000000000000000000000000000000000000000602082015250565b7f4c6f6e672063616e2774206265207a65726f2061646472657373000000000000600082015250565b7f46464120636f6e74726163742068617320746f2065787069726520696e20746860008201527f6520667574757265000000000000000000000000000000000000000000000000602082015250565b7f44656661756c74696e672063616e206f6e6c792068617070656e206265666f7260008201527f652065787069726174696f6e0000000000000000000000000000000000000000602082015250565b7f536574746c656d656e742063616e6e6f74206f6363757265206265666f72652060008201527f65787069726174696f6e20646174650000000000000000000000000000000000602082015250565b6004811061160a576116096113a8565b5b50565b6116168161127e565b811461162157600080fd5b50565b61162d8161129c565b811461163857600080fd5b50565b611644816112eb565b811461164f57600080fd5b50565b61165b816112f5565b811461166657600080fd5b5056fea264697066735822122037e5cfbc59112cbad7741bfc74552470908b34f3ee9d7e6301dfdf993543cfa064736f6c63430008070033a264697066735822122078f95e2b1f53cf4b61909baf38dfc699312e10a0c72a312e032137619861165164736f6c63430008070033",
  "immutableReferences": {},
  "source": "// SPDX-License-Identifier: UNLICENSED\r\n\r\npragma solidity ^0.8.6;\r\n\r\nimport \"@openzeppelin/contracts/access/Ownable.sol\";\r\nimport \"@openzeppelin/contracts/token/ERC20/IERC20.sol\";\r\nimport \"@openzeppelin/contracts/token/ERC20/utils/SafeERC20.sol\";\r\nimport \"./FFAContract.sol\";\r\n\r\ncontract FFAFactory {\r\n    using SafeERC20 for IERC20;\r\n\r\n    //hold address of FFA contracts\r\n    address[] private ffaContracts;\r\n\r\n    event Created(uint8 decimals, uint256 sizeOfContract);\r\n\r\n    function createFFAContract(\r\n        string calldata _name, \r\n        string calldata _symbol, \r\n        //address _oracleAddress,\r\n        //bytes32 _jobId, \r\n        uint8 _decimals,\r\n        uint256 _sizeOfContract\r\n        ) \r\n        external returns (address ffaContractAddress_) {\r\n            //check valid oracleAddress and jobId\r\n            //require (_oracleAddress != address(0), \"oracle address cannot be zero address\");\r\n            //require(_jobId != \"\", \"jobId cannot be empty string\");\r\n            \r\n            ffaContractAddress_ = address(new FFAContract(_name, _symbol, _decimals, _sizeOfContract));\r\n            require(keccak256(abi.encodePacked(FFAContract(ffaContractAddress_).getContractState())) == keccak256(abi.encodePacked(\"Created\")), \"contract not created\");\r\n            ffaContracts.push(ffaContractAddress_);\r\n            emit Created( _decimals, _sizeOfContract);\r\n    }\r\n\r\n    function getFFAContract(uint256 index) external view returns(FFAContract) {\r\n        return FFAContract(ffaContracts[index]);\r\n    }\r\n}\r\n\r\n//Dennis notes:\r\n//query the state of the contract whether it's created\r\n            //no gas cost\r\n            //try catch - expect error and have specific plan to unwind system\r\n            // - heuristic call\r\n            //may or may not have direct control over what we are calling\r\n            //deal with 3rd party errors\r\n            //solidty added try-catch blocks for contract calls because they can be heuristic\r\n            //heuristic - range of things that go wrong\r\n            //if you have to try cath you dont try catch for internal server error\r\n            //in smart contract htings are heuristic - latency of network may fail for variety of reasons\r\n            //smart contracts don't make outside calls for this heuristic problem -> this is why chainlink is great\r\n            //this is why try catch was introduced\r\n            //destructor - sufficiently cleanup the object, nested, orpahns etc...\r\n            //\"try catch finally\" - tried event caught error, for any other error finally execute this",
  "sourcePath": "C:\\Users\\Tomi\\OneDrive - The University of Chicago\\Documents\\Securrency\\FuturesExchange\\contracts\\FFAFactory.sol",
  "compiler": {
    "name": "solc",
    "version": "0.8.7+commit.e28d00a7.Emscripten.clang"
  },
  "schemaVersion": "3.4.2",
  "updatedAt": "2021-08-12T09:05:06.711Z",
  "devdoc": {
    "kind": "dev",
    "methods": {},
    "version": 1
  },
  "userdoc": {
    "kind": "user",
    "methods": {},
    "version": 1
  }
}