{
  "contractName": "LinkPoolOracle",
  "abi": [
    {
      "inputs": [
        {
          "internalType": "int256",
          "name": "_decimals",
          "type": "int256"
        },
        {
          "internalType": "string",
          "name": "_apiBaseURL",
          "type": "string"
        },
        {
          "internalType": "string",
          "name": "_apiPath",
          "type": "string"
        }
      ],
      "stateMutability": "nonpayable",
      "type": "constructor"
    },
    {
      "anonymous": false,
      "inputs": [
        {
          "indexed": true,
          "internalType": "bytes32",
          "name": "id",
          "type": "bytes32"
        }
      ],
      "name": "ChainlinkCancelled",
      "type": "event"
    },
    {
      "anonymous": false,
      "inputs": [
        {
          "indexed": true,
          "internalType": "bytes32",
          "name": "id",
          "type": "bytes32"
        }
      ],
      "name": "ChainlinkFulfilled",
      "type": "event"
    },
    {
      "anonymous": false,
      "inputs": [
        {
          "indexed": true,
          "internalType": "bytes32",
          "name": "id",
          "type": "bytes32"
        }
      ],
      "name": "ChainlinkRequested",
      "type": "event"
    },
    {
      "anonymous": false,
      "inputs": [
        {
          "indexed": false,
          "internalType": "bytes32",
          "name": "requestId",
          "type": "bytes32"
        }
      ],
      "name": "Fulfilled",
      "type": "event"
    },
    {
      "anonymous": false,
      "inputs": [
        {
          "indexed": false,
          "internalType": "address",
          "name": "withdrawer",
          "type": "address"
        },
        {
          "indexed": false,
          "internalType": "uint256",
          "name": "amount",
          "type": "uint256"
        }
      ],
      "name": "LinkWithdrawn",
      "type": "event"
    },
    {
      "anonymous": false,
      "inputs": [
        {
          "indexed": true,
          "internalType": "address",
          "name": "previousOwner",
          "type": "address"
        },
        {
          "indexed": true,
          "internalType": "address",
          "name": "newOwner",
          "type": "address"
        }
      ],
      "name": "OwnershipTransferred",
      "type": "event"
    },
    {
      "anonymous": false,
      "inputs": [
        {
          "indexed": false,
          "internalType": "address",
          "name": "sender",
          "type": "address"
        },
        {
          "indexed": false,
          "internalType": "uint256",
          "name": "amount",
          "type": "uint256"
        }
      ],
      "name": "Received",
      "type": "event"
    },
    {
      "anonymous": false,
      "inputs": [
        {
          "indexed": false,
          "internalType": "address",
          "name": "oracleAddress",
          "type": "address"
        },
        {
          "indexed": false,
          "internalType": "bytes32",
          "name": "jobId",
          "type": "bytes32"
        },
        {
          "indexed": false,
          "internalType": "uint256",
          "name": "fee",
          "type": "uint256"
        }
      ],
      "name": "RequestSent",
      "type": "event"
    },
    {
      "stateMutability": "payable",
      "type": "fallback"
    },
    {
      "inputs": [],
      "name": "_fee",
      "outputs": [
        {
          "internalType": "uint256",
          "name": "",
          "type": "uint256"
        }
      ],
      "stateMutability": "view",
      "type": "function"
    },
    {
      "inputs": [],
      "name": "_jobId",
      "outputs": [
        {
          "internalType": "bytes32",
          "name": "",
          "type": "bytes32"
        }
      ],
      "stateMutability": "view",
      "type": "function"
    },
    {
      "inputs": [],
      "name": "_linkAddress",
      "outputs": [
        {
          "internalType": "address",
          "name": "",
          "type": "address"
        }
      ],
      "stateMutability": "view",
      "type": "function"
    },
    {
      "inputs": [],
      "name": "_oracleAddress",
      "outputs": [
        {
          "internalType": "address",
          "name": "",
          "type": "address"
        }
      ],
      "stateMutability": "view",
      "type": "function"
    },
    {
      "inputs": [],
      "name": "decimals",
      "outputs": [
        {
          "internalType": "int256",
          "name": "",
          "type": "int256"
        }
      ],
      "stateMutability": "view",
      "type": "function"
    },
    {
      "inputs": [],
      "name": "fee",
      "outputs": [
        {
          "internalType": "uint256",
          "name": "",
          "type": "uint256"
        }
      ],
      "stateMutability": "view",
      "type": "function"
    },
    {
      "inputs": [
        {
          "internalType": "bytes32",
          "name": "_requestId",
          "type": "bytes32"
        },
        {
          "internalType": "uint256",
          "name": "_result",
          "type": "uint256"
        }
      ],
      "name": "fulfill",
      "outputs": [],
      "stateMutability": "nonpayable",
      "type": "function"
    },
    {
      "inputs": [],
      "name": "getResult",
      "outputs": [
        {
          "internalType": "uint256",
          "name": "",
          "type": "uint256"
        }
      ],
      "stateMutability": "view",
      "type": "function"
    },
    {
      "inputs": [],
      "name": "jobId",
      "outputs": [
        {
          "internalType": "bytes32",
          "name": "",
          "type": "bytes32"
        }
      ],
      "stateMutability": "view",
      "type": "function"
    },
    {
      "inputs": [],
      "name": "oracleAddress",
      "outputs": [
        {
          "internalType": "address",
          "name": "",
          "type": "address"
        }
      ],
      "stateMutability": "view",
      "type": "function"
    },
    {
      "inputs": [],
      "name": "owner",
      "outputs": [
        {
          "internalType": "address",
          "name": "",
          "type": "address"
        }
      ],
      "stateMutability": "view",
      "type": "function"
    },
    {
      "inputs": [],
      "name": "renounceOwnership",
      "outputs": [],
      "stateMutability": "nonpayable",
      "type": "function"
    },
    {
      "inputs": [
        {
          "internalType": "string",
          "name": "apiURLParameters",
          "type": "string"
        }
      ],
      "name": "requestIndexPrice",
      "outputs": [
        {
          "internalType": "bytes32",
          "name": "requestId",
          "type": "bytes32"
        }
      ],
      "stateMutability": "nonpayable",
      "type": "function"
    },
    {
      "inputs": [
        {
          "internalType": "address",
          "name": "newOwner",
          "type": "address"
        }
      ],
      "name": "transferOwnership",
      "outputs": [],
      "stateMutability": "nonpayable",
      "type": "function"
    },
    {
      "inputs": [],
      "name": "withdrawLink",
      "outputs": [],
      "stateMutability": "nonpayable",
      "type": "function"
    },
    {
      "stateMutability": "payable",
      "type": "receive"
    }
  ],
  "bytecode": "0x60806040526001600455600e80546001600160a01b03199081167356dd6586db0d08c6ce7b2f2805af28616e082455179091557f6236363032643134653437333463343961356531636531396434356134363332600f556010805490911673a36085f69e2889c224210f603d836748e7dc008817905567016345785d8a00006011553480156200008e57600080fd5b5060405162001a1e38038062001a1e833981016040819052620000b19162000403565b600e54600f546010546011546001600160a01b039384169390911690868686620000db336200016b565b6001600160a01b038516620000fa57620000f4620001bd565b62000105565b620001058562000252565b600880546001600160a01b0319166001600160a01b0389161790556009869055600d849055600c83905581516200014490600b90602085019062000274565b5080516200015a90600a90602084019062000274565b5050505050505050505050620004ca565b600680546001600160a01b038381166001600160a01b0319831681179093556040519116919082907f8be0079c531659141344cd1fd0a4f28419497f9722a3daafe3b4186f6b6457e090600090a35050565b6200025073c89bd4e1632d3a43cb03aaad5262cbe4038bc5716001600160a01b03166338cc48316040518163ffffffff1660e01b815260040160206040518083038186803b1580156200020f57600080fd5b505afa15801562000224573d6000803e3d6000fd5b505050506040513d601f19601f820116820180604052508101906200024a9190620003d1565b62000252565b565b600280546001600160a01b0319166001600160a01b0392909216919091179055565b828054620002829062000477565b90600052602060002090601f016020900481019282620002a65760008555620002f1565b82601f10620002c157805160ff1916838001178555620002f1565b82800160010185558215620002f1579182015b82811115620002f1578251825591602001919060010190620002d4565b50620002ff92915062000303565b5090565b5b80821115620002ff576000815560010162000304565b600082601f8301126200032c57600080fd5b81516001600160401b0380821115620003495762000349620004b4565b604051601f8301601f19908116603f01168101908282118183101715620003745762000374620004b4565b816040528381526020925086838588010111156200039157600080fd5b600091505b83821015620003b5578582018301518183018401529082019062000396565b83821115620003c75760008385830101525b9695505050505050565b600060208284031215620003e457600080fd5b81516001600160a01b0381168114620003fc57600080fd5b9392505050565b6000806000606084860312156200041957600080fd5b835160208501519093506001600160401b03808211156200043957600080fd5b62000447878388016200031a565b935060408601519150808211156200045e57600080fd5b506200046d868287016200031a565b9150509250925092565b600181811c908216806200048c57607f821691505b60208210811415620004ae57634e487b7160e01b600052602260045260246000fd5b50919050565b634e487b7160e01b600052604160045260246000fd5b61154480620004da6000396000f3fe6080604052600436106100b95760003560e01c8063185defc6146100fb578063313ce567146101315780634357855e1461015557806369723be7146101755780636fb7cb5714610195578063715018a6146101b55780638da5cb5b146101ca5780638dc654a2146101df578063a89ae4ba146101f4578063c2939d9714610214578063c5b37c221461022a578063ddca3f4314610240578063de29278914610256578063f2fde38b1461026b578063f7b4ab671461028b57005b366100f9577f88a5966d370b9919b20f3e2c13ff65706f196a4e32cc2c12bf57088f8852587433346040516100ef92919061120a565b60405180910390a1005b005b34801561010757600080fd5b5060105461011b906001600160a01b031681565b60405161012891906111f6565b60405180910390f35b34801561013d57600080fd5b50610147600c5481565b604051908152602001610128565b34801561016157600080fd5b506100f96101703660046110b0565b6102a1565b34801561018157600080fd5b506101476101903660046110d2565b61039f565b3480156101a157600080fd5b50600e5461011b906001600160a01b031681565b3480156101c157600080fd5b506100f96105cf565b3480156101d657600080fd5b5061011b61060a565b3480156101eb57600080fd5b506100f9610619565b34801561020057600080fd5b5060085461011b906001600160a01b031681565b34801561022057600080fd5b5061014760095481565b34801561023657600080fd5b5061014760115481565b34801561024c57600080fd5b50610147600d5481565b34801561026257600080fd5b50600754610147565b34801561027757600080fd5b506100f9610286366004611065565b6107dd565b34801561029757600080fd5b50610147600f5481565b60008281526005602052604090205482906001600160a01b0316331461031f5760405162461bcd60e51b815260206004820152602860248201527f536f75726365206d75737420626520746865206f7261636c65206f6620746865604482015267081c995c5d595cdd60c21b60648201526084015b60405180910390fd5b60008181526005602052604080822080546001600160a01b03191690555182917f7cc135e0cebb02c3480ae5d74d377283180a2601f8f644edf7987b009316c63a91a260078290556040518381527f6930ee93026433301a14b1baa0b52ca0d4640cb1edaa703beeb9056e235269849060200160405180910390a1505050565b6000806103b660095430634357855e60e01b61087d565b90506104736040518060400160405280600381526020016219d95d60ea1b81525061046b600b80546103e79061148b565b80601f01602080910402602001604051908101604052809291908181526020018280546104139061148b565b80156104605780601f1061043557610100808354040283529160200191610460565b820191906000526020600020905b81548152906001019060200180831161044357829003601f168201915b5050505050866108a2565b8391906108cf565b61052e604051806040016040528060048152602001630e0c2e8d60e31b815250600a80546104a09061148b565b80601f01602080910402602001604051908101604052809291908181526020018280546104cc9061148b565b80156105195780601f106104ee57610100808354040283529160200191610519565b820191906000526020600020905b8154815290600101906020018083116104fc57829003601f168201915b5050505050836108cf9092919063ffffffff16565b60408051808201909152600581526474696d657360d81b6020820152600c546105589183916108f2565b600854600d54610573916001600160a01b0316908390610910565b600854600954600d54604080516001600160a01b0390941684526020840192909252908201529092507f5de0ca4d601c6369aafe37da9bab92be9804895234cdb72d8181492e84e6bcb29060600160405180910390a150919050565b336105d861060a565b6001600160a01b0316146105fe5760405162461bcd60e51b8152600401610316906112b2565b610608600061092f565b565b6006546001600160a01b031690565b3361062261060a565b6001600160a01b0316146106485760405162461bcd60e51b8152600401610316906112b2565b600061065c6002546001600160a01b031690565b90506000816001600160a01b03166370a08231306040518263ffffffff1660e01b815260040161068c91906111f6565b60206040518083038186803b1580156106a457600080fd5b505afa1580156106b8573d6000803e3d6000fd5b505050506040513d601f19601f820116820180604052508101906106dc9190611182565b60405163a9059cbb60e01b81529091506001600160a01b0383169063a9059cbb9061070d903390859060040161120a565b602060405180830381600087803b15801561072757600080fd5b505af115801561073b573d6000803e3d6000fd5b505050506040513d601f19601f8201168201806040525081019061075f919061108e565b6107a05760405162461bcd60e51b8152602060048201526012602482015271556e61626c6520746f20776974686472617760701b6044820152606401610316565b7fcb1436249a1dd8cf93362c28d79a4e20dc54398b6c49e30316e8396e72a584b033826040516107d192919061120a565b60405180910390a15050565b336107e661060a565b6001600160a01b03161461080c5760405162461bcd60e51b8152600401610316906112b2565b6001600160a01b0381166108715760405162461bcd60e51b815260206004820152602660248201527f4f776e61626c653a206e6577206f776e657220697320746865207a65726f206160448201526564647265737360d01b6064820152608401610316565b61087a8161092f565b50565b610885611016565b61088d611016565b61089981868686610981565b95945050505050565b606082826040516020016108b79291906111c7565b60405160208183030381529060405290505b92915050565b60808301516108de90836109be565b60808301516108ed90826109be565b505050565b608083015161090190836109be565b60808301516108ed90826109d5565b600061092784848460016320214ca360e11b610a37565b949350505050565b600680546001600160a01b038381166001600160a01b0319831681179093556040519116919082907f8be0079c531659141344cd1fd0a4f28419497f9722a3daafe3b4186f6b6457e090600090a35050565b610989611016565b6109998560800151610100610c3e565b50509183526001600160a01b031660208301526001600160e01b031916604082015290565b6109cb8260038351610c96565b6108ed8282610d69565b6001600160401b03198112156109f3576109ef8282610d8a565b5050565b6001600160401b03811315610a0c576109ef8282610dcc565b60008112610a20576109ef82600083610c96565b6109ef826001610a3284600019611409565b610c96565b6004546040516001600160601b03193060601b166020820152603481019190915260009060540160408051808303601f19018152918152815160209283012060045460608901526000818152600590935281832080546001600160a01b0319166001600160a01b038b16179055905190925082917fb5e6e01e79f91267dc17b4e6314d5d4d03593d2ceee0fbb452b750bd70ea5af991a2600082600080886000015189602001518a604001518b606001518a8d6080015160000151604051602401610b09989796959493929190611223565b60408051601f198184030181529181526020820180516001600160e01b03166001600160e01b0319909416939093179092526002549151630200057560e51b81529092506001600160a01b0390911690634000aea090610b71908a908990869060040161128b565b602060405180830381600087803b158015610b8b57600080fd5b505af1158015610b9f573d6000803e3d6000fd5b505050506040513d601f19601f82011682018060405250810190610bc3919061108e565b610c1b5760405162461bcd60e51b815260206004820152602360248201527f756e61626c6520746f207472616e73666572416e6443616c6c20746f206f7261604482015262636c6560e81b6064820152608401610316565b600160046000828254610c2e91906112e7565b9091555091979650505050505050565b610c4661104b565b610c516020836114c0565b15610c7957610c616020836114c0565b610c6c906020611448565b610c7690836112e7565b91505b506020828101829052604080518085526000815290920101905290565b60178111610cb757610cb18360e0600585901b168317610def565b50505050565b60ff8111610ce157610cd4836018611fe0600586901b1617610def565b50610cb183826001610e07565b61ffff8111610d0c57610cff836019611fe0600586901b1617610def565b50610cb183826002610e07565b63ffffffff8111610d3957610d2c83601a611fe0600586901b1617610def565b50610cb183826004610e07565b6001600160401b0381116108ed57610d5c83601b611fe0600586901b1617610def565b50610cb183826008610e07565b610d7161104b565b610d8383846000015151848551610e20565b9392505050565b610d958260c3610def565b506109ef82610da683600019611409565b604051602001610db891815260200190565b604051602081830303815290604052610f18565b610dd78260c2610def565b506109ef8282604051602001610db891815260200190565b610df761104b565b610d838384600001515184610f25565b610e0f61104b565b610927848560000151518585610f74565b610e2861104b565b8251821115610e3657600080fd5b6020850151610e4583866112e7565b1115610e7857610e7885610e6887602001518786610e6391906112e7565b610fe8565b610e739060026113ea565b610fff565b600080865180518760208301019350808887011115610e975787860182525b505050602084015b60208410610ed75780518252610eb66020836112e7565b9150610ec36020826112e7565b9050610ed0602085611448565b9350610e9f565b60006001610ee6866020611448565b610ef290610100611342565b610efc9190611448565b9151835183169219169190911790915250849050949350505050565b6109cb8260028351610c96565b610f2d61104b565b83602001518310610f4d57610f4d8485602001516002610e7391906113ea565b835180516020858301018481535080851415610f6a576001810182525b5093949350505050565b610f7c61104b565b6020850151610f8b85846112e7565b1115610f9f57610f9f85610e6886856112e7565b60006001610faf84610100611342565b610fb99190611448565b9050855183868201018583198251161781525080518487011115610fdd5783860181525b509495945050505050565b600081831115610ff95750816108c9565b50919050565b815161100b8383610c3e565b50610cb18382610d69565b6040805160a08101825260008082526020820181905291810182905260608101919091526080810161104661104b565b905290565b604051806040016040528060608152602001600081525090565b60006020828403121561107757600080fd5b81356001600160a01b0381168114610d8357600080fd5b6000602082840312156110a057600080fd5b81518015158114610d8357600080fd5b600080604083850312156110c357600080fd5b50508035926020909101359150565b6000602082840312156110e457600080fd5b81356001600160401b03808211156110fb57600080fd5b818401915084601f83011261110f57600080fd5b813581811115611121576111216114f8565b604051601f8201601f19908116603f01168101908382118183101715611149576111496114f8565b8160405282815287602084870101111561116257600080fd5b826020860160208301376000928101602001929092525095945050505050565b60006020828403121561119457600080fd5b5051919050565b600081518084526111b381602086016020860161145f565b601f01601f19169290920160200192915050565b600083516111d981846020880161145f565b8351908301906111ed81836020880161145f565b01949350505050565b6001600160a01b0391909116815260200190565b6001600160a01b03929092168252602082015260400190565b6001600160a01b0389811682526020820189905260408201889052861660608201526001600160e01b03198516608082015260a0810184905260c0810183905261010060e0820181905260009061127c8382018561119b565b9b9a5050505050505050505050565b60018060a01b0384168152826020820152606060408201526000610899606083018461119b565b6020808252818101527f4f776e61626c653a2063616c6c6572206973206e6f7420746865206f776e6572604082015260600190565b600082198211156112fa576112fa6114e2565b500190565b600181815b8085111561133a578160001904821115611320576113206114e2565b8085161561132d57918102915b93841c9390800290611304565b509250929050565b6000610d838383600082611358575060016108c9565b81611365575060006108c9565b816001811461137b5760028114611385576113a1565b60019150506108c9565b60ff841115611396576113966114e2565b50506001821b6108c9565b5060208310610133831016604e8410600b84101617156113c4575081810a6108c9565b6113ce83836112ff565b80600019048211156113e2576113e26114e2565b029392505050565b6000816000190483118215151615611404576114046114e2565b500290565b60008083128015600160ff1b850184121615611427576114276114e2565b6001600160ff1b0384018313811615611442576114426114e2565b50500390565b60008282101561145a5761145a6114e2565b500390565b60005b8381101561147a578181015183820152602001611462565b83811115610cb15750506000910152565b600181811c9082168061149f57607f821691505b60208210811415610ff957634e487b7160e01b600052602260045260246000fd5b6000826114dd57634e487b7160e01b600052601260045260246000fd5b500690565b634e487b7160e01b600052601160045260246000fd5b634e487b7160e01b600052604160045260246000fdfea2646970667358221220985e023b205a392052ac4958feeb972ee320aa1faf89b303a05ef93e6290a53064736f6c63430008070033",
  "immutableReferences": {},
  "source": "// SPDX-License-Identifier: UNLICENSED\r\n\r\npragma solidity ^0.8.6;\r\n\r\nimport \"../../ChainlinkOracle.sol\";\r\n\r\ncontract LinkPoolOracle is ChainlinkOracle {\r\n    address public _oracleAddress = 0x56dd6586DB0D08c6Ce7B2f2805af28616E082455;\r\n    bytes32 public _jobId = \"b6602d14e4734c49a5e1ce19d45a4632\";\r\n    address public _linkAddress = 0xa36085F69e2889c224210F603D836748e7dC0088;\r\n    uint256 public _fee = 0.1 * 10 ** 18; //0.1 LINK\r\n\r\n    constructor (\r\n        int _decimals, \r\n        string memory _apiBaseURL, \r\n        string memory _apiPath)\r\n        ChainlinkOracle (\r\n            _oracleAddress, \r\n            _jobId,\r\n            _linkAddress,\r\n            _fee,\r\n            _decimals,\r\n            _apiBaseURL,\r\n            _apiPath\r\n        ) {\r\n    }\r\n}",
  "sourcePath": "C:\\Users\\Tomi\\OneDrive - The University of Chicago\\Documents\\Securrency\\FuturesExchange\\contracts\\Oracles\\LinkPoolOracles\\LinkPoolOracle.sol",
  "compiler": {
    "name": "solc",
    "version": "0.8.7+commit.e28d00a7.Emscripten.clang"
  },
  "schemaVersion": "3.4.2",
  "updatedAt": "2021-08-29T14:06:05.011Z",
  "devdoc": {
    "kind": "dev",
    "methods": {
      "owner()": {
        "details": "Returns the address of the current owner."
      },
      "renounceOwnership()": {
        "details": "Leaves the contract without owner. It will not be possible to call `onlyOwner` functions anymore. Can only be called by the current owner. NOTE: Renouncing ownership will leave the contract without an owner, thereby removing any functionality that is only available to the owner."
      },
      "transferOwnership(address)": {
        "details": "Transfers ownership of the contract to a new account (`newOwner`). Can only be called by the current owner."
      }
    },
    "version": 1
  },
  "userdoc": {
    "kind": "user",
    "methods": {},
    "version": 1
  }
}