{
  "contractName": "LinkPoolBTCUSDOracle",
  "abi": [
    {
      "inputs": [],
      "stateMutability": "nonpayable",
      "type": "constructor"
    },
    {
      "anonymous": false,
      "inputs": [
        {
          "indexed": true,
          "internalType": "bytes32",
          "name": "id",
          "type": "bytes32"
        }
      ],
      "name": "ChainlinkCancelled",
      "type": "event"
    },
    {
      "anonymous": false,
      "inputs": [
        {
          "indexed": true,
          "internalType": "bytes32",
          "name": "id",
          "type": "bytes32"
        }
      ],
      "name": "ChainlinkFulfilled",
      "type": "event"
    },
    {
      "anonymous": false,
      "inputs": [
        {
          "indexed": true,
          "internalType": "bytes32",
          "name": "id",
          "type": "bytes32"
        }
      ],
      "name": "ChainlinkRequested",
      "type": "event"
    },
    {
      "anonymous": false,
      "inputs": [
        {
          "indexed": false,
          "internalType": "bytes32",
          "name": "requestId",
          "type": "bytes32"
        }
      ],
      "name": "Fulfilled",
      "type": "event"
    },
    {
      "anonymous": false,
      "inputs": [
        {
          "indexed": false,
          "internalType": "address",
          "name": "withdrawer",
          "type": "address"
        },
        {
          "indexed": false,
          "internalType": "uint256",
          "name": "amount",
          "type": "uint256"
        }
      ],
      "name": "LinkWithdrawn",
      "type": "event"
    },
    {
      "anonymous": false,
      "inputs": [
        {
          "indexed": true,
          "internalType": "address",
          "name": "previousOwner",
          "type": "address"
        },
        {
          "indexed": true,
          "internalType": "address",
          "name": "newOwner",
          "type": "address"
        }
      ],
      "name": "OwnershipTransferred",
      "type": "event"
    },
    {
      "anonymous": false,
      "inputs": [
        {
          "indexed": false,
          "internalType": "address",
          "name": "sender",
          "type": "address"
        },
        {
          "indexed": false,
          "internalType": "uint256",
          "name": "amount",
          "type": "uint256"
        }
      ],
      "name": "Received",
      "type": "event"
    },
    {
      "anonymous": false,
      "inputs": [
        {
          "indexed": false,
          "internalType": "address",
          "name": "oracleAddress",
          "type": "address"
        },
        {
          "indexed": false,
          "internalType": "bytes32",
          "name": "jobId",
          "type": "bytes32"
        },
        {
          "indexed": false,
          "internalType": "uint256",
          "name": "fee",
          "type": "uint256"
        }
      ],
      "name": "RequestSent",
      "type": "event"
    },
    {
      "stateMutability": "payable",
      "type": "fallback"
    },
    {
      "inputs": [],
      "name": "__jobId",
      "outputs": [
        {
          "internalType": "bytes32",
          "name": "",
          "type": "bytes32"
        }
      ],
      "stateMutability": "view",
      "type": "function"
    },
    {
      "inputs": [],
      "name": "_apiPath_",
      "outputs": [
        {
          "internalType": "string",
          "name": "",
          "type": "string"
        }
      ],
      "stateMutability": "view",
      "type": "function"
    },
    {
      "inputs": [],
      "name": "_decimals_",
      "outputs": [
        {
          "internalType": "int256",
          "name": "",
          "type": "int256"
        }
      ],
      "stateMutability": "view",
      "type": "function"
    },
    {
      "inputs": [],
      "name": "_fee",
      "outputs": [
        {
          "internalType": "uint256",
          "name": "",
          "type": "uint256"
        }
      ],
      "stateMutability": "view",
      "type": "function"
    },
    {
      "inputs": [],
      "name": "_linkAddress",
      "outputs": [
        {
          "internalType": "address",
          "name": "",
          "type": "address"
        }
      ],
      "stateMutability": "view",
      "type": "function"
    },
    {
      "inputs": [],
      "name": "_oracleAddress",
      "outputs": [
        {
          "internalType": "address",
          "name": "",
          "type": "address"
        }
      ],
      "stateMutability": "view",
      "type": "function"
    },
    {
      "inputs": [],
      "name": "decimals",
      "outputs": [
        {
          "internalType": "int256",
          "name": "",
          "type": "int256"
        }
      ],
      "stateMutability": "view",
      "type": "function"
    },
    {
      "inputs": [],
      "name": "fee",
      "outputs": [
        {
          "internalType": "uint256",
          "name": "",
          "type": "uint256"
        }
      ],
      "stateMutability": "view",
      "type": "function"
    },
    {
      "inputs": [
        {
          "internalType": "bytes32",
          "name": "_requestId",
          "type": "bytes32"
        },
        {
          "internalType": "int256",
          "name": "_result",
          "type": "int256"
        }
      ],
      "name": "fulfillSigned",
      "outputs": [],
      "stateMutability": "nonpayable",
      "type": "function"
    },
    {
      "inputs": [
        {
          "internalType": "bytes32",
          "name": "_requestId",
          "type": "bytes32"
        },
        {
          "internalType": "uint256",
          "name": "_result",
          "type": "uint256"
        }
      ],
      "name": "fulfillUnsigned",
      "outputs": [],
      "stateMutability": "nonpayable",
      "type": "function"
    },
    {
      "inputs": [],
      "name": "getSignedResult",
      "outputs": [
        {
          "internalType": "int256",
          "name": "",
          "type": "int256"
        }
      ],
      "stateMutability": "view",
      "type": "function"
    },
    {
      "inputs": [],
      "name": "getUnsignedResult",
      "outputs": [
        {
          "internalType": "uint256",
          "name": "",
          "type": "uint256"
        }
      ],
      "stateMutability": "view",
      "type": "function"
    },
    {
      "inputs": [],
      "name": "isSignedResult",
      "outputs": [
        {
          "internalType": "bool",
          "name": "",
          "type": "bool"
        }
      ],
      "stateMutability": "view",
      "type": "function"
    },
    {
      "inputs": [],
      "name": "jobId",
      "outputs": [
        {
          "internalType": "bytes32",
          "name": "",
          "type": "bytes32"
        }
      ],
      "stateMutability": "view",
      "type": "function"
    },
    {
      "inputs": [],
      "name": "oracleAddress",
      "outputs": [
        {
          "internalType": "address",
          "name": "",
          "type": "address"
        }
      ],
      "stateMutability": "view",
      "type": "function"
    },
    {
      "inputs": [],
      "name": "owner",
      "outputs": [
        {
          "internalType": "address",
          "name": "",
          "type": "address"
        }
      ],
      "stateMutability": "view",
      "type": "function"
    },
    {
      "inputs": [],
      "name": "renounceOwnership",
      "outputs": [],
      "stateMutability": "nonpayable",
      "type": "function"
    },
    {
      "inputs": [
        {
          "internalType": "string",
          "name": "apiURLParameters",
          "type": "string"
        }
      ],
      "name": "requestIndexPrice",
      "outputs": [
        {
          "internalType": "bytes32",
          "name": "requestId",
          "type": "bytes32"
        }
      ],
      "stateMutability": "nonpayable",
      "type": "function"
    },
    {
      "inputs": [
        {
          "internalType": "address",
          "name": "newOwner",
          "type": "address"
        }
      ],
      "name": "transferOwnership",
      "outputs": [],
      "stateMutability": "nonpayable",
      "type": "function"
    },
    {
      "inputs": [],
      "name": "withdrawLink",
      "outputs": [],
      "stateMutability": "nonpayable",
      "type": "function"
    },
    {
      "stateMutability": "payable",
      "type": "receive"
    }
  ],
  "bytecode": "0x60806040526001600455600f80546001600160a01b03199081167356dd6586db0d08c6ce7b2f2805af28616e082455179091556010805490911673a36085f69e2889c224210f603d836748e7dc008817905567016345785d8a00006011557f623636303264313465343733346334396135653163653139643435613436333260125560646013553480156200009357600080fd5b5060135460405180608001604052806047815260200162001b11604791396040805180820190915260038152621554d160ea1b6020820152601254600f546010546011548692869286926000926001600160a01b03908116928892911690878787876200010033620001b2565b6001600160a01b0386166200011f576200011962000204565b6200012a565b6200012a8662000299565b600980546001600160a01b0319166001600160a01b038a16179055600a879055600e859055600d84905582516200016990600c906020860190620002bb565b5081516200017f90600b906020850190620002bb565b5060068054911515600160a01b0260ff60a01b1990921691909117905550620003d09d5050505050505050505050505050565b600680546001600160a01b038381166001600160a01b0319831681179093556040519116919082907f8be0079c531659141344cd1fd0a4f28419497f9722a3daafe3b4186f6b6457e090600090a35050565b6200029773c89bd4e1632d3a43cb03aaad5262cbe4038bc5716001600160a01b03166338cc48316040518163ffffffff1660e01b815260040160206040518083038186803b1580156200025657600080fd5b505afa1580156200026b573d6000803e3d6000fd5b505050506040513d601f19601f8201168201806040525081019062000291919062000361565b62000299565b565b600280546001600160a01b0319166001600160a01b0392909216919091179055565b828054620002c99062000393565b90600052602060002090601f016020900481019282620002ed576000855562000338565b82601f106200030857805160ff191683800117855562000338565b8280016001018555821562000338579182015b82811115620003385782518255916020019190600101906200031b565b50620003469291506200034a565b5090565b5b808211156200034657600081556001016200034b565b6000602082840312156200037457600080fd5b81516001600160a01b03811681146200038c57600080fd5b9392505050565b600181811c90821680620003a857607f821691505b60208210811415620003ca57634e487b7160e01b600052602260045260246000fd5b50919050565b61173180620003e06000396000f3fe6080604052600436106100f05760003560e01c8063185defc614610132578063313ce567146101685780634665e65a1461018c57806351744bca146101a257806369723be7146101c25780636fb7cb57146101e2578063715018a6146102025780637e0b66d0146102175780638da5cb5b146102375780638dc654a21461024c578063918c00b9146102615780639df49c2314610292578063a89ae4ba146102a7578063bd2563fb146102c7578063c2939d97146102dc578063c5b37c22146102f2578063d233da0814610308578063ddca3f431461031e578063de0a217d14610334578063f2fde38b1461037057005b36610130577f88a5966d370b9919b20f3e2c13ff65706f196a4e32cc2c12bf57088f88525874333460405161012692919061135c565b60405180910390a1005b005b34801561013e57600080fd5b50601054610152906001600160a01b031681565b60405161015f9190611348565b60405180910390f35b34801561017457600080fd5b5061017e600d5481565b60405190815260200161015f565b34801561019857600080fd5b5061017e60125481565b3480156101ae57600080fd5b506101306101bd366004611202565b610390565b3480156101ce57600080fd5b5061017e6101dd366004611224565b61042e565b3480156101ee57600080fd5b50600f54610152906001600160a01b031681565b34801561020e57600080fd5b50610130610695565b34801561022357600080fd5b50610130610232366004611202565b6106d0565b34801561024357600080fd5b5061015261075c565b34801561025857600080fd5b5061013061076b565b34801561026d57600080fd5b5060065461028290600160a01b900460ff1681565b604051901515815260200161015f565b34801561029e57600080fd5b5060075461017e565b3480156102b357600080fd5b50600954610152906001600160a01b031681565b3480156102d357600080fd5b5060085461017e565b3480156102e857600080fd5b5061017e600a5481565b3480156102fe57600080fd5b5061017e60115481565b34801561031457600080fd5b5061017e60135481565b34801561032a57600080fd5b5061017e600e5481565b34801561034057600080fd5b50610363604051806040016040528060038152602001621554d160ea1b81525081565b60405161015f9190611404565b34801561037c57600080fd5b5061013061038b3660046111b7565b61092f565b60008281526005602052604090205482906001600160a01b031633146103d15760405162461bcd60e51b81526004016103c89061144c565b60405180910390fd5b60008181526005602052604080822080546001600160a01b03191690555182916000805160206116dc83398151915291a260088290556040518381526000805160206116bc833981519152906020015b60405180910390a1505050565b6000610438611168565b600654600160a01b900460ff161561046657600a5461045f90306328ba25e560e11b6109cf565b905061047e565b600a5461047b90306307e0b66d60e41b6109cf565b90505b6105396040518060400160405280600381526020016219d95d60ea1b815250610531600c80546104ad90611638565b80601f01602080910402602001604051908101604052809291908181526020018280546104d990611638565b80156105265780601f106104fb57610100808354040283529160200191610526565b820191906000526020600020905b81548152906001019060200180831161050957829003601f168201915b5050505050866109f4565b839190610a21565b6105f4604051806040016040528060048152602001630e0c2e8d60e31b815250600b805461056690611638565b80601f016020809104026020016040519081016040528092919081815260200182805461059290611638565b80156105df5780601f106105b4576101008083540402835291602001916105df565b820191906000526020600020905b8154815290600101906020018083116105c257829003601f168201915b505050505083610a219092919063ffffffff16565b60408051808201909152600581526474696d657360d81b6020820152600d5461061e918391610a44565b600954600e54610639916001600160a01b0316908390610a62565b600954600a54600e54604080516001600160a01b0390941684526020840192909252908201529092507f5de0ca4d601c6369aafe37da9bab92be9804895234cdb72d8181492e84e6bcb29060600160405180910390a150919050565b3361069e61075c565b6001600160a01b0316146106c45760405162461bcd60e51b81526004016103c890611417565b6106ce6000610a81565b565b60008281526005602052604090205482906001600160a01b031633146107085760405162461bcd60e51b81526004016103c89061144c565b60008181526005602052604080822080546001600160a01b03191690555182916000805160206116dc83398151915291a260078290556040518381526000805160206116bc83398151915290602001610421565b6006546001600160a01b031690565b3361077461075c565b6001600160a01b03161461079a5760405162461bcd60e51b81526004016103c890611417565b60006107ae6002546001600160a01b031690565b90506000816001600160a01b03166370a08231306040518263ffffffff1660e01b81526004016107de9190611348565b60206040518083038186803b1580156107f657600080fd5b505afa15801561080a573d6000803e3d6000fd5b505050506040513d601f19601f8201168201806040525081019061082e91906112d4565b60405163a9059cbb60e01b81529091506001600160a01b0383169063a9059cbb9061085f903390859060040161135c565b602060405180830381600087803b15801561087957600080fd5b505af115801561088d573d6000803e3d6000fd5b505050506040513d601f19601f820116820180604052508101906108b191906111e0565b6108f25760405162461bcd60e51b8152602060048201526012602482015271556e61626c6520746f20776974686472617760701b60448201526064016103c8565b7fcb1436249a1dd8cf93362c28d79a4e20dc54398b6c49e30316e8396e72a584b0338260405161092392919061135c565b60405180910390a15050565b3361093861075c565b6001600160a01b03161461095e5760405162461bcd60e51b81526004016103c890611417565b6001600160a01b0381166109c35760405162461bcd60e51b815260206004820152602660248201527f4f776e61626c653a206e6577206f776e657220697320746865207a65726f206160448201526564647265737360d01b60648201526084016103c8565b6109cc81610a81565b50565b6109d7611168565b6109df611168565b6109eb81868686610ad3565b95945050505050565b60608282604051602001610a09929190611319565b60405160208183030381529060405290505b92915050565b6080830151610a309083610b10565b6080830151610a3f9082610b10565b505050565b6080830151610a539083610b10565b6080830151610a3f9082610b27565b6000610a7984848460016320214ca360e11b610b89565b949350505050565b600680546001600160a01b038381166001600160a01b0319831681179093556040519116919082907f8be0079c531659141344cd1fd0a4f28419497f9722a3daafe3b4186f6b6457e090600090a35050565b610adb611168565b610aeb8560800151610100610d90565b50509183526001600160a01b031660208301526001600160e01b031916604082015290565b610b1d8260038351610de8565b610a3f8282610ebb565b6001600160401b0319811215610b4557610b418282610edc565b5050565b6001600160401b03811315610b5e57610b418282610f1e565b60008112610b7257610b4182600083610de8565b610b41826001610b84846000196115b6565b610de8565b6004546040516001600160601b03193060601b166020820152603481019190915260009060540160408051808303601f19018152918152815160209283012060045460608901526000818152600590935281832080546001600160a01b0319166001600160a01b038b16179055905190925082917fb5e6e01e79f91267dc17b4e6314d5d4d03593d2ceee0fbb452b750bd70ea5af991a2600082600080886000015189602001518a604001518b606001518a8d6080015160000151604051602401610c5b989796959493929190611375565b60408051601f198184030181529181526020820180516001600160e01b03166001600160e01b0319909416939093179092526002549151630200057560e51b81529092506001600160a01b0390911690634000aea090610cc3908a90899086906004016113dd565b602060405180830381600087803b158015610cdd57600080fd5b505af1158015610cf1573d6000803e3d6000fd5b505050506040513d601f19601f82011682018060405250810190610d1591906111e0565b610d6d5760405162461bcd60e51b815260206004820152602360248201527f756e61626c6520746f207472616e73666572416e6443616c6c20746f206f7261604482015262636c6560e81b60648201526084016103c8565b600160046000828254610d809190611494565b9091555091979650505050505050565b610d9861119d565b610da360208361166d565b15610dcb57610db360208361166d565b610dbe9060206115f5565b610dc89083611494565b91505b506020828101829052604080518085526000815290920101905290565b60178111610e0957610e038360e0600585901b168317610f41565b50505050565b60ff8111610e3357610e26836018611fe0600586901b1617610f41565b50610e0383826001610f59565b61ffff8111610e5e57610e51836019611fe0600586901b1617610f41565b50610e0383826002610f59565b63ffffffff8111610e8b57610e7e83601a611fe0600586901b1617610f41565b50610e0383826004610f59565b6001600160401b038111610a3f57610eae83601b611fe0600586901b1617610f41565b50610e0383826008610f59565b610ec361119d565b610ed583846000015151848551610f72565b9392505050565b610ee78260c3610f41565b50610b4182610ef8836000196115b6565b604051602001610f0a91815260200190565b60405160208183030381529060405261106a565b610f298260c2610f41565b50610b418282604051602001610f0a91815260200190565b610f4961119d565b610ed58384600001515184611077565b610f6161119d565b610a798485600001515185856110c6565b610f7a61119d565b8251821115610f8857600080fd5b6020850151610f978386611494565b1115610fca57610fca85610fba87602001518786610fb59190611494565b61113a565b610fc5906002611597565b611151565b600080865180518760208301019350808887011115610fe95787860182525b505050602084015b602084106110295780518252611008602083611494565b9150611015602082611494565b90506110226020856115f5565b9350610ff1565b600060016110388660206115f5565b611044906101006114ef565b61104e91906115f5565b9151835183169219169190911790915250849050949350505050565b610b1d8260028351610de8565b61107f61119d565b8360200151831061109f5761109f8485602001516002610fc59190611597565b8351805160208583010184815350808514156110bc576001810182525b5093949350505050565b6110ce61119d565b60208501516110dd8584611494565b11156110f1576110f185610fba8685611494565b60006001611101846101006114ef565b61110b91906115f5565b905085518386820101858319825116178152508051848701111561112f5783860181525b509495945050505050565b60008183111561114b575081610a1b565b50919050565b815161115d8383610d90565b50610e038382610ebb565b6040805160a08101825260008082526020820181905291810182905260608101919091526080810161119861119d565b905290565b604051806040016040528060608152602001600081525090565b6000602082840312156111c957600080fd5b81356001600160a01b0381168114610ed557600080fd5b6000602082840312156111f257600080fd5b81518015158114610ed557600080fd5b6000806040838503121561121557600080fd5b50508035926020909101359150565b60006020828403121561123657600080fd5b81356001600160401b038082111561124d57600080fd5b818401915084601f83011261126157600080fd5b813581811115611273576112736116a5565b604051601f8201601f19908116603f0116810190838211818310171561129b5761129b6116a5565b816040528281528760208487010111156112b457600080fd5b826020860160208301376000928101602001929092525095945050505050565b6000602082840312156112e657600080fd5b5051919050565b6000815180845261130581602086016020860161160c565b601f01601f19169290920160200192915050565b6000835161132b81846020880161160c565b83519083019061133f81836020880161160c565b01949350505050565b6001600160a01b0391909116815260200190565b6001600160a01b03929092168252602082015260400190565b6001600160a01b0389811682526020820189905260408201889052861660608201526001600160e01b03198516608082015260a0810184905260c0810183905261010060e082018190526000906113ce838201856112ed565b9b9a5050505050505050505050565b60018060a01b03841681528260208201526060604082015260006109eb60608301846112ed565b602081526000610ed560208301846112ed565b6020808252818101527f4f776e61626c653a2063616c6c6572206973206e6f7420746865206f776e6572604082015260600190565b60208082526028908201527f536f75726365206d75737420626520746865206f7261636c65206f6620746865604082015267081c995c5d595cdd60c21b606082015260800190565b600082198211156114a7576114a761168f565b500190565b600181815b808511156114e75781600019048211156114cd576114cd61168f565b808516156114da57918102915b93841c93908002906114b1565b509250929050565b6000610ed5838360008261150557506001610a1b565b8161151257506000610a1b565b816001811461152857600281146115325761154e565b6001915050610a1b565b60ff8411156115435761154361168f565b50506001821b610a1b565b5060208310610133831016604e8410600b8410161715611571575081810a610a1b565b61157b83836114ac565b806000190482111561158f5761158f61168f565b029392505050565b60008160001904831182151516156115b1576115b161168f565b500290565b60008083128015600160ff1b8501841216156115d4576115d461168f565b6001600160ff1b03840183138116156115ef576115ef61168f565b50500390565b6000828210156116075761160761168f565b500390565b60005b8381101561162757818101518382015260200161160f565b83811115610e035750506000910152565b600181811c9082168061164c57607f821691505b6020821081141561114b57634e487b7160e01b600052602260045260246000fd5b60008261168a57634e487b7160e01b600052601260045260246000fd5b500690565b634e487b7160e01b600052601160045260246000fd5b634e487b7160e01b600052604160045260246000fdfe6930ee93026433301a14b1baa0b52ca0d4640cb1edaa703beeb9056e235269847cc135e0cebb02c3480ae5d74d377283180a2601f8f644edf7987b009316c63aa2646970667358221220a42504bb20b0b1eecbd5101051c45d5b6320a344331f1119d278364cb8ad6ebe64736f6c6343000807003368747470733a2f2f6d696e2d6170692e63727970746f636f6d706172652e636f6d2f646174612f70726963653f6673796d3d425443267473796d733d5553442c4a50592c455552",
  "immutableReferences": {},
  "source": "// SPDX-License-Identifier: UNLICENSED\r\n\r\npragma solidity ^0.8.6;\r\n\r\nimport \"./LinkPoolUintOracle.sol\";\r\n\r\ncontract LinkPoolBTCUSDOracle is LinkPoolUintOracle {\r\n    int public _decimals_ = 10 ** 2;\r\n    string private constant _apiBaseURL_ = \"https://min-api.cryptocompare.com/data/price?fsym=BTC&tsyms=USD,JPY,EUR\";\r\n    string public constant _apiPath_ = \"USD\";\r\n    \r\n\r\n    constructor()\r\n       LinkPoolUintOracle (\r\n           _decimals_,\r\n           _apiBaseURL_,\r\n           _apiPath_\r\n       ) {\r\n    }\r\n}",
  "sourcePath": "C:\\Users\\Tomi\\OneDrive - The University of Chicago\\Documents\\Securrency\\FuturesExchange\\contracts\\Oracles\\LinkPoolOracles\\LinkPoolBTCUSDOracle.sol",
  "compiler": {
    "name": "solc",
    "version": "0.8.7+commit.e28d00a7.Emscripten.clang"
  },
  "schemaVersion": "3.4.2",
  "updatedAt": "2021-09-16T13:58:13.269Z",
  "devdoc": {
    "kind": "dev",
    "methods": {
      "owner()": {
        "details": "Returns the address of the current owner."
      },
      "renounceOwnership()": {
        "details": "Leaves the contract without owner. It will not be possible to call `onlyOwner` functions anymore. Can only be called by the current owner. NOTE: Renouncing ownership will leave the contract without an owner, thereby removing any functionality that is only available to the owner."
      },
      "transferOwnership(address)": {
        "details": "Transfers ownership of the contract to a new account (`newOwner`). Can only be called by the current owner."
      }
    },
    "version": 1
  },
  "userdoc": {
    "kind": "user",
    "methods": {},
    "version": 1
  }
}