{
  "contractName": "LinkPoolBTCUSDOracle",
  "abi": [
    {
      "inputs": [],
      "stateMutability": "nonpayable",
      "type": "constructor"
    },
    {
      "anonymous": false,
      "inputs": [
        {
          "indexed": true,
          "internalType": "bytes32",
          "name": "id",
          "type": "bytes32"
        }
      ],
      "name": "ChainlinkCancelled",
      "type": "event"
    },
    {
      "anonymous": false,
      "inputs": [
        {
          "indexed": true,
          "internalType": "bytes32",
          "name": "id",
          "type": "bytes32"
        }
      ],
      "name": "ChainlinkFulfilled",
      "type": "event"
    },
    {
      "anonymous": false,
      "inputs": [
        {
          "indexed": true,
          "internalType": "bytes32",
          "name": "id",
          "type": "bytes32"
        }
      ],
      "name": "ChainlinkRequested",
      "type": "event"
    },
    {
      "anonymous": false,
      "inputs": [
        {
          "indexed": false,
          "internalType": "bytes32",
          "name": "requestId",
          "type": "bytes32"
        }
      ],
      "name": "Fulfilled",
      "type": "event"
    },
    {
      "anonymous": false,
      "inputs": [
        {
          "indexed": false,
          "internalType": "address",
          "name": "withdrawer",
          "type": "address"
        },
        {
          "indexed": false,
          "internalType": "uint256",
          "name": "amount",
          "type": "uint256"
        }
      ],
      "name": "LinkWithdrawn",
      "type": "event"
    },
    {
      "anonymous": false,
      "inputs": [
        {
          "indexed": true,
          "internalType": "address",
          "name": "previousOwner",
          "type": "address"
        },
        {
          "indexed": true,
          "internalType": "address",
          "name": "newOwner",
          "type": "address"
        }
      ],
      "name": "OwnershipTransferred",
      "type": "event"
    },
    {
      "anonymous": false,
      "inputs": [
        {
          "indexed": false,
          "internalType": "address",
          "name": "sender",
          "type": "address"
        },
        {
          "indexed": false,
          "internalType": "uint256",
          "name": "amount",
          "type": "uint256"
        }
      ],
      "name": "Received",
      "type": "event"
    },
    {
      "anonymous": false,
      "inputs": [
        {
          "indexed": false,
          "internalType": "address",
          "name": "oracleAddress",
          "type": "address"
        },
        {
          "indexed": false,
          "internalType": "bytes32",
          "name": "jobId",
          "type": "bytes32"
        },
        {
          "indexed": false,
          "internalType": "uint256",
          "name": "fee",
          "type": "uint256"
        }
      ],
      "name": "RequestSent",
      "type": "event"
    },
    {
      "stateMutability": "payable",
      "type": "fallback"
    },
    {
      "inputs": [],
      "name": "__jobId",
      "outputs": [
        {
          "internalType": "bytes32",
          "name": "",
          "type": "bytes32"
        }
      ],
      "stateMutability": "view",
      "type": "function"
    },
    {
      "inputs": [],
      "name": "_apiPath_",
      "outputs": [
        {
          "internalType": "string",
          "name": "",
          "type": "string"
        }
      ],
      "stateMutability": "view",
      "type": "function"
    },
    {
      "inputs": [],
      "name": "_decimals_",
      "outputs": [
        {
          "internalType": "int256",
          "name": "",
          "type": "int256"
        }
      ],
      "stateMutability": "view",
      "type": "function"
    },
    {
      "inputs": [],
      "name": "_fee",
      "outputs": [
        {
          "internalType": "uint256",
          "name": "",
          "type": "uint256"
        }
      ],
      "stateMutability": "view",
      "type": "function"
    },
    {
      "inputs": [],
      "name": "_linkAddress",
      "outputs": [
        {
          "internalType": "address",
          "name": "",
          "type": "address"
        }
      ],
      "stateMutability": "view",
      "type": "function"
    },
    {
      "inputs": [],
      "name": "_oracleAddress",
      "outputs": [
        {
          "internalType": "address",
          "name": "",
          "type": "address"
        }
      ],
      "stateMutability": "view",
      "type": "function"
    },
    {
      "inputs": [],
      "name": "decimals",
      "outputs": [
        {
          "internalType": "int256",
          "name": "",
          "type": "int256"
        }
      ],
      "stateMutability": "view",
      "type": "function"
    },
    {
      "inputs": [],
      "name": "fee",
      "outputs": [
        {
          "internalType": "uint256",
          "name": "",
          "type": "uint256"
        }
      ],
      "stateMutability": "view",
      "type": "function"
    },
    {
      "inputs": [
        {
          "internalType": "bytes32",
          "name": "_requestId",
          "type": "bytes32"
        },
        {
          "internalType": "int256",
          "name": "_result",
          "type": "int256"
        }
      ],
      "name": "fulfillSigned",
      "outputs": [],
      "stateMutability": "nonpayable",
      "type": "function"
    },
    {
      "inputs": [
        {
          "internalType": "bytes32",
          "name": "_requestId",
          "type": "bytes32"
        },
        {
          "internalType": "uint256",
          "name": "_result",
          "type": "uint256"
        }
      ],
      "name": "fulfillUnsigned",
      "outputs": [],
      "stateMutability": "nonpayable",
      "type": "function"
    },
    {
      "inputs": [],
      "name": "getSignedResult",
      "outputs": [
        {
          "internalType": "int256",
          "name": "",
          "type": "int256"
        }
      ],
      "stateMutability": "view",
      "type": "function"
    },
    {
      "inputs": [],
      "name": "getUnsignedResult",
      "outputs": [
        {
          "internalType": "uint256",
          "name": "",
          "type": "uint256"
        }
      ],
      "stateMutability": "view",
      "type": "function"
    },
    {
      "inputs": [],
      "name": "isSignedResult",
      "outputs": [
        {
          "internalType": "bool",
          "name": "",
          "type": "bool"
        }
      ],
      "stateMutability": "view",
      "type": "function"
    },
    {
      "inputs": [],
      "name": "jobId",
      "outputs": [
        {
          "internalType": "bytes32",
          "name": "",
          "type": "bytes32"
        }
      ],
      "stateMutability": "view",
      "type": "function"
    },
    {
      "inputs": [],
      "name": "oracleAddress",
      "outputs": [
        {
          "internalType": "address",
          "name": "",
          "type": "address"
        }
      ],
      "stateMutability": "view",
      "type": "function"
    },
    {
      "inputs": [],
      "name": "owner",
      "outputs": [
        {
          "internalType": "address",
          "name": "",
          "type": "address"
        }
      ],
      "stateMutability": "view",
      "type": "function"
    },
    {
      "inputs": [],
      "name": "renounceOwnership",
      "outputs": [],
      "stateMutability": "nonpayable",
      "type": "function"
    },
    {
      "inputs": [
        {
          "internalType": "string",
          "name": "apiURLParameters",
          "type": "string"
        }
      ],
      "name": "requestIndexPrice",
      "outputs": [
        {
          "internalType": "bytes32",
          "name": "requestId",
          "type": "bytes32"
        }
      ],
      "stateMutability": "nonpayable",
      "type": "function"
    },
    {
      "inputs": [
        {
          "internalType": "address",
          "name": "newOwner",
          "type": "address"
        }
      ],
      "name": "transferOwnership",
      "outputs": [],
      "stateMutability": "nonpayable",
      "type": "function"
    },
    {
      "inputs": [],
      "name": "withdrawLink",
      "outputs": [],
      "stateMutability": "nonpayable",
      "type": "function"
    },
    {
      "stateMutability": "payable",
      "type": "receive"
    }
  ],
  "bytecode": "0x60806040526001600455600f80546001600160a01b03199081167356dd6586db0d08c6ce7b2f2805af28616e082455179091556010805490911673a36085f69e2889c224210f603d836748e7dc008817905567016345785d8a00006011557f623636303264313465343733346334396135653163653139643435613436333260125560646013553480156200009357600080fd5b5060135460405180608001604052806047815260200162001eb8604791396040805180820190915260038152621554d160ea1b6020820152601254600f546010546011548692869286926000926001600160a01b03908116928892911690878787876200010033620001c3565b6001600160a01b0386166200011f576200011962000215565b6200013b565b600280546001600160a01b0319166001600160a01b0388161790555b600980546001600160a01b0319166001600160a01b038a16179055600a879055600e859055600d84905582516200017a90600c906020860190620002c6565b5081516200019090600b906020850190620002c6565b5060068054911515600160a01b0260ff60a01b1990921691909117905550620003db9d5050505050505050505050505050565b600680546001600160a01b038381166001600160a01b0319831681179093556040519116919082907f8be0079c531659141344cd1fd0a4f28419497f9722a3daafe3b4186f6b6457e090600090a35050565b620002c473c89bd4e1632d3a43cb03aaad5262cbe4038bc5716001600160a01b03166338cc48316040518163ffffffff1660e01b815260040160206040518083038186803b1580156200026757600080fd5b505afa1580156200027c573d6000803e3d6000fd5b505050506040513d601f19601f82011682018060405250810190620002a291906200036c565b600280546001600160a01b0319166001600160a01b0392909216919091179055565b565b828054620002d4906200039e565b90600052602060002090601f016020900481019282620002f8576000855562000343565b82601f106200031357805160ff191683800117855562000343565b8280016001018555821562000343579182015b828111156200034357825182559160200191906001019062000326565b506200035192915062000355565b5090565b5b8082111562000351576000815560010162000356565b6000602082840312156200037f57600080fd5b81516001600160a01b03811681146200039757600080fd5b9392505050565b600181811c90821680620003b357607f821691505b60208210811415620003d557634e487b7160e01b600052602260045260246000fd5b50919050565b611acd80620003eb6000396000f3fe60806040526004361061014b5760003560e01c8063918c00b9116100b4578063c5b37c221161006e578063ddca3f4311610056578063ddca3f4314610388578063de0a217d1461039e578063f2fde38b146103f457005b8063c5b37c221461035c578063d233da081461037257005b8063a89ae4ba1161009c578063a89ae4ba14610311578063bd2563fb14610331578063c2939d971461034657005b8063918c00b9146102cb5780639df49c23146102fc57005b80636fb7cb57116101055780637e0b66d0116100ed5780637e0b66d0146102785780638da5cb5b146102985780638dc654a2146102b657005b80636fb7cb5714610243578063715018a61461026357005b80634665e65a116101335780634665e65a146101ed57806351744bca1461020357806369723be71461022357005b8063185defc61461018c578063313ce567146101c957005b3661018a57604080513381523460208201527f88a5966d370b9919b20f3e2c13ff65706f196a4e32cc2c12bf57088f88525874910160405180910390a1005b005b34801561019857600080fd5b506010546101ac906001600160a01b031681565b6040516001600160a01b0390911681526020015b60405180910390f35b3480156101d557600080fd5b506101df600d5481565b6040519081526020016101c0565b3480156101f957600080fd5b506101df60125481565b34801561020f57600080fd5b5061018a61021e36600461163d565b610414565b34801561022f57600080fd5b506101df61023e36600461165f565b610520565b34801561024f57600080fd5b50600f546101ac906001600160a01b031681565b34801561026f57600080fd5b5061018a61083a565b34801561028457600080fd5b5061018a61029336600461163d565b6108a0565b3480156102a457600080fd5b506006546001600160a01b03166101ac565b3480156102c257600080fd5b5061018a61099e565b3480156102d757600080fd5b506006546102ec90600160a01b900460ff1681565b60405190151581526020016101c0565b34801561030857600080fd5b506007546101df565b34801561031d57600080fd5b506009546101ac906001600160a01b031681565b34801561033d57600080fd5b506008546101df565b34801561035257600080fd5b506101df600a5481565b34801561036857600080fd5b506101df60115481565b34801561037e57600080fd5b506101df60135481565b34801561039457600080fd5b506101df600e5481565b3480156103aa57600080fd5b506103e76040518060400160405280600381526020017f555344000000000000000000000000000000000000000000000000000000000081525081565b6040516101c09190611828565b34801561040057600080fd5b5061018a61040f3660046115f2565b610bc7565b60008281526005602052604090205482906001600160a01b031633146104925760405162461bcd60e51b815260206004820152602860248201527f536f75726365206d75737420626520746865206f7261636c65206f6620746865604482015267081c995c5d595cdd60c21b60648201526084015b60405180910390fd5b600081815260056020526040808220805473ffffffffffffffffffffffffffffffffffffffff191690555182917f7cc135e0cebb02c3480ae5d74d377283180a2601f8f644edf7987b009316c63a91a260088290556040518381527f6930ee93026433301a14b1baa0b52ca0d4640cb1edaa703beeb9056e23526984906020015b60405180910390a1505050565b60006105606040805160a0810182526000808252602080830182905282840182905260608084018390528451808601909552845283015290608082015290565b600654600160a01b900460ff16156105a757600a546105a090307f51744bca00000000000000000000000000000000000000000000000000000000610ca9565b90506105d8565b600a546105d590307f7e0b66d000000000000000000000000000000000000000000000000000000000610ca9565b90505b6106ad6040518060400160405280600381526020017f67657400000000000000000000000000000000000000000000000000000000008152506106a5600c805461062190611a14565b80601f016020809104026020016040519081016040528092919081815260200182805461064d90611a14565b801561069a5780601f1061066f5761010080835404028352916020019161069a565b820191906000526020600020905b81548152906001019060200180831161067d57829003601f168201915b505050505086610d3a565b839190610d67565b6107816040518060400160405280600481526020017f7061746800000000000000000000000000000000000000000000000000000000815250600b80546106f390611a14565b80601f016020809104026020016040519081016040528092919081815260200182805461071f90611a14565b801561076c5780601f106107415761010080835404028352916020019161076c565b820191906000526020600020905b81548152906001019060200180831161074f57829003601f168201915b505050505083610d679092919063ffffffff16565b60408051808201909152600581527f74696d65730000000000000000000000000000000000000000000000000000006020820152600d546107c3918391610d8a565b600954600e546107de916001600160a01b0316908390610da8565b600954600a54600e54604080516001600160a01b0390941684526020840192909252908201529092507f5de0ca4d601c6369aafe37da9bab92be9804895234cdb72d8181492e84e6bcb29060600160405180910390a150919050565b6006546001600160a01b031633146108945760405162461bcd60e51b815260206004820181905260248201527f4f776e61626c653a2063616c6c6572206973206e6f7420746865206f776e65726044820152606401610489565b61089e6000610de0565b565b60008281526005602052604090205482906001600160a01b031633146109195760405162461bcd60e51b815260206004820152602860248201527f536f75726365206d75737420626520746865206f7261636c65206f6620746865604482015267081c995c5d595cdd60c21b6064820152608401610489565b600081815260056020526040808220805473ffffffffffffffffffffffffffffffffffffffff191690555182917f7cc135e0cebb02c3480ae5d74d377283180a2601f8f644edf7987b009316c63a91a260078290556040518381527f6930ee93026433301a14b1baa0b52ca0d4640cb1edaa703beeb9056e2352698490602001610513565b6006546001600160a01b031633146109f85760405162461bcd60e51b815260206004820181905260248201527f4f776e61626c653a2063616c6c6572206973206e6f7420746865206f776e65726044820152606401610489565b6000610a0c6002546001600160a01b031690565b6040517f70a082310000000000000000000000000000000000000000000000000000000081523060048201529091506000906001600160a01b038316906370a082319060240160206040518083038186803b158015610a6a57600080fd5b505afa158015610a7e573d6000803e3d6000fd5b505050506040513d601f19601f82011682018060405250810190610aa29190611710565b6040517fa9059cbb000000000000000000000000000000000000000000000000000000008152336004820152602481018290529091506001600160a01b0383169063a9059cbb90604401602060405180830381600087803b158015610b0657600080fd5b505af1158015610b1a573d6000803e3d6000fd5b505050506040513d601f19601f82011682018060405250810190610b3e919061161b565b610b8a5760405162461bcd60e51b815260206004820152601260248201527f556e61626c6520746f20776974686472617700000000000000000000000000006044820152606401610489565b60408051338152602081018390527fcb1436249a1dd8cf93362c28d79a4e20dc54398b6c49e30316e8396e72a584b0910160405180910390a15050565b6006546001600160a01b03163314610c215760405162461bcd60e51b815260206004820181905260248201527f4f776e61626c653a2063616c6c6572206973206e6f7420746865206f776e65726044820152606401610489565b6001600160a01b038116610c9d5760405162461bcd60e51b815260206004820152602660248201527f4f776e61626c653a206e6577206f776e657220697320746865207a65726f206160448201527f64647265737300000000000000000000000000000000000000000000000000006064820152608401610489565b610ca681610de0565b50565b610ce76040805160a0810182526000808252602080830182905282840182905260608084018390528451808601909552845283015290608082015290565b610d256040805160a0810182526000808252602080830182905282840182905260608084018390528451808601909552845283015290608082015290565b610d3181868686610e3f565b95945050505050565b60608282604051602001610d4f929190611755565b60405160208183030381529060405290505b92915050565b6080830151610d769083610eca565b6080830151610d859082610eca565b505050565b6080830151610d999083610eca565b6080830151610d859082610ee1565b6000610dd884848460017f4042994600000000000000000000000000000000000000000000000000000000610f45565b949350505050565b600680546001600160a01b0383811673ffffffffffffffffffffffffffffffffffffffff19831681179093556040519116919082907f8be0079c531659141344cd1fd0a4f28419497f9722a3daafe3b4186f6b6457e090600090a35050565b610e7d6040805160a0810182526000808252602080830182905282840182905260608084018390528451808601909552845283015290608082015290565b610e8d85608001516101006111be565b50509183526001600160a01b031660208301527fffffffff0000000000000000000000000000000000000000000000000000000016604082015290565b610ed78260038351611223565b610d8582826112f7565b67ffffffffffffffff19811215610f0057610efc8282611325565b5050565b67ffffffffffffffff811315610f1a57610efc8282611367565b60008112610f2e57610efc82600083611223565b610efc826001610f408460001961195d565b611223565b6004546040516bffffffffffffffffffffffff193060601b166020820152603481019190915260009060540160408051808303601f190181529181528151602092830120600454606089015260008181526005909352818320805473ffffffffffffffffffffffffffffffffffffffff19166001600160a01b038b16179055905190925082917fb5e6e01e79f91267dc17b4e6314d5d4d03593d2ceee0fbb452b750bd70ea5af991a2600082600080886000015189602001518a604001518b606001518a8d6080015160000151604051602401611029989796959493929190611784565b60408051601f198184030181529181526020820180517bffffffffffffffffffffffffffffffffffffffffffffffffffffffff167fffffffff000000000000000000000000000000000000000000000000000000009094169390931790925260025491517f4000aea00000000000000000000000000000000000000000000000000000000081529092506001600160a01b0390911690634000aea0906110d7908a9089908690600401611800565b602060405180830381600087803b1580156110f157600080fd5b505af1158015611105573d6000803e3d6000fd5b505050506040513d601f19601f82011682018060405250810190611129919061161b565b61119b5760405162461bcd60e51b815260206004820152602360248201527f756e61626c6520746f207472616e73666572416e6443616c6c20746f206f726160448201527f636c6500000000000000000000000000000000000000000000000000000000006064820152608401610489565b6001600460008282546111ae919061183b565b9091555091979650505050505050565b6040805180820190915260608152600060208201526111de602083611a49565b15611206576111ee602083611a49565b6111f99060206119d1565b611203908361183b565b91505b506020828101829052604080518085526000815290920101905290565b601781116112445761123e8360e0600585901b16831761138a565b50505050565b60ff811161126e57611261836018611fe0600586901b161761138a565b5061123e838260016113af565b61ffff81116112995761128c836019611fe0600586901b161761138a565b5061123e838260026113af565b63ffffffff81116112c6576112b983601a611fe0600586901b161761138a565b5061123e838260046113af565b67ffffffffffffffff8111610d85576112ea83601b611fe0600586901b161761138a565b5061123e838260086113af565b60408051808201909152606081526000602082015261131e838460000151518485516113d5565b9392505050565b6113308260c361138a565b50610efc826113418360001961195d565b60405160200161135391815260200190565b6040516020818303038152906040526114da565b6113728260c261138a565b50610efc828260405160200161135391815260200190565b60408051808201909152606081526000602082015261131e83846000015151846114e7565b604080518082019091526060815260006020820152610dd8848560000151518585611543565b60408051808201909152606081526000602082015282518211156113f857600080fd5b6020850151611407838661183b565b111561143a5761143a8561142a87602001518786611425919061183b565b6115c4565b61143590600261193e565b6115db565b6000808651805187602083010193508088870111156114595787860182525b505050602084015b60208410611499578051825261147860208361183b565b915061148560208261183b565b90506114926020856119d1565b9350611461565b600060016114a88660206119d1565b6114b490610100611896565b6114be91906119d1565b9151835183169219169190911790915250849050949350505050565b610ed78260028351611223565b6040805180820190915260608152600060208201528360200151831061151c5761151c8485602001516002611435919061193e565b835180516020858301018481535080851415611539576001810182525b5093949350505050565b6040805180820190915260608152600060208201526020850151611567858461183b565b111561157b5761157b8561142a868561183b565b6000600161158b84610100611896565b61159591906119d1565b90508551838682010185831982511617815250805184870111156115b95783860181525b509495945050505050565b6000818311156115d5575081610d61565b50919050565b81516115e783836111be565b5061123e83826112f7565b60006020828403121561160457600080fd5b81356001600160a01b038116811461131e57600080fd5b60006020828403121561162d57600080fd5b8151801515811461131e57600080fd5b6000806040838503121561165057600080fd5b50508035926020909101359150565b60006020828403121561167157600080fd5b813567ffffffffffffffff8082111561168957600080fd5b818401915084601f83011261169d57600080fd5b8135818111156116af576116af611a81565b604051601f8201601f19908116603f011681019083821181831017156116d7576116d7611a81565b816040528281528760208487010111156116f057600080fd5b826020860160208301376000928101602001929092525095945050505050565b60006020828403121561172257600080fd5b5051919050565b600081518084526117418160208601602086016119e8565b601f01601f19169290920160200192915050565b600083516117678184602088016119e8565b83519083019061177b8183602088016119e8565b01949350505050565b60006101006001600160a01b03808c1684528a60208501528960408501528089166060850152507fffffffff00000000000000000000000000000000000000000000000000000000871660808401528560a08401528460c08401528060e08401526117f181840185611729565b9b9a5050505050505050505050565b6001600160a01b0384168152826020820152606060408201526000610d316060830184611729565b60208152600061131e6020830184611729565b6000821982111561184e5761184e611a6b565b500190565b600181815b8085111561188e57816000190482111561187457611874611a6b565b8085161561188157918102915b93841c9390800290611858565b509250929050565b600061131e83836000826118ac57506001610d61565b816118b957506000610d61565b81600181146118cf57600281146118d9576118f5565b6001915050610d61565b60ff8411156118ea576118ea611a6b565b50506001821b610d61565b5060208310610133831016604e8410600b8410161715611918575081810a610d61565b6119228383611853565b806000190482111561193657611936611a6b565b029392505050565b600081600019048311821515161561195857611958611a6b565b500290565b6000808312837f80000000000000000000000000000000000000000000000000000000000000000183128115161561199757611997611a6b565b837f7fffffffffffffffffffffffffffffffffffffffffffffffffffffffffffffff0183138116156119cb576119cb611a6b565b50500390565b6000828210156119e3576119e3611a6b565b500390565b60005b83811015611a035781810151838201526020016119eb565b8381111561123e5750506000910152565b600181811c90821680611a2857607f821691505b602082108114156115d557634e487b7160e01b600052602260045260246000fd5b600082611a6657634e487b7160e01b600052601260045260246000fd5b500690565b634e487b7160e01b600052601160045260246000fd5b634e487b7160e01b600052604160045260246000fdfea26469706673582212207f4f1f3cd8e8784d3c4047467a20205c2a2f8c023939cca8ad6d6739a040512d64736f6c6343000807003368747470733a2f2f6d696e2d6170692e63727970746f636f6d706172652e636f6d2f646174612f70726963653f6673796d3d425443267473796d733d5553442c4a50592c455552",
  "immutableReferences": {},
  "source": "// SPDX-License-Identifier: UNLICENSED\r\n\r\npragma solidity ^0.8.6;\r\n\r\nimport \"./LinkPoolUintOracle.sol\";\r\n\r\ncontract LinkPoolBTCUSDOracle is LinkPoolUintOracle {\r\n    int public _decimals_ = 10 ** 2;\r\n    string private constant _apiBaseURL_ = \"https://min-api.cryptocompare.com/data/price?fsym=BTC&tsyms=USD,JPY,EUR\";\r\n    string public constant _apiPath_ = \"USD\";\r\n    \r\n\r\n    constructor()\r\n       LinkPoolUintOracle (\r\n           _decimals_,\r\n           _apiBaseURL_,\r\n           _apiPath_\r\n       ) {\r\n    }\r\n}",
  "sourcePath": "C:\\Users\\Tomi\\OneDrive - The University of Chicago\\Documents\\Securrency\\FuturesExchange\\contracts\\Oracles\\LinkPoolOracles\\LinkPoolBTCUSDOracle.sol",
  "compiler": {
    "name": "solc",
    "version": "0.8.7+commit.e28d00a7.Emscripten.clang"
  },
  "schemaVersion": "3.4.2",
  "updatedAt": "2021-09-13T15:41:16.648Z",
  "devdoc": {
    "kind": "dev",
    "methods": {
      "owner()": {
        "details": "Returns the address of the current owner."
      },
      "renounceOwnership()": {
        "details": "Leaves the contract without owner. It will not be possible to call `onlyOwner` functions anymore. Can only be called by the current owner. NOTE: Renouncing ownership will leave the contract without an owner, thereby removing any functionality that is only available to the owner."
      },
      "transferOwnership(address)": {
        "details": "Transfers ownership of the contract to a new account (`newOwner`). Can only be called by the current owner."
      }
    },
    "version": 1
  },
  "userdoc": {
    "kind": "user",
    "methods": {},
    "version": 1
  }
}