{
  "contractName": "LinkPoolUintOracle",
  "abi": [
    {
      "inputs": [
        {
          "internalType": "int256",
          "name": "__decimals",
          "type": "int256"
        },
        {
          "internalType": "string",
          "name": "__apiBaseURL",
          "type": "string"
        },
        {
          "internalType": "string",
          "name": "__apiPath",
          "type": "string"
        }
      ],
      "stateMutability": "nonpayable",
      "type": "constructor"
    },
    {
      "anonymous": false,
      "inputs": [
        {
          "indexed": true,
          "internalType": "bytes32",
          "name": "id",
          "type": "bytes32"
        }
      ],
      "name": "ChainlinkCancelled",
      "type": "event"
    },
    {
      "anonymous": false,
      "inputs": [
        {
          "indexed": true,
          "internalType": "bytes32",
          "name": "id",
          "type": "bytes32"
        }
      ],
      "name": "ChainlinkFulfilled",
      "type": "event"
    },
    {
      "anonymous": false,
      "inputs": [
        {
          "indexed": true,
          "internalType": "bytes32",
          "name": "id",
          "type": "bytes32"
        }
      ],
      "name": "ChainlinkRequested",
      "type": "event"
    },
    {
      "anonymous": false,
      "inputs": [
        {
          "indexed": false,
          "internalType": "bytes32",
          "name": "requestId",
          "type": "bytes32"
        }
      ],
      "name": "Fulfilled",
      "type": "event"
    },
    {
      "anonymous": false,
      "inputs": [
        {
          "indexed": false,
          "internalType": "address",
          "name": "withdrawer",
          "type": "address"
        },
        {
          "indexed": false,
          "internalType": "uint256",
          "name": "amount",
          "type": "uint256"
        }
      ],
      "name": "LinkWithdrawn",
      "type": "event"
    },
    {
      "anonymous": false,
      "inputs": [
        {
          "indexed": true,
          "internalType": "address",
          "name": "previousOwner",
          "type": "address"
        },
        {
          "indexed": true,
          "internalType": "address",
          "name": "newOwner",
          "type": "address"
        }
      ],
      "name": "OwnershipTransferred",
      "type": "event"
    },
    {
      "anonymous": false,
      "inputs": [
        {
          "indexed": false,
          "internalType": "address",
          "name": "sender",
          "type": "address"
        },
        {
          "indexed": false,
          "internalType": "uint256",
          "name": "amount",
          "type": "uint256"
        }
      ],
      "name": "Received",
      "type": "event"
    },
    {
      "anonymous": false,
      "inputs": [
        {
          "indexed": false,
          "internalType": "address",
          "name": "oracleAddress",
          "type": "address"
        },
        {
          "indexed": false,
          "internalType": "bytes32",
          "name": "jobId",
          "type": "bytes32"
        },
        {
          "indexed": false,
          "internalType": "uint256",
          "name": "fee",
          "type": "uint256"
        }
      ],
      "name": "RequestSent",
      "type": "event"
    },
    {
      "stateMutability": "payable",
      "type": "fallback"
    },
    {
      "inputs": [],
      "name": "__jobId",
      "outputs": [
        {
          "internalType": "bytes32",
          "name": "",
          "type": "bytes32"
        }
      ],
      "stateMutability": "view",
      "type": "function"
    },
    {
      "inputs": [],
      "name": "_fee",
      "outputs": [
        {
          "internalType": "uint256",
          "name": "",
          "type": "uint256"
        }
      ],
      "stateMutability": "view",
      "type": "function"
    },
    {
      "inputs": [],
      "name": "_linkAddress",
      "outputs": [
        {
          "internalType": "address",
          "name": "",
          "type": "address"
        }
      ],
      "stateMutability": "view",
      "type": "function"
    },
    {
      "inputs": [],
      "name": "_oracleAddress",
      "outputs": [
        {
          "internalType": "address",
          "name": "",
          "type": "address"
        }
      ],
      "stateMutability": "view",
      "type": "function"
    },
    {
      "inputs": [],
      "name": "decimals",
      "outputs": [
        {
          "internalType": "int256",
          "name": "",
          "type": "int256"
        }
      ],
      "stateMutability": "view",
      "type": "function"
    },
    {
      "inputs": [],
      "name": "fee",
      "outputs": [
        {
          "internalType": "uint256",
          "name": "",
          "type": "uint256"
        }
      ],
      "stateMutability": "view",
      "type": "function"
    },
    {
      "inputs": [
        {
          "internalType": "bytes32",
          "name": "_requestId",
          "type": "bytes32"
        },
        {
          "internalType": "int256",
          "name": "_result",
          "type": "int256"
        }
      ],
      "name": "fulfillSigned",
      "outputs": [],
      "stateMutability": "nonpayable",
      "type": "function"
    },
    {
      "inputs": [
        {
          "internalType": "bytes32",
          "name": "_requestId",
          "type": "bytes32"
        },
        {
          "internalType": "uint256",
          "name": "_result",
          "type": "uint256"
        }
      ],
      "name": "fulfillUnsigned",
      "outputs": [],
      "stateMutability": "nonpayable",
      "type": "function"
    },
    {
      "inputs": [],
      "name": "getSignedResult",
      "outputs": [
        {
          "internalType": "int256",
          "name": "",
          "type": "int256"
        }
      ],
      "stateMutability": "view",
      "type": "function"
    },
    {
      "inputs": [],
      "name": "getUnsignedResult",
      "outputs": [
        {
          "internalType": "uint256",
          "name": "",
          "type": "uint256"
        }
      ],
      "stateMutability": "view",
      "type": "function"
    },
    {
      "inputs": [],
      "name": "isSignedResult",
      "outputs": [
        {
          "internalType": "bool",
          "name": "",
          "type": "bool"
        }
      ],
      "stateMutability": "view",
      "type": "function"
    },
    {
      "inputs": [],
      "name": "jobId",
      "outputs": [
        {
          "internalType": "bytes32",
          "name": "",
          "type": "bytes32"
        }
      ],
      "stateMutability": "view",
      "type": "function"
    },
    {
      "inputs": [],
      "name": "oracleAddress",
      "outputs": [
        {
          "internalType": "address",
          "name": "",
          "type": "address"
        }
      ],
      "stateMutability": "view",
      "type": "function"
    },
    {
      "inputs": [],
      "name": "owner",
      "outputs": [
        {
          "internalType": "address",
          "name": "",
          "type": "address"
        }
      ],
      "stateMutability": "view",
      "type": "function"
    },
    {
      "inputs": [],
      "name": "renounceOwnership",
      "outputs": [],
      "stateMutability": "nonpayable",
      "type": "function"
    },
    {
      "inputs": [
        {
          "internalType": "string",
          "name": "apiURLParameters",
          "type": "string"
        }
      ],
      "name": "requestIndexPrice",
      "outputs": [
        {
          "internalType": "bytes32",
          "name": "requestId",
          "type": "bytes32"
        }
      ],
      "stateMutability": "nonpayable",
      "type": "function"
    },
    {
      "inputs": [
        {
          "internalType": "address",
          "name": "newOwner",
          "type": "address"
        }
      ],
      "name": "transferOwnership",
      "outputs": [],
      "stateMutability": "nonpayable",
      "type": "function"
    },
    {
      "inputs": [],
      "name": "withdrawLink",
      "outputs": [],
      "stateMutability": "nonpayable",
      "type": "function"
    },
    {
      "stateMutability": "payable",
      "type": "receive"
    }
  ],
  "bytecode": "0x60806040526001600455600f80546001600160a01b03199081167356dd6586db0d08c6ce7b2f2805af28616e082455179091556010805490911673a36085f69e2889c224210f603d836748e7dc008817905567016345785d8a00006011557f62363630326431346534373334633439613565316365313964343561343633326012553480156200008e57600080fd5b5060405162001f3038038062001f30833981016040819052620000b1916200043b565b601254600f546010546011548692869286926000926001600160a01b0390811692889291169087878787620000e633620001a9565b6001600160a01b0386166200010557620000ff620001fb565b62000121565b600280546001600160a01b0319166001600160a01b0388161790555b600980546001600160a01b0319166001600160a01b038a16179055600a879055600e859055600d84905582516200016090600c906020860190620002ac565b5081516200017690600b906020850190620002ac565b5060068054911515600160a01b0260ff60a01b1990921691909117905550620005029d5050505050505050505050505050565b600680546001600160a01b038381166001600160a01b0319831681179093556040519116919082907f8be0079c531659141344cd1fd0a4f28419497f9722a3daafe3b4186f6b6457e090600090a35050565b620002aa73c89bd4e1632d3a43cb03aaad5262cbe4038bc5716001600160a01b03166338cc48316040518163ffffffff1660e01b815260040160206040518083038186803b1580156200024d57600080fd5b505afa15801562000262573d6000803e3d6000fd5b505050506040513d601f19601f8201168201806040525081019062000288919062000409565b600280546001600160a01b0319166001600160a01b0392909216919091179055565b565b828054620002ba90620004af565b90600052602060002090601f016020900481019282620002de576000855562000329565b82601f10620002f957805160ff191683800117855562000329565b8280016001018555821562000329579182015b82811115620003295782518255916020019190600101906200030c565b50620003379291506200033b565b5090565b5b808211156200033757600081556001016200033c565b600082601f8301126200036457600080fd5b81516001600160401b0380821115620003815762000381620004ec565b604051601f8301601f19908116603f01168101908282118183101715620003ac57620003ac620004ec565b81604052838152602092508683858801011115620003c957600080fd5b600091505b83821015620003ed5785820183015181830184015290820190620003ce565b83821115620003ff5760008385830101525b9695505050505050565b6000602082840312156200041c57600080fd5b81516001600160a01b03811681146200043457600080fd5b9392505050565b6000806000606084860312156200045157600080fd5b835160208501519093506001600160401b03808211156200047157600080fd5b6200047f8783880162000352565b935060408601519150808211156200049657600080fd5b50620004a58682870162000352565b9150509250925092565b600181811c90821680620004c457607f821691505b60208210811415620004e657634e487b7160e01b600052602260045260246000fd5b50919050565b634e487b7160e01b600052604160045260246000fd5b611a1e80620005126000396000f3fe60806040526004361061011b5760003560e01c80638dc654a21161009c578063bd2563fb1161006e578063c5b37c2211610056578063c5b37c221461032c578063ddca3f4314610342578063f2fde38b1461035857005b8063bd2563fb14610301578063c2939d971461031657005b80638dc654a214610286578063918c00b91461029b5780639df49c23146102cc578063a89ae4ba146102e157005b806369723be7116100ed578063715018a6116100d5578063715018a6146102335780637e0b66d0146102485780638da5cb5b1461026857005b806369723be7146101f35780636fb7cb571461021357005b8063185defc61461015c578063313ce567146101995780634665e65a146101bd57806351744bca146101d357005b3661015a57604080513381523460208201527f88a5966d370b9919b20f3e2c13ff65706f196a4e32cc2c12bf57088f88525874910160405180910390a1005b005b34801561016857600080fd5b5060105461017c906001600160a01b031681565b6040516001600160a01b0390911681526020015b60405180910390f35b3480156101a557600080fd5b506101af600d5481565b604051908152602001610190565b3480156101c957600080fd5b506101af60125481565b3480156101df57600080fd5b5061015a6101ee3660046115a1565b610378565b3480156101ff57600080fd5b506101af61020e3660046115c3565b610484565b34801561021f57600080fd5b50600f5461017c906001600160a01b031681565b34801561023f57600080fd5b5061015a61079e565b34801561025457600080fd5b5061015a6102633660046115a1565b610804565b34801561027457600080fd5b506006546001600160a01b031661017c565b34801561029257600080fd5b5061015a610902565b3480156102a757600080fd5b506006546102bc90600160a01b900460ff1681565b6040519015158152602001610190565b3480156102d857600080fd5b506007546101af565b3480156102ed57600080fd5b5060095461017c906001600160a01b031681565b34801561030d57600080fd5b506008546101af565b34801561032257600080fd5b506101af600a5481565b34801561033857600080fd5b506101af60115481565b34801561034e57600080fd5b506101af600e5481565b34801561036457600080fd5b5061015a610373366004611556565b610b2b565b60008281526005602052604090205482906001600160a01b031633146103f65760405162461bcd60e51b815260206004820152602860248201527f536f75726365206d75737420626520746865206f7261636c65206f6620746865604482015267081c995c5d595cdd60c21b60648201526084015b60405180910390fd5b600081815260056020526040808220805473ffffffffffffffffffffffffffffffffffffffff191690555182917f7cc135e0cebb02c3480ae5d74d377283180a2601f8f644edf7987b009316c63a91a260088290556040518381527f6930ee93026433301a14b1baa0b52ca0d4640cb1edaa703beeb9056e23526984906020015b60405180910390a1505050565b60006104c46040805160a0810182526000808252602080830182905282840182905260608084018390528451808601909552845283015290608082015290565b600654600160a01b900460ff161561050b57600a5461050490307f51744bca00000000000000000000000000000000000000000000000000000000610c0d565b905061053c565b600a5461053990307f7e0b66d000000000000000000000000000000000000000000000000000000000610c0d565b90505b6106116040518060400160405280600381526020017f6765740000000000000000000000000000000000000000000000000000000000815250610609600c805461058590611965565b80601f01602080910402602001604051908101604052809291908181526020018280546105b190611965565b80156105fe5780601f106105d3576101008083540402835291602001916105fe565b820191906000526020600020905b8154815290600101906020018083116105e157829003601f168201915b505050505086610c9e565b839190610ccb565b6106e56040518060400160405280600481526020017f7061746800000000000000000000000000000000000000000000000000000000815250600b805461065790611965565b80601f016020809104026020016040519081016040528092919081815260200182805461068390611965565b80156106d05780601f106106a5576101008083540402835291602001916106d0565b820191906000526020600020905b8154815290600101906020018083116106b357829003601f168201915b505050505083610ccb9092919063ffffffff16565b60408051808201909152600581527f74696d65730000000000000000000000000000000000000000000000000000006020820152600d54610727918391610cee565b600954600e54610742916001600160a01b0316908390610d0c565b600954600a54600e54604080516001600160a01b0390941684526020840192909252908201529092507f5de0ca4d601c6369aafe37da9bab92be9804895234cdb72d8181492e84e6bcb29060600160405180910390a150919050565b6006546001600160a01b031633146107f85760405162461bcd60e51b815260206004820181905260248201527f4f776e61626c653a2063616c6c6572206973206e6f7420746865206f776e657260448201526064016103ed565b6108026000610d44565b565b60008281526005602052604090205482906001600160a01b0316331461087d5760405162461bcd60e51b815260206004820152602860248201527f536f75726365206d75737420626520746865206f7261636c65206f6620746865604482015267081c995c5d595cdd60c21b60648201526084016103ed565b600081815260056020526040808220805473ffffffffffffffffffffffffffffffffffffffff191690555182917f7cc135e0cebb02c3480ae5d74d377283180a2601f8f644edf7987b009316c63a91a260078290556040518381527f6930ee93026433301a14b1baa0b52ca0d4640cb1edaa703beeb9056e2352698490602001610477565b6006546001600160a01b0316331461095c5760405162461bcd60e51b815260206004820181905260248201527f4f776e61626c653a2063616c6c6572206973206e6f7420746865206f776e657260448201526064016103ed565b60006109706002546001600160a01b031690565b6040517f70a082310000000000000000000000000000000000000000000000000000000081523060048201529091506000906001600160a01b038316906370a082319060240160206040518083038186803b1580156109ce57600080fd5b505afa1580156109e2573d6000803e3d6000fd5b505050506040513d601f19601f82011682018060405250810190610a069190611674565b6040517fa9059cbb000000000000000000000000000000000000000000000000000000008152336004820152602481018290529091506001600160a01b0383169063a9059cbb90604401602060405180830381600087803b158015610a6a57600080fd5b505af1158015610a7e573d6000803e3d6000fd5b505050506040513d601f19601f82011682018060405250810190610aa2919061157f565b610aee5760405162461bcd60e51b815260206004820152601260248201527f556e61626c6520746f207769746864726177000000000000000000000000000060448201526064016103ed565b60408051338152602081018390527fcb1436249a1dd8cf93362c28d79a4e20dc54398b6c49e30316e8396e72a584b0910160405180910390a15050565b6006546001600160a01b03163314610b855760405162461bcd60e51b815260206004820181905260248201527f4f776e61626c653a2063616c6c6572206973206e6f7420746865206f776e657260448201526064016103ed565b6001600160a01b038116610c015760405162461bcd60e51b815260206004820152602660248201527f4f776e61626c653a206e6577206f776e657220697320746865207a65726f206160448201527f646472657373000000000000000000000000000000000000000000000000000060648201526084016103ed565b610c0a81610d44565b50565b610c4b6040805160a0810182526000808252602080830182905282840182905260608084018390528451808601909552845283015290608082015290565b610c896040805160a0810182526000808252602080830182905282840182905260608084018390528451808601909552845283015290608082015290565b610c9581868686610da3565b95945050505050565b60608282604051602001610cb39291906116b9565b60405160208183030381529060405290505b92915050565b6080830151610cda9083610e2e565b6080830151610ce99082610e2e565b505050565b6080830151610cfd9083610e2e565b6080830151610ce99082610e45565b6000610d3c84848460017f4042994600000000000000000000000000000000000000000000000000000000610ea9565b949350505050565b600680546001600160a01b0383811673ffffffffffffffffffffffffffffffffffffffff19831681179093556040519116919082907f8be0079c531659141344cd1fd0a4f28419497f9722a3daafe3b4186f6b6457e090600090a35050565b610de16040805160a0810182526000808252602080830182905282840182905260608084018390528451808601909552845283015290608082015290565b610df18560800151610100611122565b50509183526001600160a01b031660208301527fffffffff0000000000000000000000000000000000000000000000000000000016604082015290565b610e3b8260038351611187565b610ce9828261125b565b67ffffffffffffffff19811215610e6457610e608282611289565b5050565b67ffffffffffffffff811315610e7e57610e6082826112cb565b60008112610e9257610e6082600083611187565b610e60826001610ea4846000196118ae565b611187565b6004546040516bffffffffffffffffffffffff193060601b166020820152603481019190915260009060540160408051808303601f190181529181528151602092830120600454606089015260008181526005909352818320805473ffffffffffffffffffffffffffffffffffffffff19166001600160a01b038b16179055905190925082917fb5e6e01e79f91267dc17b4e6314d5d4d03593d2ceee0fbb452b750bd70ea5af991a2600082600080886000015189602001518a604001518b606001518a8d6080015160000151604051602401610f8d9897969594939291906116e8565b60408051601f198184030181529181526020820180517bffffffffffffffffffffffffffffffffffffffffffffffffffffffff167fffffffff000000000000000000000000000000000000000000000000000000009094169390931790925260025491517f4000aea00000000000000000000000000000000000000000000000000000000081529092506001600160a01b0390911690634000aea09061103b908a9089908690600401611764565b602060405180830381600087803b15801561105557600080fd5b505af1158015611069573d6000803e3d6000fd5b505050506040513d601f19601f8201168201806040525081019061108d919061157f565b6110ff5760405162461bcd60e51b815260206004820152602360248201527f756e61626c6520746f207472616e73666572416e6443616c6c20746f206f726160448201527f636c65000000000000000000000000000000000000000000000000000000000060648201526084016103ed565b600160046000828254611112919061178c565b9091555091979650505050505050565b60408051808201909152606081526000602082015261114260208361199a565b1561116a5761115260208361199a565b61115d906020611922565b611167908361178c565b91505b506020828101829052604080518085526000815290920101905290565b601781116111a8576111a28360e0600585901b1683176112ee565b50505050565b60ff81116111d2576111c5836018611fe0600586901b16176112ee565b506111a283826001611313565b61ffff81116111fd576111f0836019611fe0600586901b16176112ee565b506111a283826002611313565b63ffffffff811161122a5761121d83601a611fe0600586901b16176112ee565b506111a283826004611313565b67ffffffffffffffff8111610ce95761124e83601b611fe0600586901b16176112ee565b506111a283826008611313565b60408051808201909152606081526000602082015261128283846000015151848551611339565b9392505050565b6112948260c36112ee565b50610e60826112a5836000196118ae565b6040516020016112b791815260200190565b60405160208183030381529060405261143e565b6112d68260c26112ee565b50610e6082826040516020016112b791815260200190565b604080518082019091526060815260006020820152611282838460000151518461144b565b604080518082019091526060815260006020820152610d3c8485600001515185856114a7565b604080518082019091526060815260006020820152825182111561135c57600080fd5b602085015161136b838661178c565b111561139e5761139e8561138e87602001518786611389919061178c565b611528565b61139990600261188f565b61153f565b6000808651805187602083010193508088870111156113bd5787860182525b505050602084015b602084106113fd57805182526113dc60208361178c565b91506113e960208261178c565b90506113f6602085611922565b93506113c5565b6000600161140c866020611922565b611418906101006117e7565b6114229190611922565b9151835183169219169190911790915250849050949350505050565b610e3b8260028351611187565b60408051808201909152606081526000602082015283602001518310611480576114808485602001516002611399919061188f565b83518051602085830101848153508085141561149d576001810182525b5093949350505050565b60408051808201909152606081526000602082015260208501516114cb858461178c565b11156114df576114df8561138e868561178c565b600060016114ef846101006117e7565b6114f99190611922565b905085518386820101858319825116178152508051848701111561151d5783860181525b509495945050505050565b600081831115611539575081610cc5565b50919050565b815161154b8383611122565b506111a2838261125b565b60006020828403121561156857600080fd5b81356001600160a01b038116811461128257600080fd5b60006020828403121561159157600080fd5b8151801515811461128257600080fd5b600080604083850312156115b457600080fd5b50508035926020909101359150565b6000602082840312156115d557600080fd5b813567ffffffffffffffff808211156115ed57600080fd5b818401915084601f83011261160157600080fd5b813581811115611613576116136119d2565b604051601f8201601f19908116603f0116810190838211818310171561163b5761163b6119d2565b8160405282815287602084870101111561165457600080fd5b826020860160208301376000928101602001929092525095945050505050565b60006020828403121561168657600080fd5b5051919050565b600081518084526116a5816020860160208601611939565b601f01601f19169290920160200192915050565b600083516116cb818460208801611939565b8351908301906116df818360208801611939565b01949350505050565b60006101006001600160a01b03808c1684528a60208501528960408501528089166060850152507fffffffff00000000000000000000000000000000000000000000000000000000871660808401528560a08401528460c08401528060e08401526117558184018561168d565b9b9a5050505050505050505050565b6001600160a01b0384168152826020820152606060408201526000610c95606083018461168d565b6000821982111561179f5761179f6119bc565b500190565b600181815b808511156117df5781600019048211156117c5576117c56119bc565b808516156117d257918102915b93841c93908002906117a9565b509250929050565b600061128283836000826117fd57506001610cc5565b8161180a57506000610cc5565b8160018114611820576002811461182a57611846565b6001915050610cc5565b60ff84111561183b5761183b6119bc565b50506001821b610cc5565b5060208310610133831016604e8410600b8410161715611869575081810a610cc5565b61187383836117a4565b8060001904821115611887576118876119bc565b029392505050565b60008160001904831182151516156118a9576118a96119bc565b500290565b6000808312837f8000000000000000000000000000000000000000000000000000000000000000018312811516156118e8576118e86119bc565b837f7fffffffffffffffffffffffffffffffffffffffffffffffffffffffffffffff01831381161561191c5761191c6119bc565b50500390565b600082821015611934576119346119bc565b500390565b60005b8381101561195457818101518382015260200161193c565b838111156111a25750506000910152565b600181811c9082168061197957607f821691505b6020821081141561153957634e487b7160e01b600052602260045260246000fd5b6000826119b757634e487b7160e01b600052601260045260246000fd5b500690565b634e487b7160e01b600052601160045260246000fd5b634e487b7160e01b600052604160045260246000fdfea264697066735822122086d42330177d7bac71ee4ceb3442d5853b15f11f11907ca5a861478207a45e2364736f6c63430008070033",
  "immutableReferences": {},
  "source": "// SPDX-License-Identifier: UNLICENSED\r\n\r\npragma solidity ^0.8.6;\r\n\r\nimport \"./LinkPoolOracle.sol\";\r\n\r\ncontract LinkPoolUintOracle is LinkPoolOracle {\r\n    //Get uint256\r\n    bytes32 public __jobId = \"b6602d14e4734c49a5e1ce19d45a4632\";\r\n\r\n    constructor (\r\n        int __decimals, \r\n        string memory __apiBaseURL, \r\n        string memory __apiPath\r\n    ) LinkPoolOracle(\r\n        __jobId,\r\n        __decimals,\r\n        __apiBaseURL,\r\n        __apiPath,\r\n        false\r\n    ) {\r\n    }\r\n}",
  "sourcePath": "C:\\Users\\Tomi\\OneDrive - The University of Chicago\\Documents\\Securrency\\FuturesExchange\\contracts\\Oracles\\LinkPoolOracles\\LinkPoolUintOracle.sol",
  "compiler": {
    "name": "solc",
    "version": "0.8.7+commit.e28d00a7.Emscripten.clang"
  },
  "schemaVersion": "3.4.2",
  "updatedAt": "2021-09-13T15:41:16.677Z",
  "devdoc": {
    "kind": "dev",
    "methods": {
      "owner()": {
        "details": "Returns the address of the current owner."
      },
      "renounceOwnership()": {
        "details": "Leaves the contract without owner. It will not be possible to call `onlyOwner` functions anymore. Can only be called by the current owner. NOTE: Renouncing ownership will leave the contract without an owner, thereby removing any functionality that is only available to the owner."
      },
      "transferOwnership(address)": {
        "details": "Transfers ownership of the contract to a new account (`newOwner`). Can only be called by the current owner."
      }
    },
    "version": 1
  },
  "userdoc": {
    "kind": "user",
    "methods": {},
    "version": 1
  }
}