{
  "contractName": "LinkPoolBTCUSDOracle",
  "abi": [
    {
      "inputs": [],
      "stateMutability": "nonpayable",
      "type": "constructor"
    },
    {
      "anonymous": false,
      "inputs": [
        {
          "indexed": true,
          "internalType": "bytes32",
          "name": "id",
          "type": "bytes32"
        }
      ],
      "name": "ChainlinkCancelled",
      "type": "event"
    },
    {
      "anonymous": false,
      "inputs": [
        {
          "indexed": true,
          "internalType": "bytes32",
          "name": "id",
          "type": "bytes32"
        }
      ],
      "name": "ChainlinkFulfilled",
      "type": "event"
    },
    {
      "anonymous": false,
      "inputs": [
        {
          "indexed": true,
          "internalType": "bytes32",
          "name": "id",
          "type": "bytes32"
        }
      ],
      "name": "ChainlinkRequested",
      "type": "event"
    },
    {
      "anonymous": false,
      "inputs": [
        {
          "indexed": false,
          "internalType": "bytes32",
          "name": "requestId",
          "type": "bytes32"
        }
      ],
      "name": "Fulfilled",
      "type": "event"
    },
    {
      "anonymous": false,
      "inputs": [
        {
          "indexed": false,
          "internalType": "address",
          "name": "withdrawer",
          "type": "address"
        },
        {
          "indexed": false,
          "internalType": "uint256",
          "name": "amount",
          "type": "uint256"
        }
      ],
      "name": "LinkWithdrawn",
      "type": "event"
    },
    {
      "anonymous": false,
      "inputs": [
        {
          "indexed": true,
          "internalType": "address",
          "name": "previousOwner",
          "type": "address"
        },
        {
          "indexed": true,
          "internalType": "address",
          "name": "newOwner",
          "type": "address"
        }
      ],
      "name": "OwnershipTransferred",
      "type": "event"
    },
    {
      "anonymous": false,
      "inputs": [
        {
          "indexed": false,
          "internalType": "address",
          "name": "sender",
          "type": "address"
        },
        {
          "indexed": false,
          "internalType": "uint256",
          "name": "amount",
          "type": "uint256"
        }
      ],
      "name": "Received",
      "type": "event"
    },
    {
      "anonymous": false,
      "inputs": [
        {
          "indexed": false,
          "internalType": "address",
          "name": "oracleAddress",
          "type": "address"
        },
        {
          "indexed": false,
          "internalType": "bytes32",
          "name": "jobId",
          "type": "bytes32"
        },
        {
          "indexed": false,
          "internalType": "uint256",
          "name": "fee",
          "type": "uint256"
        }
      ],
      "name": "RequestSent",
      "type": "event"
    },
    {
      "stateMutability": "payable",
      "type": "fallback"
    },
    {
      "inputs": [],
      "name": "_apiPath",
      "outputs": [
        {
          "internalType": "string",
          "name": "",
          "type": "string"
        }
      ],
      "stateMutability": "view",
      "type": "function"
    },
    {
      "inputs": [],
      "name": "_decimals",
      "outputs": [
        {
          "internalType": "int256",
          "name": "",
          "type": "int256"
        }
      ],
      "stateMutability": "view",
      "type": "function"
    },
    {
      "inputs": [],
      "name": "_fee",
      "outputs": [
        {
          "internalType": "uint256",
          "name": "",
          "type": "uint256"
        }
      ],
      "stateMutability": "view",
      "type": "function"
    },
    {
      "inputs": [],
      "name": "_jobId",
      "outputs": [
        {
          "internalType": "bytes32",
          "name": "",
          "type": "bytes32"
        }
      ],
      "stateMutability": "view",
      "type": "function"
    },
    {
      "inputs": [],
      "name": "_linkAddress",
      "outputs": [
        {
          "internalType": "address",
          "name": "",
          "type": "address"
        }
      ],
      "stateMutability": "view",
      "type": "function"
    },
    {
      "inputs": [],
      "name": "_oracleAddress",
      "outputs": [
        {
          "internalType": "address",
          "name": "",
          "type": "address"
        }
      ],
      "stateMutability": "view",
      "type": "function"
    },
    {
      "inputs": [],
      "name": "decimals",
      "outputs": [
        {
          "internalType": "int256",
          "name": "",
          "type": "int256"
        }
      ],
      "stateMutability": "view",
      "type": "function"
    },
    {
      "inputs": [],
      "name": "fee",
      "outputs": [
        {
          "internalType": "uint256",
          "name": "",
          "type": "uint256"
        }
      ],
      "stateMutability": "view",
      "type": "function"
    },
    {
      "inputs": [
        {
          "internalType": "bytes32",
          "name": "_requestId",
          "type": "bytes32"
        },
        {
          "internalType": "uint256",
          "name": "_result",
          "type": "uint256"
        }
      ],
      "name": "fulfill",
      "outputs": [],
      "stateMutability": "nonpayable",
      "type": "function"
    },
    {
      "inputs": [],
      "name": "getResult",
      "outputs": [
        {
          "internalType": "uint256",
          "name": "",
          "type": "uint256"
        }
      ],
      "stateMutability": "view",
      "type": "function"
    },
    {
      "inputs": [],
      "name": "jobId",
      "outputs": [
        {
          "internalType": "bytes32",
          "name": "",
          "type": "bytes32"
        }
      ],
      "stateMutability": "view",
      "type": "function"
    },
    {
      "inputs": [],
      "name": "oracleAddress",
      "outputs": [
        {
          "internalType": "address",
          "name": "",
          "type": "address"
        }
      ],
      "stateMutability": "view",
      "type": "function"
    },
    {
      "inputs": [],
      "name": "owner",
      "outputs": [
        {
          "internalType": "address",
          "name": "",
          "type": "address"
        }
      ],
      "stateMutability": "view",
      "type": "function"
    },
    {
      "inputs": [],
      "name": "renounceOwnership",
      "outputs": [],
      "stateMutability": "nonpayable",
      "type": "function"
    },
    {
      "inputs": [
        {
          "internalType": "string",
          "name": "apiURLParameters",
          "type": "string"
        }
      ],
      "name": "requestIndexPrice",
      "outputs": [
        {
          "internalType": "bytes32",
          "name": "requestId",
          "type": "bytes32"
        }
      ],
      "stateMutability": "nonpayable",
      "type": "function"
    },
    {
      "inputs": [
        {
          "internalType": "address",
          "name": "newOwner",
          "type": "address"
        }
      ],
      "name": "transferOwnership",
      "outputs": [],
      "stateMutability": "nonpayable",
      "type": "function"
    },
    {
      "inputs": [],
      "name": "withdrawLink",
      "outputs": [],
      "stateMutability": "nonpayable",
      "type": "function"
    },
    {
      "stateMutability": "payable",
      "type": "receive"
    }
  ],
  "bytecode": "0x60806040526001600455600e80546001600160a01b03199081167356dd6586db0d08c6ce7b2f2805af28616e082455179091557f6236363032643134653437333463343961356531636531396434356134363332600f556010805490911673a36085f69e2889c224210f603d836748e7dc008817905567016345785d8a000060115560646012553480156200009357600080fd5b5060125460405180608001604052806047815260200162001972604791396040805180820190915260038152621554d160ea1b6020820152600e54600f546010546011546001600160a01b039384169390911690868686620000f53362000185565b6001600160a01b03851662000114576200010e620001d7565b6200011f565b6200011f856200026c565b600880546001600160a01b0319166001600160a01b0389161790556009869055600d849055600c83905581516200015e90600b9060208501906200028e565b5080516200017490600a9060208401906200028e565b5050505050505050505050620003a3565b600680546001600160a01b038381166001600160a01b0319831681179093556040519116919082907f8be0079c531659141344cd1fd0a4f28419497f9722a3daafe3b4186f6b6457e090600090a35050565b6200026a73c89bd4e1632d3a43cb03aaad5262cbe4038bc5716001600160a01b03166338cc48316040518163ffffffff1660e01b815260040160206040518083038186803b1580156200022957600080fd5b505afa1580156200023e573d6000803e3d6000fd5b505050506040513d601f19601f8201168201806040525081019062000264919062000334565b6200026c565b565b600280546001600160a01b0319166001600160a01b0392909216919091179055565b8280546200029c9062000366565b90600052602060002090601f016020900481019282620002c057600085556200030b565b82601f10620002db57805160ff19168380011785556200030b565b828001600101855582156200030b579182015b828111156200030b578251825591602001919060010190620002ee565b50620003199291506200031d565b5090565b5b808211156200031957600081556001016200031e565b6000602082840312156200034757600080fd5b81516001600160a01b03811681146200035f57600080fd5b9392505050565b600181811c908216806200037b57607f821691505b602082108114156200039d57634e487b7160e01b600052602260045260246000fd5b50919050565b6115bf80620003b36000396000f3fe6080604052600436106100cf5760003560e01c8063185defc614610111578063313ce5671461014757806332424aa31461016b5780634357855e1461018157806369723be7146101a15780636fb7cb57146101c1578063715018a6146101e15780638da5cb5b146101f65780638dc654a21461020b578063a89ae4ba14610220578063c2939d9714610240578063c5b37c2214610256578063ddca3f431461026c578063de29278914610282578063ec925c5b14610297578063f2fde38b146102d3578063f7b4ab67146102f357005b3661010f577f88a5966d370b9919b20f3e2c13ff65706f196a4e32cc2c12bf57088f885258743334604051610105929190611272565b60405180910390a1005b005b34801561011d57600080fd5b50601054610131906001600160a01b031681565b60405161013e919061125e565b60405180910390f35b34801561015357600080fd5b5061015d600c5481565b60405190815260200161013e565b34801561017757600080fd5b5061015d60125481565b34801561018d57600080fd5b5061010f61019c366004611118565b610309565b3480156101ad57600080fd5b5061015d6101bc36600461113a565b610407565b3480156101cd57600080fd5b50600e54610131906001600160a01b031681565b3480156101ed57600080fd5b5061010f610637565b34801561020257600080fd5b50610131610672565b34801561021757600080fd5b5061010f610681565b34801561022c57600080fd5b50600854610131906001600160a01b031681565b34801561024c57600080fd5b5061015d60095481565b34801561026257600080fd5b5061015d60115481565b34801561027857600080fd5b5061015d600d5481565b34801561028e57600080fd5b5060075461015d565b3480156102a357600080fd5b506102c6604051806040016040528060038152602001621554d160ea1b81525081565b60405161013e919061131a565b3480156102df57600080fd5b5061010f6102ee3660046110cd565b610845565b3480156102ff57600080fd5b5061015d600f5481565b60008281526005602052604090205482906001600160a01b031633146103875760405162461bcd60e51b815260206004820152602860248201527f536f75726365206d75737420626520746865206f7261636c65206f6620746865604482015267081c995c5d595cdd60c21b60648201526084015b60405180910390fd5b60008181526005602052604080822080546001600160a01b03191690555182917f7cc135e0cebb02c3480ae5d74d377283180a2601f8f644edf7987b009316c63a91a260078290556040518381527f6930ee93026433301a14b1baa0b52ca0d4640cb1edaa703beeb9056e235269849060200160405180910390a1505050565b60008061041e60095430634357855e60e01b6108e5565b90506104db6040518060400160405280600381526020016219d95d60ea1b8152506104d3600b805461044f90611506565b80601f016020809104026020016040519081016040528092919081815260200182805461047b90611506565b80156104c85780601f1061049d576101008083540402835291602001916104c8565b820191906000526020600020905b8154815290600101906020018083116104ab57829003601f168201915b50505050508661090a565b839190610937565b610596604051806040016040528060048152602001630e0c2e8d60e31b815250600a805461050890611506565b80601f016020809104026020016040519081016040528092919081815260200182805461053490611506565b80156105815780601f1061055657610100808354040283529160200191610581565b820191906000526020600020905b81548152906001019060200180831161056457829003601f168201915b5050505050836109379092919063ffffffff16565b60408051808201909152600581526474696d657360d81b6020820152600c546105c091839161095a565b600854600d546105db916001600160a01b0316908390610978565b600854600954600d54604080516001600160a01b0390941684526020840192909252908201529092507f5de0ca4d601c6369aafe37da9bab92be9804895234cdb72d8181492e84e6bcb29060600160405180910390a150919050565b33610640610672565b6001600160a01b0316146106665760405162461bcd60e51b815260040161037e9061132d565b6106706000610997565b565b6006546001600160a01b031690565b3361068a610672565b6001600160a01b0316146106b05760405162461bcd60e51b815260040161037e9061132d565b60006106c46002546001600160a01b031690565b90506000816001600160a01b03166370a08231306040518263ffffffff1660e01b81526004016106f4919061125e565b60206040518083038186803b15801561070c57600080fd5b505afa158015610720573d6000803e3d6000fd5b505050506040513d601f19601f8201168201806040525081019061074491906111ea565b60405163a9059cbb60e01b81529091506001600160a01b0383169063a9059cbb906107759033908590600401611272565b602060405180830381600087803b15801561078f57600080fd5b505af11580156107a3573d6000803e3d6000fd5b505050506040513d601f19601f820116820180604052508101906107c791906110f6565b6108085760405162461bcd60e51b8152602060048201526012602482015271556e61626c6520746f20776974686472617760701b604482015260640161037e565b7fcb1436249a1dd8cf93362c28d79a4e20dc54398b6c49e30316e8396e72a584b03382604051610839929190611272565b60405180910390a15050565b3361084e610672565b6001600160a01b0316146108745760405162461bcd60e51b815260040161037e9061132d565b6001600160a01b0381166108d95760405162461bcd60e51b815260206004820152602660248201527f4f776e61626c653a206e6577206f776e657220697320746865207a65726f206160448201526564647265737360d01b606482015260840161037e565b6108e281610997565b50565b6108ed61107e565b6108f561107e565b610901818686866109e9565b95945050505050565b6060828260405160200161091f92919061122f565b60405160208183030381529060405290505b92915050565b60808301516109469083610a26565b60808301516109559082610a26565b505050565b60808301516109699083610a26565b60808301516109559082610a3d565b600061098f84848460016320214ca360e11b610a9f565b949350505050565b600680546001600160a01b038381166001600160a01b0319831681179093556040519116919082907f8be0079c531659141344cd1fd0a4f28419497f9722a3daafe3b4186f6b6457e090600090a35050565b6109f161107e565b610a018560800151610100610ca6565b50509183526001600160a01b031660208301526001600160e01b031916604082015290565b610a338260038351610cfe565b6109558282610dd1565b6001600160401b0319811215610a5b57610a578282610df2565b5050565b6001600160401b03811315610a7457610a578282610e34565b60008112610a8857610a5782600083610cfe565b610a57826001610a9a84600019611484565b610cfe565b6004546040516001600160601b03193060601b166020820152603481019190915260009060540160408051808303601f19018152918152815160209283012060045460608901526000818152600590935281832080546001600160a01b0319166001600160a01b038b16179055905190925082917fb5e6e01e79f91267dc17b4e6314d5d4d03593d2ceee0fbb452b750bd70ea5af991a2600082600080886000015189602001518a604001518b606001518a8d6080015160000151604051602401610b7198979695949392919061128b565b60408051601f198184030181529181526020820180516001600160e01b03166001600160e01b0319909416939093179092526002549151630200057560e51b81529092506001600160a01b0390911690634000aea090610bd9908a90899086906004016112f3565b602060405180830381600087803b158015610bf357600080fd5b505af1158015610c07573d6000803e3d6000fd5b505050506040513d601f19601f82011682018060405250810190610c2b91906110f6565b610c835760405162461bcd60e51b815260206004820152602360248201527f756e61626c6520746f207472616e73666572416e6443616c6c20746f206f7261604482015262636c6560e81b606482015260840161037e565b600160046000828254610c969190611362565b9091555091979650505050505050565b610cae6110b3565b610cb960208361153b565b15610ce157610cc960208361153b565b610cd49060206114c3565b610cde9083611362565b91505b506020828101829052604080518085526000815290920101905290565b60178111610d1f57610d198360e0600585901b168317610e57565b50505050565b60ff8111610d4957610d3c836018611fe0600586901b1617610e57565b50610d1983826001610e6f565b61ffff8111610d7457610d67836019611fe0600586901b1617610e57565b50610d1983826002610e6f565b63ffffffff8111610da157610d9483601a611fe0600586901b1617610e57565b50610d1983826004610e6f565b6001600160401b03811161095557610dc483601b611fe0600586901b1617610e57565b50610d1983826008610e6f565b610dd96110b3565b610deb83846000015151848551610e88565b9392505050565b610dfd8260c3610e57565b50610a5782610e0e83600019611484565b604051602001610e2091815260200190565b604051602081830303815290604052610f80565b610e3f8260c2610e57565b50610a578282604051602001610e2091815260200190565b610e5f6110b3565b610deb8384600001515184610f8d565b610e776110b3565b61098f848560000151518585610fdc565b610e906110b3565b8251821115610e9e57600080fd5b6020850151610ead8386611362565b1115610ee057610ee085610ed087602001518786610ecb9190611362565b611050565b610edb906002611465565b611067565b600080865180518760208301019350808887011115610eff5787860182525b505050602084015b60208410610f3f5780518252610f1e602083611362565b9150610f2b602082611362565b9050610f386020856114c3565b9350610f07565b60006001610f4e8660206114c3565b610f5a906101006113bd565b610f6491906114c3565b9151835183169219169190911790915250849050949350505050565b610a338260028351610cfe565b610f956110b3565b83602001518310610fb557610fb58485602001516002610edb9190611465565b835180516020858301018481535080851415610fd2576001810182525b5093949350505050565b610fe46110b3565b6020850151610ff38584611362565b11156110075761100785610ed08685611362565b60006001611017846101006113bd565b61102191906114c3565b90508551838682010185831982511617815250805184870111156110455783860181525b509495945050505050565b600081831115611061575081610931565b50919050565b81516110738383610ca6565b50610d198382610dd1565b6040805160a0810182526000808252602082018190529181018290526060810191909152608081016110ae6110b3565b905290565b604051806040016040528060608152602001600081525090565b6000602082840312156110df57600080fd5b81356001600160a01b0381168114610deb57600080fd5b60006020828403121561110857600080fd5b81518015158114610deb57600080fd5b6000806040838503121561112b57600080fd5b50508035926020909101359150565b60006020828403121561114c57600080fd5b81356001600160401b038082111561116357600080fd5b818401915084601f83011261117757600080fd5b81358181111561118957611189611573565b604051601f8201601f19908116603f011681019083821181831017156111b1576111b1611573565b816040528281528760208487010111156111ca57600080fd5b826020860160208301376000928101602001929092525095945050505050565b6000602082840312156111fc57600080fd5b5051919050565b6000815180845261121b8160208601602086016114da565b601f01601f19169290920160200192915050565b600083516112418184602088016114da565b8351908301906112558183602088016114da565b01949350505050565b6001600160a01b0391909116815260200190565b6001600160a01b03929092168252602082015260400190565b6001600160a01b0389811682526020820189905260408201889052861660608201526001600160e01b03198516608082015260a0810184905260c0810183905261010060e082018190526000906112e483820185611203565b9b9a5050505050505050505050565b60018060a01b03841681528260208201526060604082015260006109016060830184611203565b602081526000610deb6020830184611203565b6020808252818101527f4f776e61626c653a2063616c6c6572206973206e6f7420746865206f776e6572604082015260600190565b600082198211156113755761137561155d565b500190565b600181815b808511156113b557816000190482111561139b5761139b61155d565b808516156113a857918102915b93841c939080029061137f565b509250929050565b6000610deb83836000826113d357506001610931565b816113e057506000610931565b81600181146113f657600281146114005761141c565b6001915050610931565b60ff8411156114115761141161155d565b50506001821b610931565b5060208310610133831016604e8410600b841016171561143f575081810a610931565b611449838361137a565b806000190482111561145d5761145d61155d565b029392505050565b600081600019048311821515161561147f5761147f61155d565b500290565b60008083128015600160ff1b8501841216156114a2576114a261155d565b6001600160ff1b03840183138116156114bd576114bd61155d565b50500390565b6000828210156114d5576114d561155d565b500390565b60005b838110156114f55781810151838201526020016114dd565b83811115610d195750506000910152565b600181811c9082168061151a57607f821691505b6020821081141561106157634e487b7160e01b600052602260045260246000fd5b60008261155857634e487b7160e01b600052601260045260246000fd5b500690565b634e487b7160e01b600052601160045260246000fd5b634e487b7160e01b600052604160045260246000fdfea2646970667358221220a4e5c824551dc34e6027aa6e8474980f9efee8fb05767e83a28543ef6dc46f6864736f6c6343000807003368747470733a2f2f6d696e2d6170692e63727970746f636f6d706172652e636f6d2f646174612f70726963653f6673796d3d425443267473796d733d5553442c4a50592c455552",
  "immutableReferences": {},
  "source": "// SPDX-License-Identifier: UNLICENSED\r\n\r\npragma solidity ^0.8.6;\r\n\r\nimport \"./LinkPoolOracle.sol\";\r\n\r\ncontract LinkPoolBTCUSDOracle is LinkPoolOracle {\r\n    int public _decimals = 10 ** 2;\r\n    string private constant _apiBaseURL = \"https://min-api.cryptocompare.com/data/price?fsym=BTC&tsyms=USD,JPY,EUR\";\r\n    string public constant _apiPath = \"USD\";\r\n    \r\n\r\n    constructor()\r\n       LinkPoolOracle (\r\n           _decimals,\r\n           _apiBaseURL,\r\n           _apiPath\r\n       ) {\r\n    }\r\n}",
  "sourcePath": "C:\\Users\\Tomi\\OneDrive - The University of Chicago\\Documents\\Securrency\\FuturesExchange\\contracts\\Oracles\\LinkPoolOracles\\LinkPoolBTCUSDOracle.sol",
  "compiler": {
    "name": "solc",
    "version": "0.8.7+commit.e28d00a7.Emscripten.clang"
  },
  "schemaVersion": "3.4.2",
  "updatedAt": "2021-08-29T14:06:04.995Z",
  "devdoc": {
    "kind": "dev",
    "methods": {
      "owner()": {
        "details": "Returns the address of the current owner."
      },
      "renounceOwnership()": {
        "details": "Leaves the contract without owner. It will not be possible to call `onlyOwner` functions anymore. Can only be called by the current owner. NOTE: Renouncing ownership will leave the contract without an owner, thereby removing any functionality that is only available to the owner."
      },
      "transferOwnership(address)": {
        "details": "Transfers ownership of the contract to a new account (`newOwner`). Can only be called by the current owner."
      }
    },
    "version": 1
  },
  "userdoc": {
    "kind": "user",
    "methods": {},
    "version": 1
  }
}