{
  "contractName": "LinkPoolOracle",
  "abi": [
    {
      "inputs": [
        {
          "internalType": "bytes32",
          "name": "_jobId",
          "type": "bytes32"
        },
        {
          "internalType": "int256",
          "name": "_decimals",
          "type": "int256"
        },
        {
          "internalType": "string",
          "name": "_apiBaseURL",
          "type": "string"
        },
        {
          "internalType": "string",
          "name": "_apiPath",
          "type": "string"
        },
        {
          "internalType": "bool",
          "name": "_isSignedResult",
          "type": "bool"
        }
      ],
      "stateMutability": "nonpayable",
      "type": "constructor"
    },
    {
      "anonymous": false,
      "inputs": [
        {
          "indexed": true,
          "internalType": "bytes32",
          "name": "id",
          "type": "bytes32"
        }
      ],
      "name": "ChainlinkCancelled",
      "type": "event"
    },
    {
      "anonymous": false,
      "inputs": [
        {
          "indexed": true,
          "internalType": "bytes32",
          "name": "id",
          "type": "bytes32"
        }
      ],
      "name": "ChainlinkFulfilled",
      "type": "event"
    },
    {
      "anonymous": false,
      "inputs": [
        {
          "indexed": true,
          "internalType": "bytes32",
          "name": "id",
          "type": "bytes32"
        }
      ],
      "name": "ChainlinkRequested",
      "type": "event"
    },
    {
      "anonymous": false,
      "inputs": [
        {
          "indexed": false,
          "internalType": "bytes32",
          "name": "requestId",
          "type": "bytes32"
        }
      ],
      "name": "Fulfilled",
      "type": "event"
    },
    {
      "anonymous": false,
      "inputs": [
        {
          "indexed": false,
          "internalType": "address",
          "name": "withdrawer",
          "type": "address"
        },
        {
          "indexed": false,
          "internalType": "uint256",
          "name": "amount",
          "type": "uint256"
        }
      ],
      "name": "LinkWithdrawn",
      "type": "event"
    },
    {
      "anonymous": false,
      "inputs": [
        {
          "indexed": true,
          "internalType": "address",
          "name": "previousOwner",
          "type": "address"
        },
        {
          "indexed": true,
          "internalType": "address",
          "name": "newOwner",
          "type": "address"
        }
      ],
      "name": "OwnershipTransferred",
      "type": "event"
    },
    {
      "anonymous": false,
      "inputs": [
        {
          "indexed": false,
          "internalType": "address",
          "name": "sender",
          "type": "address"
        },
        {
          "indexed": false,
          "internalType": "uint256",
          "name": "amount",
          "type": "uint256"
        }
      ],
      "name": "Received",
      "type": "event"
    },
    {
      "anonymous": false,
      "inputs": [
        {
          "indexed": false,
          "internalType": "address",
          "name": "oracleAddress",
          "type": "address"
        },
        {
          "indexed": false,
          "internalType": "bytes32",
          "name": "jobId",
          "type": "bytes32"
        },
        {
          "indexed": false,
          "internalType": "uint256",
          "name": "fee",
          "type": "uint256"
        }
      ],
      "name": "RequestSent",
      "type": "event"
    },
    {
      "stateMutability": "payable",
      "type": "fallback"
    },
    {
      "inputs": [],
      "name": "_fee",
      "outputs": [
        {
          "internalType": "uint256",
          "name": "",
          "type": "uint256"
        }
      ],
      "stateMutability": "view",
      "type": "function"
    },
    {
      "inputs": [],
      "name": "_linkAddress",
      "outputs": [
        {
          "internalType": "address",
          "name": "",
          "type": "address"
        }
      ],
      "stateMutability": "view",
      "type": "function"
    },
    {
      "inputs": [],
      "name": "_oracleAddress",
      "outputs": [
        {
          "internalType": "address",
          "name": "",
          "type": "address"
        }
      ],
      "stateMutability": "view",
      "type": "function"
    },
    {
      "inputs": [],
      "name": "decimals",
      "outputs": [
        {
          "internalType": "int256",
          "name": "",
          "type": "int256"
        }
      ],
      "stateMutability": "view",
      "type": "function"
    },
    {
      "inputs": [],
      "name": "fee",
      "outputs": [
        {
          "internalType": "uint256",
          "name": "",
          "type": "uint256"
        }
      ],
      "stateMutability": "view",
      "type": "function"
    },
    {
      "inputs": [
        {
          "internalType": "bytes32",
          "name": "_requestId",
          "type": "bytes32"
        },
        {
          "internalType": "int256",
          "name": "_result",
          "type": "int256"
        }
      ],
      "name": "fulfillSigned",
      "outputs": [],
      "stateMutability": "nonpayable",
      "type": "function"
    },
    {
      "inputs": [
        {
          "internalType": "bytes32",
          "name": "_requestId",
          "type": "bytes32"
        },
        {
          "internalType": "uint256",
          "name": "_result",
          "type": "uint256"
        }
      ],
      "name": "fulfillUnsigned",
      "outputs": [],
      "stateMutability": "nonpayable",
      "type": "function"
    },
    {
      "inputs": [],
      "name": "getSignedResult",
      "outputs": [
        {
          "internalType": "int256",
          "name": "",
          "type": "int256"
        }
      ],
      "stateMutability": "view",
      "type": "function"
    },
    {
      "inputs": [],
      "name": "getUnsignedResult",
      "outputs": [
        {
          "internalType": "uint256",
          "name": "",
          "type": "uint256"
        }
      ],
      "stateMutability": "view",
      "type": "function"
    },
    {
      "inputs": [],
      "name": "isSignedResult",
      "outputs": [
        {
          "internalType": "bool",
          "name": "",
          "type": "bool"
        }
      ],
      "stateMutability": "view",
      "type": "function"
    },
    {
      "inputs": [],
      "name": "jobId",
      "outputs": [
        {
          "internalType": "bytes32",
          "name": "",
          "type": "bytes32"
        }
      ],
      "stateMutability": "view",
      "type": "function"
    },
    {
      "inputs": [],
      "name": "oracleAddress",
      "outputs": [
        {
          "internalType": "address",
          "name": "",
          "type": "address"
        }
      ],
      "stateMutability": "view",
      "type": "function"
    },
    {
      "inputs": [],
      "name": "owner",
      "outputs": [
        {
          "internalType": "address",
          "name": "",
          "type": "address"
        }
      ],
      "stateMutability": "view",
      "type": "function"
    },
    {
      "inputs": [],
      "name": "renounceOwnership",
      "outputs": [],
      "stateMutability": "nonpayable",
      "type": "function"
    },
    {
      "inputs": [
        {
          "internalType": "string",
          "name": "apiURLParameters",
          "type": "string"
        }
      ],
      "name": "requestIndexPrice",
      "outputs": [
        {
          "internalType": "bytes32",
          "name": "requestId",
          "type": "bytes32"
        }
      ],
      "stateMutability": "nonpayable",
      "type": "function"
    },
    {
      "inputs": [
        {
          "internalType": "address",
          "name": "newOwner",
          "type": "address"
        }
      ],
      "name": "transferOwnership",
      "outputs": [],
      "stateMutability": "nonpayable",
      "type": "function"
    },
    {
      "inputs": [],
      "name": "withdrawLink",
      "outputs": [],
      "stateMutability": "nonpayable",
      "type": "function"
    },
    {
      "stateMutability": "payable",
      "type": "receive"
    }
  ],
  "bytecode": "0x60806040526001600455600f80546001600160a01b03199081167356dd6586db0d08c6ce7b2f2805af28616e082455179091556010805490911673a36085f69e2889c224210f603d836748e7dc008817905567016345785d8a00006011553480156200006a57600080fd5b5060405162001b8d38038062001b8d8339810160408190526200008d91620003fc565b600f546010546011546001600160a01b03928316928892169087878787620000b53362000164565b6001600160a01b038616620000d457620000ce620001b6565b620000df565b620000df866200024b565b600980546001600160a01b0319166001600160a01b038a16179055600a879055600e859055600d84905582516200011e90600c9060208601906200026d565b5081516200013490600b9060208501906200026d565b5060068054911515600160a01b0260ff60a01b1990921691909117905550620004e89a5050505050505050505050565b600680546001600160a01b038381166001600160a01b0319831681179093556040519116919082907f8be0079c531659141344cd1fd0a4f28419497f9722a3daafe3b4186f6b6457e090600090a35050565b6200024973c89bd4e1632d3a43cb03aaad5262cbe4038bc5716001600160a01b03166338cc48316040518163ffffffff1660e01b815260040160206040518083038186803b1580156200020857600080fd5b505afa1580156200021d573d6000803e3d6000fd5b505050506040513d601f19601f82011682018060405250810190620002439190620003ca565b6200024b565b565b600280546001600160a01b0319166001600160a01b0392909216919091179055565b8280546200027b9062000495565b90600052602060002090601f0160209004810192826200029f5760008555620002ea565b82601f10620002ba57805160ff1916838001178555620002ea565b82800160010185558215620002ea579182015b82811115620002ea578251825591602001919060010190620002cd565b50620002f8929150620002fc565b5090565b5b80821115620002f85760008155600101620002fd565b600082601f8301126200032557600080fd5b81516001600160401b0380821115620003425762000342620004d2565b604051601f8301601f19908116603f011681019082821181831017156200036d576200036d620004d2565b816040528381526020925086838588010111156200038a57600080fd5b600091505b83821015620003ae57858201830151818301840152908201906200038f565b83821115620003c05760008385830101525b9695505050505050565b600060208284031215620003dd57600080fd5b81516001600160a01b0381168114620003f557600080fd5b9392505050565b600080600080600060a086880312156200041557600080fd5b85516020870151604088015191965094506001600160401b03808211156200043c57600080fd5b6200044a89838a0162000313565b945060608801519150808211156200046157600080fd5b50620004708882890162000313565b925050608086015180151581146200048757600080fd5b809150509295509295909350565b600181811c90821680620004aa57607f821691505b60208210811415620004cc57634e487b7160e01b600052602260045260246000fd5b50919050565b634e487b7160e01b600052604160045260246000fd5b61169580620004f86000396000f3fe6080604052600436106100cf5760003560e01c8063185defc614610111578063313ce5671461014757806351744bca1461016b57806369723be71461018b5780636fb7cb57146101ab578063715018a6146101cb5780637e0b66d0146101e05780638da5cb5b146102005780638dc654a214610215578063918c00b91461022a5780639df49c231461025b578063a89ae4ba14610270578063bd2563fb14610290578063c2939d97146102a5578063c5b37c22146102bb578063ddca3f43146102d1578063f2fde38b146102e757005b3661010f577f88a5966d370b9919b20f3e2c13ff65706f196a4e32cc2c12bf57088f8852587433346040516101059291906112d3565b60405180910390a1005b005b34801561011d57600080fd5b50601054610131906001600160a01b031681565b60405161013e91906112bf565b60405180910390f35b34801561015357600080fd5b5061015d600d5481565b60405190815260200161013e565b34801561017757600080fd5b5061010f610186366004611179565b610307565b34801561019757600080fd5b5061015d6101a636600461119b565b6103a5565b3480156101b757600080fd5b50600f54610131906001600160a01b031681565b3480156101d757600080fd5b5061010f61060c565b3480156101ec57600080fd5b5061010f6101fb366004611179565b610647565b34801561020c57600080fd5b506101316106d3565b34801561022157600080fd5b5061010f6106e2565b34801561023657600080fd5b5060065461024b90600160a01b900460ff1681565b604051901515815260200161013e565b34801561026757600080fd5b5060075461015d565b34801561027c57600080fd5b50600954610131906001600160a01b031681565b34801561029c57600080fd5b5060085461015d565b3480156102b157600080fd5b5061015d600a5481565b3480156102c757600080fd5b5061015d60115481565b3480156102dd57600080fd5b5061015d600e5481565b3480156102f357600080fd5b5061010f61030236600461112e565b6108a6565b60008281526005602052604090205482906001600160a01b031633146103485760405162461bcd60e51b815260040161033f906113b0565b60405180910390fd5b60008181526005602052604080822080546001600160a01b031916905551829160008051602061164083398151915291a26008829055604051838152600080516020611620833981519152906020015b60405180910390a1505050565b60006103af6110df565b600654600160a01b900460ff16156103dd57600a546103d690306328ba25e560e11b610946565b90506103f5565b600a546103f290306307e0b66d60e41b610946565b90505b6104b06040518060400160405280600381526020016219d95d60ea1b8152506104a8600c80546104249061159c565b80601f01602080910402602001604051908101604052809291908181526020018280546104509061159c565b801561049d5780601f106104725761010080835404028352916020019161049d565b820191906000526020600020905b81548152906001019060200180831161048057829003601f168201915b50505050508661096b565b839190610998565b61056b604051806040016040528060048152602001630e0c2e8d60e31b815250600b80546104dd9061159c565b80601f01602080910402602001604051908101604052809291908181526020018280546105099061159c565b80156105565780601f1061052b57610100808354040283529160200191610556565b820191906000526020600020905b81548152906001019060200180831161053957829003601f168201915b5050505050836109989092919063ffffffff16565b60408051808201909152600581526474696d657360d81b6020820152600d546105959183916109bb565b600954600e546105b0916001600160a01b03169083906109d9565b600954600a54600e54604080516001600160a01b0390941684526020840192909252908201529092507f5de0ca4d601c6369aafe37da9bab92be9804895234cdb72d8181492e84e6bcb29060600160405180910390a150919050565b336106156106d3565b6001600160a01b03161461063b5760405162461bcd60e51b815260040161033f9061137b565b61064560006109f8565b565b60008281526005602052604090205482906001600160a01b0316331461067f5760405162461bcd60e51b815260040161033f906113b0565b60008181526005602052604080822080546001600160a01b031916905551829160008051602061164083398151915291a2600782905560405183815260008051602061162083398151915290602001610398565b6006546001600160a01b031690565b336106eb6106d3565b6001600160a01b0316146107115760405162461bcd60e51b815260040161033f9061137b565b60006107256002546001600160a01b031690565b90506000816001600160a01b03166370a08231306040518263ffffffff1660e01b815260040161075591906112bf565b60206040518083038186803b15801561076d57600080fd5b505afa158015610781573d6000803e3d6000fd5b505050506040513d601f19601f820116820180604052508101906107a5919061124b565b60405163a9059cbb60e01b81529091506001600160a01b0383169063a9059cbb906107d690339085906004016112d3565b602060405180830381600087803b1580156107f057600080fd5b505af1158015610804573d6000803e3d6000fd5b505050506040513d601f19601f820116820180604052508101906108289190611157565b6108695760405162461bcd60e51b8152602060048201526012602482015271556e61626c6520746f20776974686472617760701b604482015260640161033f565b7fcb1436249a1dd8cf93362c28d79a4e20dc54398b6c49e30316e8396e72a584b0338260405161089a9291906112d3565b60405180910390a15050565b336108af6106d3565b6001600160a01b0316146108d55760405162461bcd60e51b815260040161033f9061137b565b6001600160a01b03811661093a5760405162461bcd60e51b815260206004820152602660248201527f4f776e61626c653a206e6577206f776e657220697320746865207a65726f206160448201526564647265737360d01b606482015260840161033f565b610943816109f8565b50565b61094e6110df565b6109566110df565b61096281868686610a4a565b95945050505050565b60608282604051602001610980929190611290565b60405160208183030381529060405290505b92915050565b60808301516109a79083610a87565b60808301516109b69082610a87565b505050565b60808301516109ca9083610a87565b60808301516109b69082610a9e565b60006109f084848460016320214ca360e11b610b00565b949350505050565b600680546001600160a01b038381166001600160a01b0319831681179093556040519116919082907f8be0079c531659141344cd1fd0a4f28419497f9722a3daafe3b4186f6b6457e090600090a35050565b610a526110df565b610a628560800151610100610d07565b50509183526001600160a01b031660208301526001600160e01b031916604082015290565b610a948260038351610d5f565b6109b68282610e32565b6001600160401b0319811215610abc57610ab88282610e53565b5050565b6001600160401b03811315610ad557610ab88282610e95565b60008112610ae957610ab882600083610d5f565b610ab8826001610afb8460001961151a565b610d5f565b6004546040516001600160601b03193060601b166020820152603481019190915260009060540160408051808303601f19018152918152815160209283012060045460608901526000818152600590935281832080546001600160a01b0319166001600160a01b038b16179055905190925082917fb5e6e01e79f91267dc17b4e6314d5d4d03593d2ceee0fbb452b750bd70ea5af991a2600082600080886000015189602001518a604001518b606001518a8d6080015160000151604051602401610bd29897969594939291906112ec565b60408051601f198184030181529181526020820180516001600160e01b03166001600160e01b0319909416939093179092526002549151630200057560e51b81529092506001600160a01b0390911690634000aea090610c3a908a9089908690600401611354565b602060405180830381600087803b158015610c5457600080fd5b505af1158015610c68573d6000803e3d6000fd5b505050506040513d601f19601f82011682018060405250810190610c8c9190611157565b610ce45760405162461bcd60e51b815260206004820152602360248201527f756e61626c6520746f207472616e73666572416e6443616c6c20746f206f7261604482015262636c6560e81b606482015260840161033f565b600160046000828254610cf791906113f8565b9091555091979650505050505050565b610d0f611114565b610d1a6020836115d1565b15610d4257610d2a6020836115d1565b610d35906020611559565b610d3f90836113f8565b91505b506020828101829052604080518085526000815290920101905290565b60178111610d8057610d7a8360e0600585901b168317610eb8565b50505050565b60ff8111610daa57610d9d836018611fe0600586901b1617610eb8565b50610d7a83826001610ed0565b61ffff8111610dd557610dc8836019611fe0600586901b1617610eb8565b50610d7a83826002610ed0565b63ffffffff8111610e0257610df583601a611fe0600586901b1617610eb8565b50610d7a83826004610ed0565b6001600160401b0381116109b657610e2583601b611fe0600586901b1617610eb8565b50610d7a83826008610ed0565b610e3a611114565b610e4c83846000015151848551610ee9565b9392505050565b610e5e8260c3610eb8565b50610ab882610e6f8360001961151a565b604051602001610e8191815260200190565b604051602081830303815290604052610fe1565b610ea08260c2610eb8565b50610ab88282604051602001610e8191815260200190565b610ec0611114565b610e4c8384600001515184610fee565b610ed8611114565b6109f084856000015151858561103d565b610ef1611114565b8251821115610eff57600080fd5b6020850151610f0e83866113f8565b1115610f4157610f4185610f3187602001518786610f2c91906113f8565b6110b1565b610f3c9060026114fb565b6110c8565b600080865180518760208301019350808887011115610f605787860182525b505050602084015b60208410610fa05780518252610f7f6020836113f8565b9150610f8c6020826113f8565b9050610f99602085611559565b9350610f68565b60006001610faf866020611559565b610fbb90610100611453565b610fc59190611559565b9151835183169219169190911790915250849050949350505050565b610a948260028351610d5f565b610ff6611114565b83602001518310611016576110168485602001516002610f3c91906114fb565b835180516020858301018481535080851415611033576001810182525b5093949350505050565b611045611114565b602085015161105485846113f8565b11156110685761106885610f3186856113f8565b6000600161107884610100611453565b6110829190611559565b90508551838682010185831982511617815250805184870111156110a65783860181525b509495945050505050565b6000818311156110c2575081610992565b50919050565b81516110d48383610d07565b50610d7a8382610e32565b6040805160a08101825260008082526020820181905291810182905260608101919091526080810161110f611114565b905290565b604051806040016040528060608152602001600081525090565b60006020828403121561114057600080fd5b81356001600160a01b0381168114610e4c57600080fd5b60006020828403121561116957600080fd5b81518015158114610e4c57600080fd5b6000806040838503121561118c57600080fd5b50508035926020909101359150565b6000602082840312156111ad57600080fd5b81356001600160401b03808211156111c457600080fd5b818401915084601f8301126111d857600080fd5b8135818111156111ea576111ea611609565b604051601f8201601f19908116603f0116810190838211818310171561121257611212611609565b8160405282815287602084870101111561122b57600080fd5b826020860160208301376000928101602001929092525095945050505050565b60006020828403121561125d57600080fd5b5051919050565b6000815180845261127c816020860160208601611570565b601f01601f19169290920160200192915050565b600083516112a2818460208801611570565b8351908301906112b6818360208801611570565b01949350505050565b6001600160a01b0391909116815260200190565b6001600160a01b03929092168252602082015260400190565b6001600160a01b0389811682526020820189905260408201889052861660608201526001600160e01b03198516608082015260a0810184905260c0810183905261010060e0820181905260009061134583820185611264565b9b9a5050505050505050505050565b60018060a01b03841681528260208201526060604082015260006109626060830184611264565b6020808252818101527f4f776e61626c653a2063616c6c6572206973206e6f7420746865206f776e6572604082015260600190565b60208082526028908201527f536f75726365206d75737420626520746865206f7261636c65206f6620746865604082015267081c995c5d595cdd60c21b606082015260800190565b6000821982111561140b5761140b6115f3565b500190565b600181815b8085111561144b578160001904821115611431576114316115f3565b8085161561143e57918102915b93841c9390800290611415565b509250929050565b6000610e4c838360008261146957506001610992565b8161147657506000610992565b816001811461148c5760028114611496576114b2565b6001915050610992565b60ff8411156114a7576114a76115f3565b50506001821b610992565b5060208310610133831016604e8410600b84101617156114d5575081810a610992565b6114df8383611410565b80600019048211156114f3576114f36115f3565b029392505050565b6000816000190483118215151615611515576115156115f3565b500290565b60008083128015600160ff1b850184121615611538576115386115f3565b6001600160ff1b0384018313811615611553576115536115f3565b50500390565b60008282101561156b5761156b6115f3565b500390565b60005b8381101561158b578181015183820152602001611573565b83811115610d7a5750506000910152565b600181811c908216806115b057607f821691505b602082108114156110c257634e487b7160e01b600052602260045260246000fd5b6000826115ee57634e487b7160e01b600052601260045260246000fd5b500690565b634e487b7160e01b600052601160045260246000fd5b634e487b7160e01b600052604160045260246000fdfe6930ee93026433301a14b1baa0b52ca0d4640cb1edaa703beeb9056e235269847cc135e0cebb02c3480ae5d74d377283180a2601f8f644edf7987b009316c63aa2646970667358221220c2e37eb808dc325eb9e0b56db3be3775a3645545ad238457dffa2e116072b3a064736f6c63430008070033",
  "immutableReferences": {},
  "source": "// SPDX-License-Identifier: UNLICENSED\r\n\r\npragma solidity ^0.8.6;\r\n\r\nimport \"../../ChainlinkOracle.sol\";\r\n\r\ncontract LinkPoolOracle is ChainlinkOracle {\r\n    address public _oracleAddress = 0x56dd6586DB0D08c6Ce7B2f2805af28616E082455;\r\n    //bytes32 public _jobId = \"b6602d14e4734c49a5e1ce19d45a4632\";\r\n    address public _linkAddress = 0xa36085F69e2889c224210F603D836748e7dC0088;\r\n    uint256 public _fee = 0.1 * 10 ** 18; //0.1 LINK\r\n\r\n    constructor (\r\n        bytes32 _jobId,\r\n        int _decimals, \r\n        string memory _apiBaseURL, \r\n        string memory _apiPath, \r\n        bool _isSignedResult)\r\n        ChainlinkOracle (\r\n            _oracleAddress, \r\n            _jobId,\r\n            _linkAddress,\r\n            _fee,\r\n            _decimals,\r\n            _apiBaseURL,\r\n            _apiPath,\r\n            _isSignedResult\r\n        ) {\r\n    }\r\n}",
  "sourcePath": "C:\\Users\\Tomi\\OneDrive - The University of Chicago\\Documents\\Securrency\\FuturesExchange\\contracts\\Oracles\\LinkPoolOracles\\LinkPoolOracle.sol",
  "compiler": {
    "name": "solc",
    "version": "0.8.7+commit.e28d00a7.Emscripten.clang"
  },
  "schemaVersion": "3.4.2",
  "updatedAt": "2021-09-03T08:16:34.358Z",
  "devdoc": {
    "kind": "dev",
    "methods": {
      "owner()": {
        "details": "Returns the address of the current owner."
      },
      "renounceOwnership()": {
        "details": "Leaves the contract without owner. It will not be possible to call `onlyOwner` functions anymore. Can only be called by the current owner. NOTE: Renouncing ownership will leave the contract without an owner, thereby removing any functionality that is only available to the owner."
      },
      "transferOwnership(address)": {
        "details": "Transfers ownership of the contract to a new account (`newOwner`). Can only be called by the current owner."
      }
    },
    "version": 1
  },
  "userdoc": {
    "kind": "user",
    "methods": {},
    "version": 1
  }
}