{
  "contractName": "LinkPoolUintOracle",
  "abi": [
    {
      "inputs": [
        {
          "internalType": "int256",
          "name": "__decimals",
          "type": "int256"
        },
        {
          "internalType": "string",
          "name": "__apiBaseURL",
          "type": "string"
        },
        {
          "internalType": "string",
          "name": "__apiPath",
          "type": "string"
        }
      ],
      "stateMutability": "nonpayable",
      "type": "constructor"
    },
    {
      "anonymous": false,
      "inputs": [
        {
          "indexed": true,
          "internalType": "bytes32",
          "name": "id",
          "type": "bytes32"
        }
      ],
      "name": "ChainlinkCancelled",
      "type": "event"
    },
    {
      "anonymous": false,
      "inputs": [
        {
          "indexed": true,
          "internalType": "bytes32",
          "name": "id",
          "type": "bytes32"
        }
      ],
      "name": "ChainlinkFulfilled",
      "type": "event"
    },
    {
      "anonymous": false,
      "inputs": [
        {
          "indexed": true,
          "internalType": "bytes32",
          "name": "id",
          "type": "bytes32"
        }
      ],
      "name": "ChainlinkRequested",
      "type": "event"
    },
    {
      "anonymous": false,
      "inputs": [
        {
          "indexed": false,
          "internalType": "bytes32",
          "name": "requestId",
          "type": "bytes32"
        }
      ],
      "name": "Fulfilled",
      "type": "event"
    },
    {
      "anonymous": false,
      "inputs": [
        {
          "indexed": false,
          "internalType": "address",
          "name": "withdrawer",
          "type": "address"
        },
        {
          "indexed": false,
          "internalType": "uint256",
          "name": "amount",
          "type": "uint256"
        }
      ],
      "name": "LinkWithdrawn",
      "type": "event"
    },
    {
      "anonymous": false,
      "inputs": [
        {
          "indexed": true,
          "internalType": "address",
          "name": "previousOwner",
          "type": "address"
        },
        {
          "indexed": true,
          "internalType": "address",
          "name": "newOwner",
          "type": "address"
        }
      ],
      "name": "OwnershipTransferred",
      "type": "event"
    },
    {
      "anonymous": false,
      "inputs": [
        {
          "indexed": false,
          "internalType": "address",
          "name": "sender",
          "type": "address"
        },
        {
          "indexed": false,
          "internalType": "uint256",
          "name": "amount",
          "type": "uint256"
        }
      ],
      "name": "Received",
      "type": "event"
    },
    {
      "anonymous": false,
      "inputs": [
        {
          "indexed": false,
          "internalType": "address",
          "name": "oracleAddress",
          "type": "address"
        },
        {
          "indexed": false,
          "internalType": "bytes32",
          "name": "jobId",
          "type": "bytes32"
        },
        {
          "indexed": false,
          "internalType": "uint256",
          "name": "fee",
          "type": "uint256"
        }
      ],
      "name": "RequestSent",
      "type": "event"
    },
    {
      "stateMutability": "payable",
      "type": "fallback"
    },
    {
      "inputs": [],
      "name": "__jobId",
      "outputs": [
        {
          "internalType": "bytes32",
          "name": "",
          "type": "bytes32"
        }
      ],
      "stateMutability": "view",
      "type": "function"
    },
    {
      "inputs": [],
      "name": "_fee",
      "outputs": [
        {
          "internalType": "uint256",
          "name": "",
          "type": "uint256"
        }
      ],
      "stateMutability": "view",
      "type": "function"
    },
    {
      "inputs": [],
      "name": "_linkAddress",
      "outputs": [
        {
          "internalType": "address",
          "name": "",
          "type": "address"
        }
      ],
      "stateMutability": "view",
      "type": "function"
    },
    {
      "inputs": [],
      "name": "_oracleAddress",
      "outputs": [
        {
          "internalType": "address",
          "name": "",
          "type": "address"
        }
      ],
      "stateMutability": "view",
      "type": "function"
    },
    {
      "inputs": [],
      "name": "decimals",
      "outputs": [
        {
          "internalType": "int256",
          "name": "",
          "type": "int256"
        }
      ],
      "stateMutability": "view",
      "type": "function"
    },
    {
      "inputs": [],
      "name": "fee",
      "outputs": [
        {
          "internalType": "uint256",
          "name": "",
          "type": "uint256"
        }
      ],
      "stateMutability": "view",
      "type": "function"
    },
    {
      "inputs": [
        {
          "internalType": "bytes32",
          "name": "_requestId",
          "type": "bytes32"
        },
        {
          "internalType": "int256",
          "name": "_result",
          "type": "int256"
        }
      ],
      "name": "fulfillSigned",
      "outputs": [],
      "stateMutability": "nonpayable",
      "type": "function"
    },
    {
      "inputs": [
        {
          "internalType": "bytes32",
          "name": "_requestId",
          "type": "bytes32"
        },
        {
          "internalType": "uint256",
          "name": "_result",
          "type": "uint256"
        }
      ],
      "name": "fulfillUnsigned",
      "outputs": [],
      "stateMutability": "nonpayable",
      "type": "function"
    },
    {
      "inputs": [],
      "name": "getSignedResult",
      "outputs": [
        {
          "internalType": "int256",
          "name": "",
          "type": "int256"
        }
      ],
      "stateMutability": "view",
      "type": "function"
    },
    {
      "inputs": [],
      "name": "getUnsignedResult",
      "outputs": [
        {
          "internalType": "uint256",
          "name": "",
          "type": "uint256"
        }
      ],
      "stateMutability": "view",
      "type": "function"
    },
    {
      "inputs": [],
      "name": "isSignedResult",
      "outputs": [
        {
          "internalType": "bool",
          "name": "",
          "type": "bool"
        }
      ],
      "stateMutability": "view",
      "type": "function"
    },
    {
      "inputs": [],
      "name": "jobId",
      "outputs": [
        {
          "internalType": "bytes32",
          "name": "",
          "type": "bytes32"
        }
      ],
      "stateMutability": "view",
      "type": "function"
    },
    {
      "inputs": [],
      "name": "oracleAddress",
      "outputs": [
        {
          "internalType": "address",
          "name": "",
          "type": "address"
        }
      ],
      "stateMutability": "view",
      "type": "function"
    },
    {
      "inputs": [],
      "name": "owner",
      "outputs": [
        {
          "internalType": "address",
          "name": "",
          "type": "address"
        }
      ],
      "stateMutability": "view",
      "type": "function"
    },
    {
      "inputs": [],
      "name": "renounceOwnership",
      "outputs": [],
      "stateMutability": "nonpayable",
      "type": "function"
    },
    {
      "inputs": [
        {
          "internalType": "string",
          "name": "apiURLParameters",
          "type": "string"
        }
      ],
      "name": "requestIndexPrice",
      "outputs": [
        {
          "internalType": "bytes32",
          "name": "requestId",
          "type": "bytes32"
        }
      ],
      "stateMutability": "nonpayable",
      "type": "function"
    },
    {
      "inputs": [
        {
          "internalType": "address",
          "name": "newOwner",
          "type": "address"
        }
      ],
      "name": "transferOwnership",
      "outputs": [],
      "stateMutability": "nonpayable",
      "type": "function"
    },
    {
      "inputs": [],
      "name": "withdrawLink",
      "outputs": [],
      "stateMutability": "nonpayable",
      "type": "function"
    },
    {
      "stateMutability": "payable",
      "type": "receive"
    }
  ],
  "bytecode": "0x60806040526001600455600f80546001600160a01b03199081167356dd6586db0d08c6ce7b2f2805af28616e082455179091556010805490911673a36085f69e2889c224210f603d836748e7dc008817905567016345785d8a00006011557f62363630326431346534373334633439613565316365313964343561343633326012553480156200008e57600080fd5b5060405162001bbd38038062001bbd833981016040819052620000b19162000430565b601254600f546010546011548692869286926000926001600160a01b0390811692889291169087878787620000e63362000198565b6001600160a01b0386166200010557620000ff620001ea565b62000110565b62000110866200027f565b600980546001600160a01b0319166001600160a01b038a16179055600a879055600e859055600d84905582516200014f90600c906020860190620002a1565b5081516200016590600b906020850190620002a1565b5060068054911515600160a01b0260ff60a01b1990921691909117905550620004f79d5050505050505050505050505050565b600680546001600160a01b038381166001600160a01b0319831681179093556040519116919082907f8be0079c531659141344cd1fd0a4f28419497f9722a3daafe3b4186f6b6457e090600090a35050565b6200027d73c89bd4e1632d3a43cb03aaad5262cbe4038bc5716001600160a01b03166338cc48316040518163ffffffff1660e01b815260040160206040518083038186803b1580156200023c57600080fd5b505afa15801562000251573d6000803e3d6000fd5b505050506040513d601f19601f82011682018060405250810190620002779190620003fe565b6200027f565b565b600280546001600160a01b0319166001600160a01b0392909216919091179055565b828054620002af90620004a4565b90600052602060002090601f016020900481019282620002d357600085556200031e565b82601f10620002ee57805160ff19168380011785556200031e565b828001600101855582156200031e579182015b828111156200031e57825182559160200191906001019062000301565b506200032c92915062000330565b5090565b5b808211156200032c576000815560010162000331565b600082601f8301126200035957600080fd5b81516001600160401b0380821115620003765762000376620004e1565b604051601f8301601f19908116603f01168101908282118183101715620003a157620003a1620004e1565b81604052838152602092508683858801011115620003be57600080fd5b600091505b83821015620003e25785820183015181830184015290820190620003c3565b83821115620003f45760008385830101525b9695505050505050565b6000602082840312156200041157600080fd5b81516001600160a01b03811681146200042957600080fd5b9392505050565b6000806000606084860312156200044657600080fd5b835160208501519093506001600160401b03808211156200046657600080fd5b620004748783880162000347565b935060408601519150808211156200048b57600080fd5b506200049a8682870162000347565b9150509250925092565b600181811c90821680620004b957607f821691505b60208210811415620004db57634e487b7160e01b600052602260045260246000fd5b50919050565b634e487b7160e01b600052604160045260246000fd5b6116b680620005076000396000f3fe6080604052600436106100da5760003560e01c8063185defc61461011c578063313ce567146101525780634665e65a1461017657806351744bca1461018c57806369723be7146101ac5780636fb7cb57146101cc578063715018a6146101ec5780637e0b66d0146102015780638da5cb5b146102215780638dc654a214610236578063918c00b91461024b5780639df49c231461027c578063a89ae4ba14610291578063bd2563fb146102b1578063c2939d97146102c6578063c5b37c22146102dc578063ddca3f43146102f2578063f2fde38b1461030857005b3661011a577f88a5966d370b9919b20f3e2c13ff65706f196a4e32cc2c12bf57088f8852587433346040516101109291906112f4565b60405180910390a1005b005b34801561012857600080fd5b5060105461013c906001600160a01b031681565b60405161014991906112e0565b60405180910390f35b34801561015e57600080fd5b50610168600d5481565b604051908152602001610149565b34801561018257600080fd5b5061016860125481565b34801561019857600080fd5b5061011a6101a736600461119a565b610328565b3480156101b857600080fd5b506101686101c73660046111bc565b6103c6565b3480156101d857600080fd5b50600f5461013c906001600160a01b031681565b3480156101f857600080fd5b5061011a61062d565b34801561020d57600080fd5b5061011a61021c36600461119a565b610668565b34801561022d57600080fd5b5061013c6106f4565b34801561024257600080fd5b5061011a610703565b34801561025757600080fd5b5060065461026c90600160a01b900460ff1681565b6040519015158152602001610149565b34801561028857600080fd5b50600754610168565b34801561029d57600080fd5b5060095461013c906001600160a01b031681565b3480156102bd57600080fd5b50600854610168565b3480156102d257600080fd5b50610168600a5481565b3480156102e857600080fd5b5061016860115481565b3480156102fe57600080fd5b50610168600e5481565b34801561031457600080fd5b5061011a61032336600461114f565b6108c7565b60008281526005602052604090205482906001600160a01b031633146103695760405162461bcd60e51b8152600401610360906113d1565b60405180910390fd5b60008181526005602052604080822080546001600160a01b031916905551829160008051602061166183398151915291a26008829055604051838152600080516020611641833981519152906020015b60405180910390a1505050565b60006103d0611100565b600654600160a01b900460ff16156103fe57600a546103f790306328ba25e560e11b610967565b9050610416565b600a5461041390306307e0b66d60e41b610967565b90505b6104d16040518060400160405280600381526020016219d95d60ea1b8152506104c9600c8054610445906115bd565b80601f0160208091040260200160405190810160405280929190818152602001828054610471906115bd565b80156104be5780601f10610493576101008083540402835291602001916104be565b820191906000526020600020905b8154815290600101906020018083116104a157829003601f168201915b50505050508661098c565b8391906109b9565b61058c604051806040016040528060048152602001630e0c2e8d60e31b815250600b80546104fe906115bd565b80601f016020809104026020016040519081016040528092919081815260200182805461052a906115bd565b80156105775780601f1061054c57610100808354040283529160200191610577565b820191906000526020600020905b81548152906001019060200180831161055a57829003601f168201915b5050505050836109b99092919063ffffffff16565b60408051808201909152600581526474696d657360d81b6020820152600d546105b69183916109dc565b600954600e546105d1916001600160a01b03169083906109fa565b600954600a54600e54604080516001600160a01b0390941684526020840192909252908201529092507f5de0ca4d601c6369aafe37da9bab92be9804895234cdb72d8181492e84e6bcb29060600160405180910390a150919050565b336106366106f4565b6001600160a01b03161461065c5760405162461bcd60e51b81526004016103609061139c565b6106666000610a19565b565b60008281526005602052604090205482906001600160a01b031633146106a05760405162461bcd60e51b8152600401610360906113d1565b60008181526005602052604080822080546001600160a01b031916905551829160008051602061166183398151915291a26007829055604051838152600080516020611641833981519152906020016103b9565b6006546001600160a01b031690565b3361070c6106f4565b6001600160a01b0316146107325760405162461bcd60e51b81526004016103609061139c565b60006107466002546001600160a01b031690565b90506000816001600160a01b03166370a08231306040518263ffffffff1660e01b815260040161077691906112e0565b60206040518083038186803b15801561078e57600080fd5b505afa1580156107a2573d6000803e3d6000fd5b505050506040513d601f19601f820116820180604052508101906107c6919061126c565b60405163a9059cbb60e01b81529091506001600160a01b0383169063a9059cbb906107f790339085906004016112f4565b602060405180830381600087803b15801561081157600080fd5b505af1158015610825573d6000803e3d6000fd5b505050506040513d601f19601f820116820180604052508101906108499190611178565b61088a5760405162461bcd60e51b8152602060048201526012602482015271556e61626c6520746f20776974686472617760701b6044820152606401610360565b7fcb1436249a1dd8cf93362c28d79a4e20dc54398b6c49e30316e8396e72a584b033826040516108bb9291906112f4565b60405180910390a15050565b336108d06106f4565b6001600160a01b0316146108f65760405162461bcd60e51b81526004016103609061139c565b6001600160a01b03811661095b5760405162461bcd60e51b815260206004820152602660248201527f4f776e61626c653a206e6577206f776e657220697320746865207a65726f206160448201526564647265737360d01b6064820152608401610360565b61096481610a19565b50565b61096f611100565b610977611100565b61098381868686610a6b565b95945050505050565b606082826040516020016109a19291906112b1565b60405160208183030381529060405290505b92915050565b60808301516109c89083610aa8565b60808301516109d79082610aa8565b505050565b60808301516109eb9083610aa8565b60808301516109d79082610abf565b6000610a1184848460016320214ca360e11b610b21565b949350505050565b600680546001600160a01b038381166001600160a01b0319831681179093556040519116919082907f8be0079c531659141344cd1fd0a4f28419497f9722a3daafe3b4186f6b6457e090600090a35050565b610a73611100565b610a838560800151610100610d28565b50509183526001600160a01b031660208301526001600160e01b031916604082015290565b610ab58260038351610d80565b6109d78282610e53565b6001600160401b0319811215610add57610ad98282610e74565b5050565b6001600160401b03811315610af657610ad98282610eb6565b60008112610b0a57610ad982600083610d80565b610ad9826001610b1c8460001961153b565b610d80565b6004546040516001600160601b03193060601b166020820152603481019190915260009060540160408051808303601f19018152918152815160209283012060045460608901526000818152600590935281832080546001600160a01b0319166001600160a01b038b16179055905190925082917fb5e6e01e79f91267dc17b4e6314d5d4d03593d2ceee0fbb452b750bd70ea5af991a2600082600080886000015189602001518a604001518b606001518a8d6080015160000151604051602401610bf398979695949392919061130d565b60408051601f198184030181529181526020820180516001600160e01b03166001600160e01b0319909416939093179092526002549151630200057560e51b81529092506001600160a01b0390911690634000aea090610c5b908a9089908690600401611375565b602060405180830381600087803b158015610c7557600080fd5b505af1158015610c89573d6000803e3d6000fd5b505050506040513d601f19601f82011682018060405250810190610cad9190611178565b610d055760405162461bcd60e51b815260206004820152602360248201527f756e61626c6520746f207472616e73666572416e6443616c6c20746f206f7261604482015262636c6560e81b6064820152608401610360565b600160046000828254610d189190611419565b9091555091979650505050505050565b610d30611135565b610d3b6020836115f2565b15610d6357610d4b6020836115f2565b610d5690602061157a565b610d609083611419565b91505b506020828101829052604080518085526000815290920101905290565b60178111610da157610d9b8360e0600585901b168317610ed9565b50505050565b60ff8111610dcb57610dbe836018611fe0600586901b1617610ed9565b50610d9b83826001610ef1565b61ffff8111610df657610de9836019611fe0600586901b1617610ed9565b50610d9b83826002610ef1565b63ffffffff8111610e2357610e1683601a611fe0600586901b1617610ed9565b50610d9b83826004610ef1565b6001600160401b0381116109d757610e4683601b611fe0600586901b1617610ed9565b50610d9b83826008610ef1565b610e5b611135565b610e6d83846000015151848551610f0a565b9392505050565b610e7f8260c3610ed9565b50610ad982610e908360001961153b565b604051602001610ea291815260200190565b604051602081830303815290604052611002565b610ec18260c2610ed9565b50610ad98282604051602001610ea291815260200190565b610ee1611135565b610e6d838460000151518461100f565b610ef9611135565b610a1184856000015151858561105e565b610f12611135565b8251821115610f2057600080fd5b6020850151610f2f8386611419565b1115610f6257610f6285610f5287602001518786610f4d9190611419565b6110d2565b610f5d90600261151c565b6110e9565b600080865180518760208301019350808887011115610f815787860182525b505050602084015b60208410610fc15780518252610fa0602083611419565b9150610fad602082611419565b9050610fba60208561157a565b9350610f89565b60006001610fd086602061157a565b610fdc90610100611474565b610fe6919061157a565b9151835183169219169190911790915250849050949350505050565b610ab58260028351610d80565b611017611135565b83602001518310611037576110378485602001516002610f5d919061151c565b835180516020858301018481535080851415611054576001810182525b5093949350505050565b611066611135565b60208501516110758584611419565b11156110895761108985610f528685611419565b6000600161109984610100611474565b6110a3919061157a565b90508551838682010185831982511617815250805184870111156110c75783860181525b509495945050505050565b6000818311156110e35750816109b3565b50919050565b81516110f58383610d28565b50610d9b8382610e53565b6040805160a081018252600080825260208201819052918101829052606081019190915260808101611130611135565b905290565b604051806040016040528060608152602001600081525090565b60006020828403121561116157600080fd5b81356001600160a01b0381168114610e6d57600080fd5b60006020828403121561118a57600080fd5b81518015158114610e6d57600080fd5b600080604083850312156111ad57600080fd5b50508035926020909101359150565b6000602082840312156111ce57600080fd5b81356001600160401b03808211156111e557600080fd5b818401915084601f8301126111f957600080fd5b81358181111561120b5761120b61162a565b604051601f8201601f19908116603f011681019083821181831017156112335761123361162a565b8160405282815287602084870101111561124c57600080fd5b826020860160208301376000928101602001929092525095945050505050565b60006020828403121561127e57600080fd5b5051919050565b6000815180845261129d816020860160208601611591565b601f01601f19169290920160200192915050565b600083516112c3818460208801611591565b8351908301906112d7818360208801611591565b01949350505050565b6001600160a01b0391909116815260200190565b6001600160a01b03929092168252602082015260400190565b6001600160a01b0389811682526020820189905260408201889052861660608201526001600160e01b03198516608082015260a0810184905260c0810183905261010060e0820181905260009061136683820185611285565b9b9a5050505050505050505050565b60018060a01b03841681528260208201526060604082015260006109836060830184611285565b6020808252818101527f4f776e61626c653a2063616c6c6572206973206e6f7420746865206f776e6572604082015260600190565b60208082526028908201527f536f75726365206d75737420626520746865206f7261636c65206f6620746865604082015267081c995c5d595cdd60c21b606082015260800190565b6000821982111561142c5761142c611614565b500190565b600181815b8085111561146c57816000190482111561145257611452611614565b8085161561145f57918102915b93841c9390800290611436565b509250929050565b6000610e6d838360008261148a575060016109b3565b81611497575060006109b3565b81600181146114ad57600281146114b7576114d3565b60019150506109b3565b60ff8411156114c8576114c8611614565b50506001821b6109b3565b5060208310610133831016604e8410600b84101617156114f6575081810a6109b3565b6115008383611431565b806000190482111561151457611514611614565b029392505050565b600081600019048311821515161561153657611536611614565b500290565b60008083128015600160ff1b85018412161561155957611559611614565b6001600160ff1b038401831381161561157457611574611614565b50500390565b60008282101561158c5761158c611614565b500390565b60005b838110156115ac578181015183820152602001611594565b83811115610d9b5750506000910152565b600181811c908216806115d157607f821691505b602082108114156110e357634e487b7160e01b600052602260045260246000fd5b60008261160f57634e487b7160e01b600052601260045260246000fd5b500690565b634e487b7160e01b600052601160045260246000fd5b634e487b7160e01b600052604160045260246000fdfe6930ee93026433301a14b1baa0b52ca0d4640cb1edaa703beeb9056e235269847cc135e0cebb02c3480ae5d74d377283180a2601f8f644edf7987b009316c63aa26469706673582212204b002fe450b5587c7ede9ea4db36011adaaeebc784910e3a3c34bca86df84c7164736f6c63430008070033",
  "immutableReferences": {},
  "source": "// SPDX-License-Identifier: UNLICENSED\r\n\r\npragma solidity ^0.8.6;\r\n\r\nimport \"./LinkPoolOracle.sol\";\r\n\r\ncontract LinkPoolUintOracle is LinkPoolOracle {\r\n    //Get uint256\r\n    bytes32 public __jobId = \"b6602d14e4734c49a5e1ce19d45a4632\";\r\n\r\n    constructor (\r\n        int __decimals, \r\n        string memory __apiBaseURL, \r\n        string memory __apiPath\r\n    ) LinkPoolOracle(\r\n        __jobId,\r\n        __decimals,\r\n        __apiBaseURL,\r\n        __apiPath,\r\n        false\r\n    ) {\r\n    }\r\n}",
  "sourcePath": "C:\\Users\\Tomi\\OneDrive - The University of Chicago\\Documents\\Securrency\\FuturesExchange\\contracts\\Oracles\\LinkPoolOracles\\LinkPoolUintOracle.sol",
  "compiler": {
    "name": "solc",
    "version": "0.8.7+commit.e28d00a7.Emscripten.clang"
  },
  "schemaVersion": "3.4.2",
  "updatedAt": "2021-09-16T13:58:13.292Z",
  "devdoc": {
    "kind": "dev",
    "methods": {
      "owner()": {
        "details": "Returns the address of the current owner."
      },
      "renounceOwnership()": {
        "details": "Leaves the contract without owner. It will not be possible to call `onlyOwner` functions anymore. Can only be called by the current owner. NOTE: Renouncing ownership will leave the contract without an owner, thereby removing any functionality that is only available to the owner."
      },
      "transferOwnership(address)": {
        "details": "Transfers ownership of the contract to a new account (`newOwner`). Can only be called by the current owner."
      }
    },
    "version": 1
  },
  "userdoc": {
    "kind": "user",
    "methods": {},
    "version": 1
  }
}