{
  "contractName": "LinkPoolValuationOracle",
  "abi": [
    {
      "inputs": [
        {
          "internalType": "uint256",
          "name": "underlyingPrice",
          "type": "uint256"
        },
        {
          "internalType": "uint8",
          "name": "annualRiskFreeRate",
          "type": "uint8"
        },
        {
          "internalType": "uint256",
          "name": "valuationDate",
          "type": "uint256"
        },
        {
          "internalType": "uint256",
          "name": "expirationDate",
          "type": "uint256"
        }
      ],
      "stateMutability": "nonpayable",
      "type": "constructor"
    },
    {
      "anonymous": false,
      "inputs": [
        {
          "indexed": true,
          "internalType": "bytes32",
          "name": "id",
          "type": "bytes32"
        }
      ],
      "name": "ChainlinkCancelled",
      "type": "event"
    },
    {
      "anonymous": false,
      "inputs": [
        {
          "indexed": true,
          "internalType": "bytes32",
          "name": "id",
          "type": "bytes32"
        }
      ],
      "name": "ChainlinkFulfilled",
      "type": "event"
    },
    {
      "anonymous": false,
      "inputs": [
        {
          "indexed": true,
          "internalType": "bytes32",
          "name": "id",
          "type": "bytes32"
        }
      ],
      "name": "ChainlinkRequested",
      "type": "event"
    },
    {
      "anonymous": false,
      "inputs": [
        {
          "indexed": false,
          "internalType": "bytes32",
          "name": "requestId",
          "type": "bytes32"
        }
      ],
      "name": "Fulfilled",
      "type": "event"
    },
    {
      "anonymous": false,
      "inputs": [
        {
          "indexed": false,
          "internalType": "address",
          "name": "withdrawer",
          "type": "address"
        },
        {
          "indexed": false,
          "internalType": "uint256",
          "name": "amount",
          "type": "uint256"
        }
      ],
      "name": "LinkWithdrawn",
      "type": "event"
    },
    {
      "anonymous": false,
      "inputs": [
        {
          "indexed": true,
          "internalType": "address",
          "name": "previousOwner",
          "type": "address"
        },
        {
          "indexed": true,
          "internalType": "address",
          "name": "newOwner",
          "type": "address"
        }
      ],
      "name": "OwnershipTransferred",
      "type": "event"
    },
    {
      "anonymous": false,
      "inputs": [
        {
          "indexed": false,
          "internalType": "address",
          "name": "sender",
          "type": "address"
        },
        {
          "indexed": false,
          "internalType": "uint256",
          "name": "amount",
          "type": "uint256"
        }
      ],
      "name": "Received",
      "type": "event"
    },
    {
      "anonymous": false,
      "inputs": [
        {
          "indexed": false,
          "internalType": "address",
          "name": "oracleAddress",
          "type": "address"
        },
        {
          "indexed": false,
          "internalType": "bytes32",
          "name": "jobId",
          "type": "bytes32"
        },
        {
          "indexed": false,
          "internalType": "uint256",
          "name": "fee",
          "type": "uint256"
        }
      ],
      "name": "RequestSent",
      "type": "event"
    },
    {
      "stateMutability": "payable",
      "type": "fallback"
    },
    {
      "inputs": [],
      "name": "apiPath",
      "outputs": [
        {
          "internalType": "string",
          "name": "",
          "type": "string"
        }
      ],
      "stateMutability": "view",
      "type": "function"
    },
    {
      "inputs": [],
      "name": "decimals",
      "outputs": [
        {
          "internalType": "int256",
          "name": "",
          "type": "int256"
        }
      ],
      "stateMutability": "view",
      "type": "function"
    },
    {
      "inputs": [],
      "name": "fee",
      "outputs": [
        {
          "internalType": "uint256",
          "name": "",
          "type": "uint256"
        }
      ],
      "stateMutability": "view",
      "type": "function"
    },
    {
      "inputs": [
        {
          "internalType": "bytes32",
          "name": "_requestId",
          "type": "bytes32"
        },
        {
          "internalType": "uint256",
          "name": "_result",
          "type": "uint256"
        }
      ],
      "name": "fulfill",
      "outputs": [],
      "stateMutability": "nonpayable",
      "type": "function"
    },
    {
      "inputs": [],
      "name": "getResult",
      "outputs": [
        {
          "internalType": "uint256",
          "name": "",
          "type": "uint256"
        }
      ],
      "stateMutability": "view",
      "type": "function"
    },
    {
      "inputs": [],
      "name": "jobId",
      "outputs": [
        {
          "internalType": "bytes32",
          "name": "",
          "type": "bytes32"
        }
      ],
      "stateMutability": "view",
      "type": "function"
    },
    {
      "inputs": [],
      "name": "linkAddress",
      "outputs": [
        {
          "internalType": "address",
          "name": "",
          "type": "address"
        }
      ],
      "stateMutability": "view",
      "type": "function"
    },
    {
      "inputs": [],
      "name": "oracleAddress",
      "outputs": [
        {
          "internalType": "address",
          "name": "",
          "type": "address"
        }
      ],
      "stateMutability": "view",
      "type": "function"
    },
    {
      "inputs": [],
      "name": "owner",
      "outputs": [
        {
          "internalType": "address",
          "name": "",
          "type": "address"
        }
      ],
      "stateMutability": "view",
      "type": "function"
    },
    {
      "inputs": [],
      "name": "renounceOwnership",
      "outputs": [],
      "stateMutability": "nonpayable",
      "type": "function"
    },
    {
      "inputs": [],
      "name": "requestIndexPrice",
      "outputs": [
        {
          "internalType": "bytes32",
          "name": "requestId",
          "type": "bytes32"
        }
      ],
      "stateMutability": "nonpayable",
      "type": "function"
    },
    {
      "inputs": [
        {
          "internalType": "address",
          "name": "newOwner",
          "type": "address"
        }
      ],
      "name": "transferOwnership",
      "outputs": [],
      "stateMutability": "nonpayable",
      "type": "function"
    },
    {
      "inputs": [],
      "name": "urlParameters",
      "outputs": [
        {
          "internalType": "string",
          "name": "",
          "type": "string"
        }
      ],
      "stateMutability": "view",
      "type": "function"
    },
    {
      "inputs": [],
      "name": "withdrawLink",
      "outputs": [],
      "stateMutability": "nonpayable",
      "type": "function"
    },
    {
      "stateMutability": "payable",
      "type": "receive"
    }
  ],
  "bytecode": "0x608060405260016004557356dd6586db0d08c6ce7b2f2805af28616e082455601060006101000a81548173ffffffffffffffffffffffffffffffffffffffff021916908373ffffffffffffffffffffffffffffffffffffffff1602179055507f623636303264313465343733346334396135653163653139643435613436333260115573a36085f69e2889c224210f603d836748e7dc0088601260006101000a81548173ffffffffffffffffffffffffffffffffffffffff021916908373ffffffffffffffffffffffffffffffffffffffff16021790555067016345785d8a0000601355348015620000f057600080fd5b5060405162002f6a38038062002f6a83398181016040528101906200011691906200069e565b601060009054906101000a900473ffffffffffffffffffffffffffffffffffffffff16601154601260009054906101000a900473ffffffffffffffffffffffffffffffffffffffff16601354878760ff1687878787620001d960405180606001604052806028815260200162002f42602891396200019a886200031560201b60201c565b620001ab886200031560201b60201c565b620001bc886200031560201b60201c565b620001cd886200031560201b60201c565b620004bb60201b60201c565b6040518060400160405280600581526020017f7072696365000000000000000000000000000000000000000000000000000000815250898960646200023362000227620004f260201b60201c565b620004fa60201b60201c565b86600860006101000a81548173ffffffffffffffffffffffffffffffffffffffff021916908373ffffffffffffffffffffffffffffffffffffffff1602179055508560098190555084600a908051906020019062000293929190620005c0565b5083600b9080519060200190620002ac929190620005c0565b5082600c60006101000a81548173ffffffffffffffffffffffffffffffffffffffff021916908373ffffffffffffffffffffffffffffffffffffffff16021790555081600e8190555080600d819055505050505050505050505050505050505050505062000b3d565b606060008214156200035f576040518060400160405280600181526020017f30000000000000000000000000000000000000000000000000000000000000008152509050620004b6565b600082905060005b60008214620003975780806200037d90620009a2565b915050600a826200038f91906200084b565b915062000367565b60008167ffffffffffffffff811115620003b657620003b562000aac565b5b6040519080825280601f01601f191660200182016040528015620003e95781602001600182028036833780820191505090505b50905060008290505b60008614620004ae576001816200040a9190620008e4565b90506000600a80886200041e91906200084b565b6200042a919062000883565b87620004379190620008e4565b60306200044591906200080d565b905060008160f81b90508084848151811062000466576200046562000a7d565b5b60200101907effffffffffffffffffffffffffffffffffffffffffffffffffffffffffffff1916908160001a905350600a88620004a491906200084b565b97505050620003f2565b819450505050505b919050565b60608585858585604051602001620004d89594939291906200076e565b604051602081830303815290604052905095945050505050565b600033905090565b6000600660009054906101000a900473ffffffffffffffffffffffffffffffffffffffff16905081600660006101000a81548173ffffffffffffffffffffffffffffffffffffffff021916908373ffffffffffffffffffffffffffffffffffffffff1602179055508173ffffffffffffffffffffffffffffffffffffffff168173ffffffffffffffffffffffffffffffffffffffff167f8be0079c531659141344cd1fd0a4f28419497f9722a3daafe3b4186f6b6457e060405160405180910390a35050565b828054620005ce906200096c565b90600052602060002090601f016020900481019282620005f257600085556200063e565b82601f106200060d57805160ff19168380011785556200063e565b828001600101855582156200063e579182015b828111156200063d57825182559160200191906001019062000620565b5b5090506200064d919062000651565b5090565b5b808211156200066c57600081600090555060010162000652565b5090565b600081519050620006818162000b09565b92915050565b600081519050620006988162000b23565b92915050565b60008060008060808587031215620006bb57620006ba62000adb565b5b6000620006cb8782880162000670565b9450506020620006de8782880162000687565b9350506040620006f18782880162000670565b9250506060620007048782880162000670565b91505092959194509250565b60006200071d82620007f7565b62000729818562000802565b93506200073b81856020860162000936565b80840191505092915050565b60006200075660018362000802565b9150620007638262000ae0565b600182019050919050565b60006200077c828862000710565b9150620007898262000747565b915062000797828762000710565b9150620007a48262000747565b9150620007b2828662000710565b9150620007bf8262000747565b9150620007cd828562000710565b9150620007da8262000747565b9150620007e8828462000710565b91508190509695505050505050565b600081519050919050565b600081905092915050565b60006200081a8262000929565b9150620008278362000929565b92508260ff0382111562000840576200083f620009f0565b5b828201905092915050565b600062000858826200091f565b915062000865836200091f565b92508262000878576200087762000a1f565b5b828204905092915050565b600062000890826200091f565b91506200089d836200091f565b9250817fffffffffffffffffffffffffffffffffffffffffffffffffffffffffffffffff0483118215151615620008d957620008d8620009f0565b5b828202905092915050565b6000620008f1826200091f565b9150620008fe836200091f565b925082821015620009145762000913620009f0565b5b828203905092915050565b6000819050919050565b600060ff82169050919050565b60005b838110156200095657808201518184015260208101905062000939565b8381111562000966576000848401525b50505050565b600060028204905060018216806200098557607f821691505b602082108114156200099c576200099b62000a4e565b5b50919050565b6000620009af826200091f565b91507fffffffffffffffffffffffffffffffffffffffffffffffffffffffffffffffff821415620009e557620009e4620009f0565b5b600182019050919050565b7f4e487b7100000000000000000000000000000000000000000000000000000000600052601160045260246000fd5b7f4e487b7100000000000000000000000000000000000000000000000000000000600052601260045260246000fd5b7f4e487b7100000000000000000000000000000000000000000000000000000000600052602260045260246000fd5b7f4e487b7100000000000000000000000000000000000000000000000000000000600052603260045260246000fd5b7f4e487b7100000000000000000000000000000000000000000000000000000000600052604160045260246000fd5b600080fd5b7f2f00000000000000000000000000000000000000000000000000000000000000600082015250565b62000b14816200091f565b811462000b2057600080fd5b50565b62000b2e8162000929565b811462000b3a57600080fd5b50565b6123f58062000b4d6000396000f3fe6080604052600436106100e15760003560e01c80638dc654a21161007f578063c2939d9711610059578063c2939d97146102a7578063ddca3f43146102d2578063de292789146102fd578063f2fde38b1461032857610121565b80638dc654a21461023a578063a89ae4ba14610251578063be4624bb1461027c57610121565b80634357855e116100bb5780634357855e146101a45780636dff2c0b146101cd578063715018a6146101f85780638da5cb5b1461020f57610121565b80630f00494a14610123578063235cea981461014e578063313ce5671461017957610121565b36610121577f88a5966d370b9919b20f3e2c13ff65706f196a4e32cc2c12bf57088f885258743334604051610117929190611ac5565b60405180910390a1005b005b34801561012f57600080fd5b50610138610351565b6040516101459190611bb1565b60405180910390f35b34801561015a57600080fd5b506101636105f4565b6040516101709190611a73565b60405180910390f35b34801561018557600080fd5b5061018e61061a565b60405161019b9190611bcc565b60405180910390f35b3480156101b057600080fd5b506101cb60048036038101906101c69190611840565b610620565b005b3480156101d957600080fd5b506101e2610768565b6040516101ef9190611be7565b60405180910390f35b34801561020457600080fd5b5061020d6107a1565b005b34801561021b57600080fd5b50610224610829565b6040516102319190611a73565b60405180910390f35b34801561024657600080fd5b5061024f610853565b005b34801561025d57600080fd5b50610266610a71565b6040516102739190611a73565b60405180910390f35b34801561028857600080fd5b50610291610a97565b60405161029e9190611be7565b60405180910390f35b3480156102b357600080fd5b506102bc610b25565b6040516102c99190611bb1565b60405180910390f35b3480156102de57600080fd5b506102e7610b2b565b6040516102f49190611ca9565b60405180910390f35b34801561030957600080fd5b50610312610b31565b60405161031f9190611ca9565b60405180910390f35b34801561033457600080fd5b5061034f600480360381019061034a91906117e6565b610b3b565b005b60008061036860095430634357855e60e01b610c33565b905061043e6040518060400160405280600381526020017f6765740000000000000000000000000000000000000000000000000000000000815250600a80546103b0906120d6565b80601f01602080910402602001604051908101604052809291908181526020018280546103dc906120d6565b80156104295780601f106103fe57610100808354040283529160200191610429565b820191906000526020600020905b81548152906001019060200180831161040c57829003601f168201915b505050505083610c649092919063ffffffff16565b6105126040518060400160405280600481526020017f7061746800000000000000000000000000000000000000000000000000000000815250600b8054610484906120d6565b80601f01602080910402602001604051908101604052809291908181526020018280546104b0906120d6565b80156104fd5780601f106104d2576101008083540402835291602001916104fd565b820191906000526020600020905b8154815290600101906020018083116104e057829003601f168201915b505050505083610c649092919063ffffffff16565b61055e6040518060400160405280600581526020017f74696d6573000000000000000000000000000000000000000000000000000000815250600d5483610c979092919063ffffffff16565b61058d600860009054906101000a900473ffffffffffffffffffffffffffffffffffffffff1682600e54610cca565b91507f5de0ca4d601c6369aafe37da9bab92be9804895234cdb72d8181492e84e6bcb2600860009054906101000a900473ffffffffffffffffffffffffffffffffffffffff16600954600e546040516105e893929190611a8e565b60405180910390a15090565b600c60009054906101000a900473ffffffffffffffffffffffffffffffffffffffff1681565b600d5481565b816005600082815260200190815260200160002060009054906101000a900473ffffffffffffffffffffffffffffffffffffffff1673ffffffffffffffffffffffffffffffffffffffff163373ffffffffffffffffffffffffffffffffffffffff16146106c2576040517f08c379a00000000000000000000000000000000000000000000000000000000081526004016106b990611c69565b60405180910390fd5b6005600082815260200190815260200160002060006101000a81549073ffffffffffffffffffffffffffffffffffffffff0219169055807f7cc135e0cebb02c3480ae5d74d377283180a2601f8f644edf7987b009316c63a60405160405180910390a2816007819055507f6930ee93026433301a14b1baa0b52ca0d4640cb1edaa703beeb9056e235269848360405161075b9190611bb1565b60405180910390a1505050565b6040518060400160405280600581526020017f707269636500000000000000000000000000000000000000000000000000000081525081565b6107a9610cea565b73ffffffffffffffffffffffffffffffffffffffff166107c7610829565b73ffffffffffffffffffffffffffffffffffffffff161461081d576040517f08c379a000000000000000000000000000000000000000000000000000000000815260040161081490611c49565b60405180910390fd5b6108276000610cf2565b565b6000600660009054906101000a900473ffffffffffffffffffffffffffffffffffffffff16905090565b61085b610cea565b73ffffffffffffffffffffffffffffffffffffffff16610879610829565b73ffffffffffffffffffffffffffffffffffffffff16146108cf576040517f08c379a00000000000000000000000000000000000000000000000000000000081526004016108c690611c49565b60405180910390fd5b60006108d9610db8565b905060008173ffffffffffffffffffffffffffffffffffffffff166370a08231306040518263ffffffff1660e01b81526004016109169190611a73565b60206040518083038186803b15801561092e57600080fd5b505afa158015610942573d6000803e3d6000fd5b505050506040513d601f19601f820116820180604052508101906109669190611880565b90508173ffffffffffffffffffffffffffffffffffffffff1663a9059cbb33836040518363ffffffff1660e01b81526004016109a3929190611ac5565b602060405180830381600087803b1580156109bd57600080fd5b505af11580156109d1573d6000803e3d6000fd5b505050506040513d601f19601f820116820180604052508101906109f59190611813565b610a34576040517f08c379a0000000000000000000000000000000000000000000000000000000008152600401610a2b90611c89565b60405180910390fd5b7fcb1436249a1dd8cf93362c28d79a4e20dc54398b6c49e30316e8396e72a584b03382604051610a65929190611ac5565b60405180910390a15050565b600860009054906101000a900473ffffffffffffffffffffffffffffffffffffffff1681565b600f8054610aa4906120d6565b80601f0160208091040260200160405190810160405280929190818152602001828054610ad0906120d6565b8015610b1d5780601f10610af257610100808354040283529160200191610b1d565b820191906000526020600020905b815481529060010190602001808311610b0057829003601f168201915b505050505081565b60095481565b600e5481565b6000600754905090565b610b43610cea565b73ffffffffffffffffffffffffffffffffffffffff16610b61610829565b73ffffffffffffffffffffffffffffffffffffffff1614610bb7576040517f08c379a0000000000000000000000000000000000000000000000000000000008152600401610bae90611c49565b60405180910390fd5b600073ffffffffffffffffffffffffffffffffffffffff168173ffffffffffffffffffffffffffffffffffffffff161415610c27576040517f08c379a0000000000000000000000000000000000000000000000000000000008152600401610c1e90611c09565b60405180910390fd5b610c3081610cf2565b50565b610c3b6116f6565b610c436116f6565b610c5a85858584610de2909392919063ffffffff16565b9150509392505050565b610c7b828460800151610e9290919063ffffffff16565b610c92818460800151610e9290919063ffffffff16565b505050565b610cae828460800151610e9290919063ffffffff16565b610cc5818460800151610eb790919063ffffffff16565b505050565b6000610ce18484846001634042994660e01b610f64565b90509392505050565b600033905090565b6000600660009054906101000a900473ffffffffffffffffffffffffffffffffffffffff16905081600660006101000a81548173ffffffffffffffffffffffffffffffffffffffff021916908373ffffffffffffffffffffffffffffffffffffffff1602179055508173ffffffffffffffffffffffffffffffffffffffff168173ffffffffffffffffffffffffffffffffffffffff167f8be0079c531659141344cd1fd0a4f28419497f9722a3daafe3b4186f6b6457e060405160405180910390a35050565b6000600260009054906101000a900473ffffffffffffffffffffffffffffffffffffffff16905090565b610dea6116f6565b610dfa85608001516101006111cc565b508385600001818152505082856020019073ffffffffffffffffffffffffffffffffffffffff16908173ffffffffffffffffffffffffffffffffffffffff16815250508185604001907bffffffffffffffffffffffffffffffffffffffffffffffffffffffff191690817bffffffffffffffffffffffffffffffffffffffffffffffffffffffff191681525050849050949350505050565b610e9f8260038351611236565b610eb2818361137b90919063ffffffff16565b505050565b7fffffffffffffffffffffffffffffffffffffffffffffffff0000000000000000811215610eee57610ee9828261139d565b610f60565b67ffffffffffffffff811315610f0d57610f088282611414565b610f5f565b60008112610f2657610f2182600083611236565b610f5e565b610f5d826001837fffffffffffffffffffffffffffffffffffffffffffffffffffffffffffffffff610f589190611f1d565b611236565b5b5b5b5050565b600030600454604051602001610f7b929190611a47565b604051602081830303815290604052805190602001209050600454856060018181525050856005600083815260200190815260200160002060006101000a81548173ffffffffffffffffffffffffffffffffffffffff021916908373ffffffffffffffffffffffffffffffffffffffff160217905550807fb5e6e01e79f91267dc17b4e6314d5d4d03593d2ceee0fbb452b750bd70ea5af960405160405180910390a2600082600080886000015189602001518a604001518b606001518a8d6080015160000151604051602401611059989796959493929190611aee565b604051602081830303815290604052907bffffffffffffffffffffffffffffffffffffffffffffffffffffffff19166020820180517bffffffffffffffffffffffffffffffffffffffffffffffffffffffff83818316178352505050509050600260009054906101000a900473ffffffffffffffffffffffffffffffffffffffff1673ffffffffffffffffffffffffffffffffffffffff16634000aea08887846040518463ffffffff1660e01b815260040161111793929190611b73565b602060405180830381600087803b15801561113157600080fd5b505af1158015611145573d6000803e3d6000fd5b505050506040513d601f19601f820116820180604052508101906111699190611813565b6111a8576040517f08c379a000000000000000000000000000000000000000000000000000000000815260040161119f90611c29565b60405180910390fd5b6001600460008282546111bb9190611cfc565b925050819055505095945050505050565b6111d4611763565b60006020836111e39190612136565b1461120f576020826111f59190612136565b60206112019190611fb1565b8261120c9190611cfc565b91505b81836020018181525050604051808452600081528281016020016040525082905092915050565b601781116112635761125d8160058460ff16901b60ff16178461146090919063ffffffff16565b50611376565b60ff81116112a557611288601860058460ff16901b178461146090919063ffffffff16565b5061129f816001856114809092919063ffffffff16565b50611375565b61ffff81116112e8576112cb601960058460ff16901b178461146090919063ffffffff16565b506112e2816002856114809092919063ffffffff16565b50611374565b63ffffffff811161132d57611310601a60058460ff16901b178461146090919063ffffffff16565b50611327816004856114809092919063ffffffff16565b50611373565b67ffffffffffffffff811161137257611359601b60058460ff16901b178461146090919063ffffffff16565b50611370816008856114809092919063ffffffff16565b505b5b5b5b5b505050565b611383611763565b611395838460000151518485516114a2565b905092915050565b6113bb60036005600660ff16901b178361146090919063ffffffff16565b5061141082827fffffffffffffffffffffffffffffffffffffffffffffffffffffffffffffffff6113ec9190611f1d565b6040516020016113fc9190611ca9565b6040516020818303038152906040526115ac565b5050565b61143260026005600660ff16901b178361146090919063ffffffff16565b5061145c82826040516020016114489190611ca9565b6040516020818303038152906040526115ac565b5050565b611468611763565b61147883846000015151846115d1565b905092915050565b611488611763565b611499848560000151518585611628565b90509392505050565b6114aa611763565b82518211156114b857600080fd5b846020015182856114c99190611cfc565b11156114fe576114fd8560026114ee886020015188876114e99190611cfc565b6116b6565b6114f89190611ec3565b6116d2565b5b60008086518051876020830101935080888701111561151d5787860182525b60208701925050505b60208410611564578051825260208261153f9190611cfc565b915060208161154e9190611cfc565b905060208461155d9190611fb1565b9350611526565b600060018560206115759190611fb1565b6101006115829190611da5565b61158c9190611fb1565b905080198251168184511681811785525050879350505050949350505050565b6115b98260028351611236565b6115cc818361137b90919063ffffffff16565b505050565b6115d9611763565b836020015183106115ff576115fe84600286602001516115f99190611ec3565b6116d2565b5b835180516020858301018481538186141561161b576001820183525b5050508390509392505050565b611630611763565b846020015184836116419190611cfc565b11156116695761166885600286856116599190611cfc565b6116639190611ec3565b6116d2565b5b600060018361010061167b9190611da5565b6116859190611fb1565b905085518386820101858319825116178152815185880111156116a85784870182525b505085915050949350505050565b6000818311156116c8578290506116cc565b8190505b92915050565b6000826000015190506116e583836111cc565b506116f0838261137b565b50505050565b6040518060a0016040528060008019168152602001600073ffffffffffffffffffffffffffffffffffffffff16815260200160007bffffffffffffffffffffffffffffffffffffffffffffffffffffffff191681526020016000815260200161175d611763565b81525090565b604051806040016040528060608152602001600081525090565b60008135905061178c81612363565b92915050565b6000815190506117a18161237a565b92915050565b6000813590506117b681612391565b92915050565b6000813590506117cb816123a8565b92915050565b6000815190506117e0816123a8565b92915050565b6000602082840312156117fc576117fb6121f4565b5b600061180a8482850161177d565b91505092915050565b600060208284031215611829576118286121f4565b5b600061183784828501611792565b91505092915050565b60008060408385031215611857576118566121f4565b5b6000611865858286016117a7565b9250506020611876858286016117bc565b9150509250929050565b600060208284031215611896576118956121f4565b5b60006118a4848285016117d1565b91505092915050565b6118b681611fe5565b82525050565b6118c581612003565b82525050565b6118d48161200d565b82525050565b60006118e582611cc4565b6118ef8185611cda565b93506118ff8185602086016120a3565b611908816121f9565b840191505092915050565b61192461191f8261206d565b612108565b82525050565b61193381612039565b82525050565b600061194482611ccf565b61194e8185611ceb565b935061195e8185602086016120a3565b611967816121f9565b840191505092915050565b600061197f602683611ceb565b915061198a82612224565b604082019050919050565b60006119a2602383611ceb565b91506119ad82612273565b604082019050919050565b60006119c5602083611ceb565b91506119d0826122c2565b602082019050919050565b60006119e8602883611ceb565b91506119f3826122eb565b604082019050919050565b6000611a0b601283611ceb565b9150611a168261233a565b602082019050919050565b611a2a81612063565b82525050565b611a41611a3c82612063565b61212c565b82525050565b6000611a538285611913565b601482019150611a638284611a30565b6020820191508190509392505050565b6000602082019050611a8860008301846118ad565b92915050565b6000606082019050611aa360008301866118ad565b611ab060208301856118bc565b611abd6040830184611a21565b949350505050565b6000604082019050611ada60008301856118ad565b611ae76020830184611a21565b9392505050565b600061010082019050611b04600083018b6118ad565b611b11602083018a611a21565b611b1e60408301896118bc565b611b2b60608301886118ad565b611b3860808301876118cb565b611b4560a0830186611a21565b611b5260c0830185611a21565b81810360e0830152611b6481846118da565b90509998505050505050505050565b6000606082019050611b8860008301866118ad565b611b956020830185611a21565b8181036040830152611ba781846118da565b9050949350505050565b6000602082019050611bc660008301846118bc565b92915050565b6000602082019050611be1600083018461192a565b92915050565b60006020820190508181036000830152611c018184611939565b905092915050565b60006020820190508181036000830152611c2281611972565b9050919050565b60006020820190508181036000830152611c4281611995565b9050919050565b60006020820190508181036000830152611c62816119b8565b9050919050565b60006020820190508181036000830152611c82816119db565b9050919050565b60006020820190508181036000830152611ca2816119fe565b9050919050565b6000602082019050611cbe6000830184611a21565b92915050565b600081519050919050565b600081519050919050565b600082825260208201905092915050565b600082825260208201905092915050565b6000611d0782612063565b9150611d1283612063565b9250827fffffffffffffffffffffffffffffffffffffffffffffffffffffffffffffffff03821115611d4757611d46612167565b5b828201905092915050565b6000808291508390505b6001851115611d9c57808604811115611d7857611d77612167565b5b6001851615611d875780820291505b8081029050611d9585612217565b9450611d5c565b94509492505050565b6000611db082612063565b9150611dbb83612063565b9250611de87fffffffffffffffffffffffffffffffffffffffffffffffffffffffffffffffff8484611df0565b905092915050565b600082611e005760019050611ebc565b81611e0e5760009050611ebc565b8160018114611e245760028114611e2e57611e5d565b6001915050611ebc565b60ff841115611e4057611e3f612167565b5b8360020a915084821115611e5757611e56612167565b5b50611ebc565b5060208310610133831016604e8410600b8410161715611e925782820a905083811115611e8d57611e8c612167565b5b611ebc565b611e9f8484846001611d52565b92509050818404811115611eb657611eb5612167565b5b81810290505b9392505050565b6000611ece82612063565b9150611ed983612063565b9250817fffffffffffffffffffffffffffffffffffffffffffffffffffffffffffffffff0483118215151615611f1257611f11612167565b5b828202905092915050565b6000611f2882612039565b9150611f3383612039565b9250827f800000000000000000000000000000000000000000000000000000000000000001821260008412151615611f6e57611f6d612167565b5b827f7fffffffffffffffffffffffffffffffffffffffffffffffffffffffffffffff018213600084121615611fa657611fa5612167565b5b828203905092915050565b6000611fbc82612063565b9150611fc783612063565b925082821015611fda57611fd9612167565b5b828203905092915050565b6000611ff082612043565b9050919050565b60008115159050919050565b6000819050919050565b60007fffffffff0000000000000000000000000000000000000000000000000000000082169050919050565b6000819050919050565b600073ffffffffffffffffffffffffffffffffffffffff82169050919050565b6000819050919050565b60006120788261207f565b9050919050565b600061208a82612091565b9050919050565b600061209c82612043565b9050919050565b60005b838110156120c15780820151818401526020810190506120a6565b838111156120d0576000848401525b50505050565b600060028204905060018216806120ee57607f821691505b60208210811415612102576121016121c5565b5b50919050565b60006121138261211a565b9050919050565b60006121258261220a565b9050919050565b6000819050919050565b600061214182612063565b915061214c83612063565b92508261215c5761215b612196565b5b828206905092915050565b7f4e487b7100000000000000000000000000000000000000000000000000000000600052601160045260246000fd5b7f4e487b7100000000000000000000000000000000000000000000000000000000600052601260045260246000fd5b7f4e487b7100000000000000000000000000000000000000000000000000000000600052602260045260246000fd5b600080fd5b6000601f19601f8301169050919050565b60008160601b9050919050565b60008160011c9050919050565b7f4f776e61626c653a206e6577206f776e657220697320746865207a65726f206160008201527f6464726573730000000000000000000000000000000000000000000000000000602082015250565b7f756e61626c6520746f207472616e73666572416e6443616c6c20746f206f726160008201527f636c650000000000000000000000000000000000000000000000000000000000602082015250565b7f4f776e61626c653a2063616c6c6572206973206e6f7420746865206f776e6572600082015250565b7f536f75726365206d75737420626520746865206f7261636c65206f662074686560008201527f2072657175657374000000000000000000000000000000000000000000000000602082015250565b7f556e61626c6520746f2077697468647261770000000000000000000000000000600082015250565b61236c81611fe5565b811461237757600080fd5b50565b61238381611ff7565b811461238e57600080fd5b50565b61239a81612003565b81146123a557600080fd5b50565b6123b181612063565b81146123bc57600080fd5b5056fea264697066735822122076d948564a9a97a18a8522605af781ccb45f2530381d4512f2dafed50145269164736f6c63430008070033687474703a2f2f76616c756174696f6e2d6170692e6865726f6b756170702e636f6d2f7072696365",
  "immutableReferences": {},
  "source": "// SPDX-License-Identifier: UNLICENSED\r\n\r\npragma solidity ^0.8.6;\r\n\r\nimport \"./ValuationOracle.sol\";\r\n\r\ncontract LinkPoolValuationOracle is ValuationOracle {\r\n    address _oracleAddress = 0x56dd6586DB0D08c6Ce7B2f2805af28616E082455;\r\n    bytes32 _jobId = \"b6602d14e4734c49a5e1ce19d45a4632\";\r\n    address _linkAddress = 0xa36085F69e2889c224210F603D836748e7dC0088;\r\n    uint256 _fee = 0.1 * 10 ** 18; //0.1 LINK\r\n\r\n    constructor(\r\n        uint256 underlyingPrice, \r\n        uint8 annualRiskFreeRate, \r\n        uint256 valuationDate, \r\n        uint256 expirationDate) \r\n        ValuationOracle (\r\n            _oracleAddress,\r\n            _jobId,\r\n            _linkAddress,\r\n            _fee,\r\n            underlyingPrice,\r\n            annualRiskFreeRate,\r\n            valuationDate,\r\n            expirationDate\r\n        ) {\r\n    }\r\n}",
  "sourcePath": "C:\\Users\\Tomi\\OneDrive - The University of Chicago\\Documents\\Securrency\\FuturesExchange\\contracts\\Oracles\\LinkPoolValuationOracle.sol",
  "compiler": {
    "name": "solc",
    "version": "0.8.7+commit.e28d00a7.Emscripten.clang"
  },
  "schemaVersion": "3.4.2",
  "updatedAt": "2021-08-23T21:26:39.692Z",
  "devdoc": {
    "kind": "dev",
    "methods": {
      "owner()": {
        "details": "Returns the address of the current owner."
      },
      "renounceOwnership()": {
        "details": "Leaves the contract without owner. It will not be possible to call `onlyOwner` functions anymore. Can only be called by the current owner. NOTE: Renouncing ownership will leave the contract without an owner, thereby removing any functionality that is only available to the owner."
      },
      "transferOwnership(address)": {
        "details": "Transfers ownership of the contract to a new account (`newOwner`). Can only be called by the current owner."
      }
    },
    "version": 1
  },
  "userdoc": {
    "kind": "user",
    "methods": {},
    "version": 1
  }
}