{
  "contractName": "UnderlyingPriceOracleBTCUSD",
  "abi": [
    {
      "inputs": [
        {
          "internalType": "address",
          "name": "oracleAddress",
          "type": "address"
        },
        {
          "internalType": "bytes32",
          "name": "jobId",
          "type": "bytes32"
        },
        {
          "internalType": "address",
          "name": "linkAddress",
          "type": "address"
        },
        {
          "internalType": "uint256",
          "name": "fee",
          "type": "uint256"
        }
      ],
      "stateMutability": "nonpayable",
      "type": "constructor"
    },
    {
      "anonymous": false,
      "inputs": [
        {
          "indexed": true,
          "internalType": "bytes32",
          "name": "id",
          "type": "bytes32"
        }
      ],
      "name": "ChainlinkCancelled",
      "type": "event"
    },
    {
      "anonymous": false,
      "inputs": [
        {
          "indexed": true,
          "internalType": "bytes32",
          "name": "id",
          "type": "bytes32"
        }
      ],
      "name": "ChainlinkFulfilled",
      "type": "event"
    },
    {
      "anonymous": false,
      "inputs": [
        {
          "indexed": true,
          "internalType": "bytes32",
          "name": "id",
          "type": "bytes32"
        }
      ],
      "name": "ChainlinkRequested",
      "type": "event"
    },
    {
      "anonymous": false,
      "inputs": [
        {
          "indexed": false,
          "internalType": "bytes32",
          "name": "requestId",
          "type": "bytes32"
        }
      ],
      "name": "Fulfilled",
      "type": "event"
    },
    {
      "anonymous": false,
      "inputs": [
        {
          "indexed": false,
          "internalType": "address",
          "name": "withdrawer",
          "type": "address"
        },
        {
          "indexed": false,
          "internalType": "uint256",
          "name": "amount",
          "type": "uint256"
        }
      ],
      "name": "LinkWithdrawn",
      "type": "event"
    },
    {
      "anonymous": false,
      "inputs": [
        {
          "indexed": true,
          "internalType": "address",
          "name": "previousOwner",
          "type": "address"
        },
        {
          "indexed": true,
          "internalType": "address",
          "name": "newOwner",
          "type": "address"
        }
      ],
      "name": "OwnershipTransferred",
      "type": "event"
    },
    {
      "anonymous": false,
      "inputs": [
        {
          "indexed": false,
          "internalType": "address",
          "name": "sender",
          "type": "address"
        },
        {
          "indexed": false,
          "internalType": "uint256",
          "name": "amount",
          "type": "uint256"
        }
      ],
      "name": "Received",
      "type": "event"
    },
    {
      "anonymous": false,
      "inputs": [
        {
          "indexed": false,
          "internalType": "address",
          "name": "oracleAddress",
          "type": "address"
        },
        {
          "indexed": false,
          "internalType": "bytes32",
          "name": "jobId",
          "type": "bytes32"
        },
        {
          "indexed": false,
          "internalType": "uint256",
          "name": "fee",
          "type": "uint256"
        }
      ],
      "name": "RequestSent",
      "type": "event"
    },
    {
      "stateMutability": "payable",
      "type": "fallback"
    },
    {
      "inputs": [],
      "name": "apiPath",
      "outputs": [
        {
          "internalType": "string",
          "name": "",
          "type": "string"
        }
      ],
      "stateMutability": "view",
      "type": "function"
    },
    {
      "inputs": [],
      "name": "decimals",
      "outputs": [
        {
          "internalType": "int256",
          "name": "",
          "type": "int256"
        }
      ],
      "stateMutability": "view",
      "type": "function"
    },
    {
      "inputs": [],
      "name": "fee",
      "outputs": [
        {
          "internalType": "uint256",
          "name": "",
          "type": "uint256"
        }
      ],
      "stateMutability": "view",
      "type": "function"
    },
    {
      "inputs": [
        {
          "internalType": "bytes32",
          "name": "_requestId",
          "type": "bytes32"
        },
        {
          "internalType": "uint256",
          "name": "_result",
          "type": "uint256"
        }
      ],
      "name": "fulfill",
      "outputs": [],
      "stateMutability": "nonpayable",
      "type": "function"
    },
    {
      "inputs": [],
      "name": "getResult",
      "outputs": [
        {
          "internalType": "uint256",
          "name": "",
          "type": "uint256"
        }
      ],
      "stateMutability": "view",
      "type": "function"
    },
    {
      "inputs": [],
      "name": "jobId",
      "outputs": [
        {
          "internalType": "bytes32",
          "name": "",
          "type": "bytes32"
        }
      ],
      "stateMutability": "view",
      "type": "function"
    },
    {
      "inputs": [],
      "name": "linkAddress",
      "outputs": [
        {
          "internalType": "address",
          "name": "",
          "type": "address"
        }
      ],
      "stateMutability": "view",
      "type": "function"
    },
    {
      "inputs": [],
      "name": "oracleAddress",
      "outputs": [
        {
          "internalType": "address",
          "name": "",
          "type": "address"
        }
      ],
      "stateMutability": "view",
      "type": "function"
    },
    {
      "inputs": [],
      "name": "owner",
      "outputs": [
        {
          "internalType": "address",
          "name": "",
          "type": "address"
        }
      ],
      "stateMutability": "view",
      "type": "function"
    },
    {
      "inputs": [],
      "name": "renounceOwnership",
      "outputs": [],
      "stateMutability": "nonpayable",
      "type": "function"
    },
    {
      "inputs": [],
      "name": "requestIndexPrice",
      "outputs": [
        {
          "internalType": "bytes32",
          "name": "requestId",
          "type": "bytes32"
        }
      ],
      "stateMutability": "nonpayable",
      "type": "function"
    },
    {
      "inputs": [
        {
          "internalType": "address",
          "name": "newOwner",
          "type": "address"
        }
      ],
      "name": "transferOwnership",
      "outputs": [],
      "stateMutability": "nonpayable",
      "type": "function"
    },
    {
      "inputs": [],
      "name": "withdrawLink",
      "outputs": [],
      "stateMutability": "nonpayable",
      "type": "function"
    },
    {
      "stateMutability": "payable",
      "type": "receive"
    }
  ],
  "bytecode": "0x608060405260016004553480156200001657600080fd5b506040516200165c3803806200165c833981016040819052620000399162000215565b838360405180608001604052806047815260200162001615604791396040805180820190915260038152621554d160ea1b6020820152858560646200007e3362000100565b600880546001600160a01b0319166001600160a01b03891617905560098690558451620000b390600a90602088019062000152565b508351620000c990600b90602087019062000152565b50600c80546001600160a01b0319166001600160a01b039490941693909317909255600e55600d55506200029b9650505050505050565b600680546001600160a01b038381166001600160a01b0319831681179093556040519116919082907f8be0079c531659141344cd1fd0a4f28419497f9722a3daafe3b4186f6b6457e090600090a35050565b82805462000160906200025e565b90600052602060002090601f016020900481019282620001845760008555620001cf565b82601f106200019f57805160ff1916838001178555620001cf565b82800160010185558215620001cf579182015b82811115620001cf578251825591602001919060010190620001b2565b50620001dd929150620001e1565b5090565b5b80821115620001dd5760008155600101620001e2565b80516001600160a01b03811681146200021057600080fd5b919050565b600080600080608085870312156200022c57600080fd5b6200023785620001f8565b9350602085015192506200024e60408601620001f8565b6060959095015193969295505050565b600181811c908216806200027357607f821691505b602082108114156200029557634e487b7160e01b600052602260045260246000fd5b50919050565b61136a80620002ab6000396000f3fe6080604052600436106100a35760003560e01c80630f00494a146100e5578063235cea981461010d578063313ce5671461013a5780634357855e146101505780636dff2c0b14610170578063715018a6146101ac5780638da5cb5b146101c15780638dc654a2146101d6578063a89ae4ba146101eb578063c2939d971461020b578063ddca3f4314610221578063de29278914610237578063f2fde38b1461024c57005b366100e3577f88a5966d370b9919b20f3e2c13ff65706f196a4e32cc2c12bf57088f8852587433346040516100d992919061105f565b60405180910390a1005b005b3480156100f157600080fd5b506100fa61026c565b6040519081526020015b60405180910390f35b34801561011957600080fd5b50600c5461012d906001600160a01b031681565b604051610104919061104b565b34801561014657600080fd5b506100fa600d5481565b34801561015c57600080fd5b506100e361016b366004610fc3565b61040b565b34801561017c57600080fd5b5061019f604051806040016040528060038152602001621554d160ea1b81525081565b6040516101049190611107565b3480156101b857600080fd5b506100e3610509565b3480156101cd57600080fd5b5061012d610544565b3480156101e257600080fd5b506100e3610553565b3480156101f757600080fd5b5060085461012d906001600160a01b031681565b34801561021757600080fd5b506100fa60095481565b34801561022d57600080fd5b506100fa600e5481565b34801561024357600080fd5b506007546100fa565b34801561025857600080fd5b506100e3610267366004610f78565b610717565b60008061028360095430634357855e60e01b6107b7565b905061033f6040518060400160405280600381526020016219d95d60ea1b815250600a80546102b1906112c7565b80601f01602080910402602001604051908101604052809291908181526020018280546102dd906112c7565b801561032a5780601f106102ff5761010080835404028352916020019161032a565b820191906000526020600020905b81548152906001019060200180831161030d57829003601f168201915b5050505050836107dc9092919063ffffffff16565b61036c604051806040016040528060048152602001630e0c2e8d60e31b815250600b80546102b1906112c7565b60408051808201909152600581526474696d657360d81b6020820152600d546103969183916107ff565b600854600e546103b1916001600160a01b031690839061081d565b600854600954600e54604080516001600160a01b0390941684526020840192909252908201529092507f5de0ca4d601c6369aafe37da9bab92be9804895234cdb72d8181492e84e6bcb29060600160405180910390a15090565b60008281526005602052604090205482906001600160a01b031633146104895760405162461bcd60e51b815260206004820152602860248201527f536f75726365206d75737420626520746865206f7261636c65206f6620746865604482015267081c995c5d595cdd60c21b60648201526084015b60405180910390fd5b60008181526005602052604080822080546001600160a01b03191690555182917f7cc135e0cebb02c3480ae5d74d377283180a2601f8f644edf7987b009316c63a91a260078290556040518381527f6930ee93026433301a14b1baa0b52ca0d4640cb1edaa703beeb9056e235269849060200160405180910390a1505050565b33610512610544565b6001600160a01b0316146105385760405162461bcd60e51b81526004016104809061111a565b610542600061083c565b565b6006546001600160a01b031690565b3361055c610544565b6001600160a01b0316146105825760405162461bcd60e51b81526004016104809061111a565b60006105966002546001600160a01b031690565b90506000816001600160a01b03166370a08231306040518263ffffffff1660e01b81526004016105c6919061104b565b60206040518083038186803b1580156105de57600080fd5b505afa1580156105f2573d6000803e3d6000fd5b505050506040513d601f19601f820116820180604052508101906106169190610fe5565b60405163a9059cbb60e01b81529091506001600160a01b0383169063a9059cbb90610647903390859060040161105f565b602060405180830381600087803b15801561066157600080fd5b505af1158015610675573d6000803e3d6000fd5b505050506040513d601f19601f820116820180604052508101906106999190610fa1565b6106da5760405162461bcd60e51b8152602060048201526012602482015271556e61626c6520746f20776974686472617760701b6044820152606401610480565b7fcb1436249a1dd8cf93362c28d79a4e20dc54398b6c49e30316e8396e72a584b0338260405161070b92919061105f565b60405180910390a15050565b33610720610544565b6001600160a01b0316146107465760405162461bcd60e51b81526004016104809061111a565b6001600160a01b0381166107ab5760405162461bcd60e51b815260206004820152602660248201527f4f776e61626c653a206e6577206f776e657220697320746865207a65726f206160448201526564647265737360d01b6064820152608401610480565b6107b48161083c565b50565b6107bf610f29565b6107c7610f29565b6107d38186868661088e565b95945050505050565b60808301516107eb90836108cb565b60808301516107fa90826108cb565b505050565b608083015161080e90836108cb565b60808301516107fa90826108e2565b600061083484848460016320214ca360e11b610944565b949350505050565b600680546001600160a01b038381166001600160a01b0319831681179093556040519116919082907f8be0079c531659141344cd1fd0a4f28419497f9722a3daafe3b4186f6b6457e090600090a35050565b610896610f29565b6108a68560800151610100610b4b565b50509183526001600160a01b031660208301526001600160e01b031916604082015290565b6108d88260038351610ba9565b6107fa8282610c7c565b6001600160401b0319811215610900576108fc8282610c9d565b5050565b6001600160401b03811315610919576108fc8282610cdf565b6000811261092d576108fc82600083610ba9565b6108fc82600161093f84600019611271565b610ba9565b6004546040516001600160601b03193060601b166020820152603481019190915260009060540160408051808303601f19018152918152815160209283012060045460608901526000818152600590935281832080546001600160a01b0319166001600160a01b038b16179055905190925082917fb5e6e01e79f91267dc17b4e6314d5d4d03593d2ceee0fbb452b750bd70ea5af991a2600082600080886000015189602001518a604001518b606001518a8d6080015160000151604051602401610a16989796959493929190611078565b60408051601f198184030181529181526020820180516001600160e01b03166001600160e01b0319909416939093179092526002549151630200057560e51b81529092506001600160a01b0390911690634000aea090610a7e908a90899086906004016110e0565b602060405180830381600087803b158015610a9857600080fd5b505af1158015610aac573d6000803e3d6000fd5b505050506040513d601f19601f82011682018060405250810190610ad09190610fa1565b610b285760405162461bcd60e51b815260206004820152602360248201527f756e61626c6520746f207472616e73666572416e6443616c6c20746f206f7261604482015262636c6560e81b6064820152608401610480565b600160046000828254610b3b919061114f565b9091555091979650505050505050565b610b53610f5e565b610b5e6020836112fc565b15610b8657610b6e6020836112fc565b610b799060206112b0565b610b83908361114f565b91505b506020808301829052604080518085526000815283019091019052815b92915050565b60178111610bca57610bc48360e0600585901b168317610d02565b50505050565b60ff8111610bf457610be7836018611fe0600586901b1617610d02565b50610bc483826001610d1a565b61ffff8111610c1f57610c12836019611fe0600586901b1617610d02565b50610bc483826002610d1a565b63ffffffff8111610c4c57610c3f83601a611fe0600586901b1617610d02565b50610bc483826004610d1a565b6001600160401b0381116107fa57610c6f83601b611fe0600586901b1617610d02565b50610bc483826008610d1a565b610c84610f5e565b610c9683846000015151848551610d33565b9392505050565b610ca88260c3610d02565b506108fc82610cb983600019611271565b604051602001610ccb91815260200190565b604051602081830303815290604052610e2b565b610cea8260c2610d02565b506108fc8282604051602001610ccb91815260200190565b610d0a610f5e565b610c968384600001515184610e38565b610d22610f5e565b610834848560000151518585610e87565b610d3b610f5e565b8251821115610d4957600080fd5b6020850151610d58838661114f565b1115610d8b57610d8b85610d7b87602001518786610d76919061114f565b610efb565b610d86906002611252565b610f12565b600080865180518760208301019350808887011115610daa5787860182525b505050602084015b60208410610dea5780518252610dc960208361114f565b9150610dd660208261114f565b9050610de36020856112b0565b9350610db2565b60006001610df98660206112b0565b610e05906101006111aa565b610e0f91906112b0565b9151835183169219169190911790915250849050949350505050565b6108d88260028351610ba9565b610e40610f5e565b83602001518310610e6057610e608485602001516002610d869190611252565b835180516020858301018481535080851415610e7d576001810182525b5093949350505050565b610e8f610f5e565b6020850151610e9e858461114f565b1115610eb257610eb285610d7b868561114f565b60006001610ec2846101006111aa565b610ecc91906112b0565b9050855183868201018583198251161781525080518487011115610ef05783860181525b509495945050505050565b600081831115610f0c575081610ba3565b50919050565b8151610f1e8383610b4b565b50610bc48382610c7c565b6040805160a081018252600080825260208201819052918101829052606081019190915260808101610f59610f5e565b905290565b604051806040016040528060608152602001600081525090565b600060208284031215610f8a57600080fd5b81356001600160a01b0381168114610c9657600080fd5b600060208284031215610fb357600080fd5b81518015158114610c9657600080fd5b60008060408385031215610fd657600080fd5b50508035926020909101359150565b600060208284031215610ff757600080fd5b5051919050565b6000815180845260005b8181101561102457602081850181015186830182015201611008565b81811115611036576000602083870101525b50601f01601f19169290920160200192915050565b6001600160a01b0391909116815260200190565b6001600160a01b03929092168252602082015260400190565b6001600160a01b0389811682526020820189905260408201889052861660608201526001600160e01b03198516608082015260a0810184905260c0810183905261010060e082018190526000906110d183820185610ffe565b9b9a5050505050505050505050565b60018060a01b03841681528260208201526060604082015260006107d36060830184610ffe565b602081526000610c966020830184610ffe565b6020808252818101527f4f776e61626c653a2063616c6c6572206973206e6f7420746865206f776e6572604082015260600190565b600082198211156111625761116261131e565b500190565b600181815b808511156111a25781600019048211156111885761118861131e565b8085161561119557918102915b93841c939080029061116c565b509250929050565b6000610c9683836000826111c057506001610ba3565b816111cd57506000610ba3565b81600181146111e357600281146111ed57611209565b6001915050610ba3565b60ff8411156111fe576111fe61131e565b50506001821b610ba3565b5060208310610133831016604e8410600b841016171561122c575081810a610ba3565b6112368383611167565b806000190482111561124a5761124a61131e565b029392505050565b600081600019048311821515161561126c5761126c61131e565b500290565b60008083128015600160ff1b85018412161561128f5761128f61131e565b6001600160ff1b03840183138116156112aa576112aa61131e565b50500390565b6000828210156112c2576112c261131e565b500390565b600181811c908216806112db57607f821691505b60208210811415610f0c57634e487b7160e01b600052602260045260246000fd5b60008261131957634e487b7160e01b600052601260045260246000fd5b500690565b634e487b7160e01b600052601160045260246000fdfea2646970667358221220056c6dafc3b945f79888bd7dd0bf18118729627bcf4626a7089e1052a371b58764736f6c6343000807003368747470733a2f2f6d696e2d6170692e63727970746f636f6d706172652e636f6d2f646174612f70726963653f6673796d3d425443267473796d733d5553442c4a50592c455552",
  "immutableReferences": {},
  "source": "// SPDX-License-Identifier: UNLICENSED\r\n\r\npragma solidity ^0.8.6;\r\n\r\nimport \"../ChainlinkOracle.sol\";\r\n\r\ncontract UnderlyingPriceOracleBTCUSD is ChainlinkOracle {\r\n    string private constant apiURL = \"https://min-api.cryptocompare.com/data/price?fsym=BTC&tsyms=USD,JPY,EUR\";\r\n    string public constant apiPath = \"USD\";\r\n    \r\n\r\n    constructor(\r\n        address oracleAddress,\r\n        bytes32 jobId,\r\n        address linkAddress,\r\n        uint256 fee) \r\n        ChainlinkOracle (\r\n            oracleAddress,\r\n            jobId,\r\n            apiURL, \r\n            apiPath,\r\n            linkAddress,\r\n            fee,\r\n            100\r\n        ) {\r\n    }\r\n}",
  "sourcePath": "C:\\Users\\Tomi\\OneDrive - The University of Chicago\\Documents\\Securrency\\FuturesExchange\\contracts\\Oracles\\UnderlyingPriceOracleBTCUSD.sol",
  "compiler": {
    "name": "solc",
    "version": "0.8.7+commit.e28d00a7.Emscripten.clang"
  },
  "schemaVersion": "3.4.2",
  "updatedAt": "2021-08-25T12:30:01.936Z",
  "devdoc": {
    "kind": "dev",
    "methods": {
      "owner()": {
        "details": "Returns the address of the current owner."
      },
      "renounceOwnership()": {
        "details": "Leaves the contract without owner. It will not be possible to call `onlyOwner` functions anymore. Can only be called by the current owner. NOTE: Renouncing ownership will leave the contract without an owner, thereby removing any functionality that is only available to the owner."
      },
      "transferOwnership(address)": {
        "details": "Transfers ownership of the contract to a new account (`newOwner`). Can only be called by the current owner."
      }
    },
    "version": 1
  },
  "userdoc": {
    "kind": "user",
    "methods": {},
    "version": 1
  }
}