{
  "contractName": "UnderlyingPriceOracleBTCUSD",
  "abi": [
    {
      "inputs": [
        {
          "internalType": "address",
          "name": "oracleAddress",
          "type": "address"
        },
        {
          "internalType": "bytes32",
          "name": "jobId",
          "type": "bytes32"
        },
        {
          "internalType": "address",
          "name": "linkAddress",
          "type": "address"
        },
        {
          "internalType": "uint256",
          "name": "fee",
          "type": "uint256"
        }
      ],
      "stateMutability": "nonpayable",
      "type": "constructor"
    },
    {
      "anonymous": false,
      "inputs": [
        {
          "indexed": true,
          "internalType": "bytes32",
          "name": "id",
          "type": "bytes32"
        }
      ],
      "name": "ChainlinkCancelled",
      "type": "event"
    },
    {
      "anonymous": false,
      "inputs": [
        {
          "indexed": true,
          "internalType": "bytes32",
          "name": "id",
          "type": "bytes32"
        }
      ],
      "name": "ChainlinkFulfilled",
      "type": "event"
    },
    {
      "anonymous": false,
      "inputs": [
        {
          "indexed": true,
          "internalType": "bytes32",
          "name": "id",
          "type": "bytes32"
        }
      ],
      "name": "ChainlinkRequested",
      "type": "event"
    },
    {
      "anonymous": false,
      "inputs": [
        {
          "indexed": false,
          "internalType": "bytes32",
          "name": "requestId",
          "type": "bytes32"
        }
      ],
      "name": "Fulfilled",
      "type": "event"
    },
    {
      "anonymous": false,
      "inputs": [
        {
          "indexed": false,
          "internalType": "address",
          "name": "withdrawer",
          "type": "address"
        },
        {
          "indexed": false,
          "internalType": "uint256",
          "name": "amount",
          "type": "uint256"
        }
      ],
      "name": "LinkWithdrawn",
      "type": "event"
    },
    {
      "anonymous": false,
      "inputs": [
        {
          "indexed": true,
          "internalType": "address",
          "name": "previousOwner",
          "type": "address"
        },
        {
          "indexed": true,
          "internalType": "address",
          "name": "newOwner",
          "type": "address"
        }
      ],
      "name": "OwnershipTransferred",
      "type": "event"
    },
    {
      "anonymous": false,
      "inputs": [
        {
          "indexed": false,
          "internalType": "address",
          "name": "sender",
          "type": "address"
        },
        {
          "indexed": false,
          "internalType": "uint256",
          "name": "amount",
          "type": "uint256"
        }
      ],
      "name": "Received",
      "type": "event"
    },
    {
      "anonymous": false,
      "inputs": [
        {
          "indexed": false,
          "internalType": "address",
          "name": "oracleAddress",
          "type": "address"
        },
        {
          "indexed": false,
          "internalType": "bytes32",
          "name": "jobId",
          "type": "bytes32"
        },
        {
          "indexed": false,
          "internalType": "uint256",
          "name": "fee",
          "type": "uint256"
        }
      ],
      "name": "RequestSent",
      "type": "event"
    },
    {
      "stateMutability": "payable",
      "type": "fallback"
    },
    {
      "inputs": [],
      "name": "apiPath",
      "outputs": [
        {
          "internalType": "string",
          "name": "",
          "type": "string"
        }
      ],
      "stateMutability": "view",
      "type": "function"
    },
    {
      "inputs": [],
      "name": "decimals",
      "outputs": [
        {
          "internalType": "int8",
          "name": "",
          "type": "int8"
        }
      ],
      "stateMutability": "view",
      "type": "function"
    },
    {
      "inputs": [],
      "name": "fee",
      "outputs": [
        {
          "internalType": "uint256",
          "name": "",
          "type": "uint256"
        }
      ],
      "stateMutability": "view",
      "type": "function"
    },
    {
      "inputs": [
        {
          "internalType": "bytes32",
          "name": "_requestId",
          "type": "bytes32"
        },
        {
          "internalType": "uint256",
          "name": "_result",
          "type": "uint256"
        }
      ],
      "name": "fulfill",
      "outputs": [],
      "stateMutability": "nonpayable",
      "type": "function"
    },
    {
      "inputs": [],
      "name": "getResult",
      "outputs": [
        {
          "internalType": "uint256",
          "name": "",
          "type": "uint256"
        }
      ],
      "stateMutability": "view",
      "type": "function"
    },
    {
      "inputs": [],
      "name": "jobId",
      "outputs": [
        {
          "internalType": "bytes32",
          "name": "",
          "type": "bytes32"
        }
      ],
      "stateMutability": "view",
      "type": "function"
    },
    {
      "inputs": [],
      "name": "linkAddress",
      "outputs": [
        {
          "internalType": "address",
          "name": "",
          "type": "address"
        }
      ],
      "stateMutability": "view",
      "type": "function"
    },
    {
      "inputs": [],
      "name": "oracleAddress",
      "outputs": [
        {
          "internalType": "address",
          "name": "",
          "type": "address"
        }
      ],
      "stateMutability": "view",
      "type": "function"
    },
    {
      "inputs": [],
      "name": "owner",
      "outputs": [
        {
          "internalType": "address",
          "name": "",
          "type": "address"
        }
      ],
      "stateMutability": "view",
      "type": "function"
    },
    {
      "inputs": [],
      "name": "renounceOwnership",
      "outputs": [],
      "stateMutability": "nonpayable",
      "type": "function"
    },
    {
      "inputs": [],
      "name": "requestIndexPrice",
      "outputs": [
        {
          "internalType": "bytes32",
          "name": "requestId",
          "type": "bytes32"
        }
      ],
      "stateMutability": "nonpayable",
      "type": "function"
    },
    {
      "inputs": [
        {
          "internalType": "address",
          "name": "newOwner",
          "type": "address"
        }
      ],
      "name": "transferOwnership",
      "outputs": [],
      "stateMutability": "nonpayable",
      "type": "function"
    },
    {
      "inputs": [],
      "name": "withdrawLink",
      "outputs": [],
      "stateMutability": "nonpayable",
      "type": "function"
    },
    {
      "stateMutability": "payable",
      "type": "receive"
    }
  ],
  "bytecode": "0x608060405260016004553480156200001657600080fd5b506040516200287a3803806200287a83398181016040528101906200003c919062000366565b838360405180608001604052806047815260200162002833604791396040518060400160405280600381526020017f555344000000000000000000000000000000000000000000000000000000000081525085856064620000b2620000a6620001a360201b60201c565b620001ab60201b60201c565b86600860006101000a81548173ffffffffffffffffffffffffffffffffffffffff021916908373ffffffffffffffffffffffffffffffffffffffff1602179055508560098190555084600a90805190602001906200011292919062000271565b5083600b90805190602001906200012b92919062000271565b5082600c60006101000a81548173ffffffffffffffffffffffffffffffffffffffff021916908373ffffffffffffffffffffffffffffffffffffffff16021790555081600d8190555080600c60146101000a81548160ff021916908360000b60ff1602179055505050505050505050505050620004d8565b600033905090565b6000600660009054906101000a900473ffffffffffffffffffffffffffffffffffffffff16905081600660006101000a81548173ffffffffffffffffffffffffffffffffffffffff021916908373ffffffffffffffffffffffffffffffffffffffff1602179055508173ffffffffffffffffffffffffffffffffffffffff168173ffffffffffffffffffffffffffffffffffffffff167f8be0079c531659141344cd1fd0a4f28419497f9722a3daafe3b4186f6b6457e060405160405180910390a35050565b8280546200027f9062000420565b90600052602060002090601f016020900481019282620002a35760008555620002ef565b82601f10620002be57805160ff1916838001178555620002ef565b82800160010185558215620002ef579182015b82811115620002ee578251825591602001919060010190620002d1565b5b509050620002fe919062000302565b5090565b5b808211156200031d57600081600090555060010162000303565b5090565b60008151905062000332816200048a565b92915050565b6000815190506200034981620004a4565b92915050565b6000815190506200036081620004be565b92915050565b6000806000806080858703121562000383576200038262000485565b5b6000620003938782880162000321565b9450506020620003a68782880162000338565b9350506040620003b98782880162000321565b9250506060620003cc878288016200034f565b91505092959194509250565b6000620003e582620003f6565b9050919050565b6000819050919050565b600073ffffffffffffffffffffffffffffffffffffffff82169050919050565b6000819050919050565b600060028204905060018216806200043957607f821691505b6020821081141562000450576200044f62000456565b5b50919050565b7f4e487b7100000000000000000000000000000000000000000000000000000000600052602260045260246000fd5b600080fd5b6200049581620003d8565b8114620004a157600080fd5b50565b620004af81620003ec565b8114620004bb57600080fd5b50565b620004c98162000416565b8114620004d557600080fd5b50565b61234b80620004e86000396000f3fe6080604052600436106100c65760003560e01c80638da5cb5b1161007f578063c2939d9711610059578063c2939d9714610261578063ddca3f431461028c578063de292789146102b7578063f2fde38b146102e257610106565b80638da5cb5b146101f45780638dc654a21461021f578063a89ae4ba1461023657610106565b80630f00494a14610108578063235cea9814610133578063313ce5671461015e5780634357855e146101895780636dff2c0b146101b2578063715018a6146101dd57610106565b36610106577f88a5966d370b9919b20f3e2c13ff65706f196a4e32cc2c12bf57088f8852587433346040516100fc929190611a0e565b60405180910390a1005b005b34801561011457600080fd5b5061011d61030b565b60405161012a9190611afa565b60405180910390f35b34801561013f57600080fd5b506101486105be565b60405161015591906119bc565b60405180910390f35b34801561016a57600080fd5b506101736105e4565b6040516101809190611b15565b60405180910390f35b34801561019557600080fd5b506101b060048036038101906101ab9190611789565b6105f7565b005b3480156101be57600080fd5b506101c761073f565b6040516101d49190611b30565b60405180910390f35b3480156101e957600080fd5b506101f2610778565b005b34801561020057600080fd5b50610209610800565b60405161021691906119bc565b60405180910390f35b34801561022b57600080fd5b5061023461082a565b005b34801561024257600080fd5b5061024b610a48565b60405161025891906119bc565b60405180910390f35b34801561026d57600080fd5b50610276610a6e565b6040516102839190611afa565b60405180910390f35b34801561029857600080fd5b506102a1610a74565b6040516102ae9190611bf2565b60405180910390f35b3480156102c357600080fd5b506102cc610a7a565b6040516102d99190611bf2565b60405180910390f35b3480156102ee57600080fd5b506103096004803603810190610304919061172f565b610a84565b005b60008061032260095430634357855e60e01b610b7c565b90506103f86040518060400160405280600381526020017f6765740000000000000000000000000000000000000000000000000000000000815250600a805461036a9061202c565b80601f01602080910402602001604051908101604052809291908181526020018280546103969061202c565b80156103e35780601f106103b8576101008083540402835291602001916103e3565b820191906000526020600020905b8154815290600101906020018083116103c657829003601f168201915b505050505083610bad9092919063ffffffff16565b6104cc6040518060400160405280600481526020017f7061746800000000000000000000000000000000000000000000000000000000815250600b805461043e9061202c565b80601f016020809104026020016040519081016040528092919081815260200182805461046a9061202c565b80156104b75780601f1061048c576101008083540402835291602001916104b7565b820191906000526020600020905b81548152906001019060200180831161049a57829003601f168201915b505050505083610bad9092919063ffffffff16565b6105286040518060400160405280600581526020017f74696d6573000000000000000000000000000000000000000000000000000000815250600c60149054906101000a900460000b60000b83610be09092919063ffffffff16565b610557600860009054906101000a900473ffffffffffffffffffffffffffffffffffffffff1682600d54610c13565b91507f5de0ca4d601c6369aafe37da9bab92be9804895234cdb72d8181492e84e6bcb2600860009054906101000a900473ffffffffffffffffffffffffffffffffffffffff16600954600d546040516105b2939291906119d7565b60405180910390a15090565b600c60009054906101000a900473ffffffffffffffffffffffffffffffffffffffff1681565b600c60149054906101000a900460000b81565b816005600082815260200190815260200160002060009054906101000a900473ffffffffffffffffffffffffffffffffffffffff1673ffffffffffffffffffffffffffffffffffffffff163373ffffffffffffffffffffffffffffffffffffffff1614610699576040517f08c379a000000000000000000000000000000000000000000000000000000000815260040161069090611bb2565b60405180910390fd5b6005600082815260200190815260200160002060006101000a81549073ffffffffffffffffffffffffffffffffffffffff0219169055807f7cc135e0cebb02c3480ae5d74d377283180a2601f8f644edf7987b009316c63a60405160405180910390a2816007819055507f6930ee93026433301a14b1baa0b52ca0d4640cb1edaa703beeb9056e23526984836040516107329190611afa565b60405180910390a1505050565b6040518060400160405280600381526020017f555344000000000000000000000000000000000000000000000000000000000081525081565b610780610c33565b73ffffffffffffffffffffffffffffffffffffffff1661079e610800565b73ffffffffffffffffffffffffffffffffffffffff16146107f4576040517f08c379a00000000000000000000000000000000000000000000000000000000081526004016107eb90611b92565b60405180910390fd5b6107fe6000610c3b565b565b6000600660009054906101000a900473ffffffffffffffffffffffffffffffffffffffff16905090565b610832610c33565b73ffffffffffffffffffffffffffffffffffffffff16610850610800565b73ffffffffffffffffffffffffffffffffffffffff16146108a6576040517f08c379a000000000000000000000000000000000000000000000000000000000815260040161089d90611b92565b60405180910390fd5b60006108b0610d01565b905060008173ffffffffffffffffffffffffffffffffffffffff166370a08231306040518263ffffffff1660e01b81526004016108ed91906119bc565b60206040518083038186803b15801561090557600080fd5b505afa158015610919573d6000803e3d6000fd5b505050506040513d601f19601f8201168201806040525081019061093d91906117c9565b90508173ffffffffffffffffffffffffffffffffffffffff1663a9059cbb33836040518363ffffffff1660e01b815260040161097a929190611a0e565b602060405180830381600087803b15801561099457600080fd5b505af11580156109a8573d6000803e3d6000fd5b505050506040513d601f19601f820116820180604052508101906109cc919061175c565b610a0b576040517f08c379a0000000000000000000000000000000000000000000000000000000008152600401610a0290611bd2565b60405180910390fd5b7fcb1436249a1dd8cf93362c28d79a4e20dc54398b6c49e30316e8396e72a584b03382604051610a3c929190611a0e565b60405180910390a15050565b600860009054906101000a900473ffffffffffffffffffffffffffffffffffffffff1681565b60095481565b600d5481565b6000600754905090565b610a8c610c33565b73ffffffffffffffffffffffffffffffffffffffff16610aaa610800565b73ffffffffffffffffffffffffffffffffffffffff1614610b00576040517f08c379a0000000000000000000000000000000000000000000000000000000008152600401610af790611b92565b60405180910390fd5b600073ffffffffffffffffffffffffffffffffffffffff168173ffffffffffffffffffffffffffffffffffffffff161415610b70576040517f08c379a0000000000000000000000000000000000000000000000000000000008152600401610b6790611b52565b60405180910390fd5b610b7981610c3b565b50565b610b8461163f565b610b8c61163f565b610ba385858584610d2b909392919063ffffffff16565b9150509392505050565b610bc4828460800151610ddb90919063ffffffff16565b610bdb818460800151610ddb90919063ffffffff16565b505050565b610bf7828460800151610ddb90919063ffffffff16565b610c0e818460800151610e0090919063ffffffff16565b505050565b6000610c2a8484846001634042994660e01b610ead565b90509392505050565b600033905090565b6000600660009054906101000a900473ffffffffffffffffffffffffffffffffffffffff16905081600660006101000a81548173ffffffffffffffffffffffffffffffffffffffff021916908373ffffffffffffffffffffffffffffffffffffffff1602179055508173ffffffffffffffffffffffffffffffffffffffff168173ffffffffffffffffffffffffffffffffffffffff167f8be0079c531659141344cd1fd0a4f28419497f9722a3daafe3b4186f6b6457e060405160405180910390a35050565b6000600260009054906101000a900473ffffffffffffffffffffffffffffffffffffffff16905090565b610d3361163f565b610d438560800151610100611115565b508385600001818152505082856020019073ffffffffffffffffffffffffffffffffffffffff16908173ffffffffffffffffffffffffffffffffffffffff16815250508185604001907bffffffffffffffffffffffffffffffffffffffffffffffffffffffff191690817bffffffffffffffffffffffffffffffffffffffffffffffffffffffff191681525050849050949350505050565b610de8826003835161117f565b610dfb81836112c490919063ffffffff16565b505050565b7fffffffffffffffffffffffffffffffffffffffffffffffff0000000000000000811215610e3757610e3282826112e6565b610ea9565b67ffffffffffffffff811315610e5657610e51828261135d565b610ea8565b60008112610e6f57610e6a8260008361117f565b610ea7565b610ea6826001837fffffffffffffffffffffffffffffffffffffffffffffffffffffffffffffffff610ea19190611e66565b61117f565b5b5b5b5050565b600030600454604051602001610ec4929190611990565b604051602081830303815290604052805190602001209050600454856060018181525050856005600083815260200190815260200160002060006101000a81548173ffffffffffffffffffffffffffffffffffffffff021916908373ffffffffffffffffffffffffffffffffffffffff160217905550807fb5e6e01e79f91267dc17b4e6314d5d4d03593d2ceee0fbb452b750bd70ea5af960405160405180910390a2600082600080886000015189602001518a604001518b606001518a8d6080015160000151604051602401610fa2989796959493929190611a37565b604051602081830303815290604052907bffffffffffffffffffffffffffffffffffffffffffffffffffffffff19166020820180517bffffffffffffffffffffffffffffffffffffffffffffffffffffffff83818316178352505050509050600260009054906101000a900473ffffffffffffffffffffffffffffffffffffffff1673ffffffffffffffffffffffffffffffffffffffff16634000aea08887846040518463ffffffff1660e01b815260040161106093929190611abc565b602060405180830381600087803b15801561107a57600080fd5b505af115801561108e573d6000803e3d6000fd5b505050506040513d601f19601f820116820180604052508101906110b2919061175c565b6110f1576040517f08c379a00000000000000000000000000000000000000000000000000000000081526004016110e890611b72565b60405180910390fd5b6001600460008282546111049190611c45565b925050819055505095945050505050565b61111d6116ac565b600060208361112c919061208c565b146111585760208261113e919061208c565b602061114a9190611efa565b826111559190611c45565b91505b81836020018181525050604051808452600081528281016020016040525082905092915050565b601781116111ac576111a68160058460ff16901b60ff1617846113a990919063ffffffff16565b506112bf565b60ff81116111ee576111d1601860058460ff16901b17846113a990919063ffffffff16565b506111e8816001856113c99092919063ffffffff16565b506112be565b61ffff811161123157611214601960058460ff16901b17846113a990919063ffffffff16565b5061122b816002856113c99092919063ffffffff16565b506112bd565b63ffffffff811161127657611259601a60058460ff16901b17846113a990919063ffffffff16565b50611270816004856113c99092919063ffffffff16565b506112bc565b67ffffffffffffffff81116112bb576112a2601b60058460ff16901b17846113a990919063ffffffff16565b506112b9816008856113c99092919063ffffffff16565b505b5b5b5b5b505050565b6112cc6116ac565b6112de838460000151518485516113eb565b905092915050565b61130460036005600660ff16901b17836113a990919063ffffffff16565b5061135982827fffffffffffffffffffffffffffffffffffffffffffffffffffffffffffffffff6113359190611e66565b6040516020016113459190611bf2565b6040516020818303038152906040526114f5565b5050565b61137b60026005600660ff16901b17836113a990919063ffffffff16565b506113a582826040516020016113919190611bf2565b6040516020818303038152906040526114f5565b5050565b6113b16116ac565b6113c1838460000151518461151a565b905092915050565b6113d16116ac565b6113e2848560000151518585611571565b90509392505050565b6113f36116ac565b825182111561140157600080fd5b846020015182856114129190611c45565b111561144757611446856002611437886020015188876114329190611c45565b6115ff565b6114419190611e0c565b61161b565b5b6000808651805187602083010193508088870111156114665787860182525b60208701925050505b602084106114ad57805182526020826114889190611c45565b91506020816114979190611c45565b90506020846114a69190611efa565b935061146f565b600060018560206114be9190611efa565b6101006114cb9190611cee565b6114d59190611efa565b905080198251168184511681811785525050879350505050949350505050565b611502826002835161117f565b61151581836112c490919063ffffffff16565b505050565b6115226116ac565b836020015183106115485761154784600286602001516115429190611e0c565b61161b565b5b8351805160208583010184815381861415611564576001820183525b5050508390509392505050565b6115796116ac565b8460200151848361158a9190611c45565b11156115b2576115b185600286856115a29190611c45565b6115ac9190611e0c565b61161b565b5b60006001836101006115c49190611cee565b6115ce9190611efa565b905085518386820101858319825116178152815185880111156115f15784870182525b505085915050949350505050565b60008183111561161157829050611615565b8190505b92915050565b60008260000151905061162e8383611115565b5061163983826112c4565b50505050565b6040518060a0016040528060008019168152602001600073ffffffffffffffffffffffffffffffffffffffff16815260200160007bffffffffffffffffffffffffffffffffffffffffffffffffffffffff19168152602001600081526020016116a66116ac565b81525090565b604051806040016040528060608152602001600081525090565b6000813590506116d5816122b9565b92915050565b6000815190506116ea816122d0565b92915050565b6000813590506116ff816122e7565b92915050565b600081359050611714816122fe565b92915050565b600081519050611729816122fe565b92915050565b6000602082840312156117455761174461214a565b5b6000611753848285016116c6565b91505092915050565b6000602082840312156117725761177161214a565b5b6000611780848285016116db565b91505092915050565b600080604083850312156117a05761179f61214a565b5b60006117ae858286016116f0565b92505060206117bf85828601611705565b9150509250929050565b6000602082840312156117df576117de61214a565b5b60006117ed8482850161171a565b91505092915050565b6117ff81611f2e565b82525050565b61180e81611f4c565b82525050565b61181d81611f56565b82525050565b600061182e82611c0d565b6118388185611c23565b9350611848818560208601611ff9565b6118518161214f565b840191505092915050565b61186d61186882611fc3565b61205e565b82525050565b61187c81611f8c565b82525050565b600061188d82611c18565b6118978185611c34565b93506118a7818560208601611ff9565b6118b08161214f565b840191505092915050565b60006118c8602683611c34565b91506118d38261217a565b604082019050919050565b60006118eb602383611c34565b91506118f6826121c9565b604082019050919050565b600061190e602083611c34565b915061191982612218565b602082019050919050565b6000611931602883611c34565b915061193c82612241565b604082019050919050565b6000611954601283611c34565b915061195f82612290565b602082019050919050565b61197381611fb9565b82525050565b61198a61198582611fb9565b612082565b82525050565b600061199c828561185c565b6014820191506119ac8284611979565b6020820191508190509392505050565b60006020820190506119d160008301846117f6565b92915050565b60006060820190506119ec60008301866117f6565b6119f96020830185611805565b611a06604083018461196a565b949350505050565b6000604082019050611a2360008301856117f6565b611a30602083018461196a565b9392505050565b600061010082019050611a4d600083018b6117f6565b611a5a602083018a61196a565b611a676040830189611805565b611a7460608301886117f6565b611a816080830187611814565b611a8e60a083018661196a565b611a9b60c083018561196a565b81810360e0830152611aad8184611823565b90509998505050505050505050565b6000606082019050611ad160008301866117f6565b611ade602083018561196a565b8181036040830152611af08184611823565b9050949350505050565b6000602082019050611b0f6000830184611805565b92915050565b6000602082019050611b2a6000830184611873565b92915050565b60006020820190508181036000830152611b4a8184611882565b905092915050565b60006020820190508181036000830152611b6b816118bb565b9050919050565b60006020820190508181036000830152611b8b816118de565b9050919050565b60006020820190508181036000830152611bab81611901565b9050919050565b60006020820190508181036000830152611bcb81611924565b9050919050565b60006020820190508181036000830152611beb81611947565b9050919050565b6000602082019050611c07600083018461196a565b92915050565b600081519050919050565b600081519050919050565b600082825260208201905092915050565b600082825260208201905092915050565b6000611c5082611fb9565b9150611c5b83611fb9565b9250827fffffffffffffffffffffffffffffffffffffffffffffffffffffffffffffffff03821115611c9057611c8f6120bd565b5b828201905092915050565b6000808291508390505b6001851115611ce557808604811115611cc157611cc06120bd565b5b6001851615611cd05780820291505b8081029050611cde8561216d565b9450611ca5565b94509492505050565b6000611cf982611fb9565b9150611d0483611fb9565b9250611d317fffffffffffffffffffffffffffffffffffffffffffffffffffffffffffffffff8484611d39565b905092915050565b600082611d495760019050611e05565b81611d575760009050611e05565b8160018114611d6d5760028114611d7757611da6565b6001915050611e05565b60ff841115611d8957611d886120bd565b5b8360020a915084821115611da057611d9f6120bd565b5b50611e05565b5060208310610133831016604e8410600b8410161715611ddb5782820a905083811115611dd657611dd56120bd565b5b611e05565b611de88484846001611c9b565b92509050818404811115611dff57611dfe6120bd565b5b81810290505b9392505050565b6000611e1782611fb9565b9150611e2283611fb9565b9250817fffffffffffffffffffffffffffffffffffffffffffffffffffffffffffffffff0483118215151615611e5b57611e5a6120bd565b5b828202905092915050565b6000611e7182611f82565b9150611e7c83611f82565b9250827f800000000000000000000000000000000000000000000000000000000000000001821260008412151615611eb757611eb66120bd565b5b827f7fffffffffffffffffffffffffffffffffffffffffffffffffffffffffffffff018213600084121615611eef57611eee6120bd565b5b828203905092915050565b6000611f0582611fb9565b9150611f1083611fb9565b925082821015611f2357611f226120bd565b5b828203905092915050565b6000611f3982611f99565b9050919050565b60008115159050919050565b6000819050919050565b60007fffffffff0000000000000000000000000000000000000000000000000000000082169050919050565b6000819050919050565b60008160000b9050919050565b600073ffffffffffffffffffffffffffffffffffffffff82169050919050565b6000819050919050565b6000611fce82611fd5565b9050919050565b6000611fe082611fe7565b9050919050565b6000611ff282611f99565b9050919050565b60005b83811015612017578082015181840152602081019050611ffc565b83811115612026576000848401525b50505050565b6000600282049050600182168061204457607f821691505b602082108114156120585761205761211b565b5b50919050565b600061206982612070565b9050919050565b600061207b82612160565b9050919050565b6000819050919050565b600061209782611fb9565b91506120a283611fb9565b9250826120b2576120b16120ec565b5b828206905092915050565b7f4e487b7100000000000000000000000000000000000000000000000000000000600052601160045260246000fd5b7f4e487b7100000000000000000000000000000000000000000000000000000000600052601260045260246000fd5b7f4e487b7100000000000000000000000000000000000000000000000000000000600052602260045260246000fd5b600080fd5b6000601f19601f8301169050919050565b60008160601b9050919050565b60008160011c9050919050565b7f4f776e61626c653a206e6577206f776e657220697320746865207a65726f206160008201527f6464726573730000000000000000000000000000000000000000000000000000602082015250565b7f756e61626c6520746f207472616e73666572416e6443616c6c20746f206f726160008201527f636c650000000000000000000000000000000000000000000000000000000000602082015250565b7f4f776e61626c653a2063616c6c6572206973206e6f7420746865206f776e6572600082015250565b7f536f75726365206d75737420626520746865206f7261636c65206f662074686560008201527f2072657175657374000000000000000000000000000000000000000000000000602082015250565b7f556e61626c6520746f2077697468647261770000000000000000000000000000600082015250565b6122c281611f2e565b81146122cd57600080fd5b50565b6122d981611f40565b81146122e457600080fd5b50565b6122f081611f4c565b81146122fb57600080fd5b50565b61230781611fb9565b811461231257600080fd5b5056fea2646970667358221220feb8e4b59231d6dc13ca41b65de52a88037e3e841a15dcc14d17b8038963f21364736f6c6343000807003368747470733a2f2f6d696e2d6170692e63727970746f636f6d706172652e636f6d2f646174612f70726963653f6673796d3d425443267473796d733d5553442c4a50592c455552",
  "immutableReferences": {},
  "source": "// SPDX-License-Identifier: UNLICENSED\r\n\r\npragma solidity ^0.8.6;\r\n\r\nimport \"../ChainlinkOracle.sol\";\r\n\r\ncontract UnderlyingPriceOracleBTCUSD is ChainlinkOracle {\r\n    string private constant apiURL = \"https://min-api.cryptocompare.com/data/price?fsym=BTC&tsyms=USD,JPY,EUR\";\r\n    string public constant apiPath = \"USD\";\r\n    \r\n\r\n    constructor(\r\n        address oracleAddress,\r\n        bytes32 jobId,\r\n        address linkAddress,\r\n        uint256 fee) \r\n        ChainlinkOracle (\r\n            oracleAddress,\r\n            jobId,\r\n            apiURL, \r\n            apiPath,\r\n            linkAddress,\r\n            fee,\r\n            100\r\n        ) {\r\n    }\r\n}",
  "sourcePath": "C:\\Users\\Tomi\\OneDrive - The University of Chicago\\Documents\\Securrency\\FuturesExchange\\contracts\\Oracles\\UnderlyingPriceOracleBTCUSD.sol",
  "compiler": {
    "name": "solc",
    "version": "0.8.7+commit.e28d00a7.Emscripten.clang"
  },
  "schemaVersion": "3.4.2",
  "updatedAt": "2021-08-23T08:38:35.795Z",
  "devdoc": {
    "kind": "dev",
    "methods": {
      "owner()": {
        "details": "Returns the address of the current owner."
      },
      "renounceOwnership()": {
        "details": "Leaves the contract without owner. It will not be possible to call `onlyOwner` functions anymore. Can only be called by the current owner. NOTE: Renouncing ownership will leave the contract without an owner, thereby removing any functionality that is only available to the owner."
      },
      "transferOwnership(address)": {
        "details": "Transfers ownership of the contract to a new account (`newOwner`). Can only be called by the current owner."
      }
    },
    "version": 1
  },
  "userdoc": {
    "kind": "user",
    "methods": {},
    "version": 1
  }
}