{
  "contractName": "USDRFROracle",
  "abi": [
    {
      "inputs": [],
      "stateMutability": "nonpayable",
      "type": "constructor"
    },
    {
      "anonymous": false,
      "inputs": [
        {
          "indexed": true,
          "internalType": "bytes32",
          "name": "id",
          "type": "bytes32"
        }
      ],
      "name": "ChainlinkCancelled",
      "type": "event"
    },
    {
      "anonymous": false,
      "inputs": [
        {
          "indexed": true,
          "internalType": "bytes32",
          "name": "id",
          "type": "bytes32"
        }
      ],
      "name": "ChainlinkFulfilled",
      "type": "event"
    },
    {
      "anonymous": false,
      "inputs": [
        {
          "indexed": true,
          "internalType": "bytes32",
          "name": "id",
          "type": "bytes32"
        }
      ],
      "name": "ChainlinkRequested",
      "type": "event"
    },
    {
      "anonymous": false,
      "inputs": [
        {
          "indexed": false,
          "internalType": "bytes32",
          "name": "requestId",
          "type": "bytes32"
        }
      ],
      "name": "Fulfilled",
      "type": "event"
    },
    {
      "anonymous": false,
      "inputs": [
        {
          "indexed": false,
          "internalType": "address",
          "name": "withdrawer",
          "type": "address"
        },
        {
          "indexed": false,
          "internalType": "uint256",
          "name": "amount",
          "type": "uint256"
        }
      ],
      "name": "LinkWithdrawn",
      "type": "event"
    },
    {
      "anonymous": false,
      "inputs": [
        {
          "indexed": true,
          "internalType": "address",
          "name": "previousOwner",
          "type": "address"
        },
        {
          "indexed": true,
          "internalType": "address",
          "name": "newOwner",
          "type": "address"
        }
      ],
      "name": "OwnershipTransferred",
      "type": "event"
    },
    {
      "anonymous": false,
      "inputs": [
        {
          "indexed": false,
          "internalType": "address",
          "name": "sender",
          "type": "address"
        },
        {
          "indexed": false,
          "internalType": "uint256",
          "name": "amount",
          "type": "uint256"
        }
      ],
      "name": "Received",
      "type": "event"
    },
    {
      "anonymous": false,
      "inputs": [
        {
          "indexed": false,
          "internalType": "address",
          "name": "oracleAddress",
          "type": "address"
        },
        {
          "indexed": false,
          "internalType": "bytes32",
          "name": "jobId",
          "type": "bytes32"
        },
        {
          "indexed": false,
          "internalType": "uint256",
          "name": "fee",
          "type": "uint256"
        }
      ],
      "name": "RequestSent",
      "type": "event"
    },
    {
      "stateMutability": "payable",
      "type": "fallback"
    },
    {
      "inputs": [],
      "name": "__jobId",
      "outputs": [
        {
          "internalType": "bytes32",
          "name": "",
          "type": "bytes32"
        }
      ],
      "stateMutability": "view",
      "type": "function"
    },
    {
      "inputs": [],
      "name": "_apiBaseURL_",
      "outputs": [
        {
          "internalType": "string",
          "name": "",
          "type": "string"
        }
      ],
      "stateMutability": "view",
      "type": "function"
    },
    {
      "inputs": [],
      "name": "_apiPath_",
      "outputs": [
        {
          "internalType": "string",
          "name": "",
          "type": "string"
        }
      ],
      "stateMutability": "view",
      "type": "function"
    },
    {
      "inputs": [],
      "name": "_decimals_",
      "outputs": [
        {
          "internalType": "int256",
          "name": "",
          "type": "int256"
        }
      ],
      "stateMutability": "view",
      "type": "function"
    },
    {
      "inputs": [],
      "name": "_fee",
      "outputs": [
        {
          "internalType": "uint256",
          "name": "",
          "type": "uint256"
        }
      ],
      "stateMutability": "view",
      "type": "function"
    },
    {
      "inputs": [],
      "name": "_linkAddress",
      "outputs": [
        {
          "internalType": "address",
          "name": "",
          "type": "address"
        }
      ],
      "stateMutability": "view",
      "type": "function"
    },
    {
      "inputs": [],
      "name": "_oracleAddress",
      "outputs": [
        {
          "internalType": "address",
          "name": "",
          "type": "address"
        }
      ],
      "stateMutability": "view",
      "type": "function"
    },
    {
      "inputs": [],
      "name": "decimals",
      "outputs": [
        {
          "internalType": "int256",
          "name": "",
          "type": "int256"
        }
      ],
      "stateMutability": "view",
      "type": "function"
    },
    {
      "inputs": [],
      "name": "fee",
      "outputs": [
        {
          "internalType": "uint256",
          "name": "",
          "type": "uint256"
        }
      ],
      "stateMutability": "view",
      "type": "function"
    },
    {
      "inputs": [
        {
          "internalType": "bytes32",
          "name": "_requestId",
          "type": "bytes32"
        },
        {
          "internalType": "int256",
          "name": "_result",
          "type": "int256"
        }
      ],
      "name": "fulfillSigned",
      "outputs": [],
      "stateMutability": "nonpayable",
      "type": "function"
    },
    {
      "inputs": [
        {
          "internalType": "bytes32",
          "name": "_requestId",
          "type": "bytes32"
        },
        {
          "internalType": "uint256",
          "name": "_result",
          "type": "uint256"
        }
      ],
      "name": "fulfillUnsigned",
      "outputs": [],
      "stateMutability": "nonpayable",
      "type": "function"
    },
    {
      "inputs": [],
      "name": "getSignedResult",
      "outputs": [
        {
          "internalType": "int256",
          "name": "",
          "type": "int256"
        }
      ],
      "stateMutability": "view",
      "type": "function"
    },
    {
      "inputs": [],
      "name": "getUnsignedResult",
      "outputs": [
        {
          "internalType": "uint256",
          "name": "",
          "type": "uint256"
        }
      ],
      "stateMutability": "view",
      "type": "function"
    },
    {
      "inputs": [],
      "name": "isSignedResult",
      "outputs": [
        {
          "internalType": "bool",
          "name": "",
          "type": "bool"
        }
      ],
      "stateMutability": "view",
      "type": "function"
    },
    {
      "inputs": [],
      "name": "jobId",
      "outputs": [
        {
          "internalType": "bytes32",
          "name": "",
          "type": "bytes32"
        }
      ],
      "stateMutability": "view",
      "type": "function"
    },
    {
      "inputs": [],
      "name": "oracleAddress",
      "outputs": [
        {
          "internalType": "address",
          "name": "",
          "type": "address"
        }
      ],
      "stateMutability": "view",
      "type": "function"
    },
    {
      "inputs": [],
      "name": "owner",
      "outputs": [
        {
          "internalType": "address",
          "name": "",
          "type": "address"
        }
      ],
      "stateMutability": "view",
      "type": "function"
    },
    {
      "inputs": [],
      "name": "renounceOwnership",
      "outputs": [],
      "stateMutability": "nonpayable",
      "type": "function"
    },
    {
      "inputs": [
        {
          "internalType": "string",
          "name": "apiURLParameters",
          "type": "string"
        }
      ],
      "name": "requestIndexPrice",
      "outputs": [
        {
          "internalType": "bytes32",
          "name": "requestId",
          "type": "bytes32"
        }
      ],
      "stateMutability": "nonpayable",
      "type": "function"
    },
    {
      "inputs": [
        {
          "internalType": "address",
          "name": "newOwner",
          "type": "address"
        }
      ],
      "name": "transferOwnership",
      "outputs": [],
      "stateMutability": "nonpayable",
      "type": "function"
    },
    {
      "inputs": [],
      "name": "withdrawLink",
      "outputs": [],
      "stateMutability": "nonpayable",
      "type": "function"
    },
    {
      "stateMutability": "payable",
      "type": "receive"
    },
    {
      "inputs": [
        {
          "internalType": "uint256",
          "name": "contractDurationInSeconds",
          "type": "uint256"
        }
      ],
      "name": "updateAPIPath",
      "outputs": [],
      "stateMutability": "nonpayable",
      "type": "function"
    }
  ],
  "bytecode": "0x6001600455600f80546001600160a01b03199081167356dd6586db0d08c6ce7b2f2805af28616e082455179091556010805490911673a36085f69e2889c224210f603d836748e7dc008817815567016345785d8a00006011557f3236343966633463613833633430313662666432643135373635353932626565601255606460135560c060405260808190526f646174617365742e646174612e302e3160801b60a0908152620000b3916014919062000364565b50348015620000c157600080fd5b506013546040518060800160405280604f815260200162001ea1604f913960148054620000ee906200043c565b80601f01602080910402602001604051908101604052809291908181526020018280546200011c906200043c565b80156200016d5780601f1062000141576101008083540402835291602001916200016d565b820191906000526020600020905b8154815290600101906020018083116200014f57829003601f168201915b5050601254600f5460105460115492955088945087935086926001926001600160a01b0390811692889291169087878787620001a9336200025b565b6001600160a01b038616620001c857620001c2620002ad565b620001d3565b620001d38662000342565b600980546001600160a01b0319166001600160a01b038a16179055600a879055600e859055600d84905582516200021290600c90602086019062000364565b5081516200022890600b90602085019062000364565b5060068054911515600160a01b0260ff60a01b1990921691909117905550620004799d5050505050505050505050505050565b600680546001600160a01b038381166001600160a01b0319831681179093556040519116919082907f8be0079c531659141344cd1fd0a4f28419497f9722a3daafe3b4186f6b6457e090600090a35050565b6200034073c89bd4e1632d3a43cb03aaad5262cbe4038bc5716001600160a01b03166338cc48316040518163ffffffff1660e01b815260040160206040518083038186803b158015620002ff57600080fd5b505afa15801562000314573d6000803e3d6000fd5b505050506040513d601f19601f820116820180604052508101906200033a91906200040a565b62000342565b565b600280546001600160a01b0319166001600160a01b0392909216919091179055565b82805462000372906200043c565b90600052602060002090601f016020900481019282620003965760008555620003e1565b82601f10620003b157805160ff1916838001178555620003e1565b82800160010185558215620003e1579182015b82811115620003e1578251825591602001919060010190620003c4565b50620003ef929150620003f3565b5090565b5b80821115620003ef5760008155600101620003f4565b6000602082840312156200041d57600080fd5b81516001600160a01b03811681146200043557600080fd5b9392505050565b600181811c908216806200045157607f821691505b602082108114156200047357634e487b7160e01b600052602260045260246000fd5b50919050565b611a1880620004896000396000f3fe6080604052600436106101065760003560e01c8063185defc6146101485780631d5cd0091461017e578063313ce567146101a05780634665e65a146101c457806351744bca146101da57806369723be7146101fa5780636fb7cb571461021a578063715018a61461023a5780637e0b66d01461024f5780638da5cb5b1461026f5780638dc654a214610284578063918c00b9146102995780639df49c23146102ca578063a89ae4ba146102df578063bd2563fb146102ff578063c2939d9714610314578063c5b37c221461032a578063d233da0814610340578063ddca3f4314610356578063de0a217d1461036c578063e1019ea414610381578063f2fde38b146103a157005b36610146577f88a5966d370b9919b20f3e2c13ff65706f196a4e32cc2c12bf57088f88525874333460405161013c9291906115f4565b60405180910390a1005b005b34801561015457600080fd5b50601054610168906001600160a01b031681565b60405161017591906115e0565b60405180910390f35b34801561018a57600080fd5b506101936103c1565b604051610175919061169c565b3480156101ac57600080fd5b506101b6600d5481565b604051908152602001610175565b3480156101d057600080fd5b506101b660125481565b3480156101e657600080fd5b506101466101f5366004611481565b6103dd565b34801561020657600080fd5b506101b66102153660046114a3565b61047b565b34801561022657600080fd5b50600f54610168906001600160a01b031681565b34801561024657600080fd5b506101466106e2565b34801561025b57600080fd5b5061014661026a366004611481565b61071d565b34801561027b57600080fd5b506101686107a9565b34801561029057600080fd5b506101466107b8565b3480156102a557600080fd5b506006546102ba90600160a01b900460ff1681565b6040519015158152602001610175565b3480156102d657600080fd5b506007546101b6565b3480156102eb57600080fd5b50600954610168906001600160a01b031681565b34801561030b57600080fd5b506008546101b6565b34801561032057600080fd5b506101b6600a5481565b34801561033657600080fd5b506101b660115481565b34801561034c57600080fd5b506101b660135481565b34801561036257600080fd5b506101b6600e5481565b34801561037857600080fd5b5061019361097c565b34801561038d57600080fd5b5061014661039c366004611553565b610a0a565b3480156103ad57600080fd5b506101466103bc366004611436565b610b1a565b6040518060800160405280604f8152602001611954604f913981565b60008281526005602052604090205482906001600160a01b0316331461041e5760405162461bcd60e51b8152600401610415906116e4565b60405180910390fd5b60008181526005602052604080822080546001600160a01b03191690555182916000805160206119c383398151915291a260088290556040518381526000805160206119a3833981519152906020015b60405180910390a1505050565b600061048561134e565b600654600160a01b900460ff16156104b357600a546104ac90306328ba25e560e11b610bba565b90506104cb565b600a546104c890306307e0b66d60e41b610bba565b90505b6105866040518060400160405280600381526020016219d95d60ea1b81525061057e600c80546104fa906118d0565b80601f0160208091040260200160405190810160405280929190818152602001828054610526906118d0565b80156105735780601f1061054857610100808354040283529160200191610573565b820191906000526020600020905b81548152906001019060200180831161055657829003601f168201915b505050505086610bdf565b839190610c0c565b610641604051806040016040528060048152602001630e0c2e8d60e31b815250600b80546105b3906118d0565b80601f01602080910402602001604051908101604052809291908181526020018280546105df906118d0565b801561062c5780601f106106015761010080835404028352916020019161062c565b820191906000526020600020905b81548152906001019060200180831161060f57829003601f168201915b505050505083610c0c9092919063ffffffff16565b60408051808201909152600581526474696d657360d81b6020820152600d5461066b918391610c2a565b600954600e54610686916001600160a01b0316908390610c48565b600954600a54600e54604080516001600160a01b0390941684526020840192909252908201529092507f5de0ca4d601c6369aafe37da9bab92be9804895234cdb72d8181492e84e6bcb29060600160405180910390a150919050565b336106eb6107a9565b6001600160a01b0316146107115760405162461bcd60e51b8152600401610415906116af565b61071b6000610c67565b565b60008281526005602052604090205482906001600160a01b031633146107555760405162461bcd60e51b8152600401610415906116e4565b60008181526005602052604080822080546001600160a01b03191690555182916000805160206119c383398151915291a260078290556040518381526000805160206119a38339815191529060200161046e565b6006546001600160a01b031690565b336107c16107a9565b6001600160a01b0316146107e75760405162461bcd60e51b8152600401610415906116af565b60006107fb6002546001600160a01b031690565b90506000816001600160a01b03166370a08231306040518263ffffffff1660e01b815260040161082b91906115e0565b60206040518083038186803b15801561084357600080fd5b505afa158015610857573d6000803e3d6000fd5b505050506040513d601f19601f8201168201806040525081019061087b919061156c565b60405163a9059cbb60e01b81529091506001600160a01b0383169063a9059cbb906108ac90339085906004016115f4565b602060405180830381600087803b1580156108c657600080fd5b505af11580156108da573d6000803e3d6000fd5b505050506040513d601f19601f820116820180604052508101906108fe919061145f565b61093f5760405162461bcd60e51b8152602060048201526012602482015271556e61626c6520746f20776974686472617760701b6044820152606401610415565b7fcb1436249a1dd8cf93362c28d79a4e20dc54398b6c49e30316e8396e72a584b033826040516109709291906115f4565b60405180910390a15050565b60148054610989906118d0565b80601f01602080910402602001604051908101604052809291908181526020018280546109b5906118d0565b8015610a025780601f106109d757610100808354040283529160200191610a02565b820191906000526020600020905b8154815290600101906020018083116109e557829003601f168201915b505050505081565b606062375f008211610a3457506040805180820190915260018152603160f81b6020820152610af7565b8162375f00108015610a495750625c49008211155b15610a6c57506040805180820190915260018152601960f91b6020820152610af7565b81625c4900108015610a81575062af57808211155b15610aa457506040805180820190915260018152603360f81b6020820152610af7565b8162af5780108015610aba5750630167e9808211155b15610add57506040805180820190915260018152600d60fa1b6020820152610af7565b506040805180820190915260018152603560f81b60208201525b604080516020810191829052600090819052610b1591601491611383565b505050565b33610b236107a9565b6001600160a01b031614610b495760405162461bcd60e51b8152600401610415906116af565b6001600160a01b038116610bae5760405162461bcd60e51b815260206004820152602660248201527f4f776e61626c653a206e6577206f776e657220697320746865207a65726f206160448201526564647265737360d01b6064820152608401610415565b610bb781610c67565b50565b610bc261134e565b610bca61134e565b610bd681868686610cb9565b95945050505050565b60608282604051602001610bf49291906115b1565b60405160208183030381529060405290505b92915050565b6080830151610c1b9083610cf6565b6080830151610b159082610cf6565b6080830151610c399083610cf6565b6080830151610b159082610d0d565b6000610c5f84848460016320214ca360e11b610d6f565b949350505050565b600680546001600160a01b038381166001600160a01b0319831681179093556040519116919082907f8be0079c531659141344cd1fd0a4f28419497f9722a3daafe3b4186f6b6457e090600090a35050565b610cc161134e565b610cd18560800151610100610f76565b50509183526001600160a01b031660208301526001600160e01b031916604082015290565b610d038260038351610fce565b610b1582826110a1565b6001600160401b0319811215610d2b57610d2782826110c2565b5050565b6001600160401b03811315610d4457610d278282611104565b60008112610d5857610d2782600083610fce565b610d27826001610d6a8460001961184e565b610fce565b6004546040516001600160601b03193060601b166020820152603481019190915260009060540160408051808303601f19018152918152815160209283012060045460608901526000818152600590935281832080546001600160a01b0319166001600160a01b038b16179055905190925082917fb5e6e01e79f91267dc17b4e6314d5d4d03593d2ceee0fbb452b750bd70ea5af991a2600082600080886000015189602001518a604001518b606001518a8d6080015160000151604051602401610e4198979695949392919061160d565b60408051601f198184030181529181526020820180516001600160e01b03166001600160e01b0319909416939093179092526002549151630200057560e51b81529092506001600160a01b0390911690634000aea090610ea9908a9089908690600401611675565b602060405180830381600087803b158015610ec357600080fd5b505af1158015610ed7573d6000803e3d6000fd5b505050506040513d601f19601f82011682018060405250810190610efb919061145f565b610f535760405162461bcd60e51b815260206004820152602360248201527f756e61626c6520746f207472616e73666572416e6443616c6c20746f206f7261604482015262636c6560e81b6064820152608401610415565b600160046000828254610f66919061172c565b9091555091979650505050505050565b610f7e611407565b610f89602083611905565b15610fb157610f99602083611905565b610fa490602061188d565b610fae908361172c565b91505b506020828101829052604080518085526000815290920101905290565b60178111610fef57610fe98360e0600585901b168317611127565b50505050565b60ff81116110195761100c836018611fe0600586901b1617611127565b50610fe98382600161113f565b61ffff811161104457611037836019611fe0600586901b1617611127565b50610fe98382600261113f565b63ffffffff81116110715761106483601a611fe0600586901b1617611127565b50610fe98382600461113f565b6001600160401b038111610b155761109483601b611fe0600586901b1617611127565b50610fe98382600861113f565b6110a9611407565b6110bb83846000015151848551611158565b9392505050565b6110cd8260c3611127565b50610d27826110de8360001961184e565b6040516020016110f091815260200190565b604051602081830303815290604052611250565b61110f8260c2611127565b50610d2782826040516020016110f091815260200190565b61112f611407565b6110bb838460000151518461125d565b611147611407565b610c5f8485600001515185856112ac565b611160611407565b825182111561116e57600080fd5b602085015161117d838661172c565b11156111b0576111b0856111a08760200151878661119b919061172c565b611320565b6111ab90600261182f565b611337565b6000808651805187602083010193508088870111156111cf5787860182525b505050602084015b6020841061120f57805182526111ee60208361172c565b91506111fb60208261172c565b905061120860208561188d565b93506111d7565b6000600161121e86602061188d565b61122a90610100611787565b611234919061188d565b9151835183169219169190911790915250849050949350505050565b610d038260028351610fce565b611265611407565b836020015183106112855761128584856020015160026111ab919061182f565b8351805160208583010184815350808514156112a2576001810182525b5093949350505050565b6112b4611407565b60208501516112c3858461172c565b11156112d7576112d7856111a0868561172c565b600060016112e784610100611787565b6112f1919061188d565b90508551838682010185831982511617815250805184870111156113155783860181525b509495945050505050565b600081831115611331575081610c06565b50919050565b81516113438383610f76565b50610fe983826110a1565b6040805160a08101825260008082526020820181905291810182905260608101919091526080810161137e611407565b905290565b82805461138f906118d0565b90600052602060002090601f0160209004810192826113b157600085556113f7565b82601f106113ca57805160ff19168380011785556113f7565b828001600101855582156113f7579182015b828111156113f75782518255916020019190600101906113dc565b50611403929150611421565b5090565b604051806040016040528060608152602001600081525090565b5b808211156114035760008155600101611422565b60006020828403121561144857600080fd5b81356001600160a01b03811681146110bb57600080fd5b60006020828403121561147157600080fd5b815180151581146110bb57600080fd5b6000806040838503121561149457600080fd5b50508035926020909101359150565b6000602082840312156114b557600080fd5b81356001600160401b03808211156114cc57600080fd5b818401915084601f8301126114e057600080fd5b8135818111156114f2576114f261193d565b604051601f8201601f19908116603f0116810190838211818310171561151a5761151a61193d565b8160405282815287602084870101111561153357600080fd5b826020860160208301376000928101602001929092525095945050505050565b60006020828403121561156557600080fd5b5035919050565b60006020828403121561157e57600080fd5b5051919050565b6000815180845261159d8160208601602086016118a4565b601f01601f19169290920160200192915050565b600083516115c38184602088016118a4565b8351908301906115d78183602088016118a4565b01949350505050565b6001600160a01b0391909116815260200190565b6001600160a01b03929092168252602082015260400190565b6001600160a01b0389811682526020820189905260408201889052861660608201526001600160e01b03198516608082015260a0810184905260c0810183905261010060e0820181905260009061166683820185611585565b9b9a5050505050505050505050565b60018060a01b0384168152826020820152606060408201526000610bd66060830184611585565b6020815260006110bb6020830184611585565b6020808252818101527f4f776e61626c653a2063616c6c6572206973206e6f7420746865206f776e6572604082015260600190565b60208082526028908201527f536f75726365206d75737420626520746865206f7261636c65206f6620746865604082015267081c995c5d595cdd60c21b606082015260800190565b6000821982111561173f5761173f611927565b500190565b600181815b8085111561177f57816000190482111561176557611765611927565b8085161561177257918102915b93841c9390800290611749565b509250929050565b60006110bb838360008261179d57506001610c06565b816117aa57506000610c06565b81600181146117c057600281146117ca576117e6565b6001915050610c06565b60ff8411156117db576117db611927565b50506001821b610c06565b5060208310610133831016604e8410600b8410161715611809575081810a610c06565b6118138383611744565b806000190482111561182757611827611927565b029392505050565b600081600019048311821515161561184957611849611927565b500290565b60008083128015600160ff1b85018412161561186c5761186c611927565b6001600160ff1b038401831381161561188757611887611927565b50500390565b60008282101561189f5761189f611927565b500390565b60005b838110156118bf5781810151838201526020016118a7565b83811115610fe95750506000910152565b600181811c908216806118e457607f821691505b6020821081141561133157634e487b7160e01b600052602260045260246000fd5b60008261192257634e487b7160e01b600052601260045260246000fd5b500690565b634e487b7160e01b600052601160045260246000fd5b634e487b7160e01b600052604160045260246000fdfe68747470733a2f2f7777772e7175616e646c2e636f6d2f6170692f76332f64617461736574732f555354524541535552592f42494c4c52415445532e6a736f6e3f6170695f6b65793d4d595f4b45596930ee93026433301a14b1baa0b52ca0d4640cb1edaa703beeb9056e235269847cc135e0cebb02c3480ae5d74d377283180a2601f8f644edf7987b009316c63aa2646970667358221220572bd1a64c75609aa5e2d6b2ccd5767c26a7291455e316670d90e495bf764ed764736f6c6343000807003368747470733a2f2f7777772e7175616e646c2e636f6d2f6170692f76332f64617461736574732f555354524541535552592f42494c4c52415445532e6a736f6e3f6170695f6b65793d4d595f4b4559",
  "immutableReferences": {},
  "source": "// SPDX-License-Identifier: UNLICENSED\r\n\r\npragma solidity ^0.8.6;\r\n\r\nimport \"./LinkPoolIntOracle.sol\";\r\n\r\n/* Using https://www.quandl.com/data/USTREASURY/BILLRATES-Treasury-Bill-Rates\r\n * Risk free rate is usually considered to be equal to interest paid on 3-month T-bill\r\n * Techincally the risk free rate returned should also depend on the forward contract's \r\n * time period.\r\n * Calculating the risk free rate: \r\n * https://www.orionstartups.com/research/how-to-calculate-the-risk-free-rate\r\n * WATCH OUT: rate can be negative!!!\r\n * Put API key in .env file\r\n *\r\n * have start_date be an adjustable parameter:\r\n * depending on the current date and the expiration date the risk free rate can be \r\n * determined from T-bills with various maturity trenches.\r\n * We expect standard forward contracts to be up to twelve month. (anything beyond that would be a long-dated forward)\r\n * In the quandl API here is how to get various maturity tranches according data[n] array index:\r\n * \"column_names\":[\r\n\t\t\"Date\",\r\n\t\t\"4 Wk Bank Discount Rate\", (index 1)\r\n\t\t\"4 Wk Coupon Equiv\",\r\n\t\t\"8 Wk Bank Discount Rate\", (index 3)\r\n\t\t\"8 Wk Coupon Equiv\",\r\n\t\t\"13 Wk Bank Discount Rate\", (index 5)\r\n\t\t\"13 Wk Coupon Equiv\",\r\n\t\t\"26 Wk Bank Discount Rate\", (index 7)\r\n\t\t\"26 Wk Coupon Equiv\",\r\n\t\t\"52 Wk Bank Discount Rate\", (index 9)\r\n\t\t\"52 Wk Coupon Equiv\"],\r\n * - for 0-6weeks expiration we'll use 4Wk rate\r\n * - for 7-10weeks use 8Wk rate\r\n * - for 11-19weeks use 13Wk rate\r\n * - for 20-39weeks use 26Wk rate\r\n * - for 40+ weeks use 52Wk rate\r\n *\r\n * Watch out for decimals for risk free rates!! Data is given as percentage\r\n * Decimal convention for risk free rate: 1.23 => 1.23 % => scale by 1:100 => 123\r\n */\r\n\r\ncontract USDRFROracle is LinkPoolIntOracle {\r\n    int public _decimals_ = 10 ** 2;\r\n    //need to add API key to base URL\r\n    //start date will be a api URL parameter\r\n    string public constant _apiBaseURL_ = \"https://www.quandl.com/api/v3/datasets/USTREASURY/BILLRATES.json?api_key=MY_KEY\";\r\n    //use 0 index for data array since we always want the most recent value\r\n    string public  _apiPath_ = \"dataset.data.0.1\";//correct thsi (it is not correct syntax and also it's fixed 4 Wk rate)\r\n\r\n    constructor(\r\n    ) LinkPoolIntOracle(\r\n        _decimals_,\r\n        _apiBaseURL_,\r\n        _apiPath_\r\n    ) {}\r\n\r\n    //updateAPIPath: update apiPath based on period of forward contract\r\n    function updateAPIPath(uint contractDurationInSeconds) external {\r\n        string memory maturityTranchIndex;\r\n        /* week duration calculation\r\n         * 1 week = 7*24*60*60 = 604800 seconds\r\n         */\r\n         if (contractDurationInSeconds <= 3628800) {// <=4 weeks\r\n             maturityTranchIndex = \"1\";\r\n         } else if ((3628800 < contractDurationInSeconds) && (contractDurationInSeconds <= 6048000)) {\r\n             maturityTranchIndex = \"2\";\r\n         } else if ((6048000 < contractDurationInSeconds) && (contractDurationInSeconds <= 11491200)) {\r\n             maturityTranchIndex = \"3\";\r\n         } else if ((11491200 < contractDurationInSeconds) && (contractDurationInSeconds <= 23587200)) {\r\n             maturityTranchIndex = \"4\";\r\n         } else {\r\n             maturityTranchIndex = \"5\";\r\n         }\r\n         _apiPath_ = \"\";\r\n    }\r\n\r\n    //parse uint to string\r\n    function uint2str(uint _i) internal pure returns (string memory _uintAsString) {\r\n        if (_i == 0) {\r\n            return \"0\";\r\n        }\r\n        uint j = _i;\r\n        uint len;\r\n        while (j != 0) {\r\n            len++;\r\n            j /= 10;\r\n        }\r\n        bytes memory bstr = new bytes(len);\r\n        uint k = len;\r\n        while (_i != 0) {\r\n            k = k-1;\r\n            uint8 temp = (48 + uint8(_i - _i / 10 * 10));\r\n            bytes1 b1 = bytes1(temp);\r\n            bstr[k] = b1;\r\n            _i /= 10;\r\n        }\r\n        return string(bstr);\r\n    }\r\n\r\n}",
  "sourcePath": "C:\\Users\\Tomi\\OneDrive - The University of Chicago\\Documents\\Securrency\\FuturesExchange\\contracts\\Oracles\\LinkPoolOracles\\USDRFROracle.sol",
  "compiler": {
    "name": "solc",
    "version": "0.8.7+commit.e28d00a7.Emscripten.clang"
  },
  "schemaVersion": "3.4.2",
  "updatedAt": "2021-09-03T08:16:34.389Z",
  "devdoc": {
    "kind": "dev",
    "methods": {
      "owner()": {
        "details": "Returns the address of the current owner."
      },
      "renounceOwnership()": {
        "details": "Leaves the contract without owner. It will not be possible to call `onlyOwner` functions anymore. Can only be called by the current owner. NOTE: Renouncing ownership will leave the contract without an owner, thereby removing any functionality that is only available to the owner."
      },
      "transferOwnership(address)": {
        "details": "Transfers ownership of the contract to a new account (`newOwner`). Can only be called by the current owner."
      }
    },
    "version": 1
  },
  "userdoc": {
    "kind": "user",
    "methods": {},
    "version": 1
  }
}