{
  "contractName": "USDRFROracle",
  "abi": [
    {
      "inputs": [],
      "stateMutability": "nonpayable",
      "type": "constructor"
    },
    {
      "anonymous": false,
      "inputs": [
        {
          "indexed": true,
          "internalType": "bytes32",
          "name": "id",
          "type": "bytes32"
        }
      ],
      "name": "ChainlinkCancelled",
      "type": "event"
    },
    {
      "anonymous": false,
      "inputs": [
        {
          "indexed": true,
          "internalType": "bytes32",
          "name": "id",
          "type": "bytes32"
        }
      ],
      "name": "ChainlinkFulfilled",
      "type": "event"
    },
    {
      "anonymous": false,
      "inputs": [
        {
          "indexed": true,
          "internalType": "bytes32",
          "name": "id",
          "type": "bytes32"
        }
      ],
      "name": "ChainlinkRequested",
      "type": "event"
    },
    {
      "anonymous": false,
      "inputs": [
        {
          "indexed": false,
          "internalType": "bytes32",
          "name": "requestId",
          "type": "bytes32"
        }
      ],
      "name": "Fulfilled",
      "type": "event"
    },
    {
      "anonymous": false,
      "inputs": [
        {
          "indexed": false,
          "internalType": "address",
          "name": "withdrawer",
          "type": "address"
        },
        {
          "indexed": false,
          "internalType": "uint256",
          "name": "amount",
          "type": "uint256"
        }
      ],
      "name": "LinkWithdrawn",
      "type": "event"
    },
    {
      "anonymous": false,
      "inputs": [
        {
          "indexed": true,
          "internalType": "address",
          "name": "previousOwner",
          "type": "address"
        },
        {
          "indexed": true,
          "internalType": "address",
          "name": "newOwner",
          "type": "address"
        }
      ],
      "name": "OwnershipTransferred",
      "type": "event"
    },
    {
      "anonymous": false,
      "inputs": [
        {
          "indexed": false,
          "internalType": "address",
          "name": "sender",
          "type": "address"
        },
        {
          "indexed": false,
          "internalType": "uint256",
          "name": "amount",
          "type": "uint256"
        }
      ],
      "name": "Received",
      "type": "event"
    },
    {
      "anonymous": false,
      "inputs": [
        {
          "indexed": false,
          "internalType": "address",
          "name": "oracleAddress",
          "type": "address"
        },
        {
          "indexed": false,
          "internalType": "bytes32",
          "name": "jobId",
          "type": "bytes32"
        },
        {
          "indexed": false,
          "internalType": "uint256",
          "name": "fee",
          "type": "uint256"
        }
      ],
      "name": "RequestSent",
      "type": "event"
    },
    {
      "stateMutability": "payable",
      "type": "fallback"
    },
    {
      "inputs": [],
      "name": "__jobId",
      "outputs": [
        {
          "internalType": "bytes32",
          "name": "",
          "type": "bytes32"
        }
      ],
      "stateMutability": "view",
      "type": "function"
    },
    {
      "inputs": [],
      "name": "_apiBaseURL_",
      "outputs": [
        {
          "internalType": "string",
          "name": "",
          "type": "string"
        }
      ],
      "stateMutability": "view",
      "type": "function"
    },
    {
      "inputs": [],
      "name": "_apiPathBase_",
      "outputs": [
        {
          "internalType": "string",
          "name": "",
          "type": "string"
        }
      ],
      "stateMutability": "view",
      "type": "function"
    },
    {
      "inputs": [],
      "name": "_decimals_",
      "outputs": [
        {
          "internalType": "int256",
          "name": "",
          "type": "int256"
        }
      ],
      "stateMutability": "view",
      "type": "function"
    },
    {
      "inputs": [],
      "name": "_fee",
      "outputs": [
        {
          "internalType": "uint256",
          "name": "",
          "type": "uint256"
        }
      ],
      "stateMutability": "view",
      "type": "function"
    },
    {
      "inputs": [],
      "name": "_linkAddress",
      "outputs": [
        {
          "internalType": "address",
          "name": "",
          "type": "address"
        }
      ],
      "stateMutability": "view",
      "type": "function"
    },
    {
      "inputs": [],
      "name": "_oracleAddress",
      "outputs": [
        {
          "internalType": "address",
          "name": "",
          "type": "address"
        }
      ],
      "stateMutability": "view",
      "type": "function"
    },
    {
      "inputs": [],
      "name": "decimals",
      "outputs": [
        {
          "internalType": "int256",
          "name": "",
          "type": "int256"
        }
      ],
      "stateMutability": "view",
      "type": "function"
    },
    {
      "inputs": [],
      "name": "fee",
      "outputs": [
        {
          "internalType": "uint256",
          "name": "",
          "type": "uint256"
        }
      ],
      "stateMutability": "view",
      "type": "function"
    },
    {
      "inputs": [
        {
          "internalType": "bytes32",
          "name": "_requestId",
          "type": "bytes32"
        },
        {
          "internalType": "int256",
          "name": "_result",
          "type": "int256"
        }
      ],
      "name": "fulfillSigned",
      "outputs": [],
      "stateMutability": "nonpayable",
      "type": "function"
    },
    {
      "inputs": [
        {
          "internalType": "bytes32",
          "name": "_requestId",
          "type": "bytes32"
        },
        {
          "internalType": "uint256",
          "name": "_result",
          "type": "uint256"
        }
      ],
      "name": "fulfillUnsigned",
      "outputs": [],
      "stateMutability": "nonpayable",
      "type": "function"
    },
    {
      "inputs": [],
      "name": "getSignedResult",
      "outputs": [
        {
          "internalType": "int256",
          "name": "",
          "type": "int256"
        }
      ],
      "stateMutability": "view",
      "type": "function"
    },
    {
      "inputs": [],
      "name": "getUnsignedResult",
      "outputs": [
        {
          "internalType": "uint256",
          "name": "",
          "type": "uint256"
        }
      ],
      "stateMutability": "view",
      "type": "function"
    },
    {
      "inputs": [],
      "name": "isSignedResult",
      "outputs": [
        {
          "internalType": "bool",
          "name": "",
          "type": "bool"
        }
      ],
      "stateMutability": "view",
      "type": "function"
    },
    {
      "inputs": [],
      "name": "jobId",
      "outputs": [
        {
          "internalType": "bytes32",
          "name": "",
          "type": "bytes32"
        }
      ],
      "stateMutability": "view",
      "type": "function"
    },
    {
      "inputs": [],
      "name": "oracleAddress",
      "outputs": [
        {
          "internalType": "address",
          "name": "",
          "type": "address"
        }
      ],
      "stateMutability": "view",
      "type": "function"
    },
    {
      "inputs": [],
      "name": "owner",
      "outputs": [
        {
          "internalType": "address",
          "name": "",
          "type": "address"
        }
      ],
      "stateMutability": "view",
      "type": "function"
    },
    {
      "inputs": [],
      "name": "renounceOwnership",
      "outputs": [],
      "stateMutability": "nonpayable",
      "type": "function"
    },
    {
      "inputs": [
        {
          "internalType": "string",
          "name": "apiURLParameters",
          "type": "string"
        }
      ],
      "name": "requestIndexPrice",
      "outputs": [
        {
          "internalType": "bytes32",
          "name": "requestId",
          "type": "bytes32"
        }
      ],
      "stateMutability": "nonpayable",
      "type": "function"
    },
    {
      "inputs": [
        {
          "internalType": "address",
          "name": "newOwner",
          "type": "address"
        }
      ],
      "name": "transferOwnership",
      "outputs": [],
      "stateMutability": "nonpayable",
      "type": "function"
    },
    {
      "inputs": [],
      "name": "withdrawLink",
      "outputs": [],
      "stateMutability": "nonpayable",
      "type": "function"
    },
    {
      "stateMutability": "payable",
      "type": "receive"
    },
    {
      "inputs": [
        {
          "internalType": "int256",
          "name": "contractDurationInSeconds",
          "type": "int256"
        }
      ],
      "name": "updateAPIPath",
      "outputs": [],
      "stateMutability": "nonpayable",
      "type": "function"
    }
  ],
  "bytecode": "0x6001600455600f80546001600160a01b03199081167356dd6586db0d08c6ce7b2f2805af28616e0824551782556010805490911673a36085f69e2889c224210f603d836748e7dc008817905567016345785d8a00006011557f3236343966633463613833633430313662666432643135373635353932626565601255606460135560c060405260808190526e3230ba30b9b2ba173230ba3097181760891b60a0908152620000b19160149190620002e7565b50348015620000bf57600080fd5b506013546040518060800160405280604f8152602001620023c1604f9139604080516020810190915260008152601254600f546010546011548692869286926001926001600160a01b03908116928892911690878787876200012133620001e4565b6001600160a01b03861662000140576200013a62000236565b6200015c565b600280546001600160a01b0319166001600160a01b0388161790555b600980546001600160a01b0319166001600160a01b038a16179055600a879055600e859055600d84905582516200019b90600c906020860190620002e7565b508151620001b190600b906020850190620002e7565b5060068054911515600160a01b0260ff60a01b1990921691909117905550620003fc9d5050505050505050505050505050565b600680546001600160a01b038381166001600160a01b0319831681179093556040519116919082907f8be0079c531659141344cd1fd0a4f28419497f9722a3daafe3b4186f6b6457e090600090a35050565b620002e573c89bd4e1632d3a43cb03aaad5262cbe4038bc5716001600160a01b03166338cc48316040518163ffffffff1660e01b815260040160206040518083038186803b1580156200028857600080fd5b505afa1580156200029d573d6000803e3d6000fd5b505050506040513d601f19601f82011682018060405250810190620002c391906200038d565b600280546001600160a01b0319166001600160a01b0392909216919091179055565b565b828054620002f590620003bf565b90600052602060002090601f01602090048101928262000319576000855562000364565b82601f106200033457805160ff191683800117855562000364565b8280016001018555821562000364579182015b828111156200036457825182559160200191906001019062000347565b506200037292915062000376565b5090565b5b8082111562000372576000815560010162000377565b600060208284031215620003a057600080fd5b81516001600160a01b0381168114620003b857600080fd5b9392505050565b600181811c90821680620003d457607f821691505b60208210811415620003f657634e487b7160e01b600052602260045260246000fd5b50919050565b611fb5806200040c6000396000f3fe6080604052600436106101615760003560e01c8063918c00b9116100bf578063c068e8b111610079578063d233da0811610056578063d233da08146103df578063ddca3f43146103f5578063f2fde38b1461040b57005b8063c068e8b11461039e578063c2939d97146103b3578063c5b37c22146103c957005b8063a89ae4ba116100a7578063a89ae4ba14610349578063afb0a7d714610369578063bd2563fb1461038957005b8063918c00b9146103035780639df49c231461033457005b806369723be71161011b5780637e0b66d0116100f85780637e0b66d0146102b05780638da5cb5b146102d05780638dc654a2146102ee57005b806369723be71461025b5780636fb7cb571461027b578063715018a61461029b57005b8063313ce56711610149578063313ce567146102015780634665e65a1461022557806351744bca1461023b57005b8063185defc6146101a25780631d5cd009146101df57005b366101a057604080513381523460208201527f88a5966d370b9919b20f3e2c13ff65706f196a4e32cc2c12bf57088f88525874910160405180910390a1005b005b3480156101ae57600080fd5b506010546101c2906001600160a01b031681565b6040516001600160a01b0390911681526020015b60405180910390f35b3480156101eb57600080fd5b506101f461042b565b6040516101d69190611c4f565b34801561020d57600080fd5b50610217600d5481565b6040519081526020016101d6565b34801561023157600080fd5b5061021760125481565b34801561024757600080fd5b506101a0610256366004611a4b565b610447565b34801561026757600080fd5b50610217610276366004611a86565b610553565b34801561028757600080fd5b50600f546101c2906001600160a01b031681565b3480156102a757600080fd5b506101a061086d565b3480156102bc57600080fd5b506101a06102cb366004611a4b565b6108d3565b3480156102dc57600080fd5b506006546001600160a01b03166101c2565b3480156102fa57600080fd5b506101a06109d1565b34801561030f57600080fd5b5060065461032490600160a01b900460ff1681565b60405190151581526020016101d6565b34801561034057600080fd5b50600754610217565b34801561035557600080fd5b506009546101c2906001600160a01b031681565b34801561037557600080fd5b506101a0610384366004611a6d565b610bfa565b34801561039557600080fd5b50600854610217565b3480156103aa57600080fd5b506101f4610ca1565b3480156103bf57600080fd5b50610217600a5481565b3480156103d557600080fd5b5061021760115481565b3480156103eb57600080fd5b5061021760135481565b34801561040157600080fd5b50610217600e5481565b34801561041757600080fd5b506101a0610426366004611a00565b610d2f565b6040518060800160405280604f8152602001611f31604f913981565b60008281526005602052604090205482906001600160a01b031633146104c55760405162461bcd60e51b815260206004820152602860248201527f536f75726365206d75737420626520746865206f7261636c65206f6620746865604482015267081c995c5d595cdd60c21b60648201526084015b60405180910390fd5b600081815260056020526040808220805473ffffffffffffffffffffffffffffffffffffffff191690555182917f7cc135e0cebb02c3480ae5d74d377283180a2601f8f644edf7987b009316c63a91a260088290556040518381527f6930ee93026433301a14b1baa0b52ca0d4640cb1edaa703beeb9056e23526984906020015b60405180910390a1505050565b60006105936040805160a0810182526000808252602080830182905282840182905260608084018390528451808601909552845283015290608082015290565b600654600160a01b900460ff16156105da57600a546105d390307f51744bca00000000000000000000000000000000000000000000000000000000610e0e565b905061060b565b600a5461060890307f7e0b66d000000000000000000000000000000000000000000000000000000000610e0e565b90505b6106e06040518060400160405280600381526020017f67657400000000000000000000000000000000000000000000000000000000008152506106d8600c805461065490611e74565b80601f016020809104026020016040519081016040528092919081815260200182805461068090611e74565b80156106cd5780601f106106a2576101008083540402835291602001916106cd565b820191906000526020600020905b8154815290600101906020018083116106b057829003601f168201915b505050505086610e9f565b839190610ecc565b6107b46040518060400160405280600481526020017f7061746800000000000000000000000000000000000000000000000000000000815250600b805461072690611e74565b80601f016020809104026020016040519081016040528092919081815260200182805461075290611e74565b801561079f5780601f106107745761010080835404028352916020019161079f565b820191906000526020600020905b81548152906001019060200180831161078257829003601f168201915b505050505083610ecc9092919063ffffffff16565b60408051808201909152600581527f74696d65730000000000000000000000000000000000000000000000000000006020820152600d546107f6918391610eef565b600954600e54610811916001600160a01b0316908390610f0d565b600954600a54600e54604080516001600160a01b0390941684526020840192909252908201529092507f5de0ca4d601c6369aafe37da9bab92be9804895234cdb72d8181492e84e6bcb29060600160405180910390a150919050565b6006546001600160a01b031633146108c75760405162461bcd60e51b815260206004820181905260248201527f4f776e61626c653a2063616c6c6572206973206e6f7420746865206f776e657260448201526064016104bc565b6108d16000610f45565b565b60008281526005602052604090205482906001600160a01b0316331461094c5760405162461bcd60e51b815260206004820152602860248201527f536f75726365206d75737420626520746865206f7261636c65206f6620746865604482015267081c995c5d595cdd60c21b60648201526084016104bc565b600081815260056020526040808220805473ffffffffffffffffffffffffffffffffffffffff191690555182917f7cc135e0cebb02c3480ae5d74d377283180a2601f8f644edf7987b009316c63a91a260078290556040518381527f6930ee93026433301a14b1baa0b52ca0d4640cb1edaa703beeb9056e2352698490602001610546565b6006546001600160a01b03163314610a2b5760405162461bcd60e51b815260206004820181905260248201527f4f776e61626c653a2063616c6c6572206973206e6f7420746865206f776e657260448201526064016104bc565b6000610a3f6002546001600160a01b031690565b6040517f70a082310000000000000000000000000000000000000000000000000000000081523060048201529091506000906001600160a01b038316906370a082319060240160206040518083038186803b158015610a9d57600080fd5b505afa158015610ab1573d6000803e3d6000fd5b505050506040513d601f19601f82011682018060405250810190610ad59190611b37565b6040517fa9059cbb000000000000000000000000000000000000000000000000000000008152336004820152602481018290529091506001600160a01b0383169063a9059cbb90604401602060405180830381600087803b158015610b3957600080fd5b505af1158015610b4d573d6000803e3d6000fd5b505050506040513d601f19601f82011682018060405250810190610b719190611a29565b610bbd5760405162461bcd60e51b815260206004820152601260248201527f556e61626c6520746f207769746864726177000000000000000000000000000060448201526064016104bc565b60408051338152602081018390527fcb1436249a1dd8cf93362c28d79a4e20dc54398b6c49e30316e8396e72a584b0910160405180910390a15050565b610c9e610c9960148054610c0d90611e74565b80601f0160208091040260200160405190810160405280929190818152602001828054610c3990611e74565b8015610c865780601f10610c5b57610100808354040283529160200191610c86565b820191906000526020600020905b815481529060010190602001808311610c6957829003601f168201915b5050505050610c9484610fa4565b611027565b611044565b50565b60148054610cae90611e74565b80601f0160208091040260200160405190810160405280929190818152602001828054610cda90611e74565b8015610d275780601f10610cfc57610100808354040283529160200191610d27565b820191906000526020600020905b815481529060010190602001808311610d0a57829003601f168201915b505050505081565b6006546001600160a01b03163314610d895760405162461bcd60e51b815260206004820181905260248201527f4f776e61626c653a2063616c6c6572206973206e6f7420746865206f776e657260448201526064016104bc565b6001600160a01b038116610e055760405162461bcd60e51b815260206004820152602660248201527f4f776e61626c653a206e6577206f776e657220697320746865207a65726f206160448201527f646472657373000000000000000000000000000000000000000000000000000060648201526084016104bc565b610c9e81610f45565b610e4c6040805160a0810182526000808252602080830182905282840182905260608084018390528451808601909552845283015290608082015290565b610e8a6040805160a0810182526000808252602080830182905282840182905260608084018390528451808601909552845283015290608082015290565b610e968186868661105b565b95945050505050565b60608282604051602001610eb4929190611b7c565b60405160208183030381529060405290505b92915050565b6080830151610edb90836110e6565b6080830151610eea90826110e6565b505050565b6080830151610efe90836110e6565b6080830151610eea90826110fd565b6000610f3d84848460017f404299460000000000000000000000000000000000000000000000000000000061115d565b949350505050565b600680546001600160a01b0383811673ffffffffffffffffffffffffffffffffffffffff19831681179093556040519116919082907f8be0079c531659141344cd1fd0a4f28419497f9722a3daafe3b4186f6b6457e090600090a35050565b600062375f008213610fb857506001919050565b8162375f00128015610fcd5750625c49008213155b15610fda57506002919050565b81625c4900128015610fef575062af57808213155b15610ffc57506003919050565b8162af57801280156110125750630167e9808213155b1561101f57506004919050565b506005919050565b606082611033836113d6565b604051602001610eb4929190611b7c565b805161105790600b906020840190611967565b5050565b6110996040805160a0810182526000808252602080830182905282840182905260608084018390528451808601909552845283015290608082015290565b6110a98560800151610100611533565b50509183526001600160a01b031660208301527fffffffff0000000000000000000000000000000000000000000000000000000016604082015290565b6110f38260038351611598565b610eea828261166c565b67ffffffffffffffff1981121561111857611057828261169a565b67ffffffffffffffff8113156111325761105782826116dc565b600081126111465761105782600083611598565b61105782600161115884600019611dbd565b611598565b6004546040516bffffffffffffffffffffffff193060601b166020820152603481019190915260009060540160408051808303601f190181529181528151602092830120600454606089015260008181526005909352818320805473ffffffffffffffffffffffffffffffffffffffff19166001600160a01b038b16179055905190925082917fb5e6e01e79f91267dc17b4e6314d5d4d03593d2ceee0fbb452b750bd70ea5af991a2600082600080886000015189602001518a604001518b606001518a8d6080015160000151604051602401611241989796959493929190611bab565b60408051601f198184030181529181526020820180517bffffffffffffffffffffffffffffffffffffffffffffffffffffffff167fffffffff000000000000000000000000000000000000000000000000000000009094169390931790925260025491517f4000aea00000000000000000000000000000000000000000000000000000000081529092506001600160a01b0390911690634000aea0906112ef908a9089908690600401611c27565b602060405180830381600087803b15801561130957600080fd5b505af115801561131d573d6000803e3d6000fd5b505050506040513d601f19601f820116820180604052508101906113419190611a29565b6113b35760405162461bcd60e51b815260206004820152602360248201527f756e61626c6520746f207472616e73666572416e6443616c6c20746f206f726160448201527f636c65000000000000000000000000000000000000000000000000000000000060648201526084016104bc565b6001600460008282546113c69190611c62565b9091555091979650505050505050565b60608161141657505060408051808201909152600181527f3000000000000000000000000000000000000000000000000000000000000000602082015290565b8160005b8115611440578061142a81611ea9565b91506114399050600a83611c9f565b915061141a565b60008167ffffffffffffffff81111561145b5761145b611f1a565b6040519080825280601f01601f191660200182016040528015611485576020820181803683370190505b509050815b851561152a5761149b600182611e31565b905060006114aa600a88611c9f565b6114b590600a611d9e565b6114bf9088611e31565b6114ca906030611c7a565b905060008160f81b9050808484815181106114e7576114e7611f04565b60200101907effffffffffffffffffffffffffffffffffffffffffffffffffffffffffffff1916908160001a905350611521600a89611c9f565b9750505061148a565b50949350505050565b604080518082019091526060815260006020820152611553602083611ec4565b1561157b57611563602083611ec4565b61156e906020611e31565b6115789083611c62565b91505b506020828101829052604080518085526000815290920101905290565b601781116115b9576115b38360e0600585901b1683176116ff565b50505050565b60ff81116115e3576115d6836018611fe0600586901b16176116ff565b506115b383826001611724565b61ffff811161160e57611601836019611fe0600586901b16176116ff565b506115b383826002611724565b63ffffffff811161163b5761162e83601a611fe0600586901b16176116ff565b506115b383826004611724565b67ffffffffffffffff8111610eea5761165f83601b611fe0600586901b16176116ff565b506115b383826008611724565b6040805180820190915260608152600060208201526116938384600001515184855161174a565b9392505050565b6116a58260c36116ff565b50611057826116b683600019611dbd565b6040516020016116c891815260200190565b60405160208183030381529060405261184f565b6116e78260c26116ff565b5061105782826040516020016116c891815260200190565b604080518082019091526060815260006020820152611693838460000151518461185c565b604080518082019091526060815260006020820152610f3d8485600001515185856118b8565b604080518082019091526060815260006020820152825182111561176d57600080fd5b602085015161177c8386611c62565b11156117af576117af8561179f8760200151878661179a9190611c62565b611939565b6117aa906002611d9e565b611950565b6000808651805187602083010193508088870111156117ce5787860182525b505050602084015b6020841061180e57805182526117ed602083611c62565b91506117fa602082611c62565b9050611807602085611e31565b93506117d6565b6000600161181d866020611e31565b61182990610100611cf6565b6118339190611e31565b9151835183169219169190911790915250849050949350505050565b6110f38260028351611598565b604080518082019091526060815260006020820152836020015183106118915761189184856020015160026117aa9190611d9e565b8351805160208583010184815350808514156118ae576001810182525b5093949350505050565b60408051808201909152606081526000602082015260208501516118dc8584611c62565b11156118f0576118f08561179f8685611c62565b6000600161190084610100611cf6565b61190a9190611e31565b905085518386820101858319825116178152508051848701111561192e5783860181525b509495945050505050565b60008183111561194a575081610ec6565b50919050565b815161195c8383611533565b506115b3838261166c565b82805461197390611e74565b90600052602060002090601f01602090048101928261199557600085556119db565b82601f106119ae57805160ff19168380011785556119db565b828001600101855582156119db579182015b828111156119db5782518255916020019190600101906119c0565b506119e79291506119eb565b5090565b5b808211156119e757600081556001016119ec565b600060208284031215611a1257600080fd5b81356001600160a01b038116811461169357600080fd5b600060208284031215611a3b57600080fd5b8151801515811461169357600080fd5b60008060408385031215611a5e57600080fd5b50508035926020909101359150565b600060208284031215611a7f57600080fd5b5035919050565b600060208284031215611a9857600080fd5b813567ffffffffffffffff80821115611ab057600080fd5b818401915084601f830112611ac457600080fd5b813581811115611ad657611ad6611f1a565b604051601f8201601f19908116603f01168101908382118183101715611afe57611afe611f1a565b81604052828152876020848701011115611b1757600080fd5b826020860160208301376000928101602001929092525095945050505050565b600060208284031215611b4957600080fd5b5051919050565b60008151808452611b68816020860160208601611e48565b601f01601f19169290920160200192915050565b60008351611b8e818460208801611e48565b835190830190611ba2818360208801611e48565b01949350505050565b60006101006001600160a01b03808c1684528a60208501528960408501528089166060850152507fffffffff00000000000000000000000000000000000000000000000000000000871660808401528560a08401528460c08401528060e0840152611c1881840185611b50565b9b9a5050505050505050505050565b6001600160a01b0384168152826020820152606060408201526000610e966060830184611b50565b6020815260006116936020830184611b50565b60008219821115611c7557611c75611ed8565b500190565b600060ff821660ff84168060ff03821115611c9757611c97611ed8565b019392505050565b600082611cae57611cae611eee565b500490565b600181815b80851115611cee578160001904821115611cd457611cd4611ed8565b80851615611ce157918102915b93841c9390800290611cb8565b509250929050565b60006116938383600082611d0c57506001610ec6565b81611d1957506000610ec6565b8160018114611d2f5760028114611d3957611d55565b6001915050610ec6565b60ff841115611d4a57611d4a611ed8565b50506001821b610ec6565b5060208310610133831016604e8410600b8410161715611d78575081810a610ec6565b611d828383611cb3565b8060001904821115611d9657611d96611ed8565b029392505050565b6000816000190483118215151615611db857611db8611ed8565b500290565b6000808312837f800000000000000000000000000000000000000000000000000000000000000001831281151615611df757611df7611ed8565b837f7fffffffffffffffffffffffffffffffffffffffffffffffffffffffffffffff018313811615611e2b57611e2b611ed8565b50500390565b600082821015611e4357611e43611ed8565b500390565b60005b83811015611e63578181015183820152602001611e4b565b838111156115b35750506000910152565b600181811c90821680611e8857607f821691505b6020821081141561194a57634e487b7160e01b600052602260045260246000fd5b6000600019821415611ebd57611ebd611ed8565b5060010190565b600082611ed357611ed3611eee565b500690565b634e487b7160e01b600052601160045260246000fd5b634e487b7160e01b600052601260045260246000fd5b634e487b7160e01b600052603260045260246000fd5b634e487b7160e01b600052604160045260246000fdfe68747470733a2f2f7777772e7175616e646c2e636f6d2f6170692f76332f64617461736574732f555354524541535552592f42494c4c52415445532e6a736f6e3f6170695f6b65793d4d595f4b4559a2646970667358221220155c721e9c0a30390268622fcae6b9487cc93a22a3a6c0c315baf4e7615e728f64736f6c6343000807003368747470733a2f2f7777772e7175616e646c2e636f6d2f6170692f76332f64617461736574732f555354524541535552592f42494c4c52415445532e6a736f6e3f6170695f6b65793d4d595f4b4559",
  "immutableReferences": {},
  "source": "// SPDX-License-Identifier: UNLICENSED\r\n\r\npragma solidity ^0.8.6;\r\n\r\nimport \"./LinkPoolIntOracle.sol\";\r\n\r\n/* Using https://www.quandl.com/data/USTREASURY/BILLRATES-Treasury-Bill-Rates\r\n * Risk free rate is usually considered to be equal to interest paid on 3-month T-bill\r\n * Techincally the risk free rate returned should also depend on the forward contract's \r\n * time period.\r\n * Calculating the risk free rate: \r\n * https://www.orionstartups.com/research/how-to-calculate-the-risk-free-rate\r\n * WATCH OUT: rate can be negative!!!\r\n * Put API key in .env file\r\n *\r\n * have start_date be an adjustable parameter:\r\n * depending on the current date and the expiration date the risk free rate can be \r\n * determined from T-bills with various maturity trenches.\r\n * We expect standard forward contracts to be up to twelve month. (anything beyond that would be a long-dated forward)\r\n * In the quandl API here is how to get various maturity tranches according data[n] array index:\r\n * \"column_names\":[\r\n\t\t\"Date\",\r\n\t\t\"4 Wk Bank Discount Rate\", (index 1)\r\n\t\t\"4 Wk Coupon Equiv\",\r\n\t\t\"8 Wk Bank Discount Rate\", (index 3)\r\n\t\t\"8 Wk Coupon Equiv\",\r\n\t\t\"13 Wk Bank Discount Rate\", (index 5)\r\n\t\t\"13 Wk Coupon Equiv\",\r\n\t\t\"26 Wk Bank Discount Rate\", (index 7)\r\n\t\t\"26 Wk Coupon Equiv\",\r\n\t\t\"52 Wk Bank Discount Rate\", (index 9)\r\n\t\t\"52 Wk Coupon Equiv\"],\r\n * - for 0-6weeks expiration we'll use 4Wk rate\r\n * - for 7-10weeks use 8Wk rate\r\n * - for 11-19weeks use 13Wk rate\r\n * - for 20-39weeks use 26Wk rate\r\n * - for 40+ weeks use 52Wk rate\r\n *\r\n * Watch out for decimals for risk free rates!! Data is given as percentage\r\n * Decimal convention for risk free rate: 1.23 => 1.23 % => scale by 1:100 => 123\r\n */\r\n\r\ncontract USDRFROracle is LinkPoolIntOracle {\r\n    int public _decimals_ = 10 ** 2;\r\n    //need to add API key to base URL\r\n    //start date will be a api URL parameter\r\n    string public constant _apiBaseURL_ = \"https://www.quandl.com/api/v3/datasets/USTREASURY/BILLRATES.json?api_key=MY_KEY\";\r\n    //use 0 index for data array since we always want the most recent value\r\n    string public  _apiPathBase_ = \"dataset.data.0.\";//correct thsi (it is not correct syntax and also it's fixed 4 Wk rate)\r\n\r\n    constructor(\r\n    ) LinkPoolIntOracle(\r\n        _decimals_,\r\n        _apiBaseURL_,\r\n        \"\"\r\n    ) {}\r\n\r\n    function calcMaturityTranchIndex(int contractDurationInSeconds) internal pure returns(uint) {\r\n        if (contractDurationInSeconds <= 3628800) {// <=4 weeks\r\n            return 1;\r\n         } else if ((3628800 < contractDurationInSeconds) && (contractDurationInSeconds <= 6048000)) {\r\n            return 2;\r\n         } else if ((6048000 < contractDurationInSeconds) && (contractDurationInSeconds <= 11491200)) {\r\n            return 3;\r\n         } else if ((11491200 < contractDurationInSeconds) && (contractDurationInSeconds <= 23587200)) {\r\n            return 4;\r\n         } else {\r\n            return 5;\r\n         }\r\n    }\r\n\r\n    function updateAPIPath(int contractDurationInSeconds)  external {\r\n         setAPIPath(concetanateStringUint(_apiPathBase_, calcMaturityTranchIndex(contractDurationInSeconds))); \r\n    }\r\n\r\n    function concetanateStringUint(string memory a, uint b) internal pure returns (string memory){\r\n        return string(abi.encodePacked(a, uint2str(b)));\r\n    }\r\n\r\n    //parse uint to string\r\n    function uint2str(uint _i) internal pure returns (string memory _uintAsString) {\r\n        if (_i == 0) {\r\n            return \"0\";\r\n        }\r\n        uint j = _i;\r\n        uint len;\r\n        while (j != 0) {\r\n            len++;\r\n            j /= 10;\r\n        }\r\n        bytes memory bstr = new bytes(len);\r\n        uint k = len;\r\n        while (_i != 0) {\r\n            k = k-1;\r\n            uint8 temp = (48 + uint8(_i - _i / 10 * 10));\r\n            bytes1 b1 = bytes1(temp);\r\n            bstr[k] = b1;\r\n            _i /= 10;\r\n        }\r\n        return string(bstr);\r\n    }\r\n}",
  "sourcePath": "C:\\Users\\Tomi\\OneDrive - The University of Chicago\\Documents\\Securrency\\FuturesExchange\\contracts\\Oracles\\LinkPoolOracles\\USDRFROracle.sol",
  "compiler": {
    "name": "solc",
    "version": "0.8.7+commit.e28d00a7.Emscripten.clang"
  },
  "schemaVersion": "3.4.2",
  "updatedAt": "2021-09-13T15:41:16.694Z",
  "devdoc": {
    "kind": "dev",
    "methods": {
      "owner()": {
        "details": "Returns the address of the current owner."
      },
      "renounceOwnership()": {
        "details": "Leaves the contract without owner. It will not be possible to call `onlyOwner` functions anymore. Can only be called by the current owner. NOTE: Renouncing ownership will leave the contract without an owner, thereby removing any functionality that is only available to the owner."
      },
      "transferOwnership(address)": {
        "details": "Transfers ownership of the contract to a new account (`newOwner`). Can only be called by the current owner."
      }
    },
    "version": 1
  },
  "userdoc": {
    "kind": "user",
    "methods": {},
    "version": 1
  }
}