{
  "contractName": "USDRFROracle",
  "abi": [
    {
      "inputs": [],
      "stateMutability": "nonpayable",
      "type": "constructor"
    },
    {
      "anonymous": false,
      "inputs": [
        {
          "indexed": true,
          "internalType": "bytes32",
          "name": "id",
          "type": "bytes32"
        }
      ],
      "name": "ChainlinkCancelled",
      "type": "event"
    },
    {
      "anonymous": false,
      "inputs": [
        {
          "indexed": true,
          "internalType": "bytes32",
          "name": "id",
          "type": "bytes32"
        }
      ],
      "name": "ChainlinkFulfilled",
      "type": "event"
    },
    {
      "anonymous": false,
      "inputs": [
        {
          "indexed": true,
          "internalType": "bytes32",
          "name": "id",
          "type": "bytes32"
        }
      ],
      "name": "ChainlinkRequested",
      "type": "event"
    },
    {
      "anonymous": false,
      "inputs": [
        {
          "indexed": false,
          "internalType": "bytes32",
          "name": "requestId",
          "type": "bytes32"
        }
      ],
      "name": "Fulfilled",
      "type": "event"
    },
    {
      "anonymous": false,
      "inputs": [
        {
          "indexed": false,
          "internalType": "address",
          "name": "withdrawer",
          "type": "address"
        },
        {
          "indexed": false,
          "internalType": "uint256",
          "name": "amount",
          "type": "uint256"
        }
      ],
      "name": "LinkWithdrawn",
      "type": "event"
    },
    {
      "anonymous": false,
      "inputs": [
        {
          "indexed": true,
          "internalType": "address",
          "name": "previousOwner",
          "type": "address"
        },
        {
          "indexed": true,
          "internalType": "address",
          "name": "newOwner",
          "type": "address"
        }
      ],
      "name": "OwnershipTransferred",
      "type": "event"
    },
    {
      "anonymous": false,
      "inputs": [
        {
          "indexed": false,
          "internalType": "address",
          "name": "sender",
          "type": "address"
        },
        {
          "indexed": false,
          "internalType": "uint256",
          "name": "amount",
          "type": "uint256"
        }
      ],
      "name": "Received",
      "type": "event"
    },
    {
      "anonymous": false,
      "inputs": [
        {
          "indexed": false,
          "internalType": "address",
          "name": "oracleAddress",
          "type": "address"
        },
        {
          "indexed": false,
          "internalType": "bytes32",
          "name": "jobId",
          "type": "bytes32"
        },
        {
          "indexed": false,
          "internalType": "uint256",
          "name": "fee",
          "type": "uint256"
        }
      ],
      "name": "RequestSent",
      "type": "event"
    },
    {
      "stateMutability": "payable",
      "type": "fallback"
    },
    {
      "inputs": [],
      "name": "__jobId",
      "outputs": [
        {
          "internalType": "bytes32",
          "name": "",
          "type": "bytes32"
        }
      ],
      "stateMutability": "view",
      "type": "function"
    },
    {
      "inputs": [],
      "name": "_apiBaseURL_",
      "outputs": [
        {
          "internalType": "string",
          "name": "",
          "type": "string"
        }
      ],
      "stateMutability": "view",
      "type": "function"
    },
    {
      "inputs": [],
      "name": "_apiPathBase_",
      "outputs": [
        {
          "internalType": "string",
          "name": "",
          "type": "string"
        }
      ],
      "stateMutability": "view",
      "type": "function"
    },
    {
      "inputs": [],
      "name": "_decimals_",
      "outputs": [
        {
          "internalType": "int256",
          "name": "",
          "type": "int256"
        }
      ],
      "stateMutability": "view",
      "type": "function"
    },
    {
      "inputs": [],
      "name": "_fee",
      "outputs": [
        {
          "internalType": "uint256",
          "name": "",
          "type": "uint256"
        }
      ],
      "stateMutability": "view",
      "type": "function"
    },
    {
      "inputs": [],
      "name": "_linkAddress",
      "outputs": [
        {
          "internalType": "address",
          "name": "",
          "type": "address"
        }
      ],
      "stateMutability": "view",
      "type": "function"
    },
    {
      "inputs": [],
      "name": "_oracleAddress",
      "outputs": [
        {
          "internalType": "address",
          "name": "",
          "type": "address"
        }
      ],
      "stateMutability": "view",
      "type": "function"
    },
    {
      "inputs": [],
      "name": "decimals",
      "outputs": [
        {
          "internalType": "int256",
          "name": "",
          "type": "int256"
        }
      ],
      "stateMutability": "view",
      "type": "function"
    },
    {
      "inputs": [],
      "name": "fee",
      "outputs": [
        {
          "internalType": "uint256",
          "name": "",
          "type": "uint256"
        }
      ],
      "stateMutability": "view",
      "type": "function"
    },
    {
      "inputs": [
        {
          "internalType": "bytes32",
          "name": "_requestId",
          "type": "bytes32"
        },
        {
          "internalType": "int256",
          "name": "_result",
          "type": "int256"
        }
      ],
      "name": "fulfillSigned",
      "outputs": [],
      "stateMutability": "nonpayable",
      "type": "function"
    },
    {
      "inputs": [
        {
          "internalType": "bytes32",
          "name": "_requestId",
          "type": "bytes32"
        },
        {
          "internalType": "uint256",
          "name": "_result",
          "type": "uint256"
        }
      ],
      "name": "fulfillUnsigned",
      "outputs": [],
      "stateMutability": "nonpayable",
      "type": "function"
    },
    {
      "inputs": [],
      "name": "getSignedResult",
      "outputs": [
        {
          "internalType": "int256",
          "name": "",
          "type": "int256"
        }
      ],
      "stateMutability": "view",
      "type": "function"
    },
    {
      "inputs": [],
      "name": "getUnsignedResult",
      "outputs": [
        {
          "internalType": "uint256",
          "name": "",
          "type": "uint256"
        }
      ],
      "stateMutability": "view",
      "type": "function"
    },
    {
      "inputs": [],
      "name": "isSignedResult",
      "outputs": [
        {
          "internalType": "bool",
          "name": "",
          "type": "bool"
        }
      ],
      "stateMutability": "view",
      "type": "function"
    },
    {
      "inputs": [],
      "name": "jobId",
      "outputs": [
        {
          "internalType": "bytes32",
          "name": "",
          "type": "bytes32"
        }
      ],
      "stateMutability": "view",
      "type": "function"
    },
    {
      "inputs": [],
      "name": "oracleAddress",
      "outputs": [
        {
          "internalType": "address",
          "name": "",
          "type": "address"
        }
      ],
      "stateMutability": "view",
      "type": "function"
    },
    {
      "inputs": [],
      "name": "owner",
      "outputs": [
        {
          "internalType": "address",
          "name": "",
          "type": "address"
        }
      ],
      "stateMutability": "view",
      "type": "function"
    },
    {
      "inputs": [],
      "name": "renounceOwnership",
      "outputs": [],
      "stateMutability": "nonpayable",
      "type": "function"
    },
    {
      "inputs": [
        {
          "internalType": "string",
          "name": "apiURLParameters",
          "type": "string"
        }
      ],
      "name": "requestIndexPrice",
      "outputs": [
        {
          "internalType": "bytes32",
          "name": "requestId",
          "type": "bytes32"
        }
      ],
      "stateMutability": "nonpayable",
      "type": "function"
    },
    {
      "inputs": [
        {
          "internalType": "address",
          "name": "newOwner",
          "type": "address"
        }
      ],
      "name": "transferOwnership",
      "outputs": [],
      "stateMutability": "nonpayable",
      "type": "function"
    },
    {
      "inputs": [],
      "name": "withdrawLink",
      "outputs": [],
      "stateMutability": "nonpayable",
      "type": "function"
    },
    {
      "stateMutability": "payable",
      "type": "receive"
    },
    {
      "inputs": [
        {
          "internalType": "int256",
          "name": "contractDurationInSeconds",
          "type": "int256"
        }
      ],
      "name": "updateAPIPath",
      "outputs": [],
      "stateMutability": "nonpayable",
      "type": "function"
    }
  ],
  "bytecode": "0x6001600455600f80546001600160a01b03199081167356dd6586db0d08c6ce7b2f2805af28616e0824551782556010805490911673a36085f69e2889c224210f603d836748e7dc008817905567016345785d8a00006011557f3236343966633463613833633430313662666432643135373635353932626565601255606460135560c060405260808190526e3230ba30b9b2ba173230ba3097181760891b60a0908152620000b19160149190620002dc565b50348015620000bf57600080fd5b506013546040518060800160405280604f815260200162001fff604f9139604080516020810190915260008152601254600f546010546011548692869286926001926001600160a01b03908116928892911690878787876200012133620001d3565b6001600160a01b03861662000140576200013a62000225565b6200014b565b6200014b86620002ba565b600980546001600160a01b0319166001600160a01b038a16179055600a879055600e859055600d84905582516200018a90600c906020860190620002dc565b508151620001a090600b906020850190620002dc565b5060068054911515600160a01b0260ff60a01b1990921691909117905550620003f19d5050505050505050505050505050565b600680546001600160a01b038381166001600160a01b0319831681179093556040519116919082907f8be0079c531659141344cd1fd0a4f28419497f9722a3daafe3b4186f6b6457e090600090a35050565b620002b873c89bd4e1632d3a43cb03aaad5262cbe4038bc5716001600160a01b03166338cc48316040518163ffffffff1660e01b815260040160206040518083038186803b1580156200027757600080fd5b505afa1580156200028c573d6000803e3d6000fd5b505050506040513d601f19601f82011682018060405250810190620002b2919062000382565b620002ba565b565b600280546001600160a01b0319166001600160a01b0392909216919091179055565b828054620002ea90620003b4565b90600052602060002090601f0160209004810192826200030e576000855562000359565b82601f106200032957805160ff191683800117855562000359565b8280016001018555821562000359579182015b82811115620003595782518255916020019190600101906200033c565b50620003679291506200036b565b5090565b5b808211156200036757600081556001016200036c565b6000602082840312156200039557600080fd5b81516001600160a01b0381168114620003ad57600080fd5b9392505050565b600181811c90821680620003c957607f821691505b60208210811415620003eb57634e487b7160e01b600052602260045260246000fd5b50919050565b611bfe80620004016000396000f3fe6080604052600436106101065760003560e01c8063185defc6146101485780631d5cd0091461017e578063313ce567146101a05780634665e65a146101c457806351744bca146101da57806369723be7146101fa5780636fb7cb571461021a578063715018a61461023a5780637e0b66d01461024f5780638da5cb5b1461026f5780638dc654a214610284578063918c00b9146102995780639df49c23146102ca578063a89ae4ba146102df578063afb0a7d7146102ff578063bd2563fb1461031f578063c068e8b114610334578063c2939d9714610349578063c5b37c221461035f578063d233da0814610375578063ddca3f431461038b578063f2fde38b146103a157005b36610146577f88a5966d370b9919b20f3e2c13ff65706f196a4e32cc2c12bf57088f88525874333460405161013c929190611768565b60405180910390a1005b005b34801561015457600080fd5b50601054610168906001600160a01b031681565b6040516101759190611754565b60405180910390f35b34801561018a57600080fd5b506101936103c1565b6040516101759190611810565b3480156101ac57600080fd5b506101b6600d5481565b604051908152602001610175565b3480156101d057600080fd5b506101b660125481565b3480156101e657600080fd5b506101466101f53660046115f5565b6103dd565b34801561020657600080fd5b506101b6610215366004611630565b61047b565b34801561022657600080fd5b50600f54610168906001600160a01b031681565b34801561024657600080fd5b506101466106e2565b34801561025b57600080fd5b5061014661026a3660046115f5565b61071d565b34801561027b57600080fd5b506101686107a9565b34801561029057600080fd5b506101466107b8565b3480156102a557600080fd5b506006546102ba90600160a01b900460ff1681565b6040519015158152602001610175565b3480156102d657600080fd5b506007546101b6565b3480156102eb57600080fd5b50600954610168906001600160a01b031681565b34801561030b57600080fd5b5061014661031a366004611617565b61097c565b34801561032b57600080fd5b506008546101b6565b34801561034057600080fd5b50610193610a23565b34801561035557600080fd5b506101b6600a5481565b34801561036b57600080fd5b506101b660115481565b34801561038157600080fd5b506101b660135481565b34801561039757600080fd5b506101b6600e5481565b3480156103ad57600080fd5b506101466103bc3660046115aa565b610ab1565b6040518060800160405280604f8152602001611b3a604f913981565b60008281526005602052604090205482906001600160a01b0316331461041e5760405162461bcd60e51b815260040161041590611858565b60405180910390fd5b60008181526005602052604080822080546001600160a01b0319169055518291600080516020611ba983398151915291a26008829055604051838152600080516020611b89833981519152906020015b60405180910390a1505050565b60006104856114c2565b600654600160a01b900460ff16156104b357600a546104ac90306328ba25e560e11b610b4e565b90506104cb565b600a546104c890306307e0b66d60e41b610b4e565b90505b6105866040518060400160405280600381526020016219d95d60ea1b81525061057e600c80546104fa90611a7d565b80601f016020809104026020016040519081016040528092919081815260200182805461052690611a7d565b80156105735780601f1061054857610100808354040283529160200191610573565b820191906000526020600020905b81548152906001019060200180831161055657829003601f168201915b505050505086610b73565b839190610ba0565b610641604051806040016040528060048152602001630e0c2e8d60e31b815250600b80546105b390611a7d565b80601f01602080910402602001604051908101604052809291908181526020018280546105df90611a7d565b801561062c5780601f106106015761010080835404028352916020019161062c565b820191906000526020600020905b81548152906001019060200180831161060f57829003601f168201915b505050505083610ba09092919063ffffffff16565b60408051808201909152600581526474696d657360d81b6020820152600d5461066b918391610bc3565b600954600e54610686916001600160a01b0316908390610be1565b600954600a54600e54604080516001600160a01b0390941684526020840192909252908201529092507f5de0ca4d601c6369aafe37da9bab92be9804895234cdb72d8181492e84e6bcb29060600160405180910390a150919050565b336106eb6107a9565b6001600160a01b0316146107115760405162461bcd60e51b815260040161041590611823565b61071b6000610c00565b565b60008281526005602052604090205482906001600160a01b031633146107555760405162461bcd60e51b815260040161041590611858565b60008181526005602052604080822080546001600160a01b0319169055518291600080516020611ba983398151915291a26007829055604051838152600080516020611b898339815191529060200161046e565b6006546001600160a01b031690565b336107c16107a9565b6001600160a01b0316146107e75760405162461bcd60e51b815260040161041590611823565b60006107fb6002546001600160a01b031690565b90506000816001600160a01b03166370a08231306040518263ffffffff1660e01b815260040161082b9190611754565b60206040518083038186803b15801561084357600080fd5b505afa158015610857573d6000803e3d6000fd5b505050506040513d601f19601f8201168201806040525081019061087b91906116e0565b60405163a9059cbb60e01b81529091506001600160a01b0383169063a9059cbb906108ac9033908590600401611768565b602060405180830381600087803b1580156108c657600080fd5b505af11580156108da573d6000803e3d6000fd5b505050506040513d601f19601f820116820180604052508101906108fe91906115d3565b61093f5760405162461bcd60e51b8152602060048201526012602482015271556e61626c6520746f20776974686472617760701b6044820152606401610415565b7fcb1436249a1dd8cf93362c28d79a4e20dc54398b6c49e30316e8396e72a584b03382604051610970929190611768565b60405180910390a15050565b610a20610a1b6014805461098f90611a7d565b80601f01602080910402602001604051908101604052809291908181526020018280546109bb90611a7d565b8015610a085780601f106109dd57610100808354040283529160200191610a08565b820191906000526020600020905b8154815290600101906020018083116109eb57829003601f168201915b5050505050610a1684610c52565b610cd5565b610cf2565b50565b60148054610a3090611a7d565b80601f0160208091040260200160405190810160405280929190818152602001828054610a5c90611a7d565b8015610aa95780601f10610a7e57610100808354040283529160200191610aa9565b820191906000526020600020905b815481529060010190602001808311610a8c57829003601f168201915b505050505081565b33610aba6107a9565b6001600160a01b031614610ae05760405162461bcd60e51b815260040161041590611823565b6001600160a01b038116610b455760405162461bcd60e51b815260206004820152602660248201527f4f776e61626c653a206e6577206f776e657220697320746865207a65726f206160448201526564647265737360d01b6064820152608401610415565b610a2081610c00565b610b566114c2565b610b5e6114c2565b610b6a81868686610d09565b95945050505050565b60608282604051602001610b88929190611725565b60405160208183030381529060405290505b92915050565b6080830151610baf9083610d46565b6080830151610bbe9082610d46565b505050565b6080830151610bd29083610d46565b6080830151610bbe9082610d5d565b6000610bf884848460016320214ca360e11b610dbb565b949350505050565b600680546001600160a01b038381166001600160a01b0319831681179093556040519116919082907f8be0079c531659141344cd1fd0a4f28419497f9722a3daafe3b4186f6b6457e090600090a35050565b600062375f008213610c6657506001919050565b8162375f00128015610c7b5750625c49008213155b15610c8857506002919050565b81625c4900128015610c9d575062af57808213155b15610caa57506003919050565b8162af5780128015610cc05750630167e9808213155b15610ccd57506004919050565b506005919050565b606082610ce183610fc2565b604051602001610b88929190611725565b8051610d0590600b9060208401906114f7565b5050565b610d116114c2565b610d2185608001516101006110ea565b50509183526001600160a01b031660208301526001600160e01b031916604082015290565b610d538260038351611142565b610bbe8282611215565b6001600160401b0319811215610d7757610d058282611236565b6001600160401b03811315610d9057610d058282611278565b60008112610da457610d0582600083611142565b610d05826001610db6846000196119fb565b611142565b6004546040516001600160601b03193060601b166020820152603481019190915260009060540160408051808303601f19018152918152815160209283012060045460608901526000818152600590935281832080546001600160a01b0319166001600160a01b038b16179055905190925082917fb5e6e01e79f91267dc17b4e6314d5d4d03593d2ceee0fbb452b750bd70ea5af991a2600082600080886000015189602001518a604001518b606001518a8d6080015160000151604051602401610e8d989796959493929190611781565b60408051601f198184030181529181526020820180516001600160e01b03166001600160e01b0319909416939093179092526002549151630200057560e51b81529092506001600160a01b0390911690634000aea090610ef5908a90899086906004016117e9565b602060405180830381600087803b158015610f0f57600080fd5b505af1158015610f23573d6000803e3d6000fd5b505050506040513d601f19601f82011682018060405250810190610f4791906115d3565b610f9f5760405162461bcd60e51b815260206004820152602360248201527f756e61626c6520746f207472616e73666572416e6443616c6c20746f206f7261604482015262636c6560e81b6064820152608401610415565b600160046000828254610fb291906118a0565b9091555091979650505050505050565b606081610fe65750506040805180820190915260018152600360fc1b602082015290565b8160005b81156110105780610ffa81611ab2565b91506110099050600a836118dd565b9150610fea565b6000816001600160401b0381111561102a5761102a611b23565b6040519080825280601f01601f191660200182016040528015611054576020820181803683370190505b509050815b85156110e15761106a600182611a3a565b90506000611079600a886118dd565b61108490600a6119dc565b61108e9088611a3a565b6110999060306118b8565b905060008160f81b9050808484815181106110b6576110b6611b0d565b60200101906001600160f81b031916908160001a9053506110d8600a896118dd565b97505050611059565b50949350505050565b6110f261157b565b6110fd602083611acd565b156111255761110d602083611acd565b611118906020611a3a565b61112290836118a0565b91505b506020828101829052604080518085526000815290920101905290565b601781116111635761115d8360e0600585901b16831761129b565b50505050565b60ff811161118d57611180836018611fe0600586901b161761129b565b5061115d838260016112b3565b61ffff81116111b8576111ab836019611fe0600586901b161761129b565b5061115d838260026112b3565b63ffffffff81116111e5576111d883601a611fe0600586901b161761129b565b5061115d838260046112b3565b6001600160401b038111610bbe5761120883601b611fe0600586901b161761129b565b5061115d838260086112b3565b61121d61157b565b61122f838460000151518485516112cc565b9392505050565b6112418260c361129b565b50610d0582611252836000196119fb565b60405160200161126491815260200190565b6040516020818303038152906040526113c4565b6112838260c261129b565b50610d05828260405160200161126491815260200190565b6112a361157b565b61122f83846000015151846113d1565b6112bb61157b565b610bf8848560000151518585611420565b6112d461157b565b82518211156112e257600080fd5b60208501516112f183866118a0565b111561132457611324856113148760200151878661130f91906118a0565b611494565b61131f9060026119dc565b6114ab565b6000808651805187602083010193508088870111156113435787860182525b505050602084015b6020841061138357805182526113626020836118a0565b915061136f6020826118a0565b905061137c602085611a3a565b935061134b565b60006001611392866020611a3a565b61139e90610100611934565b6113a89190611a3a565b9151835183169219169190911790915250849050949350505050565b610d538260028351611142565b6113d961157b565b836020015183106113f9576113f9848560200151600261131f91906119dc565b835180516020858301018481535080851415611416576001810182525b5093949350505050565b61142861157b565b602085015161143785846118a0565b111561144b5761144b8561131486856118a0565b6000600161145b84610100611934565b6114659190611a3a565b90508551838682010185831982511617815250805184870111156114895783860181525b509495945050505050565b6000818311156114a5575081610b9a565b50919050565b81516114b783836110ea565b5061115d8382611215565b6040805160a0810182526000808252602082018190529181018290526060810191909152608081016114f261157b565b905290565b82805461150390611a7d565b90600052602060002090601f016020900481019282611525576000855561156b565b82601f1061153e57805160ff191683800117855561156b565b8280016001018555821561156b579182015b8281111561156b578251825591602001919060010190611550565b50611577929150611595565b5090565b604051806040016040528060608152602001600081525090565b5b808211156115775760008155600101611596565b6000602082840312156115bc57600080fd5b81356001600160a01b038116811461122f57600080fd5b6000602082840312156115e557600080fd5b8151801515811461122f57600080fd5b6000806040838503121561160857600080fd5b50508035926020909101359150565b60006020828403121561162957600080fd5b5035919050565b60006020828403121561164257600080fd5b81356001600160401b038082111561165957600080fd5b818401915084601f83011261166d57600080fd5b81358181111561167f5761167f611b23565b604051601f8201601f19908116603f011681019083821181831017156116a7576116a7611b23565b816040528281528760208487010111156116c057600080fd5b826020860160208301376000928101602001929092525095945050505050565b6000602082840312156116f257600080fd5b5051919050565b60008151808452611711816020860160208601611a51565b601f01601f19169290920160200192915050565b60008351611737818460208801611a51565b83519083019061174b818360208801611a51565b01949350505050565b6001600160a01b0391909116815260200190565b6001600160a01b03929092168252602082015260400190565b6001600160a01b0389811682526020820189905260408201889052861660608201526001600160e01b03198516608082015260a0810184905260c0810183905261010060e082018190526000906117da838201856116f9565b9b9a5050505050505050505050565b60018060a01b0384168152826020820152606060408201526000610b6a60608301846116f9565b60208152600061122f60208301846116f9565b6020808252818101527f4f776e61626c653a2063616c6c6572206973206e6f7420746865206f776e6572604082015260600190565b60208082526028908201527f536f75726365206d75737420626520746865206f7261636c65206f6620746865604082015267081c995c5d595cdd60c21b606082015260800190565b600082198211156118b3576118b3611ae1565b500190565b600060ff821660ff84168060ff038211156118d5576118d5611ae1565b019392505050565b6000826118ec576118ec611af7565b500490565b600181815b8085111561192c57816000190482111561191257611912611ae1565b8085161561191f57918102915b93841c93908002906118f6565b509250929050565b600061122f838360008261194a57506001610b9a565b8161195757506000610b9a565b816001811461196d576002811461197757611993565b6001915050610b9a565b60ff84111561198857611988611ae1565b50506001821b610b9a565b5060208310610133831016604e8410600b84101617156119b6575081810a610b9a565b6119c083836118f1565b80600019048211156119d4576119d4611ae1565b029392505050565b60008160001904831182151516156119f6576119f6611ae1565b500290565b60008083128015600160ff1b850184121615611a1957611a19611ae1565b6001600160ff1b0384018313811615611a3457611a34611ae1565b50500390565b600082821015611a4c57611a4c611ae1565b500390565b60005b83811015611a6c578181015183820152602001611a54565b8381111561115d5750506000910152565b600181811c90821680611a9157607f821691505b602082108114156114a557634e487b7160e01b600052602260045260246000fd5b6000600019821415611ac657611ac6611ae1565b5060010190565b600082611adc57611adc611af7565b500690565b634e487b7160e01b600052601160045260246000fd5b634e487b7160e01b600052601260045260246000fd5b634e487b7160e01b600052603260045260246000fd5b634e487b7160e01b600052604160045260246000fdfe68747470733a2f2f7777772e7175616e646c2e636f6d2f6170692f76332f64617461736574732f555354524541535552592f42494c4c52415445532e6a736f6e3f6170695f6b65793d4d595f4b45596930ee93026433301a14b1baa0b52ca0d4640cb1edaa703beeb9056e235269847cc135e0cebb02c3480ae5d74d377283180a2601f8f644edf7987b009316c63aa264697066735822122002e2534b21eccee032892d16e8f397088777448ca8b3b690d69336cae6899c0864736f6c6343000807003368747470733a2f2f7777772e7175616e646c2e636f6d2f6170692f76332f64617461736574732f555354524541535552592f42494c4c52415445532e6a736f6e3f6170695f6b65793d4d595f4b4559",
  "immutableReferences": {},
  "source": "// SPDX-License-Identifier: UNLICENSED\r\n\r\npragma solidity ^0.8.6;\r\n\r\nimport \"./LinkPoolIntOracle.sol\";\r\n\r\n/* Using https://www.quandl.com/data/USTREASURY/BILLRATES-Treasury-Bill-Rates\r\n * Risk free rate is usually considered to be equal to interest paid on 3-month T-bill\r\n * Techincally the risk free rate returned should also depend on the forward contract's \r\n * time period.\r\n * Calculating the risk free rate: \r\n * https://www.orionstartups.com/research/how-to-calculate-the-risk-free-rate\r\n * WATCH OUT: rate can be negative!!!\r\n * Put API key in .env file\r\n *\r\n * have start_date be an adjustable parameter:\r\n * depending on the current date and the expiration date the risk free rate can be \r\n * determined from T-bills with various maturity trenches.\r\n * We expect standard forward contracts to be up to twelve month. (anything beyond that would be a long-dated forward)\r\n * In the quandl API here is how to get various maturity tranches according data[n] array index:\r\n * \"column_names\":[\r\n\t\t\"Date\",\r\n\t\t\"4 Wk Bank Discount Rate\", (index 1)\r\n\t\t\"4 Wk Coupon Equiv\",\r\n\t\t\"8 Wk Bank Discount Rate\", (index 3)\r\n\t\t\"8 Wk Coupon Equiv\",\r\n\t\t\"13 Wk Bank Discount Rate\", (index 5)\r\n\t\t\"13 Wk Coupon Equiv\",\r\n\t\t\"26 Wk Bank Discount Rate\", (index 7)\r\n\t\t\"26 Wk Coupon Equiv\",\r\n\t\t\"52 Wk Bank Discount Rate\", (index 9)\r\n\t\t\"52 Wk Coupon Equiv\"],\r\n * - for 0-6weeks expiration we'll use 4Wk rate\r\n * - for 7-10weeks use 8Wk rate\r\n * - for 11-19weeks use 13Wk rate\r\n * - for 20-39weeks use 26Wk rate\r\n * - for 40+ weeks use 52Wk rate\r\n *\r\n * Watch out for decimals for risk free rates!! Data is given as percentage\r\n * Decimal convention for risk free rate: 1.23 => 1.23 % => scale by 1:100 => 123\r\n */\r\n\r\ncontract USDRFROracle is LinkPoolIntOracle {\r\n    int public _decimals_ = 10 ** 2;\r\n    //need to add API key to base URL\r\n    //start date will be a api URL parameter\r\n    string public constant _apiBaseURL_ = \"https://www.quandl.com/api/v3/datasets/USTREASURY/BILLRATES.json?api_key=MY_KEY\";\r\n    //use 0 index for data array since we always want the most recent value\r\n    string public  _apiPathBase_ = \"dataset.data.0.\";//correct thsi (it is not correct syntax and also it's fixed 4 Wk rate)\r\n\r\n    constructor(\r\n    ) LinkPoolIntOracle(\r\n        _decimals_,\r\n        _apiBaseURL_,\r\n        \"\"\r\n    ) {}\r\n\r\n    function calcMaturityTranchIndex(int contractDurationInSeconds) internal pure returns(uint) {\r\n        if (contractDurationInSeconds <= 3628800) {// <=4 weeks\r\n            return 1;\r\n         } else if ((3628800 < contractDurationInSeconds) && (contractDurationInSeconds <= 6048000)) {\r\n            return 2;\r\n         } else if ((6048000 < contractDurationInSeconds) && (contractDurationInSeconds <= 11491200)) {\r\n            return 3;\r\n         } else if ((11491200 < contractDurationInSeconds) && (contractDurationInSeconds <= 23587200)) {\r\n            return 4;\r\n         } else {\r\n            return 5;\r\n         }\r\n    }\r\n\r\n    function updateAPIPath(int contractDurationInSeconds)  external {\r\n         setAPIPath(concetanateStringUint(_apiPathBase_, calcMaturityTranchIndex(contractDurationInSeconds))); \r\n    }\r\n\r\n    function concetanateStringUint(string memory a, uint b) internal pure returns (string memory){\r\n        return string(abi.encodePacked(a, uint2str(b)));\r\n    }\r\n\r\n    //parse uint to string\r\n    function uint2str(uint _i) internal pure returns (string memory _uintAsString) {\r\n        if (_i == 0) {\r\n            return \"0\";\r\n        }\r\n        uint j = _i;\r\n        uint len;\r\n        while (j != 0) {\r\n            len++;\r\n            j /= 10;\r\n        }\r\n        bytes memory bstr = new bytes(len);\r\n        uint k = len;\r\n        while (_i != 0) {\r\n            k = k-1;\r\n            uint8 temp = (48 + uint8(_i - _i / 10 * 10));\r\n            bytes1 b1 = bytes1(temp);\r\n            bstr[k] = b1;\r\n            _i /= 10;\r\n        }\r\n        return string(bstr);\r\n    }\r\n}",
  "sourcePath": "C:\\Users\\Tomi\\OneDrive - The University of Chicago\\Documents\\Securrency\\FuturesExchange\\contracts\\Oracles\\LinkPoolOracles\\USDRFROracle.sol",
  "compiler": {
    "name": "solc",
    "version": "0.8.7+commit.e28d00a7.Emscripten.clang"
  },
  "schemaVersion": "3.4.2",
  "updatedAt": "2021-09-16T13:58:13.309Z",
  "devdoc": {
    "kind": "dev",
    "methods": {
      "owner()": {
        "details": "Returns the address of the current owner."
      },
      "renounceOwnership()": {
        "details": "Leaves the contract without owner. It will not be possible to call `onlyOwner` functions anymore. Can only be called by the current owner. NOTE: Renouncing ownership will leave the contract without an owner, thereby removing any functionality that is only available to the owner."
      },
      "transferOwnership(address)": {
        "details": "Transfers ownership of the contract to a new account (`newOwner`). Can only be called by the current owner."
      }
    },
    "version": 1
  },
  "userdoc": {
    "kind": "user",
    "methods": {},
    "version": 1
  }
}