{
  "contractName": "ValuationOracle",
  "abi": [
    {
      "inputs": [
        {
          "internalType": "address",
          "name": "oracleAddress",
          "type": "address"
        },
        {
          "internalType": "bytes32",
          "name": "jobId",
          "type": "bytes32"
        },
        {
          "internalType": "address",
          "name": "linkAddress",
          "type": "address"
        },
        {
          "internalType": "uint256",
          "name": "fee",
          "type": "uint256"
        },
        {
          "internalType": "uint256",
          "name": "underlyingPrice",
          "type": "uint256"
        },
        {
          "internalType": "uint8",
          "name": "annualRiskFreeRate",
          "type": "uint8"
        },
        {
          "internalType": "uint256",
          "name": "valuationDate",
          "type": "uint256"
        },
        {
          "internalType": "uint256",
          "name": "expirationDate",
          "type": "uint256"
        }
      ],
      "stateMutability": "nonpayable",
      "type": "constructor"
    },
    {
      "anonymous": false,
      "inputs": [
        {
          "indexed": true,
          "internalType": "bytes32",
          "name": "id",
          "type": "bytes32"
        }
      ],
      "name": "ChainlinkCancelled",
      "type": "event"
    },
    {
      "anonymous": false,
      "inputs": [
        {
          "indexed": true,
          "internalType": "bytes32",
          "name": "id",
          "type": "bytes32"
        }
      ],
      "name": "ChainlinkFulfilled",
      "type": "event"
    },
    {
      "anonymous": false,
      "inputs": [
        {
          "indexed": true,
          "internalType": "bytes32",
          "name": "id",
          "type": "bytes32"
        }
      ],
      "name": "ChainlinkRequested",
      "type": "event"
    },
    {
      "anonymous": false,
      "inputs": [
        {
          "indexed": false,
          "internalType": "bytes32",
          "name": "requestId",
          "type": "bytes32"
        }
      ],
      "name": "Fulfilled",
      "type": "event"
    },
    {
      "anonymous": false,
      "inputs": [
        {
          "indexed": false,
          "internalType": "address",
          "name": "withdrawer",
          "type": "address"
        },
        {
          "indexed": false,
          "internalType": "uint256",
          "name": "amount",
          "type": "uint256"
        }
      ],
      "name": "LinkWithdrawn",
      "type": "event"
    },
    {
      "anonymous": false,
      "inputs": [
        {
          "indexed": true,
          "internalType": "address",
          "name": "previousOwner",
          "type": "address"
        },
        {
          "indexed": true,
          "internalType": "address",
          "name": "newOwner",
          "type": "address"
        }
      ],
      "name": "OwnershipTransferred",
      "type": "event"
    },
    {
      "anonymous": false,
      "inputs": [
        {
          "indexed": false,
          "internalType": "address",
          "name": "sender",
          "type": "address"
        },
        {
          "indexed": false,
          "internalType": "uint256",
          "name": "amount",
          "type": "uint256"
        }
      ],
      "name": "Received",
      "type": "event"
    },
    {
      "anonymous": false,
      "inputs": [
        {
          "indexed": false,
          "internalType": "address",
          "name": "oracleAddress",
          "type": "address"
        },
        {
          "indexed": false,
          "internalType": "bytes32",
          "name": "jobId",
          "type": "bytes32"
        },
        {
          "indexed": false,
          "internalType": "uint256",
          "name": "fee",
          "type": "uint256"
        }
      ],
      "name": "RequestSent",
      "type": "event"
    },
    {
      "stateMutability": "payable",
      "type": "fallback"
    },
    {
      "inputs": [],
      "name": "apiPath",
      "outputs": [
        {
          "internalType": "string",
          "name": "",
          "type": "string"
        }
      ],
      "stateMutability": "view",
      "type": "function"
    },
    {
      "inputs": [],
      "name": "decimals",
      "outputs": [
        {
          "internalType": "int8",
          "name": "",
          "type": "int8"
        }
      ],
      "stateMutability": "view",
      "type": "function"
    },
    {
      "inputs": [],
      "name": "fee",
      "outputs": [
        {
          "internalType": "uint256",
          "name": "",
          "type": "uint256"
        }
      ],
      "stateMutability": "view",
      "type": "function"
    },
    {
      "inputs": [
        {
          "internalType": "bytes32",
          "name": "_requestId",
          "type": "bytes32"
        },
        {
          "internalType": "uint256",
          "name": "_result",
          "type": "uint256"
        }
      ],
      "name": "fulfill",
      "outputs": [],
      "stateMutability": "nonpayable",
      "type": "function"
    },
    {
      "inputs": [],
      "name": "getResult",
      "outputs": [
        {
          "internalType": "uint256",
          "name": "",
          "type": "uint256"
        }
      ],
      "stateMutability": "view",
      "type": "function"
    },
    {
      "inputs": [],
      "name": "jobId",
      "outputs": [
        {
          "internalType": "bytes32",
          "name": "",
          "type": "bytes32"
        }
      ],
      "stateMutability": "view",
      "type": "function"
    },
    {
      "inputs": [],
      "name": "linkAddress",
      "outputs": [
        {
          "internalType": "address",
          "name": "",
          "type": "address"
        }
      ],
      "stateMutability": "view",
      "type": "function"
    },
    {
      "inputs": [],
      "name": "oracleAddress",
      "outputs": [
        {
          "internalType": "address",
          "name": "",
          "type": "address"
        }
      ],
      "stateMutability": "view",
      "type": "function"
    },
    {
      "inputs": [],
      "name": "owner",
      "outputs": [
        {
          "internalType": "address",
          "name": "",
          "type": "address"
        }
      ],
      "stateMutability": "view",
      "type": "function"
    },
    {
      "inputs": [],
      "name": "renounceOwnership",
      "outputs": [],
      "stateMutability": "nonpayable",
      "type": "function"
    },
    {
      "inputs": [],
      "name": "requestIndexPrice",
      "outputs": [
        {
          "internalType": "bytes32",
          "name": "requestId",
          "type": "bytes32"
        }
      ],
      "stateMutability": "nonpayable",
      "type": "function"
    },
    {
      "inputs": [
        {
          "internalType": "address",
          "name": "newOwner",
          "type": "address"
        }
      ],
      "name": "transferOwnership",
      "outputs": [],
      "stateMutability": "nonpayable",
      "type": "function"
    },
    {
      "inputs": [],
      "name": "urlParameters",
      "outputs": [
        {
          "internalType": "string",
          "name": "",
          "type": "string"
        }
      ],
      "stateMutability": "view",
      "type": "function"
    },
    {
      "inputs": [],
      "name": "withdrawLink",
      "outputs": [],
      "stateMutability": "nonpayable",
      "type": "function"
    },
    {
      "stateMutability": "payable",
      "type": "receive"
    }
  ],
  "bytecode": "0x608060405260016004553480156200001657600080fd5b5060405162002f7438038062002f7483398181016040528101906200003c9190620005b5565b8787620000af60405180606001604052806028815260200162002f4c602891396200006d88620001fe60201b60201c565b620000818860ff16620001fe60201b60201c565b6200009288620001fe60201b60201c565b620000a388620001fe60201b60201c565b620003a460201b60201c565b6040518060400160405280600581526020017f70726963650000000000000000000000000000000000000000000000000000008152508989606462000109620000fd620003db60201b60201c565b620003e360201b60201c565b86600860006101000a81548173ffffffffffffffffffffffffffffffffffffffff021916908373ffffffffffffffffffffffffffffffffffffffff1602179055508560098190555084600a908051906020019062000169929190620004a9565b5083600b908051906020019062000182929190620004a9565b5082600c60006101000a81548173ffffffffffffffffffffffffffffffffffffffff021916908373ffffffffffffffffffffffffffffffffffffffff16021790555081600d8190555080600c60146101000a81548160ff021916908360000b60ff16021790555050505050505050505050505050505062000b1d565b6060600082141562000248576040518060400160405280600181526020017f300000000000000000000000000000000000000000000000000000000000000081525090506200039f565b600082905060005b600082146200028057808062000266906200094e565b915050600a82620002789190620007b9565b915062000250565b60008167ffffffffffffffff8111156200029f576200029e62000a58565b5b6040519080825280601f01601f191660200182016040528015620002d25781602001600182028036833780820191505090505b50905060008290505b600086146200039757600181620002f3919062000852565b90506000600a8088620003079190620007b9565b620003139190620007f1565b8762000320919062000852565b60306200032e91906200077b565b905060008160f81b9050808484815181106200034f576200034e62000a29565b5b60200101907effffffffffffffffffffffffffffffffffffffffffffffffffffffffffffff1916908160001a905350600a886200038d9190620007b9565b97505050620002db565b819450505050505b919050565b60608585858585604051602001620003c1959493929190620006dc565b604051602081830303815290604052905095945050505050565b600033905090565b6000600660009054906101000a900473ffffffffffffffffffffffffffffffffffffffff16905081600660006101000a81548173ffffffffffffffffffffffffffffffffffffffff021916908373ffffffffffffffffffffffffffffffffffffffff1602179055508173ffffffffffffffffffffffffffffffffffffffff168173ffffffffffffffffffffffffffffffffffffffff167f8be0079c531659141344cd1fd0a4f28419497f9722a3daafe3b4186f6b6457e060405160405180910390a35050565b828054620004b79062000918565b90600052602060002090601f016020900481019282620004db576000855562000527565b82601f10620004f657805160ff191683800117855562000527565b8280016001018555821562000527579182015b828111156200052657825182559160200191906001019062000509565b5b5090506200053691906200053a565b5090565b5b80821115620005555760008160009055506001016200053b565b5090565b6000815190506200056a8162000ab5565b92915050565b600081519050620005818162000acf565b92915050565b600081519050620005988162000ae9565b92915050565b600081519050620005af8162000b03565b92915050565b600080600080600080600080610100898b031215620005d957620005d862000a87565b5b6000620005e98b828c0162000559565b9850506020620005fc8b828c0162000570565b97505060406200060f8b828c0162000559565b9650506060620006228b828c0162000587565b9550506080620006358b828c0162000587565b94505060a0620006488b828c016200059e565b93505060c06200065b8b828c0162000587565b92505060e06200066e8b828c0162000587565b9150509295985092959890939650565b60006200068b8262000765565b62000697818562000770565b9350620006a9818560208601620008e2565b80840191505092915050565b6000620006c460018362000770565b9150620006d18262000a8c565b600182019050919050565b6000620006ea82886200067e565b9150620006f782620006b5565b91506200070582876200067e565b91506200071282620006b5565b91506200072082866200067e565b91506200072d82620006b5565b91506200073b82856200067e565b91506200074882620006b5565b91506200075682846200067e565b91508190509695505050505050565b600081519050919050565b600081905092915050565b60006200078882620008d5565b91506200079583620008d5565b92508260ff03821115620007ae57620007ad6200099c565b5b828201905092915050565b6000620007c682620008cb565b9150620007d383620008cb565b925082620007e657620007e5620009cb565b5b828204905092915050565b6000620007fe82620008cb565b91506200080b83620008cb565b9250817fffffffffffffffffffffffffffffffffffffffffffffffffffffffffffffffff04831182151516156200084757620008466200099c565b5b828202905092915050565b60006200085f82620008cb565b91506200086c83620008cb565b9250828210156200088257620008816200099c565b5b828203905092915050565b60006200089a82620008ab565b9050919050565b6000819050919050565b600073ffffffffffffffffffffffffffffffffffffffff82169050919050565b6000819050919050565b600060ff82169050919050565b60005b8381101562000902578082015181840152602081019050620008e5565b8381111562000912576000848401525b50505050565b600060028204905060018216806200093157607f821691505b60208210811415620009485762000947620009fa565b5b50919050565b60006200095b82620008cb565b91507fffffffffffffffffffffffffffffffffffffffffffffffffffffffffffffffff8214156200099157620009906200099c565b5b600182019050919050565b7f4e487b7100000000000000000000000000000000000000000000000000000000600052601160045260246000fd5b7f4e487b7100000000000000000000000000000000000000000000000000000000600052601260045260246000fd5b7f4e487b7100000000000000000000000000000000000000000000000000000000600052602260045260246000fd5b7f4e487b7100000000000000000000000000000000000000000000000000000000600052603260045260246000fd5b7f4e487b7100000000000000000000000000000000000000000000000000000000600052604160045260246000fd5b600080fd5b7f2f00000000000000000000000000000000000000000000000000000000000000600082015250565b62000ac0816200088d565b811462000acc57600080fd5b50565b62000ada81620008a1565b811462000ae657600080fd5b50565b62000af481620008cb565b811462000b0057600080fd5b50565b62000b0e81620008d5565b811462000b1a57600080fd5b50565b61241f8062000b2d6000396000f3fe6080604052600436106100e15760003560e01c80638dc654a21161007f578063c2939d9711610059578063c2939d97146102a7578063ddca3f43146102d2578063de292789146102fd578063f2fde38b1461032857610121565b80638dc654a21461023a578063a89ae4ba14610251578063be4624bb1461027c57610121565b80634357855e116100bb5780634357855e146101a45780636dff2c0b146101cd578063715018a6146101f85780638da5cb5b1461020f57610121565b80630f00494a14610123578063235cea981461014e578063313ce5671461017957610121565b36610121577f88a5966d370b9919b20f3e2c13ff65706f196a4e32cc2c12bf57088f885258743334604051610117929190611ae2565b60405180910390a1005b005b34801561012f57600080fd5b50610138610351565b6040516101459190611bce565b60405180910390f35b34801561015a57600080fd5b50610163610604565b6040516101709190611a90565b60405180910390f35b34801561018557600080fd5b5061018e61062a565b60405161019b9190611be9565b60405180910390f35b3480156101b057600080fd5b506101cb60048036038101906101c6919061185d565b61063d565b005b3480156101d957600080fd5b506101e2610785565b6040516101ef9190611c04565b60405180910390f35b34801561020457600080fd5b5061020d6107be565b005b34801561021b57600080fd5b50610224610846565b6040516102319190611a90565b60405180910390f35b34801561024657600080fd5b5061024f610870565b005b34801561025d57600080fd5b50610266610a8e565b6040516102739190611a90565b60405180910390f35b34801561028857600080fd5b50610291610ab4565b60405161029e9190611c04565b60405180910390f35b3480156102b357600080fd5b506102bc610b42565b6040516102c99190611bce565b60405180910390f35b3480156102de57600080fd5b506102e7610b48565b6040516102f49190611cc6565b60405180910390f35b34801561030957600080fd5b50610312610b4e565b60405161031f9190611cc6565b60405180910390f35b34801561033457600080fd5b5061034f600480360381019061034a9190611803565b610b58565b005b60008061036860095430634357855e60e01b610c50565b905061043e6040518060400160405280600381526020017f6765740000000000000000000000000000000000000000000000000000000000815250600a80546103b090612100565b80601f01602080910402602001604051908101604052809291908181526020018280546103dc90612100565b80156104295780601f106103fe57610100808354040283529160200191610429565b820191906000526020600020905b81548152906001019060200180831161040c57829003601f168201915b505050505083610c819092919063ffffffff16565b6105126040518060400160405280600481526020017f7061746800000000000000000000000000000000000000000000000000000000815250600b805461048490612100565b80601f01602080910402602001604051908101604052809291908181526020018280546104b090612100565b80156104fd5780601f106104d2576101008083540402835291602001916104fd565b820191906000526020600020905b8154815290600101906020018083116104e057829003601f168201915b505050505083610c819092919063ffffffff16565b61056e6040518060400160405280600581526020017f74696d6573000000000000000000000000000000000000000000000000000000815250600c60149054906101000a900460000b60000b83610cb49092919063ffffffff16565b61059d600860009054906101000a900473ffffffffffffffffffffffffffffffffffffffff1682600d54610ce7565b91507f5de0ca4d601c6369aafe37da9bab92be9804895234cdb72d8181492e84e6bcb2600860009054906101000a900473ffffffffffffffffffffffffffffffffffffffff16600954600d546040516105f893929190611aab565b60405180910390a15090565b600c60009054906101000a900473ffffffffffffffffffffffffffffffffffffffff1681565b600c60149054906101000a900460000b81565b816005600082815260200190815260200160002060009054906101000a900473ffffffffffffffffffffffffffffffffffffffff1673ffffffffffffffffffffffffffffffffffffffff163373ffffffffffffffffffffffffffffffffffffffff16146106df576040517f08c379a00000000000000000000000000000000000000000000000000000000081526004016106d690611c86565b60405180910390fd5b6005600082815260200190815260200160002060006101000a81549073ffffffffffffffffffffffffffffffffffffffff0219169055807f7cc135e0cebb02c3480ae5d74d377283180a2601f8f644edf7987b009316c63a60405160405180910390a2816007819055507f6930ee93026433301a14b1baa0b52ca0d4640cb1edaa703beeb9056e23526984836040516107789190611bce565b60405180910390a1505050565b6040518060400160405280600581526020017f707269636500000000000000000000000000000000000000000000000000000081525081565b6107c6610d07565b73ffffffffffffffffffffffffffffffffffffffff166107e4610846565b73ffffffffffffffffffffffffffffffffffffffff161461083a576040517f08c379a000000000000000000000000000000000000000000000000000000000815260040161083190611c66565b60405180910390fd5b6108446000610d0f565b565b6000600660009054906101000a900473ffffffffffffffffffffffffffffffffffffffff16905090565b610878610d07565b73ffffffffffffffffffffffffffffffffffffffff16610896610846565b73ffffffffffffffffffffffffffffffffffffffff16146108ec576040517f08c379a00000000000000000000000000000000000000000000000000000000081526004016108e390611c66565b60405180910390fd5b60006108f6610dd5565b905060008173ffffffffffffffffffffffffffffffffffffffff166370a08231306040518263ffffffff1660e01b81526004016109339190611a90565b60206040518083038186803b15801561094b57600080fd5b505afa15801561095f573d6000803e3d6000fd5b505050506040513d601f19601f82011682018060405250810190610983919061189d565b90508173ffffffffffffffffffffffffffffffffffffffff1663a9059cbb33836040518363ffffffff1660e01b81526004016109c0929190611ae2565b602060405180830381600087803b1580156109da57600080fd5b505af11580156109ee573d6000803e3d6000fd5b505050506040513d601f19601f82011682018060405250810190610a129190611830565b610a51576040517f08c379a0000000000000000000000000000000000000000000000000000000008152600401610a4890611ca6565b60405180910390fd5b7fcb1436249a1dd8cf93362c28d79a4e20dc54398b6c49e30316e8396e72a584b03382604051610a82929190611ae2565b60405180910390a15050565b600860009054906101000a900473ffffffffffffffffffffffffffffffffffffffff1681565b600e8054610ac190612100565b80601f0160208091040260200160405190810160405280929190818152602001828054610aed90612100565b8015610b3a5780601f10610b0f57610100808354040283529160200191610b3a565b820191906000526020600020905b815481529060010190602001808311610b1d57829003601f168201915b505050505081565b60095481565b600d5481565b6000600754905090565b610b60610d07565b73ffffffffffffffffffffffffffffffffffffffff16610b7e610846565b73ffffffffffffffffffffffffffffffffffffffff1614610bd4576040517f08c379a0000000000000000000000000000000000000000000000000000000008152600401610bcb90611c66565b60405180910390fd5b600073ffffffffffffffffffffffffffffffffffffffff168173ffffffffffffffffffffffffffffffffffffffff161415610c44576040517f08c379a0000000000000000000000000000000000000000000000000000000008152600401610c3b90611c26565b60405180910390fd5b610c4d81610d0f565b50565b610c58611713565b610c60611713565b610c7785858584610dff909392919063ffffffff16565b9150509392505050565b610c98828460800151610eaf90919063ffffffff16565b610caf818460800151610eaf90919063ffffffff16565b505050565b610ccb828460800151610eaf90919063ffffffff16565b610ce2818460800151610ed490919063ffffffff16565b505050565b6000610cfe8484846001634042994660e01b610f81565b90509392505050565b600033905090565b6000600660009054906101000a900473ffffffffffffffffffffffffffffffffffffffff16905081600660006101000a81548173ffffffffffffffffffffffffffffffffffffffff021916908373ffffffffffffffffffffffffffffffffffffffff1602179055508173ffffffffffffffffffffffffffffffffffffffff168173ffffffffffffffffffffffffffffffffffffffff167f8be0079c531659141344cd1fd0a4f28419497f9722a3daafe3b4186f6b6457e060405160405180910390a35050565b6000600260009054906101000a900473ffffffffffffffffffffffffffffffffffffffff16905090565b610e07611713565b610e1785608001516101006111e9565b508385600001818152505082856020019073ffffffffffffffffffffffffffffffffffffffff16908173ffffffffffffffffffffffffffffffffffffffff16815250508185604001907bffffffffffffffffffffffffffffffffffffffffffffffffffffffff191690817bffffffffffffffffffffffffffffffffffffffffffffffffffffffff191681525050849050949350505050565b610ebc8260038351611253565b610ecf818361139890919063ffffffff16565b505050565b7fffffffffffffffffffffffffffffffffffffffffffffffff0000000000000000811215610f0b57610f0682826113ba565b610f7d565b67ffffffffffffffff811315610f2a57610f258282611431565b610f7c565b60008112610f4357610f3e82600083611253565b610f7b565b610f7a826001837fffffffffffffffffffffffffffffffffffffffffffffffffffffffffffffffff610f759190611f3a565b611253565b5b5b5b5050565b600030600454604051602001610f98929190611a64565b604051602081830303815290604052805190602001209050600454856060018181525050856005600083815260200190815260200160002060006101000a81548173ffffffffffffffffffffffffffffffffffffffff021916908373ffffffffffffffffffffffffffffffffffffffff160217905550807fb5e6e01e79f91267dc17b4e6314d5d4d03593d2ceee0fbb452b750bd70ea5af960405160405180910390a2600082600080886000015189602001518a604001518b606001518a8d6080015160000151604051602401611076989796959493929190611b0b565b604051602081830303815290604052907bffffffffffffffffffffffffffffffffffffffffffffffffffffffff19166020820180517bffffffffffffffffffffffffffffffffffffffffffffffffffffffff83818316178352505050509050600260009054906101000a900473ffffffffffffffffffffffffffffffffffffffff1673ffffffffffffffffffffffffffffffffffffffff16634000aea08887846040518463ffffffff1660e01b815260040161113493929190611b90565b602060405180830381600087803b15801561114e57600080fd5b505af1158015611162573d6000803e3d6000fd5b505050506040513d601f19601f820116820180604052508101906111869190611830565b6111c5576040517f08c379a00000000000000000000000000000000000000000000000000000000081526004016111bc90611c46565b60405180910390fd5b6001600460008282546111d89190611d19565b925050819055505095945050505050565b6111f1611780565b60006020836112009190612160565b1461122c576020826112129190612160565b602061121e9190611fce565b826112299190611d19565b91505b81836020018181525050604051808452600081528281016020016040525082905092915050565b601781116112805761127a8160058460ff16901b60ff16178461147d90919063ffffffff16565b50611393565b60ff81116112c2576112a5601860058460ff16901b178461147d90919063ffffffff16565b506112bc8160018561149d9092919063ffffffff16565b50611392565b61ffff8111611305576112e8601960058460ff16901b178461147d90919063ffffffff16565b506112ff8160028561149d9092919063ffffffff16565b50611391565b63ffffffff811161134a5761132d601a60058460ff16901b178461147d90919063ffffffff16565b506113448160048561149d9092919063ffffffff16565b50611390565b67ffffffffffffffff811161138f57611376601b60058460ff16901b178461147d90919063ffffffff16565b5061138d8160088561149d9092919063ffffffff16565b505b5b5b5b5b505050565b6113a0611780565b6113b2838460000151518485516114bf565b905092915050565b6113d860036005600660ff16901b178361147d90919063ffffffff16565b5061142d82827fffffffffffffffffffffffffffffffffffffffffffffffffffffffffffffffff6114099190611f3a565b6040516020016114199190611cc6565b6040516020818303038152906040526115c9565b5050565b61144f60026005600660ff16901b178361147d90919063ffffffff16565b5061147982826040516020016114659190611cc6565b6040516020818303038152906040526115c9565b5050565b611485611780565b61149583846000015151846115ee565b905092915050565b6114a5611780565b6114b6848560000151518585611645565b90509392505050565b6114c7611780565b82518211156114d557600080fd5b846020015182856114e69190611d19565b111561151b5761151a85600261150b886020015188876115069190611d19565b6116d3565b6115159190611ee0565b6116ef565b5b60008086518051876020830101935080888701111561153a5787860182525b60208701925050505b60208410611581578051825260208261155c9190611d19565b915060208161156b9190611d19565b905060208461157a9190611fce565b9350611543565b600060018560206115929190611fce565b61010061159f9190611dc2565b6115a99190611fce565b905080198251168184511681811785525050879350505050949350505050565b6115d68260028351611253565b6115e9818361139890919063ffffffff16565b505050565b6115f6611780565b8360200151831061161c5761161b84600286602001516116169190611ee0565b6116ef565b5b8351805160208583010184815381861415611638576001820183525b5050508390509392505050565b61164d611780565b8460200151848361165e9190611d19565b11156116865761168585600286856116769190611d19565b6116809190611ee0565b6116ef565b5b60006001836101006116989190611dc2565b6116a29190611fce565b905085518386820101858319825116178152815185880111156116c55784870182525b505085915050949350505050565b6000818311156116e5578290506116e9565b8190505b92915050565b60008260000151905061170283836111e9565b5061170d8382611398565b50505050565b6040518060a0016040528060008019168152602001600073ffffffffffffffffffffffffffffffffffffffff16815260200160007bffffffffffffffffffffffffffffffffffffffffffffffffffffffff191681526020016000815260200161177a611780565b81525090565b604051806040016040528060608152602001600081525090565b6000813590506117a98161238d565b92915050565b6000815190506117be816123a4565b92915050565b6000813590506117d3816123bb565b92915050565b6000813590506117e8816123d2565b92915050565b6000815190506117fd816123d2565b92915050565b6000602082840312156118195761181861221e565b5b60006118278482850161179a565b91505092915050565b6000602082840312156118465761184561221e565b5b6000611854848285016117af565b91505092915050565b600080604083850312156118745761187361221e565b5b6000611882858286016117c4565b9250506020611893858286016117d9565b9150509250929050565b6000602082840312156118b3576118b261221e565b5b60006118c1848285016117ee565b91505092915050565b6118d381612002565b82525050565b6118e281612020565b82525050565b6118f18161202a565b82525050565b600061190282611ce1565b61190c8185611cf7565b935061191c8185602086016120cd565b61192581612223565b840191505092915050565b61194161193c82612097565b612132565b82525050565b61195081612060565b82525050565b600061196182611cec565b61196b8185611d08565b935061197b8185602086016120cd565b61198481612223565b840191505092915050565b600061199c602683611d08565b91506119a78261224e565b604082019050919050565b60006119bf602383611d08565b91506119ca8261229d565b604082019050919050565b60006119e2602083611d08565b91506119ed826122ec565b602082019050919050565b6000611a05602883611d08565b9150611a1082612315565b604082019050919050565b6000611a28601283611d08565b9150611a3382612364565b602082019050919050565b611a478161208d565b82525050565b611a5e611a598261208d565b612156565b82525050565b6000611a708285611930565b601482019150611a808284611a4d565b6020820191508190509392505050565b6000602082019050611aa560008301846118ca565b92915050565b6000606082019050611ac060008301866118ca565b611acd60208301856118d9565b611ada6040830184611a3e565b949350505050565b6000604082019050611af760008301856118ca565b611b046020830184611a3e565b9392505050565b600061010082019050611b21600083018b6118ca565b611b2e602083018a611a3e565b611b3b60408301896118d9565b611b4860608301886118ca565b611b5560808301876118e8565b611b6260a0830186611a3e565b611b6f60c0830185611a3e565b81810360e0830152611b8181846118f7565b90509998505050505050505050565b6000606082019050611ba560008301866118ca565b611bb26020830185611a3e565b8181036040830152611bc481846118f7565b9050949350505050565b6000602082019050611be360008301846118d9565b92915050565b6000602082019050611bfe6000830184611947565b92915050565b60006020820190508181036000830152611c1e8184611956565b905092915050565b60006020820190508181036000830152611c3f8161198f565b9050919050565b60006020820190508181036000830152611c5f816119b2565b9050919050565b60006020820190508181036000830152611c7f816119d5565b9050919050565b60006020820190508181036000830152611c9f816119f8565b9050919050565b60006020820190508181036000830152611cbf81611a1b565b9050919050565b6000602082019050611cdb6000830184611a3e565b92915050565b600081519050919050565b600081519050919050565b600082825260208201905092915050565b600082825260208201905092915050565b6000611d248261208d565b9150611d2f8361208d565b9250827fffffffffffffffffffffffffffffffffffffffffffffffffffffffffffffffff03821115611d6457611d63612191565b5b828201905092915050565b6000808291508390505b6001851115611db957808604811115611d9557611d94612191565b5b6001851615611da45780820291505b8081029050611db285612241565b9450611d79565b94509492505050565b6000611dcd8261208d565b9150611dd88361208d565b9250611e057fffffffffffffffffffffffffffffffffffffffffffffffffffffffffffffffff8484611e0d565b905092915050565b600082611e1d5760019050611ed9565b81611e2b5760009050611ed9565b8160018114611e415760028114611e4b57611e7a565b6001915050611ed9565b60ff841115611e5d57611e5c612191565b5b8360020a915084821115611e7457611e73612191565b5b50611ed9565b5060208310610133831016604e8410600b8410161715611eaf5782820a905083811115611eaa57611ea9612191565b5b611ed9565b611ebc8484846001611d6f565b92509050818404811115611ed357611ed2612191565b5b81810290505b9392505050565b6000611eeb8261208d565b9150611ef68361208d565b9250817fffffffffffffffffffffffffffffffffffffffffffffffffffffffffffffffff0483118215151615611f2f57611f2e612191565b5b828202905092915050565b6000611f4582612056565b9150611f5083612056565b9250827f800000000000000000000000000000000000000000000000000000000000000001821260008412151615611f8b57611f8a612191565b5b827f7fffffffffffffffffffffffffffffffffffffffffffffffffffffffffffffff018213600084121615611fc357611fc2612191565b5b828203905092915050565b6000611fd98261208d565b9150611fe48361208d565b925082821015611ff757611ff6612191565b5b828203905092915050565b600061200d8261206d565b9050919050565b60008115159050919050565b6000819050919050565b60007fffffffff0000000000000000000000000000000000000000000000000000000082169050919050565b6000819050919050565b60008160000b9050919050565b600073ffffffffffffffffffffffffffffffffffffffff82169050919050565b6000819050919050565b60006120a2826120a9565b9050919050565b60006120b4826120bb565b9050919050565b60006120c68261206d565b9050919050565b60005b838110156120eb5780820151818401526020810190506120d0565b838111156120fa576000848401525b50505050565b6000600282049050600182168061211857607f821691505b6020821081141561212c5761212b6121ef565b5b50919050565b600061213d82612144565b9050919050565b600061214f82612234565b9050919050565b6000819050919050565b600061216b8261208d565b91506121768361208d565b925082612186576121856121c0565b5b828206905092915050565b7f4e487b7100000000000000000000000000000000000000000000000000000000600052601160045260246000fd5b7f4e487b7100000000000000000000000000000000000000000000000000000000600052601260045260246000fd5b7f4e487b7100000000000000000000000000000000000000000000000000000000600052602260045260246000fd5b600080fd5b6000601f19601f8301169050919050565b60008160601b9050919050565b60008160011c9050919050565b7f4f776e61626c653a206e6577206f776e657220697320746865207a65726f206160008201527f6464726573730000000000000000000000000000000000000000000000000000602082015250565b7f756e61626c6520746f207472616e73666572416e6443616c6c20746f206f726160008201527f636c650000000000000000000000000000000000000000000000000000000000602082015250565b7f4f776e61626c653a2063616c6c6572206973206e6f7420746865206f776e6572600082015250565b7f536f75726365206d75737420626520746865206f7261636c65206f662074686560008201527f2072657175657374000000000000000000000000000000000000000000000000602082015250565b7f556e61626c6520746f2077697468647261770000000000000000000000000000600082015250565b61239681612002565b81146123a157600080fd5b50565b6123ad81612014565b81146123b857600080fd5b50565b6123c481612020565b81146123cf57600080fd5b50565b6123db8161208d565b81146123e657600080fd5b5056fea2646970667358221220a0921197a630f1f37066e8d71edfae8154a3b71851c001f64f44201c3b13f21364736f6c63430008070033687474703a2f2f76616c756174696f6e2d6170692e6865726f6b756170702e636f6d2f7072696365",
  "immutableReferences": {},
  "source": "// SPDX-License-Identifier: UNLICENSED\r\n\r\npragma solidity ^0.8.6;\r\n\r\nimport \"../ChainlinkOracle.sol\";\r\n\r\ncontract ValuationOracle is ChainlinkOracle {\r\n    string private constant baseURL = \"http://valuation-api.herokuapp.com/price\";\r\n    string public constant apiPath = \"price\";\r\n    string public urlParameters;\r\n\r\n    //figure out decimals for future contract price\r\n\r\n    \r\n    /* fixed-point representation scaled 1/100\r\n     * Examples of internal representation of values\r\n     * - underlyingPrice: $43.78 -> 4378\r\n     * - annualRiskFreeRate: 1.24% -> 124\r\n     */\r\n    constructor(\r\n        address oracleAddress, \r\n        bytes32 jobId, \r\n        address linkAddress, \r\n        uint256 fee, \r\n        uint256 underlyingPrice, \r\n        uint8 annualRiskFreeRate, \r\n        uint256 valuationDate, \r\n        uint256 expirationDate) \r\n        ChainlinkOracle (\r\n            oracleAddress, \r\n            jobId, \r\n            concetenateStringsForURL(baseURL, uint2str(underlyingPrice), uint2str(annualRiskFreeRate), uint2str(valuationDate), uint2str(expirationDate)), \r\n            apiPath, \r\n            linkAddress, \r\n            fee, \r\n            100\r\n        ) {\r\n    }\r\n    \r\n    //concatanate strings and add /  where needed for URL\r\n    function concetenateStringsForURL(string memory a, string memory b, string memory c, string memory d, string memory e) internal pure returns (string memory) {\r\n\t    return string(abi.encodePacked(a,\"/\", b, \"/\", c, \"/\", d, \"/\", e));\r\n    }\r\n\r\n    //parse uint to string\r\n    function uint2str(uint _i) internal pure returns (string memory _uintAsString) {\r\n        if (_i == 0) {\r\n            return \"0\";\r\n        }\r\n        uint j = _i;\r\n        uint len;\r\n        while (j != 0) {\r\n            len++;\r\n            j /= 10;\r\n        }\r\n        bytes memory bstr = new bytes(len);\r\n        uint k = len;\r\n        while (_i != 0) {\r\n            k = k-1;\r\n            uint8 temp = (48 + uint8(_i - _i / 10 * 10));\r\n            bytes1 b1 = bytes1(temp);\r\n            bstr[k] = b1;\r\n            _i /= 10;\r\n        }\r\n        return string(bstr);\r\n    }\r\n}",
  "sourcePath": "C:\\Users\\Tomi\\OneDrive - The University of Chicago\\Documents\\Securrency\\FuturesExchange\\contracts\\Oracles\\ValuationOracle.sol",
  "compiler": {
    "name": "solc",
    "version": "0.8.7+commit.e28d00a7.Emscripten.clang"
  },
  "schemaVersion": "3.4.2",
  "updatedAt": "2021-08-20T14:58:04.858Z",
  "devdoc": {
    "kind": "dev",
    "methods": {
      "owner()": {
        "details": "Returns the address of the current owner."
      },
      "renounceOwnership()": {
        "details": "Leaves the contract without owner. It will not be possible to call `onlyOwner` functions anymore. Can only be called by the current owner. NOTE: Renouncing ownership will leave the contract without an owner, thereby removing any functionality that is only available to the owner."
      },
      "transferOwnership(address)": {
        "details": "Transfers ownership of the contract to a new account (`newOwner`). Can only be called by the current owner."
      }
    },
    "version": 1
  },
  "userdoc": {
    "kind": "user",
    "methods": {},
    "version": 1
  }
}